{
  "contractName": "OracleManager",
  "abi": [
    {
      "anonymous": false,
      "inputs": [
        {
          "indexed": false,
          "internalType": "address",
          "name": "caller",
          "type": "address"
        },
        {
          "indexed": false,
          "internalType": "address",
          "name": "addr",
          "type": "address"
        },
        {
          "indexed": false,
          "internalType": "string",
          "name": "internetName",
          "type": "string"
        },
        {
          "indexed": false,
          "internalType": "uint256",
          "name": "stake",
          "type": "uint256"
        }
      ],
      "name": "OracleRegistered",
      "type": "event"
    },
    {
      "anonymous": false,
      "inputs": [
        {
          "indexed": false,
          "internalType": "address",
          "name": "caller",
          "type": "address"
        },
        {
          "indexed": false,
          "internalType": "address",
          "name": "addr",
          "type": "address"
        }
      ],
      "name": "OracleRemoved",
      "type": "event"
    },
    {
      "anonymous": false,
      "inputs": [
        {
          "indexed": false,
          "internalType": "address",
          "name": "caller",
          "type": "address"
        },
        {
          "indexed": false,
          "internalType": "address",
          "name": "addr",
          "type": "address"
        },
        {
          "indexed": false,
          "internalType": "uint256",
          "name": "stake",
          "type": "uint256"
        }
      ],
      "name": "OracleStakeAdded",
      "type": "event"
    },
    {
      "anonymous": false,
      "inputs": [
        {
          "indexed": false,
          "internalType": "address",
          "name": "caller",
          "type": "address"
        },
        {
          "indexed": false,
          "internalType": "address",
          "name": "addr",
          "type": "address"
        },
        {
          "indexed": false,
          "internalType": "bytes32",
          "name": "coinpair",
          "type": "bytes32"
        }
      ],
      "name": "OracleSuscribed",
      "type": "event"
    },
    {
      "anonymous": false,
      "inputs": [
        {
          "indexed": false,
          "internalType": "address",
          "name": "caller",
          "type": "address"
        },
        {
          "indexed": false,
          "internalType": "address",
          "name": "addr",
          "type": "address"
        },
        {
          "indexed": false,
          "internalType": "bytes32",
          "name": "coinpair",
          "type": "bytes32"
        }
      ],
      "name": "OracleUnsuscribed",
      "type": "event"
    },
    {
      "inputs": [
        {
          "internalType": "contract IGovernor",
          "name": "newIGovernor",
          "type": "address"
        }
      ],
      "name": "changeIGovernor",
      "outputs": [],
      "stateMutability": "nonpayable",
      "type": "function"
    },
    {
      "inputs": [
        {
          "internalType": "uint256",
          "name": "i",
          "type": "uint256"
        }
      ],
      "name": "getCoinPairAtIndex",
      "outputs": [
        {
          "internalType": "bytes32",
          "name": "",
          "type": "bytes32"
        }
      ],
      "stateMutability": "view",
      "type": "function",
      "constant": true
    },
    {
      "inputs": [],
      "name": "getCoinPairCount",
      "outputs": [
        {
          "internalType": "uint256",
          "name": "",
          "type": "uint256"
        }
      ],
      "stateMutability": "view",
      "type": "function",
      "constant": true
    },
    {
      "inputs": [
        {
          "internalType": "bytes32",
          "name": "coinpair",
          "type": "bytes32"
        }
      ],
      "name": "getContractAddress",
      "outputs": [
        {
          "internalType": "address",
          "name": "",
          "type": "address"
        }
      ],
      "stateMutability": "view",
      "type": "function",
      "constant": true
    },
    {
      "inputs": [],
      "name": "governor",
      "outputs": [
        {
          "internalType": "contract IGovernor",
          "name": "",
          "type": "address"
        }
      ],
      "stateMutability": "view",
      "type": "function",
      "constant": true
    },
    {
      "inputs": [],
      "name": "minOracleOwnerStake",
      "outputs": [
        {
          "internalType": "uint256",
          "name": "",
          "type": "uint256"
        }
      ],
      "stateMutability": "view",
      "type": "function",
      "constant": true
    },
    {
      "inputs": [],
      "name": "supportersContract",
      "outputs": [
        {
          "internalType": "contract Supporters",
          "name": "",
          "type": "address"
        }
      ],
      "stateMutability": "view",
      "type": "function",
      "constant": true
    },
    {
      "inputs": [],
      "name": "token",
      "outputs": [
        {
          "internalType": "contract IERC20",
          "name": "",
          "type": "address"
        }
      ],
      "stateMutability": "view",
      "type": "function",
      "constant": true
    },
    {
      "inputs": [
        {
          "internalType": "contract IGovernor",
          "name": "_governor",
          "type": "address"
        },
        {
          "internalType": "uint256",
          "name": "_minOracleOwnerStake",
          "type": "uint256"
        },
        {
          "internalType": "contract Supporters",
          "name": "_supportersContract",
          "type": "address"
        }
      ],
      "name": "initialize",
      "outputs": [],
      "stateMutability": "nonpayable",
      "type": "function"
    },
    {
      "inputs": [
        {
          "internalType": "contract IGovernor",
          "name": "_governor",
          "type": "address"
        }
      ],
      "name": "initialize",
      "outputs": [],
      "stateMutability": "nonpayable",
      "type": "function"
    },
    {
      "inputs": [
        {
          "internalType": "uint256",
          "name": "_minOracleOwnerStake",
          "type": "uint256"
        }
      ],
      "name": "setMinOracleOwnerStake",
      "outputs": [],
      "stateMutability": "nonpayable",
      "type": "function"
    },
    {
      "inputs": [
        {
          "internalType": "bytes32",
          "name": "coinPair",
          "type": "bytes32"
        },
        {
          "internalType": "address",
          "name": "addr",
          "type": "address"
        }
      ],
      "name": "registerCoinPair",
      "outputs": [],
      "stateMutability": "nonpayable",
      "type": "function"
    },
    {
      "inputs": [
        {
          "internalType": "address",
          "name": "addr",
          "type": "address"
        },
        {
          "internalType": "string",
          "name": "internetName",
          "type": "string"
        },
        {
          "internalType": "uint256",
          "name": "stake",
          "type": "uint256"
        }
      ],
      "name": "registerOracle",
      "outputs": [],
      "stateMutability": "nonpayable",
      "type": "function"
    },
    {
      "inputs": [
        {
          "internalType": "address",
          "name": "addr",
          "type": "address"
        },
        {
          "internalType": "string",
          "name": "internetName",
          "type": "string"
        },
        {
          "internalType": "uint256",
          "name": "stake",
          "type": "uint256"
        },
        {
          "internalType": "address",
          "name": "prevEntry",
          "type": "address"
        }
      ],
      "name": "registerOracleWithHint",
      "outputs": [],
      "stateMutability": "nonpayable",
      "type": "function"
    },
    {
      "inputs": [
        {
          "internalType": "address",
          "name": "addr",
          "type": "address"
        },
        {
          "internalType": "uint256",
          "name": "stake",
          "type": "uint256"
        }
      ],
      "name": "addStake",
      "outputs": [],
      "stateMutability": "nonpayable",
      "type": "function"
    },
    {
      "inputs": [
        {
          "internalType": "address",
          "name": "addr",
          "type": "address"
        },
        {
          "internalType": "uint256",
          "name": "stake",
          "type": "uint256"
        },
        {
          "internalType": "address",
          "name": "removePrevEntry",
          "type": "address"
        },
        {
          "internalType": "address",
          "name": "addPrevEntry",
          "type": "address"
        }
      ],
      "name": "addStakeWithHint",
      "outputs": [],
      "stateMutability": "nonpayable",
      "type": "function"
    },
    {
      "inputs": [
        {
          "internalType": "address",
          "name": "oracleAddr",
          "type": "address"
        },
        {
          "internalType": "bytes32",
          "name": "coinPair",
          "type": "bytes32"
        }
      ],
      "name": "suscribeCoinPair",
      "outputs": [],
      "stateMutability": "nonpayable",
      "type": "function"
    },
    {
      "inputs": [
        {
          "internalType": "address",
          "name": "oracleAddr",
          "type": "address"
        },
        {
          "internalType": "bytes32",
          "name": "coinPair",
          "type": "bytes32"
        }
      ],
      "name": "unsuscribeCoinPair",
      "outputs": [],
      "stateMutability": "nonpayable",
      "type": "function"
    },
    {
      "inputs": [
        {
          "internalType": "address",
          "name": "oracleAddr",
          "type": "address"
        },
        {
          "internalType": "bytes32",
          "name": "coinPair",
          "type": "bytes32"
        }
      ],
      "name": "isSuscribed",
      "outputs": [
        {
          "internalType": "bool",
          "name": "",
          "type": "bool"
        }
      ],
      "stateMutability": "view",
      "type": "function",
      "constant": true
    },
    {
      "inputs": [
        {
          "internalType": "address",
          "name": "oracleAddr",
          "type": "address"
        }
      ],
      "name": "getSuscribedCoinPairAddresses",
      "outputs": [
        {
          "internalType": "address[]",
          "name": "addresses",
          "type": "address[]"
        },
        {
          "internalType": "uint256",
          "name": "count",
          "type": "uint256"
        }
      ],
      "stateMutability": "view",
      "type": "function",
      "constant": true
    },
    {
      "inputs": [
        {
          "internalType": "address",
          "name": "addr",
          "type": "address"
        }
      ],
      "name": "getStake",
      "outputs": [
        {
          "internalType": "uint256",
          "name": "",
          "type": "uint256"
        }
      ],
      "stateMutability": "view",
      "type": "function",
      "constant": true
    },
    {
      "inputs": [],
      "name": "getRegisteredOracleHead",
      "outputs": [
        {
          "internalType": "address",
          "name": "",
          "type": "address"
        }
      ],
      "stateMutability": "view",
      "type": "function",
      "constant": true
    },
    {
      "inputs": [
        {
          "internalType": "address",
          "name": "iterator",
          "type": "address"
        }
      ],
      "name": "getRegisteredOracleNext",
      "outputs": [
        {
          "internalType": "address",
          "name": "",
          "type": "address"
        }
      ],
      "stateMutability": "view",
      "type": "function",
      "constant": true
    },
    {
      "inputs": [
        {
          "internalType": "address",
          "name": "addr",
          "type": "address"
        }
      ],
      "name": "getPrevByAddr",
      "outputs": [
        {
          "internalType": "address",
          "name": "",
          "type": "address"
        }
      ],
      "stateMutability": "view",
      "type": "function",
      "constant": true
    },
    {
      "inputs": [
        {
          "internalType": "address",
          "name": "addr",
          "type": "address"
        },
        {
          "internalType": "address",
          "name": "prevEntry",
          "type": "address"
        }
      ],
      "name": "getPrevByAddrWithHint",
      "outputs": [
        {
          "internalType": "address",
          "name": "",
          "type": "address"
        }
      ],
      "stateMutability": "view",
      "type": "function",
      "constant": true
    },
    {
      "inputs": [
        {
          "internalType": "uint256",
          "name": "stake",
          "type": "uint256"
        }
      ],
      "name": "getPrevByStake",
      "outputs": [
        {
          "internalType": "address",
          "name": "",
          "type": "address"
        }
      ],
      "stateMutability": "view",
      "type": "function",
      "constant": true
    },
    {
      "inputs": [
        {
          "internalType": "uint256",
          "name": "stake",
          "type": "uint256"
        },
        {
          "internalType": "address",
          "name": "prevEntry",
          "type": "address"
        }
      ],
      "name": "getPrevByStakeWithHint",
      "outputs": [
        {
          "internalType": "address",
          "name": "",
          "type": "address"
        }
      ],
      "stateMutability": "view",
      "type": "function",
      "constant": true
    },
    {
      "inputs": [
        {
          "internalType": "address",
          "name": "addr",
          "type": "address"
        },
        {
          "internalType": "string",
          "name": "name",
          "type": "string"
        }
      ],
      "name": "setOracleName",
      "outputs": [],
      "stateMutability": "nonpayable",
      "type": "function"
    },
    {
      "inputs": [
        {
          "internalType": "address",
          "name": "addr",
          "type": "address"
        }
      ],
      "name": "isOracleRegistered",
      "outputs": [
        {
          "internalType": "bool",
          "name": "",
          "type": "bool"
        }
      ],
      "stateMutability": "view",
      "type": "function",
      "constant": true
    },
    {
      "inputs": [
        {
          "internalType": "address",
          "name": "addr",
          "type": "address"
        }
      ],
      "name": "getOracleRegistrationInfo",
      "outputs": [
        {
          "internalType": "string",
          "name": "internetName",
          "type": "string"
        },
        {
          "internalType": "uint256",
          "name": "stake",
          "type": "uint256"
        },
        {
          "internalType": "address",
          "name": "_owner",
          "type": "address"
        }
      ],
      "stateMutability": "view",
      "type": "function",
      "constant": true
    },
    {
      "inputs": [
        {
          "internalType": "address",
          "name": "addr",
          "type": "address"
        },
        {
          "internalType": "bytes32",
          "name": "coinpair",
          "type": "bytes32"
        }
      ],
      "name": "getOracleRoundInfo",
      "outputs": [
        {
          "internalType": "uint256",
          "name": "points",
          "type": "uint256"
        },
        {
          "internalType": "uint256",
          "name": "selectedInRound",
          "type": "uint256"
        },
        {
          "internalType": "bool",
          "name": "selectedInCurrentRound",
          "type": "bool"
        }
      ],
      "stateMutability": "view",
      "type": "function",
      "constant": true
    },
    {
      "inputs": [
        {
          "internalType": "address",
          "name": "oracleAddr",
          "type": "address"
        }
      ],
      "name": "removeOracle",
      "outputs": [],
      "stateMutability": "nonpayable",
      "type": "function"
    },
    {
      "inputs": [
        {
          "internalType": "address",
          "name": "oracleAddr",
          "type": "address"
        },
        {
          "internalType": "address",
          "name": "prevEntry",
          "type": "address"
        }
      ],
      "name": "removeOracleWithHint",
      "outputs": [],
      "stateMutability": "nonpayable",
      "type": "function"
    }
  ],
  "bytecode": "0x6080604052615056806100136000396000f3fe608060405234801561001057600080fd5b50600436106101fb5760003560e01c8063b8923b831161011a578063d92779cf116100ad578063f758ddd81161007c578063f758ddd814610d7c578063fac3c1f414610dca578063fc0c546a14610ea5578063fc3a764214610eef578063fdc85fc414610ff4576101fb565b8063d92779cf14610bc4578063db6627c914610c48578063df1810f914610c96578063efee913f14610cd8576101fb565b8063c4d66de8116100e9578063c4d66de814610a8a578063ccd9886214610ace578063cdb8bedd14610aec578063d682260414610b60576101fb565b8063b8923b831461092c578063b9b55c9a14610976578063bfbf602e146109d2578063c350a1b514610a1c576101fb565b80637a76646011610192578063a105184811610161578063a105184814610711578063a48dcf5c14610795578063a8c752a01461087a578063b6e08330146108e8576101fb565b80637a766460146104e65780637f680b241461053e5780638e04191e146105cc578063949394fe1461061a576101fb565b8063452df247116101ce578063452df247146103e65780635881c5a91461044c5780636374299e1461047a57806363adb1a2146104c8576101fb565b80630c340a24146102005780630d2020dd1461024a5780632efc7aa4146102b85780632f6a42ed14610346575b600080fd5b610208611038565b604051808273ffffffffffffffffffffffffffffffffffffffff1673ffffffffffffffffffffffffffffffffffffffff16815260200191505060405180910390f35b6102766004803603602081101561026057600080fd5b810190808035906020019092919050505061105e565b604051808273ffffffffffffffffffffffffffffffffffffffff1673ffffffffffffffffffffffffffffffffffffffff16815260200191505060405180910390f35b610344600480360360808110156102ce57600080fd5b81019080803573ffffffffffffffffffffffffffffffffffffffff16906020019092919080359060200190929190803573ffffffffffffffffffffffffffffffffffffffff169060200190929190803573ffffffffffffffffffffffffffffffffffffffff16906020019092919050505061109a565b005b6103886004803603602081101561035c57600080fd5b81019080803573ffffffffffffffffffffffffffffffffffffffff16906020019092919050505061127b565b6040518080602001838152602001828103825284818151815260200191508051906020019060200280838360005b838110156103d15780820151818401526020810190506103b6565b50505050905001935050505060405180910390f35b610432600480360360408110156103fc57600080fd5b81019080803573ffffffffffffffffffffffffffffffffffffffff16906020019092919080359060200190929190505050611370565b604051808215151515815260200191505060405180910390f35b6104786004803603602081101561046257600080fd5b81019080803590602001909291905050506114d3565b005b6104c66004803603604081101561049057600080fd5b81019080803573ffffffffffffffffffffffffffffffffffffffff16906020019092919080359060200190929190505050611694565b005b6104d06116a5565b6040518082815260200191505060405180910390f35b610528600480360360208110156104fc57600080fd5b81019080803573ffffffffffffffffffffffffffffffffffffffff1690602001909291905050506116b2565b6040518082815260200191505060405180910390f35b61058a6004803603604081101561055457600080fd5b8101908080359060200190929190803573ffffffffffffffffffffffffffffffffffffffff1690602001909291905050506117c9565b604051808273ffffffffffffffffffffffffffffffffffffffff1673ffffffffffffffffffffffffffffffffffffffff16815260200191505060405180910390f35b610618600480360360408110156105e257600080fd5b8101908080359060200190929190803573ffffffffffffffffffffffffffffffffffffffff1690602001909291905050506117e9565b005b61065c6004803603602081101561063057600080fd5b81019080803573ffffffffffffffffffffffffffffffffffffffff1690602001909291905050506119ae565b60405180806020018481526020018373ffffffffffffffffffffffffffffffffffffffff1673ffffffffffffffffffffffffffffffffffffffff168152602001828103825285818151815260200191508051906020019080838360005b838110156106d45780820151818401526020810190506106b9565b50505050905090810190601f1680156107015780820380516001836020036101000a031916815260200191505b5094505050505060405180910390f35b6107536004803603602081101561072757600080fd5b81019080803573ffffffffffffffffffffffffffffffffffffffff169060200190929190505050611a6f565b604051808273ffffffffffffffffffffffffffffffffffffffff1673ffffffffffffffffffffffffffffffffffffffff16815260200191505060405180910390f35b610878600480360360608110156107ab57600080fd5b81019080803573ffffffffffffffffffffffffffffffffffffffff169060200190929190803590602001906401000000008111156107e857600080fd5b8201836020820111156107fa57600080fd5b8035906020019184600183028401116401000000008311171561081c57600080fd5b91908080601f016020809104026020016040519081016040528093929190818152602001838380828437600081840152601f19601f82011690508083019250505050505050919291929080359060200190929190505050611a8f565b005b6108a66004803603602081101561089057600080fd5b8101908080359060200190929190505050611aa1565b604051808273ffffffffffffffffffffffffffffffffffffffff1673ffffffffffffffffffffffffffffffffffffffff16815260200191505060405180910390f35b61092a600480360360208110156108fe57600080fd5b81019080803573ffffffffffffffffffffffffffffffffffffffff169060200190929190505050611ac1565b005b610934611cbc565b604051808273ffffffffffffffffffffffffffffffffffffffff1673ffffffffffffffffffffffffffffffffffffffff16815260200191505060405180910390f35b6109b86004803603602081101561098c57600080fd5b81019080803573ffffffffffffffffffffffffffffffffffffffff169060200190929190505050611ce2565b604051808215151515815260200191505060405180910390f35b6109da611d0c565b604051808273ffffffffffffffffffffffffffffffffffffffff1673ffffffffffffffffffffffffffffffffffffffff16815260200191505060405180910390f35b610a8860048036036060811015610a3257600080fd5b81019080803573ffffffffffffffffffffffffffffffffffffffff16906020019092919080359060200190929190803573ffffffffffffffffffffffffffffffffffffffff169060200190929190505050611d1d565b005b610acc60048036036020811015610aa057600080fd5b81019080803573ffffffffffffffffffffffffffffffffffffffff1690602001909291905050506121a0565b005b610ad66122e5565b6040518082815260200191505060405180910390f35b610b3860048036036040811015610b0257600080fd5b81019080803573ffffffffffffffffffffffffffffffffffffffff169060200190929190803590602001909291905050506122eb565b6040518084815260200183815260200182151515158152602001935050505060405180910390f35b610bc260048036036040811015610b7657600080fd5b81019080803573ffffffffffffffffffffffffffffffffffffffff169060200190929190803573ffffffffffffffffffffffffffffffffffffffff1690602001909291905050506123dc565b005b610c0660048036036020811015610bda57600080fd5b81019080803573ffffffffffffffffffffffffffffffffffffffff16906020019092919050505061270c565b604051808273ffffffffffffffffffffffffffffffffffffffff1673ffffffffffffffffffffffffffffffffffffffff16815260200191505060405180910390f35b610c9460048036036040811015610c5e57600080fd5b81019080803573ffffffffffffffffffffffffffffffffffffffff16906020019092919080359060200190929190505050612729565b005b610cc260048036036020811015610cac57600080fd5b810190808035906020019092919050505061298a565b6040518082815260200191505060405180910390f35b610d3a60048036036040811015610cee57600080fd5b81019080803573ffffffffffffffffffffffffffffffffffffffff169060200190929190803573ffffffffffffffffffffffffffffffffffffffff169060200190929190505050612a25565b604051808273ffffffffffffffffffffffffffffffffffffffff1673ffffffffffffffffffffffffffffffffffffffff16815260200191505060405180910390f35b610dc860048036036040811015610d9257600080fd5b81019080803573ffffffffffffffffffffffffffffffffffffffff16906020019092919080359060200190929190505050612a45565b005b610ea360048036036040811015610de057600080fd5b81019080803573ffffffffffffffffffffffffffffffffffffffff16906020019092919080359060200190640100000000811115610e1d57600080fd5b820183602082011115610e2f57600080fd5b80359060200191846001830284011164010000000083111715610e5157600080fd5b91908080601f016020809104026020016040519081016040528093929190818152602001838380828437600081840152601f19601f820116905080830192505050505050509192919290505050612ca6565b005b610ead612db9565b604051808273ffffffffffffffffffffffffffffffffffffffff1673ffffffffffffffffffffffffffffffffffffffff16815260200191505060405180910390f35b610ff260048036036080811015610f0557600080fd5b81019080803573ffffffffffffffffffffffffffffffffffffffff16906020019092919080359060200190640100000000811115610f4257600080fd5b820183602082011115610f5457600080fd5b80359060200191846001830284011164010000000083111715610f7657600080fd5b91908080601f016020809104026020016040519081016040528093929190818152602001838380828437600081840152601f19601f82011690508083019250505050505050919291929080359060200190929190803573ffffffffffffffffffffffffffffffffffffffff169060200190929190505050612ddf565b005b6110366004803603602081101561100a57600080fd5b81019080803573ffffffffffffffffffffffffffffffffffffffff1690602001909291905050506130a7565b005b606760009054906101000a900473ffffffffffffffffffffffffffffffffffffffff1681565b600080600083815260200190815260200160002060009054906101000a900473ffffffffffffffffffffffffffffffffffffffff169050919050565b60006110b085609a6130b590919063ffffffff16565b90506110bb81613103565b61112d576040517f08c379a00000000000000000000000000000000000000000000000000000000081526004018080602001828103825260188152602001807f4f7261636c65206973206e6f742072656769737465726564000000000000000081525060200191505060405180910390fd5b611140338261316090919063ffffffff16565b6111b2576040517f08c379a000000000000000000000000000000000000000000000000000000000815260040180806020018281038252601e8152602001807f4d7573742062652063616c6c6564206279206f7261636c65206f776e6572000081525060200191505060405180910390fd5b6111bd3386866131bd565b6111d5858484609a6134a3909392919063ffffffff16565b7f35bfb7c2c354944aeeb5fc58aa0896da5def1caf32a09dc53dc12a32c250a4b6338686604051808473ffffffffffffffffffffffffffffffffffffffff1673ffffffffffffffffffffffffffffffffffffffff1681526020018373ffffffffffffffffffffffffffffffffffffffff1673ffffffffffffffffffffffffffffffffffffffff168152602001828152602001935050505060405180910390a15050505050565b60606000806112886116a5565b90506060816040519080825280602002602001820160405280156112bb5781602001602082028038833980820191505090505b509050600080905060008090505b838110156113615760006112dc8261298a565b90506112e88882611370565b15611353576112f68161105e565b84838151811061130257fe5b602002602001019073ffffffffffffffffffffffffffffffffffffffff16908173ffffffffffffffffffffffffffffffffffffffff16815250506113506001846134bf90919063ffffffff16565b92505b5080806001019150506112c9565b50818194509450505050915091565b60008061138784609a6130b590919063ffffffff16565b905061139281613103565b611404576040517f08c379a00000000000000000000000000000000000000000000000000000000081526004018080602001828103825260188152602001807f4f7261636c65206973206e6f742072656769737465726564000000000000000081525060200191505060405180910390fd5b600061140f8461105e565b90508073ffffffffffffffffffffffffffffffffffffffff166383455d68866040518263ffffffff1660e01b8152600401808273ffffffffffffffffffffffffffffffffffffffff1673ffffffffffffffffffffffffffffffffffffffff16815260200191505060206040518083038186803b15801561148e57600080fd5b505afa1580156114a2573d6000803e3d6000fd5b505050506040513d60208110156114b857600080fd5b81019080805190602001909291905050509250505092915050565b606760009054906101000a900473ffffffffffffffffffffffffffffffffffffffff1673ffffffffffffffffffffffffffffffffffffffff1663d994d6d5336040518263ffffffff1660e01b8152600401808273ffffffffffffffffffffffffffffffffffffffff1673ffffffffffffffffffffffffffffffffffffffff16815260200191505060206040518083038186803b15801561157257600080fd5b505afa158015611586573d6000803e3d6000fd5b505050506040513d602081101561159c57600080fd5b81019080805190602001909291905050506040518060400160405280601681526020017f6e6f745f617574686f72697a65645f6368616e6765720000000000000000000081525090611689576040517f08c379a00000000000000000000000000000000000000000000000000000000081526004018080602001828103825283818151815260200191508051906020019080838360005b8381101561164e578082015181840152602081019050611633565b50505050905090810190601f16801561167b5780820380516001836020036101000a031916815260200191505b509250505060405180910390fd5b5080609d8190555050565b6116a1828260008061109a565b5050565b6000600180549050905090565b6000609c60009054906101000a900473ffffffffffffffffffffffffffffffffffffffff1673ffffffffffffffffffffffffffffffffffffffff1663b25147e330846040518363ffffffff1660e01b8152600401808373ffffffffffffffffffffffffffffffffffffffff1673ffffffffffffffffffffffffffffffffffffffff1681526020018273ffffffffffffffffffffffffffffffffffffffff1673ffffffffffffffffffffffffffffffffffffffff1681526020019250505060206040518083038186803b15801561178757600080fd5b505afa15801561179b573d6000803e3d6000fd5b505050506040513d60208110156117b157600080fd5b81019080805190602001909291905050509050919050565b60006117e18284609a6135479092919063ffffffff16565b905092915050565b606760009054906101000a900473ffffffffffffffffffffffffffffffffffffffff1673ffffffffffffffffffffffffffffffffffffffff1663d994d6d5336040518263ffffffff1660e01b8152600401808273ffffffffffffffffffffffffffffffffffffffff1673ffffffffffffffffffffffffffffffffffffffff16815260200191505060206040518083038186803b15801561188857600080fd5b505afa15801561189c573d6000803e3d6000fd5b505050506040513d60208110156118b257600080fd5b81019080805190602001909291905050506040518060400160405280601681526020017f6e6f745f617574686f72697a65645f6368616e676572000000000000000000008152509061199f576040517f08c379a00000000000000000000000000000000000000000000000000000000081526004018080602001828103825283818151815260200191508051906020019080838360005b83811015611964578082015181840152602081019050611949565b50505050905090810190601f1680156119915780820380516001836020036101000a031916815260200191505b509250505060405180910390fd5b506119aa828261355d565b5050565b606060008060006119c985609a6130b590919063ffffffff16565b90506119d481613103565b611a46576040517f08c379a00000000000000000000000000000000000000000000000000000000081526004018080602001828103825260158152602001807f4f7261636c65206e6f742072656769737465726564000000000000000000000081525060200191505060405180910390fd5b611a4f81613735565b9350611a5a856116b2565b9250611a65816137db565b9150509193909250565b6000611a88600083609a6138099092919063ffffffff16565b9050919050565b611a9c8383836000612ddf565b505050565b6000611aba600083609a6135479092919063ffffffff16565b9050919050565b606760009054906101000a900473ffffffffffffffffffffffffffffffffffffffff1673ffffffffffffffffffffffffffffffffffffffff1663d994d6d5336040518263ffffffff1660e01b8152600401808273ffffffffffffffffffffffffffffffffffffffff1673ffffffffffffffffffffffffffffffffffffffff16815260200191505060206040518083038186803b158015611b6057600080fd5b505afa158015611b74573d6000803e3d6000fd5b505050506040513d6020811015611b8a57600080fd5b81019080805190602001909291905050506040518060400160405280601681526020017f6e6f745f617574686f72697a65645f6368616e6765720000000000000000000081525090611c77576040517f08c379a00000000000000000000000000000000000000000000000000000000081526004018080602001828103825283818151815260200191508051906020019080838360005b83811015611c3c578082015181840152602081019050611c21565b50505050905090810190601f168015611c695780820380516001836020036101000a031916815260200191505b509250505060405180910390fd5b5080606760006101000a81548173ffffffffffffffffffffffffffffffffffffffff021916908373ffffffffffffffffffffffffffffffffffffffff16021790555050565b609c60009054906101000a900473ffffffffffffffffffffffffffffffffffffffff1681565b600080611cf983609a6130b590919063ffffffff16565b9050611d0481613103565b915050919050565b6000611d18609a61381f565b905090565b603460019054906101000a900460ff1680611d3c5750611d3b61384d565b5b80611d545750603460009054906101000a900460ff16155b611da9576040517f08c379a000000000000000000000000000000000000000000000000000000000815260040180806020018281038252602e815260200180614f76602e913960400191505060405180910390fd5b6000603460019054906101000a900460ff161590508015611dfb576001603460016101000a81548160ff0219169083151502179055506001603460006101000a81548160ff0219169083151502179055505b600073ffffffffffffffffffffffffffffffffffffffff168273ffffffffffffffffffffffffffffffffffffffff161415611e81576040517f08c379a0000000000000000000000000000000000000000000000000000000008152600401808060200182810382526028815260200180614fa46028913960400191505060405180910390fd5b600073ffffffffffffffffffffffffffffffffffffffff168273ffffffffffffffffffffffffffffffffffffffff166372015d1a6040518163ffffffff1660e01b815260040160206040518083038186803b158015611edf57600080fd5b505afa158015611ef3573d6000803e3d6000fd5b505050506040513d6020811015611f0957600080fd5b810190808051906020019092919050505073ffffffffffffffffffffffffffffffffffffffff161415611f87576040517f08c379a0000000000000000000000000000000000000000000000000000000008152600401808060200182810382526023815260200180614f2f6023913960400191505060405180910390fd5b60008311611fe0576040517f08c379a0000000000000000000000000000000000000000000000000000000008152600401808060200182810382526034815260200180614ed66034913960400191505060405180910390fd5b611fe9846121a0565b82609d8190555081609c60006101000a81548173ffffffffffffffffffffffffffffffffffffffff021916908373ffffffffffffffffffffffffffffffffffffffff1602179055508173ffffffffffffffffffffffffffffffffffffffff166372015d1a6040518163ffffffff1660e01b815260040160206040518083038186803b15801561207757600080fd5b505afa15801561208b573d6000803e3d6000fd5b505050506040513d60208110156120a157600080fd5b8101908080519060200190929190505050609e60006101000a81548173ffffffffffffffffffffffffffffffffffffffff021916908373ffffffffffffffffffffffffffffffffffffffff1602179055506120fd6116b2613864565b609a60008201518160010160006101000a81548167ffffffffffffffff021916908367ffffffffffffffff16021790555060208201518160010160086101000a81548173ffffffffffffffffffffffffffffffffffffffff021916908373ffffffffffffffffffffffffffffffffffffffff160217905550905050801561219a576000603460016101000a81548160ff0219169083151502179055505b50505050565b603460019054906101000a900460ff16806121bf57506121be61384d565b5b806121d75750603460009054906101000a900460ff16155b61222c576040517f08c379a000000000000000000000000000000000000000000000000000000000815260040180806020018281038252602e815260200180614f76602e913960400191505060405180910390fd5b6000603460019054906101000a900460ff16159050801561227e576001603460016101000a81548160ff0219169083151502179055506001603460006101000a81548160ff0219169083151502179055505b81606760006101000a81548173ffffffffffffffffffffffffffffffffffffffff021916908373ffffffffffffffffffffffffffffffffffffffff16021790555080156122e1576000603460016101000a81548160ff0219169083151502179055505b5050565b609d5481565b6000806000806122fa8561105e565b90508073ffffffffffffffffffffffffffffffffffffffff16638458c1dd876040518263ffffffff1660e01b8152600401808273ffffffffffffffffffffffffffffffffffffffff1673ffffffffffffffffffffffffffffffffffffffff16815260200191505060606040518083038186803b15801561237957600080fd5b505afa15801561238d573d6000803e3d6000fd5b505050506040513d60608110156123a357600080fd5b81019080805190602001909291908051906020019092919080519060200190929190505050809450819550829650505050509250925092565b60006123f283609a6130b590919063ffffffff16565b90506123fd81613103565b61246f576040517f08c379a00000000000000000000000000000000000000000000000000000000081526004018080602001828103825260158152602001807f4f7261636c65206e6f742072656769737465726564000000000000000000000081525060200191505060405180910390fd5b612482338261316090919063ffffffff16565b6124d7576040517f08c379a0000000000000000000000000000000000000000000000000000000008152600401808060200182810382526027815260200180614ffa6027913960400191505060405180910390fd5b60006124e16116a5565b905060006001905060008090505b82811080156124fb5750815b156125e657600061251361250e8361298a565b61105e565b90508280156125d657508073ffffffffffffffffffffffffffffffffffffffff16633aacdc99886040518263ffffffff1660e01b8152600401808273ffffffffffffffffffffffffffffffffffffffff1673ffffffffffffffffffffffffffffffffffffffff16815260200191505060206040518083038186803b15801561259a57600080fd5b505afa1580156125ae573d6000803e3d6000fd5b505050506040513d60208110156125c457600080fd5b81019080805190602001909291905050505b92505080806001019150506124ef565b508061263d576040517f08c379a0000000000000000000000000000000000000000000000000000000008152600401808060200182810382526025815260200180614f0a6025913960400191505060405180910390fd5b612646856138a9565b61265885612653856137db565b613aa4565b61266e8585609a613d899092919063ffffffff16565b7f6dc84b66cc948d847632b9d829f7cb1cb904fbf2c084554a9bc22ad9d84533403386604051808373ffffffffffffffffffffffffffffffffffffffff1673ffffffffffffffffffffffffffffffffffffffff1681526020018273ffffffffffffffffffffffffffffffffffffffff1673ffffffffffffffffffffffffffffffffffffffff1681526020019250505060405180910390a15050505050565b600061272282609a613e4290919063ffffffff16565b9050919050565b600061273f83609a6130b590919063ffffffff16565b905061274a81613103565b6127bc576040517f08c379a00000000000000000000000000000000000000000000000000000000081526004018080602001828103825260188152602001807f4f7261636c65206973206e6f742072656769737465726564000000000000000081525060200191505060405180910390fd5b6127cf338261316090919063ffffffff16565b612841576040517f08c379a000000000000000000000000000000000000000000000000000000000815260040180806020018281038252601e8152602001807f4d7573742062652063616c6c6564206279206f7261636c65206f776e6572000081525060200191505060405180910390fd5b600061284c8361105e565b90508073ffffffffffffffffffffffffffffffffffffffff16637fd97063856040518263ffffffff1660e01b8152600401808273ffffffffffffffffffffffffffffffffffffffff1673ffffffffffffffffffffffffffffffffffffffff168152602001915050600060405180830381600087803b1580156128cd57600080fd5b505af11580156128e1573d6000803e3d6000fd5b505050507f2d1d1a7fb19efaf6090fa5feb819c8e6b3edc2238f4631e51b88661723106f64338585604051808473ffffffffffffffffffffffffffffffffffffffff1673ffffffffffffffffffffffffffffffffffffffff1681526020018373ffffffffffffffffffffffffffffffffffffffff1673ffffffffffffffffffffffffffffffffffffffff168152602001828152602001935050505060405180910390a150505050565b60006001805490508210612a06576040517f08c379a000000000000000000000000000000000000000000000000000000000815260040180806020018281038252600d8152602001807f496c6c6567616c20696e6465780000000000000000000000000000000000000081525060200191505060405180910390fd5b60018281548110612a1357fe5b90600052602060002001549050919050565b6000612a3d8284609a6138099092919063ffffffff16565b905092915050565b6000612a5b83609a6130b590919063ffffffff16565b9050612a6681613103565b612ad8576040517f08c379a00000000000000000000000000000000000000000000000000000000081526004018080602001828103825260188152602001807f4f7261636c65206973206e6f742072656769737465726564000000000000000081525060200191505060405180910390fd5b612aeb338261316090919063ffffffff16565b612b5d576040517f08c379a000000000000000000000000000000000000000000000000000000000815260040180806020018281038252601e8152602001807f4d7573742062652063616c6c6564206279206f7261636c65206f776e6572000081525060200191505060405180910390fd5b6000612b688361105e565b90508073ffffffffffffffffffffffffffffffffffffffff16637a5e0f1d856040518263ffffffff1660e01b8152600401808273ffffffffffffffffffffffffffffffffffffffff1673ffffffffffffffffffffffffffffffffffffffff168152602001915050600060405180830381600087803b158015612be957600080fd5b505af1158015612bfd573d6000803e3d6000fd5b505050507fd7c2312e70fc26993920a0d5e773c5a222f8f8ff2c0f3dfd69543cc687c2cc10338585604051808473ffffffffffffffffffffffffffffffffffffffff1673ffffffffffffffffffffffffffffffffffffffff1681526020018373ffffffffffffffffffffffffffffffffffffffff1673ffffffffffffffffffffffffffffffffffffffff168152602001828152602001935050505060405180910390a150505050565b6000612cbc83609a6130b590919063ffffffff16565b9050612cc781613103565b612d39576040517f08c379a00000000000000000000000000000000000000000000000000000000081526004018080602001828103825260158152602001807f4f7261636c65206e6f742072656769737465726564000000000000000000000081525060200191505060405180910390fd5b612d4c338261316090919063ffffffff16565b612da1576040517f08c379a0000000000000000000000000000000000000000000000000000000008152600401808060200182810382526027815260200180614ffa6027913960400191505060405180910390fd5b612db48282613eb190919063ffffffff16565b505050565b609e60009054906101000a900473ffffffffffffffffffffffffffffffffffffffff1681565b6000612df585609a6130b590919063ffffffff16565b9050612e0081613103565b15612e73576040517f08c379a00000000000000000000000000000000000000000000000000000000081526004018080602001828103825260198152602001807f4f7261636c6520616c726561647920726567697374657265640000000000000081525060200191505060405180910390fd5b600073ffffffffffffffffffffffffffffffffffffffff168573ffffffffffffffffffffffffffffffffffffffff161415612f16576040517f08c379a00000000000000000000000000000000000000000000000000000000081526004018080602001828103825260168152602001807f416464726573732063616e6e6f74206265207a65726f0000000000000000000081525060200191505060405180910390fd5b609d54831015612f71576040517f08c379a000000000000000000000000000000000000000000000000000000000815260040180806020018281038252602e815260200180614fcc602e913960400191505060405180910390fd5b612f7c3386856131bd565b612f94858584609a613ece909392919063ffffffff16565b7f1ab6061686619c51e38ddb8eef56838e81c135e72509424cf1ee567fe1a8b57f33868686604051808573ffffffffffffffffffffffffffffffffffffffff1673ffffffffffffffffffffffffffffffffffffffff1681526020018473ffffffffffffffffffffffffffffffffffffffff1673ffffffffffffffffffffffffffffffffffffffff16815260200180602001838152602001828103825284818151815260200191508051906020019080838360005b83811015613063578082015181840152602081019050613048565b50505050905090810190601f1680156130905780820380516001836020036101000a031916815260200191505b509550505050505060405180910390a15050505050565b6130b28160006123dc565b50565b60008260000160008373ffffffffffffffffffffffffffffffffffffffff1673ffffffffffffffffffffffffffffffffffffffff168152602001908152602001600020600001905092915050565b60008073ffffffffffffffffffffffffffffffffffffffff168260010160009054906101000a900473ffffffffffffffffffffffffffffffffffffffff1673ffffffffffffffffffffffffffffffffffffffff1614159050919050565b60008173ffffffffffffffffffffffffffffffffffffffff168360010160009054906101000a900473ffffffffffffffffffffffffffffffffffffffff1673ffffffffffffffffffffffffffffffffffffffff1614905092915050565b609e60009054906101000a900473ffffffffffffffffffffffffffffffffffffffff1673ffffffffffffffffffffffffffffffffffffffff166323b872dd8430846040518463ffffffff1660e01b8152600401808473ffffffffffffffffffffffffffffffffffffffff1673ffffffffffffffffffffffffffffffffffffffff1681526020018373ffffffffffffffffffffffffffffffffffffffff1673ffffffffffffffffffffffffffffffffffffffff1681526020018281526020019350505050602060405180830381600087803b15801561329a57600080fd5b505af11580156132ae573d6000803e3d6000fd5b505050506040513d60208110156132c457600080fd5b810190808051906020019092919050505050609e60009054906101000a900473ffffffffffffffffffffffffffffffffffffffff1673ffffffffffffffffffffffffffffffffffffffff1663095ea7b3609c60009054906101000a900473ffffffffffffffffffffffffffffffffffffffff16836040518363ffffffff1660e01b8152600401808373ffffffffffffffffffffffffffffffffffffffff1673ffffffffffffffffffffffffffffffffffffffff16815260200182815260200192505050602060405180830381600087803b1580156133a157600080fd5b505af11580156133b5573d6000803e3d6000fd5b505050506040513d60208110156133cb57600080fd5b810190808051906020019092919050505050609c60009054906101000a900473ffffffffffffffffffffffffffffffffffffffff1673ffffffffffffffffffffffffffffffffffffffff16637c5e5db082846040518363ffffffff1660e01b8152600401808381526020018273ffffffffffffffffffffffffffffffffffffffff1673ffffffffffffffffffffffffffffffffffffffff16815260200192505050600060405180830381600087803b15801561348657600080fd5b505af115801561349a573d6000803e3d6000fd5b50505050505050565b6134ae84848461400e565b6134b984848361418e565b50505050565b60008082840190508381101561353d576040517f08c379a000000000000000000000000000000000000000000000000000000000815260040180806020018281038252601b8152602001807f536166654d6174683a206164646974696f6e206f766572666c6f77000000000081525060200191505060405180910390fd5b8091505092915050565b60006135548484846141d9565b90509392505050565b600073ffffffffffffffffffffffffffffffffffffffff168173ffffffffffffffffffffffffffffffffffffffff161415613600576040517f08c379a00000000000000000000000000000000000000000000000000000000081526004018080602001828103825260168152602001807f416464726573732063616e6e6f74206265207a65726f0000000000000000000081525060200191505060405180910390fd5b600073ffffffffffffffffffffffffffffffffffffffff1660008084815260200190815260200160002060009054906101000a900473ffffffffffffffffffffffffffffffffffffffff1673ffffffffffffffffffffffffffffffffffffffff16146136b7576040517f08c379a0000000000000000000000000000000000000000000000000000000008152600401808060200182810382526024815260200180614f526024913960400191505060405180910390fd5b8060008084815260200190815260200160002060006101000a81548173ffffffffffffffffffffffffffffffffffffffff021916908373ffffffffffffffffffffffffffffffffffffffff16021790555060018290806001815401808255809150506001900390600052602060002001600090919091909150555050565b6060816000018054600181600116156101000203166002900480601f0160208091040260200160405190810160405280929190818152602001828054600181600116156101000203166002900480156137cf5780601f106137a4576101008083540402835291602001916137cf565b820191906000526020600020905b8154815290600101906020018083116137b257829003601f168201915b50505050509050919050565b60008160010160009054906101000a900473ffffffffffffffffffffffffffffffffffffffff169050919050565b60006138168484846144eb565b90509392505050565b60008160010160089054906101000a900473ffffffffffffffffffffffffffffffffffffffff169050919050565b6000803090506000813b9050600081149250505090565b61386c614d05565b60405180604001604052808367ffffffffffffffff168152602001600073ffffffffffffffffffffffffffffffffffffffff168152509050919050565b60006138bf82609a6130b590919063ffffffff16565b90506138ca81613103565b61393c576040517f08c379a00000000000000000000000000000000000000000000000000000000081526004018080602001828103825260188152602001807f4f7261636c65206973206e6f742072656769737465726564000000000000000081525060200191505060405180910390fd5b61394f338261316090919063ffffffff16565b6139c1576040517f08c379a000000000000000000000000000000000000000000000000000000000815260040180806020018281038252601e8152602001807f4d7573742062652063616c6c6564206279206f7261636c65206f776e6572000081525060200191505060405180910390fd5b606060006139ce8461127b565b9150915060008090505b81811015613a9d5760008382815181106139ee57fe5b602002602001015190508073ffffffffffffffffffffffffffffffffffffffff16637fd97063876040518263ffffffff1660e01b8152600401808273ffffffffffffffffffffffffffffffffffffffff1673ffffffffffffffffffffffffffffffffffffffff168152602001915050600060405180830381600087803b158015613a7757600080fd5b505af1158015613a8b573d6000803e3d6000fd5b505050505080806001019150506139d8565b5050505050565b6000609c60009054906101000a900473ffffffffffffffffffffffffffffffffffffffff1673ffffffffffffffffffffffffffffffffffffffff16633b2b978530856040518363ffffffff1660e01b8152600401808373ffffffffffffffffffffffffffffffffffffffff1673ffffffffffffffffffffffffffffffffffffffff1681526020018273ffffffffffffffffffffffffffffffffffffffff1673ffffffffffffffffffffffffffffffffffffffff1681526020019250505060206040518083038186803b158015613b7957600080fd5b505afa158015613b8d573d6000803e3d6000fd5b505050506040513d6020811015613ba357600080fd5b810190808051906020019092919050505090506000609c60009054906101000a900473ffffffffffffffffffffffffffffffffffffffff1673ffffffffffffffffffffffffffffffffffffffff1663b1cbf88883866040518363ffffffff1660e01b8152600401808381526020018273ffffffffffffffffffffffffffffffffffffffff1673ffffffffffffffffffffffffffffffffffffffff16815260200192505050602060405180830381600087803b158015613c6157600080fd5b505af1158015613c75573d6000803e3d6000fd5b505050506040513d6020811015613c8b57600080fd5b81019080805190602001909291905050509050609e60009054906101000a900473ffffffffffffffffffffffffffffffffffffffff1673ffffffffffffffffffffffffffffffffffffffff1663a9059cbb84836040518363ffffffff1660e01b8152600401808373ffffffffffffffffffffffffffffffffffffffff1673ffffffffffffffffffffffffffffffffffffffff16815260200182815260200192505050602060405180830381600087803b158015613d4757600080fd5b505af1158015613d5b573d6000803e3d6000fd5b505050506040513d6020811015613d7157600080fd5b81019080805190602001909291905050505050505050565b613d9483838361400e565b8260000160008373ffffffffffffffffffffffffffffffffffffffff1673ffffffffffffffffffffffffffffffffffffffff168152602001908152602001600020600080820160008082016000613deb9190614d36565b6001820160006101000a81549073ffffffffffffffffffffffffffffffffffffffff021916905550506002820160006101000a81549073ffffffffffffffffffffffffffffffffffffffff02191690555050505050565b60008260000160008373ffffffffffffffffffffffffffffffffffffffff1673ffffffffffffffffffffffffffffffffffffffff16815260200190815260200160002060020160009054906101000a900473ffffffffffffffffffffffffffffffffffffffff16905092915050565b80826000019080519060200190613ec9929190614d7e565b505050565b6040518060400160405280613ee333856147db565b8152602001600073ffffffffffffffffffffffffffffffffffffffff168152508460000160008573ffffffffffffffffffffffffffffffffffffffff1673ffffffffffffffffffffffffffffffffffffffff1681526020019081526020016000206000820151816000016000820151816000019080519060200190613f69929190614dfe565b5060208201518160010160006101000a81548173ffffffffffffffffffffffffffffffffffffffff021916908373ffffffffffffffffffffffffffffffffffffffff160217905550505060208201518160020160006101000a81548173ffffffffffffffffffffffffffffffffffffffff021916908373ffffffffffffffffffffffffffffffffffffffff16021790555090505061400884848361418e565b50505050565b600073ffffffffffffffffffffffffffffffffffffffff168273ffffffffffffffffffffffffffffffffffffffff1614156140b1576040517f08c379a000000000000000000000000000000000000000000000000000000000815260040180806020018281038252600f8152602001807f496e76616c69642061646472657373000000000000000000000000000000000081525060200191505060405180910390fd5b6140fd8360000160008473ffffffffffffffffffffffffffffffffffffffff1673ffffffffffffffffffffffffffffffffffffffff168152602001908152602001600020600001613103565b61416f576040517f08c379a00000000000000000000000000000000000000000000000000000000081526004018080602001828103825260158152602001807f4f7261636c65206e6f742072656769737465726564000000000000000000000081525060200191505060405180910390fd5b600061417c8483856144eb565b90506141888482614816565b50505050565b60006141c684836141c1868860010160009054906101000a90048015614e7e021767ffffffffffffffff1663ffffffff16565b6141d9565b90506141d3848285614a71565b50505050565b600080839050600073ffffffffffffffffffffffffffffffffffffffff168173ffffffffffffffffffffffffffffffffffffffff1614156142f857600073ffffffffffffffffffffffffffffffffffffffff168560010160089054906101000a900473ffffffffffffffffffffffffffffffffffffffff1673ffffffffffffffffffffffffffffffffffffffff1614806142c15750826142bf8660010160089054906101000a900473ffffffffffffffffffffffffffffffffffffffff168760010160009054906101000a90048015614e7e021767ffffffffffffffff1663ffffffff16565b105b156142d05760009150506144e4565b8460010160089054906101000a900473ffffffffffffffffffffffffffffffffffffffff1690505b82614325828760010160009054906101000a90048015614e7e021767ffffffffffffffff1663ffffffff16565b1015614399576040517f08c379a00000000000000000000000000000000000000000000000000000000081526004018080602001828103825260168152602001807f57726f6e67207072657620656e747279207374616b650000000000000000000081525060200191505060405180910390fd5b60008560000160008373ffffffffffffffffffffffffffffffffffffffff1673ffffffffffffffffffffffffffffffffffffffff16815260200190815260200160002060020160009054906101000a900473ffffffffffffffffffffffffffffffffffffffff1690505b600073ffffffffffffffffffffffffffffffffffffffff168173ffffffffffffffffffffffffffffffffffffffff16146144de5783614464828860010160009054906101000a90048015614e7e021767ffffffffffffffff1663ffffffff16565b101561446f576144de565b8091508560000160008273ffffffffffffffffffffffffffffffffffffffff1673ffffffffffffffffffffffffffffffffffffffff16815260200190815260200160002060020160009054906101000a900473ffffffffffffffffffffffffffffffffffffffff169050614403565b50809150505b9392505050565b60008073ffffffffffffffffffffffffffffffffffffffff168373ffffffffffffffffffffffffffffffffffffffff1614801561457757508360010160089054906101000a900473ffffffffffffffffffffffffffffffffffffffff1673ffffffffffffffffffffffffffffffffffffffff168273ffffffffffffffffffffffffffffffffffffffff16145b1561458557600090506147d4565b6000839050600073ffffffffffffffffffffffffffffffffffffffff168173ffffffffffffffffffffffffffffffffffffffff1614156145e7578460010160089054906101000a900473ffffffffffffffffffffffffffffffffffffffff1690505b60008190505b600073ffffffffffffffffffffffffffffffffffffffff168173ffffffffffffffffffffffffffffffffffffffff16146146c9578373ffffffffffffffffffffffffffffffffffffffff168173ffffffffffffffffffffffffffffffffffffffff16141561465a576146c9565b8091508560000160008273ffffffffffffffffffffffffffffffffffffffff1673ffffffffffffffffffffffffffffffffffffffff16815260200190815260200160002060020160009054906101000a900473ffffffffffffffffffffffffffffffffffffffff1690506145ed565b508273ffffffffffffffffffffffffffffffffffffffff168560000160008373ffffffffffffffffffffffffffffffffffffffff1673ffffffffffffffffffffffffffffffffffffffff16815260200190815260200160002060020160009054906101000a900473ffffffffffffffffffffffffffffffffffffffff1673ffffffffffffffffffffffffffffffffffffffff16146147cf576040517f08c379a00000000000000000000000000000000000000000000000000000000081526004018080602001828103825260128152602001807f496e76616c6964207072657620656e747279000000000000000000000000000081525060200191505060405180910390fd5b809150505b9392505050565b6147e3614e80565b60405180604001604052808381526020018473ffffffffffffffffffffffffffffffffffffffff16815250905092915050565b600073ffffffffffffffffffffffffffffffffffffffff168173ffffffffffffffffffffffffffffffffffffffff16141561491b578160000160008360010160089054906101000a900473ffffffffffffffffffffffffffffffffffffffff1673ffffffffffffffffffffffffffffffffffffffff1673ffffffffffffffffffffffffffffffffffffffff16815260200190815260200160002060020160009054906101000a900473ffffffffffffffffffffffffffffffffffffffff168260010160086101000a81548173ffffffffffffffffffffffffffffffffffffffff021916908373ffffffffffffffffffffffffffffffffffffffff160217905550614a6d565b60008260000160008373ffffffffffffffffffffffffffffffffffffffff1673ffffffffffffffffffffffffffffffffffffffff16815260200190815260200160002060020160009054906101000a900473ffffffffffffffffffffffffffffffffffffffff1690508260000160008273ffffffffffffffffffffffffffffffffffffffff1673ffffffffffffffffffffffffffffffffffffffff16815260200190815260200160002060020160009054906101000a900473ffffffffffffffffffffffffffffffffffffffff168360000160008473ffffffffffffffffffffffffffffffffffffffff1673ffffffffffffffffffffffffffffffffffffffff16815260200190815260200160002060020160006101000a81548173ffffffffffffffffffffffffffffffffffffffff021916908373ffffffffffffffffffffffffffffffffffffffff160217905550505b5050565b600073ffffffffffffffffffffffffffffffffffffffff168273ffffffffffffffffffffffffffffffffffffffff161415614b95578260010160089054906101000a900473ffffffffffffffffffffffffffffffffffffffff168360000160008373ffffffffffffffffffffffffffffffffffffffff1673ffffffffffffffffffffffffffffffffffffffff16815260200190815260200160002060020160006101000a81548173ffffffffffffffffffffffffffffffffffffffff021916908373ffffffffffffffffffffffffffffffffffffffff160217905550808360010160086101000a81548173ffffffffffffffffffffffffffffffffffffffff021916908373ffffffffffffffffffffffffffffffffffffffff160217905550614d00565b8260000160008373ffffffffffffffffffffffffffffffffffffffff1673ffffffffffffffffffffffffffffffffffffffff16815260200190815260200160002060020160009054906101000a900473ffffffffffffffffffffffffffffffffffffffff168360000160008373ffffffffffffffffffffffffffffffffffffffff1673ffffffffffffffffffffffffffffffffffffffff16815260200190815260200160002060020160006101000a81548173ffffffffffffffffffffffffffffffffffffffff021916908373ffffffffffffffffffffffffffffffffffffffff160217905550808360000160008473ffffffffffffffffffffffffffffffffffffffff1673ffffffffffffffffffffffffffffffffffffffff16815260200190815260200160002060020160006101000a81548173ffffffffffffffffffffffffffffffffffffffff021916908373ffffffffffffffffffffffffffffffffffffffff1602179055505b505050565b6040518060400160405280614e7e8152602001600073ffffffffffffffffffffffffffffffffffffffff1681525090565b50805460018160011615610100020316600290046000825580601f10614d5c5750614d7b565b601f016020900490600052602060002090810190614d7a9190614eb0565b5b50565b828054600181600116156101000203166002900490600052602060002090601f016020900481019282601f10614dbf57805160ff1916838001178555614ded565b82800160010185558215614ded579182015b82811115614dec578251825591602001919060010190614dd1565b5b509050614dfa9190614eb0565b5090565b828054600181600116156101000203166002900490600052602060002090601f016020900481019282601f10614e3f57805160ff1916838001178555614e6d565b82800160010185558215614e6d579182015b82811115614e6c578251825591602001919060010190614e51565b5b509050614e7a9190614eb0565b5090565bfe5b604051806040016040528060608152602001600073ffffffffffffffffffffffffffffffffffffffff1681525090565b614ed291905b80821115614ece576000816000905550600101614eb6565b5090565b9056fe546865206d696e696d756d206f7261636c65206f776e6572207374616b6520616d6f756e742063616e6e6f74206265207a65726f4f7261636c652063616e6e6f742062652072656d6f76656420617420746869732074696d65546f6b656e20636f6e74726163742061646472657373206d75737420626520213d20305468697320636f696e207061697220697320616c72656164792072656769737465726564436f6e747261637420696e7374616e63652068617320616c7265616479206265656e20696e697469616c697a6564537570706f727465727320636f6e74726163742061646472657373206d75737420626520213d20305374616b65206e6f74206174206c6561737420746865206d696e696d756d20726571756972656420616d6f756e74546869732063616e2062652063616c6c6564206279206f7261636c65206f776e6572206f6e6c79a264697066735822122087fc93a8f0bbc548783233594d2fb6653e026c7792cf2a0286693bf6e3253c4864736f6c63430006000033",
  "source": "pragma solidity ^0.6.0;\n\nimport \"./Supporters.sol\";\nimport \"./CoinPairRegister.sol\";\nimport \"./CoinPairPrice.sol\";\nimport {RegisteredOraclesLib} from \"./libs/RegisteredOracles.sol\";\nimport {OracleInfoLib} from \"./libs/OracleInfo.sol\";\nimport \"./openzeppelin/Initializable.sol\";\nimport \"./openzeppelin/math/SafeMath.sol\";\nimport \"./moc-gobernanza/Governance/Governed.sol\";\n\ncontract OracleManager is CoinPairRegister, Initializable, Governed {\n    RegisteredOraclesLib.RegisteredOracles  registeredOracles;\n    Supporters public                       supportersContract;\n    uint256 public                          minOracleOwnerStake;\n    IERC20 public                           token;\n\n    using SafeMath for uint;\n    using RegisteredOraclesLib for RegisteredOraclesLib.RegisteredOracles;\n    using OracleInfoLib for OracleInfoLib.OracleRegisterInfo;\n    event OracleRegistered(address caller, address addr, string internetName, uint stake);\n    event OracleStakeAdded(address caller, address addr, uint stake);\n    event OracleSuscribed(address caller, address addr, bytes32 coinpair);\n    event OracleUnsuscribed(address caller, address addr, bytes32 coinpair);\n    event OracleRemoved(address caller, address addr);\n\n    // -------------------------------------------------------------------------------------------------------------\n    //\n    //   Public interface\n    //\n    // -------------------------------------------------------------------------------------------------------------\n\n    /// @notice Construct this contract.\n    /// @param _minOracleOwnerStake The minimum amount of tokens required as stake by oracle owners.\n    /// @param _supportersContract the Supporters contract contract address.\n    function initialize(IGovernor _governor, uint256 _minOracleOwnerStake, Supporters _supportersContract) public initializer\n    {\n        require(address(_supportersContract) != address(0), \"Supporters contract address must be != 0\");\n        require(address(_supportersContract.mocToken()) != address(0), \"Token contract address must be != 0\");\n        require(_minOracleOwnerStake > 0, \"The minimum oracle owner stake amount cannot be zero\");\n\n        Governed.initialize(_governor);\n\n        minOracleOwnerStake = _minOracleOwnerStake;\n        supportersContract = _supportersContract;\n        token = _supportersContract.mocToken();\n        registeredOracles = RegisteredOraclesLib.init(getStake);\n    }\n\n    /**\n     * @dev Sets the minOracleOwnerStake by gobernanza\n     * @param _minOracleOwnerStake - the override minOracleOwnerStake\n     */\n    function setMinOracleOwnerStake(uint _minOracleOwnerStake) public onlyAuthorizedChanger() {\n        minOracleOwnerStake = _minOracleOwnerStake;\n    }\n\n    /// @notice Register a new coin pair contract.\n    /// @param coinPair The bytes32-encoded coinpair string (e.g. BTCUSD)\n    /// @param addr The contract address associated to the coinpair.\n    function registerCoinPair(bytes32 coinPair, address addr) public onlyAuthorizedChanger()\n    {\n        super._registerCoinPair(coinPair, addr);\n    }\n\n    /// Register an oracle in the system with an initial stake.\n    /// @notice Registers the oracle and transfer the specified caller's MOC token stake.\n    /// @param addr Address of the Oracle to register.\n    /// @param internetName Public Internet name of this Oracle.\n    /// @param stake The amount that the oracle owner (the caller) will put at stake. This will be transferred immediately\n    ///              if conditions apply.\n    function registerOracle(address addr, string memory internetName, uint stake) public {\n        registerOracleWithHint(addr, internetName, stake, address(0));\n    }\n\n    /// @notice Registers the oracle and transfer the specified caller's MOC token stake. Using a hint to sort it\n    /// @param addr Address of the Oracle to register.\n    /// @param internetName Public Internet name of this Oracle.\n    /// @param stake The amount that the oracle owner (the caller) will put at stake. This will be transferred immediately\n    ///              if conditions apply.\n    /// @param prevEntry Place in the single-linked-list in which this oracle must be inserted\n    function registerOracleWithHint(address addr, string memory internetName, uint stake, address prevEntry) public {\n        OracleInfoLib.OracleRegisterInfo storage data = registeredOracles.getByAddr(addr);\n        require(!data.isRegistered(), \"Oracle already registered\");\n        require(addr != address(0), \"Address cannot be zero\");\n        require(stake >= minOracleOwnerStake, \"Stake not at least the minimum required amount\");\n\n        _addStake(msg.sender, addr, stake);\n        registeredOracles.add(addr, internetName, prevEntry);\n        emit OracleRegistered(msg.sender, addr, internetName, stake);\n    }\n\n    /// @notice Add stake from owner account\n    /// @param addr Address of oracle\n    /// @param stake Stake to transfer from owner account\n    function addStake(address addr, uint stake) public {\n        addStakeWithHint(addr, stake, address(0), address(0));\n    }\n\n    /// @notice Add stake from owner account using a hint to locate it\n    /// @param addr Address of oracle\n    /// @param stake Stake to transfer from owner account\n    /// @param removePrevEntry Place in the single-linked-list from which this oracle must be removed\n    /// @param addPrevEntry Place in the single-linked-list in which this oracle must be inserted after stake change\n    function addStakeWithHint(address addr, uint stake, address removePrevEntry, address addPrevEntry) public {\n        OracleInfoLib.OracleRegisterInfo storage data = registeredOracles.getByAddr(addr);\n        require(data.isRegistered(), \"Oracle is not registered\");\n        require(data.isOwner(msg.sender), \"Must be called by oracle owner\");\n\n        // Transfer stake [should be approved by oracle owner first]\n        _addStake(msg.sender, addr, stake);\n        registeredOracles.modify(addr, removePrevEntry, addPrevEntry);\n        emit OracleStakeAdded(msg.sender, addr, stake);\n    }\n\n    /// @notice Suscribe a registered oracle to participate in rounds of a registered coin-pair\n    /// @param oracleAddr Address of oracle\n    function suscribeCoinPair(address oracleAddr, bytes32 coinPair) public {\n        OracleInfoLib.OracleRegisterInfo storage data = registeredOracles.getByAddr(oracleAddr);\n        require(data.isRegistered(), \"Oracle is not registered\");\n        require(data.isOwner(msg.sender), \"Must be called by oracle owner\");\n\n        CoinPairPrice ctAddr = (CoinPairPrice) (super.getContractAddress(coinPair));\n        ctAddr.suscribe(oracleAddr);\n\n        emit OracleSuscribed(msg.sender, oracleAddr, coinPair);\n    }\n\n    /// @notice Unsuscribe a registered oracle from participating in rounds of a registered coin-pair\n    /// @param oracleAddr Address of oracle\n    function unsuscribeCoinPair(address oracleAddr, bytes32 coinPair) public {\n        OracleInfoLib.OracleRegisterInfo storage data = registeredOracles.getByAddr(oracleAddr);\n        require(data.isRegistered(), \"Oracle is not registered\");\n        require(data.isOwner(msg.sender), \"Must be called by oracle owner\");\n\n        CoinPairPrice ctAddr = (CoinPairPrice) (super.getContractAddress(coinPair));\n        ctAddr.unsuscribe(oracleAddr);\n\n        emit OracleUnsuscribed(msg.sender, oracleAddr, coinPair);\n    }\n\n    /// @notice Returns true if an oracle is suscribed to a coin pair\n    function isSuscribed(address oracleAddr, bytes32 coinPair) public view returns (bool) {\n        OracleInfoLib.OracleRegisterInfo storage data = registeredOracles.getByAddr(oracleAddr);\n        require(data.isRegistered(), \"Oracle is not registered\");\n\n        CoinPairPrice ctAddr = (CoinPairPrice) (super.getContractAddress(coinPair));\n        return ctAddr.isSuscribed(oracleAddr);\n    }\n\n    /// @notice Returns the list of suscribed coinpair contract address for an oracle\n    /// @return addresses Array of suscribed coin pairs addresses.\n    /// @return count The count of valid entries in the addresses param.\n    function getSuscribedCoinPairAddresses(address oracleAddr) public view returns (address[] memory addresses, uint count) {\n        uint coinPairCount = super.getCoinPairCount();\n        address[] memory suscribedCoinpairs = new address[](coinPairCount);\n        uint256 valid = 0;\n        for (uint256 i = 0; i < coinPairCount; i++)\n        {\n            bytes32 cp = super.getCoinPairAtIndex(i);\n            if (isSuscribed(oracleAddr, cp))\n            {\n                suscribedCoinpairs[i] = (super.getContractAddress(cp));\n                valid = valid.add(1);\n            }\n        }\n\n        return (suscribedCoinpairs, valid);\n    }\n\n    /// @notice Get the stake in MOCs that an oracle has.\n    /// @param addr The address of the oracle.\n    function getStake(address addr) public view returns (uint256) {\n        return supportersContract.getMOCBalanceAt(address(this), addr);\n    }\n\n    /// @notice Returns the registered Oracle list head to start iteration.\n    function getRegisteredOracleHead() public view returns (address)\n    {\n        return registeredOracles.getHead();\n    }\n\n    /// @notice Returns the registered Oracle list next entry.\n    /// @param iterator The address of previous oracle.\n    function getRegisteredOracleNext(address iterator) public view returns (address)\n    {\n        return registeredOracles.getNext(iterator);\n    }\n\n    /// @notice Search the Oracle list for the previous address of an entry.\n    /// @param addr The address to search for.\n    function getPrevByAddr(address addr) public view returns (address) {\n        return registeredOracles.getPrevByAddr(address(0), addr);\n    }\n\n    /// @notice Search the Oracle list for the previous address of an entry.\n    /// @param addr The address to search for.\n    function getPrevByAddrWithHint(address addr, address prevEntry) public view returns (address) {\n        return registeredOracles.getPrevByAddr(prevEntry, addr);\n    }\n\n    /// @notice Search the Oracle list for the previous address of an entry.\n    /// @param stake The stake to search for.\n    function getPrevByStake(uint stake) public view returns (address) {\n        return registeredOracles.getPrevByStake(address(0), stake);\n    }\n\n    /// @notice Search the Oracle list for the previous address of an entry.\n    /// @param stake The stake to search for.\n    function getPrevByStakeWithHint(uint stake, address prevEntry) public view returns (address) {\n        return registeredOracles.getPrevByStake(prevEntry, stake);\n    }\n\n    /// @notice Change the oracle \"internet\" name (URI)\n    /// @param addr Address of the oracle to change\n    /// @param name The new name to set.\n    function setOracleName(address addr, string memory name) public {\n        OracleInfoLib.OracleRegisterInfo storage data = registeredOracles.getByAddr(addr);\n        require(data.isRegistered(), \"Oracle not registered\");\n        require(data.isOwner(msg.sender), \"This can be called by oracle owner only\");\n        data.setName(name);\n    }\n\n    /// @notice Return true if the oracle is registered on this coin-pair\n    function isOracleRegistered(address addr) public view returns (bool) {\n        OracleInfoLib.OracleRegisterInfo storage data = registeredOracles.getByAddr(addr);\n        return data.isRegistered();\n    }\n\n    /// @notice Returns registration information for a registered Oracle.\n    /// @param addr The address of the Oracle to query for.\n    function getOracleRegistrationInfo(address addr) public view returns (string memory internetName, uint stake,\n        address _owner) {\n        OracleInfoLib.OracleRegisterInfo storage data = registeredOracles.getByAddr(addr);\n        require(data.isRegistered(), \"Oracle not registered\");\n\n        internetName = data.getName();\n        stake = getStake(addr);\n        _owner = data.getOwner();\n    }\n\n    /// @notice Returns round information for a registered oracle in a specific coin-pair.\n    /// @param addr The address of the oracle to query for.\n    /// @param coinpair The coin pair to lookup.\n    function getOracleRoundInfo(address addr, bytes32 coinpair) public view returns (uint points, uint selectedInRound,\n        bool selectedInCurrentRound) {\n        CoinPairPrice ctAddr = (CoinPairPrice) (super.getContractAddress(coinpair));\n        (points, selectedInRound, selectedInCurrentRound) = ctAddr.getOracleRoundInfo(addr);\n    }\n\n    /// @notice Removes an oracle from the system if conditions in\n    ///         contract he is participating apply, returning it's stake.\n    /// @param oracleAddr The address of the oracle to remove from system.\n    function removeOracle(address oracleAddr) public\n    {\n        removeOracleWithHint(oracleAddr, address(0));\n    }\n\n    /// @notice Removes an oracle from the system if conditions in\n    ///         contract he is participating apply, returning it's stake.\n    /// @param oracleAddr The address of the oracle to remove from system.\n    /// @param prevEntry Place in the single-linked-list from which this oracle must be removed\n    function removeOracleWithHint(address oracleAddr, address prevEntry) public\n    {\n        OracleInfoLib.OracleRegisterInfo storage data = registeredOracles.getByAddr(oracleAddr);\n        require(data.isRegistered(), \"Oracle not registered\");\n        require(data.isOwner(msg.sender), \"This can be called by oracle owner only\");\n        //(address[] memory suscribedTo, uint count) = getSuscribedCoinPairAddresses(oracleAddr);\n\n        uint coinPairCount = super.getCoinPairCount();\n\n        bool canRemove = true;\n        for (uint i = 0; i < coinPairCount && canRemove; i++) {\n            CoinPairPrice cp = (CoinPairPrice) (super.getContractAddress(super.getCoinPairAtIndex(i)));\n            canRemove = canRemove && cp.canRemoveOracle(oracleAddr);\n        }\n\n        require(canRemove, \"Oracle cannot be removed at this time\");\n\n        unsuscribeAll(oracleAddr);\n        _withdrawStake(oracleAddr, data.getOwner());\n        registeredOracles.remove(oracleAddr, prevEntry);\n        emit OracleRemoved(msg.sender, oracleAddr);\n    }\n\n    /// @dev Unsuscribe a registered oracle from participating in all registered coin-pairs\n    /// @param oracleAddr Address of oracle\n    function unsuscribeAll(address oracleAddr) internal\n    {\n        OracleInfoLib.OracleRegisterInfo storage data = registeredOracles.getByAddr(oracleAddr);\n        require(data.isRegistered(), \"Oracle is not registered\");\n        require(data.isOwner(msg.sender), \"Must be called by oracle owner\");\n\n        (address[] memory coinpairs, uint count) = getSuscribedCoinPairAddresses(oracleAddr);\n        for (uint i = 0; i < count; i++)\n        {\n            CoinPairPrice cp = (CoinPairPrice) (coinpairs[i]);\n            cp.unsuscribe(oracleAddr);\n        }\n    }\n\n    /// @dev Add stake internal\n    function _addStake(address staker, address addr, uint256 stake) internal {\n        // Transfer stake [should be approved by oracle owner first]\n        token.transferFrom(staker, address(this), stake);\n\n        // Stake at supportersContract contract\n        token.approve(address(supportersContract), stake);\n        supportersContract.stakeAt(stake, addr);\n    }\n\n    /// @dev Withdraw stake internal\n    function _withdrawStake(address addr, address oracleOwner) internal {\n        // Withdraw MOC from supportersContract contract\n        uint256 tokens = supportersContract.getBalanceAt(address(this), addr);\n        uint256 mocs = supportersContract.withdrawFrom(tokens, addr);\n\n        // Transfer to Oracle's owner\n        token.transfer(oracleOwner, mocs);\n    }\n\n}\n",
  "sourcePath": "/home/moc/no_tocar_de_adji/contracts/contracts/OracleManager.sol",
  "compiler": {
    "name": "solc",
    "version": "0.6.0+commit.26b70077.Emscripten.clang"
  },
  "schemaVersion": "3.0.23",
  "updatedAt": "2020-04-04T03:30:19.342Z",
  "networkType": "ethereum",
  "devdoc": {
    "methods": {
      "addStake(address,uint256)": {
        "params": {
          "addr": "Address of oracle",
          "stake": "Stake to transfer from owner account"
        }
      },
      "addStakeWithHint(address,uint256,address,address)": {
        "params": {
          "addPrevEntry": "Place in the single-linked-list in which this oracle must be inserted after stake change",
          "addr": "Address of oracle",
          "removePrevEntry": "Place in the single-linked-list from which this oracle must be removed",
          "stake": "Stake to transfer from owner account"
        }
      },
      "changeIGovernor(address)": {
        "params": {
          "newIGovernor": "New governor address"
        }
      },
      "getCoinPairAtIndex(uint256)": {
        "params": {
          "i": "index to query."
        }
      },
      "getContractAddress(bytes32)": {
        "params": {
          "coinpair": "Coin-pair string to lookup (e.g: BTCUSD)"
        },
        "returns": {
          "_0": "address Address of contract or zero if does not exist or was deleted."
        }
      },
      "getOracleRegistrationInfo(address)": {
        "params": {
          "addr": "The address of the Oracle to query for."
        }
      },
      "getOracleRoundInfo(address,bytes32)": {
        "params": {
          "addr": "The address of the oracle to query for.",
          "coinpair": "The coin pair to lookup."
        }
      },
      "getPrevByAddr(address)": {
        "params": {
          "addr": "The address to search for."
        }
      },
      "getPrevByAddrWithHint(address,address)": {
        "params": {
          "addr": "The address to search for."
        }
      },
      "getPrevByStake(uint256)": {
        "params": {
          "stake": "The stake to search for."
        }
      },
      "getPrevByStakeWithHint(uint256,address)": {
        "params": {
          "stake": "The stake to search for."
        }
      },
      "getRegisteredOracleNext(address)": {
        "params": {
          "iterator": "The address of previous oracle."
        }
      },
      "getStake(address)": {
        "params": {
          "addr": "The address of the oracle."
        }
      },
      "initialize(address)": {
        "details": "This initialize replaces the constructor but it is not called automatically. It is necessary because of the upgradeability of the contracts",
        "params": {
          "_governor": "Governor address"
        }
      },
      "initialize(address,uint256,address)": {
        "params": {
          "_minOracleOwnerStake": "The minimum amount of tokens required as stake by oracle owners.",
          "_supportersContract": "the Supporters contract contract address."
        }
      },
      "registerCoinPair(bytes32,address)": {
        "params": {
          "addr": "The contract address associated to the coinpair.",
          "coinPair": "The bytes32-encoded coinpair string (e.g. BTCUSD)"
        }
      },
      "registerOracle(address,string,uint256)": {
        "params": {
          "addr": "Address of the Oracle to register.",
          "internetName": "Public Internet name of this Oracle.",
          "stake": "The amount that the oracle owner (the caller) will put at stake. This will be transferred immediately              if conditions apply."
        }
      },
      "registerOracleWithHint(address,string,uint256,address)": {
        "params": {
          "addr": "Address of the Oracle to register.",
          "internetName": "Public Internet name of this Oracle.",
          "prevEntry": "Place in the single-linked-list in which this oracle must be inserted",
          "stake": "The amount that the oracle owner (the caller) will put at stake. This will be transferred immediately              if conditions apply."
        }
      },
      "removeOracle(address)": {
        "params": {
          "oracleAddr": "The address of the oracle to remove from system."
        }
      },
      "removeOracleWithHint(address,address)": {
        "params": {
          "oracleAddr": "The address of the oracle to remove from system.",
          "prevEntry": "Place in the single-linked-list from which this oracle must be removed"
        }
      },
      "setMinOracleOwnerStake(uint256)": {
        "details": "Sets the minOracleOwnerStake by gobernanza",
        "params": {
          "_minOracleOwnerStake": "- the override minOracleOwnerStake"
        }
      },
      "setOracleName(address,string)": {
        "params": {
          "addr": "Address of the oracle to change",
          "name": "The new name to set."
        }
      },
      "suscribeCoinPair(address,bytes32)": {
        "params": {
          "oracleAddr": "Address of oracle"
        }
      },
      "unsuscribeCoinPair(address,bytes32)": {
        "params": {
          "oracleAddr": "Address of oracle"
        }
      }
    }
  },
  "userdoc": {
    "methods": {
      "addStake(address,uint256)": {
        "notice": "Add stake from owner account"
      },
      "addStakeWithHint(address,uint256,address,address)": {
        "notice": "Add stake from owner account using a hint to locate it"
      },
      "changeIGovernor(address)": {
        "notice": "Change the contract's governor. Should be called through the old governance system"
      },
      "getCoinPairAtIndex(uint256)": {
        "notice": "Returns the coin pair at index."
      },
      "getCoinPairCount()": {
        "notice": "Returns the count of registered coin pairs. Keep in mind that Deleted coin-pairs will contain zeroed addresses."
      },
      "getContractAddress(bytes32)": {
        "notice": "Return the contract address for a specified registered coin pair."
      },
      "getOracleRegistrationInfo(address)": {
        "notice": "Returns registration information for a registered Oracle."
      },
      "getOracleRoundInfo(address,bytes32)": {
        "notice": "Returns round information for a registered oracle in a specific coin-pair."
      },
      "getPrevByAddr(address)": {
        "notice": "Search the Oracle list for the previous address of an entry."
      },
      "getPrevByAddrWithHint(address,address)": {
        "notice": "Search the Oracle list for the previous address of an entry."
      },
      "getPrevByStake(uint256)": {
        "notice": "Search the Oracle list for the previous address of an entry."
      },
      "getPrevByStakeWithHint(uint256,address)": {
        "notice": "Search the Oracle list for the previous address of an entry."
      },
      "getRegisteredOracleHead()": {
        "notice": "Returns the registered Oracle list head to start iteration."
      },
      "getRegisteredOracleNext(address)": {
        "notice": "Returns the registered Oracle list next entry."
      },
      "getStake(address)": {
        "notice": "Get the stake in MOCs that an oracle has."
      },
      "getSuscribedCoinPairAddresses(address)": {
        "notice": "Returns the list of suscribed coinpair contract address for an oracle"
      },
      "initialize(address)": {
        "notice": "Initialize the contract with the basic settings"
      },
      "initialize(address,uint256,address)": {
        "notice": "Construct this contract."
      },
      "isOracleRegistered(address)": {
        "notice": "Return true if the oracle is registered on this coin-pair"
      },
      "isSuscribed(address,bytes32)": {
        "notice": "Returns true if an oracle is suscribed to a coin pair"
      },
      "registerCoinPair(bytes32,address)": {
        "notice": "Register a new coin pair contract."
      },
      "registerOracle(address,string,uint256)": {
        "notice": "Register an oracle in the system with an initial stake.Registers the oracle and transfer the specified caller's MOC token stake."
      },
      "registerOracleWithHint(address,string,uint256,address)": {
        "notice": "Registers the oracle and transfer the specified caller's MOC token stake. Using a hint to sort it"
      },
      "removeOracle(address)": {
        "notice": "Removes an oracle from the system if conditions in         contract he is participating apply, returning it's stake."
      },
      "removeOracleWithHint(address,address)": {
        "notice": "Removes an oracle from the system if conditions in         contract he is participating apply, returning it's stake."
      },
      "setOracleName(address,string)": {
        "notice": "Change the oracle \"internet\" name (URI)"
      },
      "suscribeCoinPair(address,bytes32)": {
        "notice": "Suscribe a registered oracle to participate in rounds of a registered coin-pair"
      },
      "unsuscribeCoinPair(address,bytes32)": {
        "notice": "Unsuscribe a registered oracle from participating in rounds of a registered coin-pair"
      }
    }
  }
}