{
  "contractName": "CoinPairPrice",
  "abi": [
    {
      "anonymous": false,
      "inputs": [
        {
          "indexed": false,
          "internalType": "address",
          "name": "caller",
          "type": "address"
        },
        {
          "indexed": false,
          "internalType": "uint256",
          "name": "number",
          "type": "uint256"
        },
        {
          "indexed": false,
          "internalType": "uint256",
          "name": "totalPoints",
          "type": "uint256"
        },
        {
          "indexed": false,
          "internalType": "uint256",
          "name": "startBlock",
          "type": "uint256"
        },
        {
          "indexed": false,
          "internalType": "uint256",
          "name": "lockPeriodEndBlock",
          "type": "uint256"
        },
        {
          "indexed": false,
          "internalType": "address[]",
          "name": "selectedOracles",
          "type": "address[]"
        }
      ],
      "name": "NewRound",
      "type": "event"
    },
    {
      "anonymous": false,
      "inputs": [
        {
          "indexed": false,
          "internalType": "uint256",
          "name": "roundNumber",
          "type": "uint256"
        },
        {
          "indexed": false,
          "internalType": "address",
          "name": "oracleAddress",
          "type": "address"
        },
        {
          "indexed": false,
          "internalType": "address",
          "name": "toOwnerAddress",
          "type": "address"
        },
        {
          "indexed": false,
          "internalType": "uint256",
          "name": "amount",
          "type": "uint256"
        }
      ],
      "name": "OracleRewardTransfer",
      "type": "event"
    },
    {
      "anonymous": false,
      "inputs": [
        {
          "indexed": false,
          "internalType": "address",
          "name": "sender",
          "type": "address"
        },
        {
          "indexed": false,
          "internalType": "uint256",
          "name": "price",
          "type": "uint256"
        },
        {
          "indexed": false,
          "internalType": "address",
          "name": "votedOracle",
          "type": "address"
        },
        {
          "indexed": false,
          "internalType": "uint256",
          "name": "blockNumber",
          "type": "uint256"
        }
      ],
      "name": "PricePublished",
      "type": "event"
    },
    {
      "inputs": [
        {
          "internalType": "address",
          "name": "_whitelisted",
          "type": "address"
        }
      ],
      "name": "addToWhitelist",
      "outputs": [],
      "stateMutability": "nonpayable",
      "type": "function"
    },
    {
      "inputs": [
        {
          "internalType": "contract IGovernor",
          "name": "newIGovernor",
          "type": "address"
        }
      ],
      "name": "changeIGovernor",
      "outputs": [],
      "stateMutability": "nonpayable",
      "type": "function"
    },
    {
      "inputs": [
        {
          "internalType": "uint256",
          "name": "i",
          "type": "uint256"
        }
      ],
      "name": "getWhiteListAtIndex",
      "outputs": [
        {
          "internalType": "address",
          "name": "",
          "type": "address"
        }
      ],
      "stateMutability": "view",
      "type": "function"
    },
    {
      "inputs": [],
      "name": "getWhiteListLen",
      "outputs": [
        {
          "internalType": "uint256",
          "name": "",
          "type": "uint256"
        }
      ],
      "stateMutability": "view",
      "type": "function"
    },
    {
      "inputs": [],
      "name": "governor",
      "outputs": [
        {
          "internalType": "contract IGovernor",
          "name": "",
          "type": "address"
        }
      ],
      "stateMutability": "view",
      "type": "function"
    },
    {
      "inputs": [
        {
          "internalType": "contract IGovernor",
          "name": "_governor",
          "type": "address"
        },
        {
          "internalType": "address[]",
          "name": "_wlist",
          "type": "address[]"
        },
        {
          "internalType": "bytes32",
          "name": "_coinPair",
          "type": "bytes32"
        },
        {
          "internalType": "address",
          "name": "_tokenAddress",
          "type": "address"
        },
        {
          "internalType": "uint256",
          "name": "_maxOraclesPerRound",
          "type": "uint256"
        },
        {
          "internalType": "uint256",
          "name": "_roundLockPeriodInBlocks",
          "type": "uint256"
        },
        {
          "internalType": "uint256",
          "name": "_bootstrapPrice",
          "type": "uint256"
        },
        {
          "internalType": "uint8",
          "name": "_numIdleRounds",
          "type": "uint8"
        },
        {
          "internalType": "contract OracleManager",
          "name": "_oracleManager",
          "type": "address"
        }
      ],
      "name": "initialize",
      "outputs": [],
      "stateMutability": "nonpayable",
      "type": "function"
    },
    {
      "inputs": [
        {
          "internalType": "contract IGovernor",
          "name": "_governor",
          "type": "address"
        }
      ],
      "name": "initialize",
      "outputs": [],
      "stateMutability": "nonpayable",
      "type": "function"
    },
    {
      "inputs": [
        {
          "internalType": "address",
          "name": "account",
          "type": "address"
        }
      ],
      "name": "isWhitelisted",
      "outputs": [
        {
          "internalType": "bool",
          "name": "",
          "type": "bool"
        }
      ],
      "stateMutability": "view",
      "type": "function"
    },
    {
      "inputs": [
        {
          "internalType": "uint256",
          "name": "",
          "type": "uint256"
        }
      ],
      "name": "keyList",
      "outputs": [
        {
          "internalType": "address",
          "name": "",
          "type": "address"
        }
      ],
      "stateMutability": "view",
      "type": "function"
    },
    {
      "inputs": [],
      "name": "maxOraclesPerRound",
      "outputs": [
        {
          "internalType": "uint256",
          "name": "",
          "type": "uint256"
        }
      ],
      "stateMutability": "view",
      "type": "function"
    },
    {
      "inputs": [],
      "name": "numIdleRounds",
      "outputs": [
        {
          "internalType": "uint8",
          "name": "",
          "type": "uint8"
        }
      ],
      "stateMutability": "view",
      "type": "function"
    },
    {
      "inputs": [],
      "name": "oracleManager",
      "outputs": [
        {
          "internalType": "contract OracleManager",
          "name": "",
          "type": "address"
        }
      ],
      "stateMutability": "view",
      "type": "function"
    },
    {
      "inputs": [
        {
          "internalType": "address",
          "name": "_whitelisted",
          "type": "address"
        }
      ],
      "name": "removeFromWhitelist",
      "outputs": [],
      "stateMutability": "nonpayable",
      "type": "function"
    },
    {
      "inputs": [],
      "name": "roundLockPeriodInBlocks",
      "outputs": [
        {
          "internalType": "uint256",
          "name": "",
          "type": "uint256"
        }
      ],
      "stateMutability": "view",
      "type": "function"
    },
    {
      "inputs": [
        {
          "internalType": "bytes32",
          "name": "_coinPair",
          "type": "bytes32"
        }
      ],
      "name": "setCoinPair",
      "outputs": [],
      "stateMutability": "nonpayable",
      "type": "function"
    },
    {
      "inputs": [
        {
          "internalType": "uint256",
          "name": "_currentPrice",
          "type": "uint256"
        }
      ],
      "name": "setCurrentPrice",
      "outputs": [],
      "stateMutability": "nonpayable",
      "type": "function"
    },
    {
      "inputs": [
        {
          "internalType": "uint256",
          "name": "_maxOraclesPerRound",
          "type": "uint256"
        }
      ],
      "name": "setMaxOraclesPerRound",
      "outputs": [],
      "stateMutability": "nonpayable",
      "type": "function"
    },
    {
      "inputs": [
        {
          "internalType": "uint8",
          "name": "_numIdleRounds",
          "type": "uint8"
        }
      ],
      "name": "setNumIdleRounds",
      "outputs": [],
      "stateMutability": "nonpayable",
      "type": "function"
    },
    {
      "inputs": [
        {
          "internalType": "uint256",
          "name": "_roundLockPeriodInBlocks",
          "type": "uint256"
        }
      ],
      "name": "setRoundLockPeriodInBlocks",
      "outputs": [],
      "stateMutability": "nonpayable",
      "type": "function"
    },
    {
      "inputs": [],
      "name": "token",
      "outputs": [
        {
          "internalType": "contract IERC20",
          "name": "",
          "type": "address"
        }
      ],
      "stateMutability": "view",
      "type": "function"
    },
    {
      "inputs": [
        {
          "internalType": "address",
          "name": "oracleAddr",
          "type": "address"
        }
      ],
      "name": "suscribe",
      "outputs": [],
      "stateMutability": "nonpayable",
      "type": "function"
    },
    {
      "inputs": [
        {
          "internalType": "address",
          "name": "oracleAddr",
          "type": "address"
        }
      ],
      "name": "unsuscribe",
      "outputs": [],
      "stateMutability": "nonpayable",
      "type": "function"
    },
    {
      "inputs": [
        {
          "internalType": "address",
          "name": "oracleAddr",
          "type": "address"
        }
      ],
      "name": "isSuscribed",
      "outputs": [
        {
          "internalType": "bool",
          "name": "",
          "type": "bool"
        }
      ],
      "stateMutability": "view",
      "type": "function"
    },
    {
      "inputs": [
        {
          "internalType": "address",
          "name": "oracleAddr",
          "type": "address"
        }
      ],
      "name": "canRemoveOracle",
      "outputs": [
        {
          "internalType": "bool",
          "name": "",
          "type": "bool"
        }
      ],
      "stateMutability": "view",
      "type": "function"
    },
    {
      "inputs": [],
      "name": "getAvailableRewardFees",
      "outputs": [
        {
          "internalType": "uint256",
          "name": "",
          "type": "uint256"
        }
      ],
      "stateMutability": "view",
      "type": "function"
    },
    {
      "inputs": [
        {
          "internalType": "uint256",
          "name": "version",
          "type": "uint256"
        },
        {
          "internalType": "bytes32",
          "name": "coinpair",
          "type": "bytes32"
        },
        {
          "internalType": "uint256",
          "name": "price",
          "type": "uint256"
        },
        {
          "internalType": "address",
          "name": "votedOracle",
          "type": "address"
        },
        {
          "internalType": "uint256",
          "name": "blockNumber",
          "type": "uint256"
        },
        {
          "internalType": "uint8[]",
          "name": "sig_v",
          "type": "uint8[]"
        },
        {
          "internalType": "bytes32[]",
          "name": "sig_r",
          "type": "bytes32[]"
        },
        {
          "internalType": "bytes32[]",
          "name": "sig_s",
          "type": "bytes32[]"
        }
      ],
      "name": "publishPrice",
      "outputs": [],
      "stateMutability": "nonpayable",
      "type": "function"
    },
    {
      "inputs": [],
      "name": "peek",
      "outputs": [
        {
          "internalType": "bytes32",
          "name": "",
          "type": "bytes32"
        },
        {
          "internalType": "bool",
          "name": "",
          "type": "bool"
        }
      ],
      "stateMutability": "view",
      "type": "function"
    },
    {
      "inputs": [],
      "name": "getPrice",
      "outputs": [
        {
          "internalType": "uint256",
          "name": "",
          "type": "uint256"
        }
      ],
      "stateMutability": "view",
      "type": "function"
    },
    {
      "inputs": [],
      "name": "getCoinPair",
      "outputs": [
        {
          "internalType": "bytes32",
          "name": "",
          "type": "bytes32"
        }
      ],
      "stateMutability": "view",
      "type": "function"
    },
    {
      "inputs": [],
      "name": "getLastPublicationBlock",
      "outputs": [
        {
          "internalType": "uint256",
          "name": "",
          "type": "uint256"
        }
      ],
      "stateMutability": "view",
      "type": "function"
    },
    {
      "inputs": [],
      "name": "getRoundInfo",
      "outputs": [
        {
          "internalType": "uint256",
          "name": "round",
          "type": "uint256"
        },
        {
          "internalType": "uint256",
          "name": "startBlock",
          "type": "uint256"
        },
        {
          "internalType": "uint256",
          "name": "lockPeriodEndBlock",
          "type": "uint256"
        },
        {
          "internalType": "uint256",
          "name": "totalPoints",
          "type": "uint256"
        },
        {
          "internalType": "address[]",
          "name": "selectedOracles",
          "type": "address[]"
        }
      ],
      "stateMutability": "view",
      "type": "function"
    },
    {
      "inputs": [
        {
          "internalType": "address",
          "name": "addr",
          "type": "address"
        }
      ],
      "name": "getOracleRoundInfo",
      "outputs": [
        {
          "internalType": "uint256",
          "name": "points",
          "type": "uint256"
        },
        {
          "internalType": "uint256",
          "name": "selectedInRound",
          "type": "uint256"
        },
        {
          "internalType": "bool",
          "name": "selectedInCurrentRound",
          "type": "bool"
        }
      ],
      "stateMutability": "view",
      "type": "function"
    },
    {
      "inputs": [],
      "name": "switchRound",
      "outputs": [],
      "stateMutability": "nonpayable",
      "type": "function"
    }
  ],
  "bytecode": "0x6080604052614c61806100136000396000f3fe608060405234801561001057600080fd5b50600436106101fb5760003560e01c80637e11c1b61161011a578063bb0d18bc116100ad578063d3daa3731161007c578063d3daa37314610bcc578063d402152814610bea578063e40a2ee414610c18578063e43252d714610c46578063fc0c546a14610c8a576101fb565b8063bb0d18bc14610923578063c4d66de814610941578063cb0706f914610985578063cbf83a04146109a3576101fb565b806384bc76a6116100e957806384bc76a6146108025780638ab1d6811461087d57806398d5fdca146108c1578063b6e08330146108df576101fb565b80637e11c1b6146106ca5780637fd97063146106f857806383455d681461073c5780638458c1dd14610798576101fb565b80634574a7e011610192578063652253b411610161578063652253b4146106195780636ef573411461064a57806378ff1b4d146106685780637a5e0f1d14610686576101fb565b80634574a7e014610434578063565d878c1461058257806359e02dd7146105cc5780635c6779c2146105f5576101fb565b806331700bee116101ce57806331700bee14610354578063375e2729146103725780633aacdc991461037c5780633af32abf146103d8576101fb565b80630c340a241461020057806318b200711461024a5780631a3d00c0146102785780631ce05c45146102e6575b600080fd5b610208610cd4565b604051808273ffffffffffffffffffffffffffffffffffffffff1673ffffffffffffffffffffffffffffffffffffffff16815260200191505060405180910390f35b6102766004803603602081101561026057600080fd5b8101908080359060200190929190505050610cfa565b005b6102a46004803603602081101561028e57600080fd5b8101908080359060200190929190505050610ebb565b604051808273ffffffffffffffffffffffffffffffffffffffff1673ffffffffffffffffffffffffffffffffffffffff16815260200191505060405180910390f35b610312600480360360208110156102fc57600080fd5b8101908080359060200190929190505050610f76565b604051808273ffffffffffffffffffffffffffffffffffffffff1673ffffffffffffffffffffffffffffffffffffffff16815260200191505060405180910390f35b61035c610fb2565b6040518082815260200191505060405180910390f35b61037a610fbc565b005b6103be6004803603602081101561039257600080fd5b81019080803573ffffffffffffffffffffffffffffffffffffffff1690602001909291905050506111a0565b604051808215151515815260200191505060405180910390f35b61041a600480360360208110156103ee57600080fd5b81019080803573ffffffffffffffffffffffffffffffffffffffff16906020019092919050505061122f565b604051808215151515815260200191505060405180910390f35b610580600480360361012081101561044b57600080fd5b81019080803573ffffffffffffffffffffffffffffffffffffffff1690602001909291908035906020019064010000000081111561048857600080fd5b82018360208201111561049a57600080fd5b803590602001918460208302840111640100000000831117156104bc57600080fd5b919080806020026020016040519081016040528093929190818152602001838360200280828437600081840152601f19601f82011690508083019250505050505050919291929080359060200190929190803573ffffffffffffffffffffffffffffffffffffffff169060200190929190803590602001909291908035906020019092919080359060200190929190803560ff169060200190929190803573ffffffffffffffffffffffffffffffffffffffff169060200190929190505050611327565b005b61058a61179a565b604051808273ffffffffffffffffffffffffffffffffffffffff1673ffffffffffffffffffffffffffffffffffffffff16815260200191505060405180910390f35b6105d46117c0565b60405180838152602001821515151581526020019250505060405180910390f35b6105fd611885565b604051808260ff1660ff16815260200191505060405180910390f35b6106486004803603602081101561062f57600080fd5b81019080803560ff169060200190929190505050611898565b005b610652611a6d565b6040518082815260200191505060405180910390f35b610670611a73565b6040518082815260200191505060405180910390f35b6106c86004803603602081101561069c57600080fd5b81019080803573ffffffffffffffffffffffffffffffffffffffff169060200190929190505050611a7d565b005b6106f6600480360360208110156106e057600080fd5b8101908080359060200190929190505050611c29565b005b61073a6004803603602081101561070e57600080fd5b81019080803573ffffffffffffffffffffffffffffffffffffffff169060200190929190505050611dea565b005b61077e6004803603602081101561075257600080fd5b81019080803573ffffffffffffffffffffffffffffffffffffffff169060200190929190505050611f96565b604051808215151515815260200191505060405180910390f35b6107da600480360360208110156107ae57600080fd5b81019080803573ffffffffffffffffffffffffffffffffffffffff169060200190929190505050611fed565b6040518084815260200183815260200182151515158152602001935050505060405180910390f35b61080a6120d3565b6040518086815260200185815260200184815260200183815260200180602001828103825283818151815260200191508051906020019060200280838360005b8381101561086557808201518184015260208101905061084a565b50505050905001965050505050505060405180910390f35b6108bf6004803603602081101561089357600080fd5b81019080803573ffffffffffffffffffffffffffffffffffffffff169060200190929190505050612196565b005b6108c9612359565b6040518082815260200191505060405180910390f35b610921600480360360208110156108f557600080fd5b81019080803573ffffffffffffffffffffffffffffffffffffffff169060200190929190505050612371565b005b61092b61256c565b6040518082815260200191505060405180910390f35b6109836004803603602081101561095757600080fd5b81019080803573ffffffffffffffffffffffffffffffffffffffff16906020019092919050505061264d565b005b61098d61278e565b6040518082815260200191505060405180910390f35b610bca60048036036101008110156109ba57600080fd5b81019080803590602001909291908035906020019092919080359060200190929190803573ffffffffffffffffffffffffffffffffffffffff1690602001909291908035906020019092919080359060200190640100000000811115610a1f57600080fd5b820183602082011115610a3157600080fd5b80359060200191846020830284011164010000000083111715610a5357600080fd5b919080806020026020016040519081016040528093929190818152602001838360200280828437600081840152601f19601f82011690508083019250505050505050919291929080359060200190640100000000811115610ab357600080fd5b820183602082011115610ac557600080fd5b80359060200191846020830284011164010000000083111715610ae757600080fd5b919080806020026020016040519081016040528093929190818152602001838360200280828437600081840152601f19601f82011690508083019250505050505050919291929080359060200190640100000000811115610b4757600080fd5b820183602082011115610b5957600080fd5b80359060200191846020830284011164010000000083111715610b7b57600080fd5b919080806020026020016040519081016040528093929190818152602001838360200280828437600081840152601f19601f82011690508083019250505050505050919291929050505061279b565b005b610bd4613159565b6040518082815260200191505060405180910390f35b610c1660048036036020811015610c0057600080fd5b810190808035906020019092919050505061315f565b005b610c4460048036036020811015610c2e57600080fd5b8101908080359060200190929190505050613320565b005b610c8860048036036020811015610c5c57600080fd5b81019080803573ffffffffffffffffffffffffffffffffffffffff1690602001909291905050506134e1565b005b610c926136a4565b604051808273ffffffffffffffffffffffffffffffffffffffff1673ffffffffffffffffffffffffffffffffffffffff16815260200191505060405180910390f35b603360009054906101000a900473ffffffffffffffffffffffffffffffffffffffff1681565b603360009054906101000a900473ffffffffffffffffffffffffffffffffffffffff1673ffffffffffffffffffffffffffffffffffffffff1663d994d6d5336040518263ffffffff1660e01b8152600401808273ffffffffffffffffffffffffffffffffffffffff1673ffffffffffffffffffffffffffffffffffffffff16815260200191505060206040518083038186803b158015610d9957600080fd5b505afa158015610dad573d6000803e3d6000fd5b505050506040513d6020811015610dc357600080fd5b81019080805190602001909291905050506040518060400160405280601681526020017f6e6f745f617574686f72697a65645f6368616e6765720000000000000000000081525090610eb0576040517f08c379a00000000000000000000000000000000000000000000000000000000081526004018080602001828103825283818151815260200191508051906020019080838360005b83811015610e75578082015181840152602081019050610e5a565b50505050905090810190601f168015610ea25780820380516001836020036101000a031916815260200191505b509250505060405180910390fd5b508060d08190555050565b60006099805490508210610f37576040517f08c379a000000000000000000000000000000000000000000000000000000000815260040180806020018281038252600d8152602001807f496c6c6567616c20696e6465780000000000000000000000000000000000000081525060200191505060405180910390fd5b60998281548110610f4457fe5b9060005260206000200160009054906101000a900473ffffffffffffffffffffffffffffffffffffffff169050919050565b60998181548110610f8357fe5b906000526020600020016000915054906101000a900473ffffffffffffffffffffffffffffffffffffffff1681565b600060cc54905090565b600061010760000154111561103257610107600301544311611029576040517f08c379a00000000000000000000000000000000000000000000000000000000081526004018080602001828103825260278152602001806148856027913960400191505060405180910390fd5b6110316136ca565b5b61103a613c8f565b6001610107600001540161010760000181905550600061010760010181905550600143016101076002018190555060cf54600143010161010760030181905550611082613d3f565b7fbaa39f5ccab881896722a002855fefb557ddeb6b65f492d869c5e411fb6d98223361010760000154610107600101546101076002015461010760030154610107600401604051808773ffffffffffffffffffffffffffffffffffffffff1673ffffffffffffffffffffffffffffffffffffffff16815260200186815260200185815260200184815260200183815260200180602001828103825283818154815260200191508054801561118b57602002820191906000526020600020905b8160009054906101000a900473ffffffffffffffffffffffffffffffffffffffff1673ffffffffffffffffffffffffffffffffffffffff1681526020019060010190808311611141575b505097505050505050505060405180910390a1565b60008061010c60008473ffffffffffffffffffffffffffffffffffffffff1673ffffffffffffffffffffffffffffffffffffffff168152602001908152602001600020905060006111f08261403c565b141561120057600191505061122a565b60ce60009054906101000a900460ff1660ff1661121c8261403c565b610107600001540310159150505b919050565b60008073ffffffffffffffffffffffffffffffffffffffff168273ffffffffffffffffffffffffffffffffffffffff1614156112d3576040517f08c379a00000000000000000000000000000000000000000000000000000000081526004018080602001828103825260178152602001807f4163636f756e74206d757374206e6f742062652030783000000000000000000081525060200191505060405180910390fd5b606660008373ffffffffffffffffffffffffffffffffffffffff1673ffffffffffffffffffffffffffffffffffffffff16815260200190815260200160002060009054906101000a900460ff169050919050565b600060019054906101000a900460ff1680611346575061134561404a565b5b8061135d57506000809054906101000a900460ff16155b6113b2576040517f08c379a000000000000000000000000000000000000000000000000000000000815260040180806020018281038252602e815260200180614ab6602e913960400191505060405180910390fd5b60008060019054906101000a900460ff161590508015611402576001600060016101000a81548160ff02191690831515021790555060016000806101000a81548160ff0219169083151502179055505b60008951141561145d576040517f08c379a0000000000000000000000000000000000000000000000000000000008152600401808060200182810382526028815260200180614ba36028913960400191505060405180910390fd5b6000801b8814156114d6576040517f08c379a00000000000000000000000000000000000000000000000000000000081526004018080602001828103825260178152602001807f436f696e2070616972206d7573742062652076616c696400000000000000000081525060200191505060405180910390fd5b600073ffffffffffffffffffffffffffffffffffffffff168773ffffffffffffffffffffffffffffffffffffffff16141561155c576040517f08c379a0000000000000000000000000000000000000000000000000000000008152600401808060200182810382526035815260200180614ae46035913960400191505060405180910390fd5b600085116115b5576040517f08c379a00000000000000000000000000000000000000000000000000000000081526004018080602001828103825260338152602001806149706033913960400191505060405180910390fd5b6000861161160e576040517f08c379a0000000000000000000000000000000000000000000000000000000008152600401808060200182810382526028815260200180614b466028913960400191505060405180910390fd5b60018360ff16101561166b576040517f08c379a0000000000000000000000000000000000000000000000000000000008152600401808060200182810382526038815260200180614bf46038913960400191505060405180910390fd5b6116748a61264d565b60008090505b89518110156116ac5761169f8a828151811061169257fe5b6020026020010151614061565b808060010191505061167a565b508560cd819055508460cf819055508260ce60006101000a81548160ff021916908360ff1602179055508660d160006101000a81548173ffffffffffffffffffffffffffffffffffffffff021916908373ffffffffffffffffffffffffffffffffffffffff1602179055508760cc819055508160d260006101000a81548173ffffffffffffffffffffffffffffffffffffffff021916908373ffffffffffffffffffffffffffffffffffffffff1602179055504360d3819055508360d081905550801561178e5760008060016101000a81548160ff0219169083151502179055505b50505050505050505050565b60d260009054906101000a900473ffffffffffffffffffffffffffffffffffffffff1681565b6000806117cc3361122f565b806118035750600173ffffffffffffffffffffffffffffffffffffffff163373ffffffffffffffffffffffffffffffffffffffff16145b611875576040517f08c379a000000000000000000000000000000000000000000000000000000000815260040180806020018281038252601a8152602001807f41646472657373206973206e6f742077686974656c697374656400000000000081525060200191505060405180910390fd5b60d05460001b6001915091509091565b60ce60009054906101000a900460ff1681565b603360009054906101000a900473ffffffffffffffffffffffffffffffffffffffff1673ffffffffffffffffffffffffffffffffffffffff1663d994d6d5336040518263ffffffff1660e01b8152600401808273ffffffffffffffffffffffffffffffffffffffff1673ffffffffffffffffffffffffffffffffffffffff16815260200191505060206040518083038186803b15801561193757600080fd5b505afa15801561194b573d6000803e3d6000fd5b505050506040513d602081101561196157600080fd5b81019080805190602001909291905050506040518060400160405280601681526020017f6e6f745f617574686f72697a65645f6368616e6765720000000000000000000081525090611a4e576040517f08c379a00000000000000000000000000000000000000000000000000000000081526004018080602001828103825283818151815260200191508051906020019080838360005b83811015611a135780820151818401526020810190506119f8565b50505050905090810190601f168015611a405780820380516001836020036101000a031916815260200191505b509250505060405180910390fd5b508060ce60006101000a81548160ff021916908360ff16021790555050565b60cd5481565b600060d354905090565b60d260009054906101000a900473ffffffffffffffffffffffffffffffffffffffff1673ffffffffffffffffffffffffffffffffffffffff163373ffffffffffffffffffffffffffffffffffffffff1614611b23576040517f08c379a000000000000000000000000000000000000000000000000000000000815260040180806020018281038252602281526020018061494e6022913960400191505060405180910390fd5b6000151561010660008373ffffffffffffffffffffffffffffffffffffffff1673ffffffffffffffffffffffffffffffffffffffff16815260200190815260200160002060009054906101000a900460ff16151514611bcd576040517f08c379a000000000000000000000000000000000000000000000000000000000815260040180806020018281038252602d815260200180614b19602d913960400191505060405180910390fd5b600161010660008373ffffffffffffffffffffffffffffffffffffffff1673ffffffffffffffffffffffffffffffffffffffff16815260200190815260200160002060006101000a81548160ff02191690831515021790555050565b603360009054906101000a900473ffffffffffffffffffffffffffffffffffffffff1673ffffffffffffffffffffffffffffffffffffffff1663d994d6d5336040518263ffffffff1660e01b8152600401808273ffffffffffffffffffffffffffffffffffffffff1673ffffffffffffffffffffffffffffffffffffffff16815260200191505060206040518083038186803b158015611cc857600080fd5b505afa158015611cdc573d6000803e3d6000fd5b505050506040513d6020811015611cf257600080fd5b81019080805190602001909291905050506040518060400160405280601681526020017f6e6f745f617574686f72697a65645f6368616e6765720000000000000000000081525090611ddf576040517f08c379a00000000000000000000000000000000000000000000000000000000081526004018080602001828103825283818151815260200191508051906020019080838360005b83811015611da4578082015181840152602081019050611d89565b50505050905090810190601f168015611dd15780820380516001836020036101000a031916815260200191505b509250505060405180910390fd5b508060cc8190555050565b60d260009054906101000a900473ffffffffffffffffffffffffffffffffffffffff1673ffffffffffffffffffffffffffffffffffffffff163373ffffffffffffffffffffffffffffffffffffffff1614611e90576040517f08c379a000000000000000000000000000000000000000000000000000000000815260040180806020018281038252602281526020018061494e6022913960400191505060405180910390fd5b6001151561010660008373ffffffffffffffffffffffffffffffffffffffff1673ffffffffffffffffffffffffffffffffffffffff16815260200190815260200160002060009054906101000a900460ff16151514611f3a576040517f08c379a0000000000000000000000000000000000000000000000000000000008152600401808060200182810382526029815260200180614bcb6029913960400191505060405180910390fd5b600061010660008373ffffffffffffffffffffffffffffffffffffffff1673ffffffffffffffffffffffffffffffffffffffff16815260200190815260200160002060006101000a81548160ff02191690831515021790555050565b600061010660008373ffffffffffffffffffffffffffffffffffffffff1673ffffffffffffffffffffffffffffffffffffffff16815260200190815260200160002060009054906101000a900460ff169050919050565b600080600061010c60008573ffffffffffffffffffffffffffffffffffffffff1673ffffffffffffffffffffffffffffffffffffffff1681526020019081526020016000206000015461010c60008673ffffffffffffffffffffffffffffffffffffffff1673ffffffffffffffffffffffffffffffffffffffff168152602001908152602001600020600101546101076000015461010c60008873ffffffffffffffffffffffffffffffffffffffff1673ffffffffffffffffffffffffffffffffffffffff16815260200190815260200160002060010154149250925092509193909250565b6000806000806060610107600001546101076002015461010760030154610107600101546101076004018080548060200260200160405190810160405280929190818152602001828054801561217e57602002820191906000526020600020905b8160009054906101000a900473ffffffffffffffffffffffffffffffffffffffff1673ffffffffffffffffffffffffffffffffffffffff1681526020019060010190808311612134575b50505050509050945094509450945094509091929394565b603360009054906101000a900473ffffffffffffffffffffffffffffffffffffffff1673ffffffffffffffffffffffffffffffffffffffff1663d994d6d5336040518263ffffffff1660e01b8152600401808273ffffffffffffffffffffffffffffffffffffffff1673ffffffffffffffffffffffffffffffffffffffff16815260200191505060206040518083038186803b15801561223557600080fd5b505afa158015612249573d6000803e3d6000fd5b505050506040513d602081101561225f57600080fd5b81019080805190602001909291905050506040518060400160405280601681526020017f6e6f745f617574686f72697a65645f6368616e676572000000000000000000008152509061234c576040517f08c379a00000000000000000000000000000000000000000000000000000000081526004018080602001828103825283818151815260200191508051906020019080838360005b838110156123115780820151818401526020810190506122f6565b50505050905090810190601f16801561233e5780820380516001836020036101000a031916815260200191505b509250505060405180910390fd5b50612356816140de565b50565b6000806123646117c0565b5090508060001c91505090565b603360009054906101000a900473ffffffffffffffffffffffffffffffffffffffff1673ffffffffffffffffffffffffffffffffffffffff1663d994d6d5336040518263ffffffff1660e01b8152600401808273ffffffffffffffffffffffffffffffffffffffff1673ffffffffffffffffffffffffffffffffffffffff16815260200191505060206040518083038186803b15801561241057600080fd5b505afa158015612424573d6000803e3d6000fd5b505050506040513d602081101561243a57600080fd5b81019080805190602001909291905050506040518060400160405280601681526020017f6e6f745f617574686f72697a65645f6368616e6765720000000000000000000081525090612527576040517f08c379a00000000000000000000000000000000000000000000000000000000081526004018080602001828103825283818151815260200191508051906020019080838360005b838110156124ec5780820151818401526020810190506124d1565b50505050905090810190601f1680156125195780820380516001836020036101000a031916815260200191505b509250505060405180910390fd5b5080603360006101000a81548173ffffffffffffffffffffffffffffffffffffffff021916908373ffffffffffffffffffffffffffffffffffffffff16021790555050565b600060d160009054906101000a900473ffffffffffffffffffffffffffffffffffffffff1673ffffffffffffffffffffffffffffffffffffffff166370a08231306040518263ffffffff1660e01b8152600401808273ffffffffffffffffffffffffffffffffffffffff1673ffffffffffffffffffffffffffffffffffffffff16815260200191505060206040518083038186803b15801561260d57600080fd5b505afa158015612621573d6000803e3d6000fd5b505050506040513d602081101561263757600080fd5b8101908080519060200190929190505050905090565b600060019054906101000a900460ff168061266c575061266b61404a565b5b8061268357506000809054906101000a900460ff16155b6126d8576040517f08c379a000000000000000000000000000000000000000000000000000000000815260040180806020018281038252602e815260200180614ab6602e913960400191505060405180910390fd5b60008060019054906101000a900460ff161590508015612728576001600060016101000a81548160ff02191690831515021790555060016000806101000a81548160ff0219169083151502179055505b81603360006101000a81548173ffffffffffffffffffffffffffffffffffffffff021916908373ffffffffffffffffffffffffffffffffffffffff160217905550801561278a5760008060016101000a81548160ff0219169083151502179055505b5050565b6000609980549050905090565b60006101076000015411612817576040517f08c379a000000000000000000000000000000000000000000000000000000000815260040180806020018281038252600e8152602001807f526f756e64206e6f74206f70656e00000000000000000000000000000000000081525060200191505060405180910390fd5b600061010c60003373ffffffffffffffffffffffffffffffffffffffff1673ffffffffffffffffffffffffffffffffffffffff168152602001908152602001600020905061010660003373ffffffffffffffffffffffffffffffffffffffff1673ffffffffffffffffffffffffffffffffffffffff16815260200190815260200160002060009054906101000a900460ff1661291b576040517f08c379a000000000000000000000000000000000000000000000000000000000815260040180806020018281038252601b8152602001807f53656e646572206f7261636c65206e6f7420737573637269626564000000000081525060200191505060405180910390fd5b612934610107600001548261425090919063ffffffff16565b612989576040517f08c379a0000000000000000000000000000000000000000000000000000000008152600401808060200182810382526026815260200180614a906026913960400191505060405180910390fd5b8573ffffffffffffffffffffffffffffffffffffffff163373ffffffffffffffffffffffffffffffffffffffff1614612a0d576040517f08c379a000000000000000000000000000000000000000000000000000000000815260040180806020018281038252602c815260200180614a12602c913960400191505060405180910390fd5b60038914612a66576040517f08c379a00000000000000000000000000000000000000000000000000000000081526004018080602001828103825260248152602001806149ee6024913960400191505060405180910390fd5b60008711612abf576040517f08c379a00000000000000000000000000000000000000000000000000000000081526004018080602001828103825260238152602001806149a36023913960400191505060405180910390fd5b60d3548514612b19576040517f08c379a0000000000000000000000000000000000000000000000000000000008152600401808060200182810382526035815260200180614b6e6035913960400191505060405180910390fd5b612b21610fb2565b8814612b95576040517f08c379a000000000000000000000000000000000000000000000000000000000815260040180806020018281038252601d8152602001807f436f696e2070616972202d20636f6e7472616374206d69736d6174636800000081525060200191505060405180910390fd5b82518251148015612ba7575083518351145b612c19576040517f08c379a000000000000000000000000000000000000000000000000000000000815260040180806020018281038252601c8152602001807f496e636f6e73697374656e74207369676e617475726520636f756e740000000081525060200191505060405180910390fd5b60026101076004018054905081612c2c57fe5b04825111612c85576040517f08c379a0000000000000000000000000000000000000000000000000000000008152600401808060200182810382526031815260200180614a5f6031913960400191505060405180910390fd5b6060898989898960405160200180807f19457468657265756d205369676e6564204d6573736167653a0a313438000000815250601d018681526020018581526020018481526020018373ffffffffffffffffffffffffffffffffffffffff1673ffffffffffffffffffffffffffffffffffffffff1660601b8152601401828152602001955050505050506040516020818303038152906040529050600081805190602001209050600080905060008090505b855181101561302e576000612d87898381518110612d5157fe5b6020026020010151898481518110612d6557fe5b6020026020010151898581518110612d7957fe5b602002602001015187614261565b9050600073ffffffffffffffffffffffffffffffffffffffff168173ffffffffffffffffffffffffffffffffffffffff161415612e2c576040517f08c379a00000000000000000000000000000000000000000000000000000000081526004018080602001828103825260188152602001807f43616e6e6f74207265636f766572207369676e6174757265000000000000000081525060200191505060405180910390fd5b61010660008273ffffffffffffffffffffffffffffffffffffffff1673ffffffffffffffffffffffffffffffffffffffff16815260200190815260200160002060009054906101000a900460ff16612eec576040517f08c379a000000000000000000000000000000000000000000000000000000000815260040180806020018281038252601c8152602001807f5369676e696e67206f7261636c65206e6f74207375736372696265640000000081525060200191505060405180910390fd5b612f446101076000015461010c60008473ffffffffffffffffffffffffffffffffffffffff1673ffffffffffffffffffffffffffffffffffffffff16815260200190815260200160002061425090919063ffffffff16565b612f99576040517f08c379a00000000000000000000000000000000000000000000000000000000081526004018080602001828103825260288152602001806149c66028913960400191505060405180910390fd5b8073ffffffffffffffffffffffffffffffffffffffff168373ffffffffffffffffffffffffffffffffffffffff161061301d576040517f08c379a00000000000000000000000000000000000000000000000000000000081526004018080602001828103825260338152602001806148ac6033913960400191505060405180910390fd5b809250508080600101915050612d37565b50613082600161010c60003373ffffffffffffffffffffffffffffffffffffffff1673ffffffffffffffffffffffffffffffffffffffff16815260200190815260200160002061433a90919063ffffffff16565b60016101076001015401610107600101819055504360d3819055508960d0819055507f3a383add96d332943cbe603b4dc1055154e63668959b8d8517ae06c46be46218338b8b8b604051808573ffffffffffffffffffffffffffffffffffffffff1673ffffffffffffffffffffffffffffffffffffffff1681526020018481526020018373ffffffffffffffffffffffffffffffffffffffff1673ffffffffffffffffffffffffffffffffffffffff16815260200182815260200194505050505060405180910390a1505050505050505050505050565b60cf5481565b603360009054906101000a900473ffffffffffffffffffffffffffffffffffffffff1673ffffffffffffffffffffffffffffffffffffffff1663d994d6d5336040518263ffffffff1660e01b8152600401808273ffffffffffffffffffffffffffffffffffffffff1673ffffffffffffffffffffffffffffffffffffffff16815260200191505060206040518083038186803b1580156131fe57600080fd5b505afa158015613212573d6000803e3d6000fd5b505050506040513d602081101561322857600080fd5b81019080805190602001909291905050506040518060400160405280601681526020017f6e6f745f617574686f72697a65645f6368616e6765720000000000000000000081525090613315576040517f08c379a00000000000000000000000000000000000000000000000000000000081526004018080602001828103825283818151815260200191508051906020019080838360005b838110156132da5780820151818401526020810190506132bf565b50505050905090810190601f1680156133075780820380516001836020036101000a031916815260200191505b509250505060405180910390fd5b508060cf8190555050565b603360009054906101000a900473ffffffffffffffffffffffffffffffffffffffff1673ffffffffffffffffffffffffffffffffffffffff1663d994d6d5336040518263ffffffff1660e01b8152600401808273ffffffffffffffffffffffffffffffffffffffff1673ffffffffffffffffffffffffffffffffffffffff16815260200191505060206040518083038186803b1580156133bf57600080fd5b505afa1580156133d3573d6000803e3d6000fd5b505050506040513d60208110156133e957600080fd5b81019080805190602001909291905050506040518060400160405280601681526020017f6e6f745f617574686f72697a65645f6368616e67657200000000000000000000815250906134d6576040517f08c379a00000000000000000000000000000000000000000000000000000000081526004018080602001828103825283818151815260200191508051906020019080838360005b8381101561349b578082015181840152602081019050613480565b50505050905090810190601f1680156134c85780820380516001836020036101000a031916815260200191505b509250505060405180910390fd5b508060cd8190555050565b603360009054906101000a900473ffffffffffffffffffffffffffffffffffffffff1673ffffffffffffffffffffffffffffffffffffffff1663d994d6d5336040518263ffffffff1660e01b8152600401808273ffffffffffffffffffffffffffffffffffffffff1673ffffffffffffffffffffffffffffffffffffffff16815260200191505060206040518083038186803b15801561358057600080fd5b505afa158015613594573d6000803e3d6000fd5b505050506040513d60208110156135aa57600080fd5b81019080805190602001909291905050506040518060400160405280601681526020017f6e6f745f617574686f72697a65645f6368616e6765720000000000000000000081525090613697576040517f08c379a00000000000000000000000000000000000000000000000000000000081526004018080602001828103825283818151815260200191508051906020019080838360005b8381101561365c578082015181840152602081019050613641565b50505050905090810190601f1680156136895780820380516001836020036101000a031916815260200191505b509250505060405180910390fd5b506136a181614061565b50565b60d160009054906101000a900473ffffffffffffffffffffffffffffffffffffffff1681565b600061010760000154116136da57fe5b600060d160009054906101000a900473ffffffffffffffffffffffffffffffffffffffff1673ffffffffffffffffffffffffffffffffffffffff166370a08231306040518263ffffffff1660e01b8152600401808273ffffffffffffffffffffffffffffffffffffffff1673ffffffffffffffffffffffffffffffffffffffff16815260200191505060206040518083038186803b15801561377b57600080fd5b505afa15801561378f573d6000803e3d6000fd5b505050506040513d60208110156137a557600080fd5b8101908080519060200190929190505050905060006101076001015414806137cd5750600081145b156137d85750613c8d565b600080905060008090505b61010760040180549050811015613c89576000610107600401828154811061380757fe5b9060005260206000200160009054906101000a900473ffffffffffffffffffffffffffffffffffffffff169050600061010c60008373ffffffffffffffffffffffffffffffffffffffff1673ffffffffffffffffffffffffffffffffffffffff16815260200190815260200160002060000154905060006138a96101076001015461389b888561434d90919063ffffffff16565b6143d390919063ffffffff16565b9050600060d260009054906101000a900473ffffffffffffffffffffffffffffffffffffffff1673ffffffffffffffffffffffffffffffffffffffff1663949394fe856040518263ffffffff1660e01b8152600401808273ffffffffffffffffffffffffffffffffffffffff1673ffffffffffffffffffffffffffffffffffffffff16815260200191505060006040518083038186803b15801561394c57600080fd5b505afa158015613960573d6000803e3d6000fd5b505050506040513d6000823e3d601f19601f82011682018060405250606081101561398a57600080fd5b81019080805160405193929190846401000000008211156139aa57600080fd5b838201915060208201858111156139c057600080fd5b82518660018202830111640100000000821117156139dd57600080fd5b8083526020830192505050908051906020019080838360005b83811015613a115780820151818401526020810190506139f6565b50505050905090810190601f168015613a3e5780820380516001836020036101000a031916815260200191505b5060405260200180519060200190929190805190602001909291905050509250505060d160009054906101000a900473ffffffffffffffffffffffffffffffffffffffff1673ffffffffffffffffffffffffffffffffffffffff1663a9059cbb82846040518363ffffffff1660e01b8152600401808373ffffffffffffffffffffffffffffffffffffffff1673ffffffffffffffffffffffffffffffffffffffff16815260200182815260200192505050602060405180830381600087803b158015613b0957600080fd5b505af1158015613b1d573d6000803e3d6000fd5b505050506040513d6020811015613b3357600080fd5b8101908080519060200190929190505050613bb6576040517f08c379a00000000000000000000000000000000000000000000000000000000081526004018080602001828103825260158152602001807f546f6b656e207472616e73666572206661696c6564000000000000000000000081525060200191505060405180910390fd5b613bc9828761441d90919063ffffffff16565b95507f27084250b484355b65cb33c62c64ac793324a1026770765b85817409a2b22e4d61010760000154858385604051808581526020018473ffffffffffffffffffffffffffffffffffffffff1673ffffffffffffffffffffffffffffffffffffffff1681526020018373ffffffffffffffffffffffffffffffffffffffff1673ffffffffffffffffffffffffffffffffffffffff16815260200182815260200194505050505060405180910390a15050505080806001019150506137e3565b5050505b565b60008090505b61010760040180549050811015613d3c57600061010c60006101076004018481548110613cbe57fe5b9060005260206000200160009054906101000a900473ffffffffffffffffffffffffffffffffffffffff1673ffffffffffffffffffffffffffffffffffffffff1673ffffffffffffffffffffffffffffffffffffffff1681526020019081526020016000209050613d2e816144a5565b508080600101915050613c95565b50565b6101076004016000613d51919061483e565b600060d260009054906101000a900473ffffffffffffffffffffffffffffffffffffffff1673ffffffffffffffffffffffffffffffffffffffff1663bfbf602e6040518163ffffffff1660e01b815260040160206040518083038186803b158015613dbb57600080fd5b505afa158015613dcf573d6000803e3d6000fd5b505050506040513d6020811015613de557600080fd5b810190808051906020019092919050505090505b600073ffffffffffffffffffffffffffffffffffffffff168173ffffffffffffffffffffffffffffffffffffffff1614158015613e40575060cd5461010760040180549050105b156140395761010660008273ffffffffffffffffffffffffffffffffffffffff1673ffffffffffffffffffffffffffffffffffffffff16815260200190815260200160002060009054906101000a900460ff1615613f5857610107600401819080600181540180825580915050600190039060005260206000200160009091909190916101000a81548173ffffffffffffffffffffffffffffffffffffffff021916908373ffffffffffffffffffffffffffffffffffffffff160217905550613f576101076000015461010c60008473ffffffffffffffffffffffffffffffffffffffff1673ffffffffffffffffffffffffffffffffffffffff1681526020019081526020016000206144b290919063ffffffff16565b5b60d260009054906101000a900473ffffffffffffffffffffffffffffffffffffffff1673ffffffffffffffffffffffffffffffffffffffff1663d92779cf826040518263ffffffff1660e01b8152600401808273ffffffffffffffffffffffffffffffffffffffff1673ffffffffffffffffffffffffffffffffffffffff16815260200191505060206040518083038186803b158015613ff757600080fd5b505afa15801561400b573d6000803e3d6000fd5b505050506040513d602081101561402157600080fd5b81019080805190602001909291905050509050613df9565b50565b600081600101549050919050565b6000803090506000813b9050600081149250505090565b61406a8161122f565b6140d2576099819080600181540180825580915050600190039060005260206000200160009091909190916101000a81548173ffffffffffffffffffffffffffffffffffffffff021916908373ffffffffffffffffffffffffffffffffffffffff1602179055505b6140db816144bf565b50565b6140e78161461c565b60008090505b60998054905081101561424c578173ffffffffffffffffffffffffffffffffffffffff166099828154811061411e57fe5b9060005260206000200160009054906101000a900473ffffffffffffffffffffffffffffffffffffffff1673ffffffffffffffffffffffffffffffffffffffff16141561423f5760996001609980549050038154811061417a57fe5b9060005260206000200160009054906101000a900473ffffffffffffffffffffffffffffffffffffffff16609982815481106141b257fe5b9060005260206000200160006101000a81548173ffffffffffffffffffffffffffffffffffffffff021916908373ffffffffffffffffffffffffffffffffffffffff160217905550609980548061420557fe5b6001900381819060005260206000200160006101000a81549073ffffffffffffffffffffffffffffffffffffffff0219169055905561424c565b80806001019150506140ed565b5050565b600081836001015414905092915050565b600060208060ff1614158061427a575060208060ff1614155b156142885760009050614332565b6000859050601b8160ff1610156142a057601b810190505b601b8160ff16141580156142b85750601c8160ff1614155b156142c7576000915050614332565b60018382878760405160008152602001604052604051808581526020018460ff1660ff1681526020018381526020018281526020019450505050506020604051602081039080840390855afa158015614324573d6000803e3d6000fd5b505050602060405103519150505b949350505050565b8082600001540182600001819055505050565b60008083141561436057600090506143cd565b600082840290508284828161437157fe5b04146143c8576040517f08c379a0000000000000000000000000000000000000000000000000000000008152600401808060200182810382526021815260200180614a3e6021913960400191505060405180910390fd5b809150505b92915050565b600061441583836040518060400160405280601a81526020017f536166654d6174683a206469766973696f6e206279207a65726f000000000000815250614778565b905092915050565b60008082840190508381101561449b576040517f08c379a000000000000000000000000000000000000000000000000000000000815260040180806020018281038252601b8152602001807f536166654d6174683a206164646974696f6e206f766572666c6f77000000000081525060200191505060405180910390fd5b8091505092915050565b6000816000018190555050565b8082600101819055505050565b600073ffffffffffffffffffffffffffffffffffffffff168173ffffffffffffffffffffffffffffffffffffffff161415614562576040517f08c379a00000000000000000000000000000000000000000000000000000000081526004018080602001828103825260178152602001807f4163636f756e74206d757374206e6f742062652030783000000000000000000081525060200191505060405180910390fd5b61456b8161122f565b156145c1576040517f08c379a000000000000000000000000000000000000000000000000000000000815260040180806020018281038252603381526020018061491b6033913960400191505060405180910390fd5b6001606660008373ffffffffffffffffffffffffffffffffffffffff1673ffffffffffffffffffffffffffffffffffffffff16815260200190815260200160002060006101000a81548160ff02191690831515021790555050565b600073ffffffffffffffffffffffffffffffffffffffff168173ffffffffffffffffffffffffffffffffffffffff1614156146bf576040517f08c379a00000000000000000000000000000000000000000000000000000000081526004018080602001828103825260178152602001807f4163636f756e74206d757374206e6f742062652030783000000000000000000081525060200191505060405180910390fd5b6146c88161122f565b61471d576040517f08c379a000000000000000000000000000000000000000000000000000000000815260040180806020018281038252603c8152602001806148df603c913960400191505060405180910390fd5b6000606660008373ffffffffffffffffffffffffffffffffffffffff1673ffffffffffffffffffffffffffffffffffffffff16815260200190815260200160002060006101000a81548160ff02191690831515021790555050565b60008083118290614824576040517f08c379a00000000000000000000000000000000000000000000000000000000081526004018080602001828103825283818151815260200191508051906020019080838360005b838110156147e95780820151818401526020810190506147ce565b50505050905090810190601f1680156148165780820380516001836020036101000a031916815260200191505b509250505060405180910390fd5b50600083858161483057fe5b049050809150509392505050565b508054600082559060005260206000209081019061485c919061485f565b50565b61488191905b8082111561487d576000816000905550600101614865565b5090565b9056fe5468652063757272656e7420726f756e64206c6f636b20706572696f64206973206163746976655369676e61747572657320617265206e6f7420756e69717565206f72206e6f74206f72646572656420627920616464726573734163636f756e74206973206e6f7420616c6c6f77656420746f2072656d6f766520616464726573732066726f6d20746865207768697465206c6973744163636f756e74206e6f7420616c6c6f77656420746f20616464206163636f756e747320696e746f207768697465206c6973744d7573742062652063616c6c65642066726f6d204f7261636c65206d616e6167657254686520726f756e64206c6f636b20706572696f64206d75737420626520706f73697469766520616e64206e6f6e207a65726f5072696365206d75737420626520706f73697469766520616e64206e6f6e2d7a65726f41646472657373206f66207369676e6572206e6f742070617274206f66207468697320726f756e645468697320636f6e74726163742061636365707473206f6e6c7920563320666f726d6174596f7572206164647265737320646f6573206e6f74206d617463682074686520766f746564206f7261636c65536166654d6174683a206d756c7469706c69636174696f6e206f766572666c6f775369676e617475726520636f756e74206d7573742065786365656420353025206f6620616374697665206f7261636c6573566f746572206f7261636c65206973206e6f742070617274206f66207468697320726f756e64436f6e747261637420696e7374616e63652068617320616c7265616479206265656e20696e697469616c697a6564546865204d4f4320746f6b656e2061646472657373206d7573742062652070726f766964656420696e20636f6e7374727563746f724f7261636c6520697320616c72656164792073757363726962656420746f207468697320636f696e2070616972546865206d6178696d756d206f7261636c65732070657220726f756e64206d757374206265203e30426c6f636b6e756d62657220646f6573206e6f74206d6174636820746865206c617374207075626c69636174696f6e20626c6f636b57686974656c697374206d7573742068617665206174206c65617374206f6e6520656c656d656e744f7261636c65206973206e6f742073757363726962656420746f207468697320636f696e2070616972546865206e756d626572206f6620726f756e647320616e206f7261636c65206d7573742062652069646c65206d757374206265203e3d2031a264697066735822122045b0ee5bd520d58435a60ccf3915da0f99a5cf11d107de938e1c7090e928444464736f6c63430006000033",
  "source": "pragma solidity ^0.6.0;\r\nimport \"./openzeppelin/math/SafeMath.sol\";\r\nimport \"./libs/IPriceProvider.sol\";\r\nimport \"./CoinPairPriceGobernanza.sol\";\r\n/// @title This contract provides an interface for feeding prices from oracles, and\r\n///        get the current price. One contract must be instanced per supported coin pair,\r\n///        and registered through OracleManager global contract.\r\ncontract CoinPairPrice is CoinPairPriceGobernanza, IPriceProvider {\r\n    using SafeMath for uint;\r\n\r\n    // Contract configuration\r\n    // ----------------------------------------------------------------------------------------------------------------\r\n\r\n    // The suscribed oracles to this coin-pair.\r\n    mapping(address => bool) suscribedOracles;\r\n\r\n    struct Round\r\n    {\r\n        // Number of this round\r\n        uint256 number;\r\n\r\n        // Total points accumulated in round.\r\n        uint256 totalPoints;\r\n\r\n        // The starting block of period where this round is valid.\r\n        uint256 startBlock;\r\n\r\n        // The  block (inclusive) where this round lock terminates (can be switched out).\r\n        uint256 lockPeriodEndBlock;\r\n\r\n        // The selected oracles that participate in this round.\r\n        address[] selectedOracles;\r\n    }\r\n\r\n    Round currentRound;\r\n    mapping(address => OracleInfoLib.OracleRoundInfo) oracleRoundInfo;\r\n\r\n    using OracleInfoLib for OracleInfoLib.OracleRoundInfo;\r\n\r\n    event OracleRewardTransfer(uint256 roundNumber, address oracleAddress, address toOwnerAddress, uint256 amount);\r\n    event PricePublished(address sender, uint256 price, address votedOracle, uint256 blockNumber);\r\n    event NewRound(address caller, uint256 number, uint256 totalPoints, uint256 startBlock, uint256 lockPeriodEndBlock,\r\n        address[] selectedOracles);\r\n\r\n    // -------------------------------------------------------------------------------------------------------------\r\n    //\r\n    //   Public interface\r\n    //\r\n    // -------------------------------------------------------------------------------------------------------------\r\n\r\n\r\n    /// @notice Suscribe an oracle to this coin pair , allowing it to be selected in rounds.\r\n    /// @param oracleAddr the oracle address to suscribe to this coin pair.\r\n    /// @dev This is designed to be called from OracleManager.\r\n    function suscribe(address oracleAddr) external {\r\n        require(msg.sender == address(oracleManager), \"Must be called from Oracle manager\");\r\n        require(suscribedOracles[oracleAddr] == false, \"Oracle is already suscribed to this coin pair\");\r\n\r\n        suscribedOracles[oracleAddr] = true;\r\n    }\r\n\r\n    /// @notice Unsuscribe an oracle from this coin pair , disallowing it to be selected in rounds.\r\n    /// @param oracleAddr the oracle address to suscribe to this coin pair.\r\n    /// @dev This is designed to be called from OracleManager.\r\n    function unsuscribe(address oracleAddr) external {\r\n        require(msg.sender == address(oracleManager), \"Must be called from Oracle manager\");\r\n        require(suscribedOracles[oracleAddr] == true, \"Oracle is not suscribed to this coin pair\");\r\n\r\n        suscribedOracles[oracleAddr] = false;\r\n    }\r\n\r\n    /// @notice Returns true if an oracle is suscribed to this contract' coin pair\r\n    /// @param oracleAddr the oracle address to lookup.\r\n    /// @dev This is designed to be called from OracleManager.\r\n    function isSuscribed(address oracleAddr) external view returns (bool) {\r\n        return suscribedOracles[oracleAddr];\r\n    }\r\n\r\n    /// @notice Returns true if an oracle satisfies conditions to be removed from system.\r\n    /// @param oracleAddr the oracle address to lookup.\r\n    function canRemoveOracle(address oracleAddr) public view returns (bool) {\r\n        OracleInfoLib.OracleRoundInfo storage data = oracleRoundInfo[oracleAddr];\r\n        if (data.getSelectedInRound() == 0) return true;\r\n        return currentRound.number - data.getSelectedInRound() >= numIdleRounds;\r\n    }\r\n\r\n    /// @notice Return the available reward fees\r\n    ///\r\n    function getAvailableRewardFees() public view returns (uint256) {\r\n        return token.balanceOf(address(this));\r\n    }\r\n\r\n    /// @notice Publish a price.\r\n    /// @param version Version number of message format (3)\r\n    /// @param coinpair The coin pair to report (must match this contract)\r\n    /// @param price Price to report.\r\n    /// @param votedOracle The address of the oracle voted as a publisher by the network.\r\n    /// @param blockNumber The blocknumber acting as nonce to prevent replay attacks.\r\n    /// @param sig_v The array of V-component of Oracle signatures.\r\n    /// @param sig_r The array of R-component of Oracle signatures.\r\n    /// @param sig_s The array of S-component of Oracle signatures.\r\n    function publishPrice(uint256 version,\r\n        bytes32 coinpair,\r\n        uint256 price,\r\n        address votedOracle,\r\n        uint256 blockNumber,\r\n        uint8[]  memory sig_v,\r\n        bytes32[] memory sig_r,\r\n        bytes32[] memory sig_s) public {\r\n\r\n        require(currentRound.number > 0, \"Round not open\");\r\n        OracleInfoLib.OracleRoundInfo storage data = oracleRoundInfo[msg.sender];\r\n        require(suscribedOracles[msg.sender], \"Sender oracle not suscribed\");\r\n        require(data.isInRound(currentRound.number), \"Voter oracle is not part of this round\");\r\n        require(msg.sender == votedOracle, \"Your address does not match the voted oracle\");\r\n        require(version == 3, \"This contract accepts only V3 format\");\r\n        require(price > 0, \"Price must be positive and non-zero\");\r\n        require(blockNumber == lastPublicationBlock, \"Blocknumber does not match the last publication block\");\r\n        require(coinpair == getCoinPair(), \"Coin pair - contract mismatch\");\r\n\r\n        // Verify signatures\r\n        require(sig_s.length == sig_r.length && sig_r.length == sig_v.length, \"Inconsistent signature count\");\r\n        require(sig_s.length > currentRound.selectedOracles.length / 2,\r\n            \"Signature count must exceed 50% of active oracles\");\r\n\r\n        //\r\n        // NOTE: Message Size is 148 = sizeof(uint256) +\r\n        // sizeof(uint256) + sizeof(uint256) + sizeof(address) +sizeof(uint256)\r\n        //\r\n\r\n        bytes memory hData = abi.encodePacked(\"\\x19Ethereum Signed Message:\\n148\",\r\n            version, coinpair, price, votedOracle, blockNumber);\r\n        bytes32 messageHash = keccak256(hData);\r\n\r\n        address lastAddr = address(0);\r\n        for (uint i = 0; i < sig_s.length; i++) {\r\n            address rec = recoverSigner(sig_v[i], sig_r[i], sig_s[i], messageHash);\r\n            require(rec != address(0), \"Cannot recover signature\");\r\n            require(suscribedOracles[rec], \"Signing oracle not suscribed\");\r\n            require(oracleRoundInfo[rec].isInRound(currentRound.number), \"Address of signer not part of this round\");\r\n            require(lastAddr < rec, \"Signatures are not unique or not ordered by address\");\r\n            lastAddr = rec;\r\n        }\r\n\r\n        oracleRoundInfo[msg.sender].addPoints(1);\r\n        currentRound.totalPoints = currentRound.totalPoints + 1;\r\n        lastPublicationBlock = block.number;\r\n        currentPrice = price;\r\n\r\n        emit PricePublished(msg.sender, price, votedOracle, blockNumber);\r\n    }\r\n\r\n    /// @notice Return the current price, compatible with old MOC Oracle\r\n    function peek() public override view returns (bytes32, bool) {\r\n        // We use address(1) to allow calls from outside the block chain\r\n        require(super.isWhitelisted(msg.sender) || msg.sender == address(1), \"Address is not whitelisted\");\r\n        return (bytes32(currentPrice), true);\r\n    }\r\n\r\n    /// @notice Return the current price, compatible with old MOC Oracle\r\n    function getPrice() external view returns (uint256) {\r\n        (bytes32 cp,) = peek();\r\n        return uint256(cp);\r\n    }\r\n\r\n    /// @notice Return the coin pair for this contract\r\n    function getCoinPair() public view returns (bytes32) {\r\n        return coinPair;\r\n    }\r\n\r\n    /// @notice Get the last publication block\r\n    function getLastPublicationBlock() public view returns (uint256) {\r\n        return lastPublicationBlock;\r\n    }\r\n\r\n    /// @notice Return current round information\r\n    function getRoundInfo() public view returns (uint256 round,\r\n        uint256 startBlock,\r\n        uint256 lockPeriodEndBlock,\r\n        uint256 totalPoints,\r\n        address[] memory selectedOracles) {\r\n        return (currentRound.number, currentRound.startBlock, currentRound.lockPeriodEndBlock,\r\n        currentRound.totalPoints, currentRound.selectedOracles);\r\n    }\r\n\r\n    /// @notice Return round information for specific oracle\r\n    function getOracleRoundInfo(address addr) public view returns (uint points, uint256 selectedInRound,\r\n        bool selectedInCurrentRound) {\r\n        return (oracleRoundInfo[addr].points, oracleRoundInfo[addr].selectedInRound,\r\n        oracleRoundInfo[addr].selectedInRound == currentRound.number);\r\n    }\r\n\r\n    /// @notice Switch contract context to a new round. With the objective of\r\n    /// being a decentralized solution, this can be called by *anyone* if current\r\n    /// round lock period is expired.\r\n    function switchRound() public {\r\n        if (currentRound.number > 0) // Not before the first round\r\n        {\r\n            require(block.number > currentRound.lockPeriodEndBlock, \"The current round lock period is active\");\r\n            distributeRewards();\r\n        }\r\n\r\n        clearOracleState();\r\n\r\n        // Setup new round parameters\r\n\r\n        currentRound.number = currentRound.number + 1;\r\n        currentRound.totalPoints = 0;\r\n        currentRound.startBlock = block.number + 1;\r\n        currentRound.lockPeriodEndBlock = block.number + 1 + roundLockPeriodInBlocks;\r\n\r\n        // Select top stake oracles to participate on this round\r\n\r\n        selectOraclesForRound();\r\n\r\n        emit NewRound(msg.sender, currentRound.number, currentRound.totalPoints, currentRound.startBlock,\r\n            currentRound.lockPeriodEndBlock, currentRound.selectedOracles);\r\n    }\r\n\r\n    // ----------------------------------------------------------------------------------------------------------------\r\n    // Internal functions\r\n    // ----------------------------------------------------------------------------------------------------------------\r\n\r\n    function clearOracleState() private {\r\n        for (uint i = 0; i < currentRound.selectedOracles.length; i++) {\r\n            OracleInfoLib.OracleRoundInfo storage data = oracleRoundInfo[currentRound.selectedOracles[i]];\r\n            data.clearPoints();\r\n        }\r\n    }\r\n\r\n    /// @notice Distribute rewards to oracles, taking fees from this smart contract.\r\n    function distributeRewards() private {\r\n        assert(currentRound.number > 0);\r\n\r\n        uint256 availableRewardFees = token.balanceOf(address(this));\r\n        if (currentRound.totalPoints == 0 || availableRewardFees == 0)\r\n            return;\r\n\r\n        // Distribute according to points/TotalPoints ratio\r\n        uint256 distSum = 0;\r\n        for (uint i = 0; i < currentRound.selectedOracles.length; i++) {\r\n            address oracleAddr = currentRound.selectedOracles[i];\r\n            uint256 points = oracleRoundInfo[oracleAddr].points;\r\n            uint256 distAmount = ((points).mul(availableRewardFees)).div(currentRound.totalPoints);\r\n            (,,address owneraddr) = oracleManager.getOracleRegistrationInfo(oracleAddr);\r\n\r\n            require(token.transfer(owneraddr, distAmount), \"Token transfer failed\");\r\n            distSum = distSum.add(distAmount);\r\n            emit OracleRewardTransfer(currentRound.number, oracleAddr, owneraddr, distAmount);\r\n        }\r\n    }\r\n\r\n    /// @notice Select top-stakers for the current round. Only suscribed oracles to this contract are\r\n    /// considered for selection.\r\n    function selectOraclesForRound() private {\r\n\r\n        delete currentRound.selectedOracles;\r\n        for (address addr = oracleManager.getRegisteredOracleHead();\r\n            addr != address(0) && currentRound.selectedOracles.length < maxOraclesPerRound;\r\n            addr = oracleManager.getRegisteredOracleNext(addr))\r\n        {\r\n            // Select suscribed oracles here.\r\n            if (suscribedOracles[addr]) {\r\n                currentRound.selectedOracles.push(addr);\r\n                oracleRoundInfo[addr].setSelectedInRound(currentRound.number);\r\n            }\r\n        }\r\n    }\r\n\r\n    /// @notice Recover signer address from v,r,s signature components and hash\r\n    ///\r\n    function recoverSigner(uint8 v, bytes32 r, bytes32 s, bytes32 hash) internal pure returns (address) {\r\n        if (r.length != 32 || s.length != 32) {\r\n            return (address(0));\r\n        }\r\n        uint8 v0 = v;\r\n\r\n        // Version of signature should be 27 or 28, but 0 and 1 are also possible versions\r\n        if (v0 < 27) {\r\n            v0 += 27;\r\n        }\r\n\r\n        // If the version is correct return the signer address\r\n        if (v0 != 27 && v0 != 28) {\r\n            return (address(0));\r\n        } else {\r\n            return ecrecover(hash, v0, r, s);\r\n        }\r\n    }\r\n}\r\n",
  "sourcePath": "/home/moc/no_tocar_de_adji/contracts/contracts/CoinPairPrice.sol",
  "compiler": {
    "name": "solc",
    "version": "0.6.0+commit.26b70077.Emscripten.clang"
  },
  "schemaVersion": "3.0.23",
  "updatedAt": "2020-04-04T02:50:47.458Z",
  "devdoc": {
    "methods": {
      "addToWhitelist(address)": {
        "details": "Add to the list of contracts that can get the price",
        "params": {
          "_whitelisted": "- the override coinPair"
        }
      },
      "canRemoveOracle(address)": {
        "params": {
          "oracleAddr": "the oracle address to lookup."
        }
      },
      "changeIGovernor(address)": {
        "params": {
          "newIGovernor": "New governor address"
        }
      },
      "getWhiteListAtIndex(uint256)": {
        "params": {
          "i": "index to query."
        }
      },
      "initialize(address)": {
        "details": "This initialize replaces the constructor but it is not called automatically. It is necessary because of the upgradeability of the contracts",
        "params": {
          "_governor": "Governor address"
        }
      },
      "initialize(address,address[],bytes32,address,uint256,uint256,uint256,uint8,address)": {
        "params": {
          "_bootstrapPrice": "A price to be set as a bootstraping value for this block",
          "_maxOraclesPerRound": "The maximum count of oracles selected to participate each round",
          "_numIdleRounds": "The number of rounds an oracle must be idle (not participating) before a removal",
          "_oracleManager": "The contract of the oracle manager.",
          "_roundLockPeriodInBlocks": "The minimum time span for each round before a new one can be started, in blocks.",
          "_tokenAddress": "The address of the MOC token to use."
        }
      },
      "isSuscribed(address)": {
        "details": "This is designed to be called from OracleManager.",
        "params": {
          "oracleAddr": "the oracle address to lookup."
        }
      },
      "isWhitelisted(address)": {
        "details": "Check if an account is whitelisted",
        "returns": {
          "_0": "Bool"
        }
      },
      "publishPrice(uint256,bytes32,uint256,address,uint256,uint8[],bytes32[],bytes32[])": {
        "params": {
          "blockNumber": "The blocknumber acting as nonce to prevent replay attacks.",
          "coinpair": "The coin pair to report (must match this contract)",
          "price": "Price to report.",
          "sig_r": "The array of R-component of Oracle signatures.",
          "sig_s": "The array of S-component of Oracle signatures.",
          "sig_v": "The array of V-component of Oracle signatures.",
          "version": "Version number of message format (3)",
          "votedOracle": "The address of the oracle voted as a publisher by the network."
        }
      },
      "removeFromWhitelist(address)": {
        "details": "Remove from the list of contracts that can get the price",
        "params": {
          "_whitelisted": "- the override coinPair"
        }
      },
      "setCoinPair(bytes32)": {
        "details": "Sets the coinpair by gobernanza",
        "params": {
          "_coinPair": "- the override coinPair"
        }
      },
      "setCurrentPrice(uint256)": {
        "details": "Sets the current price by gobernanza",
        "params": {
          "_currentPrice": "- the override price"
        }
      },
      "setMaxOraclesPerRound(uint256)": {
        "details": "Sets the maxOraclesPerRound by gobernanza",
        "params": {
          "_maxOraclesPerRound": "- the override maxOraclesPerRound"
        }
      },
      "setNumIdleRounds(uint8)": {
        "details": "Sets the numIdleRounds by gobernanza",
        "params": {
          "_numIdleRounds": "- the override numIdleRounds"
        }
      },
      "setRoundLockPeriodInBlocks(uint256)": {
        "details": "Sets the roundLockPeriodInBlocks by gobernanza",
        "params": {
          "_roundLockPeriodInBlocks": "- the override roundLockPeriodInBlockss"
        }
      },
      "suscribe(address)": {
        "details": "This is designed to be called from OracleManager.",
        "params": {
          "oracleAddr": "the oracle address to suscribe to this coin pair."
        }
      },
      "unsuscribe(address)": {
        "details": "This is designed to be called from OracleManager.",
        "params": {
          "oracleAddr": "the oracle address to suscribe to this coin pair."
        }
      }
    },
    "title": "This contract provides an interface for feeding prices from oracles, and        get the current price. One contract must be instanced per supported coin pair,        and registered through OracleManager global contract."
  },
  "userdoc": {
    "methods": {
      "canRemoveOracle(address)": {
        "notice": "Returns true if an oracle satisfies conditions to be removed from system."
      },
      "changeIGovernor(address)": {
        "notice": "Change the contract's governor. Should be called through the old governance system"
      },
      "getAvailableRewardFees()": {
        "notice": "Return the available reward fees \r"
      },
      "getCoinPair()": {
        "notice": "Return the coin pair for this contract"
      },
      "getLastPublicationBlock()": {
        "notice": "Get the last publication block"
      },
      "getOracleRoundInfo(address)": {
        "notice": "Return round information for specific oracle"
      },
      "getPrice()": {
        "notice": "Return the current price, compatible with old MOC Oracle"
      },
      "getRoundInfo()": {
        "notice": "Return current round information"
      },
      "getWhiteListAtIndex(uint256)": {
        "notice": "Returns the address at index."
      },
      "getWhiteListLen()": {
        "notice": "Returns the count of whitelisted addresses."
      },
      "initialize(address)": {
        "notice": "Initialize the contract with the basic settings"
      },
      "initialize(address,address[],bytes32,address,uint256,uint256,uint256,uint8,address)": {
        "notice": "Construct a new contract"
      },
      "isSuscribed(address)": {
        "notice": "Returns true if an oracle is suscribed to this contract' coin pair"
      },
      "peek()": {
        "notice": "Return the current price, compatible with old MOC Oracle"
      },
      "publishPrice(uint256,bytes32,uint256,address,uint256,uint8[],bytes32[],bytes32[])": {
        "notice": "Publish a price."
      },
      "suscribe(address)": {
        "notice": "Suscribe an oracle to this coin pair , allowing it to be selected in rounds."
      },
      "switchRound()": {
        "notice": "Switch contract context to a new round. With the objective of being a decentralized solution, this can be called by *anyone* if current round lock period is expired."
      },
      "unsuscribe(address)": {
        "notice": "Unsuscribe an oracle from this coin pair , disallowing it to be selected in rounds."
      }
    }
  }
}