{
    "contractName": "CalculatedPriceProvider",
    "abi": [
        {
            "inputs": [
                {
                    "internalType": "contract IGovernor",
                    "name": "newIGovernor",
                    "type": "address"
                }
            ],
            "name": "changeIGovernor",
            "outputs": [],
            "stateMutability": "nonpayable",
            "type": "function"
        },
        {
            "inputs": [
                {
                    "internalType": "bytes",
                    "name": "data",
                    "type": "bytes"
                }
            ],
            "name": "delegateCallToChanger",
            "outputs": [],
            "stateMutability": "nonpayable",
            "type": "function"
        },
        {
            "inputs": [],
            "name": "governor",
            "outputs": [
                {
                    "internalType": "contract IGovernor",
                    "name": "",
                    "type": "address"
                }
            ],
            "stateMutability": "view",
            "type": "function"
        },
        {
            "inputs": [
                {
                    "internalType": "contract IGovernor",
                    "name": "_governor",
                    "type": "address"
                },
                {
                    "internalType": "address[]",
                    "name": "_wlist",
                    "type": "address[]"
                },
                {
                    "internalType": "uint256",
                    "name": "_multiplicator",
                    "type": "uint256"
                },
                {
                    "internalType": "contract IPriceProvider[]",
                    "name": "_multiplyBy",
                    "type": "address[]"
                },
                {
                    "internalType": "uint256",
                    "name": "_divisor",
                    "type": "uint256"
                },
                {
                    "internalType": "contract IPriceProvider[]",
                    "name": "_divideBy",
                    "type": "address[]"
                }
            ],
            "name": "initialize",
            "outputs": [],
            "stateMutability": "nonpayable",
            "type": "function"
        },
        {
            "inputs": [
                {
                    "internalType": "address",
                    "name": "_whitelisted",
                    "type": "address"
                }
            ],
            "name": "addToWhitelist",
            "outputs": [],
            "stateMutability": "nonpayable",
            "type": "function"
        },
        {
            "inputs": [
                {
                    "internalType": "address",
                    "name": "_whitelisted",
                    "type": "address"
                }
            ],
            "name": "removeFromWhitelist",
            "outputs": [],
            "stateMutability": "nonpayable",
            "type": "function"
        },
        {
            "inputs": [],
            "name": "getWhiteListLen",
            "outputs": [
                {
                    "internalType": "uint256",
                    "name": "",
                    "type": "uint256"
                }
            ],
            "stateMutability": "view",
            "type": "function"
        },
        {
            "inputs": [
                {
                    "internalType": "uint256",
                    "name": "_idx",
                    "type": "uint256"
                }
            ],
            "name": "getWhiteListAtIndex",
            "outputs": [
                {
                    "internalType": "address",
                    "name": "",
                    "type": "address"
                }
            ],
            "stateMutability": "view",
            "type": "function"
        },
        {
            "inputs": [],
            "name": "getPriceProviderType",
            "outputs": [
                {
                    "internalType": "enum IPriceProviderRegisterEntry.IPriceProviderType",
                    "name": "",
                    "type": "uint8"
                }
            ],
            "stateMutability": "pure",
            "type": "function"
        },
        {
            "inputs": [],
            "name": "peek",
            "outputs": [
                {
                    "internalType": "bytes32",
                    "name": "",
                    "type": "bytes32"
                },
                {
                    "internalType": "bool",
                    "name": "",
                    "type": "bool"
                }
            ],
            "stateMutability": "view",
            "type": "function"
        }
    ],
    "bytecode": "0x608060405234801561001057600080fd5b50611db9806100206000396000f3fe608060405234801561001057600080fd5b506004361061009e5760003560e01c8063b6e0833011610066578063b6e08330146102f1578063cb0706f914610335578063dc8990e114610353578063e43252d7146103cc578063f375b47f146104105761009e565b80630c340a24146100a35780631a3d00c0146100d757806359e02dd71461012f5780638ab1d68114610156578063a1e068f91461019a575b600080fd5b6100ab610439565b604051808273ffffffffffffffffffffffffffffffffffffffff16815260200191505060405180910390f35b610103600480360360208110156100ed57600080fd5b810190808035906020019092919050505061045f565b604051808273ffffffffffffffffffffffffffffffffffffffff16815260200191505060405180910390f35b61013761047c565b6040518083815260200182151581526020019250505060405180910390f35b6101986004803603602081101561016c57600080fd5b81019080803573ffffffffffffffffffffffffffffffffffffffff169060200190929190505050610555565b005b6102ef600480360360c08110156101b057600080fd5b81019080803573ffffffffffffffffffffffffffffffffffffffff169060200190929190803590602001906401000000008111156101ed57600080fd5b8201836020820111156101ff57600080fd5b8035906020019184602083028401116401000000008311171561022157600080fd5b9091929391929390803590602001909291908035906020019064010000000081111561024c57600080fd5b82018360208201111561025e57600080fd5b8035906020019184602083028401116401000000008311171561028057600080fd5b909192939192939080359060200190929190803590602001906401000000008111156102ab57600080fd5b8201836020820111156102bd57600080fd5b803590602001918460208302840111640100000000831117156102df57600080fd5b909192939192939050505061070d565b005b6103336004803603602081101561030757600080fd5b81019080803573ffffffffffffffffffffffffffffffffffffffff169060200190929190505050610911565b005b61033d610af6565b6040518082815260200191505060405180910390f35b6103ca6004803603602081101561036957600080fd5b810190808035906020019064010000000081111561038657600080fd5b82018360208201111561039857600080fd5b803590602001918460018302840111640100000000831117156103ba57600080fd5b9091929391929390505050610b07565b005b61040e600480360360208110156103e257600080fd5b81019080803573ffffffffffffffffffffffffffffffffffffffff169060200190929190505050610e95565b005b61041861104d565b6040518082600281111561042857fe5b815260200191505060405180910390f35b603360009054906101000a900473ffffffffffffffffffffffffffffffffffffffff1681565b600061047582606661105690919063ffffffff16565b9050919050565b6000806066600173ffffffffffffffffffffffffffffffffffffffff163373ffffffffffffffffffffffffffffffffffffffff1614806104c257506104c18133611076565b5b610534576040517f08c379a000000000000000000000000000000000000000000000000000000000815260040180806020018281038252601a8152602001807f41646472657373206973206e6f742077686974656c697374656400000000000081525060200191505060405180910390fd5b6000806105416068611138565b915091508160001b81945094505050509091565b603360009054906101000a900473ffffffffffffffffffffffffffffffffffffffff1673ffffffffffffffffffffffffffffffffffffffff1663d994d6d5336040518263ffffffff1660e01b8152600401808273ffffffffffffffffffffffffffffffffffffffff16815260200191505060206040518083038186803b1580156105de57600080fd5b505afa1580156105f2573d6000803e3d6000fd5b505050506040513d602081101561060857600080fd5b81019080805190602001909291905050506040518060400160405280601681526020017f6e6f745f617574686f72697a65645f6368616e67657200000000000000000000815250906106f5576040517f08c379a00000000000000000000000000000000000000000000000000000000081526004018080602001828103825283818151815260200191508051906020019080838360005b838110156106ba57808201518184015260208101905061069f565b50505050905090810190601f1680156106e75780820380516001836020036101000a031916815260200191505b509250505060405180910390fd5b5061070a8160666112d790919063ffffffff16565b50565b600060019054906101000a900460ff168061072c575061072b61140c565b5b80610742575060008054906101000a900460ff16155b610797576040517f08c379a000000000000000000000000000000000000000000000000000000000815260040180806020018281038252602e815260200180611d56602e913960400191505060405180910390fd5b60008060019054906101000a900460ff1615905080156107e7576001600060016101000a81548160ff02191690831515021790555060016000806101000a81548160ff0219169083151502179055505b6107f08a611423565b61088c87878780806020026020016040519081016040528093929190818152602001838360200280828437600081840152601f19601f8201169050808301925050505050505086868680806020026020016040519081016040528093929190818152602001838360200280828437600081840152601f19601f82011690508083019250505050505050606861146790949392919063ffffffff16565b60005b898990508110156108e3576108d68a8a838181106108a957fe5b9050602002013573ffffffffffffffffffffffffffffffffffffffff1660666114b290919063ffffffff16565b808060010191505061088f565b5080156109055760008060016101000a81548160ff0219169083151502179055505b50505050505050505050565b603360009054906101000a900473ffffffffffffffffffffffffffffffffffffffff1673ffffffffffffffffffffffffffffffffffffffff1663d994d6d5336040518263ffffffff1660e01b8152600401808273ffffffffffffffffffffffffffffffffffffffff16815260200191505060206040518083038186803b15801561099a57600080fd5b505afa1580156109ae573d6000803e3d6000fd5b505050506040513d60208110156109c457600080fd5b81019080805190602001909291905050506040518060400160405280601681526020017f6e6f745f617574686f72697a65645f6368616e6765720000000000000000000081525090610ab1576040517f08c379a00000000000000000000000000000000000000000000000000000000081526004018080602001828103825283818151815260200191508051906020019080838360005b83811015610a76578082015181840152602081019050610a5b565b50505050905090810190601f168015610aa35780820380516001836020036101000a031916815260200191505b509250505060405180910390fd5b5080603360006101000a81548173ffffffffffffffffffffffffffffffffffffffff021916908373ffffffffffffffffffffffffffffffffffffffff16021790555050565b6000610b0260666115e7565b905090565b603360009054906101000a900473ffffffffffffffffffffffffffffffffffffffff1673ffffffffffffffffffffffffffffffffffffffff1663d994d6d5336040518263ffffffff1660e01b8152600401808273ffffffffffffffffffffffffffffffffffffffff16815260200191505060206040518083038186803b158015610b9057600080fd5b505afa158015610ba4573d6000803e3d6000fd5b505050506040513d6020811015610bba57600080fd5b81019080805190602001909291905050506040518060400160405280601681526020017f6e6f745f617574686f72697a65645f6368616e6765720000000000000000000081525090610ca7576040517f08c379a00000000000000000000000000000000000000000000000000000000081526004018080602001828103825283818151815260200191508051906020019080838360005b83811015610c6c578082015181840152602081019050610c51565b50505050905090810190601f168015610c995780820380516001836020036101000a031916815260200191505b509250505060405180910390fd5b50600033905060008173ffffffffffffffffffffffffffffffffffffffff16848460405160240180806020018281038252848482818152602001925080828437600081840152601f19601f82011690508083019250505093505050506040516020818303038152906040527fa16227ca000000000000000000000000000000000000000000000000000000007bffffffffffffffffffffffffffffffffffffffffffffffffffffffff19166020820180517bffffffffffffffffffffffffffffffffffffffffffffffffffffffff83818316178352505050506040518082805190602001908083835b60208310610db35780518252602082019150602081019050602083039250610d90565b6001836020036101000a038019825116818451168082178552505050505050905001915050600060405180830381855af49150503d8060008114610e13576040519150601f19603f3d011682016040523d82523d6000602084013e610e18565b606091505b5050905080610e8f576040517f08c379a00000000000000000000000000000000000000000000000000000000081526004018080602001828103825260168152602001807f4572726f7220696e2064656c65676174652063616c6c0000000000000000000081525060200191505060405180910390fd5b50505050565b603360009054906101000a900473ffffffffffffffffffffffffffffffffffffffff1673ffffffffffffffffffffffffffffffffffffffff1663d994d6d5336040518263ffffffff1660e01b8152600401808273ffffffffffffffffffffffffffffffffffffffff16815260200191505060206040518083038186803b158015610f1e57600080fd5b505afa158015610f32573d6000803e3d6000fd5b505050506040513d6020811015610f4857600080fd5b81019080805190602001909291905050506040518060400160405280601681526020017f6e6f745f617574686f72697a65645f6368616e6765720000000000000000000081525090611035576040517f08c379a00000000000000000000000000000000000000000000000000000000081526004018080602001828103825283818151815260200191508051906020019080838360005b83811015610ffa578082015181840152602081019050610fdf565b50505050905090810190601f1680156110275780820380516001836020036101000a031916815260200191505b509250505060405180910390fd5b5061104a8160666114b290919063ffffffff16565b50565b60006002905090565b600061106e82846000016115fc90919063ffffffff16565b905092915050565b60008073ffffffffffffffffffffffffffffffffffffffff168273ffffffffffffffffffffffffffffffffffffffff16141561111a576040517f08c379a00000000000000000000000000000000000000000000000000000000081526004018080602001828103825260178152602001807f4163636f756e74206d757374206e6f742062652030783000000000000000000081525060200191505060405180910390fd5b61113082846000016116bc90919063ffffffff16565b905092915050565b60008060006001905060006111d98560020154866000018054806020026020016040519081016040528092919081815260200182805480156111cf57602002820191906000526020600020905b8160009054906101000a900473ffffffffffffffffffffffffffffffffffffffff1673ffffffffffffffffffffffffffffffffffffffff1681526020019060010190808311611185575b505050505061170b565b8093508192505050816111f4576000809350935050506112d2565b600061128c86600301548760010180548060200260200160405190810160405280929190818152602001828054801561128257602002820191906000526020600020905b8160009054906101000a900473ffffffffffffffffffffffffffffffffffffffff1673ffffffffffffffffffffffffffffffffffffffff1681526020019060010190808311611238575b505050505061170b565b80945081925050508215806112a15750600081145b156112b557600080945094505050506112d2565b6112c8818361180d90919063ffffffff16565b6001945094505050505b915091565b600073ffffffffffffffffffffffffffffffffffffffff168173ffffffffffffffffffffffffffffffffffffffff16141561137a576040517f08c379a00000000000000000000000000000000000000000000000000000000081526004018080602001828103825260178152602001807f4163636f756e74206d757374206e6f742062652030783000000000000000000081525060200191505060405180910390fd5b6000611392828460000161185790919063ffffffff16565b905080611407576040517f08c379a000000000000000000000000000000000000000000000000000000000815260040180806020018281038252600f8152602001807f4d697373696e67206163636f756e74000000000000000000000000000000000081525060200191505060405180910390fd5b505050565b6000803090506000813b9050600081149250505090565b80603360006101000a81548173ffffffffffffffffffffffffffffffffffffffff021916908373ffffffffffffffffffffffffffffffffffffffff16021790555050565b83856002018190555082856000019080519060200190611488929190611c6f565b50818560030181905550808560010190805190602001906114aa929190611c6f565b505050505050565b600073ffffffffffffffffffffffffffffffffffffffff168173ffffffffffffffffffffffffffffffffffffffff161415611555576040517f08c379a00000000000000000000000000000000000000000000000000000000081526004018080602001828103825260178152602001807f4163636f756e74206d757374206e6f742062652030783000000000000000000081525060200191505060405180910390fd5b600061156d8284600001611a3c90919063ffffffff16565b9050806115e2576040517f08c379a000000000000000000000000000000000000000000000000000000000815260040180806020018281038252601b8152602001807f4163636f756e7420616c72656164792077686974656c6973746564000000000081525060200191505060405180910390fd5b505050565b60006115f582600001611b12565b9050919050565b60008183600001805490501161167a576040517f08c379a00000000000000000000000000000000000000000000000000000000081526004018080602001828103825260138152602001807f696e646578206f7574206f6620626f756e64730000000000000000000000000081525060200191505060405180910390fd5b82600001828154811061168957fe5b9060005260206000200160009054906101000a900473ffffffffffffffffffffffffffffffffffffffff16905092915050565b6000808360010160008473ffffffffffffffffffffffffffffffffffffffff1673ffffffffffffffffffffffffffffffffffffffff168152602001908152602001600020541415905092915050565b60008060008060005b85518110156117fb5785818151811061172957fe5b602002602001015173ffffffffffffffffffffffffffffffffffffffff166359e02dd76040518163ffffffff1660e01b8152600401604080518083038186803b15801561177557600080fd5b505afa158015611789573d6000803e3d6000fd5b505050506040513d604081101561179f57600080fd5b8101908080519060200190929190805190602001909291905050508093508194505050816117d65760008094509450505050611806565b6117ec8360001c88611b2390919063ffffffff16565b96508080600101915050611714565b508560019350935050505b9250929050565b600061184f83836040518060400160405280601a81526020017f536166654d6174683a206469766973696f6e206279207a65726f000000000000815250611ba9565b905092915050565b6000808360010160008473ffffffffffffffffffffffffffffffffffffffff1673ffffffffffffffffffffffffffffffffffffffff16815260200190815260200160002054905060008114611a3057600060018203905060006001866000018054905003905060008660000182815481106118ce57fe5b9060005260206000200160009054906101000a900473ffffffffffffffffffffffffffffffffffffffff1690508087600001848154811061190b57fe5b9060005260206000200160006101000a81548173ffffffffffffffffffffffffffffffffffffffff021916908373ffffffffffffffffffffffffffffffffffffffff160217905550600183018760010160008373ffffffffffffffffffffffffffffffffffffffff1673ffffffffffffffffffffffffffffffffffffffff16815260200190815260200160002081905550866000018054806119a957fe5b6001900381819060005260206000200160006101000a81549073ffffffffffffffffffffffffffffffffffffffff021916905590558660010160008773ffffffffffffffffffffffffffffffffffffffff1673ffffffffffffffffffffffffffffffffffffffff168152602001908152602001600020600090556001945050505050611a36565b60009150505b92915050565b6000611a4883836116bc565b611b075782600001829080600181540180825580915050600190039060005260206000200160009091909190916101000a81548173ffffffffffffffffffffffffffffffffffffffff021916908373ffffffffffffffffffffffffffffffffffffffff16021790555082600001805490508360010160008473ffffffffffffffffffffffffffffffffffffffff1673ffffffffffffffffffffffffffffffffffffffff1681526020019081526020016000208190555060019050611b0c565b600090505b92915050565b600081600001805490509050919050565b600080831415611b365760009050611ba3565b6000828402905082848281611b4757fe5b0414611b9e576040517f08c379a0000000000000000000000000000000000000000000000000000000008152600401808060200182810382526021815260200180611d356021913960400191505060405180910390fd5b809150505b92915050565b60008083118290611c55576040517f08c379a00000000000000000000000000000000000000000000000000000000081526004018080602001828103825283818151815260200191508051906020019080838360005b83811015611c1a578082015181840152602081019050611bff565b50505050905090810190601f168015611c475780820380516001836020036101000a031916815260200191505b509250505060405180910390fd5b506000838581611c6157fe5b049050809150509392505050565b828054828255906000526020600020908101928215611ce8579160200282015b82811115611ce75782518260006101000a81548173ffffffffffffffffffffffffffffffffffffffff021916908373ffffffffffffffffffffffffffffffffffffffff16021790555091602001919060010190611c8f565b5b509050611cf59190611cf9565b5090565b5b80821115611d3057600081816101000a81549073ffffffffffffffffffffffffffffffffffffffff021916905550600101611cfa565b509056fe536166654d6174683a206d756c7469706c69636174696f6e206f766572666c6f77436f6e747261637420696e7374616e63652068617320616c7265616479206265656e20696e697469616c697a6564a2646970667358221220328a2d592f1428ac1ca2819902e9b60031d226653e55474c0ad200715d12379864736f6c634300060c0033",
    "immutableReferences": {},
    "source": "// SPDX-License-Identifier: UNLICENSED\npragma solidity 0.6.12;\n\nimport {SafeMath} from \"@openzeppelin/contracts-ethereum-package/contracts/math/SafeMath.sol\";\nimport {IGovernor} from \"@moc/shared/contracts/moc-governance/Governance/IGovernor.sol\";\nimport {IPriceProvider} from \"@moc/shared/contracts/IPriceProvider.sol\";\nimport {IPriceProviderRegisterEntry} from \"@moc/shared/contracts/IPriceProviderRegisterEntry.sol\";\nimport {CalculatedPriceProviderStorage} from \"./CalculatedPriceProviderStorage.sol\";\n\n/// @title This contract gets the price from some IPriceProviders and do the math to calculate\n/// a deduced price, for example RIFBTC and BTCUSD gives the price of RIFUSD\ncontract CalculatedPriceProvider is\n    CalculatedPriceProviderStorage,\n    IPriceProvider,\n    IPriceProviderRegisterEntry\n{\n    using SafeMath for uint256;\n\n    /**\n    Contract creation.\n\n    @param _governor The address of the contract which governs this one\n    @param _wlist Initial whitelist addresses\n    @param _multiplicator base value used to scale the result by multiplying it.\n    @param _multiplyBy list of IPriceProvider to query the price and then multiply the result\n    @param _divisor base value used to scale the result by dividing it.\n    @param _divideBy list of IPriceProvider to query the and then divide the result\n    */\n    function initialize(\n        IGovernor _governor,\n        address[] calldata _wlist,\n        uint256 _multiplicator,\n        IPriceProvider[] calldata _multiplyBy,\n        uint256 _divisor,\n        IPriceProvider[] calldata _divideBy\n    ) external initializer {\n        _initialize(_governor);\n        calculatedPriceProviderData._initialize(_multiplicator, _multiplyBy, _divisor, _divideBy);\n        for (uint256 i = 0; i < _wlist.length; i++) {\n            iterableWhitelistData._addToWhitelist(_wlist[i]);\n        }\n    }\n\n    /**\n     * @dev Add to the list of contracts that can stake in this contract\n     * @param  _whitelisted - the override coinPair\n     */\n    function addToWhitelist(address _whitelisted) external onlyAuthorizedChanger() {\n        iterableWhitelistData._addToWhitelist(_whitelisted);\n    }\n\n    /**\n     * @dev Remove from the list of contracts that can stake in this contract\n     * @param _whitelisted - the override coinPair\n     */\n    function removeFromWhitelist(address _whitelisted) external onlyAuthorizedChanger() {\n        iterableWhitelistData._removeFromWhitelist(_whitelisted);\n    }\n\n    /// @notice Returns the count of whitelisted addresses.\n    function getWhiteListLen() external view returns (uint256) {\n        return iterableWhitelistData._getWhiteListLen();\n    }\n\n    /// @notice Returns the address at index.\n    /// @param _idx index to query.\n    function getWhiteListAtIndex(uint256 _idx) external view returns (address) {\n        return iterableWhitelistData._getWhiteListAtIndex(_idx);\n    }\n\n    /// @notice return the type of provider\n    function getPriceProviderType() external override pure returns (IPriceProviderType) {\n        return IPriceProviderType.Calculated;\n    }\n\n    /**\n    Get the calculated price\n\n    */\n    function peek()\n        external\n        override\n        view\n        whitelistedOrExternal(iterableWhitelistData)\n        returns (bytes32, bool)\n    {\n        (uint256 price, bool valid) = calculatedPriceProviderData._peek();\n        return (bytes32(price), valid);\n    }\n}\n",
    "sourcePath": "/home/adji/Desktop/work/coinfabrik/moc-oraculos/contracts/CalculatedPriceProvider.sol",
    "compiler": {
        "name": "solc",
        "version": "0.6.12+commit.27d51765.Emscripten.clang"
    },
    "schemaVersion": "3.2.4",
    "updatedAt": "2020-09-15T18:21:40.613Z",
    "devdoc": {
        "kind": "dev",
        "methods": {
            "addToWhitelist(address)": {
                "details": "Add to the list of contracts that can stake in this contract",
                "params": {
                    "_whitelisted": "- the override coinPair"
                }
            },
            "changeIGovernor(address)": {
                "params": {
                    "newIGovernor": "New governor address"
                }
            },
            "delegateCallToChanger(bytes)": {
                "params": {
                    "data": "the serialized function arguments"
                }
            },
            "getWhiteListAtIndex(uint256)": {
                "params": {
                    "_idx": "index to query."
                }
            },
            "initialize(address,address[],uint256,address[],uint256,address[])": {
                "params": {
                    "_divideBy": "list of IPriceProvider to query the and then divide the result",
                    "_divisor": "base value used to scale the result by dividing it.",
                    "_governor": "The address of the contract which governs this one",
                    "_multiplicator": "base value used to scale the result by multiplying it.",
                    "_multiplyBy": "list of IPriceProvider to query the price and then multiply the result",
                    "_wlist": "Initial whitelist addresses"
                }
            },
            "removeFromWhitelist(address)": {
                "details": "Remove from the list of contracts that can stake in this contract",
                "params": {
                    "_whitelisted": "- the override coinPair"
                }
            }
        },
        "title": "This contract gets the price from some IPriceProviders and do the math to calculate a deduced price, for example RIFBTC and BTCUSD gives the price of RIFUSD",
        "version": 1
    },
    "userdoc": {
        "kind": "user",
        "methods": {
            "changeIGovernor(address)": {
                "notice": "Change the contract's governor. Should be called through the old governance system"
            },
            "delegateCallToChanger(bytes)": {
                "notice": "This method is used by a change contract to access the storage freely even without a setter."
            },
            "getPriceProviderType()": {
                "notice": "return the type of provider"
            },
            "getWhiteListAtIndex(uint256)": {
                "notice": "Returns the address at index."
            },
            "getWhiteListLen()": {
                "notice": "Returns the count of whitelisted addresses."
            },
            "governor()": {
                "notice": "The address of the contract which governs this one"
            },
            "initialize(address,address[],uint256,address[],uint256,address[])": {
                "notice": "Contract creation."
            },
            "peek()": {
                "notice": "Get the calculated price"
            }
        },
        "version": 1
    }
}