{
    "contractName": "CalculatedPriceProvider",
    "abi": [
        {
            "inputs": [
                {
                    "internalType": "contract IGovernor",
                    "name": "newIGovernor",
                    "type": "address"
                }
            ],
            "name": "changeIGovernor",
            "outputs": [],
            "stateMutability": "nonpayable",
            "type": "function"
        },
        {
            "inputs": [
                {
                    "internalType": "bytes",
                    "name": "data",
                    "type": "bytes"
                }
            ],
            "name": "delegateCallToChanger",
            "outputs": [],
            "stateMutability": "nonpayable",
            "type": "function"
        },
        {
            "inputs": [],
            "name": "governor",
            "outputs": [
                {
                    "internalType": "contract IGovernor",
                    "name": "",
                    "type": "address"
                }
            ],
            "stateMutability": "view",
            "type": "function"
        },
        {
            "inputs": [
                {
                    "internalType": "contract IGovernor",
                    "name": "_governor",
                    "type": "address"
                },
                {
                    "internalType": "address[]",
                    "name": "_wlist",
                    "type": "address[]"
                },
                {
                    "internalType": "uint256",
                    "name": "_multiplicator",
                    "type": "uint256"
                },
                {
                    "internalType": "contract IPriceProvider[]",
                    "name": "_multiplyBy",
                    "type": "address[]"
                },
                {
                    "internalType": "uint256",
                    "name": "_divisor",
                    "type": "uint256"
                },
                {
                    "internalType": "contract IPriceProvider[]",
                    "name": "_divideBy",
                    "type": "address[]"
                }
            ],
            "name": "initialize",
            "outputs": [],
            "stateMutability": "nonpayable",
            "type": "function"
        },
        {
            "inputs": [
                {
                    "internalType": "address",
                    "name": "_whitelisted",
                    "type": "address"
                }
            ],
            "name": "addToWhitelist",
            "outputs": [],
            "stateMutability": "nonpayable",
            "type": "function"
        },
        {
            "inputs": [
                {
                    "internalType": "address",
                    "name": "_whitelisted",
                    "type": "address"
                }
            ],
            "name": "removeFromWhitelist",
            "outputs": [],
            "stateMutability": "nonpayable",
            "type": "function"
        },
        {
            "inputs": [],
            "name": "getWhiteListLen",
            "outputs": [
                {
                    "internalType": "uint256",
                    "name": "",
                    "type": "uint256"
                }
            ],
            "stateMutability": "view",
            "type": "function"
        },
        {
            "inputs": [
                {
                    "internalType": "uint256",
                    "name": "_idx",
                    "type": "uint256"
                }
            ],
            "name": "getWhiteListAtIndex",
            "outputs": [
                {
                    "internalType": "address",
                    "name": "",
                    "type": "address"
                }
            ],
            "stateMutability": "view",
            "type": "function"
        },
        {
            "inputs": [],
            "name": "getPriceProviderType",
            "outputs": [
                {
                    "internalType": "enum IPriceProviderRegisterEntry.IPriceProviderType",
                    "name": "",
                    "type": "uint8"
                }
            ],
            "stateMutability": "pure",
            "type": "function"
        },
        {
            "inputs": [],
            "name": "peek",
            "outputs": [
                {
                    "internalType": "bytes32",
                    "name": "",
                    "type": "bytes32"
                },
                {
                    "internalType": "bool",
                    "name": "",
                    "type": "bool"
                }
            ],
            "stateMutability": "view",
            "type": "function"
        }
    ],
    "bytecode": "0x608060405234801561001057600080fd5b50611362806100206000396000f3fe608060405234801561001057600080fd5b506004361061009e5760003560e01c8063b6e0833011610066578063b6e0833014610253578063cb0706f914610279578063dc8990e114610293578063e43252d714610301578063f375b47f146103275761009e565b80630c340a24146100a35780631a3d00c0146100c757806359e02dd7146100e45780638ab1d68114610105578063a1e068f91461012d575b600080fd5b6100ab610350565b604080516001600160a01b039092168252519081900360200190f35b6100ab600480360360208110156100dd57600080fd5b503561035f565b6100ec610372565b6040805192835290151560208301528051918290030190f35b61012b6004803603602081101561011b57600080fd5b50356001600160a01b03166103f5565b005b61012b600480360360c081101561014357600080fd5b6001600160a01b038235169190810190604081016020820135600160201b81111561016d57600080fd5b82018360208201111561017f57600080fd5b803590602001918460208302840111600160201b831117156101a057600080fd5b91939092823592604081019060200135600160201b8111156101c157600080fd5b8201836020820111156101d357600080fd5b803590602001918460208302840111600160201b831117156101f457600080fd5b91939092823592604081019060200135600160201b81111561021557600080fd5b82018360208201111561022757600080fd5b803590602001918460208302840111600160201b8311171561024857600080fd5b509092509050610531565b61012b6004803603602081101561026957600080fd5b50356001600160a01b03166106a0565b6102816107b3565b60408051918252519081900360200190f35b61012b600480360360208110156102a957600080fd5b810190602081018135600160201b8111156102c357600080fd5b8201836020820111156102d557600080fd5b803590602001918460018302840111600160201b831117156102f657600080fd5b5090925090506107c4565b61012b6004803603602081101561031757600080fd5b50356001600160a01b0316610a09565b61032f610b05565b6040518082600281111561033f57fe5b815260200191505060405180910390f35b6033546001600160a01b031681565b600061036c606683610b0a565b92915050565b6000806066336001148061038b575061038b8133610b1d565b6103dc576040805162461bcd60e51b815260206004820152601a60248201527f41646472657373206973206e6f742077686974656c6973746564000000000000604482015290519081900360640190fd5b6000806103e96068610b7e565b90955093505050509091565b6033546040805163d994d6d560e01b815233600482015290516001600160a01b039092169163d994d6d591602480820192602092909190829003018186803b15801561044057600080fd5b505afa158015610454573d6000803e3d6000fd5b505050506040513d602081101561046a57600080fd5b50516040805180820190915260168152753737ba2fb0baba3437b934bd32b22fb1b430b733b2b960511b6020820152906105225760405162461bcd60e51b81526004018080602001828103825283818151815260200191508051906020019080838360005b838110156104e75781810151838201526020016104cf565b50505050905090810190601f1680156105145780820380516001836020036101000a031916815260200191505b509250505060405180910390fd5b5061052e606682610cb0565b50565b600054610100900460ff168061054a575061054a610d5c565b80610558575060005460ff16155b6105935760405162461bcd60e51b815260040180806020018281038252602e8152602001806112ff602e913960400191505060405180910390fd5b600054610100900460ff161580156105be576000805460ff1961ff0019909116610100171660011790555b6105c78a610d62565b61063f8787878080602002602001604051908101604052809392919081815260200183836020028082843760009201919091525050604080516020808a0282810182019093528982528b945090925089918991829190850190849080828437600092019190915250606896959493925050610d849050565b60005b88811015610681576106798a8a8381811061065957fe5b905060200201356001600160a01b03166066610dc290919063ffffffff16565b600101610642565b508015610694576000805461ff00191690555b50505050505050505050565b6033546040805163d994d6d560e01b815233600482015290516001600160a01b039092169163d994d6d591602480820192602092909190829003018186803b1580156106eb57600080fd5b505afa1580156106ff573d6000803e3d6000fd5b505050506040513d602081101561071557600080fd5b50516040805180820190915260168152753737ba2fb0baba3437b934bd32b22fb1b430b733b2b960511b6020820152906107905760405162461bcd60e51b81526020600482018181528351602484015283519092839260449091019190850190808383600083156104e75781810151838201526020016104cf565b50603380546001600160a01b0319166001600160a01b0392909216919091179055565b60006107bf6066610e77565b905090565b6033546040805163d994d6d560e01b815233600482015290516001600160a01b039092169163d994d6d591602480820192602092909190829003018186803b15801561080f57600080fd5b505afa158015610823573d6000803e3d6000fd5b505050506040513d602081101561083957600080fd5b50516040805180820190915260168152753737ba2fb0baba3437b934bd32b22fb1b430b733b2b960511b6020820152906108b45760405162461bcd60e51b81526020600482018181528351602484015283519092839260449091019190850190808383600083156104e75781810151838201526020016104cf565b50604051602060248201908152604482018390523391600091839186918691819060640184848082843760008382015260408051601f909201601f1990811690940182810390940182529283526020810180516001600160e01b03166350b113e560e11b17815292518151919750955085945091925081905083835b6020831061094f5780518252601f199092019160209182019101610930565b6001836020036101000a038019825116818451168082178552505050505050905001915050600060405180830381855af49150503d80600081146109af576040519150601f19603f3d011682016040523d82523d6000602084013e6109b4565b606091505b5050905080610a03576040805162461bcd60e51b8152602060048201526016602482015275115c9c9bdc881a5b8819195b1959d85d194818d85b1b60521b604482015290519081900360640190fd5b50505050565b6033546040805163d994d6d560e01b815233600482015290516001600160a01b039092169163d994d6d591602480820192602092909190829003018186803b158015610a5457600080fd5b505afa158015610a68573d6000803e3d6000fd5b505050506040513d6020811015610a7e57600080fd5b50516040805180820190915260168152753737ba2fb0baba3437b934bd32b22fb1b430b733b2b960511b602082015290610af95760405162461bcd60e51b81526020600482018181528351602484015283519092839260449091019190850190808383600083156104e75781810151838201526020016104cf565b5061052e606682610dc2565b600290565b6000610b168383610e82565b9392505050565b60006001600160a01b038216610b74576040805162461bcd60e51b815260206004820152601760248201527604163636f756e74206d757374206e6f742062652030783604c1b604482015290519081900360640190fd5b610b168383610efb565b6000806000600190506000610bf3856002015486600001805480602002602001604051908101604052809291908181526020018280548015610be957602002820191906000526020600020905b81546001600160a01b03168152600190910190602001808311610bcb575b5050505050610f1c565b9250905081610c0a57600080935093505050610cab565b6000610c74866003015487600101805480602002602001604051908101604052809291908181526020018280548015610be9576020028201919060005260206000209081546001600160a01b03168152600190910190602001808311610bcb575050505050610f1c565b93509050821580610c83575080155b15610c975760008094509450505050610cab565b610ca18282610feb565b6001945094505050505b915091565b6001600160a01b038116610d05576040805162461bcd60e51b815260206004820152601760248201527604163636f756e74206d757374206e6f742062652030783604c1b604482015290519081900360640190fd5b6000610d11838361102d565b905080610d57576040805162461bcd60e51b815260206004820152600f60248201526e135a5cdcda5b99c81858d8dbdd5b9d608a1b604482015290519081900360640190fd5b505050565b303b1590565b603380546001600160a01b0319166001600160a01b0392909216919091179055565b600285018490558251610d9d9086906020860190611259565b50600385018290558051610dba9060018701906020840190611259565b505050505050565b6001600160a01b038116610e17576040805162461bcd60e51b815260206004820152601760248201527604163636f756e74206d757374206e6f742062652030783604c1b604482015290519081900360640190fd5b6000610e238383611134565b905080610d57576040805162461bcd60e51b815260206004820152601b60248201527f4163636f756e7420616c72656164792077686974656c69737465640000000000604482015290519081900360640190fd5b600061036c82611197565b81546000908210610ed0576040805162461bcd60e51b8152602060048201526013602482015272696e646578206f7574206f6620626f756e647360681b604482015290519081900360640190fd5b826000018281548110610edf57fe5b6000918252602090912001546001600160a01b03169392505050565b6001600160a01b031660009081526001919091016020526040902054151590565b60008060008060005b8551811015610fd957858181518110610f3a57fe5b60200260200101516001600160a01b03166359e02dd76040518163ffffffff1660e01b8152600401604080518083038186803b158015610f7957600080fd5b505afa158015610f8d573d6000803e3d6000fd5b505050506040513d6040811015610fa357600080fd5b508051602090910151909350915081610fc55760008094509450505050610fe4565b610fcf878461119b565b9650600101610f25565b508560019350935050505b9250929050565b6000610b1683836040518060400160405280601a81526020017f536166654d6174683a206469766973696f6e206279207a65726f0000000000008152506111f4565b6001600160a01b0381166000908152600183016020526040812054801561112a578354600019808301919081019060009087908390811061106a57fe5b60009182526020909120015487546001600160a01b039091169150819088908590811061109357fe5b600091825260208083209190910180546001600160a01b0319166001600160a01b039485161790559183168152600189810190925260409020908401905586548790806110dc57fe5b60008281526020808220830160001990810180546001600160a01b03191690559092019092556001600160a01b038816825260018981019091526040822091909155945061036c9350505050565b600091505061036c565b60006111408383610efb565b61118f57508154600180820184556000848152602080822090930180546001600160a01b0319166001600160a01b0386169081179091558554908252828601909352604090209190915561036c565b50600061036c565b5490565b6000826111aa5750600061036c565b828202828482816111b757fe5b0414610b165760405162461bcd60e51b81526004018080602001828103825260218152602001806112de6021913960400191505060405180910390fd5b600081836112435760405162461bcd60e51b81526020600482018181528351602484015283519092839260449091019190850190808383600083156104e75781810151838201526020016104cf565b50600083858161124f57fe5b0495945050505050565b8280548282559060005260206000209081019282156112ae579160200282015b828111156112ae57825182546001600160a01b0319166001600160a01b03909116178255602090920191600190910190611279565b506112ba9291506112be565b5090565b5b808211156112ba5780546001600160a01b03191681556001016112bf56fe536166654d6174683a206d756c7469706c69636174696f6e206f766572666c6f77436f6e747261637420696e7374616e63652068617320616c7265616479206265656e20696e697469616c697a6564a2646970667358221220da988501d4d8e27cbe9bc7779e715f6d15ec77abc7d8e887b483876f7ad0b36c64736f6c634300060c0033",
    "immutableReferences": {},
    "source": "// SPDX-License-Identifier: UNLICENSED\npragma solidity 0.6.12;\n\nimport {SafeMath} from \"@openzeppelin/contracts-ethereum-package/contracts/math/SafeMath.sol\";\nimport {IGovernor} from \"@moc/shared/contracts/moc-governance/Governance/IGovernor.sol\";\nimport {IPriceProvider} from \"@moc/shared/contracts/IPriceProvider.sol\";\nimport {IPriceProviderRegisterEntry} from \"@moc/shared/contracts/IPriceProviderRegisterEntry.sol\";\nimport {CalculatedPriceProviderStorage} from \"./CalculatedPriceProviderStorage.sol\";\n\n/// @title This contract gets the price from some IPriceProviders and do the math to calculate\n/// a deduced price, for example RIFBTC and BTCUSD gives the price of RIFUSD\ncontract CalculatedPriceProvider is\n    CalculatedPriceProviderStorage,\n    IPriceProvider,\n    IPriceProviderRegisterEntry\n{\n    using SafeMath for uint256;\n\n    /**\n    Contract creation.\n\n    @param _governor The address of the contract which governs this one\n    @param _wlist Initial whitelist addresses\n    @param _multiplicator base value used to scale the result by multiplying it.\n    @param _multiplyBy list of IPriceProvider to query the price and then multiply the result\n    @param _divisor base value used to scale the result by dividing it.\n    @param _divideBy list of IPriceProvider to query the and then divide the result\n    */\n    function initialize(\n        IGovernor _governor,\n        address[] calldata _wlist,\n        uint256 _multiplicator,\n        IPriceProvider[] calldata _multiplyBy,\n        uint256 _divisor,\n        IPriceProvider[] calldata _divideBy\n    ) external initializer {\n        _initialize(_governor);\n        calculatedPriceProviderData._initialize(_multiplicator, _multiplyBy, _divisor, _divideBy);\n        for (uint256 i = 0; i < _wlist.length; i++) {\n            iterableWhitelistData._addToWhitelist(_wlist[i]);\n        }\n    }\n\n    /**\n     * @dev Add to the list of contracts that can stake in this contract\n     * @param  _whitelisted - the override coinPair\n     */\n    function addToWhitelist(address _whitelisted) external onlyAuthorizedChanger() {\n        iterableWhitelistData._addToWhitelist(_whitelisted);\n    }\n\n    /**\n     * @dev Remove from the list of contracts that can stake in this contract\n     * @param _whitelisted - the override coinPair\n     */\n    function removeFromWhitelist(address _whitelisted) external onlyAuthorizedChanger() {\n        iterableWhitelistData._removeFromWhitelist(_whitelisted);\n    }\n\n    /// @notice Returns the count of whitelisted addresses.\n    function getWhiteListLen() external view returns (uint256) {\n        return iterableWhitelistData._getWhiteListLen();\n    }\n\n    /// @notice Returns the address at index.\n    /// @param _idx index to query.\n    function getWhiteListAtIndex(uint256 _idx) external view returns (address) {\n        return iterableWhitelistData._getWhiteListAtIndex(_idx);\n    }\n\n    /// @notice return the type of provider\n    function getPriceProviderType() external override pure returns (IPriceProviderType) {\n        return IPriceProviderType.Calculated;\n    }\n\n    /**\n    Get the calculated price\n\n    */\n    function peek()\n        external\n        override\n        view\n        whitelistedOrExternal(iterableWhitelistData)\n        returns (bytes32, bool)\n    {\n        (uint256 price, bool valid) = calculatedPriceProviderData._peek();\n        return (bytes32(price), valid);\n    }\n}\n",
    "sourcePath": "/home/adji/Desktop/work/coinfabrik/moc-oraculos/contracts/CalculatedPriceProvider.sol",
    "compiler": {
        "name": "solc",
        "version": "0.6.12+commit.27d51765.Emscripten.clang"
    },
    "schemaVersion": "3.2.4",
    "updatedAt": "2020-09-15T18:51:47.080Z",
    "devdoc": {
        "kind": "dev",
        "methods": {
            "addToWhitelist(address)": {
                "details": "Add to the list of contracts that can stake in this contract",
                "params": {
                    "_whitelisted": "- the override coinPair"
                }
            },
            "changeIGovernor(address)": {
                "params": {
                    "newIGovernor": "New governor address"
                }
            },
            "delegateCallToChanger(bytes)": {
                "params": {
                    "data": "the serialized function arguments"
                }
            },
            "getWhiteListAtIndex(uint256)": {
                "params": {
                    "_idx": "index to query."
                }
            },
            "initialize(address,address[],uint256,address[],uint256,address[])": {
                "params": {
                    "_divideBy": "list of IPriceProvider to query the and then divide the result",
                    "_divisor": "base value used to scale the result by dividing it.",
                    "_governor": "The address of the contract which governs this one",
                    "_multiplicator": "base value used to scale the result by multiplying it.",
                    "_multiplyBy": "list of IPriceProvider to query the price and then multiply the result",
                    "_wlist": "Initial whitelist addresses"
                }
            },
            "removeFromWhitelist(address)": {
                "details": "Remove from the list of contracts that can stake in this contract",
                "params": {
                    "_whitelisted": "- the override coinPair"
                }
            }
        },
        "title": "This contract gets the price from some IPriceProviders and do the math to calculate a deduced price, for example RIFBTC and BTCUSD gives the price of RIFUSD",
        "version": 1
    },
    "userdoc": {
        "kind": "user",
        "methods": {
            "changeIGovernor(address)": {
                "notice": "Change the contract's governor. Should be called through the old governance system"
            },
            "delegateCallToChanger(bytes)": {
                "notice": "This method is used by a change contract to access the storage freely even without a setter."
            },
            "getPriceProviderType()": {
                "notice": "return the type of provider"
            },
            "getWhiteListAtIndex(uint256)": {
                "notice": "Returns the address at index."
            },
            "getWhiteListLen()": {
                "notice": "Returns the count of whitelisted addresses."
            },
            "governor()": {
                "notice": "The address of the contract which governs this one"
            },
            "initialize(address,address[],uint256,address[],uint256,address[])": {
                "notice": "Contract creation."
            },
            "peek()": {
                "notice": "Get the calculated price"
            }
        },
        "version": 1
    }
}