{
    "contractName": "CoinPairPriceAddCalculatedPriceProviderChange",
    "abi": [
        {
            "inputs": [
                {
                    "internalType": "address",
                    "name": "_calculatedPriceProvider",
                    "type": "address"
                },
                {
                    "internalType": "contract Governed[]",
                    "name": "_coinPairPrices",
                    "type": "address[]"
                }
            ],
            "stateMutability": "nonpayable",
            "type": "constructor"
        },
        {
            "inputs": [],
            "name": "PUBLISH_MESSAGE_VERSION",
            "outputs": [
                {
                    "internalType": "uint256",
                    "name": "",
                    "type": "uint256"
                }
            ],
            "stateMutability": "view",
            "type": "function",
            "constant": true
        },
        {
            "inputs": [
                {
                    "internalType": "contract IGovernor",
                    "name": "newIGovernor",
                    "type": "address"
                }
            ],
            "name": "changeIGovernor",
            "outputs": [],
            "stateMutability": "nonpayable",
            "type": "function"
        },
        {
            "inputs": [],
            "name": "coinPair",
            "outputs": [
                {
                    "internalType": "bytes32",
                    "name": "",
                    "type": "bytes32"
                }
            ],
            "stateMutability": "view",
            "type": "function",
            "constant": true
        },
        {
            "inputs": [
                {
                    "internalType": "uint256",
                    "name": "",
                    "type": "uint256"
                }
            ],
            "name": "coinPairPrices",
            "outputs": [
                {
                    "internalType": "contract Governed",
                    "name": "",
                    "type": "address"
                }
            ],
            "stateMutability": "view",
            "type": "function",
            "constant": true
        },
        {
            "inputs": [
                {
                    "internalType": "bytes",
                    "name": "data",
                    "type": "bytes"
                }
            ],
            "name": "delegateCallToChanger",
            "outputs": [],
            "stateMutability": "nonpayable",
            "type": "function"
        },
        {
            "inputs": [],
            "name": "emergencyPublishingPeriodInBlocks",
            "outputs": [
                {
                    "internalType": "uint256",
                    "name": "",
                    "type": "uint256"
                }
            ],
            "stateMutability": "view",
            "type": "function",
            "constant": true
        },
        {
            "inputs": [],
            "name": "encodedData",
            "outputs": [
                {
                    "internalType": "bytes",
                    "name": "",
                    "type": "bytes"
                }
            ],
            "stateMutability": "view",
            "type": "function",
            "constant": true
        },
        {
            "inputs": [],
            "name": "governor",
            "outputs": [
                {
                    "internalType": "contract IGovernor",
                    "name": "",
                    "type": "address"
                }
            ],
            "stateMutability": "view",
            "type": "function",
            "constant": true
        },
        {
            "inputs": [],
            "name": "lastPublicationBlock",
            "outputs": [
                {
                    "internalType": "uint256",
                    "name": "",
                    "type": "uint256"
                }
            ],
            "stateMutability": "view",
            "type": "function",
            "constant": true
        },
        {
            "inputs": [],
            "name": "maxSubscribedOraclesPerRound",
            "outputs": [
                {
                    "internalType": "uint256",
                    "name": "",
                    "type": "uint256"
                }
            ],
            "stateMutability": "view",
            "type": "function",
            "constant": true
        },
        {
            "inputs": [],
            "name": "oracleManager",
            "outputs": [
                {
                    "internalType": "contract OracleManager",
                    "name": "",
                    "type": "address"
                }
            ],
            "stateMutability": "view",
            "type": "function",
            "constant": true
        },
        {
            "inputs": [],
            "name": "token",
            "outputs": [
                {
                    "internalType": "contract IERC20",
                    "name": "",
                    "type": "address"
                }
            ],
            "stateMutability": "view",
            "type": "function",
            "constant": true
        },
        {
            "inputs": [],
            "name": "validPricePeriodInBlocks",
            "outputs": [
                {
                    "internalType": "uint256",
                    "name": "",
                    "type": "uint256"
                }
            ],
            "stateMutability": "view",
            "type": "function",
            "constant": true
        },
        {
            "inputs": [],
            "name": "execute",
            "outputs": [],
            "stateMutability": "nonpayable",
            "type": "function"
        },
        {
            "inputs": [
                {
                    "internalType": "bytes",
                    "name": "data",
                    "type": "bytes"
                }
            ],
            "name": "impersonate",
            "outputs": [],
            "stateMutability": "nonpayable",
            "type": "function"
        }
    ],
    "bytecode": "0x60806040523480156200001157600080fd5b506040516200173f3803806200173f8339818101604052810190620000379190620002bf565b816040516020016200004a91906200032a565b60405160208183030381529060405260b090805190602001906200007092919062000092565b508060af90805190602001906200008992919062000119565b5050506200041a565b828054600181600116156101000203166002900490600052602060002090601f016020900481019282601f10620000d557805160ff191683800117855562000106565b8280016001018555821562000106579182015b8281111562000105578251825591602001919060010190620000e8565b5b509050620001159190620001a8565b5090565b82805482825590600052602060002090810192821562000195579160200282015b82811115620001945782518260006101000a81548173ffffffffffffffffffffffffffffffffffffffff021916908373ffffffffffffffffffffffffffffffffffffffff160217905550916020019190600101906200013a565b5b509050620001a49190620001c7565b5090565b5b80821115620001c3576000816000905550600101620001a9565b5090565b5b808211156200020057600081816101000a81549073ffffffffffffffffffffffffffffffffffffffff021916905550600101620001c8565b5090565b6000815190506200021581620003e6565b92915050565b600082601f8301126200022d57600080fd5b8151620002446200023e8262000375565b62000347565b915081818352602084019350602081019050838560208402820111156200026a57600080fd5b60005b838110156200029e5781620002838882620002a8565b8452602084019350602083019250506001810190506200026d565b5050505092915050565b600081519050620002b98162000400565b92915050565b60008060408385031215620002d357600080fd5b6000620002e38582860162000204565b925050602083015167ffffffffffffffff8111156200030157600080fd5b6200030f858286016200021b565b9150509250929050565b62000324816200039e565b82525050565b600060208201905062000341600083018462000319565b92915050565b6000604051905081810181811067ffffffffffffffff821117156200036b57600080fd5b8060405250919050565b600067ffffffffffffffff8211156200038d57600080fd5b602082029050602081019050919050565b6000620003ab82620003c6565b9050919050565b6000620003bf826200039e565b9050919050565b600073ffffffffffffffffffffffffffffffffffffffff82169050919050565b620003f1816200039e565b8114620003fd57600080fd5b50565b6200040b81620003b2565b81146200041757600080fd5b50565b611315806200042a6000396000f3fe608060405234801561001057600080fd5b50600436106100f55760003560e01c8063a16227ca11610097578063dc8990e111610066578063dc8990e11461023e578063e10cbe291461025a578063f0cf1db914610278578063fc0c546a14610296576100f5565b8063a16227ca146101ca578063b6e08330146101e6578063cc53a00514610202578063d2b0bf7c14610220576100f5565b806361461954116100d357806361461954146101545780636801fd5b1461015e5780637a267c081461017c5780639a5b3781146101ac576100f5565b80630c340a24146100fa57806334c1e5b514610118578063565d878c14610136575b600080fd5b6101026102b4565b60405161010f9190610fc9565b60405180910390f35b6101206102da565b60405161012d9190610f10565b60405180910390f35b61013e6102e0565b60405161014b9190610fe4565b60405180910390f35b61015c610306565b005b6101666103c9565b6040516101739190611081565b60405180910390f35b61019660048036038101906101919190610c2d565b6103cf565b6040516101a39190610f93565b60405180910390f35b6101b461040b565b6040516101c19190611081565b60405180910390f35b6101e460048036038101906101df9190610bbf565b610411565b005b61020060048036038101906101fb9190610c04565b610437565b005b61020a61059e565b6040516102179190611081565b60405180910390f35b6102286105a4565b6040516102359190610f4f565b60405180910390f35b61025860048036038101906102539190610bbf565b610642565b005b6102626108aa565b60405161026f9190611081565b60405180910390f35b6102806108af565b60405161028d9190611081565b60405180910390f35b61029e6108b5565b6040516102ab9190610fae565b60405180910390f35b603360009054906101000a900473ffffffffffffffffffffffffffffffffffffffff1681565b60775481565b607b60009054906101000a900473ffffffffffffffffffffffffffffffffffffffff1681565b60005b60af805490508110156103c65760af818154811061032357fe5b9060005260206000200160009054906101000a900473ffffffffffffffffffffffffffffffffffffffff1673ffffffffffffffffffffffffffffffffffffffff1663dc8990e160b06040518263ffffffff1660e01b81526004016103879190610f71565b600060405180830381600087803b1580156103a157600080fd5b505af11580156103b5573d6000803e3d6000fd5b505050508080600101915050610309565b50565b60665481565b60af81815481106103dc57fe5b906000526020600020016000915054906101000a900473ffffffffffffffffffffffffffffffffffffffff1681565b60795481565b61043382828101906104239190610b6d565b60726108db90919063ffffffff16565b5050565b603360009054906101000a900473ffffffffffffffffffffffffffffffffffffffff1673ffffffffffffffffffffffffffffffffffffffff1663d994d6d5336040518263ffffffff1660e01b81526004016104929190610ef5565b60206040518083038186803b1580156104aa57600080fd5b505afa1580156104be573d6000803e3d6000fd5b505050506040513d601f19601f820116820180604052508101906104e29190610b96565b6040518060400160405280601681526020017f6e6f745f617574686f72697a65645f6368616e6765720000000000000000000081525090610559576040517f08c379a00000000000000000000000000000000000000000000000000000000081526004016105509190610fff565b60405180910390fd5b5080603360006101000a81548173ffffffffffffffffffffffffffffffffffffffff021916908373ffffffffffffffffffffffffffffffffffffffff16021790555050565b60785481565b60b08054600181600116156101000203166002900480601f01602080910402602001604051908101604052809291908181526020018280546001816001161561010002031660029004801561063a5780601f1061060f5761010080835404028352916020019161063a565b820191906000526020600020905b81548152906001019060200180831161061d57829003601f168201915b505050505081565b603360009054906101000a900473ffffffffffffffffffffffffffffffffffffffff1673ffffffffffffffffffffffffffffffffffffffff1663d994d6d5336040518263ffffffff1660e01b815260040161069d9190610ef5565b60206040518083038186803b1580156106b557600080fd5b505afa1580156106c9573d6000803e3d6000fd5b505050506040513d601f19601f820116820180604052508101906106ed9190610b96565b6040518060400160405280601681526020017f6e6f745f617574686f72697a65645f6368616e6765720000000000000000000081525090610764576040517f08c379a000000000000000000000000000000000000000000000000000000000815260040161075b9190610fff565b60405180910390fd5b50600033905060008173ffffffffffffffffffffffffffffffffffffffff168484604051602401610796929190610f2b565b6040516020818303038152906040527fa16227ca000000000000000000000000000000000000000000000000000000007bffffffffffffffffffffffffffffffffffffffffffffffffffffffff19166020820180517bffffffffffffffffffffffffffffffffffffffffffffffffffffffff83818316178352505050506040516108209190610ede565b600060405180830381855af49150503d806000811461085b576040519150601f19603f3d011682016040523d82523d6000602084013e610860565b606091505b50509050806108a4576040517f08c379a000000000000000000000000000000000000000000000000000000000815260040161089b90611041565b60405180910390fd5b50505050565b600381565b607a5481565b607c60009054906101000a900473ffffffffffffffffffffffffffffffffffffffff1681565b600073ffffffffffffffffffffffffffffffffffffffff168173ffffffffffffffffffffffffffffffffffffffff16141561094b576040517f08c379a000000000000000000000000000000000000000000000000000000000815260040161094290611061565b60405180910390fd5b600061096382846000016109aa90919063ffffffff16565b9050806109a5576040517f08c379a000000000000000000000000000000000000000000000000000000000815260040161099c90611021565b60405180910390fd5b505050565b60006109b68383610a80565b610a755782600001829080600181540180825580915050600190039060005260206000200160009091909190916101000a81548173ffffffffffffffffffffffffffffffffffffffff021916908373ffffffffffffffffffffffffffffffffffffffff16021790555082600001805490508360010160008473ffffffffffffffffffffffffffffffffffffffff1673ffffffffffffffffffffffffffffffffffffffff1681526020019081526020016000208190555060019050610a7a565b600090505b92915050565b6000808360010160008473ffffffffffffffffffffffffffffffffffffffff1673ffffffffffffffffffffffffffffffffffffffff168152602001908152602001600020541415905092915050565b600081359050610ade81611283565b92915050565b600081519050610af38161129a565b92915050565b60008083601f840112610b0b57600080fd5b8235905067ffffffffffffffff811115610b2457600080fd5b602083019150836001820283011115610b3c57600080fd5b9250929050565b600081359050610b52816112b1565b92915050565b600081359050610b67816112c8565b92915050565b600060208284031215610b7f57600080fd5b6000610b8d84828501610acf565b91505092915050565b600060208284031215610ba857600080fd5b6000610bb684828501610ae4565b91505092915050565b60008060208385031215610bd257600080fd5b600083013567ffffffffffffffff811115610bec57600080fd5b610bf885828601610af9565b92509250509250929050565b600060208284031215610c1657600080fd5b6000610c2484828501610b43565b91505092915050565b600060208284031215610c3f57600080fd5b6000610c4d84828501610b58565b91505092915050565b610c5f8161116a565b82525050565b610c6e81611124565b82525050565b6000610c8083856110c7565b9350610c8d838584611230565b610c9683611272565b840190509392505050565b6000610cac826110b1565b610cb681856110c7565b9350610cc681856020860161123f565b610ccf81611272565b840191505092915050565b6000610ce5826110b1565b610cef81856110d8565b9350610cff81856020860161123f565b80840191505092915050565b600081546001811660008114610d285760018114610d4e57610d92565b607f6002830416610d3981876110c7565b955060ff198316865260208601935050610d92565b60028204610d5c81876110c7565b9550610d678561109c565b60005b82811015610d8957815481890152600182019150602081019050610d6a565b80880195505050505b505092915050565b610da38161117c565b82525050565b610db2816111a0565b82525050565b610dc1816111c4565b82525050565b610dd0816111e8565b82525050565b6000610de1826110bc565b610deb81856110e3565b9350610dfb81856020860161123f565b610e0481611272565b840191505092915050565b6000610e1c601b836110e3565b91507f4163636f756e7420616c72656164792077686974656c697374656400000000006000830152602082019050919050565b6000610e5c6016836110e3565b91507f4572726f7220696e2064656c65676174652063616c6c000000000000000000006000830152602082019050919050565b6000610e9c6017836110e3565b91507f4163636f756e74206d757374206e6f74206265203078300000000000000000006000830152602082019050919050565b610ed881611160565b82525050565b6000610eea8284610cda565b915081905092915050565b6000602082019050610f0a6000830184610c56565b92915050565b6000602082019050610f256000830184610c65565b92915050565b60006020820190508181036000830152610f46818486610c74565b90509392505050565b60006020820190508181036000830152610f698184610ca1565b905092915050565b60006020820190508181036000830152610f8b8184610d0b565b905092915050565b6000602082019050610fa86000830184610d9a565b92915050565b6000602082019050610fc36000830184610da9565b92915050565b6000602082019050610fde6000830184610db8565b92915050565b6000602082019050610ff96000830184610dc7565b92915050565b600060208201905081810360008301526110198184610dd6565b905092915050565b6000602082019050818103600083015261103a81610e0f565b9050919050565b6000602082019050818103600083015261105a81610e4f565b9050919050565b6000602082019050818103600083015261107a81610e8f565b9050919050565b60006020820190506110966000830184610ecf565b92915050565b60008190508160005260206000209050919050565b600081519050919050565b600081519050919050565b600082825260208201905092915050565b600081905092915050565b600082825260208201905092915050565b60006110ff82611140565b9050919050565b600061111182611140565b9050919050565b60008115159050919050565b6000819050919050565b6000611139826110f4565b9050919050565b600073ffffffffffffffffffffffffffffffffffffffff82169050919050565b6000819050919050565b60006111758261120c565b9050919050565b60006111878261118e565b9050919050565b600061119982611140565b9050919050565b60006111ab826111b2565b9050919050565b60006111bd82611140565b9050919050565b60006111cf826111d6565b9050919050565b60006111e182611140565b9050919050565b60006111f3826111fa565b9050919050565b600061120582611140565b9050919050565b60006112178261121e565b9050919050565b600061122982611140565b9050919050565b82818337600083830152505050565b60005b8381101561125d578082015181840152602081019050611242565b8381111561126c576000848401525b50505050565b6000601f19601f8301169050919050565b61128c81611106565b811461129757600080fd5b50565b6112a381611118565b81146112ae57600080fd5b50565b6112ba8161112e565b81146112c557600080fd5b50565b6112d181611160565b81146112dc57600080fd5b5056fea2646970667358221220f7d78053d8a92172e5e26202f17bf702e9009302ba5791f9f522abe04db6e9b364736f6c634300060c0033",
    "immutableReferences": {},
    "source": "// SPDX-License-Identifier: UNLICENSED\npragma solidity 0.6.12;\npragma experimental ABIEncoderV2;\n\nimport {ChangeContract} from \"@moc/shared/contracts/moc-governance/Governance/ChangeContract.sol\";\nimport {CoinPairPriceStorage} from \"../CoinPairPriceStorage.sol\";\nimport {Governed} from \"@moc/shared/contracts/moc-governance/Governance/Governed.sol\";\n\n//import {IterableWhitelist} from \"../libs/IterableWhitelist.sol\";\n\n/**\n  @title CoinPairPriceAddCoinPairCalculatorChange\n  @notice This contract is a ChangeContract intended to be used to whitelist a coinPairPriceCalculator\n  in various CoinPaiPrice contracts at once.\n */\ncontract CoinPairPriceAddCalculatedPriceProviderChange is CoinPairPriceStorage, ChangeContract {\n    Governed[] public coinPairPrices;\n    bytes public encodedData;\n\n    /**\n      @notice Constructor\n      @param _calculatedPriceProvider Address of coin pair price calculator to add to whitelists\n      @param _coinPairPrices List of coinPairPrice contracts that must whitelist the _coinPairPriceCalculator Address\n    */\n    constructor(address _calculatedPriceProvider, Governed[] memory _coinPairPrices) public {\n        encodedData = abi.encode(_calculatedPriceProvider);\n        coinPairPrices = _coinPairPrices;\n    }\n\n    /**\n      @notice Execute the changes.\n      @dev Should be called by the governor, but this contract does not check that explicitly\n      because it is not its responsability in the current architecture\n     */\n    function execute() external override {\n        for (uint256 i = 0; i < coinPairPrices.length; i++) {\n            coinPairPrices[i].delegateCallToChanger(encodedData);\n        }\n        // TODO: Make it usable just once.\n    }\n\n    /**\n        Called by the Governed contract delegateCallToChanger method\n        This methods runs in the Governed contract storage.\n    */\n    function impersonate(bytes calldata data) external {\n        pricePeekWhitelistData._addToWhitelist(abi.decode(data, (address)));\n    }\n}\n",
    "sourcePath": "/home/adji/Desktop/work/coinfabrik/moc-oraculos/contracts/change/CoinPairPriceAddCalculatedPriceProviderChange.sol",
    "compiler": {
        "name": "solc",
        "version": "0.6.12+commit.27d51765.Emscripten.clang"
    },
    "schemaVersion": "3.2.4",
    "updatedAt": "2020-09-15T15:03:21.209Z",
    "networkType": "ethereum",
    "devdoc": {
        "kind": "dev",
        "methods": {
            "changeIGovernor(address)": {
                "params": {
                    "newIGovernor": "New governor address"
                }
            },
            "constructor": {
                "params": {
                    "_calculatedPriceProvider": "Address of coin pair price calculator to add to whitelists",
                    "_coinPairPrices": "List of coinPairPrice contracts that must whitelist the _coinPairPriceCalculator Address"
                }
            },
            "delegateCallToChanger(bytes)": {
                "params": {
                    "data": "the serialized function arguments"
                }
            },
            "execute()": {
                "details": "Should be called by the governor, but this contract does not check that explicitly because it is not its responsability in the current architecture"
            }
        },
        "title": "CoinPairPriceAddCoinPairCalculatorChange",
        "version": 1
    },
    "userdoc": {
        "kind": "user",
        "methods": {
            "changeIGovernor(address)": {
                "notice": "Change the contract's governor. Should be called through the old governance system"
            },
            "constructor": "Constructor",
            "delegateCallToChanger(bytes)": {
                "notice": "This method is used by a change contract to access the storage freely even without a setter."
            },
            "execute()": {
                "notice": "Execute the changes."
            },
            "governor()": {
                "notice": "The address of the contract which governs this one"
            },
            "impersonate(bytes)": {
                "notice": "Called by the Governed contract delegateCallToChanger method This methods runs in the Governed contract storage."
            }
        },
        "notice": "This contract is a ChangeContract intended to be used to whitelist a coinPairPriceCalculator in various CoinPaiPrice contracts at once.",
        "version": 1
    }
}