{
  "contractName": "CoinPairPriceAddCalculatedPriceProviderChange",
  "abi": [
    {
      "inputs": [
        {
          "internalType": "address",
          "name": "_calculatedPriceProvider",
          "type": "address"
        },
        {
          "internalType": "contract Governed[]",
          "name": "_coinPairPrices",
          "type": "address[]"
        }
      ],
      "stateMutability": "nonpayable",
      "type": "constructor"
    },
    {
      "inputs": [
        {
          "internalType": "contract IGovernor",
          "name": "newIGovernor",
          "type": "address"
        }
      ],
      "name": "changeIGovernor",
      "outputs": [],
      "stateMutability": "nonpayable",
      "type": "function"
    },
    {
      "inputs": [],
      "name": "coinPair",
      "outputs": [
        {
          "internalType": "bytes32",
          "name": "",
          "type": "bytes32"
        }
      ],
      "stateMutability": "view",
      "type": "function"
    },
    {
      "inputs": [
        {
          "internalType": "uint256",
          "name": "",
          "type": "uint256"
        }
      ],
      "name": "coinPairPrices",
      "outputs": [
        {
          "internalType": "contract Governed",
          "name": "",
          "type": "address"
        }
      ],
      "stateMutability": "view",
      "type": "function"
    },
    {
      "inputs": [
        {
          "internalType": "bytes",
          "name": "data",
          "type": "bytes"
        }
      ],
      "name": "delegateCallToChanger",
      "outputs": [],
      "stateMutability": "nonpayable",
      "type": "function"
    },
    {
      "inputs": [],
      "name": "emergencyPublishingPeriodInBlocks",
      "outputs": [
        {
          "internalType": "uint256",
          "name": "",
          "type": "uint256"
        }
      ],
      "stateMutability": "view",
      "type": "function"
    },
    {
      "inputs": [],
      "name": "encodedData",
      "outputs": [
        {
          "internalType": "bytes",
          "name": "",
          "type": "bytes"
        }
      ],
      "stateMutability": "view",
      "type": "function"
    },
    {
      "inputs": [],
      "name": "governor",
      "outputs": [
        {
          "internalType": "contract IGovernor",
          "name": "",
          "type": "address"
        }
      ],
      "stateMutability": "view",
      "type": "function"
    },
    {
      "inputs": [],
      "name": "lastPublicationBlock",
      "outputs": [
        {
          "internalType": "uint256",
          "name": "",
          "type": "uint256"
        }
      ],
      "stateMutability": "view",
      "type": "function"
    },
    {
      "inputs": [],
      "name": "oracleManager",
      "outputs": [
        {
          "internalType": "contract OracleManager",
          "name": "",
          "type": "address"
        }
      ],
      "stateMutability": "view",
      "type": "function"
    },
    {
      "inputs": [],
      "name": "token",
      "outputs": [
        {
          "internalType": "contract IERC20",
          "name": "",
          "type": "address"
        }
      ],
      "stateMutability": "view",
      "type": "function"
    },
    {
      "inputs": [],
      "name": "validPricePeriodInBlocks",
      "outputs": [
        {
          "internalType": "uint256",
          "name": "",
          "type": "uint256"
        }
      ],
      "stateMutability": "view",
      "type": "function"
    },
    {
      "inputs": [],
      "name": "execute",
      "outputs": [],
      "stateMutability": "nonpayable",
      "type": "function"
    },
    {
      "inputs": [
        {
          "internalType": "bytes",
          "name": "data",
          "type": "bytes"
        }
      ],
      "name": "impersonate",
      "outputs": [],
      "stateMutability": "nonpayable",
      "type": "function"
    }
  ],
  "bytecode": "0x60806040523480156200001157600080fd5b50604051620016d2380380620016d28339818101604052810190620000379190620002bf565b816040516020016200004a91906200032a565b60405160208183030381529060405260b090805190602001906200007092919062000092565b508060af90805190602001906200008992919062000119565b5050506200041a565b828054600181600116156101000203166002900490600052602060002090601f016020900481019282601f10620000d557805160ff191683800117855562000106565b8280016001018555821562000106579182015b8281111562000105578251825591602001919060010190620000e8565b5b509050620001159190620001a8565b5090565b82805482825590600052602060002090810192821562000195579160200282015b82811115620001945782518260006101000a81548173ffffffffffffffffffffffffffffffffffffffff021916908373ffffffffffffffffffffffffffffffffffffffff160217905550916020019190600101906200013a565b5b509050620001a49190620001c7565b5090565b5b80821115620001c3576000816000905550600101620001a9565b5090565b5b808211156200020057600081816101000a81549073ffffffffffffffffffffffffffffffffffffffff021916905550600101620001c8565b5090565b6000815190506200021581620003e6565b92915050565b600082601f8301126200022d57600080fd5b8151620002446200023e8262000375565b62000347565b915081818352602084019350602081019050838560208402820111156200026a57600080fd5b60005b838110156200029e5781620002838882620002a8565b8452602084019350602083019250506001810190506200026d565b5050505092915050565b600081519050620002b98162000400565b92915050565b60008060408385031215620002d357600080fd5b6000620002e38582860162000204565b925050602083015167ffffffffffffffff8111156200030157600080fd5b6200030f858286016200021b565b9150509250929050565b62000324816200039e565b82525050565b600060208201905062000341600083018462000319565b92915050565b6000604051905081810181811067ffffffffffffffff821117156200036b57600080fd5b8060405250919050565b600067ffffffffffffffff8211156200038d57600080fd5b602082029050602081019050919050565b6000620003ab82620003c6565b9050919050565b6000620003bf826200039e565b9050919050565b600073ffffffffffffffffffffffffffffffffffffffff82169050919050565b620003f1816200039e565b8114620003fd57600080fd5b50565b6200040b81620003b2565b81146200041757600080fd5b50565b6112a8806200042a6000396000f3fe608060405234801561001057600080fd5b50600436106100cf5760003560e01c8063a16227ca1161008c578063d2b0bf7c11610066578063d2b0bf7c146101dc578063dc8990e1146101fa578063f0cf1db914610216578063fc0c546a14610234576100cf565b8063a16227ca14610186578063b6e08330146101a2578063cc53a005146101be576100cf565b80630c340a24146100d457806334c1e5b5146100f2578063565d878c14610110578063614619541461012e5780637a267c08146101385780639a5b378114610168575b600080fd5b6100dc610252565b6040516100e99190610f5c565b60405180910390f35b6100fa610278565b6040516101079190610ea3565b60405180910390f35b61011861027e565b6040516101259190610f77565b60405180910390f35b6101366102a4565b005b610152600480360381019061014d9190610bc0565b610367565b60405161015f9190610f26565b60405180910390f35b6101706103a3565b60405161017d9190611014565b60405180910390f35b6101a0600480360381019061019b9190610b52565b6103a9565b005b6101bc60048036038101906101b79190610b97565b6103cf565b005b6101c6610536565b6040516101d39190611014565b60405180910390f35b6101e461053c565b6040516101f19190610ee2565b60405180910390f35b610214600480360381019061020f9190610b52565b6105da565b005b61021e610842565b60405161022b9190611014565b60405180910390f35b61023c610848565b6040516102499190610f41565b60405180910390f35b603360009054906101000a900473ffffffffffffffffffffffffffffffffffffffff1681565b60775481565b607b60009054906101000a900473ffffffffffffffffffffffffffffffffffffffff1681565b60005b60af805490508110156103645760af81815481106102c157fe5b9060005260206000200160009054906101000a900473ffffffffffffffffffffffffffffffffffffffff1673ffffffffffffffffffffffffffffffffffffffff1663dc8990e160b06040518263ffffffff1660e01b81526004016103259190610f04565b600060405180830381600087803b15801561033f57600080fd5b505af1158015610353573d6000803e3d6000fd5b5050505080806001019150506102a7565b50565b60af818154811061037457fe5b906000526020600020016000915054906101000a900473ffffffffffffffffffffffffffffffffffffffff1681565b60795481565b6103cb82828101906103bb9190610b00565b607261086e90919063ffffffff16565b5050565b603360009054906101000a900473ffffffffffffffffffffffffffffffffffffffff1673ffffffffffffffffffffffffffffffffffffffff1663d994d6d5336040518263ffffffff1660e01b815260040161042a9190610e88565b60206040518083038186803b15801561044257600080fd5b505afa158015610456573d6000803e3d6000fd5b505050506040513d601f19601f8201168201806040525081019061047a9190610b29565b6040518060400160405280601681526020017f6e6f745f617574686f72697a65645f6368616e67657200000000000000000000815250906104f1576040517f08c379a00000000000000000000000000000000000000000000000000000000081526004016104e89190610f92565b60405180910390fd5b5080603360006101000a81548173ffffffffffffffffffffffffffffffffffffffff021916908373ffffffffffffffffffffffffffffffffffffffff16021790555050565b60785481565b60b08054600181600116156101000203166002900480601f0160208091040260200160405190810160405280929190818152602001828054600181600116156101000203166002900480156105d25780601f106105a7576101008083540402835291602001916105d2565b820191906000526020600020905b8154815290600101906020018083116105b557829003601f168201915b505050505081565b603360009054906101000a900473ffffffffffffffffffffffffffffffffffffffff1673ffffffffffffffffffffffffffffffffffffffff1663d994d6d5336040518263ffffffff1660e01b81526004016106359190610e88565b60206040518083038186803b15801561064d57600080fd5b505afa158015610661573d6000803e3d6000fd5b505050506040513d601f19601f820116820180604052508101906106859190610b29565b6040518060400160405280601681526020017f6e6f745f617574686f72697a65645f6368616e67657200000000000000000000815250906106fc576040517f08c379a00000000000000000000000000000000000000000000000000000000081526004016106f39190610f92565b60405180910390fd5b50600033905060008173ffffffffffffffffffffffffffffffffffffffff16848460405160240161072e929190610ebe565b6040516020818303038152906040527fa16227ca000000000000000000000000000000000000000000000000000000007bffffffffffffffffffffffffffffffffffffffffffffffffffffffff19166020820180517bffffffffffffffffffffffffffffffffffffffffffffffffffffffff83818316178352505050506040516107b89190610e71565b600060405180830381855af49150503d80600081146107f3576040519150601f19603f3d011682016040523d82523d6000602084013e6107f8565b606091505b505090508061083c576040517f08c379a000000000000000000000000000000000000000000000000000000000815260040161083390610fd4565b60405180910390fd5b50505050565b607a5481565b607c60009054906101000a900473ffffffffffffffffffffffffffffffffffffffff1681565b600073ffffffffffffffffffffffffffffffffffffffff168173ffffffffffffffffffffffffffffffffffffffff1614156108de576040517f08c379a00000000000000000000000000000000000000000000000000000000081526004016108d590610ff4565b60405180910390fd5b60006108f6828460000161093d90919063ffffffff16565b905080610938576040517f08c379a000000000000000000000000000000000000000000000000000000000815260040161092f90610fb4565b60405180910390fd5b505050565b60006109498383610a13565b610a085782600001829080600181540180825580915050600190039060005260206000200160009091909190916101000a81548173ffffffffffffffffffffffffffffffffffffffff021916908373ffffffffffffffffffffffffffffffffffffffff16021790555082600001805490508360010160008473ffffffffffffffffffffffffffffffffffffffff1673ffffffffffffffffffffffffffffffffffffffff1681526020019081526020016000208190555060019050610a0d565b600090505b92915050565b6000808360010160008473ffffffffffffffffffffffffffffffffffffffff1673ffffffffffffffffffffffffffffffffffffffff168152602001908152602001600020541415905092915050565b600081359050610a7181611216565b92915050565b600081519050610a868161122d565b92915050565b60008083601f840112610a9e57600080fd5b8235905067ffffffffffffffff811115610ab757600080fd5b602083019150836001820283011115610acf57600080fd5b9250929050565b600081359050610ae581611244565b92915050565b600081359050610afa8161125b565b92915050565b600060208284031215610b1257600080fd5b6000610b2084828501610a62565b91505092915050565b600060208284031215610b3b57600080fd5b6000610b4984828501610a77565b91505092915050565b60008060208385031215610b6557600080fd5b600083013567ffffffffffffffff811115610b7f57600080fd5b610b8b85828601610a8c565b92509250509250929050565b600060208284031215610ba957600080fd5b6000610bb784828501610ad6565b91505092915050565b600060208284031215610bd257600080fd5b6000610be084828501610aeb565b91505092915050565b610bf2816110fd565b82525050565b610c01816110b7565b82525050565b6000610c13838561105a565b9350610c208385846111c3565b610c2983611205565b840190509392505050565b6000610c3f82611044565b610c49818561105a565b9350610c598185602086016111d2565b610c6281611205565b840191505092915050565b6000610c7882611044565b610c82818561106b565b9350610c928185602086016111d2565b80840191505092915050565b600081546001811660008114610cbb5760018114610ce157610d25565b607f6002830416610ccc818761105a565b955060ff198316865260208601935050610d25565b60028204610cef818761105a565b9550610cfa8561102f565b60005b82811015610d1c57815481890152600182019150602081019050610cfd565b80880195505050505b505092915050565b610d368161110f565b82525050565b610d4581611133565b82525050565b610d5481611157565b82525050565b610d638161117b565b82525050565b6000610d748261104f565b610d7e8185611076565b9350610d8e8185602086016111d2565b610d9781611205565b840191505092915050565b6000610daf601b83611076565b91507f4163636f756e7420616c72656164792077686974656c697374656400000000006000830152602082019050919050565b6000610def601683611076565b91507f4572726f7220696e2064656c65676174652063616c6c000000000000000000006000830152602082019050919050565b6000610e2f601783611076565b91507f4163636f756e74206d757374206e6f74206265203078300000000000000000006000830152602082019050919050565b610e6b816110f3565b82525050565b6000610e7d8284610c6d565b915081905092915050565b6000602082019050610e9d6000830184610be9565b92915050565b6000602082019050610eb86000830184610bf8565b92915050565b60006020820190508181036000830152610ed9818486610c07565b90509392505050565b60006020820190508181036000830152610efc8184610c34565b905092915050565b60006020820190508181036000830152610f1e8184610c9e565b905092915050565b6000602082019050610f3b6000830184610d2d565b92915050565b6000602082019050610f566000830184610d3c565b92915050565b6000602082019050610f716000830184610d4b565b92915050565b6000602082019050610f8c6000830184610d5a565b92915050565b60006020820190508181036000830152610fac8184610d69565b905092915050565b60006020820190508181036000830152610fcd81610da2565b9050919050565b60006020820190508181036000830152610fed81610de2565b9050919050565b6000602082019050818103600083015261100d81610e22565b9050919050565b60006020820190506110296000830184610e62565b92915050565b60008190508160005260206000209050919050565b600081519050919050565b600081519050919050565b600082825260208201905092915050565b600081905092915050565b600082825260208201905092915050565b6000611092826110d3565b9050919050565b60006110a4826110d3565b9050919050565b60008115159050919050565b6000819050919050565b60006110cc82611087565b9050919050565b600073ffffffffffffffffffffffffffffffffffffffff82169050919050565b6000819050919050565b60006111088261119f565b9050919050565b600061111a82611121565b9050919050565b600061112c826110d3565b9050919050565b600061113e82611145565b9050919050565b6000611150826110d3565b9050919050565b600061116282611169565b9050919050565b6000611174826110d3565b9050919050565b60006111868261118d565b9050919050565b6000611198826110d3565b9050919050565b60006111aa826111b1565b9050919050565b60006111bc826110d3565b9050919050565b82818337600083830152505050565b60005b838110156111f05780820151818401526020810190506111d5565b838111156111ff576000848401525b50505050565b6000601f19601f8301169050919050565b61121f81611099565b811461122a57600080fd5b50565b611236816110ab565b811461124157600080fd5b50565b61124d816110c1565b811461125857600080fd5b50565b611264816110f3565b811461126f57600080fd5b5056fea264697066735822122039a574fa9c82be8b28b5cefb9d72478cd55a52b04e8e1007b4087bdcc6030abc64736f6c634300060c0033",
  "immutableReferences": {},
  "source": "// SPDX-License-Identifier: UNLICENSED\npragma solidity 0.6.12;\npragma experimental ABIEncoderV2;\n\nimport {ChangeContract} from \"@moc/shared/contracts/moc-governance/Governance/ChangeContract.sol\";\nimport {CoinPairPriceStorage} from \"../CoinPairPriceStorage.sol\";\nimport {Governed} from \"@moc/shared/contracts/moc-governance/Governance/Governed.sol\";\n\n//import {IterableWhitelist} from \"../libs/IterableWhitelist.sol\";\n\n/**\n  @title CoinPairPriceAddCoinPairCalculatorChange\n  @notice This contract is a ChangeContract intended to be used to whitelist a coinPairPriceCalculator\n  in various CoinPaiPrice contracts at once.\n */\ncontract CoinPairPriceAddCalculatedPriceProviderChange is CoinPairPriceStorage, ChangeContract {\n    Governed[] public coinPairPrices;\n    bytes public encodedData;\n\n    /**\n      @notice Constructor\n      @param _calculatedPriceProvider Address of coin pair price calculator to add to whitelists\n      @param _coinPairPrices List of coinPairPrice contracts that must whitelist the _coinPairPriceCalculator Address\n    */\n    constructor(address _calculatedPriceProvider, Governed[] memory _coinPairPrices) public {\n        encodedData = abi.encode(_calculatedPriceProvider);\n        coinPairPrices = _coinPairPrices;\n    }\n\n    /**\n      @notice Execute the changes.\n      @dev Should be called by the governor, but this contract does not check that explicitly\n      because it is not its responsability in the current architecture\n     */\n    function execute() external override {\n        for (uint256 i = 0; i < coinPairPrices.length; i++) {\n            coinPairPrices[i].delegateCallToChanger(encodedData);\n        }\n        // TODO: Make it usable just once.\n    }\n\n    /**\n        Called by the Governed contract delegateCallToChanger method\n        This methods runs in the Governed contract storage.\n    */\n    function impersonate(bytes calldata data) external {\n        pricePeekWhitelistData._addToWhitelist(abi.decode(data, (address)));\n    }\n}\n",
  "sourcePath": "/home/adji/Desktop/work/coinfabrik/moc-oraculos/contracts/change/CoinPairPriceAddCalculatedPriceProviderChange.sol",
  "compiler": {
    "name": "solc",
    "version": "0.6.12+commit.27d51765.Emscripten.clang"
  },
  "schemaVersion": "3.2.4",
  "updatedAt": "2020-09-11T20:34:45.478Z",
  "devdoc": {
    "kind": "dev",
    "methods": {
      "changeIGovernor(address)": {
        "params": {
          "newIGovernor": "New governor address"
        }
      },
      "constructor": {
        "params": {
          "_calculatedPriceProvider": "Address of coin pair price calculator to add to whitelists",
          "_coinPairPrices": "List of coinPairPrice contracts that must whitelist the _coinPairPriceCalculator Address"
        }
      },
      "delegateCallToChanger(bytes)": {
        "params": {
          "data": "the serialized function arguments"
        }
      },
      "execute()": {
        "details": "Should be called by the governor, but this contract does not check that explicitly because it is not its responsability in the current architecture"
      }
    },
    "title": "CoinPairPriceAddCoinPairCalculatorChange",
    "version": 1
  },
  "userdoc": {
    "kind": "user",
    "methods": {
      "changeIGovernor(address)": {
        "notice": "Change the contract's governor. Should be called through the old governance system"
      },
      "constructor": "Constructor",
      "delegateCallToChanger(bytes)": {
        "notice": "This method is used by a change contract to access the storage freely even without a setter."
      },
      "execute()": {
        "notice": "Execute the changes."
      },
      "governor()": {
        "notice": "The address of the contract which governs this one"
      },
      "impersonate(bytes)": {
        "notice": "Called by the Governed contract delegateCallToChanger method This methods runs in the Governed contract storage."
      }
    },
    "notice": "This contract is a ChangeContract intended to be used to whitelist a coinPairPriceCalculator in various CoinPaiPrice contracts at once.",
    "version": 1
  }
}