{
    "contractName": "CoinPairEmergencyPeriodInBlocksChange",
    "abi": [
        {
            "inputs": [
                {
                    "internalType": "contract Governed",
                    "name": "_coinPairPrice",
                    "type": "address"
                },
                {
                    "internalType": "uint256",
                    "name": "_emergencyPublishingPeriodInBlocks",
                    "type": "uint256"
                }
            ],
            "stateMutability": "nonpayable",
            "type": "constructor"
        },
        {
            "inputs": [],
            "name": "PUBLISH_MESSAGE_VERSION",
            "outputs": [
                {
                    "internalType": "uint256",
                    "name": "",
                    "type": "uint256"
                }
            ],
            "stateMutability": "view",
            "type": "function"
        },
        {
            "inputs": [
                {
                    "internalType": "contract IGovernor",
                    "name": "newIGovernor",
                    "type": "address"
                }
            ],
            "name": "changeIGovernor",
            "outputs": [],
            "stateMutability": "nonpayable",
            "type": "function"
        },
        {
            "inputs": [],
            "name": "coinPair",
            "outputs": [
                {
                    "internalType": "bytes32",
                    "name": "",
                    "type": "bytes32"
                }
            ],
            "stateMutability": "view",
            "type": "function"
        },
        {
            "inputs": [],
            "name": "coinPairPrice",
            "outputs": [
                {
                    "internalType": "contract Governed",
                    "name": "",
                    "type": "address"
                }
            ],
            "stateMutability": "view",
            "type": "function"
        },
        {
            "inputs": [
                {
                    "internalType": "bytes",
                    "name": "data",
                    "type": "bytes"
                }
            ],
            "name": "delegateCallToChanger",
            "outputs": [],
            "stateMutability": "nonpayable",
            "type": "function"
        },
        {
            "inputs": [],
            "name": "emergencyPublishingPeriodInBlocks",
            "outputs": [
                {
                    "internalType": "uint256",
                    "name": "",
                    "type": "uint256"
                }
            ],
            "stateMutability": "view",
            "type": "function"
        },
        {
            "inputs": [],
            "name": "encodedData",
            "outputs": [
                {
                    "internalType": "bytes",
                    "name": "",
                    "type": "bytes"
                }
            ],
            "stateMutability": "view",
            "type": "function"
        },
        {
            "inputs": [],
            "name": "governor",
            "outputs": [
                {
                    "internalType": "contract IGovernor",
                    "name": "",
                    "type": "address"
                }
            ],
            "stateMutability": "view",
            "type": "function"
        },
        {
            "inputs": [],
            "name": "lastPublicationBlock",
            "outputs": [
                {
                    "internalType": "uint256",
                    "name": "",
                    "type": "uint256"
                }
            ],
            "stateMutability": "view",
            "type": "function"
        },
        {
            "inputs": [],
            "name": "maxSubscribedOraclesPerRound",
            "outputs": [
                {
                    "internalType": "uint256",
                    "name": "",
                    "type": "uint256"
                }
            ],
            "stateMutability": "view",
            "type": "function"
        },
        {
            "inputs": [],
            "name": "oracleManager",
            "outputs": [
                {
                    "internalType": "contract OracleManager",
                    "name": "",
                    "type": "address"
                }
            ],
            "stateMutability": "view",
            "type": "function"
        },
        {
            "inputs": [],
            "name": "token",
            "outputs": [
                {
                    "internalType": "contract IERC20",
                    "name": "",
                    "type": "address"
                }
            ],
            "stateMutability": "view",
            "type": "function"
        },
        {
            "inputs": [],
            "name": "validPricePeriodInBlocks",
            "outputs": [
                {
                    "internalType": "uint256",
                    "name": "",
                    "type": "uint256"
                }
            ],
            "stateMutability": "view",
            "type": "function"
        },
        {
            "inputs": [],
            "name": "execute",
            "outputs": [],
            "stateMutability": "nonpayable",
            "type": "function"
        },
        {
            "inputs": [
                {
                    "internalType": "bytes",
                    "name": "data",
                    "type": "bytes"
                }
            ],
            "name": "impersonate",
            "outputs": [],
            "stateMutability": "nonpayable",
            "type": "function"
        }
    ],
    "bytecode": "0x608060405234801561001057600080fd5b506040516109db3803806109db8339818101604052604081101561003357600080fd5b50805160209182015160af80546001600160a01b0319166001600160a01b038416179055604080518085018390528151808203860181529082019091528051929391926100849260b092019061008c565b50505061011f565b828054600181600116156101000203166002900490600052602060002090601f016020900481019282601f106100cd57805160ff19168380011785556100fa565b828001600101855582156100fa579182015b828111156100fa5782518255916020019190600101906100df565b5061010692915061010a565b5090565b5b80821115610106576000815560010161010b565b6108ad8061012e6000396000f3fe608060405234801561001057600080fd5b50600436106100f55760003560e01c8063a16227ca11610097578063dc8990e111610066578063dc8990e11461027d578063e10cbe29146102ed578063f0cf1db9146102f5578063fc0c546a146102fd576100f5565b8063a16227ca14610162578063b6e08330146101d2578063cc53a005146101f8578063d2b0bf7c14610200576100f5565b8063565d878c116100d3578063565d878c1461014057806361461954146101485780636801fd5b146101525780639a5b37811461015a576100f5565b80630c340a24146100fa57806334c1e5b51461011e5780634b61230414610138575b600080fd5b610102610305565b604080516001600160a01b039092168252519081900360200190f35b610126610314565b60408051918252519081900360200190f35b61010261031a565b610102610329565b610150610338565b005b610126610415565b61012661041b565b6101506004803603602081101561017857600080fd5b81019060208101813564010000000081111561019357600080fd5b8201836020820111156101a557600080fd5b803590602001918460018302840111640100000000831117156101c757600080fd5b509092509050610421565b610150600480360360208110156101e857600080fd5b50356001600160a01b031661043a565b61012661058a565b610208610590565b6040805160208082528351818301528351919283929083019185019080838360005b8381101561024257818101518382015260200161022a565b50505050905090810190601f16801561026f5780820380516001836020036101000a031916815260200191505b509250505060405180910390f35b6101506004803603602081101561029357600080fd5b8101906020810181356401000000008111156102ae57600080fd5b8201836020820111156102c057600080fd5b803590602001918460018302840111640100000000831117156102e257600080fd5b50909250905061061e565b61012661085d565b610126610862565b610102610868565b6033546001600160a01b031681565b60775481565b60af546001600160a01b031681565b607b546001600160a01b031681565b60af5460405163dc8990e160e01b815260206004820190815260b0805460026000196001831615610100020190911604602484018190526001600160a01b039094169363dc8990e1939192918291604490910190849080156103db5780601f106103b0576101008083540402835291602001916103db565b820191906000526020600020905b8154815290600101906020018083116103be57829003601f168201915b505092505050600060405180830381600087803b1580156103fb57600080fd5b505af115801561040f573d6000803e3d6000fd5b50505050565b60665481565b60795481565b8181602081101561043157600080fd5b5035607a555050565b6033546040805163d994d6d560e01b815233600482015290516001600160a01b039092169163d994d6d591602480820192602092909190829003018186803b15801561048557600080fd5b505afa158015610499573d6000803e3d6000fd5b505050506040513d60208110156104af57600080fd5b50516040805180820190915260168152753737ba2fb0baba3437b934bd32b22fb1b430b733b2b960511b6020820152906105675760405162461bcd60e51b81526004018080602001828103825283818151815260200191508051906020019080838360005b8381101561052c578181015183820152602001610514565b50505050905090810190601f1680156105595780820380516001836020036101000a031916815260200191505b509250505060405180910390fd5b50603380546001600160a01b0319166001600160a01b0392909216919091179055565b60785481565b60b0805460408051602060026001851615610100026000190190941693909304601f810184900484028201840190925281815292918301828280156106165780601f106105eb57610100808354040283529160200191610616565b820191906000526020600020905b8154815290600101906020018083116105f957829003601f168201915b505050505081565b6033546040805163d994d6d560e01b815233600482015290516001600160a01b039092169163d994d6d591602480820192602092909190829003018186803b15801561066957600080fd5b505afa15801561067d573d6000803e3d6000fd5b505050506040513d602081101561069357600080fd5b50516040805180820190915260168152753737ba2fb0baba3437b934bd32b22fb1b430b733b2b960511b60208201529061070e5760405162461bcd60e51b815260206004820181815283516024840152835190928392604490910191908501908083836000831561052c578181015183820152602001610514565b50604051602060248201908152604482018390523391600091839186918691819060640184848082843760008382015260408051601f909201601f1990811690940182810390940182529283526020810180516001600160e01b03166350b113e560e11b17815292518151919750955085945091925081905083835b602083106107a95780518252601f19909201916020918201910161078a565b6001836020036101000a038019825116818451168082178552505050505050905001915050600060405180830381855af49150503d8060008114610809576040519150601f19603f3d011682016040523d82523d6000602084013e61080e565b606091505b505090508061040f576040805162461bcd60e51b8152602060048201526016602482015275115c9c9bdc881a5b8819195b1959d85d194818d85b1b60521b604482015290519081900360640190fd5b600381565b607a5481565b607c546001600160a01b03168156fea264697066735822122006756d0389cf6c3705fd2cb0863c4e5d1f1f9b541a9052e92c3dcba6be2b1b2a64736f6c634300060c0033",
    "immutableReferences": {},
    "source": "// SPDX-License-Identifier: UNLICENSED\npragma solidity 0.6.12;\n\nimport {ChangeContract} from \"@moc/shared/contracts/moc-governance/Governance/ChangeContract.sol\";\nimport {CoinPairPriceStorage} from \"../CoinPairPriceStorage.sol\";\nimport {Governed} from \"@moc/shared/contracts/moc-governance/Governance/Governed.sol\";\n\n/**\n  @title CoinPairEmergencyPeriodInBlocksChange\n  @notice This contract is a ChangeContract intended to be used to change the emergency publisher period in blocks.\n */\ncontract CoinPairEmergencyPeriodInBlocksChange is CoinPairPriceStorage, ChangeContract {\n    Governed public coinPairPrice;\n    bytes public encodedData;\n\n    /**\n      @notice Constructor\n      @param _coinPairPrice Address of coin pair price to upgrade\n      @param _emergencyPublishingPeriodInBlocks The emergencyPublishingPeriodInBlocks value\n    */\n    constructor(Governed _coinPairPrice, uint256 _emergencyPublishingPeriodInBlocks) public {\n        coinPairPrice = _coinPairPrice;\n        encodedData = abi.encode(_emergencyPublishingPeriodInBlocks);\n    }\n\n    /**\n      @notice Execute the changes.\n      @dev Should be called by the governor, but this contract does not check that explicitly because\n      it is not its responsability in the current architecture\n     */\n    function execute() external override {\n        coinPairPrice.delegateCallToChanger(encodedData);\n        // TODO: Make it usable just once.\n    }\n\n    /**\n        Called by the Governed contract delegateCallToChanger method\n        This methods runs in the Governed contract storage.\n    */\n    function impersonate(bytes calldata data) external {\n        emergencyPublishingPeriodInBlocks = abi.decode(data, (uint256));\n    }\n}\n",
    "sourcePath": "/home/adji/Desktop/work/coinfabrik/moc-oraculos/contracts/change/CoinPairEmergencyPeriodInBlocksChange.sol",
    "compiler": {
        "name": "solc",
        "version": "0.6.12+commit.27d51765.Emscripten.clang"
    },
    "schemaVersion": "3.2.4",
    "updatedAt": "2020-09-15T18:51:47.135Z",
    "devdoc": {
        "kind": "dev",
        "methods": {
            "changeIGovernor(address)": {
                "params": {
                    "newIGovernor": "New governor address"
                }
            },
            "constructor": {
                "params": {
                    "_coinPairPrice": "Address of coin pair price to upgrade",
                    "_emergencyPublishingPeriodInBlocks": "The emergencyPublishingPeriodInBlocks value"
                }
            },
            "delegateCallToChanger(bytes)": {
                "params": {
                    "data": "the serialized function arguments"
                }
            },
            "execute()": {
                "details": "Should be called by the governor, but this contract does not check that explicitly because it is not its responsability in the current architecture"
            }
        },
        "title": "CoinPairEmergencyPeriodInBlocksChange",
        "version": 1
    },
    "userdoc": {
        "kind": "user",
        "methods": {
            "changeIGovernor(address)": {
                "notice": "Change the contract's governor. Should be called through the old governance system"
            },
            "constructor": "Constructor",
            "delegateCallToChanger(bytes)": {
                "notice": "This method is used by a change contract to access the storage freely even without a setter."
            },
            "execute()": {
                "notice": "Execute the changes."
            },
            "governor()": {
                "notice": "The address of the contract which governs this one"
            },
            "impersonate(bytes)": {
                "notice": "Called by the Governed contract delegateCallToChanger method This methods runs in the Governed contract storage."
            }
        },
        "notice": "This contract is a ChangeContract intended to be used to change the emergency publisher period in blocks.",
        "version": 1
    }
}