{
    "contractName": "CoinPairPrice",
    "abi": [
        {
            "anonymous": false,
            "inputs": [
                {
                    "indexed": false,
                    "internalType": "address",
                    "name": "sender",
                    "type": "address"
                },
                {
                    "indexed": false,
                    "internalType": "uint256",
                    "name": "price",
                    "type": "uint256"
                },
                {
                    "indexed": false,
                    "internalType": "address",
                    "name": "votedOracle",
                    "type": "address"
                },
                {
                    "indexed": false,
                    "internalType": "uint256",
                    "name": "blockNumber",
                    "type": "uint256"
                }
            ],
            "name": "EmergencyPricePublished",
            "type": "event"
        },
        {
            "anonymous": false,
            "inputs": [
                {
                    "indexed": false,
                    "internalType": "address",
                    "name": "caller",
                    "type": "address"
                },
                {
                    "indexed": false,
                    "internalType": "uint256",
                    "name": "number",
                    "type": "uint256"
                },
                {
                    "indexed": false,
                    "internalType": "uint256",
                    "name": "totalPoints",
                    "type": "uint256"
                },
                {
                    "indexed": false,
                    "internalType": "uint256",
                    "name": "startBlock",
                    "type": "uint256"
                },
                {
                    "indexed": false,
                    "internalType": "uint256",
                    "name": "lockPeriodTimestamp",
                    "type": "uint256"
                },
                {
                    "indexed": false,
                    "internalType": "address[]",
                    "name": "selectedOracles",
                    "type": "address[]"
                }
            ],
            "name": "NewRound",
            "type": "event"
        },
        {
            "anonymous": false,
            "inputs": [
                {
                    "indexed": false,
                    "internalType": "uint256",
                    "name": "roundNumber",
                    "type": "uint256"
                },
                {
                    "indexed": false,
                    "internalType": "address",
                    "name": "oracleOwnerAddress",
                    "type": "address"
                },
                {
                    "indexed": false,
                    "internalType": "address",
                    "name": "toOwnerAddress",
                    "type": "address"
                },
                {
                    "indexed": false,
                    "internalType": "uint256",
                    "name": "amount",
                    "type": "uint256"
                }
            ],
            "name": "OracleRewardTransfer",
            "type": "event"
        },
        {
            "anonymous": false,
            "inputs": [
                {
                    "indexed": false,
                    "internalType": "address",
                    "name": "sender",
                    "type": "address"
                },
                {
                    "indexed": false,
                    "internalType": "uint256",
                    "name": "price",
                    "type": "uint256"
                },
                {
                    "indexed": false,
                    "internalType": "address",
                    "name": "votedOracle",
                    "type": "address"
                },
                {
                    "indexed": false,
                    "internalType": "uint256",
                    "name": "blockNumber",
                    "type": "uint256"
                }
            ],
            "name": "PricePublished",
            "type": "event"
        },
        {
            "inputs": [],
            "name": "PUBLISH_MESSAGE_VERSION",
            "outputs": [
                {
                    "internalType": "uint256",
                    "name": "",
                    "type": "uint256"
                }
            ],
            "stateMutability": "view",
            "type": "function"
        },
        {
            "inputs": [
                {
                    "internalType": "contract IGovernor",
                    "name": "newIGovernor",
                    "type": "address"
                }
            ],
            "name": "changeIGovernor",
            "outputs": [],
            "stateMutability": "nonpayable",
            "type": "function"
        },
        {
            "inputs": [],
            "name": "coinPair",
            "outputs": [
                {
                    "internalType": "bytes32",
                    "name": "",
                    "type": "bytes32"
                }
            ],
            "stateMutability": "view",
            "type": "function"
        },
        {
            "inputs": [
                {
                    "internalType": "bytes",
                    "name": "data",
                    "type": "bytes"
                }
            ],
            "name": "delegateCallToChanger",
            "outputs": [],
            "stateMutability": "nonpayable",
            "type": "function"
        },
        {
            "inputs": [],
            "name": "emergencyPublishingPeriodInBlocks",
            "outputs": [
                {
                    "internalType": "uint256",
                    "name": "",
                    "type": "uint256"
                }
            ],
            "stateMutability": "view",
            "type": "function"
        },
        {
            "inputs": [],
            "name": "governor",
            "outputs": [
                {
                    "internalType": "contract IGovernor",
                    "name": "",
                    "type": "address"
                }
            ],
            "stateMutability": "view",
            "type": "function"
        },
        {
            "inputs": [],
            "name": "lastPublicationBlock",
            "outputs": [
                {
                    "internalType": "uint256",
                    "name": "",
                    "type": "uint256"
                }
            ],
            "stateMutability": "view",
            "type": "function"
        },
        {
            "inputs": [],
            "name": "maxSubscribedOraclesPerRound",
            "outputs": [
                {
                    "internalType": "uint256",
                    "name": "",
                    "type": "uint256"
                }
            ],
            "stateMutability": "view",
            "type": "function"
        },
        {
            "inputs": [],
            "name": "oracleManager",
            "outputs": [
                {
                    "internalType": "contract OracleManager",
                    "name": "",
                    "type": "address"
                }
            ],
            "stateMutability": "view",
            "type": "function"
        },
        {
            "inputs": [],
            "name": "token",
            "outputs": [
                {
                    "internalType": "contract IERC20",
                    "name": "",
                    "type": "address"
                }
            ],
            "stateMutability": "view",
            "type": "function"
        },
        {
            "inputs": [],
            "name": "validPricePeriodInBlocks",
            "outputs": [
                {
                    "internalType": "uint256",
                    "name": "",
                    "type": "uint256"
                }
            ],
            "stateMutability": "view",
            "type": "function"
        },
        {
            "inputs": [
                {
                    "internalType": "contract IGovernor",
                    "name": "_governor",
                    "type": "address"
                },
                {
                    "internalType": "address[]",
                    "name": "_wlist",
                    "type": "address[]"
                },
                {
                    "internalType": "bytes32",
                    "name": "_coinPair",
                    "type": "bytes32"
                },
                {
                    "internalType": "address",
                    "name": "_tokenAddress",
                    "type": "address"
                },
                {
                    "internalType": "uint256",
                    "name": "_maxOraclesPerRound",
                    "type": "uint256"
                },
                {
                    "internalType": "uint256",
                    "name": "_maxSubscribedOraclesPerRound",
                    "type": "uint256"
                },
                {
                    "internalType": "uint256",
                    "name": "_roundLockPeriod",
                    "type": "uint256"
                },
                {
                    "internalType": "uint256",
                    "name": "_validPricePeriodInBlocks",
                    "type": "uint256"
                },
                {
                    "internalType": "uint256",
                    "name": "_emergencyPublishingPeriodInBlocks",
                    "type": "uint256"
                },
                {
                    "internalType": "uint256",
                    "name": "_bootstrapPrice",
                    "type": "uint256"
                },
                {
                    "internalType": "contract OracleManager",
                    "name": "_oracleManager",
                    "type": "address"
                }
            ],
            "name": "initialize",
            "outputs": [],
            "stateMutability": "nonpayable",
            "type": "function"
        },
        {
            "inputs": [],
            "name": "getPriceProviderType",
            "outputs": [
                {
                    "internalType": "enum IPriceProviderRegisterEntry.IPriceProviderType",
                    "name": "",
                    "type": "uint8"
                }
            ],
            "stateMutability": "pure",
            "type": "function"
        },
        {
            "inputs": [
                {
                    "internalType": "address",
                    "name": "oracleOwnerAddr",
                    "type": "address"
                }
            ],
            "name": "subscribe",
            "outputs": [],
            "stateMutability": "nonpayable",
            "type": "function"
        },
        {
            "inputs": [
                {
                    "internalType": "address",
                    "name": "oracleOwnerAddr",
                    "type": "address"
                }
            ],
            "name": "unsubscribe",
            "outputs": [],
            "stateMutability": "nonpayable",
            "type": "function"
        },
        {
            "inputs": [
                {
                    "internalType": "address",
                    "name": "oracleOwnerAddr",
                    "type": "address"
                }
            ],
            "name": "onWithdraw",
            "outputs": [
                {
                    "internalType": "uint256",
                    "name": "",
                    "type": "uint256"
                }
            ],
            "stateMutability": "nonpayable",
            "type": "function"
        },
        {
            "inputs": [],
            "name": "switchRound",
            "outputs": [],
            "stateMutability": "nonpayable",
            "type": "function"
        },
        {
            "inputs": [
                {
                    "internalType": "uint256",
                    "name": "_version",
                    "type": "uint256"
                },
                {
                    "internalType": "bytes32",
                    "name": "_coinpair",
                    "type": "bytes32"
                },
                {
                    "internalType": "uint256",
                    "name": "_price",
                    "type": "uint256"
                },
                {
                    "internalType": "address",
                    "name": "_votedOracle",
                    "type": "address"
                },
                {
                    "internalType": "uint256",
                    "name": "_blockNumber",
                    "type": "uint256"
                },
                {
                    "internalType": "uint8[]",
                    "name": "_sigV",
                    "type": "uint8[]"
                },
                {
                    "internalType": "bytes32[]",
                    "name": "_sigR",
                    "type": "bytes32[]"
                },
                {
                    "internalType": "bytes32[]",
                    "name": "_sigS",
                    "type": "bytes32[]"
                }
            ],
            "name": "publishPrice",
            "outputs": [],
            "stateMutability": "nonpayable",
            "type": "function"
        },
        {
            "inputs": [
                {
                    "internalType": "uint256",
                    "name": "_price",
                    "type": "uint256"
                }
            ],
            "name": "emergencyPublish",
            "outputs": [],
            "stateMutability": "nonpayable",
            "type": "function"
        },
        {
            "inputs": [],
            "name": "peek",
            "outputs": [
                {
                    "internalType": "bytes32",
                    "name": "",
                    "type": "bytes32"
                },
                {
                    "internalType": "bool",
                    "name": "",
                    "type": "bool"
                }
            ],
            "stateMutability": "view",
            "type": "function"
        },
        {
            "inputs": [],
            "name": "getPrice",
            "outputs": [
                {
                    "internalType": "uint256",
                    "name": "",
                    "type": "uint256"
                }
            ],
            "stateMutability": "view",
            "type": "function"
        },
        {
            "inputs": [],
            "name": "maxOraclesPerRound",
            "outputs": [
                {
                    "internalType": "uint256",
                    "name": "",
                    "type": "uint256"
                }
            ],
            "stateMutability": "view",
            "type": "function"
        },
        {
            "inputs": [],
            "name": "roundLockPeriodSecs",
            "outputs": [
                {
                    "internalType": "uint256",
                    "name": "",
                    "type": "uint256"
                }
            ],
            "stateMutability": "view",
            "type": "function"
        },
        {
            "inputs": [],
            "name": "isRoundFull",
            "outputs": [
                {
                    "internalType": "bool",
                    "name": "",
                    "type": "bool"
                }
            ],
            "stateMutability": "view",
            "type": "function"
        },
        {
            "inputs": [
                {
                    "internalType": "address",
                    "name": "oracleOwnerAddr",
                    "type": "address"
                }
            ],
            "name": "isOracleInCurrentRound",
            "outputs": [
                {
                    "internalType": "bool",
                    "name": "",
                    "type": "bool"
                }
            ],
            "stateMutability": "view",
            "type": "function"
        },
        {
            "inputs": [
                {
                    "internalType": "address",
                    "name": "oracleOwnerAddr",
                    "type": "address"
                }
            ],
            "name": "isSubscribed",
            "outputs": [
                {
                    "internalType": "bool",
                    "name": "",
                    "type": "bool"
                }
            ],
            "stateMutability": "view",
            "type": "function"
        },
        {
            "inputs": [],
            "name": "getAvailableRewardFees",
            "outputs": [
                {
                    "internalType": "uint256",
                    "name": "",
                    "type": "uint256"
                }
            ],
            "stateMutability": "view",
            "type": "function"
        },
        {
            "inputs": [],
            "name": "getRoundInfo",
            "outputs": [
                {
                    "internalType": "uint256",
                    "name": "round",
                    "type": "uint256"
                },
                {
                    "internalType": "uint256",
                    "name": "startBlock",
                    "type": "uint256"
                },
                {
                    "internalType": "uint256",
                    "name": "lockPeriodTimestamp",
                    "type": "uint256"
                },
                {
                    "internalType": "uint256",
                    "name": "totalPoints",
                    "type": "uint256"
                },
                {
                    "internalType": "address[]",
                    "name": "selectedOwners",
                    "type": "address[]"
                },
                {
                    "internalType": "address[]",
                    "name": "selectedOracles",
                    "type": "address[]"
                }
            ],
            "stateMutability": "view",
            "type": "function"
        },
        {
            "inputs": [
                {
                    "internalType": "address",
                    "name": "oracleOwner",
                    "type": "address"
                }
            ],
            "name": "getOracleRoundInfo",
            "outputs": [
                {
                    "internalType": "uint256",
                    "name": "points",
                    "type": "uint256"
                },
                {
                    "internalType": "bool",
                    "name": "selectedInCurrentRound",
                    "type": "bool"
                }
            ],
            "stateMutability": "view",
            "type": "function"
        }
    ],
    "bytecode": "0x608060405234801561001057600080fd5b50614db2806100206000396000f3fe608060405234801561001057600080fd5b50600436106101cf5760003560e01c806384bc76a611610104578063cbf83a04116100a2578063f0cf1db911610071578063f0cf1db9146109aa578063f375b47f146109c8578063fc0c546a146109f1578063feb6e16314610a25576101cf565b8063cbf83a0414610789578063cc53a005146108f5578063dc8990e114610913578063e10cbe291461098c576101cf565b8063abfcb1d1116100de578063abfcb1d114610673578063b6e08330146106cd578063b92ae87c14610711578063bb0d18bc1461076b576101cf565b806384bc76a61461057457806398d5fdca146106375780639a5b378114610655576101cf565b80636801fd5b116101715780637262561c1161014b5780637262561c1461048357806378bf6dad146104c757806380699fb1146104f55780638458c1dd14610513576101cf565b80636801fd5b146103275780636ef57341146103455780637252726014610363576101cf565b80633a82b50d116101ad5780633a82b50d1461023057806341a7726a14610288578063565d878c146102cc57806359e02dd714610300576101cf565b80630c340a24146101d457806334c1e5b514610208578063375e272914610226575b600080fd5b6101dc610a45565b604051808273ffffffffffffffffffffffffffffffffffffffff16815260200191505060405180910390f35b610210610a6b565b6040518082815260200191505060405180910390f35b61022e610a71565b005b6102726004803603602081101561024657600080fd5b81019080803573ffffffffffffffffffffffffffffffffffffffff169060200190929190505050610c78565b6040518082815260200191505060405180910390f35b6102ca6004803603602081101561029e57600080fd5b81019080803573ffffffffffffffffffffffffffffffffffffffff169060200190929190505050610f47565b005b6102d461113a565b604051808273ffffffffffffffffffffffffffffffffffffffff16815260200191505060405180910390f35b610308611160565b6040518083815260200182151581526020019250505060405180910390f35b61032f6112a8565b6040518082815260200191505060405180910390f35b61034d6112ae565b6040518082815260200191505060405180910390f35b610481600480360361016081101561037a57600080fd5b81019080803573ffffffffffffffffffffffffffffffffffffffff169060200190929190803590602001906401000000008111156103b757600080fd5b8201836020820111156103c957600080fd5b803590602001918460208302840111640100000000831117156103eb57600080fd5b909192939192939080359060200190929190803573ffffffffffffffffffffffffffffffffffffffff169060200190929190803590602001909291908035906020019092919080359060200190929190803590602001909291908035906020019092919080359060200190929190803573ffffffffffffffffffffffffffffffffffffffff1690602001909291905050506112bb565b005b6104c56004803603602081101561049957600080fd5b81019080803573ffffffffffffffffffffffffffffffffffffffff169060200190929190505050611783565b005b6104f3600480360360208110156104dd57600080fd5b81019080803590602001909291905050506118c7565b005b6104fd611abd565b6040518082815260200191505060405180910390f35b6105556004803603602081101561052957600080fd5b81019080803573ffffffffffffffffffffffffffffffffffffffff169060200190929190505050611aca565b6040518083815260200182151581526020019250505060405180910390f35b61057c611aea565b604051808781526020018681526020018581526020018481526020018060200180602001838103835285818151815260200191508051906020019060200280838360005b838110156105db5780820151818401526020810190506105c0565b50505050905001838103825284818151815260200191508051906020019060200280838360005b8381101561061d578082015181840152602081019050610602565b505050509050019850505050505050505060405180910390f35b61063f611c9a565b6040518082815260200191505060405180910390f35b61065d611d5a565b6040518082815260200191505060405180910390f35b6106b56004803603602081101561068957600080fd5b81019080803573ffffffffffffffffffffffffffffffffffffffff169060200190929190505050611d60565b60405180821515815260200191505060405180910390f35b61070f600480360360208110156106e357600080fd5b81019080803573ffffffffffffffffffffffffffffffffffffffff169060200190929190505050611d7d565b005b6107536004803603602081101561072757600080fd5b81019080803573ffffffffffffffffffffffffffffffffffffffff169060200190929190505050611f62565b60405180821515815260200191505060405180910390f35b610773611f7f565b6040518082815260200191505060405180910390f35b6108f360048036036101008110156107a057600080fd5b81019080803590602001909291908035906020019092919080359060200190929190803573ffffffffffffffffffffffffffffffffffffffff169060200190929190803590602001909291908035906020019064010000000081111561080557600080fd5b82018360208201111561081757600080fd5b8035906020019184602083028401116401000000008311171561083957600080fd5b90919293919293908035906020019064010000000081111561085a57600080fd5b82018360208201111561086c57600080fd5b8035906020019184602083028401116401000000008311171561088e57600080fd5b9091929391929390803590602001906401000000008111156108af57600080fd5b8201836020820111156108c157600080fd5b803590602001918460208302840111640100000000831117156108e357600080fd5b909192939192939050505061204a565b005b6108fd6128f7565b6040518082815260200191505060405180910390f35b61098a6004803603602081101561092957600080fd5b810190808035906020019064010000000081111561094657600080fd5b82018360208201111561095857600080fd5b8035906020019184600183028401116401000000008311171561097a57600080fd5b90919293919293905050506128fd565b005b610994612c8b565b6040518082815260200191505060405180910390f35b6109b2612c90565b6040518082815260200191505060405180910390f35b6109d0612c96565b604051808260028111156109e057fe5b815260200191505060405180910390f35b6109f9612c9f565b604051808273ffffffffffffffffffffffffffffffffffffffff16815260200191505060405180910390f35b610a2d612cc5565b60405180821515815260200191505060405180910390f35b603360009054906101000a900473ffffffffffffffffffffffffffffffffffffffff1681565b60775481565b60006067600001541115610ae757610a896067612cd6565b610ade576040517f08c379a0000000000000000000000000000000000000000000000000000000008152600401808060200182810382526027815260200180614a2c6027913960400191505060405180910390fd5b610ae6612ce6565b5b610af1606761302e565b6060610b4c607b60009054906101000a900473ffffffffffffffffffffffffffffffffffffffff1673ffffffffffffffffffffffffffffffffffffffff16637a76646060676004015460706130f3909392919063ffffffff16565b905060005b815181108015610b685750610b6660676134a6565b155b15610ba157610b94828281518110610b7c57fe5b602002602001015160676134c290919063ffffffff16565b8080600101915050610b51565b507fbaa39f5ccab881896722a002855fefb557ddeb6b65f492d869c5e411fb6d982233606760000154606760010154606760020154606760030154610be660676134dd565b604051808773ffffffffffffffffffffffffffffffffffffffff16815260200186815260200185815260200184815260200183815260200180602001828103825283818151815260200191508051906020019060200280838360005b83811015610c5d578082015181840152602081019050610c42565b5050505090500197505050505050505060405180910390a150565b6000607b60009054906101000a900473ffffffffffffffffffffffffffffffffffffffff1673ffffffffffffffffffffffffffffffffffffffff163373ffffffffffffffffffffffffffffffffffffffff1614610d3d576040517f08c379a00000000000000000000000000000000000000000000000000000000081526004018080602001828103825260138152602001807f4f7261636c65206d616e61676572206f6e6c790000000000000000000000000081525060200191505060405180910390fd5b610d518260706134f290919063ffffffff16565b610dc3576040517f08c379a000000000000000000000000000000000000000000000000000000000815260040180806020018281038252601b8152602001807f4e6f74207375627363726962656420746f207468697320636f696e000000000081525060200191505060405180910390fd5b610dd782606761351290919063ffffffff16565b610de45760009050610f42565b600080610e3f607b60009054906101000a900473ffffffffffffffffffffffffffffffffffffffff1673ffffffffffffffffffffffffffffffffffffffff16639fe49ea960676006016070613532909392919063ffffffff16565b91509150607b60009054906101000a900473ffffffffffffffffffffffffffffffffffffffff1673ffffffffffffffffffffffffffffffffffffffff16637a766460856040518263ffffffff1660e01b8152600401808273ffffffffffffffffffffffffffffffffffffffff16815260200191505060206040518083038186803b158015610ecc57600080fd5b505afa158015610ee0573d6000803e3d6000fd5b505050506040513d6020811015610ef657600080fd5b8101908080519060200190929190505050811115610f3757610f228460676136ee90919063ffffffff16565b610f368260676134c290919063ffffffff16565b5b606760030154925050505b919050565b607b60009054906101000a900473ffffffffffffffffffffffffffffffffffffffff1673ffffffffffffffffffffffffffffffffffffffff163373ffffffffffffffffffffffffffffffffffffffff161461100a576040517f08c379a00000000000000000000000000000000000000000000000000000000081526004018080602001828103825260138152602001807f4f7261636c65206d616e61676572206f6e6c790000000000000000000000000081525060200191505060405180910390fd5b61101e8160706134f290919063ffffffff16565b15611074576040517f08c379a000000000000000000000000000000000000000000000000000000000815260040180806020018281038252602e815260200180614b28602e913960400191505060405180910390fd5b600061107f8261374e565b9050806110f4576040517f08c379a00000000000000000000000000000000000000000000000000000000081526004018080602001828103825260178152602001807f4e6f7420656e6f756768207374616b6520746f2061646400000000000000000081525060200191505060405180910390fd5b6110fe60676134a6565b15801561111c575061111a82606761351290919063ffffffff16565b155b15611136576111358260676134c290919063ffffffff16565b5b5050565b607b60009054906101000a900473ffffffffffffffffffffffffffffffffffffffff1681565b6000806072600173ffffffffffffffffffffffffffffffffffffffff163373ffffffffffffffffffffffffffffffffffffffff1614806111a657506111a581336138ec565b5b611218576040517f08c379a000000000000000000000000000000000000000000000000000000000815260040180806020018281038252601a8152602001807f41646472657373206973206e6f742077686974656c697374656400000000000081525060200191505060405180910390fd5b607854431015611290576040517f08c379a000000000000000000000000000000000000000000000000000000000815260040180806020018281038252601a8152602001807f57726f6e67206c6173745075626c69636174696f6e426c6f636b00000000000081525060200191505060405180910390fd5b60765460001b60795460785443031092509250509091565b60665481565b6000606760040154905090565b600060019054906101000a900460ff16806112da57506112d96139ae565b5b806112f0575060008054906101000a900460ff16155b611345576040517f08c379a000000000000000000000000000000000000000000000000000000000815260040180806020018281038252602e815260200180614c24602e913960400191505060405180910390fd5b60008060019054906101000a900460ff161590508015611395576001600060016101000a81548160ff02191690831515021790555060016000806101000a81548160ff0219169083151502179055505b60008c8c905014156113f2576040517f08c379a0000000000000000000000000000000000000000000000000000000008152600401808060200182810382526028815260200180614d216028913960400191505060405180910390fd5b6000801b8a141561146b576040517f08c379a00000000000000000000000000000000000000000000000000000000081526004018080602001828103825260178152602001807f436f696e2070616972206d7573742062652076616c696400000000000000000081525060200191505060405180910390fd5b600073ffffffffffffffffffffffffffffffffffffffff168973ffffffffffffffffffffffffffffffffffffffff1614156114f1576040517f08c379a0000000000000000000000000000000000000000000000000000000008152600401808060200182810382526035815260200180614c526035913960400191505060405180910390fd5b6000851161154a576040517f08c379a0000000000000000000000000000000000000000000000000000000008152600401808060200182810382526034815260200180614d496034913960400191505060405180910390fd5b600084116115a3576040517f08c379a000000000000000000000000000000000000000000000000000000000815260040180806020018281038252603d815260200180614ce4603d913960400191505060405180910390fd5b6115ac8d6139c5565b60005b8c8c9050811015611603576115f68d8d838181106115c957fe5b9050602002013573ffffffffffffffffffffffffffffffffffffffff166072613a0990919063ffffffff16565b80806001019150506115af565b508460798190555083607a8190555088607c60006101000a81548173ffffffffffffffffffffffffffffffffffffffff021916908373ffffffffffffffffffffffffffffffffffffffff1602179055508960778190555081607b60006101000a81548173ffffffffffffffffffffffffffffffffffffffff021916908373ffffffffffffffffffffffffffffffffffffffff1602179055506116a58887613b3e565b6067600082015181600001556020820151816001015560408201518160020155606082015181600301556080820151816004015560a0820151816005015560c0820151816006016000820151816000019080519060200190611708929190614892565b5050509050508660668190555061171d613c3e565b60706000820151816000016000820151816000019080519060200190611744929190614892565b50505090505061175383613c61565b80156117745760008060016101000a81548160ff0219169083151502179055505b50505050505050505050505050565b607b60009054906101000a900473ffffffffffffffffffffffffffffffffffffffff1673ffffffffffffffffffffffffffffffffffffffff163373ffffffffffffffffffffffffffffffffffffffff1614611846576040517f08c379a00000000000000000000000000000000000000000000000000000000081526004018080602001828103825260138152602001807f4f7261636c65206d616e61676572206f6e6c790000000000000000000000000081525060200191505060405180910390fd5b61185a8160706134f290919063ffffffff16565b6118af576040517f08c379a000000000000000000000000000000000000000000000000000000000815260040180806020018281038252602a815260200180614b56602a913960400191505060405180910390fd5b6118c3816070613c7290919063ffffffff16565b5050565b6074600173ffffffffffffffffffffffffffffffffffffffff163373ffffffffffffffffffffffffffffffffffffffff16148061190a575061190981336138ec565b5b61197c576040517f08c379a000000000000000000000000000000000000000000000000000000000815260040180806020018281038252601a8152602001807f41646472657373206973206e6f742077686974656c697374656400000000000081525060200191505060405180910390fd5b600082116119d5576040517f08c379a0000000000000000000000000000000000000000000000000000000008152600401808060200182810382526023815260200180614ab96023913960400191505060405180910390fd5b607a54607854014311611a33576040517f08c379a0000000000000000000000000000000000000000000000000000000008152600401808060200182810382526027815260200180614a056027913960400191505060405180910390fd5b611a3c82613c61565b7f2d34955e4dd793c757a5db9d2209461764efa369e205ceeaf4013d10bed7cc19338333607854604051808573ffffffffffffffffffffffffffffffffffffffff1681526020018481526020018373ffffffffffffffffffffffffffffffffffffffff16815260200182815260200194505050505060405180910390a15050565b6000606760050154905090565b600080611ae1836067613c9290919063ffffffff16565b91509150915091565b600080600080606080611afd6067613cf8565b809650819750829850839950849a505050505050815167ffffffffffffffff81118015611b2957600080fd5b50604051908082528060200260200182016040528015611b585781602001602082028036833780820191505090505b50905060005b8251811015611c9157607b60009054906101000a900473ffffffffffffffffffffffffffffffffffffffff1673ffffffffffffffffffffffffffffffffffffffff166354482173848381518110611bb157fe5b60200260200101516040518263ffffffff1660e01b8152600401808273ffffffffffffffffffffffffffffffffffffffff16815260200191505060206040518083038186803b158015611c0357600080fd5b505afa158015611c17573d6000803e3d6000fd5b505050506040513d6020811015611c2d57600080fd5b8101908080519060200190929190505050828281518110611c4a57fe5b602002602001019073ffffffffffffffffffffffffffffffffffffffff16908173ffffffffffffffffffffffffffffffffffffffff16815250508080600101915050611b5e565b50909192939495565b60006072600173ffffffffffffffffffffffffffffffffffffffff163373ffffffffffffffffffffffffffffffffffffffff161480611cdf5750611cde81336138ec565b5b611d51576040517f08c379a000000000000000000000000000000000000000000000000000000000815260040180806020018281038252601a8152602001807f41646472657373206973206e6f742077686974656c697374656400000000000081525060200191505060405180910390fd5b60765491505090565b60795481565b6000611d7682606761351290919063ffffffff16565b9050919050565b603360009054906101000a900473ffffffffffffffffffffffffffffffffffffffff1673ffffffffffffffffffffffffffffffffffffffff1663d994d6d5336040518263ffffffff1660e01b8152600401808273ffffffffffffffffffffffffffffffffffffffff16815260200191505060206040518083038186803b158015611e0657600080fd5b505afa158015611e1a573d6000803e3d6000fd5b505050506040513d6020811015611e3057600080fd5b81019080805190602001909291905050506040518060400160405280601681526020017f6e6f745f617574686f72697a65645f6368616e6765720000000000000000000081525090611f1d576040517f08c379a00000000000000000000000000000000000000000000000000000000081526004018080602001828103825283818151815260200191508051906020019080838360005b83811015611ee2578082015181840152602081019050611ec7565b50505050905090810190601f168015611f0f5780820380516001836020036101000a031916815260200191505b509250505060405180910390fd5b5080603360006101000a81548173ffffffffffffffffffffffffffffffffffffffff021916908373ffffffffffffffffffffffffffffffffffffffff16021790555050565b6000611f788260706134f290919063ffffffff16565b9050919050565b6000607c60009054906101000a900473ffffffffffffffffffffffffffffffffffffffff1673ffffffffffffffffffffffffffffffffffffffff166370a08231306040518263ffffffff1660e01b8152600401808273ffffffffffffffffffffffffffffffffffffffff16815260200191505060206040518083038186803b15801561200a57600080fd5b505afa15801561201e573d6000803e3d6000fd5b505050506040513d602081101561203457600080fd5b8101908080519060200190929190505050905090565b6000607b60009054906101000a900473ffffffffffffffffffffffffffffffffffffffff1673ffffffffffffffffffffffffffffffffffffffff1663c6cd9cd6336040518263ffffffff1660e01b8152600401808273ffffffffffffffffffffffffffffffffffffffff16815260200191505060206040518083038186803b1580156120d557600080fd5b505afa1580156120e9573d6000803e3d6000fd5b505050506040513d60208110156120ff57600080fd5b8101908080519060200190929190505050905060006067600001541161218d576040517f08c379a000000000000000000000000000000000000000000000000000000000815260040180806020018281038252600e8152602001807f526f756e64206e6f74206f70656e00000000000000000000000000000000000081525060200191505060405180910390fd5b6121a181606761351290919063ffffffff16565b6121f6576040517f08c379a0000000000000000000000000000000000000000000000000000000008152600401808060200182810382526026815260200180614bfe6026913960400191505060405180910390fd5b8873ffffffffffffffffffffffffffffffffffffffff163373ffffffffffffffffffffffffffffffffffffffff161461227a576040517f08c379a000000000000000000000000000000000000000000000000000000000815260040180806020018281038252602c815260200180614b80602c913960400191505060405180910390fd5b60038c146122d3576040517f08c379a0000000000000000000000000000000000000000000000000000000008152600401808060200182810382526024815260200180614b046024913960400191505060405180910390fd5b60008a1161232c576040517f08c379a0000000000000000000000000000000000000000000000000000000008152600401808060200182810382526023815260200180614ab96023913960400191505060405180910390fd5b6078548814612386576040517f08c379a0000000000000000000000000000000000000000000000000000000008152600401808060200182810382526035815260200180614caf6035913960400191505060405180910390fd5b6077548b146123fd576040517f08c379a000000000000000000000000000000000000000000000000000000000815260040180806020018281038252601d8152602001807f436f696e2070616972202d20636f6e7472616374206d69736d6174636800000081525060200191505060405180910390fd5b848490508383905014801561241757508686905085859050145b612489576040517f08c379a000000000000000000000000000000000000000000000000000000000815260040180806020018281038252601c8152602001807f496e636f6e73697374656e74207369676e617475726520636f756e740000000081525060200191505060405180910390fd5b60026124956067613d30565b8161249c57fe5b0483839050116124f7576040517f08c379a0000000000000000000000000000000000000000000000000000000008152600401808060200182810382526031815260200180614bcd6031913960400191505060405180910390fd5b60608c8c8c8c8c60405160200180807f19457468657265756d205369676e6564204d6573736167653a0a313438000000815250601d018681526020018581526020018481526020018373ffffffffffffffffffffffffffffffffffffffff1660601b81526014018281526020019550505050505060405160208183030381529060405290506000818051906020012090506000805b8686905081101561284a5760006125de8c8c848181106125a857fe5b9050602002013560ff168b8b858181106125be57fe5b905060200201358a8a868181106125d157fe5b9050602002013587613d45565b9050600073ffffffffffffffffffffffffffffffffffffffff168173ffffffffffffffffffffffffffffffffffffffff161415612683576040517f08c379a00000000000000000000000000000000000000000000000000000000081526004018080602001828103825260188152602001807f43616e6e6f74207265636f766572207369676e6174757265000000000000000081525060200191505060405180910390fd5b6000607b60009054906101000a900473ffffffffffffffffffffffffffffffffffffffff1673ffffffffffffffffffffffffffffffffffffffff1663c6cd9cd6836040518263ffffffff1660e01b8152600401808273ffffffffffffffffffffffffffffffffffffffff16815260200191505060206040518083038186803b15801561270e57600080fd5b505afa158015612722573d6000803e3d6000fd5b505050506040513d602081101561273857600080fd5b8101908080519060200190929190505050905061275f81606761351290919063ffffffff16565b6127b4576040517f08c379a0000000000000000000000000000000000000000000000000000000008152600401808060200182810382526028815260200180614adc6028913960400191505060405180910390fd5b8173ffffffffffffffffffffffffffffffffffffffff168473ffffffffffffffffffffffffffffffffffffffff1610612838576040517f08c379a0000000000000000000000000000000000000000000000000000000008152600401808060200182810382526033815260200180614a536033913960400191505060405180910390fd5b8193505050808060010191505061258c565b506128628460016067613df59092919063ffffffff16565b61286b8d613c61565b7f3a383add96d332943cbe603b4dc1055154e63668959b8d8517ae06c46be46218848e8e8e604051808573ffffffffffffffffffffffffffffffffffffffff1681526020018481526020018373ffffffffffffffffffffffffffffffffffffffff16815260200182815260200194505050505060405180910390a1505050505050505050505050505050565b60785481565b603360009054906101000a900473ffffffffffffffffffffffffffffffffffffffff1673ffffffffffffffffffffffffffffffffffffffff1663d994d6d5336040518263ffffffff1660e01b8152600401808273ffffffffffffffffffffffffffffffffffffffff16815260200191505060206040518083038186803b15801561298657600080fd5b505afa15801561299a573d6000803e3d6000fd5b505050506040513d60208110156129b057600080fd5b81019080805190602001909291905050506040518060400160405280601681526020017f6e6f745f617574686f72697a65645f6368616e6765720000000000000000000081525090612a9d576040517f08c379a00000000000000000000000000000000000000000000000000000000081526004018080602001828103825283818151815260200191508051906020019080838360005b83811015612a62578082015181840152602081019050612a47565b50505050905090810190601f168015612a8f5780820380516001836020036101000a031916815260200191505b509250505060405180910390fd5b50600033905060008173ffffffffffffffffffffffffffffffffffffffff16848460405160240180806020018281038252848482818152602001925080828437600081840152601f19601f82011690508083019250505093505050506040516020818303038152906040527fa16227ca000000000000000000000000000000000000000000000000000000007bffffffffffffffffffffffffffffffffffffffffffffffffffffffff19166020820180517bffffffffffffffffffffffffffffffffffffffffffffffffffffffff83818316178352505050506040518082805190602001908083835b60208310612ba95780518252602082019150602081019050602083039250612b86565b6001836020036101000a038019825116818451168082178552505050505050905001915050600060405180830381855af49150503d8060008114612c09576040519150601f19603f3d011682016040523d82523d6000602084013e612c0e565b606091505b5050905080612c85576040517f08c379a00000000000000000000000000000000000000000000000000000000081526004018080602001828103825260168152602001807f4572726f7220696e2064656c65676174652063616c6c0000000000000000000081525060200191505060405180910390fd5b50505050565b600381565b607a5481565b60006001905090565b607c60009054906101000a900473ffffffffffffffffffffffffffffffffffffffff1681565b6000612cd160676134a6565b905090565b6000816003015442119050919050565b60006067600101541415612cf95761302c565b6000607c60009054906101000a900473ffffffffffffffffffffffffffffffffffffffff1673ffffffffffffffffffffffffffffffffffffffff166370a08231306040518263ffffffff1660e01b8152600401808273ffffffffffffffffffffffffffffffffffffffff16815260200191505060206040518083038186803b158015612d8457600080fd5b505afa158015612d98573d6000803e3d6000fd5b505050506040513d6020811015612dae57600080fd5b810190808051906020019092919050505090506000811415612dd0575061302c565b6000805b612dde6067613d30565b811015613028576000612dfb826067613ea290919063ffffffff16565b90506000612e13826067613ec290919063ffffffff16565b90506000612e41606760010154612e338885613f0e90919063ffffffff16565b613f9490919063ffffffff16565b9050607c60009054906101000a900473ffffffffffffffffffffffffffffffffffffffff1673ffffffffffffffffffffffffffffffffffffffff1663a9059cbb84836040518363ffffffff1660e01b8152600401808373ffffffffffffffffffffffffffffffffffffffff16815260200182815260200192505050602060405180830381600087803b158015612ed657600080fd5b505af1158015612eea573d6000803e3d6000fd5b505050506040513d6020811015612f0057600080fd5b8101908080519060200190929190505050612f83576040517f08c379a00000000000000000000000000000000000000000000000000000000081526004018080602001828103825260158152602001807f546f6b656e207472616e73666572206661696c6564000000000000000000000081525060200191505060405180910390fd5b612f968186613fde90919063ffffffff16565b94507f27084250b484355b65cb33c62c64ac793324a1026770765b85817409a2b22e4d606760000154848584604051808581526020018473ffffffffffffffffffffffffffffffffffffffff1681526020018373ffffffffffffffffffffffffffffffffffffffff16815260200182815260200194505050505060405180910390a15050508080600101915050612dd4565b5050505b565b60005b61303d82600601614066565b8110156130ab57816008016000613060838560060161407790919063ffffffff16565b73ffffffffffffffffffffffffffffffffffffffff1673ffffffffffffffffffffffffffffffffffffffff168152602001908152602001600020600090558080600101915050613031565b5060018160000154018160000181905550600081600101819055506001430181600201819055508060050154600142010181600301819055506130f081600601614137565b50565b60606130fe856141e8565b8211156131115761310e856141e8565b91505b8167ffffffffffffffff8111801561312857600080fd5b506040519080825280602002602001820160405280156131575781602001602082028036833780820191505090505b50905060008214156131685761349e565b6131738560006141fd565b8160008151811061318057fe5b602002602001019073ffffffffffffffffffffffffffffffffffffffff16908173ffffffffffffffffffffffffffffffffffffffff16815250506000600190505b6131ca866141e8565b81101561349c5760006131dd87836141fd565b905060008686836040518263ffffffff1660e01b8152600401808273ffffffffffffffffffffffffffffffffffffffff16815260200191505060206040518083038186803b15801561322e57600080fd5b505afa158015613242573d6000803e3d6000fd5b505050506040513d602081101561325857600080fd5b81019080805190602001909291905050509050600083905085811061332757600186039050878786838151811061328b57fe5b60200260200101516040518263ffffffff1660e01b8152600401808273ffffffffffffffffffffffffffffffffffffffff16815260200191505060206040518083038186803b1580156132dd57600080fd5b505afa1580156132f1573d6000803e3d6000fd5b505050506040513d602081101561330757600080fd5b810190808051906020019092919050505082116133265750505061348f565b5b5b6000811180156133d45750878786600184038151811061334457fe5b60200260200101516040518263ffffffff1660e01b8152600401808273ffffffffffffffffffffffffffffffffffffffff16815260200191505060206040518083038186803b15801561339657600080fd5b505afa1580156133aa573d6000803e3d6000fd5b505050506040513d60208110156133c057600080fd5b810190808051906020019092919050505082115b15613444578460018203815181106133e857fe5b60200260200101518582815181106133fc57fe5b602002602001019073ffffffffffffffffffffffffffffffffffffffff16908173ffffffffffffffffffffffffffffffffffffffff1681525050808060019003915050613328565b8285828151811061345157fe5b602002602001019073ffffffffffffffffffffffffffffffffffffffff16908173ffffffffffffffffffffffffffffffffffffffff16815250505050505b80806001019150506131c1565b505b949350505050565b600081600401546134b983600601614066565b10159050919050565b6134d8818360060161421d90919063ffffffff16565b505050565b60606134eb826006016142f3565b9050919050565b600061350a828460000161438590919063ffffffff16565b905092915050565b600061352a828460060161438590919063ffffffff16565b905092915050565b6000806000613540876141e8565b905060608167ffffffffffffffff8111801561355b57600080fd5b5060405190808252806020026020018201604052801561358a5781602001602082028036833780820191505090505b5090506000805b838110156136215760006135a58b836141fd565b90506135ba818961438590919063ffffffff16565b156135c55750613614565b808484815181106135d257fe5b602002602001019073ffffffffffffffffffffffffffffffffffffffff16908173ffffffffffffffffffffffffffffffffffffffff1681525050600183019250505b8080600101915050613591565b508787836040518263ffffffff1660e01b81526004018080602001828103825283818151815260200191508051906020019060200280838360005b8381101561367757808201518184015260208101905061365c565b5050505090500192505050604080518083038186803b15801561369957600080fd5b505afa1580156136ad573d6000803e3d6000fd5b505050506040513d60408110156136c357600080fd5b8101908080519060200190929190805190602001909291905050509450945050505094509492505050565b61370481836006016143d490919063ffffffff16565b508160080160008273ffffffffffffffffffffffffffffffffffffffff1673ffffffffffffffffffffffffffffffffffffffff168152602001908152602001600020600090555050565b600060665461375d60706141e8565b101561377e576137778260706145b990919063ffffffff16565b90506138e7565b6000806137d3607b60009054906101000a900473ffffffffffffffffffffffffffffffffffffffff1673ffffffffffffffffffffffffffffffffffffffff16637a76646060706145d99092919063ffffffff16565b915091506000607b60009054906101000a900473ffffffffffffffffffffffffffffffffffffffff1673ffffffffffffffffffffffffffffffffffffffff16637a766460866040518263ffffffff1660e01b8152600401808273ffffffffffffffffffffffffffffffffffffffff16815260200191505060206040518083038186803b15801561386257600080fd5b505afa158015613876573d6000803e3d6000fd5b505050506040513d602081101561388c57600080fd5b81019080805190602001909291905050509050828111156138df576138bb826070613c7290919063ffffffff16565b156138de576138d48560706145b990919063ffffffff16565b93505050506138e7565b5b600093505050505b919050565b60008073ffffffffffffffffffffffffffffffffffffffff168273ffffffffffffffffffffffffffffffffffffffff161415613990576040517f08c379a00000000000000000000000000000000000000000000000000000000081526004018080602001828103825260178152602001807f4163636f756e74206d757374206e6f742062652030783000000000000000000081525060200191505060405180910390fd5b6139a6828460000161438590919063ffffffff16565b905092915050565b6000803090506000813b9050600081149250505090565b80603360006101000a81548173ffffffffffffffffffffffffffffffffffffffff021916908373ffffffffffffffffffffffffffffffffffffffff16021790555050565b600073ffffffffffffffffffffffffffffffffffffffff168173ffffffffffffffffffffffffffffffffffffffff161415613aac576040517f08c379a00000000000000000000000000000000000000000000000000000000081526004018080602001828103825260178152602001807f4163636f756e74206d757374206e6f742062652030783000000000000000000081525060200191505060405180910390fd5b6000613ac4828460000161421d90919063ffffffff16565b905080613b39576040517f08c379a000000000000000000000000000000000000000000000000000000000815260040180806020018281038252601b8152602001807f4163636f756e7420616c72656164792077686974656c6973746564000000000081525060200191505060405180910390fd5b505050565b613b4661491c565b60008311613b9f576040517f08c379a0000000000000000000000000000000000000000000000000000000008152600401808060200182810382526028815260200180614c876028913960400191505060405180910390fd5b60008211613bf8576040517f08c379a0000000000000000000000000000000000000000000000000000000008152600401808060200182810382526033815260200180614a866033913960400191505060405180910390fd5b6040518060e0016040528060008152602001600081526020016000815260200160008152602001848152602001838152602001613c33614769565b815250905092915050565b613c4661495f565b6040518060200160405280613c59614769565b815250905090565b436078819055508060768190555050565b6000613c8a82846000016143d490919063ffffffff16565b905092915050565b6000808360080160008473ffffffffffffffffffffffffffffffffffffffff1673ffffffffffffffffffffffffffffffffffffffff16815260200190815260200160002054613ced848660060161438590919063ffffffff16565b915091509250929050565b60008060008060608560000154866002015487600301548860010154613d1d8a6134dd565b9450945094509450945091939590929450565b6000613d3e82600601614066565b9050919050565b600080859050601b8160ff161015613d5e57601b810190505b601b8160ff1614158015613d765750601c8160ff1614155b15613d85576000915050613ded565b60018382878760405160008152602001604052604051808581526020018460ff1681526020018381526020018281526020019450505050506020604051602081039080840390855afa158015613ddf573d6000803e3d6000fd5b505050602060405103519150505b949350505050565b613e49818460080160008573ffffffffffffffffffffffffffffffffffffffff1673ffffffffffffffffffffffffffffffffffffffff16815260200190815260200160002054613fde90919063ffffffff16565b8360080160008473ffffffffffffffffffffffffffffffffffffffff1673ffffffffffffffffffffffffffffffffffffffff16815260200190815260200160002081905550808360010154018360010181905550505050565b6000613eba828460060161407790919063ffffffff16565b905092915050565b60008260080160008373ffffffffffffffffffffffffffffffffffffffff1673ffffffffffffffffffffffffffffffffffffffff16815260200190815260200160002054905092915050565b600080831415613f215760009050613f8e565b6000828402905082848281613f3257fe5b0414613f89576040517f08c379a0000000000000000000000000000000000000000000000000000000008152600401808060200182810382526021815260200180614bac6021913960400191505060405180910390fd5b809150505b92915050565b6000613fd683836040518060400160405280601a81526020017f536166654d6174683a206469766973696f6e206279207a65726f0000000000008152506147cc565b905092915050565b60008082840190508381101561405c576040517f08c379a000000000000000000000000000000000000000000000000000000000815260040180806020018281038252601b8152602001807f536166654d6174683a206164646974696f6e206f766572666c6f77000000000081525060200191505060405180910390fd5b8091505092915050565b600081600001805490509050919050565b6000818360000180549050116140f5576040517f08c379a00000000000000000000000000000000000000000000000000000000081526004018080602001828103825260138152602001807f696e646578206f7574206f6620626f756e64730000000000000000000000000081525060200191505060405180910390fd5b82600001828154811061410457fe5b9060005260206000200160009054906101000a900473ffffffffffffffffffffffffffffffffffffffff16905092915050565b60005b81600001805490508110156141d45781600101600083600001838154811061415e57fe5b9060005260206000200160009054906101000a900473ffffffffffffffffffffffffffffffffffffffff1673ffffffffffffffffffffffffffffffffffffffff1673ffffffffffffffffffffffffffffffffffffffff16815260200190815260200160002060009055808060010191505061413a565b508060000160006141e59190614978565b50565b60006141f682600001614066565b9050919050565b6000614215828460000161407790919063ffffffff16565b905092915050565b60006142298383614385565b6142e85782600001829080600181540180825580915050600190039060005260206000200160009091909190916101000a81548173ffffffffffffffffffffffffffffffffffffffff021916908373ffffffffffffffffffffffffffffffffffffffff16021790555082600001805490508360010160008473ffffffffffffffffffffffffffffffffffffffff1673ffffffffffffffffffffffffffffffffffffffff16815260200190815260200160002081905550600190506142ed565b600090505b92915050565b60608160000180548060200260200160405190810160405280929190818152602001828054801561437957602002820191906000526020600020905b8160009054906101000a900473ffffffffffffffffffffffffffffffffffffffff1673ffffffffffffffffffffffffffffffffffffffff168152602001906001019080831161432f575b50505050509050919050565b6000808360010160008473ffffffffffffffffffffffffffffffffffffffff1673ffffffffffffffffffffffffffffffffffffffff168152602001908152602001600020541415905092915050565b6000808360010160008473ffffffffffffffffffffffffffffffffffffffff1673ffffffffffffffffffffffffffffffffffffffff168152602001908152602001600020549050600081146145ad576000600182039050600060018660000180549050039050600086600001828154811061444b57fe5b9060005260206000200160009054906101000a900473ffffffffffffffffffffffffffffffffffffffff1690508087600001848154811061448857fe5b9060005260206000200160006101000a81548173ffffffffffffffffffffffffffffffffffffffff021916908373ffffffffffffffffffffffffffffffffffffffff160217905550600183018760010160008373ffffffffffffffffffffffffffffffffffffffff1673ffffffffffffffffffffffffffffffffffffffff168152602001908152602001600020819055508660000180548061452657fe5b6001900381819060005260206000200160006101000a81549073ffffffffffffffffffffffffffffffffffffffff021916905590558660010160008773ffffffffffffffffffffffffffffffffffffffff1673ffffffffffffffffffffffffffffffffffffffff1681526020019081526020016000206000905560019450505050506145b3565b60009150505b92915050565b60006145d1828460000161421d90919063ffffffff16565b905092915050565b60008060006145e7866141e8565b14156145f95760008091509150614761565b6146048560006141fd565b90508383826040518263ffffffff1660e01b8152600401808273ffffffffffffffffffffffffffffffffffffffff16815260200191505060206040518083038186803b15801561465357600080fd5b505afa158015614667573d6000803e3d6000fd5b505050506040513d602081101561467d57600080fd5b810190808051906020019092919050505091506000600190505b6146a0866141e8565b81101561475f5760006146b387836141fd565b905060008686836040518263ffffffff1660e01b8152600401808273ffffffffffffffffffffffffffffffffffffffff16815260200191505060206040518083038186803b15801561470457600080fd5b505afa158015614718573d6000803e3d6000fd5b505050506040513d602081101561472e57600080fd5b8101908080519060200190929190505050905084811015614750578094508193505b50508080600101915050614697565b505b935093915050565b614771614999565b6040518060200160405280600067ffffffffffffffff8111801561479457600080fd5b506040519080825280602002602001820160405280156147c35781602001602082028036833780820191505090505b50815250905090565b60008083118290614878576040517f08c379a00000000000000000000000000000000000000000000000000000000081526004018080602001828103825283818151815260200191508051906020019080838360005b8381101561483d578082015181840152602081019050614822565b50505050905090810190601f16801561486a5780820380516001836020036101000a031916815260200191505b509250505060405180910390fd5b50600083858161488457fe5b049050809150509392505050565b82805482825590600052602060002090810192821561490b579160200282015b8281111561490a5782518260006101000a81548173ffffffffffffffffffffffffffffffffffffffff021916908373ffffffffffffffffffffffffffffffffffffffff160217905550916020019190600101906148b2565b5b50905061491891906149ac565b5090565b6040518060e00160405280600081526020016000815260200160008152602001600081526020016000815260200160008152602001614959614999565b81525090565b6040518060200160405280614972614999565b81525090565b508054600082559060005260206000209081019061499691906149e7565b50565b6040518060200160405280606081525090565b5b808211156149e357600081816101000a81549073ffffffffffffffffffffffffffffffffffffffff0219169055506001016149ad565b5090565b5b80821115614a005760008160009055506001016149e8565b509056fe456d657267656e6379207075626c69736820706572696f64206469646e277420737461727465645468652063757272656e7420726f756e64206c6f636b20706572696f64206973206163746976655369676e61747572657320617265206e6f7420756e69717565206f72206e6f74206f726465726564206279206164647265737354686520726f756e64206c6f636b20706572696f64206d75737420626520706f73697469766520616e64206e6f6e207a65726f5072696365206d75737420626520706f73697469766520616e64206e6f6e2d7a65726f41646472657373206f66207369676e6572206e6f742070617274206f66207468697320726f756e645468697320636f6e74726163742061636365707473206f6e6c7920563320666f726d61744f7261636c6520697320616c7265616479207375627363726962656420746f207468697320636f696e20706169724f7261636c65206973206e6f74207375627363726962656420746f207468697320636f696e2070616972596f7572206164647265737320646f6573206e6f74206d617463682074686520766f746564206f7261636c65536166654d6174683a206d756c7469706c69636174696f6e206f766572666c6f775369676e617475726520636f756e74206d7573742065786365656420353025206f6620616374697665206f7261636c6573566f746572206f7261636c65206973206e6f742070617274206f66207468697320726f756e64436f6e747261637420696e7374616e63652068617320616c7265616479206265656e20696e697469616c697a6564546865204d4f4320746f6b656e2061646472657373206d7573742062652070726f766964656420696e20636f6e7374727563746f72546865206d6178696d756d206f7261636c65732070657220726f756e64206d757374206265203e30426c6f636b6e756d62657220646f6573206e6f74206d6174636820746865206c617374207075626c69636174696f6e20626c6f636b54686520656d657267656e6379207075626c697368696e6720706572696f64206d75737420626520706f73697469766520616e64206e6f6e207a65726f57686974656c697374206d7573742068617665206174206c65617374206f6e6520656c656d656e745468652076616c696420707269636520706572696f64206d75737420626520706f73697469766520616e64206e6f6e207a65726fa2646970667358221220eda77ec21e1691e29a2fb62676819bfffe2fd8114f6d261585355cf5ffcd6c9764736f6c634300060c0033",
    "immutableReferences": {},
    "source": "// SPDX-License-Identifier: UNLICENSED\npragma solidity 0.6.12;\n\nimport {SafeMath} from \"@openzeppelin/contracts-ethereum-package/contracts/math/SafeMath.sol\";\nimport {IERC20} from \"@openzeppelin/contracts-ethereum-package/contracts/token/ERC20/IERC20.sol\";\nimport {IGovernor} from \"@moc/shared/contracts/moc-governance/Governance/IGovernor.sol\";\nimport {Governed} from \"@moc/shared/contracts/moc-governance/Governance/Governed.sol\";\nimport {IPriceProvider} from \"@moc/shared/contracts/IPriceProvider.sol\";\nimport {IPriceProviderRegisterEntry} from \"@moc/shared/contracts/IPriceProviderRegisterEntry.sol\";\nimport {RoundInfoLib} from \"./libs/RoundInfoLib.sol\";\nimport {AddressSetLib} from \"./libs/AddressSetLib.sol\";\nimport {SubscribedOraclesLib} from \"./libs/SubscribedOraclesLib.sol\";\nimport {OracleManager} from \"./OracleManager.sol\";\nimport {IterableWhitelistLib} from \"./libs/IterableWhitelistLib.sol\";\nimport {CoinPairPriceStorage} from \"./CoinPairPriceStorage.sol\";\n\n/// @title This contract provides an interface for feeding prices from oracles, and\n///        get the current price. One contract must be instanced per supported coin pair,\n///        and registered through OracleManager global contract.\ncontract CoinPairPrice is CoinPairPriceStorage, IPriceProvider, IPriceProviderRegisterEntry {\n    using SubscribedOraclesLib for SubscribedOraclesLib.SubscribedOracles;\n    using SafeMath for uint256;\n\n    event OracleRewardTransfer(\n        uint256 roundNumber,\n        address oracleOwnerAddress,\n        address toOwnerAddress,\n        uint256 amount\n    );\n    event PricePublished(address sender, uint256 price, address votedOracle, uint256 blockNumber);\n    event EmergencyPricePublished(\n        address sender,\n        uint256 price,\n        address votedOracle,\n        uint256 blockNumber\n    );\n    event NewRound(\n        address caller,\n        uint256 number,\n        uint256 totalPoints,\n        uint256 startBlock,\n        uint256 lockPeriodTimestamp,\n        address[] selectedOracles\n    );\n\n    /// @notice Construct a new contract\n    /// @param _governor The governor address.\n    /// @param _wlist List of whitelisted contracts (those that can get the price).\n    /// @param _coinPair The coinpair, ex: USDBTC.\n    /// @param _tokenAddress The address of the MOC token to use.\n    /// @param _maxOraclesPerRound The maximum count of oracles selected to participate each round\n    /// @param _maxSubscribedOraclesPerRound The maximum count of subscribed oracles\n    /// @param _roundLockPeriod The minimum time span for each round before a new one can be started, in secs.\n    /// @param _validPricePeriodInBlocks The time span for which the last published price is valid.\n    /// @param _emergencyPublishingPeriodInBlocks The number of blocks that must pass after a publication after which\n    //          an emergency publishing must be enabled\n    /// @param _bootstrapPrice A price to be set as a bootstraping value for this block\n    /// @param _oracleManager The contract of the oracle manager.\n    function initialize(\n        IGovernor _governor,\n        address[] calldata _wlist,\n        bytes32 _coinPair,\n        address _tokenAddress,\n        uint256 _maxOraclesPerRound,\n        uint256 _maxSubscribedOraclesPerRound,\n        uint256 _roundLockPeriod,\n        uint256 _validPricePeriodInBlocks,\n        uint256 _emergencyPublishingPeriodInBlocks,\n        uint256 _bootstrapPrice,\n        OracleManager _oracleManager\n    ) external initializer {\n        require(_wlist.length != 0, \"Whitelist must have at least one element\");\n        require(_coinPair != bytes32(0), \"Coin pair must be valid\");\n        require(\n            _tokenAddress != address(0),\n            \"The MOC token address must be provided in constructor\"\n        );\n        require(\n            _validPricePeriodInBlocks > 0,\n            \"The valid price period must be positive and non zero\"\n        );\n        require(\n            _emergencyPublishingPeriodInBlocks > 0,\n            \"The emergency publishing period must be positive and non zero\"\n        );\n\n        Governed._initialize(_governor);\n\n        for (uint256 i = 0; i < _wlist.length; i++) {\n            pricePeekWhitelistData._addToWhitelist(_wlist[i]);\n        }\n        validPricePeriodInBlocks = _validPricePeriodInBlocks;\n        emergencyPublishingPeriodInBlocks = _emergencyPublishingPeriodInBlocks;\n        token = IERC20(_tokenAddress);\n        coinPair = _coinPair;\n        oracleManager = _oracleManager;\n        roundInfo = RoundInfoLib.initRoundInfo(_maxOraclesPerRound, _roundLockPeriod);\n        maxSubscribedOraclesPerRound = _maxSubscribedOraclesPerRound;\n        subscribedOracles = SubscribedOraclesLib.init();\n        _publish(_bootstrapPrice);\n    }\n\n    /// @notice return the type of provider\n    function getPriceProviderType() external override pure returns (IPriceProviderType) {\n        return IPriceProviderType.Published;\n    }\n\n    /// @notice subscribe an oracle to this coin pair , allowing it to be selected in rounds.\n    /// @param oracleOwnerAddr the oracle address to subscribe to this coin pair.\n    /// @dev This is designed to be called from OracleManager.\n    function subscribe(address oracleOwnerAddr) external onlyOracleManager {\n        require(\n            !subscribedOracles.contains(oracleOwnerAddr),\n            \"Oracle is already subscribed to this coin pair\"\n        );\n\n        bool added = _addOrReplaceSubscribedOracle(oracleOwnerAddr);\n        require(added, \"Not enough stake to add\");\n\n        // If the round is not full, then add\n        if (!roundInfo.isFull() && !roundInfo.isSelected(oracleOwnerAddr)) {\n            roundInfo.addOracleToRound(oracleOwnerAddr);\n        }\n    }\n\n    /// @notice Unsubscribe an oracle from this coin pair , disallowing it to be selected in rounds.\n    /// @param oracleOwnerAddr the oracle address to subscribe to this coin pair.\n    /// @dev This is designed to be called from OracleManager.\n    function unsubscribe(address oracleOwnerAddr) external onlyOracleManager {\n        require(\n            subscribedOracles.contains(oracleOwnerAddr),\n            \"Oracle is not subscribed to this coin pair\"\n        );\n\n        subscribedOracles.remove(oracleOwnerAddr);\n    }\n\n    /// @notice The oracle owner has withdrawn some stake.\n    /// Must check if the oracle is part of current round and if he lost his place with the\n    /// new stake value (the stake is global and is saved in the supporters contract).\n    /// @param oracleOwnerAddr the oracle owner that is trying to withdraw\n    function onWithdraw(address oracleOwnerAddr) external onlyOracleManager returns (uint256) {\n        require(subscribedOracles.contains(oracleOwnerAddr), \"Not subscribed to this coin\");\n\n        if (!roundInfo.isSelected(oracleOwnerAddr)) {\n            // not participating in current round, its ok to withdraw.\n            return 0;\n        }\n\n        // If the current balance is lower than the unselected address that has the maximum stake\n        // Then the oracle is replaces\n        (address addr, uint256 stake) = subscribedOracles.getMaxUnselectedStake(\n            oracleManager.getMaxStake,\n            roundInfo.selectedOracles\n        );\n        if (stake > oracleManager.getStake(oracleOwnerAddr)) {\n            // The oracleOwnerAddr has lost his place in current round\n            roundInfo.removeOracleFromRound(oracleOwnerAddr);\n            roundInfo.addOracleToRound(addr);\n        }\n        return roundInfo.lockPeriodTimestamp;\n    }\n\n    //\n    /// @notice Switch contract context to a new round. With the objective of\n    /// being a decentralized solution, this can be called by *anyone* if current\n    /// round lock period is expired.\n    function switchRound() external {\n        if (roundInfo.number > 0) {\n            // Not before the first round\n            require(roundInfo.isReadyToSwitch(), \"The current round lock period is active\");\n            _distributeRewards();\n        }\n\n        // Setup new round parameters\n        roundInfo.switchRound();\n\n        // Select top stake oracles to participate on this round\n        address[] memory selected = subscribedOracles.sort(\n            oracleManager.getStake,\n            roundInfo.maxOraclesPerRound\n        );\n        for (uint256 i = 0; i < selected.length && !roundInfo.isFull(); i++) {\n            roundInfo.addOracleToRound(selected[i]);\n        }\n        emit NewRound(\n            msg.sender,\n            roundInfo.number,\n            roundInfo.totalPoints,\n            roundInfo.startBlock,\n            roundInfo.lockPeriodTimestamp,\n            roundInfo.asArray()\n        );\n    }\n\n    /// @notice Publish a price.\n    /// @param _version Version number of message format (3)\n    /// @param _coinpair The coin pair to report (must match this contract)\n    /// @param _price Price to report.\n    /// @param _votedOracle The address of the oracle voted as a publisher by the network.\n    /// @param _blockNumber The blocknumber acting as nonce to prevent replay attacks.\n    /// @param _sigV The array of V-component of Oracle signatures.\n    /// @param _sigR The array of R-component of Oracle signatures.\n    /// @param _sigS The array of S-component of Oracle signatures.\n    function publishPrice(\n        uint256 _version,\n        bytes32 _coinpair,\n        uint256 _price,\n        address _votedOracle,\n        uint256 _blockNumber,\n        uint8[] calldata _sigV,\n        bytes32[] calldata _sigR,\n        bytes32[] calldata _sigS\n    ) external {\n        address ownerAddr = oracleManager.getOracleOwner(msg.sender);\n        require(roundInfo.number > 0, \"Round not open\");\n        // require(subscribedOracles.contains(ownerAddr), \"Sender oracle not subscribed\");\n        require(roundInfo.isSelected(ownerAddr), \"Voter oracle is not part of this round\");\n        require(msg.sender == _votedOracle, \"Your address does not match the voted oracle\");\n        require(_version == PUBLISH_MESSAGE_VERSION, \"This contract accepts only V3 format\");\n        require(_price > 0, \"Price must be positive and non-zero\");\n        require(\n            _blockNumber == lastPublicationBlock,\n            \"Blocknumber does not match the last publication block\"\n        );\n        require(_coinpair == coinPair, \"Coin pair - contract mismatch\");\n\n        // Verify signatures\n        require(\n            _sigS.length == _sigR.length && _sigR.length == _sigV.length,\n            \"Inconsistent signature count\"\n        );\n        require(\n            _sigS.length > roundInfo.length() / 2,\n            \"Signature count must exceed 50% of active oracles\"\n        );\n\n        //\n        // NOTE: Message Size is 148 = sizeof(uint256) +\n        // sizeof(uint256) + sizeof(uint256) + sizeof(address) +sizeof(uint256)\n        //\n\n        bytes memory hData = abi.encodePacked(\n            \"\\x19Ethereum Signed Message:\\n148\",\n            _version,\n            _coinpair,\n            _price,\n            _votedOracle,\n            _blockNumber\n        );\n        bytes32 messageHash = keccak256(hData);\n\n        address lastAddr = address(0);\n        for (uint256 i = 0; i < _sigS.length; i++) {\n            address rec = _recoverSigner(_sigV[i], _sigR[i], _sigS[i], messageHash);\n            require(rec != address(0), \"Cannot recover signature\");\n            address ownerRec = oracleManager.getOracleOwner(rec);\n            // require(subscribedOracles.contains(ownerRec), \"Signing oracle not subscribed\");\n            require(roundInfo.isSelected(ownerRec), \"Address of signer not part of this round\");\n            require(lastAddr < rec, \"Signatures are not unique or not ordered by address\");\n            lastAddr = rec;\n        }\n\n        roundInfo.addPoints(ownerAddr, 1);\n        _publish(_price);\n\n        emit PricePublished(ownerAddr, _price, _votedOracle, _blockNumber);\n    }\n\n    /// @notice Publish a price without signature validation (when there is an emergecy!!!).\n    /// @param _price Price to report.\n    function emergencyPublish(uint256 _price)\n        external\n        whitelistedOrExternal(emergencyPublishWhitelistData)\n    {\n        require(_price > 0, \"Price must be positive and non-zero\");\n        require(\n            block.number > lastPublicationBlock + emergencyPublishingPeriodInBlocks,\n            \"Emergency publish period didn't started\"\n        );\n\n        _publish(_price);\n\n        emit EmergencyPricePublished(msg.sender, _price, msg.sender, lastPublicationBlock);\n    }\n\n    /// @notice Return the current price, compatible with old MOC Oracle\n    function peek()\n        external\n        override\n        view\n        whitelistedOrExternal(pricePeekWhitelistData)\n        returns (bytes32, bool)\n    {\n        require(block.number >= lastPublicationBlock, \"Wrong lastPublicationBlock\");\n\n        return (\n            bytes32(currentPrice),\n            (block.number - lastPublicationBlock) < validPricePeriodInBlocks\n        );\n    }\n\n    /// @notice Return the current price\n    function getPrice()\n        external\n        view\n        whitelistedOrExternal(pricePeekWhitelistData)\n        returns (uint256)\n    {\n        return currentPrice;\n    }\n\n    // The maximum count of oracles selected to participate each round\n    function maxOraclesPerRound() external view returns (uint256) {\n        return roundInfo.maxOraclesPerRound;\n    }\n\n    // The maximum count of oracles selected to participate each round\n    function roundLockPeriodSecs() external view returns (uint256) {\n        return roundInfo.roundLockPeriodSecs;\n    }\n\n    function isRoundFull() external view returns (bool) {\n        return roundInfo.isFull();\n    }\n\n    function isOracleInCurrentRound(address oracleOwnerAddr) external view returns (bool) {\n        return roundInfo.isSelected(oracleOwnerAddr);\n    }\n\n    /// @notice Returns true if an oracle is subscribed to this contract' coin pair\n    /// @param oracleOwnerAddr the oracle address to lookup.\n    /// @dev This is designed to be called from OracleManager.\n    function isSubscribed(address oracleOwnerAddr) external view returns (bool) {\n        return subscribedOracles.contains(oracleOwnerAddr);\n    }\n\n    /// @notice Return the available reward fees\n    ///\n    function getAvailableRewardFees() external view returns (uint256) {\n        return token.balanceOf(address(this));\n    }\n\n    /// @notice Return current round information\n    function getRoundInfo()\n        external\n        view\n        returns (\n            uint256 round,\n            uint256 startBlock,\n            uint256 lockPeriodTimestamp,\n            uint256 totalPoints,\n            address[] memory selectedOwners,\n            address[] memory selectedOracles\n        )\n    {\n        (round, startBlock, lockPeriodTimestamp, totalPoints, selectedOwners) = roundInfo\n            .getRoundInfo();\n        selectedOracles = new address[](selectedOwners.length);\n        for (uint256 i = 0; i < selectedOwners.length; i++) {\n            selectedOracles[i] = oracleManager.getOracleAddress(selectedOwners[i]);\n        }\n    }\n\n    /// @notice Return round information for specific oracle\n    function getOracleRoundInfo(address oracleOwner)\n        external\n        view\n        returns (uint256 points, bool selectedInCurrentRound)\n    {\n        return roundInfo.getOracleRoundInfo(oracleOwner);\n    }\n\n    // ----------------------------------------------------------------------------------------------------------------\n    // Internal functions\n    // ----------------------------------------------------------------------------------------------------------------\n\n    /// @notice add or replace and oracle from the subscribed list of oracles.\n    function _addOrReplaceSubscribedOracle(address oracleOwnerAddr) internal returns (bool) {\n        if (subscribedOracles.length() < maxSubscribedOraclesPerRound) {\n            return subscribedOracles.add(oracleOwnerAddr);\n        }\n        (uint256 minStake, address minVal) = subscribedOracles.getMin(oracleManager.getStake);\n        uint256 vStake = oracleManager.getStake(oracleOwnerAddr);\n        if (vStake > minStake) {\n            if (subscribedOracles.remove(minVal)) {\n                return subscribedOracles.add(oracleOwnerAddr);\n            }\n        }\n        return false;\n    }\n\n    /// @notice Distribute rewards to oracles, taking fees from this smart contract.\n    function _distributeRewards() private {\n        if (roundInfo.totalPoints == 0) return;\n        uint256 availableRewardFees = token.balanceOf(address(this));\n        if (availableRewardFees == 0) return;\n\n        // Distribute according to points/TotalPoints ratio\n        uint256 distSum = 0;\n        for (uint256 i = 0; i < roundInfo.length(); i++) {\n            address oracleOwnerAddr = roundInfo.at(i);\n            uint256 points = roundInfo.getPoints(oracleOwnerAddr);\n            uint256 distAmount = ((points).mul(availableRewardFees)).div(roundInfo.totalPoints);\n            require(token.transfer(oracleOwnerAddr, distAmount), \"Token transfer failed\");\n            distSum = distSum.add(distAmount);\n            emit OracleRewardTransfer(\n                roundInfo.number,\n                oracleOwnerAddr,\n                oracleOwnerAddr,\n                distAmount\n            );\n        }\n    }\n\n    // @notice publish a price, called only after verification.\n    function _publish(uint256 _price) private {\n        lastPublicationBlock = block.number;\n        currentPrice = _price;\n    }\n\n    /// @notice Recover signer address from v,r,s signature components and hash\n    ///\n    function _recoverSigner(\n        uint8 v,\n        bytes32 r,\n        bytes32 s,\n        bytes32 hash\n    ) private pure returns (address) {\n        uint8 v0 = v;\n\n        // Version of signature should be 27 or 28, but 0 and 1 are also possible versions\n        if (v0 < 27) {\n            v0 += 27;\n        }\n\n        // If the version is correct return the signer address\n        if (v0 != 27 && v0 != 28) {\n            return (address(0));\n        } else {\n            return ecrecover(hash, v0, r, s);\n        }\n    }\n}\n",
    "sourcePath": "/home/adji/Desktop/work/coinfabrik/moc-oraculos/contracts/CoinPairPrice.sol",
    "compiler": {
        "name": "solc",
        "version": "0.6.12+commit.27d51765.Emscripten.clang"
    },
    "schemaVersion": "3.2.4",
    "updatedAt": "2020-09-15T15:02:42.746Z",
    "devdoc": {
        "kind": "dev",
        "methods": {
            "changeIGovernor(address)": {
                "params": {
                    "newIGovernor": "New governor address"
                }
            },
            "delegateCallToChanger(bytes)": {
                "params": {
                    "data": "the serialized function arguments"
                }
            },
            "emergencyPublish(uint256)": {
                "params": {
                    "_price": "Price to report."
                }
            },
            "initialize(address,address[],bytes32,address,uint256,uint256,uint256,uint256,uint256,uint256,address)": {
                "params": {
                    "_bootstrapPrice": "A price to be set as a bootstraping value for this block",
                    "_oracleManager": "The contract of the oracle manager."
                }
            },
            "isSubscribed(address)": {
                "details": "This is designed to be called from OracleManager.",
                "params": {
                    "oracleOwnerAddr": "the oracle address to lookup."
                }
            },
            "onWithdraw(address)": {
                "params": {
                    "oracleOwnerAddr": "the oracle owner that is trying to withdraw"
                }
            },
            "publishPrice(uint256,bytes32,uint256,address,uint256,uint8[],bytes32[],bytes32[])": {
                "params": {
                    "_blockNumber": "The blocknumber acting as nonce to prevent replay attacks.",
                    "_coinpair": "The coin pair to report (must match this contract)",
                    "_price": "Price to report.",
                    "_sigR": "The array of R-component of Oracle signatures.",
                    "_sigS": "The array of S-component of Oracle signatures.",
                    "_sigV": "The array of V-component of Oracle signatures.",
                    "_version": "Version number of message format (3)",
                    "_votedOracle": "The address of the oracle voted as a publisher by the network."
                }
            },
            "subscribe(address)": {
                "details": "This is designed to be called from OracleManager.",
                "params": {
                    "oracleOwnerAddr": "the oracle address to subscribe to this coin pair."
                }
            },
            "unsubscribe(address)": {
                "details": "This is designed to be called from OracleManager.",
                "params": {
                    "oracleOwnerAddr": "the oracle address to subscribe to this coin pair."
                }
            }
        },
        "title": "This contract provides an interface for feeding prices from oracles, and        get the current price. One contract must be instanced per supported coin pair,        and registered through OracleManager global contract.",
        "version": 1
    },
    "userdoc": {
        "kind": "user",
        "methods": {
            "changeIGovernor(address)": {
                "notice": "Change the contract's governor. Should be called through the old governance system"
            },
            "delegateCallToChanger(bytes)": {
                "notice": "This method is used by a change contract to access the storage freely even without a setter."
            },
            "emergencyPublish(uint256)": {
                "notice": "Publish a price without signature validation (when there is an emergecy!!!)."
            },
            "getAvailableRewardFees()": {
                "notice": "Return the available reward fees"
            },
            "getOracleRoundInfo(address)": {
                "notice": "Return round information for specific oracle"
            },
            "getPrice()": {
                "notice": "Return the current price"
            },
            "getPriceProviderType()": {
                "notice": "return the type of provider"
            },
            "getRoundInfo()": {
                "notice": "Return current round information"
            },
            "governor()": {
                "notice": "The address of the contract which governs this one"
            },
            "isSubscribed(address)": {
                "notice": "Returns true if an oracle is subscribed to this contract' coin pair"
            },
            "onWithdraw(address)": {
                "notice": "The oracle owner has withdrawn some stake. Must check if the oracle is part of current round and if he lost his place with the new stake value (the stake is global and is saved in the supporters contract)."
            },
            "peek()": {
                "notice": "Return the current price, compatible with old MOC Oracle"
            },
            "publishPrice(uint256,bytes32,uint256,address,uint256,uint8[],bytes32[],bytes32[])": {
                "notice": "Publish a price."
            },
            "subscribe(address)": {
                "notice": "subscribe an oracle to this coin pair , allowing it to be selected in rounds."
            },
            "switchRound()": {
                "notice": "Switch contract context to a new round. With the objective of being a decentralized solution, this can be called by *anyone* if current round lock period is expired."
            },
            "unsubscribe(address)": {
                "notice": "Unsubscribe an oracle from this coin pair , disallowing it to be selected in rounds."
            }
        },
        "version": 1
    }
}