{
  "contractName": "CoinPairPriceFree",
  "abi": [
    {
      "inputs": [],
      "name": "coinPairPrice",
      "outputs": [
        {
          "internalType": "contract IPriceProvider",
          "name": "",
          "type": "address"
        }
      ],
      "stateMutability": "view",
      "type": "function"
    },
    {
      "inputs": [
        {
          "internalType": "contract IPriceProvider",
          "name": "_coinPairPrice",
          "type": "address"
        }
      ],
      "name": "initialize",
      "outputs": [],
      "stateMutability": "nonpayable",
      "type": "function"
    },
    {
      "inputs": [],
      "name": "peek",
      "outputs": [
        {
          "internalType": "bytes32",
          "name": "",
          "type": "bytes32"
        },
        {
          "internalType": "bool",
          "name": "",
          "type": "bool"
        }
      ],
      "stateMutability": "view",
      "type": "function"
    }
  ],
  "bytecode": "0x608060405234801561001057600080fd5b5061037d806100206000396000f3fe608060405234801561001057600080fd5b50600436106100415760003560e01c80634b6123041461004657806359e02dd71461007a578063c4d66de8146100a1575b600080fd5b61004e6100e5565b604051808273ffffffffffffffffffffffffffffffffffffffff16815260200191505060405180910390f35b61008261010b565b6040518083815260200182151581526020019250505060405180910390f35b6100e3600480360360208110156100b757600080fd5b81019080803573ffffffffffffffffffffffffffffffffffffffff1690602001909291905050506101c2565b005b603360009054906101000a900473ffffffffffffffffffffffffffffffffffffffff1681565b600080603360009054906101000a900473ffffffffffffffffffffffffffffffffffffffff1673ffffffffffffffffffffffffffffffffffffffff166359e02dd76040518163ffffffff1660e01b8152600401604080518083038186803b15801561017557600080fd5b505afa158015610189573d6000803e3d6000fd5b505050506040513d604081101561019f57600080fd5b810190808051906020019092919080519060200190929190505050915091509091565b600060019054906101000a900460ff16806101e157506101e0610302565b5b806101f7575060008054906101000a900460ff16155b61024c576040517f08c379a000000000000000000000000000000000000000000000000000000000815260040180806020018281038252602e81526020018061031a602e913960400191505060405180910390fd5b60008060019054906101000a900460ff16159050801561029c576001600060016101000a81548160ff02191690831515021790555060016000806101000a81548160ff0219169083151502179055505b81603360006101000a81548173ffffffffffffffffffffffffffffffffffffffff021916908373ffffffffffffffffffffffffffffffffffffffff16021790555080156102fe5760008060016101000a81548160ff0219169083151502179055505b5050565b6000803090506000813b905060008114925050509056fe436f6e747261637420696e7374616e63652068617320616c7265616479206265656e20696e697469616c697a6564a2646970667358221220033a0bd69e9ae89806345090c5377411ad6ef2fc1cda86441f2494a4279698e364736f6c634300060c0033",
  "immutableReferences": {},
  "source": "// SPDX-License-Identifier: UNLICENSED\npragma solidity 0.6.12;\n\nimport {IPriceProvider} from \"@moc/shared/contracts/IPriceProvider.sol\";\nimport {Initializable} from \"@openzeppelin/contracts-ethereum-package/contracts/Initializable.sol\";\n\n/// @title This contract provides an interface for feeding prices from oracles, and\n///        get the current price. One contract must be instanced per supported coin pair,\n///        and registered through OracleManager global contract.\ncontract CoinPairPriceFree is Initializable, IPriceProvider {\n    IPriceProvider public coinPairPrice;\n\n    function initialize(IPriceProvider _coinPairPrice) public initializer {\n        coinPairPrice = _coinPairPrice;\n    }\n\n    /// @notice Return the current price, compatible with old MOC Oracle\n    function peek() external override view returns (bytes32, bool) {\n        return coinPairPrice.peek();\n    }\n}\n",
  "sourcePath": "/home/adji/Desktop/work/coinfabrik/moc-oraculos/contracts/CoinPairPriceFree.sol",
  "compiler": {
    "name": "solc",
    "version": "0.6.12+commit.27d51765.Emscripten.clang"
  },
  "schemaVersion": "3.2.4",
  "updatedAt": "2020-09-11T20:34:45.452Z",
  "devdoc": {
    "kind": "dev",
    "methods": {},
    "title": "This contract provides an interface for feeding prices from oracles, and        get the current price. One contract must be instanced per supported coin pair,        and registered through OracleManager global contract.",
    "version": 1
  },
  "userdoc": {
    "kind": "user",
    "methods": {
      "peek()": {
        "notice": "Return the current price, compatible with old MOC Oracle"
      }
    },
    "version": 1
  }
}