{
    "contractName": "CoinPairPriceAddCalculatedPriceProviderChange",
    "abi": [
        {
            "inputs": [
                {
                    "internalType": "address",
                    "name": "_calculatedPriceProvider",
                    "type": "address"
                },
                {
                    "internalType": "contract Governed[]",
                    "name": "_coinPairPrices",
                    "type": "address[]"
                }
            ],
            "stateMutability": "nonpayable",
            "type": "constructor"
        },
        {
            "inputs": [],
            "name": "PUBLISH_MESSAGE_VERSION",
            "outputs": [
                {
                    "internalType": "uint256",
                    "name": "",
                    "type": "uint256"
                }
            ],
            "stateMutability": "view",
            "type": "function"
        },
        {
            "inputs": [
                {
                    "internalType": "contract IGovernor",
                    "name": "newIGovernor",
                    "type": "address"
                }
            ],
            "name": "changeIGovernor",
            "outputs": [],
            "stateMutability": "nonpayable",
            "type": "function"
        },
        {
            "inputs": [],
            "name": "coinPair",
            "outputs": [
                {
                    "internalType": "bytes32",
                    "name": "",
                    "type": "bytes32"
                }
            ],
            "stateMutability": "view",
            "type": "function"
        },
        {
            "inputs": [
                {
                    "internalType": "uint256",
                    "name": "",
                    "type": "uint256"
                }
            ],
            "name": "coinPairPrices",
            "outputs": [
                {
                    "internalType": "contract Governed",
                    "name": "",
                    "type": "address"
                }
            ],
            "stateMutability": "view",
            "type": "function"
        },
        {
            "inputs": [
                {
                    "internalType": "bytes",
                    "name": "data",
                    "type": "bytes"
                }
            ],
            "name": "delegateCallToChanger",
            "outputs": [],
            "stateMutability": "nonpayable",
            "type": "function"
        },
        {
            "inputs": [],
            "name": "emergencyPublishingPeriodInBlocks",
            "outputs": [
                {
                    "internalType": "uint256",
                    "name": "",
                    "type": "uint256"
                }
            ],
            "stateMutability": "view",
            "type": "function"
        },
        {
            "inputs": [],
            "name": "encodedData",
            "outputs": [
                {
                    "internalType": "bytes",
                    "name": "",
                    "type": "bytes"
                }
            ],
            "stateMutability": "view",
            "type": "function"
        },
        {
            "inputs": [],
            "name": "governor",
            "outputs": [
                {
                    "internalType": "contract IGovernor",
                    "name": "",
                    "type": "address"
                }
            ],
            "stateMutability": "view",
            "type": "function"
        },
        {
            "inputs": [],
            "name": "lastPublicationBlock",
            "outputs": [
                {
                    "internalType": "uint256",
                    "name": "",
                    "type": "uint256"
                }
            ],
            "stateMutability": "view",
            "type": "function"
        },
        {
            "inputs": [],
            "name": "maxSubscribedOraclesPerRound",
            "outputs": [
                {
                    "internalType": "uint256",
                    "name": "",
                    "type": "uint256"
                }
            ],
            "stateMutability": "view",
            "type": "function"
        },
        {
            "inputs": [],
            "name": "oracleManager",
            "outputs": [
                {
                    "internalType": "contract OracleManager",
                    "name": "",
                    "type": "address"
                }
            ],
            "stateMutability": "view",
            "type": "function"
        },
        {
            "inputs": [],
            "name": "token",
            "outputs": [
                {
                    "internalType": "contract IERC20",
                    "name": "",
                    "type": "address"
                }
            ],
            "stateMutability": "view",
            "type": "function"
        },
        {
            "inputs": [],
            "name": "validPricePeriodInBlocks",
            "outputs": [
                {
                    "internalType": "uint256",
                    "name": "",
                    "type": "uint256"
                }
            ],
            "stateMutability": "view",
            "type": "function"
        },
        {
            "inputs": [],
            "name": "execute",
            "outputs": [],
            "stateMutability": "nonpayable",
            "type": "function"
        },
        {
            "inputs": [
                {
                    "internalType": "bytes",
                    "name": "data",
                    "type": "bytes"
                }
            ],
            "name": "impersonate",
            "outputs": [],
            "stateMutability": "nonpayable",
            "type": "function"
        }
    ],
    "bytecode": "0x60806040523480156200001157600080fd5b5060405162000cec38038062000cec8339810160408190526200003491620001c2565b8160405160200162000047919062000290565b60405160208183030381529060405260b090805190602001906200006d9291906200008c565b508051620000839060af90602084019062000111565b505050620002e4565b828054600181600116156101000203166002900490600052602060002090601f016020900481019282601f10620000cf57805160ff1916838001178555620000ff565b82800160010185558215620000ff579182015b82811115620000ff578251825591602001919060010190620000e2565b506200010d92915062000177565b5090565b82805482825590600052602060002090810192821562000169579160200282015b828111156200016957825182546001600160a01b0319166001600160a01b0390911617825560209092019160019091019062000132565b506200010d9291506200018e565b5b808211156200010d576000815560010162000178565b5b808211156200010d5780546001600160a01b03191681556001016200018f565b8051620001bc81620002cb565b92915050565b60008060408385031215620001d5578182fd5b8251620001e281620002cb565b602084810151919350906001600160401b038082111562000201578384fd5b818601915086601f83011262000215578384fd5b81518181111562000224578485fd5b838102915062000236848301620002a4565b8181528481019084860184860187018b101562000251578788fd5b8795505b838610156200027f576200026a8b82620001af565b83526001959095019491860191860162000255565b508096505050505050509250929050565b6001600160a01b0391909116815260200190565b6040518181016001600160401b0381118282101715620002c357600080fd5b604052919050565b6001600160a01b0381168114620002e157600080fd5b50565b6109f880620002f46000396000f3fe608060405234801561001057600080fd5b50600436106100f55760003560e01c8063a16227ca11610097578063dc8990e111610066578063dc8990e1146101a5578063e10cbe29146101b8578063f0cf1db9146101c0578063fc0c546a146101c8576100f5565b8063a16227ca14610162578063b6e0833014610175578063cc53a00514610188578063d2b0bf7c14610190576100f5565b806361461954116100d357806361461954146101355780636801fd5b1461013f5780637a267c08146101475780639a5b37811461015a576100f5565b80630c340a24146100fa57806334c1e5b514610118578063565d878c1461012d575b600080fd5b6101026101d0565b60405161010f91906107ee565b60405180910390f35b6101206101df565b60405161010f9190610802565b6101026101e5565b61013d6101f4565b005b610120610289565b61010261015536600461078e565b61028f565b6101206102b6565b61013d610170366004610721565b6102bc565b61013d6101833660046106de565b6102d7565b6101206103d0565b6101986103d6565b60405161010f919061083a565b61013d6101b3366004610721565b610464565b6101206105e8565b6101206105ed565b6101026105f3565b6033546001600160a01b031681565b60775481565b607b546001600160a01b031681565b60005b60af548110156102865760af818154811061020e57fe5b60009182526020909120015460405163dc8990e160e01b81526001600160a01b039091169063dc8990e1906102489060b09060040161084d565b600060405180830381600087803b15801561026257600080fd5b505af1158015610276573d6000803e3d6000fd5b5050600190920191506101f79050565b50565b60665481565b60af818154811061029c57fe5b6000918252602090912001546001600160a01b0316905081565b60795481565b6102d36102cb828401846106de565b607290610602565b5050565b60335460405163d994d6d560e01b81526001600160a01b039091169063d994d6d5906103079033906004016107ee565b60206040518083038186803b15801561031f57600080fd5b505afa158015610333573d6000803e3d6000fd5b505050506040513d601f19601f820116820180604052508101906103579190610701565b604051806040016040528060168152602001753737ba2fb0baba3437b934bd32b22fb1b430b733b2b960511b815250906103ad5760405162461bcd60e51b81526004016103a4919061083a565b60405180910390fd5b50603380546001600160a01b0319166001600160a01b0392909216919091179055565b60785481565b60b0805460408051602060026001851615610100026000190190941693909304601f8101849004840282018401909252818152929183018282801561045c5780601f106104315761010080835404028352916020019161045c565b820191906000526020600020905b81548152906001019060200180831161043f57829003601f168201915b505050505081565b60335460405163d994d6d560e01b81526001600160a01b039091169063d994d6d5906104949033906004016107ee565b60206040518083038186803b1580156104ac57600080fd5b505afa1580156104c0573d6000803e3d6000fd5b505050506040513d601f19601f820116820180604052508101906104e49190610701565b604051806040016040528060168152602001753737ba2fb0baba3437b934bd32b22fb1b430b733b2b960511b815250906105315760405162461bcd60e51b81526004016103a4919061083a565b506040513390600090829061054c908690869060240161080b565b60408051601f198184030181529181526020820180516001600160e01b03166350b113e560e11b1790525161058191906107d2565b600060405180830381855af49150503d80600081146105bc576040519150601f19603f3d011682016040523d82523d6000602084013e6105c1565b606091505b50509050806105e25760405162461bcd60e51b81526004016103a49061090e565b50505050565b600381565b607a5481565b607c546001600160a01b031681565b6001600160a01b0381166106285760405162461bcd60e51b81526004016103a49061093e565b60006106348383610658565b9050806106535760405162461bcd60e51b81526004016103a4906108d7565b505050565b600061066483836106bd565b6106b357508154600180820184556000848152602080822090930180546001600160a01b0319166001600160a01b038616908117909155855490825282860190935260409020919091556106b7565b5060005b92915050565b6001600160a01b031660009081526001919091016020526040902054151590565b6000602082840312156106ef578081fd5b81356106fa816109ad565b9392505050565b600060208284031215610712578081fd5b815180151581146106fa578182fd5b60008060208385031215610733578081fd5b823567ffffffffffffffff8082111561074a578283fd5b818501915085601f83011261075d578283fd5b81358181111561076b578384fd5b86602082850101111561077c578384fd5b60209290920196919550909350505050565b60006020828403121561079f578081fd5b5035919050565b600081518084526107be816020860160208601610981565b601f01601f19169290920160200192915050565b600082516107e4818460208701610981565b9190910192915050565b6001600160a01b0391909116815260200190565b90815260200190565b60006020825282602083015282846040840137818301604090810191909152601f909201601f19160101919050565b6000602082526106fa60208301846107a6565b600060208083018184528285546001808216600081146108745760018114610892576108ca565b60028304607f16855260ff19831660408901526060880193506108ca565b600283048086526108a28a610975565b885b828110156108c05781548b8201604001529084019088016108a4565b8a01604001955050505b5091979650505050505050565b6020808252601b908201527f4163636f756e7420616c72656164792077686974656c69737465640000000000604082015260600190565b602080825260169082015275115c9c9bdc881a5b8819195b1959d85d194818d85b1b60521b604082015260600190565b60208082526017908201527f4163636f756e74206d757374206e6f7420626520307830000000000000000000604082015260600190565b60009081526020902090565b60005b8381101561099c578181015183820152602001610984565b838111156105e25750506000910152565b6001600160a01b038116811461028657600080fdfea26469706673582212201a7039a5ab18c675704c569a7dfd22ca9f9558aa4fcbb5d6a5a3461bb1a25eb764736f6c634300060c0033",
    "immutableReferences": {},
    "source": "// SPDX-License-Identifier: UNLICENSED\npragma solidity 0.6.12;\npragma experimental ABIEncoderV2;\n\nimport {ChangeContract} from \"@moc/shared/contracts/moc-governance/Governance/ChangeContract.sol\";\nimport {CoinPairPriceStorage} from \"../CoinPairPriceStorage.sol\";\nimport {Governed} from \"@moc/shared/contracts/moc-governance/Governance/Governed.sol\";\n\n//import {IterableWhitelist} from \"../libs/IterableWhitelist.sol\";\n\n/**\n  @title CoinPairPriceAddCoinPairCalculatorChange\n  @notice This contract is a ChangeContract intended to be used to whitelist a coinPairPriceCalculator\n  in various CoinPaiPrice contracts at once.\n */\ncontract CoinPairPriceAddCalculatedPriceProviderChange is CoinPairPriceStorage, ChangeContract {\n    Governed[] public coinPairPrices;\n    bytes public encodedData;\n\n    /**\n      @notice Constructor\n      @param _calculatedPriceProvider Address of coin pair price calculator to add to whitelists\n      @param _coinPairPrices List of coinPairPrice contracts that must whitelist the _coinPairPriceCalculator Address\n    */\n    constructor(address _calculatedPriceProvider, Governed[] memory _coinPairPrices) public {\n        encodedData = abi.encode(_calculatedPriceProvider);\n        coinPairPrices = _coinPairPrices;\n    }\n\n    /**\n      @notice Execute the changes.\n      @dev Should be called by the governor, but this contract does not check that explicitly\n      because it is not its responsability in the current architecture\n     */\n    function execute() external override {\n        for (uint256 i = 0; i < coinPairPrices.length; i++) {\n            coinPairPrices[i].delegateCallToChanger(encodedData);\n        }\n        // TODO: Make it usable just once.\n    }\n\n    /**\n        Called by the Governed contract delegateCallToChanger method\n        This methods runs in the Governed contract storage.\n    */\n    function impersonate(bytes calldata data) external {\n        pricePeekWhitelistData._addToWhitelist(abi.decode(data, (address)));\n    }\n}\n",
    "sourcePath": "/home/adji/Desktop/work/coinfabrik/moc-oraculos/contracts/change/CoinPairPriceAddCalculatedPriceProviderChange.sol",
    "compiler": {
        "name": "solc",
        "version": "0.6.12+commit.27d51765.Emscripten.clang"
    },
    "schemaVersion": "3.2.4",
    "updatedAt": "2020-09-15T18:51:47.136Z",
    "devdoc": {
        "kind": "dev",
        "methods": {
            "changeIGovernor(address)": {
                "params": {
                    "newIGovernor": "New governor address"
                }
            },
            "constructor": {
                "params": {
                    "_calculatedPriceProvider": "Address of coin pair price calculator to add to whitelists",
                    "_coinPairPrices": "List of coinPairPrice contracts that must whitelist the _coinPairPriceCalculator Address"
                }
            },
            "delegateCallToChanger(bytes)": {
                "params": {
                    "data": "the serialized function arguments"
                }
            },
            "execute()": {
                "details": "Should be called by the governor, but this contract does not check that explicitly because it is not its responsability in the current architecture"
            }
        },
        "title": "CoinPairPriceAddCoinPairCalculatorChange",
        "version": 1
    },
    "userdoc": {
        "kind": "user",
        "methods": {
            "changeIGovernor(address)": {
                "notice": "Change the contract's governor. Should be called through the old governance system"
            },
            "constructor": "Constructor",
            "delegateCallToChanger(bytes)": {
                "notice": "This method is used by a change contract to access the storage freely even without a setter."
            },
            "execute()": {
                "notice": "Execute the changes."
            },
            "governor()": {
                "notice": "The address of the contract which governs this one"
            },
            "impersonate(bytes)": {
                "notice": "Called by the Governed contract delegateCallToChanger method This methods runs in the Governed contract storage."
            }
        },
        "notice": "This contract is a ChangeContract intended to be used to whitelist a coinPairPriceCalculator in various CoinPaiPrice contracts at once.",
        "version": 1
    }
}