{
  "contractName": "CoinPairEmergencyWhitelistChange",
  "abi": [
    {
      "inputs": [
        {
          "internalType": "contract Governed",
          "name": "_coinPairPrice",
          "type": "address"
        },
        {
          "internalType": "address",
          "name": "_emergencyPublisher",
          "type": "address"
        }
      ],
      "stateMutability": "nonpayable",
      "type": "constructor"
    },
    {
      "inputs": [
        {
          "internalType": "contract IGovernor",
          "name": "newIGovernor",
          "type": "address"
        }
      ],
      "name": "changeIGovernor",
      "outputs": [],
      "stateMutability": "nonpayable",
      "type": "function"
    },
    {
      "inputs": [],
      "name": "coinPair",
      "outputs": [
        {
          "internalType": "bytes32",
          "name": "",
          "type": "bytes32"
        }
      ],
      "stateMutability": "view",
      "type": "function"
    },
    {
      "inputs": [],
      "name": "coinPairPrice",
      "outputs": [
        {
          "internalType": "contract Governed",
          "name": "",
          "type": "address"
        }
      ],
      "stateMutability": "view",
      "type": "function"
    },
    {
      "inputs": [
        {
          "internalType": "bytes",
          "name": "data",
          "type": "bytes"
        }
      ],
      "name": "delegateCallToChanger",
      "outputs": [],
      "stateMutability": "nonpayable",
      "type": "function"
    },
    {
      "inputs": [],
      "name": "emergencyPublishingPeriodInBlocks",
      "outputs": [
        {
          "internalType": "uint256",
          "name": "",
          "type": "uint256"
        }
      ],
      "stateMutability": "view",
      "type": "function"
    },
    {
      "inputs": [],
      "name": "encodedData",
      "outputs": [
        {
          "internalType": "bytes",
          "name": "",
          "type": "bytes"
        }
      ],
      "stateMutability": "view",
      "type": "function"
    },
    {
      "inputs": [],
      "name": "governor",
      "outputs": [
        {
          "internalType": "contract IGovernor",
          "name": "",
          "type": "address"
        }
      ],
      "stateMutability": "view",
      "type": "function"
    },
    {
      "inputs": [],
      "name": "lastPublicationBlock",
      "outputs": [
        {
          "internalType": "uint256",
          "name": "",
          "type": "uint256"
        }
      ],
      "stateMutability": "view",
      "type": "function"
    },
    {
      "inputs": [],
      "name": "oracleManager",
      "outputs": [
        {
          "internalType": "contract OracleManager",
          "name": "",
          "type": "address"
        }
      ],
      "stateMutability": "view",
      "type": "function"
    },
    {
      "inputs": [],
      "name": "token",
      "outputs": [
        {
          "internalType": "contract IERC20",
          "name": "",
          "type": "address"
        }
      ],
      "stateMutability": "view",
      "type": "function"
    },
    {
      "inputs": [],
      "name": "validPricePeriodInBlocks",
      "outputs": [
        {
          "internalType": "uint256",
          "name": "",
          "type": "uint256"
        }
      ],
      "stateMutability": "view",
      "type": "function"
    },
    {
      "inputs": [],
      "name": "execute",
      "outputs": [],
      "stateMutability": "nonpayable",
      "type": "function"
    },
    {
      "inputs": [
        {
          "internalType": "bytes",
          "name": "data",
          "type": "bytes"
        }
      ],
      "name": "impersonate",
      "outputs": [],
      "stateMutability": "nonpayable",
      "type": "function"
    }
  ],
  "bytecode": "0x608060405234801561001057600080fd5b5060405161101e38038061101e8339818101604052604081101561003357600080fd5b8101908080519060200190929190805190602001909291905050508160af60006101000a81548173ffffffffffffffffffffffffffffffffffffffff021916908373ffffffffffffffffffffffffffffffffffffffff16021790555080604051602001808273ffffffffffffffffffffffffffffffffffffffff16815260200191505060405160208183030381529060405260b090805190602001906100da9291906100e2565b50505061017f565b828054600181600116156101000203166002900490600052602060002090601f016020900481019282601f1061012357805160ff1916838001178555610151565b82800160010185558215610151579182015b82811115610150578251825591602001919060010190610135565b5b50905061015e9190610162565b5090565b5b8082111561017b576000816000905550600101610163565b5090565b610e908061018e6000396000f3fe608060405234801561001057600080fd5b50600436106100cf5760003560e01c8063a16227ca1161008c578063d2b0bf7c11610066578063d2b0bf7c14610291578063dc8990e114610314578063f0cf1db91461038d578063fc0c546a146103ab576100cf565b8063a16227ca146101b6578063b6e083301461022f578063cc53a00514610273576100cf565b80630c340a24146100d457806334c1e5b5146101085780634b61230414610126578063565d878c1461015a578063614619541461018e5780639a5b378114610198575b600080fd5b6100dc6103df565b604051808273ffffffffffffffffffffffffffffffffffffffff16815260200191505060405180910390f35b610110610405565b6040518082815260200191505060405180910390f35b61012e61040b565b604051808273ffffffffffffffffffffffffffffffffffffffff16815260200191505060405180910390f35b610162610431565b604051808273ffffffffffffffffffffffffffffffffffffffff16815260200191505060405180910390f35b610196610457565b005b6101a0610569565b6040518082815260200191505060405180910390f35b61022d600480360360208110156101cc57600080fd5b81019080803590602001906401000000008111156101e957600080fd5b8201836020820111156101fb57600080fd5b8035906020019184600183028401116401000000008311171561021d57600080fd5b909192939192939050505061056f565b005b6102716004803603602081101561024557600080fd5b81019080803573ffffffffffffffffffffffffffffffffffffffff1690602001909291905050506105bd565b005b61027b6107a2565b6040518082815260200191505060405180910390f35b6102996107a8565b6040518080602001828103825283818151815260200191508051906020019080838360005b838110156102d95780820151818401526020810190506102be565b50505050905090810190601f1680156103065780820380516001836020036101000a031916815260200191505b509250505060405180910390f35b61038b6004803603602081101561032a57600080fd5b810190808035906020019064010000000081111561034757600080fd5b82018360208201111561035957600080fd5b8035906020019184600183028401116401000000008311171561037b57600080fd5b9091929391929390505050610846565b005b610395610bd4565b6040518082815260200191505060405180910390f35b6103b3610bda565b604051808273ffffffffffffffffffffffffffffffffffffffff16815260200191505060405180910390f35b603360009054906101000a900473ffffffffffffffffffffffffffffffffffffffff1681565b60775481565b60af60009054906101000a900473ffffffffffffffffffffffffffffffffffffffff1681565b607b60009054906101000a900473ffffffffffffffffffffffffffffffffffffffff1681565b60af60009054906101000a900473ffffffffffffffffffffffffffffffffffffffff1673ffffffffffffffffffffffffffffffffffffffff1663dc8990e160b06040518263ffffffff1660e01b8152600401808060200182810382528381815460018160011615610100020316600290048152602001915080546001816001161561010002031660029004801561052f5780601f106105045761010080835404028352916020019161052f565b820191906000526020600020905b81548152906001019060200180831161051257829003601f168201915b505092505050600060405180830381600087803b15801561054f57600080fd5b505af1158015610563573d6000803e3d6000fd5b50505050565b60795481565b6105b98282602081101561058257600080fd5b81019080803573ffffffffffffffffffffffffffffffffffffffff1690602001909291905050506074610c0090919063ffffffff16565b5050565b603360009054906101000a900473ffffffffffffffffffffffffffffffffffffffff1673ffffffffffffffffffffffffffffffffffffffff1663d994d6d5336040518263ffffffff1660e01b8152600401808273ffffffffffffffffffffffffffffffffffffffff16815260200191505060206040518083038186803b15801561064657600080fd5b505afa15801561065a573d6000803e3d6000fd5b505050506040513d602081101561067057600080fd5b81019080805190602001909291905050506040518060400160405280601681526020017f6e6f745f617574686f72697a65645f6368616e676572000000000000000000008152509061075d576040517f08c379a00000000000000000000000000000000000000000000000000000000081526004018080602001828103825283818151815260200191508051906020019080838360005b83811015610722578082015181840152602081019050610707565b50505050905090810190601f16801561074f5780820380516001836020036101000a031916815260200191505b509250505060405180910390fd5b5080603360006101000a81548173ffffffffffffffffffffffffffffffffffffffff021916908373ffffffffffffffffffffffffffffffffffffffff16021790555050565b60785481565b60b08054600181600116156101000203166002900480601f01602080910402602001604051908101604052809291908181526020018280546001816001161561010002031660029004801561083e5780601f106108135761010080835404028352916020019161083e565b820191906000526020600020905b81548152906001019060200180831161082157829003601f168201915b505050505081565b603360009054906101000a900473ffffffffffffffffffffffffffffffffffffffff1673ffffffffffffffffffffffffffffffffffffffff1663d994d6d5336040518263ffffffff1660e01b8152600401808273ffffffffffffffffffffffffffffffffffffffff16815260200191505060206040518083038186803b1580156108cf57600080fd5b505afa1580156108e3573d6000803e3d6000fd5b505050506040513d60208110156108f957600080fd5b81019080805190602001909291905050506040518060400160405280601681526020017f6e6f745f617574686f72697a65645f6368616e67657200000000000000000000815250906109e6576040517f08c379a00000000000000000000000000000000000000000000000000000000081526004018080602001828103825283818151815260200191508051906020019080838360005b838110156109ab578082015181840152602081019050610990565b50505050905090810190601f1680156109d85780820380516001836020036101000a031916815260200191505b509250505060405180910390fd5b50600033905060008173ffffffffffffffffffffffffffffffffffffffff16848460405160240180806020018281038252848482818152602001925080828437600081840152601f19601f82011690508083019250505093505050506040516020818303038152906040527fa16227ca000000000000000000000000000000000000000000000000000000007bffffffffffffffffffffffffffffffffffffffffffffffffffffffff19166020820180517bffffffffffffffffffffffffffffffffffffffffffffffffffffffff83818316178352505050506040518082805190602001908083835b60208310610af25780518252602082019150602081019050602083039250610acf565b6001836020036101000a038019825116818451168082178552505050505050905001915050600060405180830381855af49150503d8060008114610b52576040519150601f19603f3d011682016040523d82523d6000602084013e610b57565b606091505b5050905080610bce576040517f08c379a00000000000000000000000000000000000000000000000000000000081526004018080602001828103825260168152602001807f4572726f7220696e2064656c65676174652063616c6c0000000000000000000081525060200191505060405180910390fd5b50505050565b607a5481565b607c60009054906101000a900473ffffffffffffffffffffffffffffffffffffffff1681565b600073ffffffffffffffffffffffffffffffffffffffff168173ffffffffffffffffffffffffffffffffffffffff161415610ca3576040517f08c379a00000000000000000000000000000000000000000000000000000000081526004018080602001828103825260178152602001807f4163636f756e74206d757374206e6f742062652030783000000000000000000081525060200191505060405180910390fd5b6000610cbb8284600001610d3590919063ffffffff16565b905080610d30576040517f08c379a000000000000000000000000000000000000000000000000000000000815260040180806020018281038252601b8152602001807f4163636f756e7420616c72656164792077686974656c6973746564000000000081525060200191505060405180910390fd5b505050565b6000610d418383610e0b565b610e005782600001829080600181540180825580915050600190039060005260206000200160009091909190916101000a81548173ffffffffffffffffffffffffffffffffffffffff021916908373ffffffffffffffffffffffffffffffffffffffff16021790555082600001805490508360010160008473ffffffffffffffffffffffffffffffffffffffff1673ffffffffffffffffffffffffffffffffffffffff1681526020019081526020016000208190555060019050610e05565b600090505b92915050565b6000808360010160008473ffffffffffffffffffffffffffffffffffffffff1673ffffffffffffffffffffffffffffffffffffffff16815260200190815260200160002054141590509291505056fea264697066735822122061560597745b83b18dac223d5d3b7e328ced180b97e1cf91528bdbef1b72dc7a64736f6c634300060c0033",
  "immutableReferences": {},
  "source": "// SPDX-License-Identifier: UNLICENSED\npragma solidity 0.6.12;\n\nimport {ChangeContract} from \"@moc/shared/contracts/moc-governance/Governance/ChangeContract.sol\";\nimport {CoinPairPriceStorage} from \"../CoinPairPriceStorage.sol\";\nimport {Governed} from \"@moc/shared/contracts/moc-governance/Governance/Governed.sol\";\n\n/**\n  @title CoinPairEmergencyWhitelistChange\n  @notice This contract is a ChangeContract intended to be used to add an emergency publisher to the whitelist.\n */\ncontract CoinPairEmergencyWhitelistChange is CoinPairPriceStorage, ChangeContract {\n    Governed public coinPairPrice;\n    bytes public encodedData;\n\n    /**\n      @notice Constructor\n      @param _coinPairPrice Address of coin pair price to upgrade\n      @param _emergencyPublisher The address of the publisher to whitelist\n    */\n    constructor(Governed _coinPairPrice, address _emergencyPublisher) public {\n        coinPairPrice = _coinPairPrice;\n        encodedData = abi.encode(_emergencyPublisher);\n    }\n\n    /**\n      @notice Execute the changes.\n      @dev Should be called by the governor, but this contract does not check that explicitly because\n      it is not its responsability in the current architecture\n     */\n    function execute() external override {\n        coinPairPrice.delegateCallToChanger(encodedData);\n        // TODO: Make it usable just once.\n    }\n\n    /**\n        Called by the Governed contract delegateCallToChanger method\n        This methods runs in the Governed contract storage.\n    */\n    function impersonate(bytes calldata data) external {\n        emergencyPublishWhitelistData._addToWhitelist(abi.decode(data, (address)));\n    }\n}\n",
  "sourcePath": "/home/adji/Desktop/work/coinfabrik/moc-oraculos/contracts/change/CoinPairEmergencyWhitelistChange.sol",
  "compiler": {
    "name": "solc",
    "version": "0.6.12+commit.27d51765.Emscripten.clang"
  },
  "schemaVersion": "3.2.4",
  "updatedAt": "2020-09-11T20:34:45.478Z",
  "devdoc": {
    "kind": "dev",
    "methods": {
      "changeIGovernor(address)": {
        "params": {
          "newIGovernor": "New governor address"
        }
      },
      "constructor": {
        "params": {
          "_coinPairPrice": "Address of coin pair price to upgrade",
          "_emergencyPublisher": "The address of the publisher to whitelist"
        }
      },
      "delegateCallToChanger(bytes)": {
        "params": {
          "data": "the serialized function arguments"
        }
      },
      "execute()": {
        "details": "Should be called by the governor, but this contract does not check that explicitly because it is not its responsability in the current architecture"
      }
    },
    "title": "CoinPairEmergencyWhitelistChange",
    "version": 1
  },
  "userdoc": {
    "kind": "user",
    "methods": {
      "changeIGovernor(address)": {
        "notice": "Change the contract's governor. Should be called through the old governance system"
      },
      "constructor": "Constructor",
      "delegateCallToChanger(bytes)": {
        "notice": "This method is used by a change contract to access the storage freely even without a setter."
      },
      "execute()": {
        "notice": "Execute the changes."
      },
      "governor()": {
        "notice": "The address of the contract which governs this one"
      },
      "impersonate(bytes)": {
        "notice": "Called by the Governed contract delegateCallToChanger method This methods runs in the Governed contract storage."
      }
    },
    "notice": "This contract is a ChangeContract intended to be used to add an emergency publisher to the whitelist.",
    "version": 1
  }
}