{
    "contractName": "DelayMachine",
    "abi": [
        {
            "anonymous": false,
            "inputs": [
                {
                    "indexed": true,
                    "internalType": "uint256",
                    "name": "id",
                    "type": "uint256"
                },
                {
                    "indexed": false,
                    "internalType": "address",
                    "name": "source",
                    "type": "address"
                },
                {
                    "indexed": false,
                    "internalType": "address",
                    "name": "destination",
                    "type": "address"
                },
                {
                    "indexed": false,
                    "internalType": "uint256",
                    "name": "amount",
                    "type": "uint256"
                }
            ],
            "name": "PaymentCancel",
            "type": "event"
        },
        {
            "anonymous": false,
            "inputs": [
                {
                    "indexed": true,
                    "internalType": "uint256",
                    "name": "id",
                    "type": "uint256"
                },
                {
                    "indexed": false,
                    "internalType": "address",
                    "name": "source",
                    "type": "address"
                },
                {
                    "indexed": false,
                    "internalType": "address",
                    "name": "destination",
                    "type": "address"
                },
                {
                    "indexed": false,
                    "internalType": "uint256",
                    "name": "amount",
                    "type": "uint256"
                },
                {
                    "indexed": false,
                    "internalType": "uint256",
                    "name": "expiration",
                    "type": "uint256"
                }
            ],
            "name": "PaymentDeposit",
            "type": "event"
        },
        {
            "anonymous": false,
            "inputs": [
                {
                    "indexed": true,
                    "internalType": "uint256",
                    "name": "id",
                    "type": "uint256"
                },
                {
                    "indexed": false,
                    "internalType": "address",
                    "name": "source",
                    "type": "address"
                },
                {
                    "indexed": false,
                    "internalType": "address",
                    "name": "destination",
                    "type": "address"
                },
                {
                    "indexed": false,
                    "internalType": "uint256",
                    "name": "amount",
                    "type": "uint256"
                }
            ],
            "name": "PaymentWithdraw",
            "type": "event"
        },
        {
            "inputs": [],
            "name": "_id",
            "outputs": [
                {
                    "internalType": "uint256",
                    "name": "",
                    "type": "uint256"
                }
            ],
            "stateMutability": "view",
            "type": "function"
        },
        {
            "inputs": [],
            "name": "_source",
            "outputs": [
                {
                    "internalType": "address",
                    "name": "",
                    "type": "address"
                }
            ],
            "stateMutability": "view",
            "type": "function"
        },
        {
            "inputs": [],
            "name": "_token",
            "outputs": [
                {
                    "internalType": "contract IERC20",
                    "name": "",
                    "type": "address"
                }
            ],
            "stateMutability": "view",
            "type": "function"
        },
        {
            "inputs": [
                {
                    "internalType": "contract IGovernor",
                    "name": "newIGovernor",
                    "type": "address"
                }
            ],
            "name": "changeIGovernor",
            "outputs": [],
            "stateMutability": "nonpayable",
            "type": "function"
        },
        {
            "inputs": [
                {
                    "internalType": "bytes",
                    "name": "data",
                    "type": "bytes"
                }
            ],
            "name": "delegateCallToChanger",
            "outputs": [],
            "stateMutability": "nonpayable",
            "type": "function"
        },
        {
            "inputs": [],
            "name": "governor",
            "outputs": [
                {
                    "internalType": "contract IGovernor",
                    "name": "",
                    "type": "address"
                }
            ],
            "stateMutability": "view",
            "type": "function"
        },
        {
            "inputs": [
                {
                    "internalType": "contract IGovernor",
                    "name": "governor",
                    "type": "address"
                },
                {
                    "internalType": "contract IERC20",
                    "name": "token",
                    "type": "address"
                },
                {
                    "internalType": "address",
                    "name": "source",
                    "type": "address"
                }
            ],
            "name": "initialize",
            "outputs": [],
            "stateMutability": "nonpayable",
            "type": "function"
        },
        {
            "inputs": [
                {
                    "internalType": "uint256",
                    "name": "mocs",
                    "type": "uint256"
                },
                {
                    "internalType": "address",
                    "name": "destination",
                    "type": "address"
                },
                {
                    "internalType": "uint256",
                    "name": "expiration",
                    "type": "uint256"
                }
            ],
            "name": "deposit",
            "outputs": [
                {
                    "internalType": "uint256",
                    "name": "id",
                    "type": "uint256"
                }
            ],
            "stateMutability": "nonpayable",
            "type": "function"
        },
        {
            "inputs": [
                {
                    "internalType": "uint256",
                    "name": "id",
                    "type": "uint256"
                }
            ],
            "name": "cancel",
            "outputs": [],
            "stateMutability": "nonpayable",
            "type": "function"
        },
        {
            "inputs": [
                {
                    "internalType": "uint256",
                    "name": "id",
                    "type": "uint256"
                }
            ],
            "name": "withdraw",
            "outputs": [],
            "stateMutability": "nonpayable",
            "type": "function"
        },
        {
            "inputs": [
                {
                    "internalType": "address",
                    "name": "account",
                    "type": "address"
                }
            ],
            "name": "getTransactions",
            "outputs": [
                {
                    "internalType": "uint256[]",
                    "name": "ids",
                    "type": "uint256[]"
                },
                {
                    "internalType": "uint256[]",
                    "name": "amounts",
                    "type": "uint256[]"
                },
                {
                    "internalType": "uint256[]",
                    "name": "expirations",
                    "type": "uint256[]"
                }
            ],
            "stateMutability": "view",
            "type": "function"
        },
        {
            "inputs": [
                {
                    "internalType": "address",
                    "name": "account",
                    "type": "address"
                }
            ],
            "name": "getBalance",
            "outputs": [
                {
                    "internalType": "uint256",
                    "name": "",
                    "type": "uint256"
                }
            ],
            "stateMutability": "view",
            "type": "function"
        }
    ],
    "bytecode": "0x608060405234801561001057600080fd5b50611f4b806100206000396000f3fe608060405234801561001057600080fd5b50600436106100b45760003560e01c8063bc157ac111610071578063bc157ac1146102d4578063c0c53b8b14610340578063dc8990e1146103c4578063eb9166651461043d578063ecd0c0c314610471578063f8b2cb4f146104a5576100b4565b806305180237146100b95780630c340a24146100d75780630f8cda201461010b5780632e1a7d4d1461023457806340e58ee514610262578063b6e0833014610290575b600080fd5b6100c16104fd565b6040518082815260200191505060405180910390f35b6100df610503565b604051808273ffffffffffffffffffffffffffffffffffffffff16815260200191505060405180910390f35b61014d6004803603602081101561012157600080fd5b81019080803573ffffffffffffffffffffffffffffffffffffffff169060200190929190505050610529565b60405180806020018060200180602001848103845287818151815260200191508051906020019060200280838360005b8381101561019857808201518184015260208101905061017d565b50505050905001848103835286818151815260200191508051906020019060200280838360005b838110156101da5780820151818401526020810190506101bf565b50505050905001848103825285818151815260200191508051906020019060200280838360005b8381101561021c578082015181840152602081019050610201565b50505050905001965050505050505060405180910390f35b6102606004803603602081101561024a57600080fd5b81019080803590602001909291905050506107e8565b005b61028e6004803603602081101561027857600080fd5b8101908080359060200190929190505050610bc5565b005b6102d2600480360360208110156102a657600080fd5b81019080803573ffffffffffffffffffffffffffffffffffffffff169060200190929190505050611018565b005b61032a600480360360608110156102ea57600080fd5b8101908080359060200190929190803573ffffffffffffffffffffffffffffffffffffffff169060200190929190803590602001909291905050506111fd565b6040518082815260200191505060405180910390f35b6103c26004803603606081101561035657600080fd5b81019080803573ffffffffffffffffffffffffffffffffffffffff169060200190929190803573ffffffffffffffffffffffffffffffffffffffff169060200190929190803573ffffffffffffffffffffffffffffffffffffffff169060200190929190505050611593565b005b61043b600480360360208110156103da57600080fd5b81019080803590602001906401000000008111156103f757600080fd5b82018360208201111561040957600080fd5b8035906020019184600183028401116401000000008311171561042b57600080fd5b909192939192939050505061171f565b005b610445611aad565b604051808273ffffffffffffffffffffffffffffffffffffffff16815260200191505060405180910390f35b610479611ad3565b604051808273ffffffffffffffffffffffffffffffffffffffff16815260200191505060405180910390f35b6104e7600480360360208110156104bb57600080fd5b81019080803573ffffffffffffffffffffffffffffffffffffffff169060200190929190505050611af9565b6040518082815260200191505060405180910390f35b60665481565b603360009054906101000a900473ffffffffffffffffffffffffffffffffffffffff1681565b6060806060600061057a606960008773ffffffffffffffffffffffffffffffffffffffff1673ffffffffffffffffffffffffffffffffffffffff168152602001908152602001600020600001611bde565b90508067ffffffffffffffff8111801561059357600080fd5b506040519080825280602002602001820160405280156105c25781602001602082028036833780820191505090505b5093508067ffffffffffffffff811180156105dc57600080fd5b5060405190808252806020026020018201604052801561060b5781602001602082028036833780820191505090505b5092508067ffffffffffffffff8111801561062557600080fd5b506040519080825280602002602001820160405280156106545781602001602082028036833780820191505090505b50915060005b818110156107df576106b681606960008973ffffffffffffffffffffffffffffffffffffffff1673ffffffffffffffffffffffffffffffffffffffff168152602001908152602001600020600001611bf390919063ffffffff16565b8582815181106106c257fe5b602002602001018181525050606a600061072683606960008b73ffffffffffffffffffffffffffffffffffffffff1673ffffffffffffffffffffffffffffffffffffffff168152602001908152602001600020600001611bf390919063ffffffff16565b81526020019081526020016000206001015484828151811061074457fe5b602002602001018181525050606a60006107a883606960008b73ffffffffffffffffffffffffffffffffffffffff1673ffffffffffffffffffffffffffffffffffffffff168152602001908152602001600020600001611bf390919063ffffffff16565b8152602001908152602001600020600001548382815181106107c657fe5b602002602001018181525050808060010191505061065a565b50509193909250565b61083c81606960003373ffffffffffffffffffffffffffffffffffffffff1673ffffffffffffffffffffffffffffffffffffffff168152602001908152602001600020600001611c0d90919063ffffffff16565b6108ae576040517f08c379a000000000000000000000000000000000000000000000000000000000815260040180806020018281038252600a8152602001807f496e76616c69642049440000000000000000000000000000000000000000000081525060200191505060405180910390fd5b61090281606960003373ffffffffffffffffffffffffffffffffffffffff1673ffffffffffffffffffffffffffffffffffffffff168152602001908152602001600020600001611c2790919063ffffffff16565b5042606a6000838152602001908152602001600020600001541061098e576040517f08c379a000000000000000000000000000000000000000000000000000000000815260040180806020018281038252600b8152602001807f4e6f74206578706972656400000000000000000000000000000000000000000081525060200191505060405180910390fd5b6000606760009054906101000a900473ffffffffffffffffffffffffffffffffffffffff1673ffffffffffffffffffffffffffffffffffffffff1663a9059cbb33606a6000868152602001908152602001600020600101546040518363ffffffff1660e01b8152600401808373ffffffffffffffffffffffffffffffffffffffff16815260200182815260200192505050602060405180830381600087803b158015610a3957600080fd5b505af1158015610a4d573d6000803e3d6000fd5b505050506040513d6020811015610a6357600080fd5b8101908080519060200190929190505050905080610ae9576040517f08c379a00000000000000000000000000000000000000000000000000000000081526004018080602001828103825260168152602001807f546f6b656e207472616e73666572206661696c65642e0000000000000000000081525060200191505060405180910390fd5b6000606a6000848152602001908152602001600020600101549050606a600084815260200190815260200160002060008082016000905560018201600090555050827fe4d0e39027315f329442288de9fb80f74327d6b6014d0a500a15ab4ab7d7541b606860009054906101000a900473ffffffffffffffffffffffffffffffffffffffff163384604051808473ffffffffffffffffffffffffffffffffffffffff1681526020018373ffffffffffffffffffffffffffffffffffffffff168152602001828152602001935050505060405180910390a2505050565b610c1981606960003373ffffffffffffffffffffffffffffffffffffffff1673ffffffffffffffffffffffffffffffffffffffff168152602001908152602001600020600001611c0d90919063ffffffff16565b610c8b576040517f08c379a000000000000000000000000000000000000000000000000000000000815260040180806020018281038252600a8152602001807f496e76616c69642049440000000000000000000000000000000000000000000081525060200191505060405180910390fd5b610cdf81606960003373ffffffffffffffffffffffffffffffffffffffff1673ffffffffffffffffffffffffffffffffffffffff168152602001908152602001600020600001611c2790919063ffffffff16565b506000606760009054906101000a900473ffffffffffffffffffffffffffffffffffffffff1673ffffffffffffffffffffffffffffffffffffffff1663095ea7b3606860009054906101000a900473ffffffffffffffffffffffffffffffffffffffff16606a6000868152602001908152602001600020600101546040518363ffffffff1660e01b8152600401808373ffffffffffffffffffffffffffffffffffffffff16815260200182815260200192505050602060405180830381600087803b158015610dad57600080fd5b505af1158015610dc1573d6000803e3d6000fd5b505050506040513d6020811015610dd757600080fd5b8101908080519060200190929190505050905080610e5d576040517f08c379a00000000000000000000000000000000000000000000000000000000081526004018080602001828103825260158152602001807f546f6b656e20617070726f7665206661696c65642e000000000000000000000081525060200191505060405180910390fd5b606860009054906101000a900473ffffffffffffffffffffffffffffffffffffffff1673ffffffffffffffffffffffffffffffffffffffff1663473c541d606a60008581526020019081526020016000206001015433306040518463ffffffff1660e01b8152600401808481526020018373ffffffffffffffffffffffffffffffffffffffff1681526020018273ffffffffffffffffffffffffffffffffffffffff1681526020019350505050600060405180830381600087803b158015610f2457600080fd5b505af1158015610f38573d6000803e3d6000fd5b505050506000606a6000848152602001908152602001600020600101549050606a600084815260200190815260200160002060008082016000905560018201600090555050827f17d07aabef8bbc61ffcfd340ef5e491b61098c662d8214977da6711b5701e860606860009054906101000a900473ffffffffffffffffffffffffffffffffffffffff163384604051808473ffffffffffffffffffffffffffffffffffffffff1681526020018373ffffffffffffffffffffffffffffffffffffffff168152602001828152602001935050505060405180910390a2505050565b603360009054906101000a900473ffffffffffffffffffffffffffffffffffffffff1673ffffffffffffffffffffffffffffffffffffffff1663d994d6d5336040518263ffffffff1660e01b8152600401808273ffffffffffffffffffffffffffffffffffffffff16815260200191505060206040518083038186803b1580156110a157600080fd5b505afa1580156110b5573d6000803e3d6000fd5b505050506040513d60208110156110cb57600080fd5b81019080805190602001909291905050506040518060400160405280601681526020017f6e6f745f617574686f72697a65645f6368616e67657200000000000000000000815250906111b8576040517f08c379a00000000000000000000000000000000000000000000000000000000081526004018080602001828103825283818151815260200191508051906020019080838360005b8381101561117d578082015181840152602081019050611162565b50505050905090810190601f1680156111aa5780820380516001836020036101000a031916815260200191505b509250505060405180910390fd5b5080603360006101000a81548173ffffffffffffffffffffffffffffffffffffffff021916908373ffffffffffffffffffffffffffffffffffffffff16021790555050565b6000606860009054906101000a900473ffffffffffffffffffffffffffffffffffffffff1673ffffffffffffffffffffffffffffffffffffffff163373ffffffffffffffffffffffffffffffffffffffff16146112c2576040517f08c379a000000000000000000000000000000000000000000000000000000000815260040180806020018281038252600c8152602001807f57726f6e6720736f75726365000000000000000000000000000000000000000081525060200191505060405180910390fd5b6000606760009054906101000a900473ffffffffffffffffffffffffffffffffffffffff1673ffffffffffffffffffffffffffffffffffffffff166323b872dd606860009054906101000a900473ffffffffffffffffffffffffffffffffffffffff1630886040518463ffffffff1660e01b8152600401808473ffffffffffffffffffffffffffffffffffffffff1681526020018373ffffffffffffffffffffffffffffffffffffffff1681526020018281526020019350505050602060405180830381600087803b15801561139757600080fd5b505af11580156113ab573d6000803e3d6000fd5b505050506040513d60208110156113c157600080fd5b8101908080519060200190929190505050905080611447576040517f08c379a00000000000000000000000000000000000000000000000000000000081526004018080602001828103825260168152602001807f546f6b656e207472616e73666572206661696c65642e0000000000000000000081525060200191505060405180910390fd5b600160665401606681905550824201606a600060665481526020019081526020016000206000018190555084606a60006066548152602001908152602001600020600101819055506114e5606654606960008773ffffffffffffffffffffffffffffffffffffffff1673ffffffffffffffffffffffffffffffffffffffff168152602001908152602001600020600001611c4190919063ffffffff16565b506066547fda2af03eae6ec4f5d76629a4cc5189c9e9667f667757bb06438978aa0009bf3d606860009054906101000a900473ffffffffffffffffffffffffffffffffffffffff16868887604051808573ffffffffffffffffffffffffffffffffffffffff1681526020018473ffffffffffffffffffffffffffffffffffffffff16815260200183815260200182815260200194505050505060405180910390a26066549150509392505050565b600060019054906101000a900460ff16806115b257506115b1611c5b565b5b806115c8575060008054906101000a900460ff16155b61161d576040517f08c379a000000000000000000000000000000000000000000000000000000000815260040180806020018281038252602e815260200180611ee8602e913960400191505060405180910390fd5b60008060019054906101000a900460ff16159050801561166d576001600060016101000a81548160ff02191690831515021790555060016000806101000a81548160ff0219169083151502179055505b82606760006101000a81548173ffffffffffffffffffffffffffffffffffffffff021916908373ffffffffffffffffffffffffffffffffffffffff16021790555081606860006101000a81548173ffffffffffffffffffffffffffffffffffffffff021916908373ffffffffffffffffffffffffffffffffffffffff1602179055506116f884611c72565b80156117195760008060016101000a81548160ff0219169083151502179055505b50505050565b603360009054906101000a900473ffffffffffffffffffffffffffffffffffffffff1673ffffffffffffffffffffffffffffffffffffffff1663d994d6d5336040518263ffffffff1660e01b8152600401808273ffffffffffffffffffffffffffffffffffffffff16815260200191505060206040518083038186803b1580156117a857600080fd5b505afa1580156117bc573d6000803e3d6000fd5b505050506040513d60208110156117d257600080fd5b81019080805190602001909291905050506040518060400160405280601681526020017f6e6f745f617574686f72697a65645f6368616e67657200000000000000000000815250906118bf576040517f08c379a00000000000000000000000000000000000000000000000000000000081526004018080602001828103825283818151815260200191508051906020019080838360005b83811015611884578082015181840152602081019050611869565b50505050905090810190601f1680156118b15780820380516001836020036101000a031916815260200191505b509250505060405180910390fd5b50600033905060008173ffffffffffffffffffffffffffffffffffffffff16848460405160240180806020018281038252848482818152602001925080828437600081840152601f19601f82011690508083019250505093505050506040516020818303038152906040527fa16227ca000000000000000000000000000000000000000000000000000000007bffffffffffffffffffffffffffffffffffffffffffffffffffffffff19166020820180517bffffffffffffffffffffffffffffffffffffffffffffffffffffffff83818316178352505050506040518082805190602001908083835b602083106119cb57805182526020820191506020810190506020830392506119a8565b6001836020036101000a038019825116818451168082178552505050505050905001915050600060405180830381855af49150503d8060008114611a2b576040519150601f19603f3d011682016040523d82523d6000602084013e611a30565b606091505b5050905080611aa7576040517f08c379a00000000000000000000000000000000000000000000000000000000081526004018080602001828103825260168152602001807f4572726f7220696e2064656c65676174652063616c6c0000000000000000000081525060200191505060405180910390fd5b50505050565b606860009054906101000a900473ffffffffffffffffffffffffffffffffffffffff1681565b606760009054906101000a900473ffffffffffffffffffffffffffffffffffffffff1681565b600080611b46606960008573ffffffffffffffffffffffffffffffffffffffff1673ffffffffffffffffffffffffffffffffffffffff168152602001908152602001600020600001611bde565b9050600080600090505b82811015611bd357606a6000611bb083606960008a73ffffffffffffffffffffffffffffffffffffffff1673ffffffffffffffffffffffffffffffffffffffff168152602001908152602001600020600001611bf390919063ffffffff16565b815260200190815260200160002060010154820191508080600101915050611b50565b508092505050919050565b6000611bec82600001611cb6565b9050919050565b6000611c028360000183611cc7565b60001c905092915050565b6000611c1f836000018360001b611d4a565b905092915050565b6000611c39836000018360001b611d6d565b905092915050565b6000611c53836000018360001b611e55565b905092915050565b6000803090506000813b9050600081149250505090565b80603360006101000a81548173ffffffffffffffffffffffffffffffffffffffff021916908373ffffffffffffffffffffffffffffffffffffffff16021790555050565b600081600001805490509050919050565b600081836000018054905011611d28576040517f08c379a0000000000000000000000000000000000000000000000000000000008152600401808060200182810382526022815260200180611ec66022913960400191505060405180910390fd5b826000018281548110611d3757fe5b9060005260206000200154905092915050565b600080836001016000848152602001908152602001600020541415905092915050565b60008083600101600084815260200190815260200160002054905060008114611e495760006001820390506000600186600001805490500390506000866000018281548110611db857fe5b9060005260206000200154905080876000018481548110611dd557fe5b9060005260206000200181905550600183018760010160008381526020019081526020016000208190555086600001805480611e0d57fe5b60019003818190600052602060002001600090559055866001016000878152602001908152602001600020600090556001945050505050611e4f565b60009150505b92915050565b6000611e618383611d4a565b611eba578260000182908060018154018082558091505060019003906000526020600020016000909190919091505582600001805490508360010160008481526020019081526020016000208190555060019050611ebf565b600090505b9291505056fe456e756d657261626c655365743a20696e646578206f7574206f6620626f756e6473436f6e747261637420696e7374616e63652068617320616c7265616479206265656e20696e697469616c697a6564a26469706673582212207e5618956dbe41aeb41be8a99222d11b53a82addc056e20e028fddc4f7cae15e64736f6c634300060c0033",
    "immutableReferences": {},
    "source": "// SPDX-License-Identifier: UNLICENSED\npragma solidity ^0.6.12;\n\nimport {IERC20} from \"@openzeppelin/contracts-ethereum-package/contracts/token/ERC20/IERC20.sol\";\nimport {SafeMath} from \"@openzeppelin/contracts-ethereum-package/contracts/math/SafeMath.sol\";\nimport {Initializable} from \"@openzeppelin/contracts-ethereum-package/contracts/Initializable.sol\";\nimport {Governed} from \"@moc/shared/contracts/moc-governance/Governance/Governed.sol\";\nimport {IGovernor} from \"@moc/shared/contracts/moc-governance/Governance/IGovernor.sol\";\nimport {IStakingMachine} from \"@moc/shared/contracts/IStakingMachine.sol\";\nimport {IDelayMachine} from \"@moc/shared/contracts/IDelayMachine.sol\";\nimport {DelayMachineStorage} from \"./DelayMachineStorage.sol\";\n\ncontract DelayMachine is DelayMachineStorage, IDelayMachine {\n    using SafeMath for uint256;\n\n    event PaymentDeposit(\n        uint256 indexed id,\n        address source,\n        address destination,\n        uint256 amount,\n        uint256 expiration\n    );\n    event PaymentCancel(uint256 indexed id, address source, address destination, uint256 amount);\n    event PaymentWithdraw(uint256 indexed id, address source, address destination, uint256 amount);\n\n    /// @notice Construct this contract.\n    /// @param governor The minimum amount of tokens required as stake for a coin pair subscription.\n    /// @param token the Supporters contract contract address.\n    function initialize(\n        IGovernor governor,\n        IERC20 token,\n        address source\n    ) external initializer {\n        _token = token;\n        _source = source;\n        Governed._initialize(governor);\n    }\n\n    /// @notice Accept a deposit from an account.\n    /// @param mocs token quantity\n    /// @param destination the destination address which can control the funds.\n    /// @param expiration the expiration date for this deposit\n    /// @return id the transaction id\n    function deposit(\n        uint256 mocs,\n        address destination,\n        uint256 expiration\n    ) external override returns (uint256 id) {\n        require(msg.sender == _source, \"Wrong source\");\n        bool done = _token.transferFrom(_source, address(this), mocs);\n        require(done, \"Token transfer failed.\");\n        _id = _id + 1;\n        payments[_id].expiration = block.timestamp + expiration;\n        // solhint-disable-previous-line not-rely-on-time\n        payments[_id].amount = mocs;\n        owners[destination].ids.add(_id);\n        emit PaymentDeposit(_id, _source, destination, mocs, expiration);\n        return _id;\n    }\n\n    /// @notice Cancel a transaction returning the funds to the source\n    /// @param id transaction id\n    function cancel(uint256 id) external override {\n        require(owners[msg.sender].ids.contains(id), \"Invalid ID\");\n        owners[msg.sender].ids.remove(id);\n        bool done = _token.approve(_source, payments[id].amount);\n        require(done, \"Token approve failed.\");\n        IStakingMachine(_source).depositFrom(payments[id].amount, msg.sender, address(this));\n        uint256 amount = payments[id].amount;\n        delete (payments[id]);\n        emit PaymentCancel(id, _source, msg.sender, amount);\n    }\n\n    /// @notice Withdraw stake, send it to the delay machine.\n    /// @param id transaction id\n    function withdraw(uint256 id) external override {\n        require(owners[msg.sender].ids.contains(id), \"Invalid ID\");\n        owners[msg.sender].ids.remove(id);\n        require(payments[id].expiration < block.timestamp, \"Not expired\");\n        // solhint-disable-previous-line not-rely-on-time\n        bool done = _token.transfer(msg.sender, payments[id].amount);\n        require(done, \"Token transfer failed.\");\n        uint256 amount = payments[id].amount;\n        delete (payments[id]);\n        emit PaymentWithdraw(id, _source, msg.sender, amount);\n    }\n\n    /// @notice Returns the list of transaction for some account\n    /// @param account destination address\n    /// @return ids transaction ids\n    /// @return amounts token quantity\n    /// @return expirations expiration dates\n    function getTransactions(address account)\n        external\n        override\n        view\n        returns (\n            uint256[] memory ids,\n            uint256[] memory amounts,\n            uint256[] memory expirations\n        )\n    {\n        uint256 len = owners[account].ids.length();\n        ids = new uint256[](len);\n        amounts = new uint256[](len);\n        expirations = new uint256[](len);\n        for (uint256 i = 0; i < len; i++) {\n            ids[i] = owners[account].ids.at(i);\n            amounts[i] = payments[owners[account].ids.at(i)].amount;\n            expirations[i] = payments[owners[account].ids.at(i)].expiration;\n        }\n    }\n\n    /// @notice Returns the total balance in MOCs for an account\n    /// @param account destination address\n    /// @return balance token quantity\n    function getBalance(address account) external override view returns (uint256) {\n        uint256 len = owners[account].ids.length();\n        uint256 balance;\n        for (uint256 i = 0; i < len; i++) {\n            balance = balance + payments[owners[account].ids.at(i)].amount;\n        }\n        return balance;\n    }\n}\n",
    "sourcePath": "/home/adji/Desktop/work/coinfabrik/moc-oraculos/contracts/DelayMachine.sol",
    "compiler": {
        "name": "solc",
        "version": "0.6.12+commit.27d51765.Emscripten.clang"
    },
    "schemaVersion": "3.2.4",
    "updatedAt": "2020-09-15T18:21:40.630Z",
    "devdoc": {
        "kind": "dev",
        "methods": {
            "cancel(uint256)": {
                "params": {
                    "id": "transaction id"
                }
            },
            "changeIGovernor(address)": {
                "params": {
                    "newIGovernor": "New governor address"
                }
            },
            "delegateCallToChanger(bytes)": {
                "params": {
                    "data": "the serialized function arguments"
                }
            },
            "deposit(uint256,address,uint256)": {
                "params": {
                    "destination": "the destination address which can control the funds.",
                    "expiration": "the expiration date for this deposit",
                    "mocs": "token quantity"
                },
                "returns": {
                    "id": "the transaction id"
                }
            },
            "getBalance(address)": {
                "params": {
                    "account": "destination address"
                },
                "returns": {
                    "_0": "balance token quantity"
                }
            },
            "getTransactions(address)": {
                "params": {
                    "account": "destination address"
                },
                "returns": {
                    "amounts": "token quantity",
                    "expirations": "expiration dates",
                    "ids": "transaction ids"
                }
            },
            "initialize(address,address,address)": {
                "params": {
                    "governor": "The minimum amount of tokens required as stake for a coin pair subscription.",
                    "token": "the Supporters contract contract address."
                }
            },
            "withdraw(uint256)": {
                "params": {
                    "id": "transaction id"
                }
            }
        },
        "version": 1
    },
    "userdoc": {
        "kind": "user",
        "methods": {
            "cancel(uint256)": {
                "notice": "Cancel a transaction returning the funds to the source"
            },
            "changeIGovernor(address)": {
                "notice": "Change the contract's governor. Should be called through the old governance system"
            },
            "delegateCallToChanger(bytes)": {
                "notice": "This method is used by a change contract to access the storage freely even without a setter."
            },
            "deposit(uint256,address,uint256)": {
                "notice": "Accept a deposit from an account."
            },
            "getBalance(address)": {
                "notice": "Returns the total balance in MOCs for an account"
            },
            "getTransactions(address)": {
                "notice": "Returns the list of transaction for some account"
            },
            "governor()": {
                "notice": "The address of the contract which governs this one"
            },
            "initialize(address,address,address)": {
                "notice": "Construct this contract."
            },
            "withdraw(uint256)": {
                "notice": "Withdraw stake, send it to the delay machine."
            }
        },
        "version": 1
    }
}