{
    "contractName": "DelayMachine",
    "abi": [
        {
            "anonymous": false,
            "inputs": [
                {
                    "indexed": true,
                    "internalType": "uint256",
                    "name": "id",
                    "type": "uint256"
                },
                {
                    "indexed": false,
                    "internalType": "address",
                    "name": "source",
                    "type": "address"
                },
                {
                    "indexed": false,
                    "internalType": "address",
                    "name": "destination",
                    "type": "address"
                },
                {
                    "indexed": false,
                    "internalType": "uint256",
                    "name": "amount",
                    "type": "uint256"
                }
            ],
            "name": "PaymentCancel",
            "type": "event"
        },
        {
            "anonymous": false,
            "inputs": [
                {
                    "indexed": true,
                    "internalType": "uint256",
                    "name": "id",
                    "type": "uint256"
                },
                {
                    "indexed": false,
                    "internalType": "address",
                    "name": "source",
                    "type": "address"
                },
                {
                    "indexed": false,
                    "internalType": "address",
                    "name": "destination",
                    "type": "address"
                },
                {
                    "indexed": false,
                    "internalType": "uint256",
                    "name": "amount",
                    "type": "uint256"
                },
                {
                    "indexed": false,
                    "internalType": "uint256",
                    "name": "expiration",
                    "type": "uint256"
                }
            ],
            "name": "PaymentDeposit",
            "type": "event"
        },
        {
            "anonymous": false,
            "inputs": [
                {
                    "indexed": true,
                    "internalType": "uint256",
                    "name": "id",
                    "type": "uint256"
                },
                {
                    "indexed": false,
                    "internalType": "address",
                    "name": "source",
                    "type": "address"
                },
                {
                    "indexed": false,
                    "internalType": "address",
                    "name": "destination",
                    "type": "address"
                },
                {
                    "indexed": false,
                    "internalType": "uint256",
                    "name": "amount",
                    "type": "uint256"
                }
            ],
            "name": "PaymentWithdraw",
            "type": "event"
        },
        {
            "inputs": [],
            "name": "_id",
            "outputs": [
                {
                    "internalType": "uint256",
                    "name": "",
                    "type": "uint256"
                }
            ],
            "stateMutability": "view",
            "type": "function"
        },
        {
            "inputs": [],
            "name": "_source",
            "outputs": [
                {
                    "internalType": "address",
                    "name": "",
                    "type": "address"
                }
            ],
            "stateMutability": "view",
            "type": "function"
        },
        {
            "inputs": [],
            "name": "_token",
            "outputs": [
                {
                    "internalType": "contract IERC20",
                    "name": "",
                    "type": "address"
                }
            ],
            "stateMutability": "view",
            "type": "function"
        },
        {
            "inputs": [
                {
                    "internalType": "contract IGovernor",
                    "name": "newIGovernor",
                    "type": "address"
                }
            ],
            "name": "changeIGovernor",
            "outputs": [],
            "stateMutability": "nonpayable",
            "type": "function"
        },
        {
            "inputs": [
                {
                    "internalType": "bytes",
                    "name": "data",
                    "type": "bytes"
                }
            ],
            "name": "delegateCallToChanger",
            "outputs": [],
            "stateMutability": "nonpayable",
            "type": "function"
        },
        {
            "inputs": [],
            "name": "governor",
            "outputs": [
                {
                    "internalType": "contract IGovernor",
                    "name": "",
                    "type": "address"
                }
            ],
            "stateMutability": "view",
            "type": "function"
        },
        {
            "inputs": [
                {
                    "internalType": "contract IGovernor",
                    "name": "governor",
                    "type": "address"
                },
                {
                    "internalType": "contract IERC20",
                    "name": "token",
                    "type": "address"
                },
                {
                    "internalType": "address",
                    "name": "source",
                    "type": "address"
                }
            ],
            "name": "initialize",
            "outputs": [],
            "stateMutability": "nonpayable",
            "type": "function"
        },
        {
            "inputs": [
                {
                    "internalType": "uint256",
                    "name": "mocs",
                    "type": "uint256"
                },
                {
                    "internalType": "address",
                    "name": "destination",
                    "type": "address"
                },
                {
                    "internalType": "uint256",
                    "name": "expiration",
                    "type": "uint256"
                }
            ],
            "name": "deposit",
            "outputs": [
                {
                    "internalType": "uint256",
                    "name": "id",
                    "type": "uint256"
                }
            ],
            "stateMutability": "nonpayable",
            "type": "function"
        },
        {
            "inputs": [
                {
                    "internalType": "uint256",
                    "name": "id",
                    "type": "uint256"
                }
            ],
            "name": "cancel",
            "outputs": [],
            "stateMutability": "nonpayable",
            "type": "function"
        },
        {
            "inputs": [
                {
                    "internalType": "uint256",
                    "name": "id",
                    "type": "uint256"
                }
            ],
            "name": "withdraw",
            "outputs": [],
            "stateMutability": "nonpayable",
            "type": "function"
        },
        {
            "inputs": [
                {
                    "internalType": "address",
                    "name": "account",
                    "type": "address"
                }
            ],
            "name": "getTransactions",
            "outputs": [
                {
                    "internalType": "uint256[]",
                    "name": "ids",
                    "type": "uint256[]"
                },
                {
                    "internalType": "uint256[]",
                    "name": "amounts",
                    "type": "uint256[]"
                },
                {
                    "internalType": "uint256[]",
                    "name": "expirations",
                    "type": "uint256[]"
                }
            ],
            "stateMutability": "view",
            "type": "function"
        },
        {
            "inputs": [
                {
                    "internalType": "address",
                    "name": "account",
                    "type": "address"
                }
            ],
            "name": "getBalance",
            "outputs": [
                {
                    "internalType": "uint256",
                    "name": "",
                    "type": "uint256"
                }
            ],
            "stateMutability": "view",
            "type": "function"
        }
    ],
    "bytecode": "0x608060405234801561001057600080fd5b50611337806100206000396000f3fe608060405234801561001057600080fd5b50600436106100b45760003560e01c8063bc157ac111610071578063bc157ac11461025d578063c0c53b8b1461028f578063dc8990e1146102c7578063eb91666514610337578063ecd0c0c31461033f578063f8b2cb4f14610347576100b4565b806305180237146100b95780630c340a24146100d35780630f8cda20146100f75780632e1a7d4d146101fb57806340e58ee51461021a578063b6e0833014610237575b600080fd5b6100c161036d565b60408051918252519081900360200190f35b6100db610373565b604080516001600160a01b039092168252519081900360200190f35b61011d6004803603602081101561010d57600080fd5b50356001600160a01b0316610382565b60405180806020018060200180602001848103845287818151815260200191508051906020019060200280838360005b8381101561016557818101518382015260200161014d565b50505050905001848103835286818151815260200191508051906020019060200280838360005b838110156101a457818101518382015260200161018c565b50505050905001848103825285818151815260200191508051906020019060200280838360005b838110156101e35781810151838201526020016101cb565b50505050905001965050505050505060405180910390f35b6102186004803603602081101561021157600080fd5b5035610574565b005b6102186004803603602081101561023057600080fd5b5035610784565b6102186004803603602081101561024d57600080fd5b50356001600160a01b03166109ca565b6100c16004803603606081101561027357600080fd5b508035906001600160a01b036020820135169060400135610b1a565b610218600480360360608110156102a557600080fd5b506001600160a01b038135811691602081013582169160409091013516610cf6565b610218600480360360208110156102dd57600080fd5b8101906020810181356401000000008111156102f857600080fd5b82018360208201111561030a57600080fd5b8035906020019184600183028401116401000000008311171561032c57600080fd5b509092509050610dd4565b6100db611013565b6100db611022565b6100c16004803603602081101561035d57600080fd5b50356001600160a01b0316611031565b60665481565b6033546001600160a01b031681565b6001600160a01b038116600090815260696020526040812060609182918291906103ab906110b1565b90508067ffffffffffffffff811180156103c457600080fd5b506040519080825280602002602001820160405280156103ee578160200160208202803683370190505b5093508067ffffffffffffffff8111801561040857600080fd5b50604051908082528060200260200182016040528015610432578160200160208202803683370190505b5092508067ffffffffffffffff8111801561044c57600080fd5b50604051908082528060200260200182016040528015610476578160200160208202803683370190505b50915060005b8181101561056b576001600160a01b03861660009081526069602052604090206104a690826110c2565b8582815181106104b257fe5b6020908102919091018101919091526001600160a01b0387166000908152606990915260408120606a91906104e790846110c2565b81526020019081526020016000206001015484828151811061050557fe5b6020908102919091018101919091526001600160a01b0387166000908152606990915260408120606a919061053a90846110c2565b81526020019081526020016000206000015483828151811061055857fe5b602090810291909101015260010161047c565b50509193909250565b33600090815260696020526040902061058d90826110d5565b6105cb576040805162461bcd60e51b815260206004820152600a602482015269125b9d985b1a5908125160b21b604482015290519081900360640190fd5b3360009081526069602052604090206105e490826110e1565b506000818152606a60205260409020544211610635576040805162461bcd60e51b815260206004820152600b60248201526a139bdd08195e1c1a5c995960aa1b604482015290519081900360640190fd5b6067546000828152606a6020908152604080832060010154815163a9059cbb60e01b81523360048201526024810191909152905192936001600160a01b03169263a9059cbb9260448084019391929182900301818787803b15801561069957600080fd5b505af11580156106ad573d6000803e3d6000fd5b505050506040513d60208110156106c357600080fd5b5051905080610712576040805162461bcd60e51b81526020600482015260166024820152752a37b5b2b7103a3930b739b332b9103330b4b632b21760511b604482015290519081900360640190fd5b6000828152606a60209081526040808320600181018054918590559390935560685481516001600160a01b03909116815233928101929092528181018390525184917fe4d0e39027315f329442288de9fb80f74327d6b6014d0a500a15ab4ab7d7541b919081900360600190a2505050565b33600090815260696020526040902061079d90826110d5565b6107db576040805162461bcd60e51b815260206004820152600a602482015269125b9d985b1a5908125160b21b604482015290519081900360640190fd5b3360009081526069602052604090206107f490826110e1565b506067546068546000838152606a6020908152604080832060010154815163095ea7b360e01b81526001600160a01b039586166004820152602481019190915290519294939093169263095ea7b3926044808301939282900301818787803b15801561085f57600080fd5b505af1158015610873573d6000803e3d6000fd5b505050506040513d602081101561088957600080fd5b50519050806108d7576040805162461bcd60e51b81526020600482015260156024820152742a37b5b2b71030b8383937bb32903330b4b632b21760591b604482015290519081900360640190fd5b6068546000838152606a602052604080822060010154815163473c541d60e01b8152600481019190915233602482015230604482015290516001600160a01b039093169263473c541d9260648084019391929182900301818387803b15801561093f57600080fd5b505af1158015610953573d6000803e3d6000fd5b5050506000838152606a60209081526040808320600181018054918590559390935560685481516001600160a01b03909116815233928101929092528181018390525191925084917f17d07aabef8bbc61ffcfd340ef5e491b61098c662d8214977da6711b5701e8609181900360600190a2505050565b6033546040805163d994d6d560e01b815233600482015290516001600160a01b039092169163d994d6d591602480820192602092909190829003018186803b158015610a1557600080fd5b505afa158015610a29573d6000803e3d6000fd5b505050506040513d6020811015610a3f57600080fd5b50516040805180820190915260168152753737ba2fb0baba3437b934bd32b22fb1b430b733b2b960511b602082015290610af75760405162461bcd60e51b81526004018080602001828103825283818151815260200191508051906020019080838360005b83811015610abc578181015183820152602001610aa4565b50505050905090810190601f168015610ae95780820380516001836020036101000a031916815260200191505b509250505060405180910390fd5b50603380546001600160a01b0319166001600160a01b0392909216919091179055565b6068546000906001600160a01b03163314610b6b576040805162461bcd60e51b815260206004820152600c60248201526b57726f6e6720736f7572636560a01b604482015290519081900360640190fd5b606754606854604080516323b872dd60e01b81526001600160a01b03928316600482015230602482015260448101889052905160009392909216916323b872dd9160648082019260209290919082900301818787803b158015610bcd57600080fd5b505af1158015610be1573d6000803e3d6000fd5b505050506040513d6020811015610bf757600080fd5b5051905080610c46576040805162461bcd60e51b81526020600482015260166024820152752a37b5b2b7103a3930b739b332b9103330b4b632b21760511b604482015290519081900360640190fd5b6066805460019081018083556000908152606a6020908152604080832042890190558454835280832090930189905592546001600160a01b0388168252606990935220610c92916110ed565b50606654606854604080516001600160a01b039283168152918716602083015281810188905260608201869052517fda2af03eae6ec4f5d76629a4cc5189c9e9667f667757bb06438978aa0009bf3d9181900360800190a250506066549392505050565b600054610100900460ff1680610d0f5750610d0f6110f9565b80610d1d575060005460ff16155b610d585760405162461bcd60e51b815260040180806020018281038252602e8152602001806112d4602e913960400191505060405180910390fd5b600054610100900460ff16158015610d83576000805460ff1961ff0019909116610100171660011790555b606780546001600160a01b038086166001600160a01b0319928316179092556068805492851692909116919091179055610dbc846110ff565b8015610dce576000805461ff00191690555b50505050565b6033546040805163d994d6d560e01b815233600482015290516001600160a01b039092169163d994d6d591602480820192602092909190829003018186803b158015610e1f57600080fd5b505afa158015610e33573d6000803e3d6000fd5b505050506040513d6020811015610e4957600080fd5b50516040805180820190915260168152753737ba2fb0baba3437b934bd32b22fb1b430b733b2b960511b602082015290610ec45760405162461bcd60e51b8152602060048201818152835160248401528351909283926044909101919085019080838360008315610abc578181015183820152602001610aa4565b50604051602060248201908152604482018390523391600091839186918691819060640184848082843760008382015260408051601f909201601f1990811690940182810390940182529283526020810180516001600160e01b03166350b113e560e11b17815292518151919750955085945091925081905083835b60208310610f5f5780518252601f199092019160209182019101610f40565b6001836020036101000a038019825116818451168082178552505050505050905001915050600060405180830381855af49150503d8060008114610fbf576040519150601f19603f3d011682016040523d82523d6000602084013e610fc4565b606091505b5050905080610dce576040805162461bcd60e51b8152602060048201526016602482015275115c9c9bdc881a5b8819195b1959d85d194818d85b1b60521b604482015290519081900360640190fd5b6068546001600160a01b031681565b6067546001600160a01b031681565b6001600160a01b03811660009081526069602052604081208190611054906110b1565b90506000805b828110156110a9576001600160a01b0385166000908152606960205260408120606a919061108890846110c2565b8152602081019190915260400160002060019081015492909201910161105a565b509392505050565b60006110bc82611121565b92915050565b60006110ce8383611125565b9392505050565b60006110ce8383611189565b60006110ce83836111a1565b60006110ce8383611267565b303b1590565b603380546001600160a01b0319166001600160a01b0392909216919091179055565b5490565b815460009082106111675760405162461bcd60e51b81526004018080602001828103825260228152602001806112b26022913960400191505060405180910390fd5b82600001828154811061117657fe5b9060005260206000200154905092915050565b60009081526001919091016020526040902054151590565b6000818152600183016020526040812054801561125d57835460001980830191908101906000908790839081106111d457fe5b90600052602060002001549050808760000184815481106111f157fe5b60009182526020808320909101929092558281526001898101909252604090209084019055865487908061122157fe5b600190038181906000526020600020016000905590558660010160008781526020019081526020016000206000905560019450505050506110bc565b60009150506110bc565b60006112738383611189565b6112a9575081546001818101845560008481526020808220909301849055845484825282860190935260409020919091556110bc565b5060006110bc56fe456e756d657261626c655365743a20696e646578206f7574206f6620626f756e6473436f6e747261637420696e7374616e63652068617320616c7265616479206265656e20696e697469616c697a6564a264697066735822122033109a8863f2edd0dde920cce27e79e0183de3874ffad29020fc2b5bf0d47b8564736f6c634300060c0033",
    "immutableReferences": {},
    "source": "// SPDX-License-Identifier: UNLICENSED\npragma solidity ^0.6.12;\n\nimport {IERC20} from \"@openzeppelin/contracts-ethereum-package/contracts/token/ERC20/IERC20.sol\";\nimport {SafeMath} from \"@openzeppelin/contracts-ethereum-package/contracts/math/SafeMath.sol\";\nimport {Initializable} from \"@openzeppelin/contracts-ethereum-package/contracts/Initializable.sol\";\nimport {Governed} from \"@moc/shared/contracts/moc-governance/Governance/Governed.sol\";\nimport {IGovernor} from \"@moc/shared/contracts/moc-governance/Governance/IGovernor.sol\";\nimport {IStakingMachine} from \"@moc/shared/contracts/IStakingMachine.sol\";\nimport {IDelayMachine} from \"@moc/shared/contracts/IDelayMachine.sol\";\nimport {DelayMachineStorage} from \"./DelayMachineStorage.sol\";\n\ncontract DelayMachine is DelayMachineStorage, IDelayMachine {\n    using SafeMath for uint256;\n\n    event PaymentDeposit(\n        uint256 indexed id,\n        address source,\n        address destination,\n        uint256 amount,\n        uint256 expiration\n    );\n    event PaymentCancel(uint256 indexed id, address source, address destination, uint256 amount);\n    event PaymentWithdraw(uint256 indexed id, address source, address destination, uint256 amount);\n\n    /// @notice Construct this contract.\n    /// @param governor The minimum amount of tokens required as stake for a coin pair subscription.\n    /// @param token the Supporters contract contract address.\n    function initialize(\n        IGovernor governor,\n        IERC20 token,\n        address source\n    ) external initializer {\n        _token = token;\n        _source = source;\n        Governed._initialize(governor);\n    }\n\n    /// @notice Accept a deposit from an account.\n    /// @param mocs token quantity\n    /// @param destination the destination address which can control the funds.\n    /// @param expiration the expiration date for this deposit\n    /// @return id the transaction id\n    function deposit(\n        uint256 mocs,\n        address destination,\n        uint256 expiration\n    ) external override returns (uint256 id) {\n        require(msg.sender == _source, \"Wrong source\");\n        bool done = _token.transferFrom(_source, address(this), mocs);\n        require(done, \"Token transfer failed.\");\n        _id = _id + 1;\n        payments[_id].expiration = block.timestamp + expiration;\n        // solhint-disable-previous-line not-rely-on-time\n        payments[_id].amount = mocs;\n        owners[destination].ids.add(_id);\n        emit PaymentDeposit(_id, _source, destination, mocs, expiration);\n        return _id;\n    }\n\n    /// @notice Cancel a transaction returning the funds to the source\n    /// @param id transaction id\n    function cancel(uint256 id) external override {\n        require(owners[msg.sender].ids.contains(id), \"Invalid ID\");\n        owners[msg.sender].ids.remove(id);\n        bool done = _token.approve(_source, payments[id].amount);\n        require(done, \"Token approve failed.\");\n        IStakingMachine(_source).depositFrom(payments[id].amount, msg.sender, address(this));\n        uint256 amount = payments[id].amount;\n        delete (payments[id]);\n        emit PaymentCancel(id, _source, msg.sender, amount);\n    }\n\n    /// @notice Withdraw stake, send it to the delay machine.\n    /// @param id transaction id\n    function withdraw(uint256 id) external override {\n        require(owners[msg.sender].ids.contains(id), \"Invalid ID\");\n        owners[msg.sender].ids.remove(id);\n        require(payments[id].expiration < block.timestamp, \"Not expired\");\n        // solhint-disable-previous-line not-rely-on-time\n        bool done = _token.transfer(msg.sender, payments[id].amount);\n        require(done, \"Token transfer failed.\");\n        uint256 amount = payments[id].amount;\n        delete (payments[id]);\n        emit PaymentWithdraw(id, _source, msg.sender, amount);\n    }\n\n    /// @notice Returns the list of transaction for some account\n    /// @param account destination address\n    /// @return ids transaction ids\n    /// @return amounts token quantity\n    /// @return expirations expiration dates\n    function getTransactions(address account)\n        external\n        override\n        view\n        returns (\n            uint256[] memory ids,\n            uint256[] memory amounts,\n            uint256[] memory expirations\n        )\n    {\n        uint256 len = owners[account].ids.length();\n        ids = new uint256[](len);\n        amounts = new uint256[](len);\n        expirations = new uint256[](len);\n        for (uint256 i = 0; i < len; i++) {\n            ids[i] = owners[account].ids.at(i);\n            amounts[i] = payments[owners[account].ids.at(i)].amount;\n            expirations[i] = payments[owners[account].ids.at(i)].expiration;\n        }\n    }\n\n    /// @notice Returns the total balance in MOCs for an account\n    /// @param account destination address\n    /// @return balance token quantity\n    function getBalance(address account) external override view returns (uint256) {\n        uint256 len = owners[account].ids.length();\n        uint256 balance;\n        for (uint256 i = 0; i < len; i++) {\n            balance = balance + payments[owners[account].ids.at(i)].amount;\n        }\n        return balance;\n    }\n}\n",
    "sourcePath": "/home/adji/Desktop/work/coinfabrik/moc-oraculos/contracts/DelayMachine.sol",
    "compiler": {
        "name": "solc",
        "version": "0.6.12+commit.27d51765.Emscripten.clang"
    },
    "schemaVersion": "3.2.4",
    "updatedAt": "2020-09-15T18:38:01.898Z",
    "devdoc": {
        "kind": "dev",
        "methods": {
            "cancel(uint256)": {
                "params": {
                    "id": "transaction id"
                }
            },
            "changeIGovernor(address)": {
                "params": {
                    "newIGovernor": "New governor address"
                }
            },
            "delegateCallToChanger(bytes)": {
                "params": {
                    "data": "the serialized function arguments"
                }
            },
            "deposit(uint256,address,uint256)": {
                "params": {
                    "destination": "the destination address which can control the funds.",
                    "expiration": "the expiration date for this deposit",
                    "mocs": "token quantity"
                },
                "returns": {
                    "id": "the transaction id"
                }
            },
            "getBalance(address)": {
                "params": {
                    "account": "destination address"
                },
                "returns": {
                    "_0": "balance token quantity"
                }
            },
            "getTransactions(address)": {
                "params": {
                    "account": "destination address"
                },
                "returns": {
                    "amounts": "token quantity",
                    "expirations": "expiration dates",
                    "ids": "transaction ids"
                }
            },
            "initialize(address,address,address)": {
                "params": {
                    "governor": "The minimum amount of tokens required as stake for a coin pair subscription.",
                    "token": "the Supporters contract contract address."
                }
            },
            "withdraw(uint256)": {
                "params": {
                    "id": "transaction id"
                }
            }
        },
        "version": 1
    },
    "userdoc": {
        "kind": "user",
        "methods": {
            "cancel(uint256)": {
                "notice": "Cancel a transaction returning the funds to the source"
            },
            "changeIGovernor(address)": {
                "notice": "Change the contract's governor. Should be called through the old governance system"
            },
            "delegateCallToChanger(bytes)": {
                "notice": "This method is used by a change contract to access the storage freely even without a setter."
            },
            "deposit(uint256,address,uint256)": {
                "notice": "Accept a deposit from an account."
            },
            "getBalance(address)": {
                "notice": "Returns the total balance in MOCs for an account"
            },
            "getTransactions(address)": {
                "notice": "Returns the list of transaction for some account"
            },
            "governor()": {
                "notice": "The address of the contract which governs this one"
            },
            "initialize(address,address,address)": {
                "notice": "Construct this contract."
            },
            "withdraw(uint256)": {
                "notice": "Withdraw stake, send it to the delay machine."
            }
        },
        "version": 1
    }
}