{
    "contractName": "GovernorChange",
    "abi": [
        {
            "inputs": [
                {
                    "internalType": "contract IGovernor",
                    "name": "_newGovernor",
                    "type": "address"
                },
                {
                    "internalType": "contract Governed[]",
                    "name": "_governed",
                    "type": "address[]"
                }
            ],
            "stateMutability": "nonpayable",
            "type": "constructor"
        },
        {
            "inputs": [
                {
                    "internalType": "uint256",
                    "name": "",
                    "type": "uint256"
                }
            ],
            "name": "governed",
            "outputs": [
                {
                    "internalType": "contract Governed",
                    "name": "",
                    "type": "address"
                }
            ],
            "stateMutability": "view",
            "type": "function"
        },
        {
            "inputs": [],
            "name": "newGovernor",
            "outputs": [
                {
                    "internalType": "contract IGovernor",
                    "name": "",
                    "type": "address"
                }
            ],
            "stateMutability": "view",
            "type": "function"
        },
        {
            "inputs": [],
            "name": "execute",
            "outputs": [],
            "stateMutability": "nonpayable",
            "type": "function"
        }
    ],
    "bytecode": "0x608060405234801561001057600080fd5b5060405161039b38038061039b8339818101604052604081101561003357600080fd5b81516020830180516040519294929383019291908464010000000082111561005a57600080fd5b90830190602082018581111561006f57600080fd5b825186602082028301116401000000008211171561008c57600080fd5b82525081516020918201928201910280838360005b838110156100b95781810151838201526020016100a1565b50505050919091016040525050600080546001600160a01b0319166001600160a01b038616179055505080516100f69060019060208401906100fe565b505050610182565b828054828255906000526020600020908101928215610153579160200282015b8281111561015357825182546001600160a01b0319166001600160a01b0390911617825560209092019160019091019061011e565b5061015f929150610163565b5090565b5b8082111561015f5780546001600160a01b0319168155600101610164565b61020a806101916000396000f3fe608060405234801561001057600080fd5b50600436106100415760003560e01c806361461954146100465780638fd2057714610050578063960664d114610074575b600080fd5b61004e610091565b005b61005861017d565b604080516001600160a01b039092168252519081900360200190f35b6100586004803603602081101561008a57600080fd5b503561018c565b6000546001600160a01b03166100d85760405162461bcd60e51b81526004018080602001828103825260218152602001806101b46021913960400191505060405180910390fd5b60005b60015481101561016a57600181815481106100f257fe5b6000918252602082200154815460408051630b6e083360e41b81526001600160a01b0392831660048201529051919092169263b6e08330926024808201939182900301818387803b15801561014657600080fd5b505af115801561015a573d6000803e3d6000fd5b5050600190920191506100db9050565b50600080546001600160a01b0319169055565b6000546001600160a01b031681565b6001818154811061019957fe5b6000918252602090912001546001600160a01b031690508156fe4e657720676f7665726e6f722061646472657373206d75737420626520213d2030a26469706673582212201b13dc2dbf5ae1d4435b1ad973a0ae11fad4b3db6dd506dad1101649ce5105c964736f6c634300060c0033",
    "immutableReferences": {},
    "source": "// SPDX-License-Identifier: UNLICENSED\npragma solidity 0.6.12;\n\nimport {ChangeContract} from \"@moc/shared/contracts/moc-governance/Governance/ChangeContract.sol\";\nimport {Governed} from \"@moc/shared/contracts/moc-governance/Governance/Governed.sol\";\nimport {IGovernor} from \"@moc/shared/contracts/moc-governance/Governance/IGovernor.sol\";\n\n/**\n  @title GobernorChange\n  @notice This contract is a ChangeContract intended to change the gobernor of all the gobernable contracts\n */\ncontract GovernorChange is ChangeContract {\n    IGovernor public newGovernor;\n    Governed[] public governed;\n\n    /**\n      @notice Constructor\n      @param _newGovernor New governor address\n      @param _governed The list of addresses of the governed contracts\n    */\n    constructor(IGovernor _newGovernor, Governed[] memory _governed) public {\n        newGovernor = _newGovernor;\n        governed = _governed;\n    }\n\n    /**\n      @notice Execute the changes.\n      @dev Should be called by the governor, but this contract does not check that explicitly because\n      it is not its responsability in the current architecture\n     */\n    function execute() external override {\n        require(newGovernor != IGovernor(0), \"New governor address must be != 0\");\n        for (uint256 i = 0; i < governed.length; i++) {\n            governed[i].changeIGovernor(newGovernor);\n        }\n        // Usable just once.\n        newGovernor = IGovernor(0);\n    }\n}\n",
    "sourcePath": "/home/adji/Desktop/work/coinfabrik/moc-oraculos/contracts/change/GovernorChange.sol",
    "compiler": {
        "name": "solc",
        "version": "0.6.12+commit.27d51765.Emscripten.clang"
    },
    "schemaVersion": "3.2.4",
    "updatedAt": "2020-09-14T20:07:21.963Z",
    "devdoc": {
        "kind": "dev",
        "methods": {
            "constructor": {
                "params": {
                    "_governed": "The list of addresses of the governed contracts",
                    "_newGovernor": "New governor address"
                }
            },
            "execute()": {
                "details": "Should be called by the governor, but this contract does not check that explicitly because it is not its responsability in the current architecture"
            }
        },
        "title": "GobernorChange",
        "version": 1
    },
    "userdoc": {
        "kind": "user",
        "methods": {
            "constructor": "Constructor",
            "execute()": {
                "notice": "Execute the changes."
            }
        },
        "notice": "This contract is a ChangeContract intended to change the gobernor of all the gobernable contracts",
        "version": 1
    }
}