{
    "contractName": "GovernorChange",
    "abi": [
        {
            "inputs": [
                {
                    "internalType": "contract IGovernor",
                    "name": "_newGovernor",
                    "type": "address"
                },
                {
                    "internalType": "contract Governed[]",
                    "name": "_governed",
                    "type": "address[]"
                }
            ],
            "stateMutability": "nonpayable",
            "type": "constructor"
        },
        {
            "inputs": [
                {
                    "internalType": "uint256",
                    "name": "",
                    "type": "uint256"
                }
            ],
            "name": "governed",
            "outputs": [
                {
                    "internalType": "contract Governed",
                    "name": "",
                    "type": "address"
                }
            ],
            "stateMutability": "view",
            "type": "function"
        },
        {
            "inputs": [],
            "name": "newGovernor",
            "outputs": [
                {
                    "internalType": "contract IGovernor",
                    "name": "",
                    "type": "address"
                }
            ],
            "stateMutability": "view",
            "type": "function"
        },
        {
            "inputs": [],
            "name": "execute",
            "outputs": [],
            "stateMutability": "nonpayable",
            "type": "function"
        }
    ],
    "bytecode": "0x608060405234801561001057600080fd5b506040516105783803806105788339818101604052604081101561003357600080fd5b81019080805190602001909291908051604051939291908464010000000082111561005d57600080fd5b8382019150602082018581111561007357600080fd5b825186602082028301116401000000008211171561009057600080fd5b8083526020830192505050908051906020019060200280838360005b838110156100c75780820151818401526020810190506100ac565b50505050905001604052505050816000806101000a81548173ffffffffffffffffffffffffffffffffffffffff021916908373ffffffffffffffffffffffffffffffffffffffff160217905550806001908051906020019061012a929190610132565b5050506101f7565b8280548282559060005260206000209081019282156101ab579160200282015b828111156101aa5782518260006101000a81548173ffffffffffffffffffffffffffffffffffffffff021916908373ffffffffffffffffffffffffffffffffffffffff16021790555091602001919060010190610152565b5b5090506101b891906101bc565b5090565b5b808211156101f357600081816101000a81549073ffffffffffffffffffffffffffffffffffffffff0219169055506001016101bd565b5090565b610372806102066000396000f3fe608060405234801561001057600080fd5b50600436106100415760003560e01c806361461954146100465780638fd2057714610050578063960664d114610084575b600080fd5b61004e6100dc565b005b6100586102bb565b604051808273ffffffffffffffffffffffffffffffffffffffff16815260200191505060405180910390f35b6100b06004803603602081101561009a57600080fd5b81019080803590602001909291905050506102df565b604051808273ffffffffffffffffffffffffffffffffffffffff16815260200191505060405180910390f35b600073ffffffffffffffffffffffffffffffffffffffff1660008054906101000a900473ffffffffffffffffffffffffffffffffffffffff1673ffffffffffffffffffffffffffffffffffffffff161415610182576040517f08c379a000000000000000000000000000000000000000000000000000000000815260040180806020018281038252602181526020018061031c6021913960400191505060405180910390fd5b60005b600180549050811015610277576001818154811061019f57fe5b9060005260206000200160009054906101000a900473ffffffffffffffffffffffffffffffffffffffff1673ffffffffffffffffffffffffffffffffffffffff1663b6e0833060008054906101000a900473ffffffffffffffffffffffffffffffffffffffff166040518263ffffffff1660e01b8152600401808273ffffffffffffffffffffffffffffffffffffffff168152602001915050600060405180830381600087803b15801561025257600080fd5b505af1158015610266573d6000803e3d6000fd5b505050508080600101915050610185565b5060008060006101000a81548173ffffffffffffffffffffffffffffffffffffffff021916908373ffffffffffffffffffffffffffffffffffffffff160217905550565b60008054906101000a900473ffffffffffffffffffffffffffffffffffffffff1681565b600181815481106102ec57fe5b906000526020600020016000915054906101000a900473ffffffffffffffffffffffffffffffffffffffff168156fe4e657720676f7665726e6f722061646472657373206d75737420626520213d2030a2646970667358221220fbbd45163e08111103df1f7ed492ca51499e35439f4abcbeb6448a527e4e823e64736f6c634300060c0033",
    "immutableReferences": {},
    "source": "// SPDX-License-Identifier: UNLICENSED\npragma solidity 0.6.12;\n\nimport {ChangeContract} from \"@moc/shared/contracts/moc-governance/Governance/ChangeContract.sol\";\nimport {Governed} from \"@moc/shared/contracts/moc-governance/Governance/Governed.sol\";\nimport {IGovernor} from \"@moc/shared/contracts/moc-governance/Governance/IGovernor.sol\";\n\n/**\n  @title GobernorChange\n  @notice This contract is a ChangeContract intended to change the gobernor of all the gobernable contracts\n */\ncontract GovernorChange is ChangeContract {\n    IGovernor public newGovernor;\n    Governed[] public governed;\n\n    /**\n      @notice Constructor\n      @param _newGovernor New governor address\n      @param _governed The list of addresses of the governed contracts\n    */\n    constructor(IGovernor _newGovernor, Governed[] memory _governed) public {\n        newGovernor = _newGovernor;\n        governed = _governed;\n    }\n\n    /**\n      @notice Execute the changes.\n      @dev Should be called by the governor, but this contract does not check that explicitly because\n      it is not its responsability in the current architecture\n     */\n    function execute() external override {\n        require(newGovernor != IGovernor(0), \"New governor address must be != 0\");\n        for (uint256 i = 0; i < governed.length; i++) {\n            governed[i].changeIGovernor(newGovernor);\n        }\n        // Usable just once.\n        newGovernor = IGovernor(0);\n    }\n}\n",
    "sourcePath": "/home/adji/Desktop/work/coinfabrik/moc-oraculos/contracts/change/GovernorChange.sol",
    "compiler": {
        "name": "solc",
        "version": "0.6.12+commit.27d51765.Emscripten.clang"
    },
    "schemaVersion": "3.2.4",
    "updatedAt": "2020-09-15T15:02:42.806Z",
    "devdoc": {
        "kind": "dev",
        "methods": {
            "constructor": {
                "params": {
                    "_governed": "The list of addresses of the governed contracts",
                    "_newGovernor": "New governor address"
                }
            },
            "execute()": {
                "details": "Should be called by the governor, but this contract does not check that explicitly because it is not its responsability in the current architecture"
            }
        },
        "title": "GobernorChange",
        "version": 1
    },
    "userdoc": {
        "kind": "user",
        "methods": {
            "constructor": "Constructor",
            "execute()": {
                "notice": "Execute the changes."
            }
        },
        "notice": "This contract is a ChangeContract intended to change the gobernor of all the gobernable contracts",
        "version": 1
    }
}