{
    "contractName": "InfoGetter",
    "abi": [
        {
            "inputs": [
                {
                    "internalType": "contract IGovernor",
                    "name": "newIGovernor",
                    "type": "address"
                }
            ],
            "name": "changeIGovernor",
            "outputs": [],
            "stateMutability": "nonpayable",
            "type": "function"
        },
        {
            "inputs": [
                {
                    "internalType": "bytes",
                    "name": "data",
                    "type": "bytes"
                }
            ],
            "name": "delegateCallToChanger",
            "outputs": [],
            "stateMutability": "nonpayable",
            "type": "function"
        },
        {
            "inputs": [],
            "name": "governor",
            "outputs": [
                {
                    "internalType": "contract IGovernor",
                    "name": "",
                    "type": "address"
                }
            ],
            "stateMutability": "view",
            "type": "function"
        },
        {
            "inputs": [
                {
                    "internalType": "contract IGovernor",
                    "name": "_governor",
                    "type": "address"
                }
            ],
            "name": "initialize",
            "outputs": [],
            "stateMutability": "nonpayable",
            "type": "function"
        },
        {
            "inputs": [
                {
                    "internalType": "contract CoinPairPrice",
                    "name": "_coinPairPrice",
                    "type": "address"
                }
            ],
            "name": "getCoinPairUIInfo",
            "outputs": [
                {
                    "components": [
                        {
                            "internalType": "uint256",
                            "name": "round",
                            "type": "uint256"
                        },
                        {
                            "internalType": "uint256",
                            "name": "startBlock",
                            "type": "uint256"
                        },
                        {
                            "internalType": "uint256",
                            "name": "lockPeriodTimestamp",
                            "type": "uint256"
                        },
                        {
                            "internalType": "uint256",
                            "name": "totalPoints",
                            "type": "uint256"
                        },
                        {
                            "components": [
                                {
                                    "internalType": "uint256",
                                    "name": "points",
                                    "type": "uint256"
                                },
                                {
                                    "internalType": "bool",
                                    "name": "selectedInRound",
                                    "type": "bool"
                                },
                                {
                                    "internalType": "address",
                                    "name": "addr",
                                    "type": "address"
                                }
                            ],
                            "internalType": "struct InfoGetter.CoinPairUIOracleRoundInfo[]",
                            "name": "info",
                            "type": "tuple[]"
                        },
                        {
                            "internalType": "uint256",
                            "name": "currentBlock",
                            "type": "uint256"
                        },
                        {
                            "internalType": "uint256",
                            "name": "lastPubBlock",
                            "type": "uint256"
                        },
                        {
                            "internalType": "bytes32",
                            "name": "lastPubBlockHash",
                            "type": "bytes32"
                        },
                        {
                            "internalType": "uint256",
                            "name": "validPricePeriodInBlocks",
                            "type": "uint256"
                        },
                        {
                            "internalType": "uint256",
                            "name": "availableRewards",
                            "type": "uint256"
                        }
                    ],
                    "internalType": "struct InfoGetter.CoinPairPriceUIInfo",
                    "name": "coinPairPriceUIInfo",
                    "type": "tuple"
                }
            ],
            "stateMutability": "view",
            "type": "function"
        },
        {
            "inputs": [
                {
                    "internalType": "contract OracleManager",
                    "name": "_oracleManager",
                    "type": "address"
                },
                {
                    "internalType": "uint256",
                    "name": "_offset",
                    "type": "uint256"
                },
                {
                    "internalType": "uint256",
                    "name": "_limit",
                    "type": "uint256"
                }
            ],
            "name": "getManagerUICoinPairInfo",
            "outputs": [
                {
                    "components": [
                        {
                            "internalType": "address",
                            "name": "addr",
                            "type": "address"
                        },
                        {
                            "internalType": "bytes32",
                            "name": "coinPair",
                            "type": "bytes32"
                        }
                    ],
                    "internalType": "struct InfoGetter.ManagerUICoinPairInfo[]",
                    "name": "info",
                    "type": "tuple[]"
                }
            ],
            "stateMutability": "view",
            "type": "function"
        },
        {
            "inputs": [
                {
                    "internalType": "contract OracleManager",
                    "name": "_oracleManager",
                    "type": "address"
                },
                {
                    "internalType": "uint256",
                    "name": "_from",
                    "type": "uint256"
                },
                {
                    "internalType": "uint256",
                    "name": "_cant",
                    "type": "uint256"
                }
            ],
            "name": "getManagerUIOracleInfo",
            "outputs": [
                {
                    "components": [
                        {
                            "internalType": "uint256",
                            "name": "stake",
                            "type": "uint256"
                        },
                        {
                            "internalType": "uint256",
                            "name": "mocsBalance",
                            "type": "uint256"
                        },
                        {
                            "internalType": "uint256",
                            "name": "basecoinBalance",
                            "type": "uint256"
                        },
                        {
                            "internalType": "address",
                            "name": "addr",
                            "type": "address"
                        },
                        {
                            "internalType": "address",
                            "name": "owner",
                            "type": "address"
                        },
                        {
                            "internalType": "string",
                            "name": "name",
                            "type": "string"
                        }
                    ],
                    "internalType": "struct InfoGetter.ManagerUIOracleInfo[]",
                    "name": "info",
                    "type": "tuple[]"
                },
                {
                    "internalType": "address",
                    "name": "nextEntry",
                    "type": "address"
                }
            ],
            "stateMutability": "view",
            "type": "function"
        },
        {
            "inputs": [
                {
                    "internalType": "contract OracleManager",
                    "name": "_oracleManager",
                    "type": "address"
                },
                {
                    "internalType": "contract CoinPairPrice",
                    "name": "_coinPairPrice",
                    "type": "address"
                }
            ],
            "name": "getOracleServerInfo",
            "outputs": [
                {
                    "components": [
                        {
                            "internalType": "uint256",
                            "name": "round",
                            "type": "uint256"
                        },
                        {
                            "internalType": "uint256",
                            "name": "startBlock",
                            "type": "uint256"
                        },
                        {
                            "internalType": "uint256",
                            "name": "lockPeriodTimestamp",
                            "type": "uint256"
                        },
                        {
                            "internalType": "uint256",
                            "name": "totalPoints",
                            "type": "uint256"
                        },
                        {
                            "components": [
                                {
                                    "internalType": "uint256",
                                    "name": "stake",
                                    "type": "uint256"
                                },
                                {
                                    "internalType": "uint256",
                                    "name": "points",
                                    "type": "uint256"
                                },
                                {
                                    "internalType": "address",
                                    "name": "addr",
                                    "type": "address"
                                },
                                {
                                    "internalType": "address",
                                    "name": "owner",
                                    "type": "address"
                                },
                                {
                                    "internalType": "string",
                                    "name": "name",
                                    "type": "string"
                                }
                            ],
                            "internalType": "struct InfoGetter.FullOracleRoundInfo[]",
                            "name": "info",
                            "type": "tuple[]"
                        },
                        {
                            "internalType": "uint256",
                            "name": "price",
                            "type": "uint256"
                        },
                        {
                            "internalType": "uint256",
                            "name": "currentBlock",
                            "type": "uint256"
                        },
                        {
                            "internalType": "uint256",
                            "name": "lastPubBlock",
                            "type": "uint256"
                        },
                        {
                            "internalType": "bytes32",
                            "name": "lastPubBlockHash",
                            "type": "bytes32"
                        },
                        {
                            "internalType": "uint256",
                            "name": "validPricePeriodInBlocks",
                            "type": "uint256"
                        }
                    ],
                    "internalType": "struct InfoGetter.OracleServerInfo",
                    "name": "oracleServerInfo",
                    "type": "tuple"
                }
            ],
            "stateMutability": "view",
            "type": "function"
        }
    ],
    "bytecode": "0x608060405234801561001057600080fd5b50611c74806100206000396000f3fe608060405234801561001057600080fd5b50600436106100885760003560e01c8063ad314b2e1161005b578063ad314b2e1461010c578063b6e083301461012c578063c4d66de814610141578063dc8990e11461015457610088565b8063072b89d81461008d5780630c340a24146100b657806364911422146100cb57806380ca28d0146100eb575b600080fd5b6100a061009b3660046116bf565b610167565b6040516100ad9190611921565b60405180910390f35b6100be6103a4565b6040516100ad919061190d565b6100de6100d9366004611676565b6103b3565b6040516100ad9190611af0565b6100fe6100f93660046116bf565b610736565b6040516100ad92919061196c565b61011f61011a366004611692565b610aff565b6040516100ad9190611b7e565b61013f61013a366004611676565b610d02565b005b61013f61014f366004611676565b610dfb565b61013f610162366004611609565b610e88565b60606000846001600160a01b03166363adb1a26040518163ffffffff1660e01b815260040160206040518083038186803b1580156101a457600080fd5b505afa1580156101b8573d6000803e3d6000fd5b505050506040513d601f19601f820116820180604052508101906101dc91906115c2565b9050808311806101ea575082155b156101f3578092505b828411156101ff578293505b8383038067ffffffffffffffff8111801561021957600080fd5b5060405190808252806020026020018201604052801561025357816020015b6102406112c4565b8152602001906001900390816102385790505b50925060005b8181101561039a5760405163df1810f960e01b81526000906001600160a01b0389169063df1810f99061029290858b0190600401611a27565b60206040518083038186803b1580156102aa57600080fd5b505afa1580156102be573d6000803e3d6000fd5b505050506040513d601f19601f820116820180604052508101906102e291906115c2565b6040805180820191829052630d2020dd60e01b909152909150806001600160a01b038a16630d2020dd6103188560448501611a27565b60206040518083038186803b15801561033057600080fd5b505afa158015610344573d6000803e3d6000fd5b505050506040513d601f19601f820116820180604052508101906103689190611521565b6001600160a01b031681526020018281525085838151811061038657fe5b602090810291909101015250600101610259565b5050509392505050565b6033546001600160a01b031681565b6103bb6112db565b6000806000806060866001600160a01b03166384bc76a66040518163ffffffff1660e01b815260040160006040518083038186803b1580156103fc57600080fd5b505afa158015610410573d6000803e3d6000fd5b505050506040513d6000823e601f3d908101601f19168201604052610438919081019061174c565b955050945094509450945060008151905060608167ffffffffffffffff8111801561046257600080fd5b5060405190808252806020026020018201604052801561049c57816020015b610489611331565b8152602001906001900390816104815790505b50905060005b8281101561058c5760008482815181106104b857fe5b602002602001015190506000808c6001600160a01b0316638458c1dd846040518263ffffffff1660e01b81526004016104f1919061190d565b604080518083038186803b15801561050857600080fd5b505afa15801561051c573d6000803e3d6000fd5b505050506040513d601f19601f8201168201806040525081019061054091906115da565b9150915060405180606001604052808381526020018215158152602001846001600160a01b031681525085858151811061057657fe5b60209081029190910101525050506001016104a2565b506000896001600160a01b031663cc53a0056040518163ffffffff1660e01b815260040160206040518083038186803b1580156105c857600080fd5b505afa1580156105dc573d6000803e3d6000fd5b505050506040513d601f19601f8201168201806040525081019061060091906115c2565b9050604051806101400160405280898152602001888152602001878152602001868152602001838152602001438152602001828152602001824081526020018b6001600160a01b0316639a5b37816040518163ffffffff1660e01b815260040160206040518083038186803b15801561067857600080fd5b505afa15801561068c573d6000803e3d6000fd5b505050506040513d601f19601f820116820180604052508101906106b091906115c2565b81526020018b6001600160a01b031663bb0d18bc6040518163ffffffff1660e01b815260040160206040518083038186803b1580156106ee57600080fd5b505afa158015610702573d6000803e3d6000fd5b505050506040513d601f19601f8201168201806040525081019061072691906115c2565b90529a9950505050505050505050565b6060600080856001600160a01b031663aa265d026040518163ffffffff1660e01b815260040160206040518083038186803b15801561077457600080fd5b505afa158015610788573d6000803e3d6000fd5b505050506040513d601f19601f820116820180604052508101906107ac91906115c2565b90508085106107bb5750610af7565b8481038411156107cb5784810393505b8367ffffffffffffffff811180156107e257600080fd5b5060405190808252806020026020018201604052801561081c57816020015b610809611351565b8152602001906001900390816108015790505b50925060005b84811015610af4576000806060896001600160a01b0316633ac7c7848a86016040518263ffffffff1660e01b815260040161085d9190611a27565b60006040518083038186803b15801561087557600080fd5b505afa158015610889573d6000803e3d6000fd5b505050506040513d6000823e601f3d908101601f191682016040526108b19190810190611544565b92509250925060008a6001600160a01b0316637a766460856040518263ffffffff1660e01b81526004016108e5919061190d565b60206040518083038186803b1580156108fd57600080fd5b505afa158015610911573d6000803e3d6000fd5b505050506040513d601f19601f8201168201806040525081019061093591906115c2565b90506040518060c001604052808281526020018c6001600160a01b031663ee99205c6040518163ffffffff1660e01b815260040160206040518083038186803b15801561098157600080fd5b505afa158015610995573d6000803e3d6000fd5b505050506040513d601f19601f820116820180604052508101906109b99190611521565b6001600160a01b03166372015d1a6040518163ffffffff1660e01b815260040160206040518083038186803b1580156109f157600080fd5b505afa158015610a05573d6000803e3d6000fd5b505050506040513d601f19601f82011682018060405250810190610a299190611521565b6001600160a01b03166370a08231866040518263ffffffff1660e01b8152600401610a54919061190d565b60206040518083038186803b158015610a6c57600080fd5b505afa158015610a80573d6000803e3d6000fd5b505050506040513d601f19601f82011682018060405250810190610aa491906115c2565b81526001600160a01b03808616803160208401526040830152861660608201526080018390528851899087908110610ad857fe5b6020026020010181905250505050508080600101915050610822565b50505b935093915050565b610b07611399565b6000826001600160a01b031663cc53a0056040518163ffffffff1660e01b815260040160206040518083038186803b158015610b4257600080fd5b505afa158015610b56573d6000803e3d6000fd5b505050506040513d601f19601f82011682018060405250810190610b7a91906115c2565b90506000836001600160a01b03166359e02dd76040518163ffffffff1660e01b8152600401604080518083038186803b158015610bb657600080fd5b505afa158015610bca573d6000803e3d6000fd5b505050506040513d601f19601f82011682018060405250810190610bee91906115da565b5090506000806000806060886001600160a01b03166384bc76a66040518163ffffffff1660e01b815260040160006040518083038186803b158015610c3257600080fd5b505afa158015610c46573d6000803e3d6000fd5b505050506040513d6000823e601f3d908101601f19168201604052610c6e919081019061174c565b9550509450945094509450604051806101400160405280868152602001858152602001848152602001838152602001610ca88c8c8561100c565b81526020018760001c8152602001438152602001888152602001884081526020018a6001600160a01b0316639a5b37816040518163ffffffff1660e01b815260040160206040518083038186803b1580156106ee57600080fd5b60335460405163d994d6d560e01b81526001600160a01b039091169063d994d6d590610d3290339060040161190d565b60206040518083038186803b158015610d4a57600080fd5b505afa158015610d5e573d6000803e3d6000fd5b505050506040513d601f19601f82011682018060405250810190610d8291906115a6565b604051806040016040528060168152602001753737ba2fb0baba3437b934bd32b22fb1b430b733b2b960511b81525090610dd85760405162461bcd60e51b8152600401610dcf9190611a5f565b60405180910390fd5b50603380546001600160a01b0319166001600160a01b0392909216919091179055565b600054610100900460ff1680610e145750610e1461129c565b80610e22575060005460ff16155b610e3e5760405162461bcd60e51b8152600401610dcf90611a72565b600054610100900460ff16158015610e69576000805460ff1961ff0019909116610100171660011790555b610e72826112a2565b8015610e84576000805461ff00191690555b5050565b60335460405163d994d6d560e01b81526001600160a01b039091169063d994d6d590610eb890339060040161190d565b60206040518083038186803b158015610ed057600080fd5b505afa158015610ee4573d6000803e3d6000fd5b505050506040513d601f19601f82011682018060405250810190610f0891906115a6565b604051806040016040528060168152602001753737ba2fb0baba3437b934bd32b22fb1b430b733b2b960511b81525090610f555760405162461bcd60e51b8152600401610dcf9190611a5f565b5060405133906000908290610f709086908690602401611a30565b60408051601f198184030181529181526020820180516001600160e01b03166350b113e560e11b17905251610fa591906118f1565b600060405180830381855af49150503d8060008114610fe0576040519150601f19603f3d011682016040523d82523d6000602084013e610fe5565b606091505b50509050806110065760405162461bcd60e51b8152600401610dcf90611ac0565b50505050565b80516060908067ffffffffffffffff8111801561102857600080fd5b5060405190808252806020026020018201604052801561106257816020015b61104f6113ef565b8152602001906001900390816110475790505b50915060005b81811015611293576000866001600160a01b031663c6cd9cd686848151811061108d57fe5b60200260200101516040518263ffffffff1660e01b81526004016110b1919061190d565b60206040518083038186803b1580156110c957600080fd5b505afa1580156110dd573d6000803e3d6000fd5b505050506040513d601f19601f820116820180604052508101906111019190611521565b905060606000886001600160a01b031663949394fe846040518263ffffffff1660e01b8152600401611133919061190d565b60006040518083038186803b15801561114b57600080fd5b505afa15801561115f573d6000803e3d6000fd5b505050506040513d6000823e601f3d908101601f1916820160405261118791908101906116f3565b50915091506000886001600160a01b0316638458c1dd8987815181106111a957fe5b60200260200101516040518263ffffffff1660e01b81526004016111cd919061190d565b604080518083038186803b1580156111e457600080fd5b505afa1580156111f8573d6000803e3d6000fd5b505050506040513d601f19601f8201168201806040525081019061121c91906115da565b5090506040518060a0016040528083815260200182815260200189878151811061124257fe5b60200260200101516001600160a01b03168152602001856001600160a01b031681526020018481525087868151811061127757fe5b6020026020010181905250505050508080600101915050611068565b50509392505050565b303b1590565b603380546001600160a01b0319166001600160a01b0392909216919091179055565b604080518082019091526000808252602082015290565b604051806101400160405280600081526020016000815260200160008152602001600081526020016060815260200160008152602001600081526020016000801916815260200160008152602001600081525090565b604080516060810182526000808252602082018190529181019190915290565b6040518060c0016040528060008152602001600081526020016000815260200160006001600160a01b0316815260200160006001600160a01b03168152602001606081525090565b604051806101400160405280600081526020016000815260200160008152602001600081526020016060815260200160008152602001600081526020016000815260200160008019168152602001600081525090565b6040518060a00160405280600081526020016000815260200160006001600160a01b0316815260200160006001600160a01b03168152602001606081525090565b600082601f830112611440578081fd5b815167ffffffffffffffff811115611456578182fd5b6020808202611466828201611bc5565b8381529350818401858301828701840188101561148257600080fd5b600092505b848310156114ae57805161149a81611c18565b825260019290920191908301908301611487565b505050505092915050565b600082601f8301126114c9578081fd5b815167ffffffffffffffff8111156114df578182fd5b6114f2601f8201601f1916602001611bc5565b915080825283602082850101111561150957600080fd5b61151a816020840160208601611bec565b5092915050565b600060208284031215611532578081fd5b815161153d81611c18565b9392505050565b600080600060608486031215611558578182fd5b835161156381611c18565b602085015190935061157481611c18565b604085015190925067ffffffffffffffff811115611590578182fd5b61159c868287016114b9565b9150509250925092565b6000602082840312156115b7578081fd5b815161153d81611c30565b6000602082840312156115d3578081fd5b5051919050565b600080604083850312156115ec578182fd5b8251915060208301516115fe81611c30565b809150509250929050565b6000806020838503121561161b578182fd5b823567ffffffffffffffff80821115611632578384fd5b818501915085601f830112611645578384fd5b813581811115611653578485fd5b866020828501011115611664578485fd5b60209290920196919550909350505050565b600060208284031215611687578081fd5b813561153d81611c18565b600080604083850312156116a4578182fd5b82356116af81611c18565b915060208301356115fe81611c18565b6000806000606084860312156116d3578283fd5b83356116de81611c18565b95602085013595506040909401359392505050565b600080600060608486031215611707578283fd5b835167ffffffffffffffff81111561171d578384fd5b611729868287016114b9565b93505060208401519150604084015161174181611c18565b809150509250925092565b60008060008060008060c08789031215611764578384fd5b86519550602087015194506040870151935060608701519250608087015167ffffffffffffffff80821115611797578384fd5b6117a38a838b01611430565b935060a08901519150808211156117b8578283fd5b506117c589828a01611430565b9150509295509295509295565b6000815180845260208085019450808401835b8381101561182257815180518852838101511515848901526040908101516001600160a01b031690880152606090960195908201906001016117e5565b509495945050505050565b6000815180845260208085018081965082840281019150828601855b858110156118b857828403895281518051855285810151868601526040808201516001600160a01b03908116918701919091526060808301519091169086015260809081015160a0918601829052906118a4818701836118c5565b9a87019a9550505090840190600101611849565b5091979650505050505050565b600081518084526118dd816020860160208601611bec565b601f01601f19169290920160200192915050565b60008251611903818460208701611bec565b9190910192915050565b6001600160a01b0391909116815260200190565b602080825282518282018190526000919060409081850190868401855b828110156118b857815180516001600160a01b0316855286015186850152928401929085019060010161193e565b604080825283518282018190526000919060609081850190602080820287018401818a01875b84811015611a0857898303605f1901865281518051845284810151858501528881015189850152878101516001600160a01b03908116898601526080808301519091169085015260a09081015160c0918501829052906119f4818601836118c5565b978601979450505090830190600101611992565b50506001600160a01b0398909816960195909552509395945050505050565b90815260200190565b60006020825282602083015282846040840137818301604090810191909152601f909201601f19160101919050565b60006020825261153d60208301846118c5565b6020808252602e908201527f436f6e747261637420696e7374616e63652068617320616c726561647920626560408201526d195b881a5b9a5d1a585b1a5e995960921b606082015260800190565b602080825260169082015275115c9c9bdc881a5b8819195b1959d85d194818d85b1b60521b604082015260600190565b6000602082528251602083015260208301516040830152604083015160608301526060830151608083015260808301516101408060a0850152611b376101608501836117d2565b915060a085015160c085015260c085015160e085015260e0850151610100818187015280870151915050610120818187015280870151838701525050508091505092915050565b6000602082528251602083015260208301516040830152604083015160608301526060830151608083015260808301516101408060a0850152611b3761016085018361182d565b60405181810167ffffffffffffffff81118282101715611be457600080fd5b604052919050565b60005b83811015611c07578181015183820152602001611bef565b838111156110065750506000910152565b6001600160a01b0381168114611c2d57600080fd5b50565b8015158114611c2d57600080fdfea2646970667358221220c7393bc97159606cb0c96db6191640310c609737b2fb97105ce276d29b96623664736f6c634300060c0033",
    "immutableReferences": {},
    "source": "// SPDX-License-Identifier: UNLICENSED\npragma solidity 0.6.12;\npragma experimental ABIEncoderV2;\n\nimport {Initializable} from \"@openzeppelin/contracts-ethereum-package/contracts/Initializable.sol\";\nimport {CoinPairPrice} from \"./CoinPairPrice.sol\";\nimport {OracleManager} from \"./OracleManager.sol\";\nimport {Governed} from \"@moc/shared/contracts/moc-governance/Governance/Governed.sol\";\nimport {IGovernor} from \"@moc/shared/contracts/moc-governance/Governance/IGovernor.sol\";\nimport {Governed} from \"@moc/shared/contracts/moc-governance/Governance/Governed.sol\";\n\n/// @title This contract provides an interface for feeding prices from oracles, and\n///        get the current price. One contract must be instanced per supported coin pair,\n///        and registered through OracleManager global contract.\ncontract InfoGetter is Initializable, Governed {\n    struct FullOracleRoundInfo {\n        uint256 stake;\n        uint256 points;\n        address addr;\n        address owner;\n        string name;\n    }\n\n    struct OracleServerInfo {\n        uint256 round;\n        uint256 startBlock;\n        uint256 lockPeriodTimestamp;\n        uint256 totalPoints;\n        FullOracleRoundInfo[] info;\n        uint256 price;\n        uint256 currentBlock;\n        uint256 lastPubBlock;\n        bytes32 lastPubBlockHash;\n        uint256 validPricePeriodInBlocks;\n    }\n\n    struct ManagerUIOracleInfo {\n        uint256 stake;\n        uint256 mocsBalance;\n        uint256 basecoinBalance;\n        address addr;\n        address owner;\n        string name;\n    }\n\n    struct ManagerUICoinPairInfo {\n        address addr;\n        bytes32 coinPair;\n    }\n\n    struct CoinPairUIOracleRoundInfo {\n        uint256 points;\n        bool selectedInRound;\n        address addr;\n    }\n\n    struct CoinPairPriceUIInfo {\n        uint256 round;\n        uint256 startBlock;\n        uint256 lockPeriodTimestamp;\n        uint256 totalPoints;\n        CoinPairUIOracleRoundInfo[] info;\n        uint256 currentBlock;\n        uint256 lastPubBlock;\n        bytes32 lastPubBlockHash;\n        uint256 validPricePeriodInBlocks;\n        uint256 availableRewards;\n    }\n\n    /**\n      @notice Initialize the contract with the basic settings\n      @dev This initialize replaces the constructor but it is not called automatically.\n      It is necessary because of the upgradeability of the contracts\n      @param _governor Governor address\n     */\n    function initialize(IGovernor _governor) external initializer {\n        Governed._initialize(_governor);\n    }\n\n    /**\n        Return all the information needed by the ui (one call, to avoid a lot of rpc)\n\n        @param _coinPairPrice coinPairPrice contract\n    */\n    function getCoinPairUIInfo(CoinPairPrice _coinPairPrice)\n        external\n        view\n        returns (CoinPairPriceUIInfo memory coinPairPriceUIInfo)\n    {\n        (\n            uint256 round,\n            uint256 startBlock,\n            uint256 lockPeriodTimestamp,\n            uint256 totalPoints,\n            ,\n            address[] memory selectedOracles\n        ) = _coinPairPrice.getRoundInfo();\n        uint256 len = selectedOracles.length;\n        CoinPairUIOracleRoundInfo[] memory info = new CoinPairUIOracleRoundInfo[](len);\n        for (uint256 i = 0; i < len; i++) {\n            address addr = selectedOracles[i];\n            (uint256 points, bool selectedInRound) = _coinPairPrice.getOracleRoundInfo(addr);\n            info[i] = CoinPairUIOracleRoundInfo(points, selectedInRound, addr);\n        }\n        uint256 lastPublicationBlock = _coinPairPrice.lastPublicationBlock();\n        return\n            CoinPairPriceUIInfo(\n                round,\n                startBlock,\n                lockPeriodTimestamp,\n                totalPoints,\n                info,\n                block.number,\n                lastPublicationBlock,\n                blockhash(lastPublicationBlock),\n                _coinPairPrice.validPricePeriodInBlocks(),\n                _coinPairPrice.getAvailableRewardFees()\n            );\n    }\n\n    /**\n        Return all the information needed by the ui (one call, to avoid a lot of rpc)\n\n        @param _oracleManager oracleManager contract\n        @param _offset take from this offset\n        @param _limit take to this limit, limit == 0 => take all\n    */\n    function getManagerUICoinPairInfo(\n        OracleManager _oracleManager,\n        uint256 _offset,\n        uint256 _limit\n    ) external view returns (ManagerUICoinPairInfo[] memory info) {\n        uint256 total = _oracleManager.getCoinPairCount();\n        if (_limit > total || _limit == 0) {\n            _limit = total;\n        }\n        if (_offset > _limit) {\n            _offset = _limit;\n        }\n        uint256 cant = (_limit - _offset);\n        info = new ManagerUICoinPairInfo[](cant);\n        for (uint256 i = 0; i < cant; i++) {\n            bytes32 cp = _oracleManager.getCoinPairAtIndex(i + _offset);\n            info[i] = ManagerUICoinPairInfo(_oracleManager.getContractAddress(cp), cp);\n        }\n    }\n\n    /**\n        Return all the information needed by the ui (one call, to avoid a lot of rpc)\n\n        @param _oracleManager oracleManager contract\n        @param _from The index to start from.\n        @param _cant Number of items to return.\n    */\n    function getManagerUIOracleInfo(\n        OracleManager _oracleManager,\n        uint256 _from,\n        uint256 _cant\n    ) external view returns (ManagerUIOracleInfo[] memory info, address nextEntry) {\n        uint256 len = _oracleManager.getRegisteredOraclesLen();\n        if (_from >= len) {\n            return (info, nextEntry);\n        }\n        if (_cant > (len - _from)) {\n            _cant = len - _from;\n        }\n        info = new ManagerUIOracleInfo[](_cant);\n        for (uint256 i = 0; i < _cant; i++) {\n            (address ownerAddr, address oracleAddr, string memory url) = _oracleManager\n                .getRegisteredOracleAtIndex(i + _from);\n            uint256 stake = _oracleManager.getStake(ownerAddr);\n            info[i] = ManagerUIOracleInfo({\n                stake: stake,\n                mocsBalance: _oracleManager.stakingContract().mocToken().balanceOf(oracleAddr),\n                basecoinBalance: oracleAddr.balance,\n                addr: oracleAddr,\n                owner: ownerAddr,\n                name: url\n            });\n        }\n        return (info, nextEntry);\n    }\n\n    /**\n        Return all the information needed by the oracle server (one call, to avoid a lot of rpc)\n\n        @param _oracleManager oracleManager contract\n        @param _coinPairPrice coinPairPrice contract\n    */\n    function getOracleServerInfo(OracleManager _oracleManager, CoinPairPrice _coinPairPrice)\n        external\n        view\n        returns (OracleServerInfo memory oracleServerInfo)\n    {\n        uint256 lastPubBlock = _coinPairPrice.lastPublicationBlock();\n        (bytes32 currentPrice, ) = _coinPairPrice.peek();\n\n        (\n            uint256 round,\n            uint256 startBlock,\n            uint256 lockPeriodTimestamp,\n            uint256 totalPoints,\n            ,\n            address[] memory selectedOracles\n        ) = _coinPairPrice.getRoundInfo();\n\n        return\n            OracleServerInfo(\n                round,\n                startBlock,\n                lockPeriodTimestamp,\n                totalPoints,\n                _createFullRoundInfo(_oracleManager, _coinPairPrice, selectedOracles),\n                uint256(currentPrice),\n                block.number,\n                lastPubBlock,\n                blockhash(lastPubBlock),\n                _coinPairPrice.validPricePeriodInBlocks()\n            );\n    }\n\n    /**\n        Create the FullOracleRoundInfo array from slected oracles\n        @param _oracleManager oracleManager contract\n        @param _coinPairPrice coinPairPrice contract\n        @param _selectedOracles selected oracles addresses\n    */\n    function _createFullRoundInfo(\n        OracleManager _oracleManager,\n        CoinPairPrice _coinPairPrice,\n        address[] memory _selectedOracles\n    ) private view returns (FullOracleRoundInfo[] memory info) {\n        uint256 len = _selectedOracles.length;\n        info = new FullOracleRoundInfo[](len);\n        for (uint256 i = 0; i < len; i++) {\n            address owner = _oracleManager.getOracleOwner(_selectedOracles[i]);\n            (string memory name, uint256 stake, ) = _oracleManager.getOracleRegistrationInfo(owner);\n            (uint256 points, ) = _coinPairPrice.getOracleRoundInfo(_selectedOracles[i]);\n            info[i] = FullOracleRoundInfo(stake, points, _selectedOracles[i], owner, name);\n        }\n        return info;\n    }\n}\n",
    "sourcePath": "/home/adji/Desktop/work/coinfabrik/moc-oraculos/contracts/InfoGetter.sol",
    "compiler": {
        "name": "solc",
        "version": "0.6.12+commit.27d51765.Emscripten.clang"
    },
    "schemaVersion": "3.2.4",
    "updatedAt": "2020-09-14T20:07:21.926Z",
    "devdoc": {
        "kind": "dev",
        "methods": {
            "changeIGovernor(address)": {
                "params": {
                    "newIGovernor": "New governor address"
                }
            },
            "delegateCallToChanger(bytes)": {
                "params": {
                    "data": "the serialized function arguments"
                }
            },
            "getCoinPairUIInfo(address)": {
                "params": {
                    "_coinPairPrice": "coinPairPrice contract"
                }
            },
            "getManagerUICoinPairInfo(address,uint256,uint256)": {
                "params": {
                    "_limit": "take to this limit, limit == 0 => take all",
                    "_offset": "take from this offset",
                    "_oracleManager": "oracleManager contract"
                }
            },
            "getManagerUIOracleInfo(address,uint256,uint256)": {
                "params": {
                    "_cant": "Number of items to return.",
                    "_from": "The index to start from.",
                    "_oracleManager": "oracleManager contract"
                }
            },
            "getOracleServerInfo(address,address)": {
                "params": {
                    "_coinPairPrice": "coinPairPrice contract",
                    "_oracleManager": "oracleManager contract"
                }
            },
            "initialize(address)": {
                "details": "This initialize replaces the constructor but it is not called automatically. It is necessary because of the upgradeability of the contracts",
                "params": {
                    "_governor": "Governor address"
                }
            }
        },
        "title": "This contract provides an interface for feeding prices from oracles, and        get the current price. One contract must be instanced per supported coin pair,        and registered through OracleManager global contract.",
        "version": 1
    },
    "userdoc": {
        "kind": "user",
        "methods": {
            "changeIGovernor(address)": {
                "notice": "Change the contract's governor. Should be called through the old governance system"
            },
            "delegateCallToChanger(bytes)": {
                "notice": "This method is used by a change contract to access the storage freely even without a setter."
            },
            "getCoinPairUIInfo(address)": {
                "notice": "Return all the information needed by the ui (one call, to avoid a lot of rpc)"
            },
            "getManagerUICoinPairInfo(address,uint256,uint256)": {
                "notice": "Return all the information needed by the ui (one call, to avoid a lot of rpc)"
            },
            "getManagerUIOracleInfo(address,uint256,uint256)": {
                "notice": "Return all the information needed by the ui (one call, to avoid a lot of rpc)"
            },
            "getOracleServerInfo(address,address)": {
                "notice": "Return all the information needed by the oracle server (one call, to avoid a lot of rpc)"
            },
            "governor()": {
                "notice": "The address of the contract which governs this one"
            },
            "initialize(address)": {
                "notice": "Initialize the contract with the basic settings"
            }
        },
        "version": 1
    }
}