{
  "contractName": "MocRegistryEnteringFallbacksAmountsChange",
  "abi": [
    {
      "inputs": [
        {
          "internalType": "contract IRegistry",
          "name": "_registry",
          "type": "address"
        }
      ],
      "stateMutability": "nonpayable",
      "type": "constructor"
    },
    {
      "inputs": [],
      "name": "registry",
      "outputs": [
        {
          "internalType": "contract IRegistry",
          "name": "",
          "type": "address"
        }
      ],
      "stateMutability": "view",
      "type": "function"
    },
    {
      "inputs": [],
      "name": "execute",
      "outputs": [],
      "stateMutability": "nonpayable",
      "type": "function"
    }
  ],
  "bytecode": "0x608060405234801561001057600080fd5b506040516103113803806103118339818101604052602081101561003357600080fd5b8101908080519060200190929190505050806000806101000a81548173ffffffffffffffffffffffffffffffffffffffff021916908373ffffffffffffffffffffffffffffffffffffffff1602179055505061027d806100946000396000f3fe608060405234801561001057600080fd5b50600436106100365760003560e01c8063614619541461003b5780637b10399914610045575b600080fd5b610043610079565b005b61004d61015f565b604051808273ffffffffffffffffffffffffffffffffffffffff16815260200191505060405180910390f35b60008054906101000a900473ffffffffffffffffffffffffffffffffffffffff1673ffffffffffffffffffffffffffffffffffffffff16632e28d0846100d660405180606001604052806021815260200161022760219139610183565b6040518263ffffffff1660e01b81526004018082815260200180602001828103825260038152602001807f010204000000000000000000000000000000000000000000000000000000000081525060200192505050600060405180830381600087803b15801561014557600080fd5b505af1158015610159573d6000803e3d6000fd5b50505050565b60008054906101000a900473ffffffffffffffffffffffffffffffffffffffff1681565b60008160405160200180807f4d4f435f4f5241434c455c315c00000000000000000000000000000000000000815250600d0182805190602001908083835b602083106101e457805182526020820191506020810190506020830392506101c1565b6001836020036101000a03801982511681845116808217855250505050505090500191505060405160208183030381529060405280519060200120905091905056fe4f5241434c455f454e544552494e475f46414c4c4241434b535f414d4f554e5453a2646970667358221220d6c0c5d9dfeaa2ae1ecce92b52445227b742a3ee153cde135c3761b742aa7cbf64736f6c634300060c0033",
  "immutableReferences": {},
  "source": "// SPDX-License-Identifier: UNLICENSED\npragma solidity 0.6.12;\n\nimport {ChangeContract} from \"@moc/shared/contracts/moc-governance/Governance/ChangeContract.sol\";\nimport {IRegistry} from \"@moc/shared/contracts/IRegistry.sol\";\n\n/**\n    @title MocRegistryEnteringFAllbacksAmountsChange\n    @notice This contract is a ChangeContract intended to change some MOC registry values\n */\ncontract MocRegistryEnteringFallbacksAmountsChange is ChangeContract {\n    IRegistry public registry;\n\n    /**\n      @notice Constructor\n    */\n    constructor(IRegistry _registry) public {\n        registry = _registry;\n    }\n\n    /**\n      @notice Execute the changes.\n      @dev Should be called by the governor, but this contract does not check that explicitly because it is\n      not its responsability in the current architecture\n     */\n    function execute() external override {\n        registry.setBytes(get_keccak(\"ORACLE_ENTERING_FALLBACKS_AMOUNTS\"), hex\"010204\");\n    }\n\n    function get_keccak(string memory k) internal pure returns (bytes32) {\n        return keccak256(abi.encodePacked(\"MOC_ORACLE\\\\1\\\\\", k));\n    }\n}\n",
  "sourcePath": "/home/adji/Desktop/work/coinfabrik/moc-oraculos/contracts/change/MocRegistryEnteringFallbacksAmountsChange.sol",
  "compiler": {
    "name": "solc",
    "version": "0.6.12+commit.27d51765.Emscripten.clang"
  },
  "schemaVersion": "3.2.4",
  "updatedAt": "2020-09-11T20:34:45.482Z",
  "devdoc": {
    "kind": "dev",
    "methods": {
      "execute()": {
        "details": "Should be called by the governor, but this contract does not check that explicitly because it is not its responsability in the current architecture"
      }
    },
    "title": "MocRegistryEnteringFAllbacksAmountsChange",
    "version": 1
  },
  "userdoc": {
    "kind": "user",
    "methods": {
      "constructor": "Constructor",
      "execute()": {
        "notice": "Execute the changes."
      }
    },
    "notice": "This contract is a ChangeContract intended to change some MOC registry values",
    "version": 1
  }
}