{
  "contractName": "MocRegistryInitChange",
  "abi": [
    {
      "inputs": [
        {
          "internalType": "contract IRegistry",
          "name": "_registry",
          "type": "address"
        },
        {
          "internalType": "address",
          "name": "_delay_machine",
          "type": "address"
        },
        {
          "internalType": "address",
          "name": "_oracle_manager",
          "type": "address"
        },
        {
          "internalType": "address",
          "name": "_supporters_whitelisted",
          "type": "address"
        },
        {
          "internalType": "address",
          "name": "_info_getter",
          "type": "address"
        }
      ],
      "stateMutability": "nonpayable",
      "type": "constructor"
    },
    {
      "inputs": [],
      "name": "delay_machine",
      "outputs": [
        {
          "internalType": "address",
          "name": "",
          "type": "address"
        }
      ],
      "stateMutability": "view",
      "type": "function"
    },
    {
      "inputs": [],
      "name": "info_getter",
      "outputs": [
        {
          "internalType": "address",
          "name": "",
          "type": "address"
        }
      ],
      "stateMutability": "view",
      "type": "function"
    },
    {
      "inputs": [],
      "name": "oracle_manager",
      "outputs": [
        {
          "internalType": "address",
          "name": "",
          "type": "address"
        }
      ],
      "stateMutability": "view",
      "type": "function"
    },
    {
      "inputs": [],
      "name": "registry",
      "outputs": [
        {
          "internalType": "contract IRegistry",
          "name": "",
          "type": "address"
        }
      ],
      "stateMutability": "view",
      "type": "function"
    },
    {
      "inputs": [],
      "name": "supporters_whitelisted",
      "outputs": [
        {
          "internalType": "address",
          "name": "",
          "type": "address"
        }
      ],
      "stateMutability": "view",
      "type": "function"
    },
    {
      "inputs": [],
      "name": "execute",
      "outputs": [],
      "stateMutability": "nonpayable",
      "type": "function"
    }
  ],
  "bytecode": "0x608060405234801561001057600080fd5b50604051611926380380611926833981810160405260a081101561003357600080fd5b810190808051906020019092919080519060200190929190805190602001909291908051906020019092919080519060200190929190505050846000806101000a81548173ffffffffffffffffffffffffffffffffffffffff021916908373ffffffffffffffffffffffffffffffffffffffff16021790555083600160006101000a81548173ffffffffffffffffffffffffffffffffffffffff021916908373ffffffffffffffffffffffffffffffffffffffff16021790555082600260006101000a81548173ffffffffffffffffffffffffffffffffffffffff021916908373ffffffffffffffffffffffffffffffffffffffff16021790555081600360006101000a81548173ffffffffffffffffffffffffffffffffffffffff021916908373ffffffffffffffffffffffffffffffffffffffff16021790555080600460006101000a81548173ffffffffffffffffffffffffffffffffffffffff021916908373ffffffffffffffffffffffffffffffffffffffff1602179055505050505050611762806101c46000396000f3fe608060405234801561001057600080fd5b50600436106100625760003560e01c80630db09fb214610067578063590be8221461009b57806361461954146100cf5780637b103999146100d9578063df6f01b21461010d578063f196566b14610141575b600080fd5b61006f610175565b604051808273ffffffffffffffffffffffffffffffffffffffff16815260200191505060405180910390f35b6100a361019b565b604051808273ffffffffffffffffffffffffffffffffffffffff16815260200191505060405180910390f35b6100d76101c1565b005b6100e161156a565b604051808273ffffffffffffffffffffffffffffffffffffffff16815260200191505060405180910390f35b61011561158e565b604051808273ffffffffffffffffffffffffffffffffffffffff16815260200191505060405180910390f35b6101496115b4565b604051808273ffffffffffffffffffffffffffffffffffffffff16815260200191505060405180910390f35b600460009054906101000a900473ffffffffffffffffffffffffffffffffffffffff1681565b600260009054906101000a900473ffffffffffffffffffffffffffffffffffffffff1681565b600073ffffffffffffffffffffffffffffffffffffffff1660008054906101000a900473ffffffffffffffffffffffffffffffffffffffff1673ffffffffffffffffffffffffffffffffffffffff161415610284576040517f08c379a00000000000000000000000000000000000000000000000000000000081526004018080602001828103825260088152602001807f557365206f6e636500000000000000000000000000000000000000000000000081525060200191505060405180910390fd5b60008054906101000a900473ffffffffffffffffffffffffffffffffffffffff1673ffffffffffffffffffffffffffffffffffffffff1663ca446dd96102fe6040518060400160405280601181526020017f4d4f435f44454c41595f4d414348494e450000000000000000000000000000008152506115da565b600160009054906101000a900473ffffffffffffffffffffffffffffffffffffffff166040518363ffffffff1660e01b8152600401808381526020018273ffffffffffffffffffffffffffffffffffffffff16815260200192505050600060405180830381600087803b15801561037457600080fd5b505af1158015610388573d6000803e3d6000fd5b5050505060008054906101000a900473ffffffffffffffffffffffffffffffffffffffff1673ffffffffffffffffffffffffffffffffffffffff1663ca446dd96104066040518060400160405280601381526020017f4f5241434c455f4d414e414745525f41444452000000000000000000000000008152506115da565b600260009054906101000a900473ffffffffffffffffffffffffffffffffffffffff166040518363ffffffff1660e01b8152600401808381526020018273ffffffffffffffffffffffffffffffffffffffff16815260200192505050600060405180830381600087803b15801561047c57600080fd5b505af1158015610490573d6000803e3d6000fd5b5050505060008054906101000a900473ffffffffffffffffffffffffffffffffffffffff1673ffffffffffffffffffffffffffffffffffffffff1663ca446dd961050e6040518060400160405280600f81526020017f535550504f52544552535f4144445200000000000000000000000000000000008152506115da565b600360009054906101000a900473ffffffffffffffffffffffffffffffffffffffff166040518363ffffffff1660e01b8152600401808381526020018273ffffffffffffffffffffffffffffffffffffffff16815260200192505050600060405180830381600087803b15801561058457600080fd5b505af1158015610598573d6000803e3d6000fd5b5050505060008054906101000a900473ffffffffffffffffffffffffffffffffffffffff1673ffffffffffffffffffffffffffffffffffffffff1663ca446dd96106166040518060400160405280600981526020017f494e464f5f4144445200000000000000000000000000000000000000000000008152506115da565b600460009054906101000a900473ffffffffffffffffffffffffffffffffffffffff166040518363ffffffff1660e01b8152600401808381526020018273ffffffffffffffffffffffffffffffffffffffff16815260200192505050600060405180830381600087803b15801561068c57600080fd5b505af11580156106a0573d6000803e3d6000fd5b5050505060008054906101000a900473ffffffffffffffffffffffffffffffffffffffff1673ffffffffffffffffffffffffffffffffffffffff16639ed4402261071e6040518060400160405280601781526020017f4f5241434c455f50524943455f46455443485f524154450000000000000000008152506115da565b60056040518363ffffffff1660e01b81526004018083815260200182815260200192505050600060405180830381600087803b15801561075d57600080fd5b505af1158015610771573d6000803e3d6000fd5b5050505060008054906101000a900473ffffffffffffffffffffffffffffffffffffffff1673ffffffffffffffffffffffffffffffffffffffff16639ed440226107ef6040518060400160405280601f81526020017f4f5241434c455f424c4f434b434841494e5f494e464f5f494e54455256414c008152506115da565b60036040518363ffffffff1660e01b81526004018083815260200182815260200192505050600060405180830381600087803b15801561082e57600080fd5b505af1158015610842573d6000803e3d6000fd5b5050505060008054906101000a900473ffffffffffffffffffffffffffffffffffffffff1673ffffffffffffffffffffffffffffffffffffffff16639ed440226108a360405180606001604052806023815260200161170a602391396115da565b60056040518363ffffffff1660e01b81526004018083815260200182815260200192505050600060405180830381600087803b1580156108e257600080fd5b505af11580156108f6573d6000803e3d6000fd5b5050505060008054906101000a900473ffffffffffffffffffffffffffffffffffffffff1673ffffffffffffffffffffffffffffffffffffffff16639ed440226109746040518060400160405280601e81526020017f4f5241434c455f4d41494e5f4c4f4f505f5441534b5f494e54455256414c00008152506115da565b60786040518363ffffffff1660e01b81526004018083815260200182815260200192505050600060405180830381600087803b1580156109b357600080fd5b505af11580156109c7573d6000803e3d6000fd5b5050505060008054906101000a900473ffffffffffffffffffffffffffffffffffffffff1673ffffffffffffffffffffffffffffffffffffffff16634259bac3610a456040518060400160405280601d81526020017f4f5241434c455f50524943455f52454a4543545f44454c54415f5043540000008152506115da565b600560016040518463ffffffff1660e01b8152600401808481526020018381526020018281526020019350505050600060405180830381600087803b158015610a8d57600080fd5b505af1158015610aa1573d6000803e3d6000fd5b5050505060008054906101000a900473ffffffffffffffffffffffffffffffffffffffff1673ffffffffffffffffffffffffffffffffffffffff16639ed44022610b026040518060600160405280602281526020016116c7602291396115da565b60f06040518363ffffffff1660e01b81526004018083815260200182815260200192505050600060405180830381600087803b158015610b4157600080fd5b505af1158015610b55573d6000803e3d6000fd5b5050505060008054906101000a900473ffffffffffffffffffffffffffffffffffffffff1673ffffffffffffffffffffffffffffffffffffffff16639ed44022610bd36040518060400160405280601f81526020017f4f5241434c455f4741544845525f5349474e41545552455f54494d454f5554008152506115da565b603c6040518363ffffffff1660e01b81526004018083815260200182815260200192505050600060405180830381600087803b158015610c1257600080fd5b505af1158015610c26573d6000803e3d6000fd5b5050505060008054906101000a900473ffffffffffffffffffffffffffffffffffffffff1673ffffffffffffffffffffffffffffffffffffffff16639ed44022610c8760405180606001604052806022815260200161167e602291396115da565b60146040518363ffffffff1660e01b81526004018083815260200182815260200192505050600060405180830381600087803b158015610cc657600080fd5b505af1158015610cda573d6000803e3d6000fd5b5050505060008054906101000a900473ffffffffffffffffffffffffffffffffffffffff1673ffffffffffffffffffffffffffffffffffffffff16639ed44022610d586040518060400160405280601481526020017f5343484544554c45525f504f4f4c5f44454c41590000000000000000000000008152506115da565b603c6040518363ffffffff1660e01b81526004018083815260200182815260200192505050600060405180830381600087803b158015610d9757600080fd5b505af1158015610dab573d6000803e3d6000fd5b5050505060008054906101000a900473ffffffffffffffffffffffffffffffffffffffff1673ffffffffffffffffffffffffffffffffffffffff16639ed44022610e296040518060400160405280601581526020017f5343484544554c45525f524f554e445f44454c415900000000000000000000008152506115da565b6107086040518363ffffffff1660e01b81526004018083815260200182815260200192505050600060405180830381600087803b158015610e6957600080fd5b505af1158015610e7d573d6000803e3d6000fd5b5050505060008054906101000a900473ffffffffffffffffffffffffffffffffffffffff1673ffffffffffffffffffffffffffffffffffffffff16639ed44022610efb6040518060400160405280601381526020017f4f5241434c455f50524943455f444947495453000000000000000000000000008152506115da565b60126040518363ffffffff1660e01b81526004018083815260200182815260200192505050600060405180830381600087803b158015610f3a57600080fd5b505af1158015610f4e573d6000803e3d6000fd5b5050505060008054906101000a900473ffffffffffffffffffffffffffffffffffffffff1673ffffffffffffffffffffffffffffffffffffffff16639ed44022610fcc6040518060400160405280601081526020017f4f5241434c455f51554555455f4c454e000000000000000000000000000000008152506115da565b601e6040518363ffffffff1660e01b81526004018083815260200182815260200192505050600060405180830381600087803b15801561100b57600080fd5b505af115801561101f573d6000803e3d6000fd5b5050505060008054906101000a900473ffffffffffffffffffffffffffffffffffffffff1673ffffffffffffffffffffffffffffffffffffffff16639ed4402261109d6040518060400160405280600f81526020017f4d4553534147455f56455253494f4e00000000000000000000000000000000008152506115da565b60036040518363ffffffff1660e01b81526004018083815260200182815260200192505050600060405180830381600087803b1580156110dc57600080fd5b505af11580156110f0573d6000803e3d6000fd5b5050505060008054906101000a900473ffffffffffffffffffffffffffffffffffffffff1673ffffffffffffffffffffffffffffffffffffffff16639ed4402261116e6040518060400160405280602081526020017f4f5241434c455f5354414b455f4c494d49545f4d554c5449504c494341544f528152506115da565b60026040518363ffffffff1660e01b81526004018083815260200182815260200192505050600060405180830381600087803b1580156111ad57600080fd5b505af11580156111c1573d6000803e3d6000fd5b5050505060008054906101000a900473ffffffffffffffffffffffffffffffffffffffff1673ffffffffffffffffffffffffffffffffffffffff16634259bac361123f6040518060400160405280601681526020017f4f5241434c455f50524943455f44454c54415f504354000000000000000000008152506115da565b60057ffffffffffffffffffffffffffffffffffffffffffffffffffffffffffffffffe6040518463ffffffff1660e01b8152600401808481526020018381526020018281526020019350505050600060405180830381600087803b1580156112a657600080fd5b505af11580156112ba573d6000803e3d6000fd5b5050505060008054906101000a900473ffffffffffffffffffffffffffffffffffffffff1673ffffffffffffffffffffffffffffffffffffffff16639ed440226113386040518060400160405280601b81526020017f4f5241434c455f50524943455f5055424c4953485f424c4f434b5300000000008152506115da565b60006040518363ffffffff1660e01b81526004018083815260200182815260200192505050600060405180830381600087803b15801561137757600080fd5b505af115801561138b573d6000803e3d6000fd5b5050505060008054906101000a900473ffffffffffffffffffffffffffffffffffffffff1673ffffffffffffffffffffffffffffffffffffffff16632e28d0846113ec6040518060600160405280602181526020016116e9602191396115da565b6040518263ffffffff1660e01b81526004018082815260200180602001828103825260058152602001807f020406080a00000000000000000000000000000000000000000000000000000081525060200192505050600060405180830381600087803b15801561145b57600080fd5b505af115801561146f573d6000803e3d6000fd5b5050505060008054906101000a900473ffffffffffffffffffffffffffffffffffffffff1673ffffffffffffffffffffffffffffffffffffffff16639ed440226114d06040518060600160405280602781526020016116a0602791396115da565b601e6040518363ffffffff1660e01b81526004018083815260200182815260200192505050600060405180830381600087803b15801561150f57600080fd5b505af1158015611523573d6000803e3d6000fd5b5050505060008060006101000a81548173ffffffffffffffffffffffffffffffffffffffff021916908373ffffffffffffffffffffffffffffffffffffffff160217905550565b60008054906101000a900473ffffffffffffffffffffffffffffffffffffffff1681565b600160009054906101000a900473ffffffffffffffffffffffffffffffffffffffff1681565b600360009054906101000a900473ffffffffffffffffffffffffffffffffffffffff1681565b60008160405160200180807f4d4f435f4f5241434c455c315c00000000000000000000000000000000000000815250600d0182805190602001908083835b6020831061163b5780518252602082019150602081019050602083039250611618565b6001836020036101000a03801982511681845116808217855250505050505090500191505060405160208183030381529060405280519060200120905091905056fe4f5241434c455f4d41494e5f4558454355544f525f5441534b5f494e54455256414c4f5241434c455f545249474745525f56414c49445f5055424c49434154494f4e5f424c4f434b534f5241434c455f434f4e46494755524154494f4e5f5441534b5f494e54455256414c4f5241434c455f454e544552494e475f46414c4c4241434b535f414d4f554e54534f5241434c455f434f494e5f504149525f4c4f4f505f5441534b5f494e54455256414ca26469706673582212208c00596c1d5b1f9029dba29dc411aa1995b5f8c7f26df319e6fcf4660dd96c4864736f6c634300060c0033",
  "immutableReferences": {},
  "source": "// SPDX-License-Identifier: UNLICENSED\npragma solidity 0.6.12;\n\nimport {ChangeContract} from \"@moc/shared/contracts/moc-governance/Governance/ChangeContract.sol\";\nimport {IRegistry} from \"@moc/shared/contracts/IRegistry.sol\";\nimport {RegistryConstants} from \"@moc/shared/contracts/RegistryConstants.sol\";\n\n/**\n  @title MocRegistryInitChange\n  @notice This contract is a ChangeContract intended to initialize all the MOC registry values\n */\ncontract MocRegistryInitChange is ChangeContract {\n    IRegistry public registry;\n    address public delay_machine;\n    address public oracle_manager;\n    address public supporters_whitelisted;\n    address public info_getter;\n\n    /**\n      @notice Constructor\n    */\n    constructor(\n        IRegistry _registry,\n        address _delay_machine,\n        address _oracle_manager,\n        address _supporters_whitelisted,\n        address _info_getter\n    ) public {\n        registry = _registry;\n        delay_machine = _delay_machine;\n        oracle_manager = _oracle_manager;\n        supporters_whitelisted = _supporters_whitelisted;\n        info_getter = _info_getter;\n    }\n\n    /**\n      @notice Execute the changes.\n      @dev Should be called by the governor, but this contract does not check that explicitly because it is\n      not its responsability in the current architecture\n     */\n    function execute() external override {\n        require(address(registry) != address(0), \"Use once\");\n\n        registry.setAddress(get_keccak(\"MOC_DELAY_MACHINE\"), delay_machine);\n        registry.setAddress(get_keccak(\"ORACLE_MANAGER_ADDR\"), oracle_manager);\n        registry.setAddress(get_keccak(\"SUPPORTERS_ADDR\"), supporters_whitelisted);\n        registry.setAddress(get_keccak(\"INFO_ADDR\"), info_getter);\n\n        registry.setUint(get_keccak(\"ORACLE_PRICE_FETCH_RATE\"), 5);\n        registry.setUint(get_keccak(\"ORACLE_BLOCKCHAIN_INFO_INTERVAL\"), 3);\n        registry.setUint(get_keccak(\"ORACLE_COIN_PAIR_LOOP_TASK_INTERVAL\"), 5);\n        registry.setUint(get_keccak(\"ORACLE_MAIN_LOOP_TASK_INTERVAL\"), 120);\n        registry.setDecimal(get_keccak(\"ORACLE_PRICE_REJECT_DELTA_PCT\"), 5, 1);\n        registry.setUint(get_keccak(\"ORACLE_CONFIGURATION_TASK_INTERVAL\"), 240);\n        registry.setUint(get_keccak(\"ORACLE_GATHER_SIGNATURE_TIMEOUT\"), 60);\n        registry.setUint(get_keccak(\"ORACLE_MAIN_EXECUTOR_TASK_INTERVAL\"), 20);\n        registry.setUint(get_keccak(\"SCHEDULER_POOL_DELAY\"), 1 * 60);\n        registry.setUint(get_keccak(\"SCHEDULER_ROUND_DELAY\"), 30 * 60);\n        registry.setUint(get_keccak(\"ORACLE_PRICE_DIGITS\"), 18);\n        registry.setUint(get_keccak(\"ORACLE_QUEUE_LEN\"), 30);\n        registry.setUint(get_keccak(\"MESSAGE_VERSION\"), 3);\n        registry.setUint(get_keccak(\"ORACLE_STAKE_LIMIT_MULTIPLICATOR\"), 2);\n        registry.setDecimal(get_keccak(\"ORACLE_PRICE_DELTA_PCT\"), 5, -2);\n        registry.setUint(get_keccak(\"ORACLE_PRICE_PUBLISH_BLOCKS\"), 0);\n        registry.setBytes(get_keccak(\"ORACLE_ENTERING_FALLBACKS_AMOUNTS\"), hex\"020406080a\");\n        registry.setUint(get_keccak(\"ORACLE_TRIGGER_VALID_PUBLICATION_BLOCKS\"), 30);\n        // usable just once!!!\n        registry = IRegistry(0);\n    }\n\n    function get_keccak(string memory k) internal pure returns (bytes32) {\n        return keccak256(abi.encodePacked(\"MOC_ORACLE\\\\1\\\\\", k));\n    }\n}\n",
  "sourcePath": "/home/adji/Desktop/work/coinfabrik/moc-oraculos/contracts/change/MocRegistryInitChange.sol",
  "compiler": {
    "name": "solc",
    "version": "0.6.12+commit.27d51765.Emscripten.clang"
  },
  "schemaVersion": "3.2.4",
  "updatedAt": "2020-09-11T20:34:45.482Z",
  "devdoc": {
    "kind": "dev",
    "methods": {
      "execute()": {
        "details": "Should be called by the governor, but this contract does not check that explicitly because it is not its responsability in the current architecture"
      }
    },
    "title": "MocRegistryInitChange",
    "version": 1
  },
  "userdoc": {
    "kind": "user",
    "methods": {
      "constructor": "Constructor",
      "execute()": {
        "notice": "Execute the changes."
      }
    },
    "notice": "This contract is a ChangeContract intended to initialize all the MOC registry values",
    "version": 1
  }
}