{
    "contractName": "MocRegistrySchedulerDelayChange",
    "abi": [
        {
            "inputs": [
                {
                    "internalType": "contract IRegistry",
                    "name": "_registry",
                    "type": "address"
                }
            ],
            "stateMutability": "nonpayable",
            "type": "constructor"
        },
        {
            "inputs": [],
            "name": "registry",
            "outputs": [
                {
                    "internalType": "contract IRegistry",
                    "name": "",
                    "type": "address"
                }
            ],
            "stateMutability": "view",
            "type": "function"
        },
        {
            "inputs": [],
            "name": "execute",
            "outputs": [],
            "stateMutability": "nonpayable",
            "type": "function"
        }
    ],
    "bytecode": "0x608060405234801561001057600080fd5b506040516102e63803806102e68339818101604052602081101561003357600080fd5b5051600080546001600160a01b039092166001600160a01b0319909216919091179055610281806100656000396000f3fe608060405234801561001057600080fd5b50600436106100365760003560e01c8063614619541461003b5780637b10399914610045575b600080fd5b610043610069565b005b61004d6101ad565b604080516001600160a01b039092168252519081900360200190f35b6000546040805180820190915260148152735343484544554c45525f504f4f4c5f44454c415960601b60208201526001600160a01b0390911690639ed44022906100b2906101bc565b603c6040518363ffffffff1660e01b81526004018083815260200182815260200192505050600060405180830381600087803b1580156100f157600080fd5b505af1158015610105573d6000803e3d6000fd5b50506000546040805180820190915260158152745343484544554c45525f524f554e445f44454c415960581b60208201526001600160a01b039091169250639ed440229150610153906101bc565b6107086040518363ffffffff1660e01b81526004018083815260200182815260200192505050600060405180830381600087803b15801561019357600080fd5b505af11580156101a7573d6000803e3d6000fd5b50505050565b6000546001600160a01b031681565b60008160405160200180806c1353d0d7d3d49050d311570c57609a1b815250600d0182805190602001908083835b602083106102095780518252601f1990920191602091820191016101ea565b6001836020036101000a03801982511681845116808217855250505050505090500191505060405160208183030381529060405280519060200120905091905056fea2646970667358221220fd31999efee0340126f47833efc29a7a011cd4679e1a8bd1d3e3d0c8cf0e58d464736f6c634300060c0033",
    "immutableReferences": {},
    "source": "// SPDX-License-Identifier: UNLICENSED\npragma solidity 0.6.12;\n\nimport {ChangeContract} from \"@moc/shared/contracts/moc-governance/Governance/ChangeContract.sol\";\nimport {IRegistry} from \"@moc/shared/contracts/IRegistry.sol\";\n\n/**\n    @title MocRegistrySchedulerDelayChange\n    @notice This contract is a ChangeContract intended to change some MOC registry values\n */\ncontract MocRegistrySchedulerDelayChange is ChangeContract {\n    IRegistry public registry;\n\n    /**\n      @notice Constructor\n    */\n    constructor(IRegistry _registry) public {\n        registry = _registry;\n    }\n\n    /**\n      @notice Execute the changes.\n      @dev Should be called by the governor, but this contract does not check that explicitly because it is\n      not its responsability in the current architecture\n     */\n    function execute() external override {\n        registry.setUint(getKeccak(\"SCHEDULER_POOL_DELAY\"), 1 * 60);\n        registry.setUint(getKeccak(\"SCHEDULER_ROUND_DELAY\"), 30 * 60);\n        // TODO: Make it usable just once.\n    }\n\n    function getKeccak(string memory k) internal pure returns (bytes32) {\n        return keccak256(abi.encodePacked(\"MOC_ORACLE\\\\1\\\\\", k));\n    }\n}\n",
    "sourcePath": "/home/adji/Desktop/work/coinfabrik/moc-oraculos/contracts/change/MocRegistrySchedulerDelayChange.sol",
    "compiler": {
        "name": "solc",
        "version": "0.6.12+commit.27d51765.Emscripten.clang"
    },
    "schemaVersion": "3.2.4",
    "updatedAt": "2020-09-14T20:07:21.967Z",
    "devdoc": {
        "kind": "dev",
        "methods": {
            "execute()": {
                "details": "Should be called by the governor, but this contract does not check that explicitly because it is not its responsability in the current architecture"
            }
        },
        "title": "MocRegistrySchedulerDelayChange",
        "version": 1
    },
    "userdoc": {
        "kind": "user",
        "methods": {
            "constructor": "Constructor",
            "execute()": {
                "notice": "Execute the changes."
            }
        },
        "notice": "This contract is a ChangeContract intended to change some MOC registry values",
        "version": 1
    }
}