{
    "contractName": "MocRegistryInitChange",
    "abi": [
        {
            "inputs": [
                {
                    "internalType": "contract IRegistry",
                    "name": "_registry",
                    "type": "address"
                },
                {
                    "internalType": "address",
                    "name": "_delayMachine",
                    "type": "address"
                },
                {
                    "internalType": "address",
                    "name": "_oracleManager",
                    "type": "address"
                },
                {
                    "internalType": "address",
                    "name": "_supporters",
                    "type": "address"
                },
                {
                    "internalType": "address",
                    "name": "_infoGetter",
                    "type": "address"
                }
            ],
            "stateMutability": "nonpayable",
            "type": "constructor"
        },
        {
            "inputs": [],
            "name": "INFO_ADDR",
            "outputs": [
                {
                    "internalType": "bytes32",
                    "name": "",
                    "type": "bytes32"
                }
            ],
            "stateMutability": "view",
            "type": "function",
            "constant": true
        },
        {
            "inputs": [],
            "name": "MESSAGE_VERSION",
            "outputs": [
                {
                    "internalType": "bytes32",
                    "name": "",
                    "type": "bytes32"
                }
            ],
            "stateMutability": "view",
            "type": "function",
            "constant": true
        },
        {
            "inputs": [],
            "name": "MOC_DELAY_MACHINE",
            "outputs": [
                {
                    "internalType": "bytes32",
                    "name": "",
                    "type": "bytes32"
                }
            ],
            "stateMutability": "view",
            "type": "function",
            "constant": true
        },
        {
            "inputs": [],
            "name": "MOC_STAKING_MACHINE",
            "outputs": [
                {
                    "internalType": "bytes32",
                    "name": "",
                    "type": "bytes32"
                }
            ],
            "stateMutability": "view",
            "type": "function",
            "constant": true
        },
        {
            "inputs": [],
            "name": "MOC_TOKEN",
            "outputs": [
                {
                    "internalType": "bytes32",
                    "name": "",
                    "type": "bytes32"
                }
            ],
            "stateMutability": "view",
            "type": "function",
            "constant": true
        },
        {
            "inputs": [],
            "name": "MOC_VESTING_MACHINE",
            "outputs": [
                {
                    "internalType": "bytes32",
                    "name": "",
                    "type": "bytes32"
                }
            ],
            "stateMutability": "view",
            "type": "function",
            "constant": true
        },
        {
            "inputs": [],
            "name": "MOC_VOTING_MACHINE",
            "outputs": [
                {
                    "internalType": "bytes32",
                    "name": "",
                    "type": "bytes32"
                }
            ],
            "stateMutability": "view",
            "type": "function",
            "constant": true
        },
        {
            "inputs": [],
            "name": "MOC_VOTING_MACHINE_MAX_PRE_PROPOSALS",
            "outputs": [
                {
                    "internalType": "bytes32",
                    "name": "",
                    "type": "bytes32"
                }
            ],
            "stateMutability": "view",
            "type": "function",
            "constant": true
        },
        {
            "inputs": [],
            "name": "MOC_VOTING_MACHINE_MIN_STAKE",
            "outputs": [
                {
                    "internalType": "bytes32",
                    "name": "",
                    "type": "bytes32"
                }
            ],
            "stateMutability": "view",
            "type": "function",
            "constant": true
        },
        {
            "inputs": [],
            "name": "MOC_VOTING_MACHINE_PCT_PRECISION",
            "outputs": [
                {
                    "internalType": "bytes32",
                    "name": "",
                    "type": "bytes32"
                }
            ],
            "stateMutability": "view",
            "type": "function",
            "constant": true
        },
        {
            "inputs": [],
            "name": "MOC_VOTING_MACHINE_PRE_VOTE_EXPIRATION_TIME_DELTA",
            "outputs": [
                {
                    "internalType": "bytes32",
                    "name": "",
                    "type": "bytes32"
                }
            ],
            "stateMutability": "view",
            "type": "function",
            "constant": true
        },
        {
            "inputs": [],
            "name": "MOC_VOTING_MACHINE_PRE_VOTE_MIN_PCT_TO_WIN",
            "outputs": [
                {
                    "internalType": "bytes32",
                    "name": "",
                    "type": "bytes32"
                }
            ],
            "stateMutability": "view",
            "type": "function",
            "constant": true
        },
        {
            "inputs": [],
            "name": "MOC_VOTING_MACHINE_VOTE_MIN_PCT_FOR_QUORUM",
            "outputs": [
                {
                    "internalType": "bytes32",
                    "name": "",
                    "type": "bytes32"
                }
            ],
            "stateMutability": "view",
            "type": "function",
            "constant": true
        },
        {
            "inputs": [],
            "name": "MOC_VOTING_MACHINE_VOTE_MIN_PCT_TO_ACCEPT",
            "outputs": [
                {
                    "internalType": "bytes32",
                    "name": "",
                    "type": "bytes32"
                }
            ],
            "stateMutability": "view",
            "type": "function",
            "constant": true
        },
        {
            "inputs": [],
            "name": "MOC_VOTING_MACHINE_VOTE_MIN_PCT_TO_VETO",
            "outputs": [
                {
                    "internalType": "bytes32",
                    "name": "",
                    "type": "bytes32"
                }
            ],
            "stateMutability": "view",
            "type": "function",
            "constant": true
        },
        {
            "inputs": [],
            "name": "MOC_VOTING_MACHINE_VOTING_TIME_DELTA",
            "outputs": [
                {
                    "internalType": "bytes32",
                    "name": "",
                    "type": "bytes32"
                }
            ],
            "stateMutability": "view",
            "type": "function",
            "constant": true
        },
        {
            "inputs": [],
            "name": "ORACLE_BLOCKCHAIN_INFO_INTERVAL",
            "outputs": [
                {
                    "internalType": "bytes32",
                    "name": "",
                    "type": "bytes32"
                }
            ],
            "stateMutability": "view",
            "type": "function",
            "constant": true
        },
        {
            "inputs": [],
            "name": "ORACLE_COIN_PAIR_LOOP_TASK_INTERVAL",
            "outputs": [
                {
                    "internalType": "bytes32",
                    "name": "",
                    "type": "bytes32"
                }
            ],
            "stateMutability": "view",
            "type": "function",
            "constant": true
        },
        {
            "inputs": [],
            "name": "ORACLE_CONFIGURATION_TASK_INTERVAL",
            "outputs": [
                {
                    "internalType": "bytes32",
                    "name": "",
                    "type": "bytes32"
                }
            ],
            "stateMutability": "view",
            "type": "function",
            "constant": true
        },
        {
            "inputs": [],
            "name": "ORACLE_ENTERING_FALLBACKS_AMOUNTS",
            "outputs": [
                {
                    "internalType": "bytes32",
                    "name": "",
                    "type": "bytes32"
                }
            ],
            "stateMutability": "view",
            "type": "function",
            "constant": true
        },
        {
            "inputs": [],
            "name": "ORACLE_GATHER_SIGNATURE_TIMEOUT",
            "outputs": [
                {
                    "internalType": "bytes32",
                    "name": "",
                    "type": "bytes32"
                }
            ],
            "stateMutability": "view",
            "type": "function",
            "constant": true
        },
        {
            "inputs": [],
            "name": "ORACLE_MAIN_EXECUTOR_TASK_INTERVAL",
            "outputs": [
                {
                    "internalType": "bytes32",
                    "name": "",
                    "type": "bytes32"
                }
            ],
            "stateMutability": "view",
            "type": "function",
            "constant": true
        },
        {
            "inputs": [],
            "name": "ORACLE_MAIN_LOOP_TASK_INTERVAL",
            "outputs": [
                {
                    "internalType": "bytes32",
                    "name": "",
                    "type": "bytes32"
                }
            ],
            "stateMutability": "view",
            "type": "function",
            "constant": true
        },
        {
            "inputs": [],
            "name": "ORACLE_MANAGER_ADDR",
            "outputs": [
                {
                    "internalType": "bytes32",
                    "name": "",
                    "type": "bytes32"
                }
            ],
            "stateMutability": "view",
            "type": "function",
            "constant": true
        },
        {
            "inputs": [],
            "name": "ORACLE_PRICE_DELTA_PCT",
            "outputs": [
                {
                    "internalType": "bytes32",
                    "name": "",
                    "type": "bytes32"
                }
            ],
            "stateMutability": "view",
            "type": "function",
            "constant": true
        },
        {
            "inputs": [],
            "name": "ORACLE_PRICE_DIGITS",
            "outputs": [
                {
                    "internalType": "bytes32",
                    "name": "",
                    "type": "bytes32"
                }
            ],
            "stateMutability": "view",
            "type": "function",
            "constant": true
        },
        {
            "inputs": [],
            "name": "ORACLE_PRICE_FETCH_RATE",
            "outputs": [
                {
                    "internalType": "bytes32",
                    "name": "",
                    "type": "bytes32"
                }
            ],
            "stateMutability": "view",
            "type": "function",
            "constant": true
        },
        {
            "inputs": [],
            "name": "ORACLE_PRICE_PUBLISH_BLOCKS",
            "outputs": [
                {
                    "internalType": "bytes32",
                    "name": "",
                    "type": "bytes32"
                }
            ],
            "stateMutability": "view",
            "type": "function",
            "constant": true
        },
        {
            "inputs": [],
            "name": "ORACLE_PRICE_REJECT_DELTA_PCT",
            "outputs": [
                {
                    "internalType": "bytes32",
                    "name": "",
                    "type": "bytes32"
                }
            ],
            "stateMutability": "view",
            "type": "function",
            "constant": true
        },
        {
            "inputs": [],
            "name": "ORACLE_QUEUE_LEN",
            "outputs": [
                {
                    "internalType": "bytes32",
                    "name": "",
                    "type": "bytes32"
                }
            ],
            "stateMutability": "view",
            "type": "function",
            "constant": true
        },
        {
            "inputs": [],
            "name": "ORACLE_STAKE_LIMIT_MULTIPLICATOR",
            "outputs": [
                {
                    "internalType": "bytes32",
                    "name": "",
                    "type": "bytes32"
                }
            ],
            "stateMutability": "view",
            "type": "function",
            "constant": true
        },
        {
            "inputs": [],
            "name": "ORACLE_TRIGGER_VALID_PUBLICATION_BLOCKS",
            "outputs": [
                {
                    "internalType": "bytes32",
                    "name": "",
                    "type": "bytes32"
                }
            ],
            "stateMutability": "view",
            "type": "function",
            "constant": true
        },
        {
            "inputs": [],
            "name": "ORACLE_WITHDRAW_LOCK_TIME",
            "outputs": [
                {
                    "internalType": "bytes32",
                    "name": "",
                    "type": "bytes32"
                }
            ],
            "stateMutability": "view",
            "type": "function",
            "constant": true
        },
        {
            "inputs": [],
            "name": "SCHEDULER_POOL_DELAY",
            "outputs": [
                {
                    "internalType": "bytes32",
                    "name": "",
                    "type": "bytes32"
                }
            ],
            "stateMutability": "view",
            "type": "function",
            "constant": true
        },
        {
            "inputs": [],
            "name": "SCHEDULER_ROUND_DELAY",
            "outputs": [
                {
                    "internalType": "bytes32",
                    "name": "",
                    "type": "bytes32"
                }
            ],
            "stateMutability": "view",
            "type": "function",
            "constant": true
        },
        {
            "inputs": [],
            "name": "SUPPORTERS_ADDR",
            "outputs": [
                {
                    "internalType": "bytes32",
                    "name": "",
                    "type": "bytes32"
                }
            ],
            "stateMutability": "view",
            "type": "function",
            "constant": true
        },
        {
            "inputs": [],
            "name": "delayMachine",
            "outputs": [
                {
                    "internalType": "address",
                    "name": "",
                    "type": "address"
                }
            ],
            "stateMutability": "view",
            "type": "function",
            "constant": true
        },
        {
            "inputs": [],
            "name": "infoGetter",
            "outputs": [
                {
                    "internalType": "address",
                    "name": "",
                    "type": "address"
                }
            ],
            "stateMutability": "view",
            "type": "function",
            "constant": true
        },
        {
            "inputs": [],
            "name": "oracleManager",
            "outputs": [
                {
                    "internalType": "address",
                    "name": "",
                    "type": "address"
                }
            ],
            "stateMutability": "view",
            "type": "function",
            "constant": true
        },
        {
            "inputs": [],
            "name": "registry",
            "outputs": [
                {
                    "internalType": "contract IRegistry",
                    "name": "",
                    "type": "address"
                }
            ],
            "stateMutability": "view",
            "type": "function",
            "constant": true
        },
        {
            "inputs": [],
            "name": "supporters",
            "outputs": [
                {
                    "internalType": "address",
                    "name": "",
                    "type": "address"
                }
            ],
            "stateMutability": "view",
            "type": "function",
            "constant": true
        },
        {
            "inputs": [],
            "name": "execute",
            "outputs": [],
            "stateMutability": "nonpayable",
            "type": "function"
        }
    ],
    "bytecode": "0x608060405234801561001057600080fd5b506040516121d93803806121d9833981810160405260a081101561003357600080fd5b810190808051906020019092919080519060200190929190805190602001909291908051906020019092919080519060200190929190505050846000806101000a81548173ffffffffffffffffffffffffffffffffffffffff021916908373ffffffffffffffffffffffffffffffffffffffff16021790555083600160006101000a81548173ffffffffffffffffffffffffffffffffffffffff021916908373ffffffffffffffffffffffffffffffffffffffff16021790555082600260006101000a81548173ffffffffffffffffffffffffffffffffffffffff021916908373ffffffffffffffffffffffffffffffffffffffff16021790555081600360006101000a81548173ffffffffffffffffffffffffffffffffffffffff021916908373ffffffffffffffffffffffffffffffffffffffff16021790555080600460006101000a81548173ffffffffffffffffffffffffffffffffffffffff021916908373ffffffffffffffffffffffffffffffffffffffff1602179055505050505050612015806101c46000396000f3fe608060405234801561001057600080fd5b506004361061025e5760003560e01c80638bc7b6f211610146578063b90163d1116100c3578063e873e20811610087578063e873e208146106df578063ea0e0661146106fd578063f13eb2d51461071b578063fa8ab4c114610739578063faf620bc14610757578063fdc31f6f146107755761025e565b8063b90163d114610649578063ba6fc28714610667578063d274eaff14610685578063d3f055d7146106a3578063d51673fb146106c15761025e565b80639d81ac841161010a5780639d81ac84146105b3578063a68d751e146105d1578063a6c456f1146105ef578063b01f02bf1461060d578063b74ab6fc1461062b5761025e565b80638bc7b6f21461051d5780638da1b81d1461053b578063915e4e101461055957806394ff8ee6146105775780639b09d9c9146105955761025e565b80634b903654116101df5780636b65fbd3116101a35780636b65fbd31461042757806373e0d02e1461045b578063793caa671461048f5780637b103999146104ad5780637c197e21146104e15780637ccc00cc146104ff5761025e565b80634b9036541461038f5780634eb836f5146103ad578063565d878c146103cb578063586dec23146103ff578063614619541461041d5761025e565b8063296e9cc411610226578063296e9cc4146102f957806339e94f13146103175780633bdc3950146103355780633f827a5a14610353578063484cae4e146103715761025e565b80630358faeb146102635780630fc67cec14610281578063213fe5c01461029f57806326400693146102bd57806328f134a4146102db575b600080fd5b61026b6107a9565b6040518082815260200191505060405180910390f35b6102896107d0565b6040518082815260200191505060405180910390f35b6102a76107f7565b6040518082815260200191505060405180910390f35b6102c561081e565b6040518082815260200191505060405180910390f35b6102e3610845565b6040518082815260200191505060405180910390f35b61030161086c565b6040518082815260200191505060405180910390f35b61031f610893565b6040518082815260200191505060405180910390f35b61033d6108ba565b6040518082815260200191505060405180910390f35b61035b6108e1565b6040518082815260200191505060405180910390f35b610379610908565b6040518082815260200191505060405180910390f35b61039761092f565b6040518082815260200191505060405180910390f35b6103b5610956565b6040518082815260200191505060405180910390f35b6103d361097d565b604051808273ffffffffffffffffffffffffffffffffffffffff16815260200191505060405180910390f35b6104076109a3565b6040518082815260200191505060405180910390f35b6104256109ca565b005b61042f611bc8565b604051808273ffffffffffffffffffffffffffffffffffffffff16815260200191505060405180910390f35b610463611bee565b604051808273ffffffffffffffffffffffffffffffffffffffff16815260200191505060405180910390f35b610497611c14565b6040518082815260200191505060405180910390f35b6104b5611c3b565b604051808273ffffffffffffffffffffffffffffffffffffffff16815260200191505060405180910390f35b6104e9611c5f565b6040518082815260200191505060405180910390f35b610507611c86565b6040518082815260200191505060405180910390f35b610525611cad565b6040518082815260200191505060405180910390f35b610543611cd4565b6040518082815260200191505060405180910390f35b610561611cfb565b6040518082815260200191505060405180910390f35b61057f611d22565b6040518082815260200191505060405180910390f35b61059d611d49565b6040518082815260200191505060405180910390f35b6105bb611d70565b6040518082815260200191505060405180910390f35b6105d9611d97565b6040518082815260200191505060405180910390f35b6105f7611dbe565b6040518082815260200191505060405180910390f35b610615611de5565b6040518082815260200191505060405180910390f35b610633611e0c565b6040518082815260200191505060405180910390f35b610651611e33565b6040518082815260200191505060405180910390f35b61066f611e5a565b6040518082815260200191505060405180910390f35b61068d611e81565b6040518082815260200191505060405180910390f35b6106ab611ea8565b6040518082815260200191505060405180910390f35b6106c9611ecf565b6040518082815260200191505060405180910390f35b6106e7611ef6565b6040518082815260200191505060405180910390f35b610705611f1d565b6040518082815260200191505060405180910390f35b610723611f44565b6040518082815260200191505060405180910390f35b610741611f6b565b6040518082815260200191505060405180910390f35b61075f611f92565b6040518082815260200191505060405180910390f35b61077d611fb9565b604051808273ffffffffffffffffffffffffffffffffffffffff16815260200191505060405180910390f35b7fda9f12e01fc92de345bb741448d36ecb967052dd7aa1670439af833c9a3d78f160001b81565b7f275d8a46b817572476d2d55b41c7709dee307740bad676a9693805003a48d23160001b81565b7fb43ee0a5ee6dcc7115ce824e4e353526ad6e479afa4daeb78451070de942de3660001b81565b7fc32b9cbc59039d297e670e7c196424308c90ba4a437fa7ccd008498c934e7dbf60001b81565b7f4cd7e3f12ee4a2db0a6ba16e03fbc31bba1048c149bbf4fc9f3c02021ec550b860001b81565b7f2f271dc1fa81985bda14a2d6d0d60b45191d2a2d97e636b192696a8796d654a760001b81565b7f7dfea4fb968e2599cdb7b3028c07d0188d0f92d1d00bd95c2805523c224649dd60001b81565b7f7a3ee46ca1bd3e19089870d8d6530b083a86da93aab52efccb32d5950e2709cf60001b81565b7feafac1a2b4d4fdcc942cbdce334a88ec83387087978d039f1320d3639a0b59df60001b81565b7fb324a91be1ac0d0c4888c835aee124ca1a7caf4b73ce10aa3504e2683865d7e560001b81565b7ff646c455329c7af0436f9e95c59c90ce0e11bb4e3a1deff805807798696adf8860001b81565b7f16986f74674f2ed21d50b6e74e6b12bb323ff4f72364542fd5de5104f3cc3ca960001b81565b600260009054906101000a900473ffffffffffffffffffffffffffffffffffffffff1681565b7fc0ded27704f62d8726fdbd83648113d9fd8cf32c09f80523d2ba523e0bbd5ba460001b81565b600073ffffffffffffffffffffffffffffffffffffffff1660008054906101000a900473ffffffffffffffffffffffffffffffffffffffff1673ffffffffffffffffffffffffffffffffffffffff161415610a8d576040517f08c379a00000000000000000000000000000000000000000000000000000000081526004018080602001828103825260088152602001807f557365206f6e636500000000000000000000000000000000000000000000000081525060200191505060405180910390fd5b60008054906101000a900473ffffffffffffffffffffffffffffffffffffffff1673ffffffffffffffffffffffffffffffffffffffff1663ca446dd97f66b60892ff6e7f0da16db27046f5960fdfd6bce5c3c8c21d56ccca3236a6281b60001b600160009054906101000a900473ffffffffffffffffffffffffffffffffffffffff166040518363ffffffff1660e01b8152600401808381526020018273ffffffffffffffffffffffffffffffffffffffff16815260200192505050600060405180830381600087803b158015610b6357600080fd5b505af1158015610b77573d6000803e3d6000fd5b5050505060008054906101000a900473ffffffffffffffffffffffffffffffffffffffff1673ffffffffffffffffffffffffffffffffffffffff1663ca446dd97f16986f74674f2ed21d50b6e74e6b12bb323ff4f72364542fd5de5104f3cc3ca960001b600260009054906101000a900473ffffffffffffffffffffffffffffffffffffffff166040518363ffffffff1660e01b8152600401808381526020018273ffffffffffffffffffffffffffffffffffffffff16815260200192505050600060405180830381600087803b158015610c5157600080fd5b505af1158015610c65573d6000803e3d6000fd5b5050505060008054906101000a900473ffffffffffffffffffffffffffffffffffffffff1673ffffffffffffffffffffffffffffffffffffffff1663ca446dd97fe4f979504d2a7a24557a15195eb83131e7c4a66d33900454705435aa5a6ee08660001b600360009054906101000a900473ffffffffffffffffffffffffffffffffffffffff166040518363ffffffff1660e01b8152600401808381526020018273ffffffffffffffffffffffffffffffffffffffff16815260200192505050600060405180830381600087803b158015610d3f57600080fd5b505af1158015610d53573d6000803e3d6000fd5b5050505060008054906101000a900473ffffffffffffffffffffffffffffffffffffffff1673ffffffffffffffffffffffffffffffffffffffff1663ca446dd97fda9f12e01fc92de345bb741448d36ecb967052dd7aa1670439af833c9a3d78f160001b600460009054906101000a900473ffffffffffffffffffffffffffffffffffffffff166040518363ffffffff1660e01b8152600401808381526020018273ffffffffffffffffffffffffffffffffffffffff16815260200192505050600060405180830381600087803b158015610e2d57600080fd5b505af1158015610e41573d6000803e3d6000fd5b5050505060008054906101000a900473ffffffffffffffffffffffffffffffffffffffff1673ffffffffffffffffffffffffffffffffffffffff16639ed440227f945f72e5d44fb0ce3b1de393d19415723b79f97ad801089d8470d1c20e15ffef60001b60056040518363ffffffff1660e01b81526004018083815260200182815260200192505050600060405180830381600087803b158015610ee457600080fd5b505af1158015610ef8573d6000803e3d6000fd5b5050505060008054906101000a900473ffffffffffffffffffffffffffffffffffffffff1673ffffffffffffffffffffffffffffffffffffffff16639ed440227f11cfbdf601b80a575e4366f0234cc06de0c9f401fe250dd9dccfccefeedb6fc260001b60036040518363ffffffff1660e01b81526004018083815260200182815260200192505050600060405180830381600087803b158015610f9b57600080fd5b505af1158015610faf573d6000803e3d6000fd5b5050505060008054906101000a900473ffffffffffffffffffffffffffffffffffffffff1673ffffffffffffffffffffffffffffffffffffffff16639ed440227f2f271dc1fa81985bda14a2d6d0d60b45191d2a2d97e636b192696a8796d654a760001b60056040518363ffffffff1660e01b81526004018083815260200182815260200192505050600060405180830381600087803b15801561105257600080fd5b505af1158015611066573d6000803e3d6000fd5b5050505060008054906101000a900473ffffffffffffffffffffffffffffffffffffffff1673ffffffffffffffffffffffffffffffffffffffff16639ed440227f275d8a46b817572476d2d55b41c7709dee307740bad676a9693805003a48d23160001b60786040518363ffffffff1660e01b81526004018083815260200182815260200192505050600060405180830381600087803b15801561110957600080fd5b505af115801561111d573d6000803e3d6000fd5b5050505060008054906101000a900473ffffffffffffffffffffffffffffffffffffffff1673ffffffffffffffffffffffffffffffffffffffff16634259bac37f7a3ee46ca1bd3e19089870d8d6530b083a86da93aab52efccb32d5950e2709cf60001b600560016040518463ffffffff1660e01b8152600401808481526020018381526020018281526020019350505050600060405180830381600087803b1580156111c957600080fd5b505af11580156111dd573d6000803e3d6000fd5b5050505060008054906101000a900473ffffffffffffffffffffffffffffffffffffffff1673ffffffffffffffffffffffffffffffffffffffff16639ed440227fb027f2006a45346de89db4c5efc53f4e05e96532d27366aff00367a394d0abc460001b60f06040518363ffffffff1660e01b81526004018083815260200182815260200192505050600060405180830381600087803b15801561128057600080fd5b505af1158015611294573d6000803e3d6000fd5b5050505060008054906101000a900473ffffffffffffffffffffffffffffffffffffffff1673ffffffffffffffffffffffffffffffffffffffff16639ed440227ff75b08b2b912abdbb87cc459ca0b4fdc019329386ec84ab68399b0c86fed5a9560001b603c6040518363ffffffff1660e01b81526004018083815260200182815260200192505050600060405180830381600087803b15801561133757600080fd5b505af115801561134b573d6000803e3d6000fd5b5050505060008054906101000a900473ffffffffffffffffffffffffffffffffffffffff1673ffffffffffffffffffffffffffffffffffffffff16639ed440227fb324a91be1ac0d0c4888c835aee124ca1a7caf4b73ce10aa3504e2683865d7e560001b60146040518363ffffffff1660e01b81526004018083815260200182815260200192505050600060405180830381600087803b1580156113ee57600080fd5b505af1158015611402573d6000803e3d6000fd5b5050505060008054906101000a900473ffffffffffffffffffffffffffffffffffffffff1673ffffffffffffffffffffffffffffffffffffffff16639ed440227f6c2abc911c0fa4c73b90c7143a9f4429749be45ebfe7b81e69b86e7ca440d81160001b603c6040518363ffffffff1660e01b81526004018083815260200182815260200192505050600060405180830381600087803b1580156114a557600080fd5b505af11580156114b9573d6000803e3d6000fd5b5050505060008054906101000a900473ffffffffffffffffffffffffffffffffffffffff1673ffffffffffffffffffffffffffffffffffffffff16639ed440227fa82bea7140872d1398fa0ab5075330ab0228f4c7e381b4b6502379ffc7cdcd9f60001b6107086040518363ffffffff1660e01b81526004018083815260200182815260200192505050600060405180830381600087803b15801561155d57600080fd5b505af1158015611571573d6000803e3d6000fd5b5050505060008054906101000a900473ffffffffffffffffffffffffffffffffffffffff1673ffffffffffffffffffffffffffffffffffffffff16639ed440227f4cd7e3f12ee4a2db0a6ba16e03fbc31bba1048c149bbf4fc9f3c02021ec550b860001b60126040518363ffffffff1660e01b81526004018083815260200182815260200192505050600060405180830381600087803b15801561161457600080fd5b505af1158015611628573d6000803e3d6000fd5b5050505060008054906101000a900473ffffffffffffffffffffffffffffffffffffffff1673ffffffffffffffffffffffffffffffffffffffff16639ed440227f7d32d87d65898c3cbc7e72c59d223bf61c7811e99dafafd24fb08e0a38f1091460001b601e6040518363ffffffff1660e01b81526004018083815260200182815260200192505050600060405180830381600087803b1580156116cb57600080fd5b505af11580156116df573d6000803e3d6000fd5b5050505060008054906101000a900473ffffffffffffffffffffffffffffffffffffffff1673ffffffffffffffffffffffffffffffffffffffff16639ed440227feafac1a2b4d4fdcc942cbdce334a88ec83387087978d039f1320d3639a0b59df60001b60036040518363ffffffff1660e01b81526004018083815260200182815260200192505050600060405180830381600087803b15801561178257600080fd5b505af1158015611796573d6000803e3d6000fd5b5050505060008054906101000a900473ffffffffffffffffffffffffffffffffffffffff1673ffffffffffffffffffffffffffffffffffffffff16639ed440227fa1e0b5b458fe661fe687da135d3340a172e262c3cb31d646a4cb5cea9b6f179060001b60026040518363ffffffff1660e01b81526004018083815260200182815260200192505050600060405180830381600087803b15801561183957600080fd5b505af115801561184d573d6000803e3d6000fd5b5050505060008054906101000a900473ffffffffffffffffffffffffffffffffffffffff1673ffffffffffffffffffffffffffffffffffffffff16634259bac37f41a2ac05b365409628009a8091d8dda06fe52fe2f1c792e651e5df7599a7a7de60001b60057ffffffffffffffffffffffffffffffffffffffffffffffffffffffffffffffffe6040518463ffffffff1660e01b8152600401808481526020018381526020018281526020019350505050600060405180830381600087803b15801561191857600080fd5b505af115801561192c573d6000803e3d6000fd5b5050505060008054906101000a900473ffffffffffffffffffffffffffffffffffffffff1673ffffffffffffffffffffffffffffffffffffffff16639ed440227f51a2be29a473202678b6cf57b717ba5d7ff671f01fdbdbfcad4e1882601b889660001b60006040518363ffffffff1660e01b81526004018083815260200182815260200192505050600060405180830381600087803b1580156119cf57600080fd5b505af11580156119e3573d6000803e3d6000fd5b5050505060008054906101000a900473ffffffffffffffffffffffffffffffffffffffff1673ffffffffffffffffffffffffffffffffffffffff16632e28d0847ff646c455329c7af0436f9e95c59c90ce0e11bb4e3a1deff805807798696adf8860001b6040518263ffffffff1660e01b81526004018082815260200180602001828103825260058152602001807f020406080a00000000000000000000000000000000000000000000000000000081525060200192505050600060405180830381600087803b158015611ab657600080fd5b505af1158015611aca573d6000803e3d6000fd5b5050505060008054906101000a900473ffffffffffffffffffffffffffffffffffffffff1673ffffffffffffffffffffffffffffffffffffffff16639ed440227fef9006fe6663199909dfaa4ab45e3f86d6454adb7773682f356824b6b3bc6b0e60001b601e6040518363ffffffff1660e01b81526004018083815260200182815260200192505050600060405180830381600087803b158015611b6d57600080fd5b505af1158015611b81573d6000803e3d6000fd5b5050505060008060006101000a81548173ffffffffffffffffffffffffffffffffffffffff021916908373ffffffffffffffffffffffffffffffffffffffff160217905550565b600160009054906101000a900473ffffffffffffffffffffffffffffffffffffffff1681565b600460009054906101000a900473ffffffffffffffffffffffffffffffffffffffff1681565b7f5e92c359b77ace8f4933558289f577781c0713b4ff91b2d2f76c8e523e56007060001b81565b60008054906101000a900473ffffffffffffffffffffffffffffffffffffffff1681565b7f51a2be29a473202678b6cf57b717ba5d7ff671f01fdbdbfcad4e1882601b889660001b81565b7fa1e0b5b458fe661fe687da135d3340a172e262c3cb31d646a4cb5cea9b6f179060001b81565b7fb027f2006a45346de89db4c5efc53f4e05e96532d27366aff00367a394d0abc460001b81565b7f7d32d87d65898c3cbc7e72c59d223bf61c7811e99dafafd24fb08e0a38f1091460001b81565b7f41a2ac05b365409628009a8091d8dda06fe52fe2f1c792e651e5df7599a7a7de60001b81565b7ff75b08b2b912abdbb87cc459ca0b4fdc019329386ec84ab68399b0c86fed5a9560001b81565b7f66b60892ff6e7f0da16db27046f5960fdfd6bce5c3c8c21d56ccca3236a6281b60001b81565b7fa82bea7140872d1398fa0ab5075330ab0228f4c7e381b4b6502379ffc7cdcd9f60001b81565b7f4bd5e7ff929fdd1ba62a33f76e0f40e97bb35e8bf126c0d9d91ce5c69a4bc52160001b81565b7f11cfbdf601b80a575e4366f0234cc06de0c9f401fe250dd9dccfccefeedb6fc260001b81565b7f3c557531fea67120f21bc7711270a96f1b8cff3dfe3dd798a8a9f09ce9b7797260001b81565b7fde1ede48948567c43c504b761af8cd6af5363fafeceb1239b3083955d809714f60001b81565b7f73ee596441ef88c207a7a9147d62f59186b4991555e37b7ce9c801f9539d105060001b81565b7f0a1b21dfd7e4f3741529cf579e2731e847d81bbf13a82d0eba6910d7ac4c1c0a60001b81565b7f945f72e5d44fb0ce3b1de393d19415723b79f97ad801089d8470d1c20e15ffef60001b81565b7ffb2d33acd65c36f68a15f8fe41cb8c0dd1eda164ffa87c6882e685ccb1c1adfb60001b81565b7f62f5dbf0c17b0df83487409f747ad2eeca5fd54c140ca59b32cf39d6f6eaf91660001b81565b7fef9006fe6663199909dfaa4ab45e3f86d6454adb7773682f356824b6b3bc6b0e60001b81565b7fe4f979504d2a7a24557a15195eb83131e7c4a66d33900454705435aa5a6ee08660001b81565b7f99f83ee0c57b325f3deafb536d55596743ff112c6ac0d853d5f4f89b75dec04560001b81565b7f6c2abc911c0fa4c73b90c7143a9f4429749be45ebfe7b81e69b86e7ca440d81160001b81565b7f580be8e098dd1016787d59c2a534bf9df9ec679a29de4c8f92dc3807f7d7d54d60001b81565b600360009054906101000a900473ffffffffffffffffffffffffffffffffffffffff168156fea2646970667358221220c9ee8d39d97c6db8a286076a0f9114a0b96a864501670b4bd4a6b495842076f564736f6c634300060c0033",
    "immutableReferences": {},
    "source": "// SPDX-License-Identifier: UNLICENSED\npragma solidity 0.6.12;\n\nimport {ChangeContract} from \"@moc/shared/contracts/moc-governance/Governance/ChangeContract.sol\";\nimport {IRegistry} from \"@moc/shared/contracts/IRegistry.sol\";\nimport {RegistryConstants} from \"@moc/shared/contracts/RegistryConstants.sol\";\n\n/**\n  @title MocRegistryInitChange\n  @notice This contract is a ChangeContract intended to initialize all the MOC registry values\n */\ncontract MocRegistryInitChange is ChangeContract, RegistryConstants {\n    IRegistry public registry;\n    address public delayMachine;\n    address public oracleManager;\n    address public supporters;\n    address public infoGetter;\n\n    /**\n      @notice Constructor\n    */\n    constructor(\n        IRegistry _registry,\n        address _delayMachine,\n        address _oracleManager,\n        address _supporters,\n        address _infoGetter\n    ) public {\n        registry = _registry;\n        delayMachine = _delayMachine;\n        oracleManager = _oracleManager;\n        supporters = _supporters;\n        infoGetter = _infoGetter;\n    }\n\n    /**\n      @notice Execute the changes.\n      @dev Should be called by the governor, but this contract does not check that explicitly because it is\n      not its responsability in the current architecture\n     */\n    function execute() external override {\n        require(address(registry) != address(0), \"Use once\");\n\n        registry.setAddress(MOC_DELAY_MACHINE, delayMachine);\n        registry.setAddress(ORACLE_MANAGER_ADDR, oracleManager);\n        registry.setAddress(SUPPORTERS_ADDR, supporters);\n        registry.setAddress(INFO_ADDR, infoGetter);\n\n        registry.setUint(ORACLE_PRICE_FETCH_RATE, 5);\n        registry.setUint(ORACLE_BLOCKCHAIN_INFO_INTERVAL, 3);\n        registry.setUint(ORACLE_COIN_PAIR_LOOP_TASK_INTERVAL, 5);\n        registry.setUint(ORACLE_MAIN_LOOP_TASK_INTERVAL, 120);\n        registry.setDecimal(ORACLE_PRICE_REJECT_DELTA_PCT, 5, 1);\n        registry.setUint(ORACLE_CONFIGURATION_TASK_INTERVAL, 240);\n        registry.setUint(ORACLE_GATHER_SIGNATURE_TIMEOUT, 60);\n        registry.setUint(ORACLE_MAIN_EXECUTOR_TASK_INTERVAL, 20);\n        registry.setUint(SCHEDULER_POOL_DELAY, 1 * 60);\n        registry.setUint(SCHEDULER_ROUND_DELAY, 30 * 60);\n        registry.setUint(ORACLE_PRICE_DIGITS, 18);\n        registry.setUint(ORACLE_QUEUE_LEN, 30);\n        registry.setUint(MESSAGE_VERSION, 3);\n        registry.setUint(ORACLE_STAKE_LIMIT_MULTIPLICATOR, 2);\n        registry.setDecimal(ORACLE_PRICE_DELTA_PCT, 5, -2);\n        registry.setUint(ORACLE_PRICE_PUBLISH_BLOCKS, 0);\n        registry.setBytes(ORACLE_ENTERING_FALLBACKS_AMOUNTS, hex\"020406080a\");\n        registry.setUint(ORACLE_TRIGGER_VALID_PUBLICATION_BLOCKS, 30);\n        // usable just once!!!\n        registry = IRegistry(0);\n    }\n}\n",
    "sourcePath": "/home/adji/Desktop/work/coinfabrik/moc-oraculos/contracts/change/MocRegistryInitChange.sol",
    "compiler": {
        "name": "solc",
        "version": "0.6.12+commit.27d51765.Emscripten.clang"
    },
    "schemaVersion": "3.2.4",
    "updatedAt": "2020-09-15T15:03:14.377Z",
    "networkType": "ethereum",
    "devdoc": {
        "kind": "dev",
        "methods": {
            "execute()": {
                "details": "Should be called by the governor, but this contract does not check that explicitly because it is not its responsability in the current architecture"
            }
        },
        "title": "MocRegistryInitChange",
        "version": 1
    },
    "userdoc": {
        "kind": "user",
        "methods": {
            "constructor": "Constructor",
            "execute()": {
                "notice": "Execute the changes."
            }
        },
        "notice": "This contract is a ChangeContract intended to initialize all the MOC registry values",
        "version": 1
    }
}