{
    "contractName": "MocRegistryInitChange",
    "abi": [
        {
            "inputs": [
                {
                    "internalType": "contract IRegistry",
                    "name": "_registry",
                    "type": "address"
                },
                {
                    "internalType": "address",
                    "name": "_delayMachine",
                    "type": "address"
                },
                {
                    "internalType": "address",
                    "name": "_oracleManager",
                    "type": "address"
                },
                {
                    "internalType": "address",
                    "name": "_supporters",
                    "type": "address"
                },
                {
                    "internalType": "address",
                    "name": "_infoGetter",
                    "type": "address"
                }
            ],
            "stateMutability": "nonpayable",
            "type": "constructor"
        },
        {
            "inputs": [],
            "name": "INFO_ADDR",
            "outputs": [
                {
                    "internalType": "bytes32",
                    "name": "",
                    "type": "bytes32"
                }
            ],
            "stateMutability": "view",
            "type": "function"
        },
        {
            "inputs": [],
            "name": "MESSAGE_VERSION",
            "outputs": [
                {
                    "internalType": "bytes32",
                    "name": "",
                    "type": "bytes32"
                }
            ],
            "stateMutability": "view",
            "type": "function"
        },
        {
            "inputs": [],
            "name": "MOC_DELAY_MACHINE",
            "outputs": [
                {
                    "internalType": "bytes32",
                    "name": "",
                    "type": "bytes32"
                }
            ],
            "stateMutability": "view",
            "type": "function"
        },
        {
            "inputs": [],
            "name": "MOC_STAKING_MACHINE",
            "outputs": [
                {
                    "internalType": "bytes32",
                    "name": "",
                    "type": "bytes32"
                }
            ],
            "stateMutability": "view",
            "type": "function"
        },
        {
            "inputs": [],
            "name": "MOC_TOKEN",
            "outputs": [
                {
                    "internalType": "bytes32",
                    "name": "",
                    "type": "bytes32"
                }
            ],
            "stateMutability": "view",
            "type": "function"
        },
        {
            "inputs": [],
            "name": "MOC_VESTING_MACHINE",
            "outputs": [
                {
                    "internalType": "bytes32",
                    "name": "",
                    "type": "bytes32"
                }
            ],
            "stateMutability": "view",
            "type": "function"
        },
        {
            "inputs": [],
            "name": "MOC_VOTING_MACHINE",
            "outputs": [
                {
                    "internalType": "bytes32",
                    "name": "",
                    "type": "bytes32"
                }
            ],
            "stateMutability": "view",
            "type": "function"
        },
        {
            "inputs": [],
            "name": "MOC_VOTING_MACHINE_MAX_PRE_PROPOSALS",
            "outputs": [
                {
                    "internalType": "bytes32",
                    "name": "",
                    "type": "bytes32"
                }
            ],
            "stateMutability": "view",
            "type": "function"
        },
        {
            "inputs": [],
            "name": "MOC_VOTING_MACHINE_MIN_STAKE",
            "outputs": [
                {
                    "internalType": "bytes32",
                    "name": "",
                    "type": "bytes32"
                }
            ],
            "stateMutability": "view",
            "type": "function"
        },
        {
            "inputs": [],
            "name": "MOC_VOTING_MACHINE_PCT_PRECISION",
            "outputs": [
                {
                    "internalType": "bytes32",
                    "name": "",
                    "type": "bytes32"
                }
            ],
            "stateMutability": "view",
            "type": "function"
        },
        {
            "inputs": [],
            "name": "MOC_VOTING_MACHINE_PRE_VOTE_EXPIRATION_TIME_DELTA",
            "outputs": [
                {
                    "internalType": "bytes32",
                    "name": "",
                    "type": "bytes32"
                }
            ],
            "stateMutability": "view",
            "type": "function"
        },
        {
            "inputs": [],
            "name": "MOC_VOTING_MACHINE_PRE_VOTE_MIN_PCT_TO_WIN",
            "outputs": [
                {
                    "internalType": "bytes32",
                    "name": "",
                    "type": "bytes32"
                }
            ],
            "stateMutability": "view",
            "type": "function"
        },
        {
            "inputs": [],
            "name": "MOC_VOTING_MACHINE_VOTE_MIN_PCT_FOR_QUORUM",
            "outputs": [
                {
                    "internalType": "bytes32",
                    "name": "",
                    "type": "bytes32"
                }
            ],
            "stateMutability": "view",
            "type": "function"
        },
        {
            "inputs": [],
            "name": "MOC_VOTING_MACHINE_VOTE_MIN_PCT_TO_ACCEPT",
            "outputs": [
                {
                    "internalType": "bytes32",
                    "name": "",
                    "type": "bytes32"
                }
            ],
            "stateMutability": "view",
            "type": "function"
        },
        {
            "inputs": [],
            "name": "MOC_VOTING_MACHINE_VOTE_MIN_PCT_TO_VETO",
            "outputs": [
                {
                    "internalType": "bytes32",
                    "name": "",
                    "type": "bytes32"
                }
            ],
            "stateMutability": "view",
            "type": "function"
        },
        {
            "inputs": [],
            "name": "MOC_VOTING_MACHINE_VOTING_TIME_DELTA",
            "outputs": [
                {
                    "internalType": "bytes32",
                    "name": "",
                    "type": "bytes32"
                }
            ],
            "stateMutability": "view",
            "type": "function"
        },
        {
            "inputs": [],
            "name": "ORACLE_BLOCKCHAIN_INFO_INTERVAL",
            "outputs": [
                {
                    "internalType": "bytes32",
                    "name": "",
                    "type": "bytes32"
                }
            ],
            "stateMutability": "view",
            "type": "function"
        },
        {
            "inputs": [],
            "name": "ORACLE_COIN_PAIR_LOOP_TASK_INTERVAL",
            "outputs": [
                {
                    "internalType": "bytes32",
                    "name": "",
                    "type": "bytes32"
                }
            ],
            "stateMutability": "view",
            "type": "function"
        },
        {
            "inputs": [],
            "name": "ORACLE_CONFIGURATION_TASK_INTERVAL",
            "outputs": [
                {
                    "internalType": "bytes32",
                    "name": "",
                    "type": "bytes32"
                }
            ],
            "stateMutability": "view",
            "type": "function"
        },
        {
            "inputs": [],
            "name": "ORACLE_ENTERING_FALLBACKS_AMOUNTS",
            "outputs": [
                {
                    "internalType": "bytes32",
                    "name": "",
                    "type": "bytes32"
                }
            ],
            "stateMutability": "view",
            "type": "function"
        },
        {
            "inputs": [],
            "name": "ORACLE_GATHER_SIGNATURE_TIMEOUT",
            "outputs": [
                {
                    "internalType": "bytes32",
                    "name": "",
                    "type": "bytes32"
                }
            ],
            "stateMutability": "view",
            "type": "function"
        },
        {
            "inputs": [],
            "name": "ORACLE_MAIN_EXECUTOR_TASK_INTERVAL",
            "outputs": [
                {
                    "internalType": "bytes32",
                    "name": "",
                    "type": "bytes32"
                }
            ],
            "stateMutability": "view",
            "type": "function"
        },
        {
            "inputs": [],
            "name": "ORACLE_MAIN_LOOP_TASK_INTERVAL",
            "outputs": [
                {
                    "internalType": "bytes32",
                    "name": "",
                    "type": "bytes32"
                }
            ],
            "stateMutability": "view",
            "type": "function"
        },
        {
            "inputs": [],
            "name": "ORACLE_MANAGER_ADDR",
            "outputs": [
                {
                    "internalType": "bytes32",
                    "name": "",
                    "type": "bytes32"
                }
            ],
            "stateMutability": "view",
            "type": "function"
        },
        {
            "inputs": [],
            "name": "ORACLE_PRICE_DELTA_PCT",
            "outputs": [
                {
                    "internalType": "bytes32",
                    "name": "",
                    "type": "bytes32"
                }
            ],
            "stateMutability": "view",
            "type": "function"
        },
        {
            "inputs": [],
            "name": "ORACLE_PRICE_DIGITS",
            "outputs": [
                {
                    "internalType": "bytes32",
                    "name": "",
                    "type": "bytes32"
                }
            ],
            "stateMutability": "view",
            "type": "function"
        },
        {
            "inputs": [],
            "name": "ORACLE_PRICE_FETCH_RATE",
            "outputs": [
                {
                    "internalType": "bytes32",
                    "name": "",
                    "type": "bytes32"
                }
            ],
            "stateMutability": "view",
            "type": "function"
        },
        {
            "inputs": [],
            "name": "ORACLE_PRICE_PUBLISH_BLOCKS",
            "outputs": [
                {
                    "internalType": "bytes32",
                    "name": "",
                    "type": "bytes32"
                }
            ],
            "stateMutability": "view",
            "type": "function"
        },
        {
            "inputs": [],
            "name": "ORACLE_PRICE_REJECT_DELTA_PCT",
            "outputs": [
                {
                    "internalType": "bytes32",
                    "name": "",
                    "type": "bytes32"
                }
            ],
            "stateMutability": "view",
            "type": "function"
        },
        {
            "inputs": [],
            "name": "ORACLE_QUEUE_LEN",
            "outputs": [
                {
                    "internalType": "bytes32",
                    "name": "",
                    "type": "bytes32"
                }
            ],
            "stateMutability": "view",
            "type": "function"
        },
        {
            "inputs": [],
            "name": "ORACLE_STAKE_LIMIT_MULTIPLICATOR",
            "outputs": [
                {
                    "internalType": "bytes32",
                    "name": "",
                    "type": "bytes32"
                }
            ],
            "stateMutability": "view",
            "type": "function"
        },
        {
            "inputs": [],
            "name": "ORACLE_TRIGGER_VALID_PUBLICATION_BLOCKS",
            "outputs": [
                {
                    "internalType": "bytes32",
                    "name": "",
                    "type": "bytes32"
                }
            ],
            "stateMutability": "view",
            "type": "function"
        },
        {
            "inputs": [],
            "name": "ORACLE_WITHDRAW_LOCK_TIME",
            "outputs": [
                {
                    "internalType": "bytes32",
                    "name": "",
                    "type": "bytes32"
                }
            ],
            "stateMutability": "view",
            "type": "function"
        },
        {
            "inputs": [],
            "name": "SCHEDULER_POOL_DELAY",
            "outputs": [
                {
                    "internalType": "bytes32",
                    "name": "",
                    "type": "bytes32"
                }
            ],
            "stateMutability": "view",
            "type": "function"
        },
        {
            "inputs": [],
            "name": "SCHEDULER_ROUND_DELAY",
            "outputs": [
                {
                    "internalType": "bytes32",
                    "name": "",
                    "type": "bytes32"
                }
            ],
            "stateMutability": "view",
            "type": "function"
        },
        {
            "inputs": [],
            "name": "SUPPORTERS_ADDR",
            "outputs": [
                {
                    "internalType": "bytes32",
                    "name": "",
                    "type": "bytes32"
                }
            ],
            "stateMutability": "view",
            "type": "function"
        },
        {
            "inputs": [],
            "name": "delayMachine",
            "outputs": [
                {
                    "internalType": "address",
                    "name": "",
                    "type": "address"
                }
            ],
            "stateMutability": "view",
            "type": "function"
        },
        {
            "inputs": [],
            "name": "infoGetter",
            "outputs": [
                {
                    "internalType": "address",
                    "name": "",
                    "type": "address"
                }
            ],
            "stateMutability": "view",
            "type": "function"
        },
        {
            "inputs": [],
            "name": "oracleManager",
            "outputs": [
                {
                    "internalType": "address",
                    "name": "",
                    "type": "address"
                }
            ],
            "stateMutability": "view",
            "type": "function"
        },
        {
            "inputs": [],
            "name": "registry",
            "outputs": [
                {
                    "internalType": "contract IRegistry",
                    "name": "",
                    "type": "address"
                }
            ],
            "stateMutability": "view",
            "type": "function"
        },
        {
            "inputs": [],
            "name": "supporters",
            "outputs": [
                {
                    "internalType": "address",
                    "name": "",
                    "type": "address"
                }
            ],
            "stateMutability": "view",
            "type": "function"
        },
        {
            "inputs": [],
            "name": "execute",
            "outputs": [],
            "stateMutability": "nonpayable",
            "type": "function"
        }
    ],
    "bytecode": "0x608060405234801561001057600080fd5b5060405161166d38038061166d833981810160405260a081101561003357600080fd5b508051602082015160408301516060840151608090940151600080546001600160a01b039586166001600160a01b031991821617909155600180549486169482169490941790935560028054928516928416929092179091556003805494841694831694909417909355600480549290931691161790556115b4806100b96000396000f3fe608060405234801561001057600080fd5b506004361061025e5760003560e01c80638bc7b6f211610146578063b90163d1116100c3578063e873e20811610087578063e873e208146103b3578063ea0e0661146103bb578063f13eb2d5146103c3578063fa8ab4c1146103cb578063faf620bc146103d3578063fdc31f6f146103db5761025e565b8063b90163d11461038b578063ba6fc28714610393578063d274eaff1461039b578063d3f055d7146103a3578063d51673fb146103ab5761025e565b80639d81ac841161010a5780639d81ac8414610363578063a68d751e1461036b578063a6c456f114610373578063b01f02bf1461037b578063b74ab6fc146103835761025e565b80638bc7b6f21461033b5780638da1b81d14610343578063915e4e101461034b57806394ff8ee6146103535780639b09d9c91461035b5761025e565b80634b903654116101df5780636b65fbd3116101a35780636b65fbd31461030b57806373e0d02e14610313578063793caa671461031b5780637b103999146103235780637c197e211461032b5780637ccc00cc146103335761025e565b80634b903654146102c55780634eb836f5146102cd578063565d878c146102d5578063586dec23146102f957806361461954146103015761025e565b8063296e9cc411610226578063296e9cc41461029d57806339e94f13146102a55780633bdc3950146102ad5780633f827a5a146102b5578063484cae4e146102bd5761025e565b80630358faeb146102635780630fc67cec1461027d578063213fe5c014610285578063264006931461028d57806328f134a414610295575b600080fd5b61026b6103e3565b60408051918252519081900360200190f35b61026b610407565b61026b61042b565b61026b61044f565b61026b610473565b61026b610497565b61026b6104bb565b61026b6104df565b61026b610503565b61026b610527565b61026b61054b565b61026b61056f565b6102dd610593565b604080516001600160a01b039092168252519081900360200190f35b61026b6105a2565b6103096105c6565b005b6102dd611206565b6102dd611215565b61026b611224565b6102dd611248565b61026b611257565b61026b61127b565b61026b61129f565b61026b6112c3565b61026b6112e7565b61026b61130b565b61026b61132f565b61026b611353565b61026b611377565b61026b61139b565b61026b6113bf565b61026b6113e3565b61026b611407565b61026b61142b565b61026b61144f565b61026b611473565b61026b611497565b61026b6114bb565b61026b6114df565b61026b611503565b61026b611527565b61026b61154b565b6102dd61156f565b7fda9f12e01fc92de345bb741448d36ecb967052dd7aa1670439af833c9a3d78f181565b7f275d8a46b817572476d2d55b41c7709dee307740bad676a9693805003a48d23181565b7fb43ee0a5ee6dcc7115ce824e4e353526ad6e479afa4daeb78451070de942de3681565b7fc32b9cbc59039d297e670e7c196424308c90ba4a437fa7ccd008498c934e7dbf81565b7f4cd7e3f12ee4a2db0a6ba16e03fbc31bba1048c149bbf4fc9f3c02021ec550b881565b7f2f271dc1fa81985bda14a2d6d0d60b45191d2a2d97e636b192696a8796d654a781565b7f7dfea4fb968e2599cdb7b3028c07d0188d0f92d1d00bd95c2805523c224649dd81565b7f7a3ee46ca1bd3e19089870d8d6530b083a86da93aab52efccb32d5950e2709cf81565b7feafac1a2b4d4fdcc942cbdce334a88ec83387087978d039f1320d3639a0b59df81565b7fb324a91be1ac0d0c4888c835aee124ca1a7caf4b73ce10aa3504e2683865d7e581565b7ff646c455329c7af0436f9e95c59c90ce0e11bb4e3a1deff805807798696adf8881565b7f16986f74674f2ed21d50b6e74e6b12bb323ff4f72364542fd5de5104f3cc3ca981565b6002546001600160a01b031681565b7fc0ded27704f62d8726fdbd83648113d9fd8cf32c09f80523d2ba523e0bbd5ba481565b6000546001600160a01b031661060e576040805162461bcd60e51b8152602060048201526008602482015267557365206f6e636560c01b604482015290519081900360640190fd5b600080546001546040805163ca446dd960e01b81527f66b60892ff6e7f0da16db27046f5960fdfd6bce5c3c8c21d56ccca3236a6281b60048201526001600160a01b0392831660248201529051919092169263ca446dd9926044808201939182900301818387803b15801561068257600080fd5b505af1158015610696573d6000803e3d6000fd5b5050600080546002546040805163ca446dd960e01b81527f16986f74674f2ed21d50b6e74e6b12bb323ff4f72364542fd5de5104f3cc3ca960048201526001600160a01b039283166024820152905191909216945063ca446dd993506044808301939282900301818387803b15801561070e57600080fd5b505af1158015610722573d6000803e3d6000fd5b5050600080546003546040805163ca446dd960e01b81527fe4f979504d2a7a24557a15195eb83131e7c4a66d33900454705435aa5a6ee08660048201526001600160a01b039283166024820152905191909216945063ca446dd993506044808301939282900301818387803b15801561079a57600080fd5b505af11580156107ae573d6000803e3d6000fd5b505060008054600480546040805163ca446dd960e01b81527fda9f12e01fc92de345bb741448d36ecb967052dd7aa1670439af833c9a3d78f1938101939093526001600160a01b039182166024840152519216945063ca446dd99350604480820193929182900301818387803b15801561082757600080fd5b505af115801561083b573d6000803e3d6000fd5b50506000805460408051634f6a201160e11b81527f945f72e5d44fb0ce3b1de393d19415723b79f97ad801089d8470d1c20e15ffef60048201526005602482015290516001600160a01b039092169450639ed440229350604480820193929182900301818387803b1580156108af57600080fd5b505af11580156108c3573d6000803e3d6000fd5b50506000805460408051634f6a201160e11b81527f11cfbdf601b80a575e4366f0234cc06de0c9f401fe250dd9dccfccefeedb6fc260048201526003602482015290516001600160a01b039092169450639ed440229350604480820193929182900301818387803b15801561093757600080fd5b505af115801561094b573d6000803e3d6000fd5b50506000805460408051634f6a201160e11b81527f2f271dc1fa81985bda14a2d6d0d60b45191d2a2d97e636b192696a8796d654a760048201526005602482015290516001600160a01b039092169450639ed440229350604480820193929182900301818387803b1580156109bf57600080fd5b505af11580156109d3573d6000803e3d6000fd5b50506000805460408051634f6a201160e11b81527f275d8a46b817572476d2d55b41c7709dee307740bad676a9693805003a48d23160048201526078602482015290516001600160a01b039092169450639ed440229350604480820193929182900301818387803b158015610a4757600080fd5b505af1158015610a5b573d6000803e3d6000fd5b50506000805460408051634259bac360e01b81527f7a3ee46ca1bd3e19089870d8d6530b083a86da93aab52efccb32d5950e2709cf6004820152600560248201526001604482015290516001600160a01b039092169450634259bac39350606480820193929182900301818387803b158015610ad657600080fd5b505af1158015610aea573d6000803e3d6000fd5b50506000805460408051634f6a201160e11b81527fb027f2006a45346de89db4c5efc53f4e05e96532d27366aff00367a394d0abc4600482015260f0602482015290516001600160a01b039092169450639ed440229350604480820193929182900301818387803b158015610b5e57600080fd5b505af1158015610b72573d6000803e3d6000fd5b50506000805460408051634f6a201160e11b81527ff75b08b2b912abdbb87cc459ca0b4fdc019329386ec84ab68399b0c86fed5a956004820152603c602482015290516001600160a01b039092169450639ed440229350604480820193929182900301818387803b158015610be657600080fd5b505af1158015610bfa573d6000803e3d6000fd5b50506000805460408051634f6a201160e11b81527fb324a91be1ac0d0c4888c835aee124ca1a7caf4b73ce10aa3504e2683865d7e560048201526014602482015290516001600160a01b039092169450639ed440229350604480820193929182900301818387803b158015610c6e57600080fd5b505af1158015610c82573d6000803e3d6000fd5b50506000805460408051634f6a201160e11b81527f6c2abc911c0fa4c73b90c7143a9f4429749be45ebfe7b81e69b86e7ca440d8116004820152603c602482015290516001600160a01b039092169450639ed440229350604480820193929182900301818387803b158015610cf657600080fd5b505af1158015610d0a573d6000803e3d6000fd5b50506000805460408051634f6a201160e11b81527fa82bea7140872d1398fa0ab5075330ab0228f4c7e381b4b6502379ffc7cdcd9f6004820152610708602482015290516001600160a01b039092169450639ed440229350604480820193929182900301818387803b158015610d7f57600080fd5b505af1158015610d93573d6000803e3d6000fd5b50506000805460408051634f6a201160e11b81527f4cd7e3f12ee4a2db0a6ba16e03fbc31bba1048c149bbf4fc9f3c02021ec550b860048201526012602482015290516001600160a01b039092169450639ed440229350604480820193929182900301818387803b158015610e0757600080fd5b505af1158015610e1b573d6000803e3d6000fd5b50506000805460408051634f6a201160e11b81527f7d32d87d65898c3cbc7e72c59d223bf61c7811e99dafafd24fb08e0a38f109146004820152601e602482015290516001600160a01b039092169450639ed440229350604480820193929182900301818387803b158015610e8f57600080fd5b505af1158015610ea3573d6000803e3d6000fd5b50506000805460408051634f6a201160e11b81527feafac1a2b4d4fdcc942cbdce334a88ec83387087978d039f1320d3639a0b59df60048201526003602482015290516001600160a01b039092169450639ed440229350604480820193929182900301818387803b158015610f1757600080fd5b505af1158015610f2b573d6000803e3d6000fd5b50506000805460408051634f6a201160e11b81527fa1e0b5b458fe661fe687da135d3340a172e262c3cb31d646a4cb5cea9b6f179060048201526002602482015290516001600160a01b039092169450639ed440229350604480820193929182900301818387803b158015610f9f57600080fd5b505af1158015610fb3573d6000803e3d6000fd5b50506000805460408051634259bac360e01b81527f41a2ac05b365409628009a8091d8dda06fe52fe2f1c792e651e5df7599a7a7de600482015260056024820152600119604482015290516001600160a01b039092169450634259bac39350606480820193929182900301818387803b15801561102f57600080fd5b505af1158015611043573d6000803e3d6000fd5b50506000805460408051634f6a201160e11b81527f51a2be29a473202678b6cf57b717ba5d7ff671f01fdbdbfcad4e1882601b889660048201526024810184905290516001600160a01b039092169450639ed440229350604480820193929182900301818387803b1580156110b757600080fd5b505af11580156110cb573d6000803e3d6000fd5b50506000805460408051630b8a342160e21b81527ff646c455329c7af0436f9e95c59c90ce0e11bb4e3a1deff805807798696adf886004820152602481018290526005604482015264010203040560d91b606482015290516001600160a01b039092169450632e28d0849350608480820193929182900301818387803b15801561115457600080fd5b505af1158015611168573d6000803e3d6000fd5b50506000805460408051634f6a201160e11b81527fef9006fe6663199909dfaa4ab45e3f86d6454adb7773682f356824b6b3bc6b0e6004820152601e602482015290516001600160a01b039092169450639ed440229350604480820193929182900301818387803b1580156111dc57600080fd5b505af11580156111f0573d6000803e3d6000fd5b5050600080546001600160a01b03191690555050565b6001546001600160a01b031681565b6004546001600160a01b031681565b7f5e92c359b77ace8f4933558289f577781c0713b4ff91b2d2f76c8e523e56007081565b6000546001600160a01b031681565b7f51a2be29a473202678b6cf57b717ba5d7ff671f01fdbdbfcad4e1882601b889681565b7fa1e0b5b458fe661fe687da135d3340a172e262c3cb31d646a4cb5cea9b6f179081565b7fb027f2006a45346de89db4c5efc53f4e05e96532d27366aff00367a394d0abc481565b7f7d32d87d65898c3cbc7e72c59d223bf61c7811e99dafafd24fb08e0a38f1091481565b7f41a2ac05b365409628009a8091d8dda06fe52fe2f1c792e651e5df7599a7a7de81565b7ff75b08b2b912abdbb87cc459ca0b4fdc019329386ec84ab68399b0c86fed5a9581565b7f66b60892ff6e7f0da16db27046f5960fdfd6bce5c3c8c21d56ccca3236a6281b81565b7fa82bea7140872d1398fa0ab5075330ab0228f4c7e381b4b6502379ffc7cdcd9f81565b7f4bd5e7ff929fdd1ba62a33f76e0f40e97bb35e8bf126c0d9d91ce5c69a4bc52181565b7f11cfbdf601b80a575e4366f0234cc06de0c9f401fe250dd9dccfccefeedb6fc281565b7f3c557531fea67120f21bc7711270a96f1b8cff3dfe3dd798a8a9f09ce9b7797281565b7fde1ede48948567c43c504b761af8cd6af5363fafeceb1239b3083955d809714f81565b7f73ee596441ef88c207a7a9147d62f59186b4991555e37b7ce9c801f9539d105081565b7f0a1b21dfd7e4f3741529cf579e2731e847d81bbf13a82d0eba6910d7ac4c1c0a81565b7f945f72e5d44fb0ce3b1de393d19415723b79f97ad801089d8470d1c20e15ffef81565b7ffb2d33acd65c36f68a15f8fe41cb8c0dd1eda164ffa87c6882e685ccb1c1adfb81565b7f62f5dbf0c17b0df83487409f747ad2eeca5fd54c140ca59b32cf39d6f6eaf91681565b7fef9006fe6663199909dfaa4ab45e3f86d6454adb7773682f356824b6b3bc6b0e81565b7fe4f979504d2a7a24557a15195eb83131e7c4a66d33900454705435aa5a6ee08681565b7f99f83ee0c57b325f3deafb536d55596743ff112c6ac0d853d5f4f89b75dec04581565b7f6c2abc911c0fa4c73b90c7143a9f4429749be45ebfe7b81e69b86e7ca440d81181565b7f580be8e098dd1016787d59c2a534bf9df9ec679a29de4c8f92dc3807f7d7d54d81565b6003546001600160a01b03168156fea26469706673582212201101cc4a02fe3024a1313fcf70b9e686dadb68b84bde25a2ad704db14798a74964736f6c634300060c0033",
    "immutableReferences": {},
    "source": "// SPDX-License-Identifier: UNLICENSED\npragma solidity 0.6.12;\n\nimport {ChangeContract} from \"@moc/shared/contracts/moc-governance/Governance/ChangeContract.sol\";\nimport {IRegistry} from \"@moc/shared/contracts/IRegistry.sol\";\nimport {RegistryConstants} from \"@moc/shared/contracts/RegistryConstants.sol\";\n\n/**\n  @title MocRegistryInitChange\n  @notice This contract is a ChangeContract intended to initialize all the MOC registry values\n */\ncontract MocRegistryInitChange is ChangeContract, RegistryConstants {\n    IRegistry public registry;\n    address public delayMachine;\n    address public oracleManager;\n    address public supporters;\n    address public infoGetter;\n\n    /**\n      @notice Constructor\n    */\n    constructor(\n        IRegistry _registry,\n        address _delayMachine,\n        address _oracleManager,\n        address _supporters,\n        address _infoGetter\n    ) public {\n        registry = _registry;\n        delayMachine = _delayMachine;\n        oracleManager = _oracleManager;\n        supporters = _supporters;\n        infoGetter = _infoGetter;\n    }\n\n    /**\n      @notice Execute the changes.\n      @dev Should be called by the governor, but this contract does not check that explicitly because it is\n      not its responsability in the current architecture\n     */\n    function execute() external override {\n        require(address(registry) != address(0), \"Use once\");\n\n        registry.setAddress(MOC_DELAY_MACHINE, delayMachine);\n        registry.setAddress(ORACLE_MANAGER_ADDR, oracleManager);\n        registry.setAddress(SUPPORTERS_ADDR, supporters);\n        registry.setAddress(INFO_ADDR, infoGetter);\n\n        registry.setUint(ORACLE_PRICE_FETCH_RATE, 5);\n        registry.setUint(ORACLE_BLOCKCHAIN_INFO_INTERVAL, 3);\n        registry.setUint(ORACLE_COIN_PAIR_LOOP_TASK_INTERVAL, 5);\n        registry.setUint(ORACLE_MAIN_LOOP_TASK_INTERVAL, 120);\n        registry.setDecimal(ORACLE_PRICE_REJECT_DELTA_PCT, 5, 1);\n        registry.setUint(ORACLE_CONFIGURATION_TASK_INTERVAL, 240);\n        registry.setUint(ORACLE_GATHER_SIGNATURE_TIMEOUT, 60);\n        registry.setUint(ORACLE_MAIN_EXECUTOR_TASK_INTERVAL, 20);\n        registry.setUint(SCHEDULER_POOL_DELAY, 1 * 60);\n        registry.setUint(SCHEDULER_ROUND_DELAY, 30 * 60);\n        registry.setUint(ORACLE_PRICE_DIGITS, 18);\n        registry.setUint(ORACLE_QUEUE_LEN, 30);\n        registry.setUint(MESSAGE_VERSION, 3);\n        registry.setUint(ORACLE_STAKE_LIMIT_MULTIPLICATOR, 2);\n        registry.setDecimal(ORACLE_PRICE_DELTA_PCT, 5, -2);\n        registry.setUint(ORACLE_PRICE_PUBLISH_BLOCKS, 0);\n        registry.setBytes(ORACLE_ENTERING_FALLBACKS_AMOUNTS, hex\"020406080a\");\n        registry.setUint(ORACLE_TRIGGER_VALID_PUBLICATION_BLOCKS, 30);\n        // usable just once!!!\n        registry = IRegistry(0);\n    }\n}\n",
    "sourcePath": "/home/adji/Desktop/work/coinfabrik/moc-oraculos/contracts/change/MocRegistryInitChange.sol",
    "compiler": {
        "name": "solc",
        "version": "0.6.12+commit.27d51765.Emscripten.clang"
    },
    "schemaVersion": "3.2.4",
    "updatedAt": "2020-09-15T18:51:47.141Z",
    "devdoc": {
        "kind": "dev",
        "methods": {
            "execute()": {
                "details": "Should be called by the governor, but this contract does not check that explicitly because it is not its responsability in the current architecture"
            }
        },
        "title": "MocRegistryInitChange",
        "version": 1
    },
    "userdoc": {
        "kind": "user",
        "methods": {
            "constructor": "Constructor",
            "execute()": {
                "notice": "Execute the changes."
            }
        },
        "notice": "This contract is a ChangeContract intended to initialize all the MOC registry values",
        "version": 1
    }
}