{
    "contractName": "OracleManagerUnsubscribeChange",
    "abi": [
        {
            "inputs": [
                {
                    "internalType": "contract OracleManager",
                    "name": "_oracleManager",
                    "type": "address"
                },
                {
                    "internalType": "address",
                    "name": "_oracleOwner",
                    "type": "address"
                },
                {
                    "internalType": "bytes32",
                    "name": "_coinPair",
                    "type": "bytes32"
                }
            ],
            "stateMutability": "nonpayable",
            "type": "constructor"
        },
        {
            "inputs": [],
            "name": "coinPair",
            "outputs": [
                {
                    "internalType": "bytes32",
                    "name": "",
                    "type": "bytes32"
                }
            ],
            "stateMutability": "view",
            "type": "function"
        },
        {
            "inputs": [],
            "name": "oracleManager",
            "outputs": [
                {
                    "internalType": "contract OracleManager",
                    "name": "",
                    "type": "address"
                }
            ],
            "stateMutability": "view",
            "type": "function"
        },
        {
            "inputs": [],
            "name": "oracleOwner",
            "outputs": [
                {
                    "internalType": "address",
                    "name": "",
                    "type": "address"
                }
            ],
            "stateMutability": "view",
            "type": "function"
        },
        {
            "inputs": [],
            "name": "execute",
            "outputs": [],
            "stateMutability": "nonpayable",
            "type": "function"
        }
    ],
    "bytecode": "0x608060405234801561001057600080fd5b506040516102003803806102008339818101604052606081101561003357600080fd5b5080516020820151604090920151600080546001600160a01b039384166001600160a01b031991821617909155600180549390941692169190911790915560025561017d806100836000396000f3fe608060405234801561001057600080fd5b506004361061004c5760003560e01c806334c1e5b514610051578063565d878c1461006b578063614619541461008f578063a578be1614610099575b600080fd5b6100596100a1565b60408051918252519081900360200190f35b6100736100a7565b604080516001600160a01b039092168252519081900360200190f35b6100976100b6565b005b610073610138565b60025481565b6000546001600160a01b031681565b60008054600154600254604080516365acf77d60e01b81526001600160a01b03938416600482015260248101929092525191909216926365acf77d926044808201939182900301818387803b15801561010e57600080fd5b505af1158015610122573d6000803e3d6000fd5b5050600080546001600160a01b03191690555050565b6001546001600160a01b03168156fea2646970667358221220c10eb109b627b374ae3d52e60e36669d76f60c4bd5ff2146938e61b5ac8c8a7164736f6c634300060c0033",
    "immutableReferences": {},
    "source": "// SPDX-License-Identifier: UNLICENSED\npragma solidity 0.6.12;\n\nimport {ChangeContract} from \"@moc/shared/contracts/moc-governance/Governance/ChangeContract.sol\";\nimport {OracleManager} from \"../OracleManager.sol\";\n\n/**\n  @title UpgraderTemplate\n  @notice This contract is a ChangeContract intended to be used when\n  upgrading any contract upgradeable through the zos-lib upgradeability\n  system. This doesn't initialize the upgraded contract, that should be done extending\n  this one or taking it as a guide\n */\ncontract OracleManagerUnsubscribeChange is ChangeContract {\n    OracleManager public oracleManager;\n    address public oracleOwner;\n    bytes32 public coinPair;\n\n    /**\n      @notice Constructor\n      @param _oracleManager Address of oracle manager used to register the coin pair\n      @param _oracleOwner The owner of the Oracle\n      @param _coinPair The coinpair to register\n    */\n    constructor(\n        OracleManager _oracleManager,\n        address _oracleOwner,\n        bytes32 _coinPair\n    ) public {\n        oracleManager = _oracleManager;\n        oracleOwner = _oracleOwner;\n        coinPair = _coinPair;\n    }\n\n    /**\n      @notice Execute the changes.\n      */\n    function execute() external override {\n        oracleManager.unsubscribeFromCoinPair(oracleOwner, coinPair);\n        oracleManager = OracleManager(0);\n    }\n}\n",
    "sourcePath": "/home/adji/Desktop/work/coinfabrik/moc-oraculos/contracts/change/OracleManagerUnsubscribeChange.sol",
    "compiler": {
        "name": "solc",
        "version": "0.6.12+commit.27d51765.Emscripten.clang"
    },
    "schemaVersion": "3.2.4",
    "updatedAt": "2020-09-14T20:07:21.969Z",
    "devdoc": {
        "kind": "dev",
        "methods": {
            "constructor": {
                "params": {
                    "_coinPair": "The coinpair to register",
                    "_oracleManager": "Address of oracle manager used to register the coin pair",
                    "_oracleOwner": "The owner of the Oracle"
                }
            }
        },
        "title": "UpgraderTemplate",
        "version": 1
    },
    "userdoc": {
        "kind": "user",
        "methods": {
            "constructor": "Constructor",
            "execute()": {
                "notice": "Execute the changes."
            }
        },
        "notice": "This contract is a ChangeContract intended to be used when upgrading any contract upgradeable through the zos-lib upgradeability system. This doesn't initialize the upgraded contract, that should be done extending this one or taking it as a guide",
        "version": 1
    }
}