{
    "contractName": "OracleManager",
    "abi": [
        {
            "anonymous": false,
            "inputs": [
                {
                    "indexed": false,
                    "internalType": "address",
                    "name": "caller",
                    "type": "address"
                },
                {
                    "indexed": false,
                    "internalType": "address",
                    "name": "addr",
                    "type": "address"
                },
                {
                    "indexed": false,
                    "internalType": "string",
                    "name": "internetName",
                    "type": "string"
                }
            ],
            "name": "OracleRegistered",
            "type": "event"
        },
        {
            "anonymous": false,
            "inputs": [
                {
                    "indexed": false,
                    "internalType": "address",
                    "name": "caller",
                    "type": "address"
                }
            ],
            "name": "OracleRemoved",
            "type": "event"
        },
        {
            "anonymous": false,
            "inputs": [
                {
                    "indexed": false,
                    "internalType": "address",
                    "name": "caller",
                    "type": "address"
                },
                {
                    "indexed": false,
                    "internalType": "address",
                    "name": "addr",
                    "type": "address"
                },
                {
                    "indexed": false,
                    "internalType": "uint256",
                    "name": "stake",
                    "type": "uint256"
                }
            ],
            "name": "OracleStakeAdded",
            "type": "event"
        },
        {
            "anonymous": false,
            "inputs": [
                {
                    "indexed": false,
                    "internalType": "address",
                    "name": "caller",
                    "type": "address"
                },
                {
                    "indexed": false,
                    "internalType": "bytes32",
                    "name": "coinpair",
                    "type": "bytes32"
                }
            ],
            "name": "OracleSubscribed",
            "type": "event"
        },
        {
            "anonymous": false,
            "inputs": [
                {
                    "indexed": false,
                    "internalType": "address",
                    "name": "caller",
                    "type": "address"
                },
                {
                    "indexed": false,
                    "internalType": "bytes32",
                    "name": "coinpair",
                    "type": "bytes32"
                }
            ],
            "name": "OracleUnsubscribed",
            "type": "event"
        },
        {
            "inputs": [
                {
                    "internalType": "contract IGovernor",
                    "name": "newIGovernor",
                    "type": "address"
                }
            ],
            "name": "changeIGovernor",
            "outputs": [],
            "stateMutability": "nonpayable",
            "type": "function"
        },
        {
            "inputs": [
                {
                    "internalType": "bytes",
                    "name": "data",
                    "type": "bytes"
                }
            ],
            "name": "delegateCallToChanger",
            "outputs": [],
            "stateMutability": "nonpayable",
            "type": "function"
        },
        {
            "inputs": [],
            "name": "governor",
            "outputs": [
                {
                    "internalType": "contract IGovernor",
                    "name": "",
                    "type": "address"
                }
            ],
            "stateMutability": "view",
            "type": "function",
            "constant": true
        },
        {
            "inputs": [],
            "name": "minCPSubscriptionStake",
            "outputs": [
                {
                    "internalType": "uint256",
                    "name": "",
                    "type": "uint256"
                }
            ],
            "stateMutability": "view",
            "type": "function",
            "constant": true
        },
        {
            "inputs": [],
            "name": "stakingContract",
            "outputs": [
                {
                    "internalType": "contract Staking",
                    "name": "",
                    "type": "address"
                }
            ],
            "stateMutability": "view",
            "type": "function",
            "constant": true
        },
        {
            "inputs": [
                {
                    "internalType": "contract IGovernor",
                    "name": "_governor",
                    "type": "address"
                },
                {
                    "internalType": "uint256",
                    "name": "_minCPSubscriptionStake",
                    "type": "uint256"
                },
                {
                    "internalType": "contract Staking",
                    "name": "_stakingContract",
                    "type": "address"
                },
                {
                    "internalType": "address[]",
                    "name": "_wlist",
                    "type": "address[]"
                }
            ],
            "name": "initialize",
            "outputs": [],
            "stateMutability": "nonpayable",
            "type": "function"
        },
        {
            "inputs": [
                {
                    "internalType": "bytes32",
                    "name": "coinPair",
                    "type": "bytes32"
                },
                {
                    "internalType": "address",
                    "name": "addr",
                    "type": "address"
                }
            ],
            "name": "registerCoinPair",
            "outputs": [],
            "stateMutability": "nonpayable",
            "type": "function"
        },
        {
            "inputs": [
                {
                    "internalType": "address",
                    "name": "_whitelisted",
                    "type": "address"
                }
            ],
            "name": "addToWhitelist",
            "outputs": [],
            "stateMutability": "nonpayable",
            "type": "function"
        },
        {
            "inputs": [
                {
                    "internalType": "address",
                    "name": "_whitelisted",
                    "type": "address"
                }
            ],
            "name": "removeFromWhitelist",
            "outputs": [],
            "stateMutability": "nonpayable",
            "type": "function"
        },
        {
            "inputs": [
                {
                    "internalType": "address",
                    "name": "ownerAddr",
                    "type": "address"
                },
                {
                    "internalType": "address",
                    "name": "oracleAddr",
                    "type": "address"
                },
                {
                    "internalType": "string",
                    "name": "internetName",
                    "type": "string"
                }
            ],
            "name": "registerOracle",
            "outputs": [],
            "stateMutability": "nonpayable",
            "type": "function"
        },
        {
            "inputs": [
                {
                    "internalType": "address",
                    "name": "oracleOwnerAddr",
                    "type": "address"
                }
            ],
            "name": "onWithdraw",
            "outputs": [
                {
                    "internalType": "uint256",
                    "name": "",
                    "type": "uint256"
                }
            ],
            "stateMutability": "nonpayable",
            "type": "function"
        },
        {
            "inputs": [
                {
                    "internalType": "address",
                    "name": "oracleOwnerAddr",
                    "type": "address"
                }
            ],
            "name": "getOracleAddress",
            "outputs": [
                {
                    "internalType": "address",
                    "name": "oracleAddr",
                    "type": "address"
                }
            ],
            "stateMutability": "view",
            "type": "function",
            "constant": true
        },
        {
            "inputs": [
                {
                    "internalType": "address",
                    "name": "ownerAddr",
                    "type": "address"
                },
                {
                    "internalType": "bytes32",
                    "name": "coinPair",
                    "type": "bytes32"
                }
            ],
            "name": "subscribeToCoinPair",
            "outputs": [],
            "stateMutability": "nonpayable",
            "type": "function"
        },
        {
            "inputs": [
                {
                    "internalType": "address",
                    "name": "ownerAddr",
                    "type": "address"
                },
                {
                    "internalType": "bytes32",
                    "name": "coinPair",
                    "type": "bytes32"
                }
            ],
            "name": "unSubscribeFromCoinPair",
            "outputs": [],
            "stateMutability": "nonpayable",
            "type": "function"
        },
        {
            "inputs": [
                {
                    "internalType": "address",
                    "name": "ownerAddr",
                    "type": "address"
                },
                {
                    "internalType": "bytes32",
                    "name": "coinPair",
                    "type": "bytes32"
                }
            ],
            "name": "isSubscribed",
            "outputs": [
                {
                    "internalType": "bool",
                    "name": "",
                    "type": "bool"
                }
            ],
            "stateMutability": "view",
            "type": "function",
            "constant": true
        },
        {
            "inputs": [
                {
                    "internalType": "address",
                    "name": "ownerAddr",
                    "type": "address"
                },
                {
                    "internalType": "string",
                    "name": "name",
                    "type": "string"
                }
            ],
            "name": "setOracleName",
            "outputs": [],
            "stateMutability": "nonpayable",
            "type": "function"
        },
        {
            "inputs": [
                {
                    "internalType": "address",
                    "name": "ownerAddr",
                    "type": "address"
                },
                {
                    "internalType": "address",
                    "name": "oracleAddr",
                    "type": "address"
                }
            ],
            "name": "setOracleAddress",
            "outputs": [],
            "stateMutability": "nonpayable",
            "type": "function"
        },
        {
            "inputs": [
                {
                    "internalType": "address",
                    "name": "ownerAddr",
                    "type": "address"
                }
            ],
            "name": "isOracleRegistered",
            "outputs": [
                {
                    "internalType": "bool",
                    "name": "",
                    "type": "bool"
                }
            ],
            "stateMutability": "view",
            "type": "function",
            "constant": true
        },
        {
            "inputs": [
                {
                    "internalType": "address",
                    "name": "ownerAddr",
                    "type": "address"
                },
                {
                    "internalType": "bytes32",
                    "name": "coinpair",
                    "type": "bytes32"
                }
            ],
            "name": "getOracleRoundInfo",
            "outputs": [
                {
                    "internalType": "uint256",
                    "name": "points",
                    "type": "uint256"
                },
                {
                    "internalType": "bool",
                    "name": "selectedInCurrentRound",
                    "type": "bool"
                }
            ],
            "stateMutability": "view",
            "type": "function",
            "constant": true
        },
        {
            "inputs": [
                {
                    "internalType": "address",
                    "name": "ownerAddr",
                    "type": "address"
                }
            ],
            "name": "removeOracle",
            "outputs": [],
            "stateMutability": "nonpayable",
            "type": "function"
        },
        {
            "inputs": [
                {
                    "internalType": "address",
                    "name": "ownerAddr",
                    "type": "address"
                }
            ],
            "name": "canRemoveOracle",
            "outputs": [
                {
                    "internalType": "bool",
                    "name": "",
                    "type": "bool"
                }
            ],
            "stateMutability": "view",
            "type": "function",
            "constant": true
        },
        {
            "inputs": [
                {
                    "internalType": "address",
                    "name": "ownerAddr",
                    "type": "address"
                }
            ],
            "name": "getStake",
            "outputs": [
                {
                    "internalType": "uint256",
                    "name": "balance",
                    "type": "uint256"
                }
            ],
            "stateMutability": "view",
            "type": "function",
            "constant": true
        },
        {
            "inputs": [
                {
                    "internalType": "address",
                    "name": "ownerAddr",
                    "type": "address"
                }
            ],
            "name": "getOracleRegistrationInfo",
            "outputs": [
                {
                    "internalType": "string",
                    "name": "internetName",
                    "type": "string"
                },
                {
                    "internalType": "uint256",
                    "name": "stake",
                    "type": "uint256"
                },
                {
                    "internalType": "address",
                    "name": "oracleAddr",
                    "type": "address"
                }
            ],
            "stateMutability": "view",
            "type": "function",
            "constant": true
        },
        {
            "inputs": [
                {
                    "internalType": "address",
                    "name": "ownerAddr",
                    "type": "address"
                }
            ],
            "name": "isRegistered",
            "outputs": [
                {
                    "internalType": "bool",
                    "name": "",
                    "type": "bool"
                }
            ],
            "stateMutability": "view",
            "type": "function",
            "constant": true
        },
        {
            "inputs": [
                {
                    "internalType": "address",
                    "name": "oracleAddr",
                    "type": "address"
                }
            ],
            "name": "getOracleOwner",
            "outputs": [
                {
                    "internalType": "address",
                    "name": "",
                    "type": "address"
                }
            ],
            "stateMutability": "view",
            "type": "function",
            "constant": true
        },
        {
            "inputs": [],
            "name": "getRegisteredOraclesLen",
            "outputs": [
                {
                    "internalType": "uint256",
                    "name": "",
                    "type": "uint256"
                }
            ],
            "stateMutability": "view",
            "type": "function",
            "constant": true
        },
        {
            "inputs": [
                {
                    "internalType": "uint256",
                    "name": "idx",
                    "type": "uint256"
                }
            ],
            "name": "getRegisteredOracleAtIndex",
            "outputs": [
                {
                    "internalType": "address",
                    "name": "ownerAddr",
                    "type": "address"
                },
                {
                    "internalType": "address",
                    "name": "oracleAddr",
                    "type": "address"
                },
                {
                    "internalType": "string",
                    "name": "url",
                    "type": "string"
                }
            ],
            "stateMutability": "view",
            "type": "function",
            "constant": true
        },
        {
            "inputs": [],
            "name": "getCoinPairCount",
            "outputs": [
                {
                    "internalType": "uint256",
                    "name": "",
                    "type": "uint256"
                }
            ],
            "stateMutability": "view",
            "type": "function",
            "constant": true
        },
        {
            "inputs": [
                {
                    "internalType": "uint256",
                    "name": "i",
                    "type": "uint256"
                }
            ],
            "name": "getCoinPairAtIndex",
            "outputs": [
                {
                    "internalType": "bytes32",
                    "name": "",
                    "type": "bytes32"
                }
            ],
            "stateMutability": "view",
            "type": "function",
            "constant": true
        },
        {
            "inputs": [
                {
                    "internalType": "bytes32",
                    "name": "coinpair",
                    "type": "bytes32"
                }
            ],
            "name": "getContractAddress",
            "outputs": [
                {
                    "internalType": "address",
                    "name": "",
                    "type": "address"
                }
            ],
            "stateMutability": "view",
            "type": "function",
            "constant": true
        },
        {
            "inputs": [
                {
                    "internalType": "address[]",
                    "name": "addresses",
                    "type": "address[]"
                }
            ],
            "name": "getMaxStake",
            "outputs": [
                {
                    "internalType": "address",
                    "name": "",
                    "type": "address"
                },
                {
                    "internalType": "uint256",
                    "name": "",
                    "type": "uint256"
                }
            ],
            "stateMutability": "view",
            "type": "function",
            "constant": true
        },
        {
            "inputs": [
                {
                    "internalType": "bytes32",
                    "name": "coinPair",
                    "type": "bytes32"
                },
                {
                    "internalType": "uint256",
                    "name": "hint",
                    "type": "uint256"
                }
            ],
            "name": "getCoinPairIndex",
            "outputs": [
                {
                    "internalType": "uint256",
                    "name": "",
                    "type": "uint256"
                }
            ],
            "stateMutability": "view",
            "type": "function",
            "constant": true
        }
    ],
    "bytecode": "0x608060405234801561001057600080fd5b50613433806100206000396000f3fe608060405234801561001057600080fd5b50600436106101f05760003560e01c806398eaf7881161010f578063dc8990e1116100a2578063ee99205c11610071578063ee99205c1461084b578063eff3609814610853578063fac3c1f414610876578063fdc85fc4146108f4576101f0565b8063dc8990e11461076e578063de0b4e00146107dc578063df1810f914610808578063e43252d714610825576101f0565b8063b9b55c9a116100de578063b9b55c9a146106dd578063c3c5a547146106dd578063c6cd9cd614610703578063cdb8bedd14610729576101f0565b806398eaf788146105975780639fe49ea91461061e578063aa265d02146106af578063b6e08330146106b7576101f0565b8063468027d41161018757806380eea1ee1161015657806380eea1ee146104a25780638ab1d681146104ce5780638e04191e146104f4578063949394fe14610520576101f0565b8063468027d4146103c1578063544821731461044e57806363adb1a2146104745780637a7664601461047c576101f0565b80633a82b50d116101c35780633a82b50d1461027e5780633aacdc99146102a45780633ac7c784146102de57806346093b0e14610393576101f0565b80630c340a24146101f55780630d2020dd146102195780632be46cdf146102365780633186b45a14610264575b600080fd5b6101fd61091a565b604080516001600160a01b039092168252519081900360200190f35b6101fd6004803603602081101561022f57600080fd5b5035610929565b6102626004803603604081101561024c57600080fd5b506001600160a01b03813516906020013561093e565b005b61026c610b15565b60408051918252519081900360200190f35b61026c6004803603602081101561029457600080fd5b50356001600160a01b0316610b1b565b6102ca600480360360208110156102ba57600080fd5b50356001600160a01b0316610cb5565b604080519115158252519081900360200190f35b6102fb600480360360208110156102f457600080fd5b5035610cd0565b60405180846001600160a01b03168152602001836001600160a01b0316815260200180602001828103825283818151815260200191508051906020019080838360005b8381101561035657818101518382015260200161033e565b50505050905090810190601f1680156103835780820380516001836020036101000a031916815260200191505b5094505050505060405180910390f35b610262600480360360408110156103a957600080fd5b506001600160a01b0381358116916020013516610ced565b610262600480360360808110156103d757600080fd5b6001600160a01b038235811692602081013592604082013590921691810190608081016060820135600160201b81111561041057600080fd5b82018360208201111561042257600080fd5b803590602001918460208302840111600160201b8311171561044357600080fd5b509092509050610e17565b6101fd6004803603602081101561046457600080fd5b50356001600160a01b0316610fae565b61026c610fbb565b61026c6004803603602081101561049257600080fd5b50356001600160a01b0316610fcc565b6102ca600480360360408110156104b857600080fd5b506001600160a01b03813516906020013561104f565b610262600480360360208110156104e457600080fd5b50356001600160a01b031661113b565b6102626004803603604081101561050a57600080fd5b50803590602001356001600160a01b0316611277565b6105466004803603602081101561053657600080fd5b50356001600160a01b0316611374565b6040518080602001848152602001836001600160a01b03168152602001828103825285818151815260200191508051906020019080838360008381101561035657818101518382015260200161033e565b610262600480360360608110156105ad57600080fd5b6001600160a01b038235811692602081013590911691810190606081016040820135600160201b8111156105e057600080fd5b8201836020820111156105f257600080fd5b803590602001918460018302840111600160201b8311171561061357600080fd5b50909250905061139a565b61068c6004803603602081101561063457600080fd5b810190602081018135600160201b81111561064e57600080fd5b82018360208201111561066057600080fd5b803590602001918460208302840111600160201b8311171561068157600080fd5b5090925090506114b5565b604080516001600160a01b03909316835260208301919091528051918290030190f35b61026c611571565b610262600480360360208110156106cd57600080fd5b50356001600160a01b031661157d565b6102ca600480360360208110156106f357600080fd5b50356001600160a01b0316611690565b6101fd6004803603602081101561071957600080fd5b50356001600160a01b031661169b565b6107556004803603604081101561073f57600080fd5b506001600160a01b0381351690602001356116a8565b6040805192835290151560208301528051918290030190f35b6102626004803603602081101561078457600080fd5b810190602081018135600160201b81111561079e57600080fd5b8201836020820111156107b057600080fd5b803590602001918460018302840111600160201b831117156107d157600080fd5b509092509050611743565b610262600480360360408110156107f257600080fd5b506001600160a01b038135169060200135611988565b61026c6004803603602081101561081e57600080fd5b5035611b5f565b6102626004803603602081101561083b57600080fd5b50356001600160a01b0316611b6c565b6101fd611c68565b61026c6004803603604081101561086957600080fd5b5080359060200135611c77565b6102626004803603604081101561088c57600080fd5b6001600160a01b038235169190810190604081016020820135600160201b8111156108b657600080fd5b8201836020820111156108c857600080fd5b803590602001918460018302840111600160201b831117156108e957600080fd5b509092509050611c8c565b6102626004803603602081101561090a57600080fd5b50356001600160a01b0316611df0565b6033546001600160a01b031681565b6000610936606883611f5d565b90505b919050565b610949606633611f79565b806109c757506033546040805163d994d6d560e01b815233600482015290516001600160a01b039092169163d994d6d591602480820192602092909190829003018186803b15801561099a57600080fd5b505afa1580156109ae573d6000803e3d6000fd5b505050506040513d60208110156109c457600080fd5b50515b610a06576040805162461bcd60e51b815260206004820152601a60248201526000805160206133b0833981519152604482015290519081900360640190fd5b610a0f82611fda565b610a58576040805162461bcd60e51b815260206004820152601560248201527413dc9858db19481b9bdd081c9959da5cdd195c9959605a1b604482015290519081900360640190fd5b6000610a6382610929565b9050806001600160a01b03166341a7726a846040518263ffffffff1660e01b815260040180826001600160a01b03168152602001915050600060405180830381600087803b158015610ab457600080fd5b505af1158015610ac8573d6000803e3d6000fd5b5050604080516001600160a01b03871681526020810186905281517fbae3f5a20a1809a3e2cd9145715cd95d54eb011ff2e1265ebc6abb2d91b7b9e69450908190039091019150a1505050565b606e5481565b60006066610b298133611f79565b610b68576040805162461bcd60e51b815260206004820152601a60248201526000805160206133b0833981519152604482015290519081900360640190fd5b6000610b746068611fe7565b905060008060005b83811015610cab576000610b99610b94606884611fee565b610929565b9050806001600160a01b031663b92ae87c896040518263ffffffff1660e01b815260040180826001600160a01b0316815260200191505060206040518083038186803b158015610be857600080fd5b505afa158015610bfc573d6000803e3d6000fd5b505050506040513d6020811015610c1257600080fd5b505115610ca257806001600160a01b0316633a82b50d896040518263ffffffff1660e01b815260040180826001600160a01b03168152602001915050602060405180830381600087803b158015610c6857600080fd5b505af1158015610c7c573d6000803e3d6000fd5b505050506040513d6020811015610c9257600080fd5b5051935082841115610ca2578392505b50600101610b7c565b5095945050505050565b6000610cc082611fda565b801561093657506109368261205b565b6000806060610ce0606a85612124565b9250925092509193909250565b610cf8606633611f79565b80610d7657506033546040805163d994d6d560e01b815233600482015290516001600160a01b039092169163d994d6d591602480820192602092909190829003018186803b158015610d4957600080fd5b505afa158015610d5d573d6000803e3d6000fd5b505050506040513d6020811015610d7357600080fd5b50515b610db5576040805162461bcd60e51b815260206004820152601a60248201526000805160206133b0833981519152604482015290519081900360640190fd5b610dbe82611fda565b610e07576040805162461bcd60e51b815260206004820152601560248201527413dc9858db19481b9bdd081c9959da5cdd195c9959605a1b604482015290519081900360640190fd5b610e13606a838361227f565b5050565b600054610100900460ff1680610e305750610e30612452565b80610e3e575060005460ff16155b610e795760405162461bcd60e51b815260040180806020018281038252602e8152602001806133d0602e913960400191505060405180910390fd5b600054610100900460ff16158015610ea4576000805460ff1961ff0019909116610100171660011790555b6001600160a01b038416610ee95760405162461bcd60e51b815260040180806020018281038252602581526020018061334d6025913960400191505060405180910390fd5b60008511610f285760405162461bcd60e51b815260040180806020018281038252603e815260200180613372603e913960400191505060405180910390fd5b610f3186612458565b606d80546001600160a01b0319166001600160a01b038616179055606e85905560005b82811015610f9357610f8b848483818110610f6b57fe5b905060200201356001600160a01b0316606661247a90919063ffffffff16565b600101610f54565b508015610fa6576000805461ff00191690555b505050505050565b6000610936606a8361252f565b6000610fc76068611fe7565b905090565b606d546040805163f8b2cb4f60e01b81526001600160a01b0384811660048301529151600093929092169163f8b2cb4f91602480820192602092909190829003018186803b15801561101d57600080fd5b505afa158015611031573d6000803e3d6000fd5b505050506040513d602081101561104757600080fd5b505192915050565b600061105a83611fda565b6110ab576040805162461bcd60e51b815260206004820152601960248201527f4f7261636c65206973206e6f7420726567697374657265642e00000000000000604482015290519081900360640190fd5b60006110b683610929565b9050806001600160a01b031663b92ae87c856040518263ffffffff1660e01b815260040180826001600160a01b0316815260200191505060206040518083038186803b15801561110557600080fd5b505afa158015611119573d6000803e3d6000fd5b505050506040513d602081101561112f57600080fd5b50519150505b92915050565b6033546040805163d994d6d560e01b815233600482015290516001600160a01b039092169163d994d6d591602480820192602092909190829003018186803b15801561118657600080fd5b505afa15801561119a573d6000803e3d6000fd5b505050506040513d60208110156111b057600080fd5b50516040805180820190915260168152753737ba2fb0baba3437b934bd32b22fb1b430b733b2b960511b6020820152906112685760405162461bcd60e51b81526004018080602001828103825283818151815260200191508051906020019080838360005b8381101561122d578181015183820152602001611215565b50505050905090810190601f16801561125a5780820380516001836020036101000a031916815260200191505b509250505060405180910390fd5b506112746066826125a3565b50565b6033546040805163d994d6d560e01b815233600482015290516001600160a01b039092169163d994d6d591602480820192602092909190829003018186803b1580156112c257600080fd5b505afa1580156112d6573d6000803e3d6000fd5b505050506040513d60208110156112ec57600080fd5b50516040805180820190915260168152753737ba2fb0baba3437b934bd32b22fb1b430b733b2b960511b6020820152906113675760405162461bcd60e51b815260206004820181815283516024840152835190928392604490910191908501908083836000831561122d578181015183820152602001611215565b50610e136068838361264a565b6060600080611384606a8561274a565b9350905061139184610fcc565b91509193909250565b60666113a68133611f79565b6113e5576040805162461bcd60e51b815260206004820152601a60248201526000805160206133b0833981519152604482015290519081900360640190fd5b61142c858585858080601f016020809104026020016040519081016040528093929190818152602001838380828437600092019190915250606a95949392505061288c9050565b7fb7bb8775a84959c3e709bbe27458867ef3a8a1b07968104f82f0b065b20a51b48585858560405180856001600160a01b03168152602001846001600160a01b03168152602001806020018281038252848482818152602001925080828437600083820152604051601f909101601f191690920182900397509095505050505050a15050505050565b606d546040516352e7d5cd60e11b81526020600482018181526024830185905260009384936001600160a01b039091169263a5cfab9a9288928892829160440190859085028082843760008382015260408051601f909201601f1916909301965091945090925050508083038186803b15801561153157600080fd5b505afa158015611545573d6000803e3d6000fd5b505050506040513d604081101561155b57600080fd5b50805160209091015190925090505b9250929050565b6000610fc7606a612a9f565b6033546040805163d994d6d560e01b815233600482015290516001600160a01b039092169163d994d6d591602480820192602092909190829003018186803b1580156115c857600080fd5b505afa1580156115dc573d6000803e3d6000fd5b505050506040513d60208110156115f257600080fd5b50516040805180820190915260168152753737ba2fb0baba3437b934bd32b22fb1b430b733b2b960511b60208201529061166d5760405162461bcd60e51b815260206004820181815283516024840152835190928392604490910191908501908083836000831561122d578181015183820152602001611215565b50603380546001600160a01b0319166001600160a01b0392909216919091179055565b600061093682611fda565b6000610936606a83612aa3565b60008060006116b684610929565b9050806001600160a01b0316638458c1dd866040518263ffffffff1660e01b815260040180826001600160a01b03168152602001915050604080518083038186803b15801561170457600080fd5b505afa158015611718573d6000803e3d6000fd5b505050506040513d604081101561172e57600080fd5b50805160209091015190969095509350505050565b6033546040805163d994d6d560e01b815233600482015290516001600160a01b039092169163d994d6d591602480820192602092909190829003018186803b15801561178e57600080fd5b505afa1580156117a2573d6000803e3d6000fd5b505050506040513d60208110156117b857600080fd5b50516040805180820190915260168152753737ba2fb0baba3437b934bd32b22fb1b430b733b2b960511b6020820152906118335760405162461bcd60e51b815260206004820181815283516024840152835190928392604490910191908501908083836000831561122d578181015183820152602001611215565b50604051602060248201908152604482018390523391600091839186918691819060640184848082843760008382015260408051601f909201601f1990811690940182810390940182529283526020810180516001600160e01b03166350b113e560e11b17815292518151919750955085945091925081905083835b602083106118ce5780518252601f1990920191602091820191016118af565b6001836020036101000a038019825116818451168082178552505050505050905001915050600060405180830381855af49150503d806000811461192e576040519150601f19603f3d011682016040523d82523d6000602084013e611933565b606091505b5050905080611982576040805162461bcd60e51b8152602060048201526016602482015275115c9c9bdc881a5b8819195b1959d85d194818d85b1b60521b604482015290519081900360640190fd5b50505050565b611993606633611f79565b80611a1157506033546040805163d994d6d560e01b815233600482015290516001600160a01b039092169163d994d6d591602480820192602092909190829003018186803b1580156119e457600080fd5b505afa1580156119f8573d6000803e3d6000fd5b505050506040513d6020811015611a0e57600080fd5b50515b611a50576040805162461bcd60e51b815260206004820152601a60248201526000805160206133b0833981519152604482015290519081900360640190fd5b611a5982611fda565b611aa2576040805162461bcd60e51b815260206004820152601560248201527413dc9858db19481b9bdd081c9959da5cdd195c9959605a1b604482015290519081900360640190fd5b6000611aad82610929565b9050806001600160a01b0316637262561c846040518263ffffffff1660e01b815260040180826001600160a01b03168152602001915050600060405180830381600087803b158015611afe57600080fd5b505af1158015611b12573d6000803e3d6000fd5b5050604080516001600160a01b03871681526020810186905281517f6e2cdc979f909ee89fbe76dab69fa25a3a2304d51c6b8289c3cbd37932a5430f9450908190039091019150a1505050565b6000610936606883611fee565b6033546040805163d994d6d560e01b815233600482015290516001600160a01b039092169163d994d6d591602480820192602092909190829003018186803b158015611bb757600080fd5b505afa158015611bcb573d6000803e3d6000fd5b505050506040513d6020811015611be157600080fd5b50516040805180820190915260168152753737ba2fb0baba3437b934bd32b22fb1b430b733b2b960511b602082015290611c5c5760405162461bcd60e51b815260206004820181815283516024840152835190928392604490910191908501908083836000831561122d578181015183820152602001611215565b5061127460668261247a565b606d546001600160a01b031681565b6000611c8560688484612ac6565b9392505050565b611c97606633611f79565b80611d1557506033546040805163d994d6d560e01b815233600482015290516001600160a01b039092169163d994d6d591602480820192602092909190829003018186803b158015611ce857600080fd5b505afa158015611cfc573d6000803e3d6000fd5b505050506040513d6020811015611d1257600080fd5b50515b611d54576040805162461bcd60e51b815260206004820152601a60248201526000805160206133b0833981519152604482015290519081900360640190fd5b611d5d83611fda565b611da6576040805162461bcd60e51b815260206004820152601560248201527413dc9858db19481b9bdd081c9959da5cdd195c9959605a1b604482015290519081900360640190fd5b611deb8383838080601f016020809104026020016040519081016040528093929190818152602001838380828437600092019190915250606a9493925050612b5a9050565b505050565b611dfb606633611f79565b80611e7957506033546040805163d994d6d560e01b815233600482015290516001600160a01b039092169163d994d6d591602480820192602092909190829003018186803b158015611e4c57600080fd5b505afa158015611e60573d6000803e3d6000fd5b505050506040513d6020811015611e7657600080fd5b50515b611eb8576040805162461bcd60e51b815260206004820152601a60248201526000805160206133b0833981519152604482015290519081900360640190fd5b611ec181611fda565b611f0a576040805162461bcd60e51b815260206004820152601560248201527413dc9858db19481b9bdd081c9959da5cdd195c9959605a1b604482015290519081900360640190fd5b611f1381612c57565b611f1e606a82612d71565b604080516001600160a01b038316815290517f9c8e7d83025bef8a04c664b2f753f64b8814bdb7e27291d7e50935f18cc3c7129181900360200190a150565b600090815260209190915260409020546001600160a01b031690565b60006001600160a01b038216611fd0576040805162461bcd60e51b815260206004820152601760248201527604163636f756e74206d757374206e6f742062652030783604c1b604482015290519081900360640190fd5b611c8583836130b1565b6000610936606a836130b1565b6001015490565b60018201546000908210612039576040805162461bcd60e51b815260206004820152600d60248201526c092d8d8cacec2d840d2dcc8caf609b1b604482015290519081900360640190fd5b82600101828154811061204857fe5b9060005260206000200154905092915050565b6000806120686068611fe7565b905060005b8181101561211a576000612085610b94606884611fee565b9050806001600160a01b031663b92ae87c866040518263ffffffff1660e01b815260040180826001600160a01b0316815260200191505060206040518083038186803b1580156120d457600080fd5b505afa1580156120e8573d6000803e3d6000fd5b505050506040513d60208110156120fe57600080fd5b5051156121115760009350505050610939565b5060010161206d565b5060019392505050565b815460009081906060908410612171576040805162461bcd60e51b815260206004820152600d60248201526c092d8d8cacec2d840d2dcc8caf609b1b604482015290519081900360640190fd5b612179613261565b85600001858154811061218857fe5b6000918252602091829020604080518082018252600293840290920180546001600160a01b031683526001808201805484516101009382161593909302600019011695909504601f8101879004870282018701909352828152929490938582019392909183018282801561223d5780601f106122125761010080835404028352916020019161223d565b820191906000526020600020905b81548152906001019060200180831161222057829003601f168201915b50505091909252505081516001600160a01b03908116600090815260029990990160209081526040909920548351999093015192169891965090945050505050565b61228983836130b1565b6122da576040805162461bcd60e51b815260206004820152601e60248201527f4f7261636c65206f776e6572206973206e6f7420726567697374657265640000604482015290519081900360640190fd5b6122e483826130d2565b15612332576040805162461bcd60e51b815260206004820152601960248201527813dc9858db1948185b1c9958591e481c9959da5cdd195c9959603a1b604482015290519081900360640190fd5b6001600160a01b03821661238d576040805162461bcd60e51b815260206004820152601b60248201527f4f776e657220616464726573732063616e6e6f74206265203078300000000000604482015290519081900360640190fd5b6001600160a01b0382166000908152600184016020526040902054806123f1576040805162461bcd60e51b815260206004820152601460248201527313dddb995c881b9bdd081c9959da5cdd195c995960621b604482015290519081900360640190fd5b8184600001600183038154811061240457fe5b6000918252602080832060029283020180546001600160a01b03199081166001600160a01b039687161790915595841683529601909552604090942080549092169290931691909117905550565b303b1590565b603380546001600160a01b0319166001600160a01b0392909216919091179055565b6001600160a01b0381166124cf576040805162461bcd60e51b815260206004820152601760248201527604163636f756e74206d757374206e6f742062652030783604c1b604482015290519081900360640190fd5b60006124db83836130f7565b905080611deb576040805162461bcd60e51b815260206004820152601b60248201527f4163636f756e7420616c72656164792077686974656c69737465640000000000604482015290519081900360640190fd5b6001600160a01b038116600090815260018301602052604081205461255657506000611135565b6001600160a01b0382166000908152600184016020526040902054835484916000190190811061258257fe5b60009182526020909120600290910201546001600160a01b03169392505050565b6001600160a01b0381166125f8576040805162461bcd60e51b815260206004820152601760248201527604163636f756e74206d757374206e6f742062652030783604c1b604482015290519081900360640190fd5b6000612604838361315a565b905080611deb576040805162461bcd60e51b815260206004820152600f60248201526e135a5cdcda5b99c81858d8dbdd5b9d608a1b604482015290519081900360640190fd5b6001600160a01b03811661269e576040805162461bcd60e51b8152602060048201526016602482015275416464726573732063616e6e6f74206265207a65726f60501b604482015290519081900360640190fd5b6000828152602084905260409020546001600160a01b031615612708576040805162461bcd60e51b815260206004820152601a60248201527f5061697220697320616c72656164792072656769737465726564000000000000604482015290519081900360640190fd5b600082815260208481526040822080546001600160a01b0319166001600160a01b03949094169390931790925560019384018054948501815581522090910155565b6001600160a01b0381166000908152600183016020526040812054606090612784575050604080516020810190915260008082529061156a565b61278c613261565b6001600160a01b038416600090815260018601602052604090205485548691600019019081106127b857fe5b6000918252602091829020604080518082018252600293840290920180546001600160a01b031683526001808201805484516101009382161593909302600019011695909504601f8101879004870282018701909352828152929490938582019392909183018282801561286d5780601f106128425761010080835404028352916020019161286d565b820191906000526020600020905b81548152906001019060200180831161285057829003601f168201915b5050509190925250508151602090920151919791965090945050505050565b6001600160a01b0383166128e7576040805162461bcd60e51b815260206004820152601b60248201527f4f776e657220616464726573732063616e6e6f74206265203078300000000000604482015290519081900360640190fd5b6001600160a01b038216612942576040805162461bcd60e51b815260206004820152601c60248201527f4f7261636c6520616464726573732063616e6e6f742062652030783000000000604482015290519081900360640190fd5b61294c84846130b1565b1561299e576040805162461bcd60e51b815260206004820152601860248201527f4f776e657220616c726561647920726567697374657265640000000000000000604482015290519081900360640190fd5b6129a884836130d2565b156129f6576040805162461bcd60e51b815260206004820152601960248201527813dc9858db1948185b1c9958591e481c9959da5cdd195c9959603a1b604482015290519081900360640190fd5b6001600160a01b03828116600081815260028781016020908152604080842080546001600160a01b03199081168b89161790915581518083019092529481528082018781528a5460018181018d558c875295849020835191909502909401805490961693909616929092178455935180519194612a7893850192910190613279565b505084546001600160a01b0390941660009081526001909501602052505060409092205550565b5490565b6001600160a01b0380821660009081526002840160205260409020541692915050565b60018301546000908210612b11576040805162461bcd60e51b815260206004820152600d60248201526c092d8d8cacec2d840d2dcc8caf609b1b604482015290519081900360640190fd5b815b6001850154811015612b4f5783856001018281548110612b2f57fe5b90600052602060002001541415612b47579050611c85565b600101612b13565b505050506001015490565b612b6483836130b1565b612bb5576040805162461bcd60e51b815260206004820152601e60248201527f4f7261636c65206f776e6572206973206e6f7420726567697374657265640000604482015290519081900360640190fd5b6001600160a01b038216600090815260018401602052604090205480612c19576040805162461bcd60e51b815260206004820152601460248201527313dddb995c881b9bdd081c9959da5cdd195c995960621b604482015290519081900360640190fd5b81846000016001830381548110612c2c57fe5b90600052602060002090600202016001019080519060200190612c50929190613279565b5050505050565b6000612c636068611fe7565b905060005b81811015611deb576000612c80610b94606884611fee565b9050806001600160a01b031663b92ae87c856040518263ffffffff1660e01b815260040180826001600160a01b0316815260200191505060206040518083038186803b158015612ccf57600080fd5b505afa158015612ce3573d6000803e3d6000fd5b505050506040513d6020811015612cf957600080fd5b505115612d6857806001600160a01b0316637262561c856040518263ffffffff1660e01b815260040180826001600160a01b03168152602001915050600060405180830381600087803b158015612d4f57600080fd5b505af1158015612d63573d6000803e3d6000fd5b505050505b50600101612c68565b6001600160a01b038116612dcc576040805162461bcd60e51b815260206004820152601b60248201527f4f776e657220616464726573732063616e6e6f74206265203078300000000000604482015290519081900360640190fd5b6001600160a01b038116600090815260018301602052604090205480612e30576040805162461bcd60e51b815260206004820152601460248201527313dddb995c881b9bdd081c9959da5cdd195c995960621b604482015290519081900360640190fd5b8254600019820190600090859083908110612e4757fe5b600091825260209091206002909102015485546001600160a01b03909116915060001901612e73613261565b866000018281548110612e8257fe5b6000918252602091829020604080518082018252600293840290920180546001600160a01b031683526001808201805484516101009382161593909302600019011695909504601f81018790048702820187019093528281529294909385820193929091830182828015612f375780601f10612f0c57610100808354040283529160200191612f37565b820191906000526020600020905b815481529060010190602001808311612f1a57829003601f168201915b50505091909252505081516001600160a01b03908116600090815260028b01602052604090205492935091909116905080612fac576040805162461bcd60e51b815260206004820152601060248201526f2ab732bc3832b1ba32b21032b93937b960811b604482015290519081900360640190fd5b81886000018681548110612fbc57fe5b600091825260209182902083516002929092020180546001600160a01b0319166001600160a01b03909216919091178155828201518051919261300792600185019290910190613279565b5050506001600160a01b0381166000908152600189810160205260409091209086019055875488908061303657fe5b60008281526020812060026000199093019283020180546001600160a01b03191681559061306760018301826132f7565b505090555050506001600160a01b039384166000908152600186016020908152604080832083905592909516815260029095019093525050902080546001600160a01b0319169055565b6001600160a01b031660009081526001919091016020526040902054151590565b6001600160a01b03818116600090815260028401602052604090205416151592915050565b600061310383836130b1565b61315257508154600180820184556000848152602080822090930180546001600160a01b0319166001600160a01b03861690811790915585549082528286019093526040902091909155611135565b506000611135565b6001600160a01b03811660009081526001830160205260408120548015613257578354600019808301919081019060009087908390811061319757fe5b60009182526020909120015487546001600160a01b03909116915081908890859081106131c057fe5b600091825260208083209190910180546001600160a01b0319166001600160a01b0394851617905591831681526001898101909252604090209084019055865487908061320957fe5b60008281526020808220830160001990810180546001600160a01b03191690559092019092556001600160a01b03881682526001898101909152604082209190915594506111359350505050565b6000915050611135565b60408051808201909152600081526060602082015290565b828054600181600116156101000203166002900490600052602060002090601f016020900481019282601f106132ba57805160ff19168380011785556132e7565b828001600101855582156132e7579182015b828111156132e75782518255916020019190600101906132cc565b506132f3929150613337565b5090565b50805460018160011615610100020316600290046000825580601f1061331d5750611274565b601f01602090049060005260206000209081019061127491905b5b808211156132f3576000815560010161333856fe5374616b696e6720636f6e74726163742061646472657373206d75737420626520213d2030546865206d696e696d756d20636f696e207061697220737562736372697074696f6e207374616b6520616d6f756e742063616e6e6f74206265207a65726f41646472657373206973206e6f742077686974656c6973746564000000000000436f6e747261637420696e7374616e63652068617320616c7265616479206265656e20696e697469616c697a6564a264697066735822122026ad6a941e8842092e72703f30b2ee3eac1e661e08ac8f7479aedb0e32d7f9d764736f6c634300060c0033",
    "immutableReferences": {},
    "source": "// SPDX-License-Identifier: UNLICENSED\npragma solidity 0.6.12;\n\nimport {SafeMath} from \"@openzeppelin/contracts-ethereum-package/contracts/math/SafeMath.sol\";\nimport {IERC20} from \"@openzeppelin/contracts-ethereum-package/contracts/token/ERC20/IERC20.sol\";\nimport {IGovernor} from \"@moc/shared/contracts/moc-governance/Governance/IGovernor.sol\";\nimport {Governed} from \"@moc/shared/contracts/moc-governance/Governance/Governed.sol\";\nimport {IterableOraclesLib} from \"./libs/IterableOraclesLib.sol\";\nimport {Staking} from \"./Staking.sol\";\nimport {CoinPairPrice} from \"./CoinPairPrice.sol\";\nimport {OracleManagerStorage} from \"./OracleManagerStorage.sol\";\n\ncontract OracleManager is OracleManagerStorage {\n    using SafeMath for uint256;\n\n    event OracleRegistered(address caller, address addr, string internetName);\n    event OracleStakeAdded(address caller, address addr, uint256 stake);\n    event OracleSubscribed(address caller, bytes32 coinpair);\n    event OracleUnsubscribed(address caller, bytes32 coinpair);\n    event OracleRemoved(address caller);\n\n    // -------------------------------------------------------------------------------------------------------------\n    //\n    //   Public interface\n    //\n    // -------------------------------------------------------------------------------------------------------------\n\n    /// @notice Construct this contract.\n    /// @param _governor The address of the contract which governs this one\n    /// @param _minCPSubscriptionStake The minimum amount of tokens required as stake for a coin pair subscription.\n    /// @param _stakingContract the Staking contract address.\n    /// @param _wlist whitelisted contract that can call this one (usually only staking).\n    function initialize(\n        IGovernor _governor,\n        uint256 _minCPSubscriptionStake,\n        Staking _stakingContract,\n        address[] calldata _wlist\n    ) external initializer {\n        require(address(_stakingContract) != address(0), \"Staking contract address must be != 0\");\n        require(\n            _minCPSubscriptionStake > 0,\n            \"The minimum coin pair subscription stake amount cannot be zero\"\n        );\n\n        Governed._initialize(_governor);\n        stakingContract = _stakingContract;\n\n        minCPSubscriptionStake = _minCPSubscriptionStake;\n        for (uint256 i = 0; i < _wlist.length; i++) {\n            iterableWhitelistData._addToWhitelist(_wlist[i]);\n        }\n    }\n\n    /// @notice Register a new coin pair contract.\n    /// @param coinPair The bytes32-encoded coinpair string (e.g. BTCUSD)\n    /// @param addr The contract address associated to the coinpair.\n    function registerCoinPair(bytes32 coinPair, address addr) external onlyAuthorizedChanger {\n        coinPairRegisterData._registerCoinPair(coinPair, addr);\n    }\n\n    /**\n     @notice Add to the list of contracts that can stake in this contract\n\n     @param  _whitelisted - the override coinPair\n    */\n    function addToWhitelist(address _whitelisted) external onlyAuthorizedChanger() {\n        iterableWhitelistData._addToWhitelist(_whitelisted);\n    }\n\n    /**\n     @notice Remove from the list of contracts that can stake in this contract\n\n     @param _whitelisted - the override coinPair\n    */\n    function removeFromWhitelist(address _whitelisted) external onlyAuthorizedChanger() {\n        iterableWhitelistData._removeFromWhitelist(_whitelisted);\n    }\n\n    /// @notice Registers an oracle in the system.\n    /// @param ownerAddr Address of the Oracle's owner.\n    /// @param oracleAddr Address of the Oracle to register.\n    /// @param internetName Public Internet name of this Oracle.\n    function registerOracle(\n        address ownerAddr,\n        address oracleAddr,\n        string calldata internetName\n    ) external onlyWhitelisted(iterableWhitelistData) {\n        registeredOracles._registerOracle(ownerAddr, oracleAddr, internetName);\n        emit OracleRegistered(ownerAddr, oracleAddr, internetName);\n    }\n\n    /// @notice The oracle owner did a partial withdrawal of funds\n    /// 1. The oracle address is searched by the owner address.\n    /// 2. Each coin pair to which the oracle is subscribed is consulted to:\n    ///   - Check if the new amount is enough to stay in the current round.\n    ///       If not the oracle is replaced and lost his points.\n    ///   - Get the timestamp for the round end.\n    /// The return value is the maximum timestamp from all the coin pairs.\n    /// @param oracleOwnerAddr Address of oracle owner\n    /// @return the timestamp until which the funds must be locked.\n    function onWithdraw(address oracleOwnerAddr)\n        external\n        onlyWhitelisted(iterableWhitelistData)\n        returns (uint256)\n    {\n        uint256 coinPairCount = coinPairRegisterData._getCoinPairCount();\n        uint256 timestamp = 0;\n        uint256 maxTimestamp = 0;\n        for (uint256 i = 0; i < coinPairCount; i++) {\n            CoinPairPrice cp = _getCoinPairAddress(coinPairRegisterData._getCoinPairAtIndex(i));\n            if (cp.isSubscribed(oracleOwnerAddr)) {\n                timestamp = cp.onWithdraw(oracleOwnerAddr);\n                if (timestamp > maxTimestamp) {\n                    maxTimestamp = timestamp;\n                }\n            }\n        }\n        return maxTimestamp;\n    }\n\n    /// @notice Used by the coin pair to get the oracle address from the oracleOwnerAddress.\n    /// @param  oracleOwnerAddr the address of the owner of the oracle.\n    /// @return oracleAddr Address of oracle\n    function getOracleAddress(address oracleOwnerAddr) public view returns (address oracleAddr) {\n        return registeredOracles._getOracleAddress(oracleOwnerAddr);\n    }\n\n    /// @notice Subscribe a registered oracle to participate in rounds of a registered coin-pair\n    /// @param ownerAddr Address of message sender\n    /// @param coinPair Name of coin pair\n    function subscribeToCoinPair(address ownerAddr, bytes32 coinPair)\n        external\n        authorizedChangerOrWhitelisted\n    {\n        require(_isOwnerRegistered(ownerAddr), \"Oracle not registered\");\n\n        CoinPairPrice ctAddr = _getCoinPairAddress(coinPair);\n        ctAddr.subscribe(ownerAddr);\n\n        emit OracleSubscribed(ownerAddr, coinPair);\n    }\n\n    /// @notice Unsubscribe a registered oracle from participating in rounds of a registered coin-pair\n    /// @param ownerAddr Address of message sender\n    /// @param coinPair Name of coin pair\n    function unSubscribeFromCoinPair(address ownerAddr, bytes32 coinPair)\n        external\n        authorizedChangerOrWhitelisted\n    {\n        require(_isOwnerRegistered(ownerAddr), \"Oracle not registered\");\n\n        CoinPairPrice ctAddr = _getCoinPairAddress(coinPair);\n        ctAddr.unsubscribe(ownerAddr);\n\n        emit OracleUnsubscribed(ownerAddr, coinPair);\n    }\n\n    /// @notice Returns true if an oracle is subscribed to a coin pair\n    function isSubscribed(address ownerAddr, bytes32 coinPair) external view returns (bool) {\n        require(_isOwnerRegistered(ownerAddr), \"Oracle is not registered.\");\n\n        CoinPairPrice ctAddr = _getCoinPairAddress(coinPair);\n        return ctAddr.isSubscribed(ownerAddr);\n    }\n\n    /// @notice Change the oracle \"internet\" name (URI)\n    /// @param ownerAddr Address of message sender\n    /// @param name The new name to set.\n    function setOracleName(address ownerAddr, string calldata name)\n        external\n        authorizedChangerOrWhitelisted\n    {\n        require(_isOwnerRegistered(ownerAddr), \"Oracle not registered\");\n        registeredOracles._setName(ownerAddr, name);\n    }\n\n    /// @notice Change the oracle \"internet\" name (URI)\n    /// @param ownerAddr Address of message sender\n    /// @param oracleAddr The new oracle address.s\n    function setOracleAddress(address ownerAddr, address oracleAddr)\n        external\n        authorizedChangerOrWhitelisted\n    {\n        require(_isOwnerRegistered(ownerAddr), \"Oracle not registered\");\n        registeredOracles._setOracleAddress(ownerAddr, oracleAddr);\n    }\n\n    /// @notice Return true if the oracle is registered in the contract\n    /// @param ownerAddr The address of the owner of the Oracle to check for.\n    function isOracleRegistered(address ownerAddr) external view returns (bool) {\n        return _isOwnerRegistered(ownerAddr);\n    }\n\n    /// @notice Returns round information for a registered oracle in a specific coin-pair.\n    /// @param ownerAddr address of the oracle owner to query for.\n    /// @param coinpair The coin pair to lookup.\n    function getOracleRoundInfo(address ownerAddr, bytes32 coinpair)\n        external\n        view\n        returns (uint256 points, bool selectedInCurrentRound)\n    {\n        CoinPairPrice ctAddr = _getCoinPairAddress(coinpair);\n        (points, selectedInCurrentRound) = ctAddr.getOracleRoundInfo(ownerAddr);\n    }\n\n    /// @notice Removes an oracle from the system if conditions in\n    ///         contract he is participating apply, returning it's stake.\n    /// @param ownerAddr Address of message sender\n    function removeOracle(address ownerAddr) external authorizedChangerOrWhitelisted {\n        require(_isOwnerRegistered(ownerAddr), \"Oracle not registered\");\n\n        _unsubscribeAll(ownerAddr);\n        registeredOracles._removeOracle(ownerAddr);\n        emit OracleRemoved(ownerAddr);\n    }\n\n    /// @notice Returns true if an oracle satisfies conditions to be removed from system.\n    /// @param ownerAddr the address of the owner of the oracle to lookup.\n    function canRemoveOracle(address ownerAddr) external view returns (bool) {\n        return _isOwnerRegistered(ownerAddr) && _canRemoveOracle(ownerAddr);\n    }\n\n    /// @notice Get the stake in MOCs that an oracle has.\n    /// @param ownerAddr The address of the oracle's owner.\n    function getStake(address ownerAddr) public view returns (uint256 balance) {\n        return stakingContract.getBalance(ownerAddr);\n    }\n\n    /// @notice Returns registration information for a registered Oracle.\n    /// @param ownerAddr The address of the oracle's owner.\n    function getOracleRegistrationInfo(address ownerAddr)\n        external\n        view\n        returns (\n            string memory internetName,\n            uint256 stake,\n            address oracleAddr\n        )\n    {\n        (oracleAddr, internetName) = registeredOracles._getOracleInfo(ownerAddr);\n        stake = getStake(ownerAddr);\n    }\n\n    /// @notice Returns true if oracle is registered.\n    /// @param ownerAddr The address of the oracle's owner.\n    function isRegistered(address ownerAddr) external view returns (bool) {\n        return _isOwnerRegistered(ownerAddr);\n    }\n\n    /// @notice Used by CoinPair\n    /// @param oracleAddr The oracle address not the owner address.\n    function getOracleOwner(address oracleAddr) external view returns (address) {\n        return registeredOracles._getOwner(oracleAddr);\n    }\n\n    /// @notice Returns the amount of owners registered.\n    function getRegisteredOraclesLen() external view returns (uint256) {\n        return registeredOracles._getLen();\n    }\n\n    /// @notice Returns the oracle name and address at index.\n    /// @param idx index to query.\n    function getRegisteredOracleAtIndex(uint256 idx)\n        external\n        view\n        returns (\n            address ownerAddr,\n            address oracleAddr,\n            string memory url\n        )\n    {\n        return registeredOracles._getOracleAtIndex(idx);\n    }\n\n    /// @notice Returns the count of registered coin pairs.\n    /// Keep in mind that Deleted coin-pairs will contain zeroed addresses.\n    function getCoinPairCount() external view returns (uint256) {\n        return coinPairRegisterData._getCoinPairCount();\n    }\n\n    /// @notice Returns the coin pair at index.\n    /// @param i index to query.\n    function getCoinPairAtIndex(uint256 i) external view returns (bytes32) {\n        return coinPairRegisterData._getCoinPairAtIndex(i);\n    }\n\n    /// @notice Return the contract address for a specified registered coin pair.\n    /// @param coinpair Coin-pair string to lookup (e.g: BTCUSD)\n    /// @return address Address of contract or zero if does not exist or was deleted.\n    function getContractAddress(bytes32 coinpair) external view returns (address) {\n        return coinPairRegisterData._getContractAddress(coinpair);\n    }\n\n    function getMaxStake(address[] calldata addresses) external view returns (address, uint256) {\n        return stakingContract.getMaxBalance(addresses);\n    }\n\n    /// @notice Searches a coinpair in coinPairList\n    /// @param coinPair The bytes32-encoded coinpair string (e.g. BTCUSD)\n    /// @param hint Optional hint to start traversing the coinPairList array, zero is to search all the array.\n    function getCoinPairIndex(bytes32 coinPair, uint256 hint) external view returns (uint256) {\n        return coinPairRegisterData._getCoinPairIndex(coinPair, hint);\n    }\n\n    /// @notice Returns true if an oracle satisfies conditions to be removed from system.\n    /// @param ownerAddr the address of the owner of the oracle to lookup.\n    function _canRemoveOracle(address ownerAddr) private view returns (bool) {\n        uint256 coinPairCount = coinPairRegisterData._getCoinPairCount();\n        for (uint256 i = 0; i < coinPairCount; i++) {\n            CoinPairPrice cp = _getCoinPairAddress(coinPairRegisterData._getCoinPairAtIndex(i));\n            if (cp.isSubscribed(ownerAddr)) {\n                return false;\n            }\n        }\n        return true;\n    }\n\n    /// @dev Unsubscribe a registered oracle from participating in all registered coin-pairs\n    /// @param ownerAddr Address of the oracle owner.\n    function _unsubscribeAll(address ownerAddr) private {\n        uint256 coinPairCount = coinPairRegisterData._getCoinPairCount();\n        for (uint256 i = 0; i < coinPairCount; i++) {\n            CoinPairPrice cp = _getCoinPairAddress(coinPairRegisterData._getCoinPairAtIndex(i));\n            if (cp.isSubscribed(ownerAddr)) {\n                cp.unsubscribe(ownerAddr);\n            }\n        }\n    }\n\n    // A change contract can act as the owner of an Oracle\n    /// @param oracleOwner Message sender's address\n    function _isOwnerRegistered(address oracleOwner) private view returns (bool) {\n        return registeredOracles._isOwnerRegistered(oracleOwner);\n    }\n\n    /// @notice Return the contract address for a specified registered coin pair.\n    /// @param coinpair Coin-pair string to lookup (e.g: BTCUSD)\n    /// @return address Address of contract or zero if does not exist or was deleted.\n    function _getCoinPairAddress(bytes32 coinpair) private view returns (CoinPairPrice) {\n        return CoinPairPrice(coinPairRegisterData._getContractAddress(coinpair));\n    }\n}\n",
    "sourcePath": "/home/adji/Desktop/work/coinfabrik/moc-oraculos/contracts/OracleManager.sol",
    "compiler": {
        "name": "solc",
        "version": "0.6.12+commit.27d51765.Emscripten.clang"
    },
    "schemaVersion": "3.2.4",
    "updatedAt": "2020-09-15T19:22:34.834Z",
    "networkType": "ethereum",
    "devdoc": {
        "kind": "dev",
        "methods": {
            "addToWhitelist(address)": {
                "params": {
                    "_whitelisted": "- the override coinPair"
                }
            },
            "canRemoveOracle(address)": {
                "params": {
                    "ownerAddr": "the address of the owner of the oracle to lookup."
                }
            },
            "changeIGovernor(address)": {
                "params": {
                    "newIGovernor": "New governor address"
                }
            },
            "delegateCallToChanger(bytes)": {
                "params": {
                    "data": "the serialized function arguments"
                }
            },
            "getCoinPairAtIndex(uint256)": {
                "params": {
                    "i": "index to query."
                }
            },
            "getCoinPairIndex(bytes32,uint256)": {
                "params": {
                    "coinPair": "The bytes32-encoded coinpair string (e.g. BTCUSD)",
                    "hint": "Optional hint to start traversing the coinPairList array, zero is to search all the array."
                }
            },
            "getContractAddress(bytes32)": {
                "params": {
                    "coinpair": "Coin-pair string to lookup (e.g: BTCUSD)"
                },
                "returns": {
                    "_0": "address Address of contract or zero if does not exist or was deleted."
                }
            },
            "getOracleAddress(address)": {
                "params": {
                    "oracleOwnerAddr": "the address of the owner of the oracle."
                },
                "returns": {
                    "oracleAddr": "Address of oracle"
                }
            },
            "getOracleOwner(address)": {
                "params": {
                    "oracleAddr": "The oracle address not the owner address."
                }
            },
            "getOracleRegistrationInfo(address)": {
                "params": {
                    "ownerAddr": "The address of the oracle's owner."
                }
            },
            "getOracleRoundInfo(address,bytes32)": {
                "params": {
                    "coinpair": "The coin pair to lookup.",
                    "ownerAddr": "address of the oracle owner to query for."
                }
            },
            "getRegisteredOracleAtIndex(uint256)": {
                "params": {
                    "idx": "index to query."
                }
            },
            "getStake(address)": {
                "params": {
                    "ownerAddr": "The address of the oracle's owner."
                }
            },
            "initialize(address,uint256,address,address[])": {
                "params": {
                    "_governor": "The address of the contract which governs this one",
                    "_minCPSubscriptionStake": "The minimum amount of tokens required as stake for a coin pair subscription.",
                    "_stakingContract": "the Staking contract address.",
                    "_wlist": "whitelisted contract that can call this one (usually only staking)."
                }
            },
            "isOracleRegistered(address)": {
                "params": {
                    "ownerAddr": "The address of the owner of the Oracle to check for."
                }
            },
            "isRegistered(address)": {
                "params": {
                    "ownerAddr": "The address of the oracle's owner."
                }
            },
            "onWithdraw(address)": {
                "params": {
                    "oracleOwnerAddr": "Address of oracle owner"
                },
                "returns": {
                    "_0": "the timestamp until which the funds must be locked."
                }
            },
            "registerCoinPair(bytes32,address)": {
                "params": {
                    "addr": "The contract address associated to the coinpair.",
                    "coinPair": "The bytes32-encoded coinpair string (e.g. BTCUSD)"
                }
            },
            "registerOracle(address,address,string)": {
                "params": {
                    "internetName": "Public Internet name of this Oracle.",
                    "oracleAddr": "Address of the Oracle to register.",
                    "ownerAddr": "Address of the Oracle's owner."
                }
            },
            "removeFromWhitelist(address)": {
                "params": {
                    "_whitelisted": "- the override coinPair"
                }
            },
            "removeOracle(address)": {
                "params": {
                    "ownerAddr": "Address of message sender"
                }
            },
            "setOracleAddress(address,address)": {
                "params": {
                    "oracleAddr": "The new oracle address.s",
                    "ownerAddr": "Address of message sender"
                }
            },
            "setOracleName(address,string)": {
                "params": {
                    "name": "The new name to set.",
                    "ownerAddr": "Address of message sender"
                }
            },
            "subscribeToCoinPair(address,bytes32)": {
                "params": {
                    "coinPair": "Name of coin pair",
                    "ownerAddr": "Address of message sender"
                }
            },
            "unSubscribeFromCoinPair(address,bytes32)": {
                "params": {
                    "coinPair": "Name of coin pair",
                    "ownerAddr": "Address of message sender"
                }
            }
        },
        "version": 1
    },
    "userdoc": {
        "kind": "user",
        "methods": {
            "addToWhitelist(address)": {
                "notice": "Add to the list of contracts that can stake in this contract"
            },
            "canRemoveOracle(address)": {
                "notice": "Returns true if an oracle satisfies conditions to be removed from system."
            },
            "changeIGovernor(address)": {
                "notice": "Change the contract's governor. Should be called through the old governance system"
            },
            "delegateCallToChanger(bytes)": {
                "notice": "This method is used by a change contract to access the storage freely even without a setter."
            },
            "getCoinPairAtIndex(uint256)": {
                "notice": "Returns the coin pair at index."
            },
            "getCoinPairCount()": {
                "notice": "Returns the count of registered coin pairs. Keep in mind that Deleted coin-pairs will contain zeroed addresses."
            },
            "getCoinPairIndex(bytes32,uint256)": {
                "notice": "Searches a coinpair in coinPairList"
            },
            "getContractAddress(bytes32)": {
                "notice": "Return the contract address for a specified registered coin pair."
            },
            "getOracleAddress(address)": {
                "notice": "Used by the coin pair to get the oracle address from the oracleOwnerAddress."
            },
            "getOracleOwner(address)": {
                "notice": "Used by CoinPair"
            },
            "getOracleRegistrationInfo(address)": {
                "notice": "Returns registration information for a registered Oracle."
            },
            "getOracleRoundInfo(address,bytes32)": {
                "notice": "Returns round information for a registered oracle in a specific coin-pair."
            },
            "getRegisteredOracleAtIndex(uint256)": {
                "notice": "Returns the oracle name and address at index."
            },
            "getRegisteredOraclesLen()": {
                "notice": "Returns the amount of owners registered."
            },
            "getStake(address)": {
                "notice": "Get the stake in MOCs that an oracle has."
            },
            "governor()": {
                "notice": "The address of the contract which governs this one"
            },
            "initialize(address,uint256,address,address[])": {
                "notice": "Construct this contract."
            },
            "isOracleRegistered(address)": {
                "notice": "Return true if the oracle is registered in the contract"
            },
            "isRegistered(address)": {
                "notice": "Returns true if oracle is registered."
            },
            "isSubscribed(address,bytes32)": {
                "notice": "Returns true if an oracle is subscribed to a coin pair"
            },
            "onWithdraw(address)": {
                "notice": "The oracle owner did a partial withdrawal of funds 1. The oracle address is searched by the owner address. 2. Each coin pair to which the oracle is subscribed is consulted to:   - Check if the new amount is enough to stay in the current round.       If not the oracle is replaced and lost his points.   - Get the timestamp for the round end. The return value is the maximum timestamp from all the coin pairs."
            },
            "registerCoinPair(bytes32,address)": {
                "notice": "Register a new coin pair contract."
            },
            "registerOracle(address,address,string)": {
                "notice": "Registers an oracle in the system."
            },
            "removeFromWhitelist(address)": {
                "notice": "Remove from the list of contracts that can stake in this contract"
            },
            "removeOracle(address)": {
                "notice": "Removes an oracle from the system if conditions in         contract he is participating apply, returning it's stake."
            },
            "setOracleAddress(address,address)": {
                "notice": "Change the oracle \"internet\" name (URI)"
            },
            "setOracleName(address,string)": {
                "notice": "Change the oracle \"internet\" name (URI)"
            },
            "subscribeToCoinPair(address,bytes32)": {
                "notice": "Subscribe a registered oracle to participate in rounds of a registered coin-pair"
            },
            "unSubscribeFromCoinPair(address,bytes32)": {
                "notice": "Unsubscribe a registered oracle from participating in rounds of a registered coin-pair"
            }
        },
        "version": 1
    }
}