{
    "contractName": "OracleManager",
    "abi": [
        {
            "anonymous": false,
            "inputs": [
                {
                    "indexed": false,
                    "internalType": "address",
                    "name": "caller",
                    "type": "address"
                },
                {
                    "indexed": false,
                    "internalType": "address",
                    "name": "addr",
                    "type": "address"
                },
                {
                    "indexed": false,
                    "internalType": "string",
                    "name": "internetName",
                    "type": "string"
                }
            ],
            "name": "OracleRegistered",
            "type": "event"
        },
        {
            "anonymous": false,
            "inputs": [
                {
                    "indexed": false,
                    "internalType": "address",
                    "name": "caller",
                    "type": "address"
                }
            ],
            "name": "OracleRemoved",
            "type": "event"
        },
        {
            "anonymous": false,
            "inputs": [
                {
                    "indexed": false,
                    "internalType": "address",
                    "name": "caller",
                    "type": "address"
                },
                {
                    "indexed": false,
                    "internalType": "address",
                    "name": "addr",
                    "type": "address"
                },
                {
                    "indexed": false,
                    "internalType": "uint256",
                    "name": "stake",
                    "type": "uint256"
                }
            ],
            "name": "OracleStakeAdded",
            "type": "event"
        },
        {
            "anonymous": false,
            "inputs": [
                {
                    "indexed": false,
                    "internalType": "address",
                    "name": "caller",
                    "type": "address"
                },
                {
                    "indexed": false,
                    "internalType": "bytes32",
                    "name": "coinpair",
                    "type": "bytes32"
                }
            ],
            "name": "OracleSubscribed",
            "type": "event"
        },
        {
            "anonymous": false,
            "inputs": [
                {
                    "indexed": false,
                    "internalType": "address",
                    "name": "caller",
                    "type": "address"
                },
                {
                    "indexed": false,
                    "internalType": "bytes32",
                    "name": "coinpair",
                    "type": "bytes32"
                }
            ],
            "name": "OracleUnsubscribed",
            "type": "event"
        },
        {
            "inputs": [
                {
                    "internalType": "contract IGovernor",
                    "name": "newIGovernor",
                    "type": "address"
                }
            ],
            "name": "changeIGovernor",
            "outputs": [],
            "stateMutability": "nonpayable",
            "type": "function"
        },
        {
            "inputs": [
                {
                    "internalType": "bytes",
                    "name": "data",
                    "type": "bytes"
                }
            ],
            "name": "delegateCallToChanger",
            "outputs": [],
            "stateMutability": "nonpayable",
            "type": "function"
        },
        {
            "inputs": [],
            "name": "governor",
            "outputs": [
                {
                    "internalType": "contract IGovernor",
                    "name": "",
                    "type": "address"
                }
            ],
            "stateMutability": "view",
            "type": "function"
        },
        {
            "inputs": [],
            "name": "minCPSubscriptionStake",
            "outputs": [
                {
                    "internalType": "uint256",
                    "name": "",
                    "type": "uint256"
                }
            ],
            "stateMutability": "view",
            "type": "function"
        },
        {
            "inputs": [],
            "name": "stakingContract",
            "outputs": [
                {
                    "internalType": "contract Staking",
                    "name": "",
                    "type": "address"
                }
            ],
            "stateMutability": "view",
            "type": "function"
        },
        {
            "inputs": [
                {
                    "internalType": "contract IGovernor",
                    "name": "_governor",
                    "type": "address"
                },
                {
                    "internalType": "uint256",
                    "name": "_minCPSubscriptionStake",
                    "type": "uint256"
                },
                {
                    "internalType": "contract Staking",
                    "name": "_stakingContract",
                    "type": "address"
                },
                {
                    "internalType": "address[]",
                    "name": "_wlist",
                    "type": "address[]"
                }
            ],
            "name": "initialize",
            "outputs": [],
            "stateMutability": "nonpayable",
            "type": "function"
        },
        {
            "inputs": [
                {
                    "internalType": "bytes32",
                    "name": "coinPair",
                    "type": "bytes32"
                },
                {
                    "internalType": "address",
                    "name": "addr",
                    "type": "address"
                }
            ],
            "name": "registerCoinPair",
            "outputs": [],
            "stateMutability": "nonpayable",
            "type": "function"
        },
        {
            "inputs": [
                {
                    "internalType": "address",
                    "name": "_whitelisted",
                    "type": "address"
                }
            ],
            "name": "addToWhitelist",
            "outputs": [],
            "stateMutability": "nonpayable",
            "type": "function"
        },
        {
            "inputs": [
                {
                    "internalType": "address",
                    "name": "_whitelisted",
                    "type": "address"
                }
            ],
            "name": "removeFromWhitelist",
            "outputs": [],
            "stateMutability": "nonpayable",
            "type": "function"
        },
        {
            "inputs": [
                {
                    "internalType": "address",
                    "name": "ownerAddr",
                    "type": "address"
                },
                {
                    "internalType": "address",
                    "name": "oracleAddr",
                    "type": "address"
                },
                {
                    "internalType": "string",
                    "name": "internetName",
                    "type": "string"
                }
            ],
            "name": "registerOracle",
            "outputs": [],
            "stateMutability": "nonpayable",
            "type": "function"
        },
        {
            "inputs": [
                {
                    "internalType": "address",
                    "name": "oracleOwnerAddr",
                    "type": "address"
                }
            ],
            "name": "onWithdraw",
            "outputs": [
                {
                    "internalType": "uint256",
                    "name": "",
                    "type": "uint256"
                }
            ],
            "stateMutability": "nonpayable",
            "type": "function"
        },
        {
            "inputs": [
                {
                    "internalType": "address",
                    "name": "oracleOwnerAddr",
                    "type": "address"
                }
            ],
            "name": "getOracleAddress",
            "outputs": [
                {
                    "internalType": "address",
                    "name": "oracleAddr",
                    "type": "address"
                }
            ],
            "stateMutability": "view",
            "type": "function"
        },
        {
            "inputs": [
                {
                    "internalType": "address",
                    "name": "ownerAddr",
                    "type": "address"
                },
                {
                    "internalType": "bytes32",
                    "name": "coinPair",
                    "type": "bytes32"
                }
            ],
            "name": "subscribeToCoinPair",
            "outputs": [],
            "stateMutability": "nonpayable",
            "type": "function"
        },
        {
            "inputs": [
                {
                    "internalType": "address",
                    "name": "ownerAddr",
                    "type": "address"
                },
                {
                    "internalType": "bytes32",
                    "name": "coinPair",
                    "type": "bytes32"
                }
            ],
            "name": "unSubscribeFromCoinPair",
            "outputs": [],
            "stateMutability": "nonpayable",
            "type": "function"
        },
        {
            "inputs": [
                {
                    "internalType": "address",
                    "name": "ownerAddr",
                    "type": "address"
                },
                {
                    "internalType": "bytes32",
                    "name": "coinPair",
                    "type": "bytes32"
                }
            ],
            "name": "isSubscribed",
            "outputs": [
                {
                    "internalType": "bool",
                    "name": "",
                    "type": "bool"
                }
            ],
            "stateMutability": "view",
            "type": "function"
        },
        {
            "inputs": [
                {
                    "internalType": "address",
                    "name": "ownerAddr",
                    "type": "address"
                },
                {
                    "internalType": "string",
                    "name": "name",
                    "type": "string"
                }
            ],
            "name": "setOracleName",
            "outputs": [],
            "stateMutability": "nonpayable",
            "type": "function"
        },
        {
            "inputs": [
                {
                    "internalType": "address",
                    "name": "ownerAddr",
                    "type": "address"
                },
                {
                    "internalType": "address",
                    "name": "oracleAddr",
                    "type": "address"
                }
            ],
            "name": "setOracleAddress",
            "outputs": [],
            "stateMutability": "nonpayable",
            "type": "function"
        },
        {
            "inputs": [
                {
                    "internalType": "address",
                    "name": "ownerAddr",
                    "type": "address"
                }
            ],
            "name": "isOracleRegistered",
            "outputs": [
                {
                    "internalType": "bool",
                    "name": "",
                    "type": "bool"
                }
            ],
            "stateMutability": "view",
            "type": "function"
        },
        {
            "inputs": [
                {
                    "internalType": "address",
                    "name": "ownerAddr",
                    "type": "address"
                },
                {
                    "internalType": "bytes32",
                    "name": "coinpair",
                    "type": "bytes32"
                }
            ],
            "name": "getOracleRoundInfo",
            "outputs": [
                {
                    "internalType": "uint256",
                    "name": "points",
                    "type": "uint256"
                },
                {
                    "internalType": "bool",
                    "name": "selectedInCurrentRound",
                    "type": "bool"
                }
            ],
            "stateMutability": "view",
            "type": "function"
        },
        {
            "inputs": [
                {
                    "internalType": "address",
                    "name": "ownerAddr",
                    "type": "address"
                }
            ],
            "name": "removeOracle",
            "outputs": [],
            "stateMutability": "nonpayable",
            "type": "function"
        },
        {
            "inputs": [
                {
                    "internalType": "address",
                    "name": "ownerAddr",
                    "type": "address"
                }
            ],
            "name": "canRemoveOracle",
            "outputs": [
                {
                    "internalType": "bool",
                    "name": "",
                    "type": "bool"
                }
            ],
            "stateMutability": "view",
            "type": "function"
        },
        {
            "inputs": [
                {
                    "internalType": "address",
                    "name": "ownerAddr",
                    "type": "address"
                }
            ],
            "name": "getStake",
            "outputs": [
                {
                    "internalType": "uint256",
                    "name": "balance",
                    "type": "uint256"
                }
            ],
            "stateMutability": "view",
            "type": "function"
        },
        {
            "inputs": [
                {
                    "internalType": "address",
                    "name": "ownerAddr",
                    "type": "address"
                }
            ],
            "name": "getOracleRegistrationInfo",
            "outputs": [
                {
                    "internalType": "string",
                    "name": "internetName",
                    "type": "string"
                },
                {
                    "internalType": "uint256",
                    "name": "stake",
                    "type": "uint256"
                },
                {
                    "internalType": "address",
                    "name": "oracleAddr",
                    "type": "address"
                }
            ],
            "stateMutability": "view",
            "type": "function"
        },
        {
            "inputs": [
                {
                    "internalType": "address",
                    "name": "ownerAddr",
                    "type": "address"
                }
            ],
            "name": "isRegistered",
            "outputs": [
                {
                    "internalType": "bool",
                    "name": "",
                    "type": "bool"
                }
            ],
            "stateMutability": "view",
            "type": "function"
        },
        {
            "inputs": [
                {
                    "internalType": "address",
                    "name": "oracleAddr",
                    "type": "address"
                }
            ],
            "name": "getOracleOwner",
            "outputs": [
                {
                    "internalType": "address",
                    "name": "",
                    "type": "address"
                }
            ],
            "stateMutability": "view",
            "type": "function"
        },
        {
            "inputs": [],
            "name": "getRegisteredOraclesLen",
            "outputs": [
                {
                    "internalType": "uint256",
                    "name": "",
                    "type": "uint256"
                }
            ],
            "stateMutability": "view",
            "type": "function"
        },
        {
            "inputs": [
                {
                    "internalType": "uint256",
                    "name": "idx",
                    "type": "uint256"
                }
            ],
            "name": "getRegisteredOracleAtIndex",
            "outputs": [
                {
                    "internalType": "address",
                    "name": "ownerAddr",
                    "type": "address"
                },
                {
                    "internalType": "address",
                    "name": "oracleAddr",
                    "type": "address"
                },
                {
                    "internalType": "string",
                    "name": "url",
                    "type": "string"
                }
            ],
            "stateMutability": "view",
            "type": "function"
        },
        {
            "inputs": [],
            "name": "getCoinPairCount",
            "outputs": [
                {
                    "internalType": "uint256",
                    "name": "",
                    "type": "uint256"
                }
            ],
            "stateMutability": "view",
            "type": "function"
        },
        {
            "inputs": [
                {
                    "internalType": "uint256",
                    "name": "i",
                    "type": "uint256"
                }
            ],
            "name": "getCoinPairAtIndex",
            "outputs": [
                {
                    "internalType": "bytes32",
                    "name": "",
                    "type": "bytes32"
                }
            ],
            "stateMutability": "view",
            "type": "function"
        },
        {
            "inputs": [
                {
                    "internalType": "bytes32",
                    "name": "coinpair",
                    "type": "bytes32"
                }
            ],
            "name": "getContractAddress",
            "outputs": [
                {
                    "internalType": "address",
                    "name": "",
                    "type": "address"
                }
            ],
            "stateMutability": "view",
            "type": "function"
        },
        {
            "inputs": [
                {
                    "internalType": "address[]",
                    "name": "addresses",
                    "type": "address[]"
                }
            ],
            "name": "getMaxStake",
            "outputs": [
                {
                    "internalType": "address",
                    "name": "",
                    "type": "address"
                },
                {
                    "internalType": "uint256",
                    "name": "",
                    "type": "uint256"
                }
            ],
            "stateMutability": "view",
            "type": "function"
        },
        {
            "inputs": [
                {
                    "internalType": "bytes32",
                    "name": "coinPair",
                    "type": "bytes32"
                },
                {
                    "internalType": "uint256",
                    "name": "hint",
                    "type": "uint256"
                }
            ],
            "name": "getCoinPairIndex",
            "outputs": [
                {
                    "internalType": "uint256",
                    "name": "",
                    "type": "uint256"
                }
            ],
            "stateMutability": "view",
            "type": "function"
        }
    ],
    "bytecode": "0x608060405234801561001057600080fd5b506153fc806100206000396000f3fe608060405234801561001057600080fd5b50600436106101f05760003560e01c806398eaf7881161010f578063dc8990e1116100a2578063ee99205c11610071578063ee99205c14610d01578063eff3609814610d35578063fac3c1f414610d81578063fdc85fc414610e1a576101f0565b8063dc8990e114610bb4578063de0b4e0014610c2d578063df1810f914610c7b578063e43252d714610cbd576101f0565b8063b9b55c9a116100de578063b9b55c9a14610a27578063c3c5a54714610a81578063c6cd9cd614610adb578063cdb8bedd14610b49576101f0565b806398eaf788146108625780639fe49ea91461091b578063aa265d02146109c5578063b6e08330146109e3576101f0565b8063468027d41161018757806380eea1ee1161015657806380eea1ee1461068b5780638ab1d681146106ef5780638e04191e14610733578063949394fe14610781576101f0565b8063468027d4146104e457806354482173146105a757806363adb1a2146106155780637a76646014610633576101f0565b80633a82b50d116101c35780633a82b50d146102ed5780633aacdc99146103455780633ac7c7841461039f57806346093b0e14610480576101f0565b80630c340a24146101f55780630d2020dd146102295780632be46cdf146102815780633186b45a146102cf575b600080fd5b6101fd610e5e565b604051808273ffffffffffffffffffffffffffffffffffffffff16815260200191505060405180910390f35b6102556004803603602081101561023f57600080fd5b8101908080359060200190929190505050610e84565b604051808273ffffffffffffffffffffffffffffffffffffffff16815260200191505060405180910390f35b6102cd6004803603604081101561029757600080fd5b81019080803573ffffffffffffffffffffffffffffffffffffffff16906020019092919080359060200190929190505050610ea1565b005b6102d7611155565b6040518082815260200191505060405180910390f35b61032f6004803603602081101561030357600080fd5b81019080803573ffffffffffffffffffffffffffffffffffffffff16906020019092919050505061115b565b6040518082815260200191505060405180910390f35b6103876004803603602081101561035b57600080fd5b81019080803573ffffffffffffffffffffffffffffffffffffffff16906020019092919050505061138c565b60405180821515815260200191505060405180910390f35b6103cb600480360360208110156103b557600080fd5b81019080803590602001909291905050506113af565b604051808473ffffffffffffffffffffffffffffffffffffffff1681526020018373ffffffffffffffffffffffffffffffffffffffff16815260200180602001828103825283818151815260200191508051906020019080838360005b83811015610443578082015181840152602081019050610428565b50505050905090810190601f1680156104705780820380516001836020036101000a031916815260200191505b5094505050505060405180910390f35b6104e26004803603604081101561049657600080fd5b81019080803573ffffffffffffffffffffffffffffffffffffffff169060200190929190803573ffffffffffffffffffffffffffffffffffffffff1690602001909291905050506113d5565b005b6105a5600480360360808110156104fa57600080fd5b81019080803573ffffffffffffffffffffffffffffffffffffffff16906020019092919080359060200190929190803573ffffffffffffffffffffffffffffffffffffffff1690602001909291908035906020019064010000000081111561056157600080fd5b82018360208201111561057357600080fd5b8035906020019184602083028401116401000000008311171561059557600080fd5b90919293919293905050506115bb565b005b6105e9600480360360208110156105bd57600080fd5b81019080803573ffffffffffffffffffffffffffffffffffffffff169060200190929190505050611846565b604051808273ffffffffffffffffffffffffffffffffffffffff16815260200191505060405180910390f35b61061d611863565b6040518082815260200191505060405180910390f35b6106756004803603602081101561064957600080fd5b81019080803573ffffffffffffffffffffffffffffffffffffffff169060200190929190505050611874565b6040518082815260200191505060405180910390f35b6106d7600480360360408110156106a157600080fd5b81019080803573ffffffffffffffffffffffffffffffffffffffff16906020019092919080359060200190929190505050611941565b60405180821515815260200191505060405180910390f35b6107316004803603602081101561070557600080fd5b81019080803573ffffffffffffffffffffffffffffffffffffffff169060200190929190505050611a76565b005b61077f6004803603604081101561074957600080fd5b8101908080359060200190929190803573ffffffffffffffffffffffffffffffffffffffff169060200190929190505050611c2e565b005b6107c36004803603602081101561079757600080fd5b81019080803573ffffffffffffffffffffffffffffffffffffffff169060200190929190505050611de9565b60405180806020018481526020018373ffffffffffffffffffffffffffffffffffffffff168152602001828103825285818151815260200191508051906020019080838360005b8381101561082557808201518184015260208101905061080a565b50505050905090810190601f1680156108525780820380516001836020036101000a031916815260200191505b5094505050505060405180910390f35b6109196004803603606081101561087857600080fd5b81019080803573ffffffffffffffffffffffffffffffffffffffff169060200190929190803573ffffffffffffffffffffffffffffffffffffffff169060200190929190803590602001906401000000008111156108d557600080fd5b8201836020820111156108e757600080fd5b8035906020019184600183028401116401000000008311171561090957600080fd5b9091929391929390505050611e1c565b005b6109926004803603602081101561093157600080fd5b810190808035906020019064010000000081111561094e57600080fd5b82018360208201111561096057600080fd5b8035906020019184602083028401116401000000008311171561098257600080fd5b9091929391929390505050611f9c565b604051808373ffffffffffffffffffffffffffffffffffffffff1681526020018281526020019250505060405180910390f35b6109cd612090565b6040518082815260200191505060405180910390f35b610a25600480360360208110156109f957600080fd5b81019080803573ffffffffffffffffffffffffffffffffffffffff1690602001909291905050506120a1565b005b610a6960048036036020811015610a3d57600080fd5b81019080803573ffffffffffffffffffffffffffffffffffffffff169060200190929190505050612286565b60405180821515815260200191505060405180910390f35b610ac360048036036020811015610a9757600080fd5b81019080803573ffffffffffffffffffffffffffffffffffffffff169060200190929190505050612298565b60405180821515815260200191505060405180910390f35b610b1d60048036036020811015610af157600080fd5b81019080803573ffffffffffffffffffffffffffffffffffffffff1690602001909291905050506122aa565b604051808273ffffffffffffffffffffffffffffffffffffffff16815260200191505060405180910390f35b610b9560048036036040811015610b5f57600080fd5b81019080803573ffffffffffffffffffffffffffffffffffffffff169060200190929190803590602001909291905050506122c7565b6040518083815260200182151581526020019250505060405180910390f35b610c2b60048036036020811015610bca57600080fd5b8101908080359060200190640100000000811115610be757600080fd5b820183602082011115610bf957600080fd5b80359060200191846001830284011164010000000083111715610c1b57600080fd5b9091929391929390505050612392565b005b610c7960048036036040811015610c4357600080fd5b81019080803573ffffffffffffffffffffffffffffffffffffffff16906020019092919080359060200190929190505050612720565b005b610ca760048036036020811015610c9157600080fd5b81019080803590602001909291905050506129d4565b6040518082815260200191505060405180910390f35b610cff60048036036020811015610cd357600080fd5b81019080803573ffffffffffffffffffffffffffffffffffffffff1690602001909291905050506129f1565b005b610d09612ba9565b604051808273ffffffffffffffffffffffffffffffffffffffff16815260200191505060405180910390f35b610d6b60048036036040811015610d4b57600080fd5b810190808035906020019092919080359060200190929190505050612bcf565b6040518082815260200191505060405180910390f35b610e1860048036036040811015610d9757600080fd5b81019080803573ffffffffffffffffffffffffffffffffffffffff16906020019092919080359060200190640100000000811115610dd457600080fd5b820183602082011115610de657600080fd5b80359060200191846001830284011164010000000083111715610e0857600080fd5b9091929391929390505050612bef565b005b610e5c60048036036020811015610e3057600080fd5b81019080803573ffffffffffffffffffffffffffffffffffffffff169060200190929190505050612e1a565b005b603360009054906101000a900473ffffffffffffffffffffffffffffffffffffffff1681565b6000610e9a82606861305390919063ffffffff16565b9050919050565b610eb533606661309390919063ffffffff16565b80610f805750603360009054906101000a900473ffffffffffffffffffffffffffffffffffffffff1673ffffffffffffffffffffffffffffffffffffffff1663d994d6d5336040518263ffffffff1660e01b8152600401808273ffffffffffffffffffffffffffffffffffffffff16815260200191505060206040518083038186803b158015610f4457600080fd5b505afa158015610f58573d6000803e3d6000fd5b505050506040513d6020811015610f6e57600080fd5b81019080805190602001909291905050505b610ff2576040517f08c379a000000000000000000000000000000000000000000000000000000000815260040180806020018281038252601a8152602001807f41646472657373206973206e6f742077686974656c697374656400000000000081525060200191505060405180910390fd5b610ffb82613155565b61106d576040517f08c379a00000000000000000000000000000000000000000000000000000000081526004018080602001828103825260158152602001807f4f7261636c65206e6f742072656769737465726564000000000000000000000081525060200191505060405180910390fd5b600061107882613172565b90508073ffffffffffffffffffffffffffffffffffffffff166341a7726a846040518263ffffffff1660e01b8152600401808273ffffffffffffffffffffffffffffffffffffffff168152602001915050600060405180830381600087803b1580156110e357600080fd5b505af11580156110f7573d6000803e3d6000fd5b505050507fbae3f5a20a1809a3e2cd9145715cd95d54eb011ff2e1265ebc6abb2d91b7b9e68383604051808373ffffffffffffffffffffffffffffffffffffffff1681526020018281526020019250505060405180910390a1505050565b606e5481565b600060666111698133613093565b6111db576040517f08c379a000000000000000000000000000000000000000000000000000000000815260040180806020018281038252601a8152602001807f41646472657373206973206e6f742077686974656c697374656400000000000081525060200191505060405180910390fd5b60006111e7606861318f565b905060008060005b8381101561137f5760006112156112108360686131a090919063ffffffff16565b613172565b90508073ffffffffffffffffffffffffffffffffffffffff1663b92ae87c896040518263ffffffff1660e01b8152600401808273ffffffffffffffffffffffffffffffffffffffff16815260200191505060206040518083038186803b15801561127e57600080fd5b505afa158015611292573d6000803e3d6000fd5b505050506040513d60208110156112a857600080fd5b810190808051906020019092919050505015611371578073ffffffffffffffffffffffffffffffffffffffff16633a82b50d896040518263ffffffff1660e01b8152600401808273ffffffffffffffffffffffffffffffffffffffff168152602001915050602060405180830381600087803b15801561132757600080fd5b505af115801561133b573d6000803e3d6000fd5b505050506040513d602081101561135157600080fd5b8101908080519060200190929190505050935082841115611370578392505b5b5080806001019150506111ef565b5080945050505050919050565b600061139782613155565b80156113a857506113a782613240565b5b9050919050565b60008060606113c884606a61334790919063ffffffff16565b9250925092509193909250565b6113e933606661309390919063ffffffff16565b806114b45750603360009054906101000a900473ffffffffffffffffffffffffffffffffffffffff1673ffffffffffffffffffffffffffffffffffffffff1663d994d6d5336040518263ffffffff1660e01b8152600401808273ffffffffffffffffffffffffffffffffffffffff16815260200191505060206040518083038186803b15801561147857600080fd5b505afa15801561148c573d6000803e3d6000fd5b505050506040513d60208110156114a257600080fd5b81019080805190602001909291905050505b611526576040517f08c379a000000000000000000000000000000000000000000000000000000000815260040180806020018281038252601a8152602001807f41646472657373206973206e6f742077686974656c697374656400000000000081525060200191505060405180910390fd5b61152f82613155565b6115a1576040517f08c379a00000000000000000000000000000000000000000000000000000000081526004018080602001828103825260158152602001807f4f7261636c65206e6f742072656769737465726564000000000000000000000081525060200191505060405180910390fd5b6115b78282606a6135709092919063ffffffff16565b5050565b600060019054906101000a900460ff16806115da57506115d96138b1565b5b806115f0575060008054906101000a900460ff16155b611645576040517f08c379a000000000000000000000000000000000000000000000000000000000815260040180806020018281038252602e815260200180615399602e913960400191505060405180910390fd5b60008060019054906101000a900460ff161590508015611695576001600060016101000a81548160ff02191690831515021790555060016000806101000a81548160ff0219169083151502179055505b600073ffffffffffffffffffffffffffffffffffffffff168473ffffffffffffffffffffffffffffffffffffffff16141561171b576040517f08c379a00000000000000000000000000000000000000000000000000000000081526004018080602001828103825260258152602001806153366025913960400191505060405180910390fd5b60008511611774576040517f08c379a000000000000000000000000000000000000000000000000000000000815260040180806020018281038252603e81526020018061535b603e913960400191505060405180910390fd5b61177d866138c8565b83606d60006101000a81548173ffffffffffffffffffffffffffffffffffffffff021916908373ffffffffffffffffffffffffffffffffffffffff16021790555084606e8190555060005b8383905081101561181c5761180f8484838181106117e257fe5b9050602002013573ffffffffffffffffffffffffffffffffffffffff16606661390c90919063ffffffff16565b80806001019150506117c8565b50801561183e5760008060016101000a81548160ff0219169083151502179055505b505050505050565b600061185c82606a613a4190919063ffffffff16565b9050919050565b600061186f606861318f565b905090565b6000606d60009054906101000a900473ffffffffffffffffffffffffffffffffffffffff1673ffffffffffffffffffffffffffffffffffffffff1663f8b2cb4f836040518263ffffffff1660e01b8152600401808273ffffffffffffffffffffffffffffffffffffffff16815260200191505060206040518083038186803b1580156118ff57600080fd5b505afa158015611913573d6000803e3d6000fd5b505050506040513d602081101561192957600080fd5b81019080805190602001909291905050509050919050565b600061194c83613155565b6119be576040517f08c379a00000000000000000000000000000000000000000000000000000000081526004018080602001828103825260198152602001807f4f7261636c65206973206e6f7420726567697374657265642e0000000000000081525060200191505060405180910390fd5b60006119c983613172565b90508073ffffffffffffffffffffffffffffffffffffffff1663b92ae87c856040518263ffffffff1660e01b8152600401808273ffffffffffffffffffffffffffffffffffffffff16815260200191505060206040518083038186803b158015611a3257600080fd5b505afa158015611a46573d6000803e3d6000fd5b505050506040513d6020811015611a5c57600080fd5b810190808051906020019092919050505091505092915050565b603360009054906101000a900473ffffffffffffffffffffffffffffffffffffffff1673ffffffffffffffffffffffffffffffffffffffff1663d994d6d5336040518263ffffffff1660e01b8152600401808273ffffffffffffffffffffffffffffffffffffffff16815260200191505060206040518083038186803b158015611aff57600080fd5b505afa158015611b13573d6000803e3d6000fd5b505050506040513d6020811015611b2957600080fd5b81019080805190602001909291905050506040518060400160405280601681526020017f6e6f745f617574686f72697a65645f6368616e6765720000000000000000000081525090611c16576040517f08c379a00000000000000000000000000000000000000000000000000000000081526004018080602001828103825283818151815260200191508051906020019080838360005b83811015611bdb578082015181840152602081019050611bc0565b50505050905090810190601f168015611c085780820380516001836020036101000a031916815260200191505b509250505060405180910390fd5b50611c2b816066613b2390919063ffffffff16565b50565b603360009054906101000a900473ffffffffffffffffffffffffffffffffffffffff1673ffffffffffffffffffffffffffffffffffffffff1663d994d6d5336040518263ffffffff1660e01b8152600401808273ffffffffffffffffffffffffffffffffffffffff16815260200191505060206040518083038186803b158015611cb757600080fd5b505afa158015611ccb573d6000803e3d6000fd5b505050506040513d6020811015611ce157600080fd5b81019080805190602001909291905050506040518060400160405280601681526020017f6e6f745f617574686f72697a65645f6368616e6765720000000000000000000081525090611dce576040517f08c379a00000000000000000000000000000000000000000000000000000000081526004018080602001828103825283818151815260200191508051906020019080838360005b83811015611d93578082015181840152602081019050611d78565b50505050905090810190601f168015611dc05780820380516001836020036101000a031916815260200191505b509250505060405180910390fd5b50611de582826068613c589092919063ffffffff16565b5050565b6060600080611e0284606a613e5690919063ffffffff16565b8094508192505050611e1384611874565b91509193909250565b6066611e288133613093565b611e9a576040517f08c379a000000000000000000000000000000000000000000000000000000000815260040180806020018281038252601a8152602001807f41646472657373206973206e6f742077686974656c697374656400000000000081525060200191505060405180910390fd5b611ef6858585858080601f016020809104026020016040519081016040528093929190818152602001838380828437600081840152601f19601f82011690508083019250505050505050606a614044909392919063ffffffff16565b7fb7bb8775a84959c3e709bbe27458867ef3a8a1b07968104f82f0b065b20a51b485858585604051808573ffffffffffffffffffffffffffffffffffffffff1681526020018473ffffffffffffffffffffffffffffffffffffffff168152602001806020018281038252848482818152602001925080828437600081840152601f19601f8201169050808301925050509550505050505060405180910390a15050505050565b600080606d60009054906101000a900473ffffffffffffffffffffffffffffffffffffffff1673ffffffffffffffffffffffffffffffffffffffff1663a5cfab9a85856040518363ffffffff1660e01b815260040180806020018281038252848482818152602001925060200280828437600081840152601f19601f8201169050808301925050509350505050604080518083038186803b15801561204057600080fd5b505afa158015612054573d6000803e3d6000fd5b505050506040513d604081101561206a57600080fd5b810190808051906020019092919080519060200190929190505050915091509250929050565b600061209c606a614415565b905090565b603360009054906101000a900473ffffffffffffffffffffffffffffffffffffffff1673ffffffffffffffffffffffffffffffffffffffff1663d994d6d5336040518263ffffffff1660e01b8152600401808273ffffffffffffffffffffffffffffffffffffffff16815260200191505060206040518083038186803b15801561212a57600080fd5b505afa15801561213e573d6000803e3d6000fd5b505050506040513d602081101561215457600080fd5b81019080805190602001909291905050506040518060400160405280601681526020017f6e6f745f617574686f72697a65645f6368616e6765720000000000000000000081525090612241576040517f08c379a00000000000000000000000000000000000000000000000000000000081526004018080602001828103825283818151815260200191508051906020019080838360005b838110156122065780820151818401526020810190506121eb565b50505050905090810190601f1680156122335780820380516001836020036101000a031916815260200191505b509250505060405180910390fd5b5080603360006101000a81548173ffffffffffffffffffffffffffffffffffffffff021916908373ffffffffffffffffffffffffffffffffffffffff16021790555050565b600061229182613155565b9050919050565b60006122a382613155565b9050919050565b60006122c082606a61442690919063ffffffff16565b9050919050565b60008060006122d584613172565b90508073ffffffffffffffffffffffffffffffffffffffff16638458c1dd866040518263ffffffff1660e01b8152600401808273ffffffffffffffffffffffffffffffffffffffff168152602001915050604080518083038186803b15801561233d57600080fd5b505afa158015612351573d6000803e3d6000fd5b505050506040513d604081101561236757600080fd5b8101908080519060200190929190805190602001909291905050508093508194505050509250929050565b603360009054906101000a900473ffffffffffffffffffffffffffffffffffffffff1673ffffffffffffffffffffffffffffffffffffffff1663d994d6d5336040518263ffffffff1660e01b8152600401808273ffffffffffffffffffffffffffffffffffffffff16815260200191505060206040518083038186803b15801561241b57600080fd5b505afa15801561242f573d6000803e3d6000fd5b505050506040513d602081101561244557600080fd5b81019080805190602001909291905050506040518060400160405280601681526020017f6e6f745f617574686f72697a65645f6368616e6765720000000000000000000081525090612532576040517f08c379a00000000000000000000000000000000000000000000000000000000081526004018080602001828103825283818151815260200191508051906020019080838360005b838110156124f75780820151818401526020810190506124dc565b50505050905090810190601f1680156125245780820380516001836020036101000a031916815260200191505b509250505060405180910390fd5b50600033905060008173ffffffffffffffffffffffffffffffffffffffff16848460405160240180806020018281038252848482818152602001925080828437600081840152601f19601f82011690508083019250505093505050506040516020818303038152906040527fa16227ca000000000000000000000000000000000000000000000000000000007bffffffffffffffffffffffffffffffffffffffffffffffffffffffff19166020820180517bffffffffffffffffffffffffffffffffffffffffffffffffffffffff83818316178352505050506040518082805190602001908083835b6020831061263e578051825260208201915060208101905060208303925061261b565b6001836020036101000a038019825116818451168082178552505050505050905001915050600060405180830381855af49150503d806000811461269e576040519150601f19603f3d011682016040523d82523d6000602084013e6126a3565b606091505b505090508061271a576040517f08c379a00000000000000000000000000000000000000000000000000000000081526004018080602001828103825260168152602001807f4572726f7220696e2064656c65676174652063616c6c0000000000000000000081525060200191505060405180910390fd5b50505050565b61273433606661309390919063ffffffff16565b806127ff5750603360009054906101000a900473ffffffffffffffffffffffffffffffffffffffff1673ffffffffffffffffffffffffffffffffffffffff1663d994d6d5336040518263ffffffff1660e01b8152600401808273ffffffffffffffffffffffffffffffffffffffff16815260200191505060206040518083038186803b1580156127c357600080fd5b505afa1580156127d7573d6000803e3d6000fd5b505050506040513d60208110156127ed57600080fd5b81019080805190602001909291905050505b612871576040517f08c379a000000000000000000000000000000000000000000000000000000000815260040180806020018281038252601a8152602001807f41646472657373206973206e6f742077686974656c697374656400000000000081525060200191505060405180910390fd5b61287a82613155565b6128ec576040517f08c379a00000000000000000000000000000000000000000000000000000000081526004018080602001828103825260158152602001807f4f7261636c65206e6f742072656769737465726564000000000000000000000081525060200191505060405180910390fd5b60006128f782613172565b90508073ffffffffffffffffffffffffffffffffffffffff16637262561c846040518263ffffffff1660e01b8152600401808273ffffffffffffffffffffffffffffffffffffffff168152602001915050600060405180830381600087803b15801561296257600080fd5b505af1158015612976573d6000803e3d6000fd5b505050507f6e2cdc979f909ee89fbe76dab69fa25a3a2304d51c6b8289c3cbd37932a5430f8383604051808373ffffffffffffffffffffffffffffffffffffffff1681526020018281526020019250505060405180910390a1505050565b60006129ea8260686131a090919063ffffffff16565b9050919050565b603360009054906101000a900473ffffffffffffffffffffffffffffffffffffffff1673ffffffffffffffffffffffffffffffffffffffff1663d994d6d5336040518263ffffffff1660e01b8152600401808273ffffffffffffffffffffffffffffffffffffffff16815260200191505060206040518083038186803b158015612a7a57600080fd5b505afa158015612a8e573d6000803e3d6000fd5b505050506040513d6020811015612aa457600080fd5b81019080805190602001909291905050506040518060400160405280601681526020017f6e6f745f617574686f72697a65645f6368616e6765720000000000000000000081525090612b91576040517f08c379a00000000000000000000000000000000000000000000000000000000081526004018080602001828103825283818151815260200191508051906020019080838360005b83811015612b56578082015181840152602081019050612b3b565b50505050905090810190601f168015612b835780820380516001836020036101000a031916815260200191505b509250505060405180910390fd5b50612ba681606661390c90919063ffffffff16565b50565b606d60009054906101000a900473ffffffffffffffffffffffffffffffffffffffff1681565b6000612be7838360686144929092919063ffffffff16565b905092915050565b612c0333606661309390919063ffffffff16565b80612cce5750603360009054906101000a900473ffffffffffffffffffffffffffffffffffffffff1673ffffffffffffffffffffffffffffffffffffffff1663d994d6d5336040518263ffffffff1660e01b8152600401808273ffffffffffffffffffffffffffffffffffffffff16815260200191505060206040518083038186803b158015612c9257600080fd5b505afa158015612ca6573d6000803e3d6000fd5b505050506040513d6020811015612cbc57600080fd5b81019080805190602001909291905050505b612d40576040517f08c379a000000000000000000000000000000000000000000000000000000000815260040180806020018281038252601a8152602001807f41646472657373206973206e6f742077686974656c697374656400000000000081525060200191505060405180910390fd5b612d4983613155565b612dbb576040517f08c379a00000000000000000000000000000000000000000000000000000000081526004018080602001828103825260158152602001807f4f7261636c65206e6f742072656769737465726564000000000000000000000081525060200191505060405180910390fd5b612e158383838080601f016020809104026020016040519081016040528093929190818152602001838380828437600081840152601f19601f82011690508083019250505050505050606a61456f9092919063ffffffff16565b505050565b612e2e33606661309390919063ffffffff16565b80612ef95750603360009054906101000a900473ffffffffffffffffffffffffffffffffffffffff1673ffffffffffffffffffffffffffffffffffffffff1663d994d6d5336040518263ffffffff1660e01b8152600401808273ffffffffffffffffffffffffffffffffffffffff16815260200191505060206040518083038186803b158015612ebd57600080fd5b505afa158015612ed1573d6000803e3d6000fd5b505050506040513d6020811015612ee757600080fd5b81019080805190602001909291905050505b612f6b576040517f08c379a000000000000000000000000000000000000000000000000000000000815260040180806020018281038252601a8152602001807f41646472657373206973206e6f742077686974656c697374656400000000000081525060200191505060405180910390fd5b612f7481613155565b612fe6576040517f08c379a00000000000000000000000000000000000000000000000000000000081526004018080602001828103825260158152602001807f4f7261636c65206e6f742072656769737465726564000000000000000000000081525060200191505060405180910390fd5b612fef816146e6565b61300381606a61485b90919063ffffffff16565b7f9c8e7d83025bef8a04c664b2f753f64b8814bdb7e27291d7e50935f18cc3c71281604051808273ffffffffffffffffffffffffffffffffffffffff16815260200191505060405180910390a150565b600082600001600083815260200190815260200160002060009054906101000a900473ffffffffffffffffffffffffffffffffffffffff16905092915050565b60008073ffffffffffffffffffffffffffffffffffffffff168273ffffffffffffffffffffffffffffffffffffffff161415613137576040517f08c379a00000000000000000000000000000000000000000000000000000000081526004018080602001828103825260178152602001807f4163636f756e74206d757374206e6f742062652030783000000000000000000081525060200191505060405180910390fd5b61314d8284600001614e2c90919063ffffffff16565b905092915050565b600061316b82606a614e7b90919063ffffffff16565b9050919050565b600061318882606861305390919063ffffffff16565b9050919050565b600081600101805490509050919050565b60008260010180549050821061321e576040517f08c379a000000000000000000000000000000000000000000000000000000000815260040180806020018281038252600d8152602001807f496c6c6567616c20696e6465780000000000000000000000000000000000000081525060200191505060405180910390fd5b82600101828154811061322d57fe5b9060005260206000200154905092915050565b60008061324d606861318f565b905060005b8181101561333b5760006132786132738360686131a090919063ffffffff16565b613172565b90508073ffffffffffffffffffffffffffffffffffffffff1663b92ae87c866040518263ffffffff1660e01b8152600401808273ffffffffffffffffffffffffffffffffffffffff16815260200191505060206040518083038186803b1580156132e157600080fd5b505afa1580156132f5573d6000803e3d6000fd5b505050506040513d602081101561330b57600080fd5b81019080805190602001909291905050501561332d5760009350505050613342565b508080600101915050613252565b5060019150505b919050565b6000806060846000018054905084106133c8576040517f08c379a000000000000000000000000000000000000000000000000000000000815260040180806020018281038252600d8152602001807f496c6c6567616c20696e6465780000000000000000000000000000000000000081525060200191505060405180910390fd5b6133d0615220565b8560000185815481106133df57fe5b90600052602060002090600202016040518060400160405290816000820160009054906101000a900473ffffffffffffffffffffffffffffffffffffffff1673ffffffffffffffffffffffffffffffffffffffff1673ffffffffffffffffffffffffffffffffffffffff168152602001600182018054600181600116156101000203166002900480601f0160208091040260200160405190810160405280929190818152602001828054600181600116156101000203166002900480156134e75780601f106134bc576101008083540402835291602001916134e7565b820191906000526020600020905b8154815290600101906020018083116134ca57829003601f168201915b5050505050815250509050856002016000826000015173ffffffffffffffffffffffffffffffffffffffff1673ffffffffffffffffffffffffffffffffffffffff16815260200190815260200160002060009054906101000a900473ffffffffffffffffffffffffffffffffffffffff1681600001518260200151935093509350509250925092565b61357a8383614e7b565b6135ec576040517f08c379a000000000000000000000000000000000000000000000000000000000815260040180806020018281038252601e8152602001807f4f7261636c65206f776e6572206973206e6f742072656769737465726564000081525060200191505060405180910390fd5b6135f68382614eca565b15613669576040517f08c379a00000000000000000000000000000000000000000000000000000000081526004018080602001828103825260198152602001807f4f7261636c6520616c726561647920726567697374657265640000000000000081525060200191505060405180910390fd5b600073ffffffffffffffffffffffffffffffffffffffff168273ffffffffffffffffffffffffffffffffffffffff16141561370c576040517f08c379a000000000000000000000000000000000000000000000000000000000815260040180806020018281038252601b8152602001807f4f776e657220616464726573732063616e6e6f7420626520307830000000000081525060200191505060405180910390fd5b60008360010160008473ffffffffffffffffffffffffffffffffffffffff1673ffffffffffffffffffffffffffffffffffffffff16815260200190815260200160002054905060008114156137c9576040517f08c379a00000000000000000000000000000000000000000000000000000000081526004018080602001828103825260148152602001807f4f776e6572206e6f74207265676973746572656400000000000000000000000081525060200191505060405180910390fd5b818460000160018303815481106137dc57fe5b906000526020600020906002020160000160006101000a81548173ffffffffffffffffffffffffffffffffffffffff021916908373ffffffffffffffffffffffffffffffffffffffff160217905550828460020160008473ffffffffffffffffffffffffffffffffffffffff1673ffffffffffffffffffffffffffffffffffffffff16815260200190815260200160002060006101000a81548173ffffffffffffffffffffffffffffffffffffffff021916908373ffffffffffffffffffffffffffffffffffffffff16021790555050505050565b6000803090506000813b9050600081149250505090565b80603360006101000a81548173ffffffffffffffffffffffffffffffffffffffff021916908373ffffffffffffffffffffffffffffffffffffffff16021790555050565b600073ffffffffffffffffffffffffffffffffffffffff168173ffffffffffffffffffffffffffffffffffffffff1614156139af576040517f08c379a00000000000000000000000000000000000000000000000000000000081526004018080602001828103825260178152602001807f4163636f756e74206d757374206e6f742062652030783000000000000000000081525060200191505060405180910390fd5b60006139c78284600001614f6590919063ffffffff16565b905080613a3c576040517f08c379a000000000000000000000000000000000000000000000000000000000815260040180806020018281038252601b8152602001807f4163636f756e7420616c72656164792077686974656c6973746564000000000081525060200191505060405180910390fd5b505050565b6000808360010160008473ffffffffffffffffffffffffffffffffffffffff1673ffffffffffffffffffffffffffffffffffffffff168152602001908152602001600020541415613a955760009050613b1d565b8260000160018460010160008573ffffffffffffffffffffffffffffffffffffffff1673ffffffffffffffffffffffffffffffffffffffff168152602001908152602001600020540381548110613ae857fe5b906000526020600020906002020160000160009054906101000a900473ffffffffffffffffffffffffffffffffffffffff1690505b92915050565b600073ffffffffffffffffffffffffffffffffffffffff168173ffffffffffffffffffffffffffffffffffffffff161415613bc6576040517f08c379a00000000000000000000000000000000000000000000000000000000081526004018080602001828103825260178152602001807f4163636f756e74206d757374206e6f742062652030783000000000000000000081525060200191505060405180910390fd5b6000613bde828460000161503b90919063ffffffff16565b905080613c53576040517f08c379a000000000000000000000000000000000000000000000000000000000815260040180806020018281038252600f8152602001807f4d697373696e67206163636f756e74000000000000000000000000000000000081525060200191505060405180910390fd5b505050565b600073ffffffffffffffffffffffffffffffffffffffff168173ffffffffffffffffffffffffffffffffffffffff161415613cfb576040517f08c379a00000000000000000000000000000000000000000000000000000000081526004018080602001828103825260168152602001807f416464726573732063616e6e6f74206265207a65726f0000000000000000000081525060200191505060405180910390fd5b600073ffffffffffffffffffffffffffffffffffffffff1683600001600084815260200190815260200160002060009054906101000a900473ffffffffffffffffffffffffffffffffffffffff1673ffffffffffffffffffffffffffffffffffffffff1614613dd2576040517f08c379a000000000000000000000000000000000000000000000000000000000815260040180806020018281038252601a8152602001807f5061697220697320616c7265616479207265676973746572656400000000000081525060200191505060405180910390fd5b8083600001600084815260200190815260200160002060006101000a81548173ffffffffffffffffffffffffffffffffffffffff021916908373ffffffffffffffffffffffffffffffffffffffff16021790555082600101829080600181540180825580915050600190039060005260206000200160009091909190915055505050565b6000606060008460010160008573ffffffffffffffffffffffffffffffffffffffff1673ffffffffffffffffffffffffffffffffffffffff168152602001908152602001600020541415613ebf576000604051806020016040528060008152509150915061403d565b613ec7615220565b8460000160018660010160008773ffffffffffffffffffffffffffffffffffffffff1673ffffffffffffffffffffffffffffffffffffffff168152602001908152602001600020540381548110613f1a57fe5b90600052602060002090600202016040518060400160405290816000820160009054906101000a900473ffffffffffffffffffffffffffffffffffffffff1673ffffffffffffffffffffffffffffffffffffffff1673ffffffffffffffffffffffffffffffffffffffff168152602001600182018054600181600116156101000203166002900480601f0160208091040260200160405190810160405280929190818152602001828054600181600116156101000203166002900480156140225780601f10613ff757610100808354040283529160200191614022565b820191906000526020600020905b81548152906001019060200180831161400557829003601f168201915b50505050508152505090508060000151816020015192509250505b9250929050565b600073ffffffffffffffffffffffffffffffffffffffff168373ffffffffffffffffffffffffffffffffffffffff1614156140e7576040517f08c379a000000000000000000000000000000000000000000000000000000000815260040180806020018281038252601b8152602001807f4f776e657220616464726573732063616e6e6f7420626520307830000000000081525060200191505060405180910390fd5b600073ffffffffffffffffffffffffffffffffffffffff168273ffffffffffffffffffffffffffffffffffffffff16141561418a576040517f08c379a000000000000000000000000000000000000000000000000000000000815260040180806020018281038252601c8152602001807f4f7261636c6520616464726573732063616e6e6f74206265203078300000000081525060200191505060405180910390fd5b6141948484614e7b565b15614207576040517f08c379a00000000000000000000000000000000000000000000000000000000081526004018080602001828103825260188152602001807f4f776e657220616c72656164792072656769737465726564000000000000000081525060200191505060405180910390fd5b6142118483614eca565b15614284576040517f08c379a00000000000000000000000000000000000000000000000000000000081526004018080602001828103825260198152602001807f4f7261636c6520616c726561647920726567697374657265640000000000000081525060200191505060405180910390fd5b828460020160008473ffffffffffffffffffffffffffffffffffffffff1673ffffffffffffffffffffffffffffffffffffffff16815260200190815260200160002060006101000a81548173ffffffffffffffffffffffffffffffffffffffff021916908373ffffffffffffffffffffffffffffffffffffffff1602179055508360000160405180604001604052808473ffffffffffffffffffffffffffffffffffffffff16815260200183815250908060018154018082558091505060019003906000526020600020906002020160009091909190915060008201518160000160006101000a81548173ffffffffffffffffffffffffffffffffffffffff021916908373ffffffffffffffffffffffffffffffffffffffff16021790555060208201518160010190805190602001906143bf929190615250565b50505083600001805490508460010160008573ffffffffffffffffffffffffffffffffffffffff1673ffffffffffffffffffffffffffffffffffffffff1681526020019081526020016000208190555050505050565b600081600001805490509050919050565b60008260020160008373ffffffffffffffffffffffffffffffffffffffff1673ffffffffffffffffffffffffffffffffffffffff16815260200190815260200160002060009054906101000a900473ffffffffffffffffffffffffffffffffffffffff16905092915050565b600083600101805490508210614510576040517f08c379a000000000000000000000000000000000000000000000000000000000815260040180806020018281038252600d8152602001807f496c6c6567616c20696e6465780000000000000000000000000000000000000081525060200191505060405180910390fd5b60008290505b846001018054905081101561455c578385600101828154811061453557fe5b9060005260206000200154141561454f5780915050614568565b8080600101915050614516565b50836001018054905090505b9392505050565b6145798383614e7b565b6145eb576040517f08c379a000000000000000000000000000000000000000000000000000000000815260040180806020018281038252601e8152602001807f4f7261636c65206f776e6572206973206e6f742072656769737465726564000081525060200191505060405180910390fd5b60008360010160008473ffffffffffffffffffffffffffffffffffffffff1673ffffffffffffffffffffffffffffffffffffffff16815260200190815260200160002054905060008114156146a8576040517f08c379a00000000000000000000000000000000000000000000000000000000081526004018080602001828103825260148152602001807f4f776e6572206e6f74207265676973746572656400000000000000000000000081525060200191505060405180910390fd5b818460000160018303815481106146bb57fe5b906000526020600020906002020160010190805190602001906146df929190615250565b5050505050565b60006146f2606861318f565b905060005b8181101561485657600061471d6147188360686131a090919063ffffffff16565b613172565b90508073ffffffffffffffffffffffffffffffffffffffff1663b92ae87c856040518263ffffffff1660e01b8152600401808273ffffffffffffffffffffffffffffffffffffffff16815260200191505060206040518083038186803b15801561478657600080fd5b505afa15801561479a573d6000803e3d6000fd5b505050506040513d60208110156147b057600080fd5b810190808051906020019092919050505015614848578073ffffffffffffffffffffffffffffffffffffffff16637262561c856040518263ffffffff1660e01b8152600401808273ffffffffffffffffffffffffffffffffffffffff168152602001915050600060405180830381600087803b15801561482f57600080fd5b505af1158015614843573d6000803e3d6000fd5b505050505b5080806001019150506146f7565b505050565b600073ffffffffffffffffffffffffffffffffffffffff168173ffffffffffffffffffffffffffffffffffffffff1614156148fe576040517f08c379a000000000000000000000000000000000000000000000000000000000815260040180806020018281038252601b8152602001807f4f776e657220616464726573732063616e6e6f7420626520307830000000000081525060200191505060405180910390fd5b60008260010160008373ffffffffffffffffffffffffffffffffffffffff1673ffffffffffffffffffffffffffffffffffffffff16815260200190815260200160002054905060008114156149bb576040517f08c379a00000000000000000000000000000000000000000000000000000000081526004018080602001828103825260148152602001807f4f776e6572206e6f74207265676973746572656400000000000000000000000081525060200191505060405180910390fd5b600060018203905060008460000182815481106149d457fe5b906000526020600020906002020160000160009054906101000a900473ffffffffffffffffffffffffffffffffffffffff169050600060018660000180549050039050614a1f615220565b866000018281548110614a2e57fe5b90600052602060002090600202016040518060400160405290816000820160009054906101000a900473ffffffffffffffffffffffffffffffffffffffff1673ffffffffffffffffffffffffffffffffffffffff1673ffffffffffffffffffffffffffffffffffffffff168152602001600182018054600181600116156101000203166002900480601f016020809104026020016040519081016040528092919081815260200182805460018160011615610100020316600290048015614b365780601f10614b0b57610100808354040283529160200191614b36565b820191906000526020600020905b815481529060010190602001808311614b1957829003601f168201915b50505050508152505090506000876002016000836000015173ffffffffffffffffffffffffffffffffffffffff1673ffffffffffffffffffffffffffffffffffffffff16815260200190815260200160002060009054906101000a900473ffffffffffffffffffffffffffffffffffffffff169050600073ffffffffffffffffffffffffffffffffffffffff168173ffffffffffffffffffffffffffffffffffffffff161415614c4e576040517f08c379a00000000000000000000000000000000000000000000000000000000081526004018080602001828103825260108152602001807f556e6578706563746564206572726f720000000000000000000000000000000081525060200191505060405180910390fd5b81886000018681548110614c5e57fe5b906000526020600020906002020160008201518160000160006101000a81548173ffffffffffffffffffffffffffffffffffffffff021916908373ffffffffffffffffffffffffffffffffffffffff1602179055506020820151816001019080519060200190614ccf929190615250565b50905050600185018860010160008373ffffffffffffffffffffffffffffffffffffffff1673ffffffffffffffffffffffffffffffffffffffff1681526020019081526020016000208190555087600001805480614d2957fe5b6001900381819060005260206000209060020201600080820160006101000a81549073ffffffffffffffffffffffffffffffffffffffff0219169055600182016000614d7591906152d0565b505090558760010160008873ffffffffffffffffffffffffffffffffffffffff1673ffffffffffffffffffffffffffffffffffffffff168152602001908152602001600020600090558760020160008573ffffffffffffffffffffffffffffffffffffffff1673ffffffffffffffffffffffffffffffffffffffff16815260200190815260200160002060006101000a81549073ffffffffffffffffffffffffffffffffffffffff02191690555050505050505050565b6000808360010160008473ffffffffffffffffffffffffffffffffffffffff1673ffffffffffffffffffffffffffffffffffffffff168152602001908152602001600020541415905092915050565b6000808360010160008473ffffffffffffffffffffffffffffffffffffffff1673ffffffffffffffffffffffffffffffffffffffff168152602001908152602001600020541415905092915050565b60008073ffffffffffffffffffffffffffffffffffffffff168360020160008473ffffffffffffffffffffffffffffffffffffffff1673ffffffffffffffffffffffffffffffffffffffff16815260200190815260200160002060009054906101000a900473ffffffffffffffffffffffffffffffffffffffff1673ffffffffffffffffffffffffffffffffffffffff161415905092915050565b6000614f718383614e2c565b6150305782600001829080600181540180825580915050600190039060005260206000200160009091909190916101000a81548173ffffffffffffffffffffffffffffffffffffffff021916908373ffffffffffffffffffffffffffffffffffffffff16021790555082600001805490508360010160008473ffffffffffffffffffffffffffffffffffffffff1673ffffffffffffffffffffffffffffffffffffffff1681526020019081526020016000208190555060019050615035565b600090505b92915050565b6000808360010160008473ffffffffffffffffffffffffffffffffffffffff1673ffffffffffffffffffffffffffffffffffffffff1681526020019081526020016000205490506000811461521457600060018203905060006001866000018054905003905060008660000182815481106150b257fe5b9060005260206000200160009054906101000a900473ffffffffffffffffffffffffffffffffffffffff169050808760000184815481106150ef57fe5b9060005260206000200160006101000a81548173ffffffffffffffffffffffffffffffffffffffff021916908373ffffffffffffffffffffffffffffffffffffffff160217905550600183018760010160008373ffffffffffffffffffffffffffffffffffffffff1673ffffffffffffffffffffffffffffffffffffffff168152602001908152602001600020819055508660000180548061518d57fe5b6001900381819060005260206000200160006101000a81549073ffffffffffffffffffffffffffffffffffffffff021916905590558660010160008773ffffffffffffffffffffffffffffffffffffffff1673ffffffffffffffffffffffffffffffffffffffff16815260200190815260200160002060009055600194505050505061521a565b60009150505b92915050565b6040518060400160405280600073ffffffffffffffffffffffffffffffffffffffff168152602001606081525090565b828054600181600116156101000203166002900490600052602060002090601f016020900481019282601f1061529157805160ff19168380011785556152bf565b828001600101855582156152bf579182015b828111156152be5782518255916020019190600101906152a3565b5b5090506152cc9190615318565b5090565b50805460018160011615610100020316600290046000825580601f106152f65750615315565b601f0160209004906000526020600020908101906153149190615318565b5b50565b5b80821115615331576000816000905550600101615319565b509056fe5374616b696e6720636f6e74726163742061646472657373206d75737420626520213d2030546865206d696e696d756d20636f696e207061697220737562736372697074696f6e207374616b6520616d6f756e742063616e6e6f74206265207a65726f436f6e747261637420696e7374616e63652068617320616c7265616479206265656e20696e697469616c697a6564a2646970667358221220641856e929ff31345a2dd952f04414d327e5fadd8dd508e6d13109e0cd8b1b6964736f6c634300060c0033",
    "immutableReferences": {},
    "source": "// SPDX-License-Identifier: UNLICENSED\npragma solidity 0.6.12;\n\nimport {SafeMath} from \"@openzeppelin/contracts-ethereum-package/contracts/math/SafeMath.sol\";\nimport {IERC20} from \"@openzeppelin/contracts-ethereum-package/contracts/token/ERC20/IERC20.sol\";\nimport {IGovernor} from \"@moc/shared/contracts/moc-governance/Governance/IGovernor.sol\";\nimport {Governed} from \"@moc/shared/contracts/moc-governance/Governance/Governed.sol\";\nimport {IterableOraclesLib} from \"./libs/IterableOraclesLib.sol\";\nimport {Staking} from \"./Staking.sol\";\nimport {CoinPairPrice} from \"./CoinPairPrice.sol\";\nimport {OracleManagerStorage} from \"./OracleManagerStorage.sol\";\n\ncontract OracleManager is OracleManagerStorage {\n    using SafeMath for uint256;\n\n    event OracleRegistered(address caller, address addr, string internetName);\n    event OracleStakeAdded(address caller, address addr, uint256 stake);\n    event OracleSubscribed(address caller, bytes32 coinpair);\n    event OracleUnsubscribed(address caller, bytes32 coinpair);\n    event OracleRemoved(address caller);\n\n    // -------------------------------------------------------------------------------------------------------------\n    //\n    //   Public interface\n    //\n    // -------------------------------------------------------------------------------------------------------------\n\n    /// @notice Construct this contract.\n    /// @param _governor The address of the contract which governs this one\n    /// @param _minCPSubscriptionStake The minimum amount of tokens required as stake for a coin pair subscription.\n    /// @param _stakingContract the Staking contract address.\n    /// @param _wlist whitelisted contract that can call this one (usually only staking).\n    function initialize(\n        IGovernor _governor,\n        uint256 _minCPSubscriptionStake,\n        Staking _stakingContract,\n        address[] calldata _wlist\n    ) external initializer {\n        require(address(_stakingContract) != address(0), \"Staking contract address must be != 0\");\n        require(\n            _minCPSubscriptionStake > 0,\n            \"The minimum coin pair subscription stake amount cannot be zero\"\n        );\n\n        Governed._initialize(_governor);\n        stakingContract = _stakingContract;\n\n        minCPSubscriptionStake = _minCPSubscriptionStake;\n        for (uint256 i = 0; i < _wlist.length; i++) {\n            iterableWhitelistData._addToWhitelist(_wlist[i]);\n        }\n    }\n\n    /// @notice Register a new coin pair contract.\n    /// @param coinPair The bytes32-encoded coinpair string (e.g. BTCUSD)\n    /// @param addr The contract address associated to the coinpair.\n    function registerCoinPair(bytes32 coinPair, address addr) external onlyAuthorizedChanger {\n        coinPairRegisterData._registerCoinPair(coinPair, addr);\n    }\n\n    /**\n     @notice Add to the list of contracts that can stake in this contract\n\n     @param  _whitelisted - the override coinPair\n    */\n    function addToWhitelist(address _whitelisted) external onlyAuthorizedChanger() {\n        iterableWhitelistData._addToWhitelist(_whitelisted);\n    }\n\n    /**\n     @notice Remove from the list of contracts that can stake in this contract\n\n     @param _whitelisted - the override coinPair\n    */\n    function removeFromWhitelist(address _whitelisted) external onlyAuthorizedChanger() {\n        iterableWhitelistData._removeFromWhitelist(_whitelisted);\n    }\n\n    /// @notice Registers an oracle in the system.\n    /// @param ownerAddr Address of the Oracle's owner.\n    /// @param oracleAddr Address of the Oracle to register.\n    /// @param internetName Public Internet name of this Oracle.\n    function registerOracle(\n        address ownerAddr,\n        address oracleAddr,\n        string calldata internetName\n    ) external onlyWhitelisted(iterableWhitelistData) {\n        registeredOracles._registerOracle(ownerAddr, oracleAddr, internetName);\n        emit OracleRegistered(ownerAddr, oracleAddr, internetName);\n    }\n\n    /// @notice The oracle owner did a partial withdrawal of funds\n    /// 1. The oracle address is searched by the owner address.\n    /// 2. Each coin pair to which the oracle is subscribed is consulted to:\n    ///   - Check if the new amount is enough to stay in the current round.\n    ///       If not the oracle is replaced and lost his points.\n    ///   - Get the timestamp for the round end.\n    /// The return value is the maximum timestamp from all the coin pairs.\n    /// @param oracleOwnerAddr Address of oracle owner\n    /// @return the timestamp until which the funds must be locked.\n    function onWithdraw(address oracleOwnerAddr)\n        external\n        onlyWhitelisted(iterableWhitelistData)\n        returns (uint256)\n    {\n        uint256 coinPairCount = coinPairRegisterData._getCoinPairCount();\n        uint256 timestamp = 0;\n        uint256 maxTimestamp = 0;\n        for (uint256 i = 0; i < coinPairCount; i++) {\n            CoinPairPrice cp = _getCoinPairAddress(coinPairRegisterData._getCoinPairAtIndex(i));\n            if (cp.isSubscribed(oracleOwnerAddr)) {\n                timestamp = cp.onWithdraw(oracleOwnerAddr);\n                if (timestamp > maxTimestamp) {\n                    maxTimestamp = timestamp;\n                }\n            }\n        }\n        return maxTimestamp;\n    }\n\n    /// @notice Used by the coin pair to get the oracle address from the oracleOwnerAddress.\n    /// @param  oracleOwnerAddr the address of the owner of the oracle.\n    /// @return oracleAddr Address of oracle\n    function getOracleAddress(address oracleOwnerAddr) public view returns (address oracleAddr) {\n        return registeredOracles._getOracleAddress(oracleOwnerAddr);\n    }\n\n    /// @notice Subscribe a registered oracle to participate in rounds of a registered coin-pair\n    /// @param ownerAddr Address of message sender\n    /// @param coinPair Name of coin pair\n    function subscribeToCoinPair(address ownerAddr, bytes32 coinPair)\n        external\n        authorizedChangerOrWhitelisted\n    {\n        require(_isOwnerRegistered(ownerAddr), \"Oracle not registered\");\n\n        CoinPairPrice ctAddr = _getCoinPairAddress(coinPair);\n        ctAddr.subscribe(ownerAddr);\n\n        emit OracleSubscribed(ownerAddr, coinPair);\n    }\n\n    /// @notice Unsubscribe a registered oracle from participating in rounds of a registered coin-pair\n    /// @param ownerAddr Address of message sender\n    /// @param coinPair Name of coin pair\n    function unSubscribeFromCoinPair(address ownerAddr, bytes32 coinPair)\n        external\n        authorizedChangerOrWhitelisted\n    {\n        require(_isOwnerRegistered(ownerAddr), \"Oracle not registered\");\n\n        CoinPairPrice ctAddr = _getCoinPairAddress(coinPair);\n        ctAddr.unsubscribe(ownerAddr);\n\n        emit OracleUnsubscribed(ownerAddr, coinPair);\n    }\n\n    /// @notice Returns true if an oracle is subscribed to a coin pair\n    function isSubscribed(address ownerAddr, bytes32 coinPair) external view returns (bool) {\n        require(_isOwnerRegistered(ownerAddr), \"Oracle is not registered.\");\n\n        CoinPairPrice ctAddr = _getCoinPairAddress(coinPair);\n        return ctAddr.isSubscribed(ownerAddr);\n    }\n\n    /// @notice Change the oracle \"internet\" name (URI)\n    /// @param ownerAddr Address of message sender\n    /// @param name The new name to set.\n    function setOracleName(address ownerAddr, string calldata name)\n        external\n        authorizedChangerOrWhitelisted\n    {\n        require(_isOwnerRegistered(ownerAddr), \"Oracle not registered\");\n        registeredOracles._setName(ownerAddr, name);\n    }\n\n    /// @notice Change the oracle \"internet\" name (URI)\n    /// @param ownerAddr Address of message sender\n    /// @param oracleAddr The new oracle address.s\n    function setOracleAddress(address ownerAddr, address oracleAddr)\n        external\n        authorizedChangerOrWhitelisted\n    {\n        require(_isOwnerRegistered(ownerAddr), \"Oracle not registered\");\n        registeredOracles._setOracleAddress(ownerAddr, oracleAddr);\n    }\n\n    /// @notice Return true if the oracle is registered in the contract\n    /// @param ownerAddr The address of the owner of the Oracle to check for.\n    function isOracleRegistered(address ownerAddr) external view returns (bool) {\n        return _isOwnerRegistered(ownerAddr);\n    }\n\n    /// @notice Returns round information for a registered oracle in a specific coin-pair.\n    /// @param ownerAddr address of the oracle owner to query for.\n    /// @param coinpair The coin pair to lookup.\n    function getOracleRoundInfo(address ownerAddr, bytes32 coinpair)\n        external\n        view\n        returns (uint256 points, bool selectedInCurrentRound)\n    {\n        CoinPairPrice ctAddr = _getCoinPairAddress(coinpair);\n        (points, selectedInCurrentRound) = ctAddr.getOracleRoundInfo(ownerAddr);\n    }\n\n    /// @notice Removes an oracle from the system if conditions in\n    ///         contract he is participating apply, returning it's stake.\n    /// @param ownerAddr Address of message sender\n    function removeOracle(address ownerAddr) external authorizedChangerOrWhitelisted {\n        require(_isOwnerRegistered(ownerAddr), \"Oracle not registered\");\n\n        _unsubscribeAll(ownerAddr);\n        registeredOracles._removeOracle(ownerAddr);\n        emit OracleRemoved(ownerAddr);\n    }\n\n    /// @notice Returns true if an oracle satisfies conditions to be removed from system.\n    /// @param ownerAddr the address of the owner of the oracle to lookup.\n    function canRemoveOracle(address ownerAddr) external view returns (bool) {\n        return _isOwnerRegistered(ownerAddr) && _canRemoveOracle(ownerAddr);\n    }\n\n    /// @notice Get the stake in MOCs that an oracle has.\n    /// @param ownerAddr The address of the oracle's owner.\n    function getStake(address ownerAddr) public view returns (uint256 balance) {\n        return stakingContract.getBalance(ownerAddr);\n    }\n\n    /// @notice Returns registration information for a registered Oracle.\n    /// @param ownerAddr The address of the oracle's owner.\n    function getOracleRegistrationInfo(address ownerAddr)\n        external\n        view\n        returns (\n            string memory internetName,\n            uint256 stake,\n            address oracleAddr\n        )\n    {\n        (oracleAddr, internetName) = registeredOracles._getOracleInfo(ownerAddr);\n        stake = getStake(ownerAddr);\n    }\n\n    /// @notice Returns true if oracle is registered.\n    /// @param ownerAddr The address of the oracle's owner.\n    function isRegistered(address ownerAddr) external view returns (bool) {\n        return _isOwnerRegistered(ownerAddr);\n    }\n\n    /// @notice Used by CoinPair\n    /// @param oracleAddr The oracle address not the owner address.\n    function getOracleOwner(address oracleAddr) external view returns (address) {\n        return registeredOracles._getOwner(oracleAddr);\n    }\n\n    /// @notice Returns the amount of owners registered.\n    function getRegisteredOraclesLen() external view returns (uint256) {\n        return registeredOracles._getLen();\n    }\n\n    /// @notice Returns the oracle name and address at index.\n    /// @param idx index to query.\n    function getRegisteredOracleAtIndex(uint256 idx)\n        external\n        view\n        returns (\n            address ownerAddr,\n            address oracleAddr,\n            string memory url\n        )\n    {\n        return registeredOracles._getOracleAtIndex(idx);\n    }\n\n    /// @notice Returns the count of registered coin pairs.\n    /// Keep in mind that Deleted coin-pairs will contain zeroed addresses.\n    function getCoinPairCount() external view returns (uint256) {\n        return coinPairRegisterData._getCoinPairCount();\n    }\n\n    /// @notice Returns the coin pair at index.\n    /// @param i index to query.\n    function getCoinPairAtIndex(uint256 i) external view returns (bytes32) {\n        return coinPairRegisterData._getCoinPairAtIndex(i);\n    }\n\n    /// @notice Return the contract address for a specified registered coin pair.\n    /// @param coinpair Coin-pair string to lookup (e.g: BTCUSD)\n    /// @return address Address of contract or zero if does not exist or was deleted.\n    function getContractAddress(bytes32 coinpair) external view returns (address) {\n        return coinPairRegisterData._getContractAddress(coinpair);\n    }\n\n    function getMaxStake(address[] calldata addresses) external view returns (address, uint256) {\n        return stakingContract.getMaxBalance(addresses);\n    }\n\n    /// @notice Searches a coinpair in coinPairList\n    /// @param coinPair The bytes32-encoded coinpair string (e.g. BTCUSD)\n    /// @param hint Optional hint to start traversing the coinPairList array, zero is to search all the array.\n    function getCoinPairIndex(bytes32 coinPair, uint256 hint) external view returns (uint256) {\n        return coinPairRegisterData._getCoinPairIndex(coinPair, hint);\n    }\n\n    /// @notice Returns true if an oracle satisfies conditions to be removed from system.\n    /// @param ownerAddr the address of the owner of the oracle to lookup.\n    function _canRemoveOracle(address ownerAddr) private view returns (bool) {\n        uint256 coinPairCount = coinPairRegisterData._getCoinPairCount();\n        for (uint256 i = 0; i < coinPairCount; i++) {\n            CoinPairPrice cp = _getCoinPairAddress(coinPairRegisterData._getCoinPairAtIndex(i));\n            if (cp.isSubscribed(ownerAddr)) {\n                return false;\n            }\n        }\n        return true;\n    }\n\n    /// @dev Unsubscribe a registered oracle from participating in all registered coin-pairs\n    /// @param ownerAddr Address of the oracle owner.\n    function _unsubscribeAll(address ownerAddr) private {\n        uint256 coinPairCount = coinPairRegisterData._getCoinPairCount();\n        for (uint256 i = 0; i < coinPairCount; i++) {\n            CoinPairPrice cp = _getCoinPairAddress(coinPairRegisterData._getCoinPairAtIndex(i));\n            if (cp.isSubscribed(ownerAddr)) {\n                cp.unsubscribe(ownerAddr);\n            }\n        }\n    }\n\n    // A change contract can act as the owner of an Oracle\n    /// @param oracleOwner Message sender's address\n    function _isOwnerRegistered(address oracleOwner) private view returns (bool) {\n        return registeredOracles._isOwnerRegistered(oracleOwner);\n    }\n\n    /// @notice Return the contract address for a specified registered coin pair.\n    /// @param coinpair Coin-pair string to lookup (e.g: BTCUSD)\n    /// @return address Address of contract or zero if does not exist or was deleted.\n    function _getCoinPairAddress(bytes32 coinpair) private view returns (CoinPairPrice) {\n        return CoinPairPrice(coinPairRegisterData._getContractAddress(coinpair));\n    }\n}\n",
    "sourcePath": "/home/adji/Desktop/work/coinfabrik/moc-oraculos/contracts/OracleManager.sol",
    "compiler": {
        "name": "solc",
        "version": "0.6.12+commit.27d51765.Emscripten.clang"
    },
    "schemaVersion": "3.2.4",
    "updatedAt": "2020-09-15T18:21:40.644Z",
    "devdoc": {
        "kind": "dev",
        "methods": {
            "addToWhitelist(address)": {
                "params": {
                    "_whitelisted": "- the override coinPair"
                }
            },
            "canRemoveOracle(address)": {
                "params": {
                    "ownerAddr": "the address of the owner of the oracle to lookup."
                }
            },
            "changeIGovernor(address)": {
                "params": {
                    "newIGovernor": "New governor address"
                }
            },
            "delegateCallToChanger(bytes)": {
                "params": {
                    "data": "the serialized function arguments"
                }
            },
            "getCoinPairAtIndex(uint256)": {
                "params": {
                    "i": "index to query."
                }
            },
            "getCoinPairIndex(bytes32,uint256)": {
                "params": {
                    "coinPair": "The bytes32-encoded coinpair string (e.g. BTCUSD)",
                    "hint": "Optional hint to start traversing the coinPairList array, zero is to search all the array."
                }
            },
            "getContractAddress(bytes32)": {
                "params": {
                    "coinpair": "Coin-pair string to lookup (e.g: BTCUSD)"
                },
                "returns": {
                    "_0": "address Address of contract or zero if does not exist or was deleted."
                }
            },
            "getOracleAddress(address)": {
                "params": {
                    "oracleOwnerAddr": "the address of the owner of the oracle."
                },
                "returns": {
                    "oracleAddr": "Address of oracle"
                }
            },
            "getOracleOwner(address)": {
                "params": {
                    "oracleAddr": "The oracle address not the owner address."
                }
            },
            "getOracleRegistrationInfo(address)": {
                "params": {
                    "ownerAddr": "The address of the oracle's owner."
                }
            },
            "getOracleRoundInfo(address,bytes32)": {
                "params": {
                    "coinpair": "The coin pair to lookup.",
                    "ownerAddr": "address of the oracle owner to query for."
                }
            },
            "getRegisteredOracleAtIndex(uint256)": {
                "params": {
                    "idx": "index to query."
                }
            },
            "getStake(address)": {
                "params": {
                    "ownerAddr": "The address of the oracle's owner."
                }
            },
            "initialize(address,uint256,address,address[])": {
                "params": {
                    "_governor": "The address of the contract which governs this one",
                    "_minCPSubscriptionStake": "The minimum amount of tokens required as stake for a coin pair subscription.",
                    "_stakingContract": "the Staking contract address.",
                    "_wlist": "whitelisted contract that can call this one (usually only staking)."
                }
            },
            "isOracleRegistered(address)": {
                "params": {
                    "ownerAddr": "The address of the owner of the Oracle to check for."
                }
            },
            "isRegistered(address)": {
                "params": {
                    "ownerAddr": "The address of the oracle's owner."
                }
            },
            "onWithdraw(address)": {
                "params": {
                    "oracleOwnerAddr": "Address of oracle owner"
                },
                "returns": {
                    "_0": "the timestamp until which the funds must be locked."
                }
            },
            "registerCoinPair(bytes32,address)": {
                "params": {
                    "addr": "The contract address associated to the coinpair.",
                    "coinPair": "The bytes32-encoded coinpair string (e.g. BTCUSD)"
                }
            },
            "registerOracle(address,address,string)": {
                "params": {
                    "internetName": "Public Internet name of this Oracle.",
                    "oracleAddr": "Address of the Oracle to register.",
                    "ownerAddr": "Address of the Oracle's owner."
                }
            },
            "removeFromWhitelist(address)": {
                "params": {
                    "_whitelisted": "- the override coinPair"
                }
            },
            "removeOracle(address)": {
                "params": {
                    "ownerAddr": "Address of message sender"
                }
            },
            "setOracleAddress(address,address)": {
                "params": {
                    "oracleAddr": "The new oracle address.s",
                    "ownerAddr": "Address of message sender"
                }
            },
            "setOracleName(address,string)": {
                "params": {
                    "name": "The new name to set.",
                    "ownerAddr": "Address of message sender"
                }
            },
            "subscribeToCoinPair(address,bytes32)": {
                "params": {
                    "coinPair": "Name of coin pair",
                    "ownerAddr": "Address of message sender"
                }
            },
            "unSubscribeFromCoinPair(address,bytes32)": {
                "params": {
                    "coinPair": "Name of coin pair",
                    "ownerAddr": "Address of message sender"
                }
            }
        },
        "version": 1
    },
    "userdoc": {
        "kind": "user",
        "methods": {
            "addToWhitelist(address)": {
                "notice": "Add to the list of contracts that can stake in this contract"
            },
            "canRemoveOracle(address)": {
                "notice": "Returns true if an oracle satisfies conditions to be removed from system."
            },
            "changeIGovernor(address)": {
                "notice": "Change the contract's governor. Should be called through the old governance system"
            },
            "delegateCallToChanger(bytes)": {
                "notice": "This method is used by a change contract to access the storage freely even without a setter."
            },
            "getCoinPairAtIndex(uint256)": {
                "notice": "Returns the coin pair at index."
            },
            "getCoinPairCount()": {
                "notice": "Returns the count of registered coin pairs. Keep in mind that Deleted coin-pairs will contain zeroed addresses."
            },
            "getCoinPairIndex(bytes32,uint256)": {
                "notice": "Searches a coinpair in coinPairList"
            },
            "getContractAddress(bytes32)": {
                "notice": "Return the contract address for a specified registered coin pair."
            },
            "getOracleAddress(address)": {
                "notice": "Used by the coin pair to get the oracle address from the oracleOwnerAddress."
            },
            "getOracleOwner(address)": {
                "notice": "Used by CoinPair"
            },
            "getOracleRegistrationInfo(address)": {
                "notice": "Returns registration information for a registered Oracle."
            },
            "getOracleRoundInfo(address,bytes32)": {
                "notice": "Returns round information for a registered oracle in a specific coin-pair."
            },
            "getRegisteredOracleAtIndex(uint256)": {
                "notice": "Returns the oracle name and address at index."
            },
            "getRegisteredOraclesLen()": {
                "notice": "Returns the amount of owners registered."
            },
            "getStake(address)": {
                "notice": "Get the stake in MOCs that an oracle has."
            },
            "governor()": {
                "notice": "The address of the contract which governs this one"
            },
            "initialize(address,uint256,address,address[])": {
                "notice": "Construct this contract."
            },
            "isOracleRegistered(address)": {
                "notice": "Return true if the oracle is registered in the contract"
            },
            "isRegistered(address)": {
                "notice": "Returns true if oracle is registered."
            },
            "isSubscribed(address,bytes32)": {
                "notice": "Returns true if an oracle is subscribed to a coin pair"
            },
            "onWithdraw(address)": {
                "notice": "The oracle owner did a partial withdrawal of funds 1. The oracle address is searched by the owner address. 2. Each coin pair to which the oracle is subscribed is consulted to:   - Check if the new amount is enough to stay in the current round.       If not the oracle is replaced and lost his points.   - Get the timestamp for the round end. The return value is the maximum timestamp from all the coin pairs."
            },
            "registerCoinPair(bytes32,address)": {
                "notice": "Register a new coin pair contract."
            },
            "registerOracle(address,address,string)": {
                "notice": "Registers an oracle in the system."
            },
            "removeFromWhitelist(address)": {
                "notice": "Remove from the list of contracts that can stake in this contract"
            },
            "removeOracle(address)": {
                "notice": "Removes an oracle from the system if conditions in         contract he is participating apply, returning it's stake."
            },
            "setOracleAddress(address,address)": {
                "notice": "Change the oracle \"internet\" name (URI)"
            },
            "setOracleName(address,string)": {
                "notice": "Change the oracle \"internet\" name (URI)"
            },
            "subscribeToCoinPair(address,bytes32)": {
                "notice": "Subscribe a registered oracle to participate in rounds of a registered coin-pair"
            },
            "unSubscribeFromCoinPair(address,bytes32)": {
                "notice": "Unsubscribe a registered oracle from participating in rounds of a registered coin-pair"
            }
        },
        "version": 1
    }
}