{
  "contractName": "PriceProviderRegister",
  "abi": [
    {
      "inputs": [
        {
          "internalType": "contract IGovernor",
          "name": "newIGovernor",
          "type": "address"
        }
      ],
      "name": "changeIGovernor",
      "outputs": [],
      "stateMutability": "nonpayable",
      "type": "function"
    },
    {
      "inputs": [
        {
          "internalType": "bytes",
          "name": "data",
          "type": "bytes"
        }
      ],
      "name": "delegateCallToChanger",
      "outputs": [],
      "stateMutability": "nonpayable",
      "type": "function"
    },
    {
      "inputs": [],
      "name": "governor",
      "outputs": [
        {
          "internalType": "contract IGovernor",
          "name": "",
          "type": "address"
        }
      ],
      "stateMutability": "view",
      "type": "function"
    },
    {
      "inputs": [
        {
          "internalType": "contract IGovernor",
          "name": "_governor",
          "type": "address"
        }
      ],
      "name": "initialize",
      "outputs": [],
      "stateMutability": "nonpayable",
      "type": "function"
    },
    {
      "inputs": [
        {
          "internalType": "bytes32",
          "name": "coinPair",
          "type": "bytes32"
        },
        {
          "internalType": "contract IPriceProviderRegisterEntry",
          "name": "addr",
          "type": "address"
        }
      ],
      "name": "registerCoinPair",
      "outputs": [],
      "stateMutability": "nonpayable",
      "type": "function"
    },
    {
      "inputs": [
        {
          "internalType": "bytes32",
          "name": "coinPair",
          "type": "bytes32"
        },
        {
          "internalType": "contract IPriceProviderRegisterEntry",
          "name": "addr",
          "type": "address"
        }
      ],
      "name": "setCoinPair",
      "outputs": [],
      "stateMutability": "nonpayable",
      "type": "function"
    },
    {
      "inputs": [
        {
          "internalType": "bytes32",
          "name": "coinPair",
          "type": "bytes32"
        },
        {
          "internalType": "uint256",
          "name": "hint",
          "type": "uint256"
        }
      ],
      "name": "unRegisterCoinPair",
      "outputs": [],
      "stateMutability": "nonpayable",
      "type": "function"
    },
    {
      "inputs": [
        {
          "internalType": "bytes32",
          "name": "coinpair",
          "type": "bytes32"
        }
      ],
      "name": "getContractAddress",
      "outputs": [
        {
          "internalType": "address",
          "name": "",
          "type": "address"
        }
      ],
      "stateMutability": "view",
      "type": "function"
    },
    {
      "inputs": [],
      "name": "getCoinPairCount",
      "outputs": [
        {
          "internalType": "uint256",
          "name": "",
          "type": "uint256"
        }
      ],
      "stateMutability": "view",
      "type": "function"
    },
    {
      "inputs": [
        {
          "internalType": "uint256",
          "name": "i",
          "type": "uint256"
        }
      ],
      "name": "getCoinPairAtIndex",
      "outputs": [
        {
          "internalType": "bytes32",
          "name": "",
          "type": "bytes32"
        }
      ],
      "stateMutability": "view",
      "type": "function"
    },
    {
      "inputs": [
        {
          "internalType": "bytes32",
          "name": "coinPair",
          "type": "bytes32"
        },
        {
          "internalType": "uint256",
          "name": "hint",
          "type": "uint256"
        }
      ],
      "name": "getCoinPairIndex",
      "outputs": [
        {
          "internalType": "uint256",
          "name": "",
          "type": "uint256"
        }
      ],
      "stateMutability": "view",
      "type": "function"
    }
  ],
  "bytecode": "0x608060405234801561001057600080fd5b5061186c806100206000396000f3fe608060405234801561001057600080fd5b50600436106100a95760003560e01c8063c4d66de811610071578063c4d66de8146101ea578063d6ee951a1461022e578063dc8990e11461027c578063df1810f9146102f5578063dfd25cc414610337578063eff360981461036f576100a9565b80630c340a24146100ae5780630d2020dd146100e257806363adb1a21461013a5780638e04191e14610158578063b6e08330146101a6575b600080fd5b6100b66103bb565b604051808273ffffffffffffffffffffffffffffffffffffffff16815260200191505060405180910390f35b61010e600480360360208110156100f857600080fd5b81019080803590602001909291905050506103e1565b604051808273ffffffffffffffffffffffffffffffffffffffff16815260200191505060405180910390f35b6101426103fe565b6040518082815260200191505060405180910390f35b6101a46004803603604081101561016e57600080fd5b8101908080359060200190929190803573ffffffffffffffffffffffffffffffffffffffff16906020019092919050505061040f565b005b6101e8600480360360208110156101bc57600080fd5b81019080803573ffffffffffffffffffffffffffffffffffffffff1690602001909291905050506105ca565b005b61022c6004803603602081101561020057600080fd5b81019080803573ffffffffffffffffffffffffffffffffffffffff1690602001909291905050506107af565b005b61027a6004803603604081101561024457600080fd5b8101908080359060200190929190803573ffffffffffffffffffffffffffffffffffffffff1690602001909291905050506108b7565b005b6102f36004803603602081101561029257600080fd5b81019080803590602001906401000000008111156102af57600080fd5b8201836020820111156102c157600080fd5b803590602001918460018302840111640100000000831117156102e357600080fd5b9091929391929390505050610a72565b005b6103216004803603602081101561030b57600080fd5b8101908080359060200190929190505050610e00565b6040518082815260200191505060405180910390f35b61036d6004803603604081101561034d57600080fd5b810190808035906020019092919080359060200190929190505050610e1d565b005b6103a56004803603604081101561038557600080fd5b810190808035906020019092919080359060200190929190505050610fd8565b6040518082815260200191505060405180910390f35b603360009054906101000a900473ffffffffffffffffffffffffffffffffffffffff1681565b60006103f7826066610ff890919063ffffffff16565b9050919050565b600061040a6066611038565b905090565b603360009054906101000a900473ffffffffffffffffffffffffffffffffffffffff1673ffffffffffffffffffffffffffffffffffffffff1663d994d6d5336040518263ffffffff1660e01b8152600401808273ffffffffffffffffffffffffffffffffffffffff16815260200191505060206040518083038186803b15801561049857600080fd5b505afa1580156104ac573d6000803e3d6000fd5b505050506040513d60208110156104c257600080fd5b81019080805190602001909291905050506040518060400160405280601681526020017f6e6f745f617574686f72697a65645f6368616e67657200000000000000000000815250906105af576040517f08c379a00000000000000000000000000000000000000000000000000000000081526004018080602001828103825283818151815260200191508051906020019080838360005b83811015610574578082015181840152602081019050610559565b50505050905090810190601f1680156105a15780820380516001836020036101000a031916815260200191505b509250505060405180910390fd5b506105c6828260666110499092919063ffffffff16565b5050565b603360009054906101000a900473ffffffffffffffffffffffffffffffffffffffff1673ffffffffffffffffffffffffffffffffffffffff1663d994d6d5336040518263ffffffff1660e01b8152600401808273ffffffffffffffffffffffffffffffffffffffff16815260200191505060206040518083038186803b15801561065357600080fd5b505afa158015610667573d6000803e3d6000fd5b505050506040513d602081101561067d57600080fd5b81019080805190602001909291905050506040518060400160405280601681526020017f6e6f745f617574686f72697a65645f6368616e676572000000000000000000008152509061076a576040517f08c379a00000000000000000000000000000000000000000000000000000000081526004018080602001828103825283818151815260200191508051906020019080838360005b8381101561072f578082015181840152602081019050610714565b50505050905090810190601f16801561075c5780820380516001836020036101000a031916815260200191505b509250505060405180910390fd5b5080603360006101000a81548173ffffffffffffffffffffffffffffffffffffffff021916908373ffffffffffffffffffffffffffffffffffffffff16021790555050565b600060019054906101000a900460ff16806107ce57506107cd61122a565b5b806107e4575060008054906101000a900460ff16155b610839576040517f08c379a000000000000000000000000000000000000000000000000000000000815260040180806020018281038252602e815260200180611809602e913960400191505060405180910390fd5b60008060019054906101000a900460ff161590508015610889576001600060016101000a81548160ff02191690831515021790555060016000806101000a81548160ff0219169083151502179055505b61089282611241565b80156108b35760008060016101000a81548160ff0219169083151502179055505b5050565b603360009054906101000a900473ffffffffffffffffffffffffffffffffffffffff1673ffffffffffffffffffffffffffffffffffffffff1663d994d6d5336040518263ffffffff1660e01b8152600401808273ffffffffffffffffffffffffffffffffffffffff16815260200191505060206040518083038186803b15801561094057600080fd5b505afa158015610954573d6000803e3d6000fd5b505050506040513d602081101561096a57600080fd5b81019080805190602001909291905050506040518060400160405280601681526020017f6e6f745f617574686f72697a65645f6368616e6765720000000000000000000081525090610a57576040517f08c379a00000000000000000000000000000000000000000000000000000000081526004018080602001828103825283818151815260200191508051906020019080838360005b83811015610a1c578082015181840152602081019050610a01565b50505050905090810190601f168015610a495780820380516001836020036101000a031916815260200191505b509250505060405180910390fd5b50610a6e828260666112859092919063ffffffff16565b5050565b603360009054906101000a900473ffffffffffffffffffffffffffffffffffffffff1673ffffffffffffffffffffffffffffffffffffffff1663d994d6d5336040518263ffffffff1660e01b8152600401808273ffffffffffffffffffffffffffffffffffffffff16815260200191505060206040518083038186803b158015610afb57600080fd5b505afa158015610b0f573d6000803e3d6000fd5b505050506040513d6020811015610b2557600080fd5b81019080805190602001909291905050506040518060400160405280601681526020017f6e6f745f617574686f72697a65645f6368616e6765720000000000000000000081525090610c12576040517f08c379a00000000000000000000000000000000000000000000000000000000081526004018080602001828103825283818151815260200191508051906020019080838360005b83811015610bd7578082015181840152602081019050610bbc565b50505050905090810190601f168015610c045780820380516001836020036101000a031916815260200191505b509250505060405180910390fd5b50600033905060008173ffffffffffffffffffffffffffffffffffffffff16848460405160240180806020018281038252848482818152602001925080828437600081840152601f19601f82011690508083019250505093505050506040516020818303038152906040527fa16227ca000000000000000000000000000000000000000000000000000000007bffffffffffffffffffffffffffffffffffffffffffffffffffffffff19166020820180517bffffffffffffffffffffffffffffffffffffffffffffffffffffffff83818316178352505050506040518082805190602001908083835b60208310610d1e5780518252602082019150602081019050602083039250610cfb565b6001836020036101000a038019825116818451168082178552505050505050905001915050600060405180830381855af49150503d8060008114610d7e576040519150601f19603f3d011682016040523d82523d6000602084013e610d83565b606091505b5050905080610dfa576040517f08c379a00000000000000000000000000000000000000000000000000000000081526004018080602001828103825260168152602001807f4572726f7220696e2064656c65676174652063616c6c0000000000000000000081525060200191505060405180910390fd5b50505050565b6000610e1682606661145990919063ffffffff16565b9050919050565b603360009054906101000a900473ffffffffffffffffffffffffffffffffffffffff1673ffffffffffffffffffffffffffffffffffffffff1663d994d6d5336040518263ffffffff1660e01b8152600401808273ffffffffffffffffffffffffffffffffffffffff16815260200191505060206040518083038186803b158015610ea657600080fd5b505afa158015610eba573d6000803e3d6000fd5b505050506040513d6020811015610ed057600080fd5b81019080805190602001909291905050506040518060400160405280601681526020017f6e6f745f617574686f72697a65645f6368616e6765720000000000000000000081525090610fbd576040517f08c379a00000000000000000000000000000000000000000000000000000000081526004018080602001828103825283818151815260200191508051906020019080838360005b83811015610f82578082015181840152602081019050610f67565b50505050905090810190601f168015610faf5780820380516001836020036101000a031916815260200191505b509250505060405180910390fd5b50610fd4828260666114f99092919063ffffffff16565b5050565b6000610ff0838360666116e19092919063ffffffff16565b905092915050565b600082600001600083815260200190815260200160002060009054906101000a900473ffffffffffffffffffffffffffffffffffffffff16905092915050565b600081600101805490509050919050565b600073ffffffffffffffffffffffffffffffffffffffff168173ffffffffffffffffffffffffffffffffffffffff1614156110ec576040517f08c379a00000000000000000000000000000000000000000000000000000000081526004018080602001828103825260168152602001807f416464726573732063616e6e6f74206265207a65726f0000000000000000000081525060200191505060405180910390fd5b600073ffffffffffffffffffffffffffffffffffffffff1683600001600084815260200190815260200160002060009054906101000a900473ffffffffffffffffffffffffffffffffffffffff1673ffffffffffffffffffffffffffffffffffffffff16146111a6576040517f08c379a00000000000000000000000000000000000000000000000000000000081526004018080602001828103825260248152602001806117e56024913960400191505060405180910390fd5b8083600001600084815260200190815260200160002060006101000a81548173ffffffffffffffffffffffffffffffffffffffff021916908373ffffffffffffffffffffffffffffffffffffffff16021790555082600101829080600181540180825580915050600190039060005260206000200160009091909190915055505050565b6000803090506000813b9050600081149250505090565b80603360006101000a81548173ffffffffffffffffffffffffffffffffffffffff021916908373ffffffffffffffffffffffffffffffffffffffff16021790555050565b600073ffffffffffffffffffffffffffffffffffffffff168173ffffffffffffffffffffffffffffffffffffffff161415611328576040517f08c379a00000000000000000000000000000000000000000000000000000000081526004018080602001828103825260168152602001807f416464726573732063616e6e6f74206265207a65726f0000000000000000000081525060200191505060405180910390fd5b600073ffffffffffffffffffffffffffffffffffffffff1683600001600084815260200190815260200160002060009054906101000a900473ffffffffffffffffffffffffffffffffffffffff1673ffffffffffffffffffffffffffffffffffffffff161415611400576040517f08c379a00000000000000000000000000000000000000000000000000000000081526004018080602001828103825260208152602001807f5468697320636f696e2070616972206973206e6f74207265676973746572656481525060200191505060405180910390fd5b8083600001600084815260200190815260200160002060006101000a81548173ffffffffffffffffffffffffffffffffffffffff021916908373ffffffffffffffffffffffffffffffffffffffff160217905550505050565b6000826001018054905082106114d7576040517f08c379a000000000000000000000000000000000000000000000000000000000815260040180806020018281038252600d8152602001807f496c6c6567616c20696e6465780000000000000000000000000000000000000081525060200191505060405180910390fd5b8260010182815481106114e657fe5b9060005260206000200154905092915050565b600073ffffffffffffffffffffffffffffffffffffffff1683600001600084815260200190815260200160002060009054906101000a900473ffffffffffffffffffffffffffffffffffffffff1673ffffffffffffffffffffffffffffffffffffffff1614156115b4576040517f08c379a00000000000000000000000000000000000000000000000000000000081526004018080602001828103825260268152602001806117bf6026913960400191505060405180910390fd5b60006115c18484846116e1565b90508360010180549050811061163f576040517f08c379a00000000000000000000000000000000000000000000000000000000081526004018080602001828103825260138152602001807f436f696e2070616972206e6f7420666f756e640000000000000000000000000081525060200191505060405180910390fd5b83600001600084815260200190815260200160002060006101000a81549073ffffffffffffffffffffffffffffffffffffffff02191690558360010160018560010180549050038154811061169057fe5b90600052602060002001548460010182815481106116aa57fe5b9060005260206000200181905550836001018054806116c557fe5b6001900381819060005260206000200160009055905550505050565b60008360010180549050821061175f576040517f08c379a000000000000000000000000000000000000000000000000000000000815260040180806020018281038252600d8152602001807f496c6c6567616c20696e6465780000000000000000000000000000000000000081525060200191505060405180910390fd5b60008290505b84600101805490508110156117ab578385600101828154811061178457fe5b9060005260206000200154141561179e57809150506117b7565b8080600101915050611765565b50836001018054905090505b939250505056fe5468697320636f696e207061697220697320616c726561647920756e726567697374657265645468697320636f696e207061697220697320616c72656164792072656769737465726564436f6e747261637420696e7374616e63652068617320616c7265616479206265656e20696e697469616c697a6564a264697066735822122063932b98fbd864ceb7666b249f4ec27fde10248aad02b528f27e4c2b46240b3764736f6c634300060c0033",
  "immutableReferences": {},
  "source": "// SPDX-License-Identifier: UNLICENSED\npragma solidity 0.6.12;\n\nimport {SafeMath} from \"@openzeppelin/contracts-ethereum-package/contracts/math/SafeMath.sol\";\nimport {IGovernor} from \"@moc/shared/contracts/moc-governance/Governance/IGovernor.sol\";\nimport {Governed} from \"@moc/shared/contracts/moc-governance/Governance/Governed.sol\";\nimport {IPriceProviderRegisterEntry} from \"@moc/shared/contracts/IPriceProviderRegisterEntry.sol\";\nimport {PriceProviderRegisterStorage} from \"./PriceProviderRegisterStorage.sol\";\n\n/// @title A registry for the coin pair prices, this is more general than OracleManager that stores\n/// only the coin pairs that are published by oracles.\ncontract PriceProviderRegister is PriceProviderRegisterStorage {\n    using SafeMath for uint256;\n\n    /**\n      @notice Initialize the contract with the basic settings\n      @dev This initialize replaces the constructor but it is not called automatically.\n      It is necessary because of the upgradeability of the contracts\n      @param _governor Governor address\n     */\n    function initialize(IGovernor _governor) external initializer {\n        Governed._initialize(_governor);\n    }\n\n    /// @notice Register a new coin pair contract.\n    /// @param coinPair The bytes32-encoded coinpair string (e.g. BTCUSD)\n    /// @param addr The contract address associated to the coinpair.\n    function registerCoinPair(bytes32 coinPair, IPriceProviderRegisterEntry addr)\n        external\n        onlyAuthorizedChanger()\n    {\n        coinPairRegisterData._registerCoinPair(coinPair, address(addr));\n    }\n\n    /// @notice Set the address for a coinpair (the old one is lost!!!!)\n    /// @param coinPair The bytes32-encoded coinpair string (e.g. BTCUSD)\n    /// @param addr The contract address associated to the coinpair.\n    function setCoinPair(bytes32 coinPair, IPriceProviderRegisterEntry addr)\n        external\n        onlyAuthorizedChanger()\n    {\n        coinPairRegisterData._setCoinPair(coinPair, address(addr));\n    }\n\n    /// @notice Unregister a coin pair contract.\n    /// @param coinPair The bytes32-encoded coinpair string (e.g. BTCUSD)\n    /// @param hint Optional hint to start traversing the coinPairList array.\n    function unRegisterCoinPair(bytes32 coinPair, uint256 hint) external onlyAuthorizedChanger() {\n        coinPairRegisterData._unRegisterCoinPair(coinPair, hint);\n    }\n\n    /// @notice Return the contract address for a specified registered coin pair.\n    /// @param coinpair Coin-pair string to lookup (e.g: BTCUSD)\n    /// @return address Address of contract or zero if does not exist or was deleted.\n    function getContractAddress(bytes32 coinpair) external view returns (address) {\n        return coinPairRegisterData._getContractAddress(coinpair);\n    }\n\n    /// @notice Returns the count of registered coin pairs.\n    /// Keep in mind that Deleted coin-pairs will contain zeroed addresses.\n    function getCoinPairCount() external view returns (uint256) {\n        return coinPairRegisterData._getCoinPairCount();\n    }\n\n    /// @notice Returns the coin pair at index.\n    /// @param i index to query.\n    function getCoinPairAtIndex(uint256 i) external view returns (bytes32) {\n        return coinPairRegisterData._getCoinPairAtIndex(i);\n    }\n\n    /// @notice Searches a coinpair in coinPairList\n    /// @param coinPair The bytes32-encoded coinpair string (e.g. BTCUSD)\n    /// @param hint Optional hint to start traversing the coinPairList array, zero is to search all the array.\n    function getCoinPairIndex(bytes32 coinPair, uint256 hint) external view returns (uint256) {\n        return coinPairRegisterData._getCoinPairIndex(coinPair, hint);\n    }\n}\n",
  "sourcePath": "/home/adji/Desktop/work/coinfabrik/moc-oraculos/contracts/PriceProviderRegister.sol",
  "compiler": {
    "name": "solc",
    "version": "0.6.12+commit.27d51765.Emscripten.clang"
  },
  "schemaVersion": "3.2.4",
  "updatedAt": "2020-09-11T20:34:45.469Z",
  "devdoc": {
    "kind": "dev",
    "methods": {
      "changeIGovernor(address)": {
        "params": {
          "newIGovernor": "New governor address"
        }
      },
      "delegateCallToChanger(bytes)": {
        "params": {
          "data": "the serialized function arguments"
        }
      },
      "getCoinPairAtIndex(uint256)": {
        "params": {
          "i": "index to query."
        }
      },
      "getCoinPairIndex(bytes32,uint256)": {
        "params": {
          "coinPair": "The bytes32-encoded coinpair string (e.g. BTCUSD)",
          "hint": "Optional hint to start traversing the coinPairList array, zero is to search all the array."
        }
      },
      "getContractAddress(bytes32)": {
        "params": {
          "coinpair": "Coin-pair string to lookup (e.g: BTCUSD)"
        },
        "returns": {
          "_0": "address Address of contract or zero if does not exist or was deleted."
        }
      },
      "initialize(address)": {
        "details": "This initialize replaces the constructor but it is not called automatically. It is necessary because of the upgradeability of the contracts",
        "params": {
          "_governor": "Governor address"
        }
      },
      "registerCoinPair(bytes32,address)": {
        "params": {
          "addr": "The contract address associated to the coinpair.",
          "coinPair": "The bytes32-encoded coinpair string (e.g. BTCUSD)"
        }
      },
      "setCoinPair(bytes32,address)": {
        "params": {
          "addr": "The contract address associated to the coinpair.",
          "coinPair": "The bytes32-encoded coinpair string (e.g. BTCUSD)"
        }
      },
      "unRegisterCoinPair(bytes32,uint256)": {
        "params": {
          "coinPair": "The bytes32-encoded coinpair string (e.g. BTCUSD)",
          "hint": "Optional hint to start traversing the coinPairList array."
        }
      }
    },
    "title": "A registry for the coin pair prices, this is more general than OracleManager that stores only the coin pairs that are published by oracles.",
    "version": 1
  },
  "userdoc": {
    "kind": "user",
    "methods": {
      "changeIGovernor(address)": {
        "notice": "Change the contract's governor. Should be called through the old governance system"
      },
      "delegateCallToChanger(bytes)": {
        "notice": "This method is used by a change contract to access the storage freely even without a setter."
      },
      "getCoinPairAtIndex(uint256)": {
        "notice": "Returns the coin pair at index."
      },
      "getCoinPairCount()": {
        "notice": "Returns the count of registered coin pairs. Keep in mind that Deleted coin-pairs will contain zeroed addresses."
      },
      "getCoinPairIndex(bytes32,uint256)": {
        "notice": "Searches a coinpair in coinPairList"
      },
      "getContractAddress(bytes32)": {
        "notice": "Return the contract address for a specified registered coin pair."
      },
      "governor()": {
        "notice": "The address of the contract which governs this one"
      },
      "initialize(address)": {
        "notice": "Initialize the contract with the basic settings"
      },
      "registerCoinPair(bytes32,address)": {
        "notice": "Register a new coin pair contract."
      },
      "setCoinPair(bytes32,address)": {
        "notice": "Set the address for a coinpair (the old one is lost!!!!)"
      },
      "unRegisterCoinPair(bytes32,uint256)": {
        "notice": "Unregister a coin pair contract."
      }
    },
    "version": 1
  }
}