{
  "contractName": "PriceProviderRegisterPairChange",
  "abi": [
    {
      "inputs": [
        {
          "internalType": "contract PriceProviderRegister",
          "name": "_priceProviderRegister",
          "type": "address"
        },
        {
          "internalType": "bytes32",
          "name": "_coinPair",
          "type": "bytes32"
        },
        {
          "internalType": "contract IPriceProviderRegisterEntry",
          "name": "_contractAddr",
          "type": "address"
        }
      ],
      "stateMutability": "nonpayable",
      "type": "constructor"
    },
    {
      "inputs": [],
      "name": "coinPair",
      "outputs": [
        {
          "internalType": "bytes32",
          "name": "",
          "type": "bytes32"
        }
      ],
      "stateMutability": "view",
      "type": "function"
    },
    {
      "inputs": [],
      "name": "contractAddr",
      "outputs": [
        {
          "internalType": "contract IPriceProviderRegisterEntry",
          "name": "",
          "type": "address"
        }
      ],
      "stateMutability": "view",
      "type": "function"
    },
    {
      "inputs": [],
      "name": "priceProviderRegister",
      "outputs": [
        {
          "internalType": "contract PriceProviderRegister",
          "name": "",
          "type": "address"
        }
      ],
      "stateMutability": "view",
      "type": "function"
    },
    {
      "inputs": [],
      "name": "execute",
      "outputs": [],
      "stateMutability": "nonpayable",
      "type": "function"
    }
  ],
  "bytecode": "0x608060405234801561001057600080fd5b506040516103283803806103288339818101604052606081101561003357600080fd5b81019080805190602001909291908051906020019092919080519060200190929190505050826000806101000a81548173ffffffffffffffffffffffffffffffffffffffff021916908373ffffffffffffffffffffffffffffffffffffffff1602179055508160018190555080600260006101000a81548173ffffffffffffffffffffffffffffffffffffffff021916908373ffffffffffffffffffffffffffffffffffffffff160217905550505050610236806100f26000396000f3fe608060405234801561001057600080fd5b506004361061004c5760003560e01c806315a5d9d81461005157806334c1e5b51461008557806361461954146100a3578063dafa6371146100ad575b600080fd5b6100596100e1565b604051808273ffffffffffffffffffffffffffffffffffffffff16815260200191505060405180910390f35b61008d610107565b6040518082815260200191505060405180910390f35b6100ab61010d565b005b6100b56101dc565b604051808273ffffffffffffffffffffffffffffffffffffffff16815260200191505060405180910390f35b600260009054906101000a900473ffffffffffffffffffffffffffffffffffffffff1681565b60015481565b60008054906101000a900473ffffffffffffffffffffffffffffffffffffffff1673ffffffffffffffffffffffffffffffffffffffff16638e04191e600154600260009054906101000a900473ffffffffffffffffffffffffffffffffffffffff166040518363ffffffff1660e01b8152600401808381526020018273ffffffffffffffffffffffffffffffffffffffff16815260200192505050600060405180830381600087803b1580156101c257600080fd5b505af11580156101d6573d6000803e3d6000fd5b50505050565b60008054906101000a900473ffffffffffffffffffffffffffffffffffffffff168156fea2646970667358221220f58ad308ae30452ab91513f78441b45f7d13a33314802358c541b8f44f33902364736f6c634300060c0033",
  "immutableReferences": {},
  "source": "// SPDX-License-Identifier: UNLICENSED\npragma solidity 0.6.12;\n\nimport {ChangeContract} from \"@moc/shared/contracts/moc-governance/Governance/ChangeContract.sol\";\nimport {OracleManager} from \"../OracleManager.sol\";\nimport {CoinPairPrice} from \"../CoinPairPrice.sol\";\nimport {PriceProviderRegister} from \"../PriceProviderRegister.sol\";\nimport {IPriceProviderRegisterEntry} from \"@moc/shared/contracts/IPriceProviderRegisterEntry.sol\";\n\n/**\n  @title UpgraderTemplate\n  @notice This contract is a ChangeContract intended to be used when\n  upgrading any contract upgradeable through the zos-lib upgradeability\n  system. This doesn't initialize the upgraded contract, that should be done extending\n  this one or taking it as a guide\n */\ncontract PriceProviderRegisterPairChange is ChangeContract {\n    PriceProviderRegister public priceProviderRegister;\n    bytes32 public coinPair;\n    IPriceProviderRegisterEntry public contractAddr;\n\n    /**\n      @notice Constructor\n      @param _priceProviderRegister Address of register contract used to register the coin pairs\n      @param _coinPair Coinpair to register\n      @param _contractAddr Address to register\n    */\n    constructor(\n        PriceProviderRegister _priceProviderRegister,\n        bytes32 _coinPair,\n        IPriceProviderRegisterEntry _contractAddr\n    ) public {\n        priceProviderRegister = _priceProviderRegister;\n        coinPair = _coinPair;\n        contractAddr = _contractAddr;\n    }\n\n    /**\n      @notice Execute the changes.\n      @dev Should be called by the governor, but this contract does not check that explicitly because\n      it is not its responsability in the current architecture\n      IMPORTANT: This function should not be overriden, you should only redefine\n      the _beforeUpgrade and _afterUpgrade to use this template\n     */\n    function execute() external override {\n        priceProviderRegister.registerCoinPair(coinPair, contractAddr);\n        // OVERRIDE THE OLD ONE !!!\n        // priceProviderRegister.setCoinPair(coinPair,contractAddr);\n        // TODO: Make it usable just once.\n    }\n}\n",
  "sourcePath": "/home/adji/Desktop/work/coinfabrik/moc-oraculos/contracts/change/PriceProviderRegisterPairChange.sol",
  "compiler": {
    "name": "solc",
    "version": "0.6.12+commit.27d51765.Emscripten.clang"
  },
  "schemaVersion": "3.2.4",
  "updatedAt": "2020-09-11T20:34:45.486Z",
  "devdoc": {
    "kind": "dev",
    "methods": {
      "constructor": {
        "params": {
          "_coinPair": "Coinpair to register",
          "_contractAddr": "Address to register",
          "_priceProviderRegister": "Address of register contract used to register the coin pairs"
        }
      },
      "execute()": {
        "details": "Should be called by the governor, but this contract does not check that explicitly because it is not its responsability in the current architecture IMPORTANT: This function should not be overriden, you should only redefine the _beforeUpgrade and _afterUpgrade to use this template"
      }
    },
    "title": "UpgraderTemplate",
    "version": 1
  },
  "userdoc": {
    "kind": "user",
    "methods": {
      "constructor": "Constructor",
      "execute()": {
        "notice": "Execute the changes."
      }
    },
    "notice": "This contract is a ChangeContract intended to be used when upgrading any contract upgradeable through the zos-lib upgradeability system. This doesn't initialize the upgraded contract, that should be done extending this one or taking it as a guide",
    "version": 1
  }
}