{
    "contractName": "PriceProviderOracleManagerRegisterPairChange",
    "abi": [
        {
            "inputs": [
                {
                    "internalType": "contract PriceProviderRegister",
                    "name": "_priceProviderRegister",
                    "type": "address"
                },
                {
                    "internalType": "contract OracleManager",
                    "name": "_oracleManager",
                    "type": "address"
                }
            ],
            "stateMutability": "nonpayable",
            "type": "constructor"
        },
        {
            "inputs": [],
            "name": "oracleManager",
            "outputs": [
                {
                    "internalType": "contract OracleManager",
                    "name": "",
                    "type": "address"
                }
            ],
            "stateMutability": "view",
            "type": "function",
            "constant": true
        },
        {
            "inputs": [],
            "name": "priceProviderRegister",
            "outputs": [
                {
                    "internalType": "contract PriceProviderRegister",
                    "name": "",
                    "type": "address"
                }
            ],
            "stateMutability": "view",
            "type": "function",
            "constant": true
        },
        {
            "inputs": [],
            "name": "execute",
            "outputs": [],
            "stateMutability": "nonpayable",
            "type": "function"
        }
    ],
    "bytecode": "0x608060405234801561001057600080fd5b5060405161033d38038061033d8339818101604052604081101561003357600080fd5b508051602090910151600080546001600160a01b039384166001600160a01b031991821617909155600180549390921692169190911790556102c38061007a6000396000f3fe608060405234801561001057600080fd5b50600436106100415760003560e01c8063565d878c14610046578063614619541461006a578063dafa637114610074575b600080fd5b61004e61007c565b604080516001600160a01b039092168252519081900360200190f35b61007261008b565b005b61004e61027e565b6001546001600160a01b031681565b600154604080516331d6d8d160e11b815290516000926001600160a01b0316916363adb1a2916004808301926020929190829003018186803b1580156100d057600080fd5b505afa1580156100e4573d6000803e3d6000fd5b505050506040513d60208110156100fa57600080fd5b5051905060005b8181101561027a576001546040805163df1810f960e01b81526004810184905290516000926001600160a01b03169163df1810f9916024808301926020929190829003018186803b15801561015557600080fd5b505afa158015610169573d6000803e3d6000fd5b505050506040513d602081101561017f57600080fd5b505160015460408051630d2020dd60e01b81526004810184905290519293506000926001600160a01b0390921691630d2020dd91602480820192602092909190829003018186803b1580156101d357600080fd5b505afa1580156101e7573d6000803e3d6000fd5b505050506040513d60208110156101fd57600080fd5b505160008054604080516347020c8f60e11b8152600481018790526001600160a01b0380861660248301529151949550911692638e04191e9260448084019391929182900301818387803b15801561025457600080fd5b505af1158015610268573d6000803e3d6000fd5b50506001909401935061010192505050565b5050565b6000546001600160a01b03168156fea264697066735822122042ffad3f9c36900fcf3e56a90a6241d50bb6220d8c8c96c23fd19c17ffd0bc5f64736f6c634300060c0033",
    "immutableReferences": {},
    "source": "// SPDX-License-Identifier: UNLICENSED\npragma solidity 0.6.12;\n\nimport {ChangeContract} from \"@moc/shared/contracts/moc-governance/Governance/ChangeContract.sol\";\nimport {OracleManager} from \"../OracleManager.sol\";\nimport {CoinPairPrice} from \"../CoinPairPrice.sol\";\nimport {PriceProviderRegister} from \"../PriceProviderRegister.sol\";\nimport {IPriceProviderRegisterEntry} from \"@moc/shared/contracts/IPriceProviderRegisterEntry.sol\";\n\n/**\n  @title UpgraderTemplate\n  @notice This contract is a ChangeContract intended to be used when\n  upgrading any contract upgradeable through the zos-lib upgradeability\n  system. This doesn't initialize the upgraded contract, that should be done extending\n  this one or taking it as a guide\n */\ncontract PriceProviderOracleManagerRegisterPairChange is ChangeContract {\n    PriceProviderRegister public priceProviderRegister;\n    OracleManager public oracleManager;\n\n    /**\n      @notice Constructor\n      @param _priceProviderRegister Address of register contract used to register the coin pairs\n      @param _oracleManager Oracle manager, used to register all the coinpairs\n    */\n    constructor(PriceProviderRegister _priceProviderRegister, OracleManager _oracleManager) public {\n        priceProviderRegister = _priceProviderRegister;\n        oracleManager = _oracleManager;\n    }\n\n    /**\n      @notice Execute the changes.\n      @dev Should be called by the governor, but this contract does not check that explicitly because\n      it is not its responsability in the current architecture\n      IMPORTANT: This function should not be overriden, you should only redefine\n      the _beforeUpgrade and _afterUpgrade to use this template\n     */\n    function execute() external override {\n        uint256 coinPairCount = oracleManager.getCoinPairCount();\n        for (uint256 i = 0; i < coinPairCount; i++) {\n            bytes32 coinPair = oracleManager.getCoinPairAtIndex(i);\n            address contractAddr = oracleManager.getContractAddress(coinPair);\n            priceProviderRegister.registerCoinPair(\n                coinPair,\n                IPriceProviderRegisterEntry(contractAddr)\n            );\n        }\n        // TODO: Make it usable just once.;\n    }\n}\n",
    "sourcePath": "/home/adji/Desktop/work/coinfabrik/moc-oraculos/contracts/change/PriceProviderOracleManagerRegisterPairChange.sol",
    "compiler": {
        "name": "solc",
        "version": "0.6.12+commit.27d51765.Emscripten.clang"
    },
    "schemaVersion": "3.2.4",
    "updatedAt": "2020-09-15T19:53:42.281Z",
    "networkType": "ethereum",
    "devdoc": {
        "kind": "dev",
        "methods": {
            "constructor": {
                "params": {
                    "_oracleManager": "Oracle manager, used to register all the coinpairs",
                    "_priceProviderRegister": "Address of register contract used to register the coin pairs"
                }
            },
            "execute()": {
                "details": "Should be called by the governor, but this contract does not check that explicitly because it is not its responsability in the current architecture IMPORTANT: This function should not be overriden, you should only redefine the _beforeUpgrade and _afterUpgrade to use this template"
            }
        },
        "title": "UpgraderTemplate",
        "version": 1
    },
    "userdoc": {
        "kind": "user",
        "methods": {
            "constructor": "Constructor",
            "execute()": {
                "notice": "Execute the changes."
            }
        },
        "notice": "This contract is a ChangeContract intended to be used when upgrading any contract upgradeable through the zos-lib upgradeability system. This doesn't initialize the upgraded contract, that should be done extending this one or taking it as a guide",
        "version": 1
    }
}