{
  "contractName": "PriceProviderOracleManagerRegisterPairChange",
  "abi": [
    {
      "inputs": [
        {
          "internalType": "contract PriceProviderRegister",
          "name": "_priceProviderRegister",
          "type": "address"
        },
        {
          "internalType": "contract OracleManager",
          "name": "_oracleManager",
          "type": "address"
        }
      ],
      "stateMutability": "nonpayable",
      "type": "constructor"
    },
    {
      "inputs": [],
      "name": "oracleManager",
      "outputs": [
        {
          "internalType": "contract OracleManager",
          "name": "",
          "type": "address"
        }
      ],
      "stateMutability": "view",
      "type": "function"
    },
    {
      "inputs": [],
      "name": "priceProviderRegister",
      "outputs": [
        {
          "internalType": "contract PriceProviderRegister",
          "name": "",
          "type": "address"
        }
      ],
      "stateMutability": "view",
      "type": "function"
    },
    {
      "inputs": [],
      "name": "execute",
      "outputs": [],
      "stateMutability": "nonpayable",
      "type": "function"
    }
  ],
  "bytecode": "0x608060405234801561001057600080fd5b506040516104ea3803806104ea8339818101604052604081101561003357600080fd5b810190808051906020019092919080519060200190929190505050816000806101000a81548173ffffffffffffffffffffffffffffffffffffffff021916908373ffffffffffffffffffffffffffffffffffffffff16021790555080600160006101000a81548173ffffffffffffffffffffffffffffffffffffffff021916908373ffffffffffffffffffffffffffffffffffffffff160217905550505061040a806100e06000396000f3fe608060405234801561001057600080fd5b50600436106100415760003560e01c8063565d878c14610046578063614619541461007a578063dafa637114610084575b600080fd5b61004e6100b8565b604051808273ffffffffffffffffffffffffffffffffffffffff16815260200191505060405180910390f35b6100826100de565b005b61008c6103b0565b604051808273ffffffffffffffffffffffffffffffffffffffff16815260200191505060405180910390f35b600160009054906101000a900473ffffffffffffffffffffffffffffffffffffffff1681565b6000600160009054906101000a900473ffffffffffffffffffffffffffffffffffffffff1673ffffffffffffffffffffffffffffffffffffffff166363adb1a26040518163ffffffff1660e01b815260040160206040518083038186803b15801561014857600080fd5b505afa15801561015c573d6000803e3d6000fd5b505050506040513d602081101561017257600080fd5b8101908080519060200190929190505050905060005b818110156103ac576000600160009054906101000a900473ffffffffffffffffffffffffffffffffffffffff1673ffffffffffffffffffffffffffffffffffffffff1663df1810f9836040518263ffffffff1660e01b81526004018082815260200191505060206040518083038186803b15801561020557600080fd5b505afa158015610219573d6000803e3d6000fd5b505050506040513d602081101561022f57600080fd5b810190808051906020019092919050505090506000600160009054906101000a900473ffffffffffffffffffffffffffffffffffffffff1673ffffffffffffffffffffffffffffffffffffffff16630d2020dd836040518263ffffffff1660e01b81526004018082815260200191505060206040518083038186803b1580156102b757600080fd5b505afa1580156102cb573d6000803e3d6000fd5b505050506040513d60208110156102e157600080fd5b8101908080519060200190929190505050905060008054906101000a900473ffffffffffffffffffffffffffffffffffffffff1673ffffffffffffffffffffffffffffffffffffffff16638e04191e83836040518363ffffffff1660e01b8152600401808381526020018273ffffffffffffffffffffffffffffffffffffffff16815260200192505050600060405180830381600087803b15801561038557600080fd5b505af1158015610399573d6000803e3d6000fd5b5050505050508080600101915050610188565b5050565b60008054906101000a900473ffffffffffffffffffffffffffffffffffffffff168156fea2646970667358221220587dccae0587842617931cfc858fd4a9c6cf25377023f40b9445b5bdc1264ea164736f6c634300060c0033",
  "immutableReferences": {},
  "source": "// SPDX-License-Identifier: UNLICENSED\npragma solidity 0.6.12;\n\nimport {ChangeContract} from \"@moc/shared/contracts/moc-governance/Governance/ChangeContract.sol\";\nimport {OracleManager} from \"../OracleManager.sol\";\nimport {CoinPairPrice} from \"../CoinPairPrice.sol\";\nimport {PriceProviderRegister} from \"../PriceProviderRegister.sol\";\nimport {IPriceProviderRegisterEntry} from \"@moc/shared/contracts/IPriceProviderRegisterEntry.sol\";\n\n/**\n  @title UpgraderTemplate\n  @notice This contract is a ChangeContract intended to be used when\n  upgrading any contract upgradeable through the zos-lib upgradeability\n  system. This doesn't initialize the upgraded contract, that should be done extending\n  this one or taking it as a guide\n */\ncontract PriceProviderOracleManagerRegisterPairChange is ChangeContract {\n    PriceProviderRegister public priceProviderRegister;\n    OracleManager public oracleManager;\n\n    /**\n      @notice Constructor\n      @param _priceProviderRegister Address of register contract used to register the coin pairs\n      @param _oracleManager Oracle manager, used to register all the coinpairs\n    */\n    constructor(PriceProviderRegister _priceProviderRegister, OracleManager _oracleManager) public {\n        priceProviderRegister = _priceProviderRegister;\n        oracleManager = _oracleManager;\n    }\n\n    /**\n      @notice Execute the changes.\n      @dev Should be called by the governor, but this contract does not check that explicitly because\n      it is not its responsability in the current architecture\n      IMPORTANT: This function should not be overriden, you should only redefine\n      the _beforeUpgrade and _afterUpgrade to use this template\n     */\n    function execute() external override {\n        uint256 coinPairCount = oracleManager.getCoinPairCount();\n        for (uint256 i = 0; i < coinPairCount; i++) {\n            bytes32 coinPair = oracleManager.getCoinPairAtIndex(i);\n            address contractAddr = oracleManager.getContractAddress(coinPair);\n            priceProviderRegister.registerCoinPair(\n                coinPair,\n                IPriceProviderRegisterEntry(contractAddr)\n            );\n        }\n        // TODO: Make it usable just once.;\n    }\n}\n",
  "sourcePath": "/home/adji/Desktop/work/coinfabrik/moc-oraculos/contracts/change/PriceProviderOracleManagerRegisterPairChange.sol",
  "compiler": {
    "name": "solc",
    "version": "0.6.12+commit.27d51765.Emscripten.clang"
  },
  "schemaVersion": "3.2.4",
  "updatedAt": "2020-09-11T20:34:45.486Z",
  "devdoc": {
    "kind": "dev",
    "methods": {
      "constructor": {
        "params": {
          "_oracleManager": "Oracle manager, used to register all the coinpairs",
          "_priceProviderRegister": "Address of register contract used to register the coin pairs"
        }
      },
      "execute()": {
        "details": "Should be called by the governor, but this contract does not check that explicitly because it is not its responsability in the current architecture IMPORTANT: This function should not be overriden, you should only redefine the _beforeUpgrade and _afterUpgrade to use this template"
      }
    },
    "title": "UpgraderTemplate",
    "version": 1
  },
  "userdoc": {
    "kind": "user",
    "methods": {
      "constructor": "Constructor",
      "execute()": {
        "notice": "Execute the changes."
      }
    },
    "notice": "This contract is a ChangeContract intended to be used when upgrading any contract upgradeable through the zos-lib upgradeability system. This doesn't initialize the upgraded contract, that should be done extending this one or taking it as a guide",
    "version": 1
  }
}