{
    "contractName": "PriceProviderRegister",
    "abi": [
        {
            "inputs": [
                {
                    "internalType": "contract IGovernor",
                    "name": "newIGovernor",
                    "type": "address"
                }
            ],
            "name": "changeIGovernor",
            "outputs": [],
            "stateMutability": "nonpayable",
            "type": "function"
        },
        {
            "inputs": [
                {
                    "internalType": "bytes",
                    "name": "data",
                    "type": "bytes"
                }
            ],
            "name": "delegateCallToChanger",
            "outputs": [],
            "stateMutability": "nonpayable",
            "type": "function"
        },
        {
            "inputs": [],
            "name": "governor",
            "outputs": [
                {
                    "internalType": "contract IGovernor",
                    "name": "",
                    "type": "address"
                }
            ],
            "stateMutability": "view",
            "type": "function"
        },
        {
            "inputs": [
                {
                    "internalType": "contract IGovernor",
                    "name": "_governor",
                    "type": "address"
                }
            ],
            "name": "initialize",
            "outputs": [],
            "stateMutability": "nonpayable",
            "type": "function"
        },
        {
            "inputs": [
                {
                    "internalType": "bytes32",
                    "name": "coinPair",
                    "type": "bytes32"
                },
                {
                    "internalType": "contract IPriceProviderRegisterEntry",
                    "name": "addr",
                    "type": "address"
                }
            ],
            "name": "registerCoinPair",
            "outputs": [],
            "stateMutability": "nonpayable",
            "type": "function"
        },
        {
            "inputs": [
                {
                    "internalType": "bytes32",
                    "name": "coinPair",
                    "type": "bytes32"
                },
                {
                    "internalType": "contract IPriceProviderRegisterEntry",
                    "name": "addr",
                    "type": "address"
                }
            ],
            "name": "setCoinPair",
            "outputs": [],
            "stateMutability": "nonpayable",
            "type": "function"
        },
        {
            "inputs": [
                {
                    "internalType": "bytes32",
                    "name": "coinPair",
                    "type": "bytes32"
                },
                {
                    "internalType": "uint256",
                    "name": "hint",
                    "type": "uint256"
                }
            ],
            "name": "unRegisterCoinPair",
            "outputs": [],
            "stateMutability": "nonpayable",
            "type": "function"
        },
        {
            "inputs": [
                {
                    "internalType": "bytes32",
                    "name": "coinpair",
                    "type": "bytes32"
                }
            ],
            "name": "getContractAddress",
            "outputs": [
                {
                    "internalType": "address",
                    "name": "",
                    "type": "address"
                }
            ],
            "stateMutability": "view",
            "type": "function"
        },
        {
            "inputs": [],
            "name": "getCoinPairCount",
            "outputs": [
                {
                    "internalType": "uint256",
                    "name": "",
                    "type": "uint256"
                }
            ],
            "stateMutability": "view",
            "type": "function"
        },
        {
            "inputs": [
                {
                    "internalType": "uint256",
                    "name": "i",
                    "type": "uint256"
                }
            ],
            "name": "getCoinPairAtIndex",
            "outputs": [
                {
                    "internalType": "bytes32",
                    "name": "",
                    "type": "bytes32"
                }
            ],
            "stateMutability": "view",
            "type": "function"
        },
        {
            "inputs": [
                {
                    "internalType": "bytes32",
                    "name": "coinPair",
                    "type": "bytes32"
                },
                {
                    "internalType": "uint256",
                    "name": "hint",
                    "type": "uint256"
                }
            ],
            "name": "getCoinPairIndex",
            "outputs": [
                {
                    "internalType": "uint256",
                    "name": "",
                    "type": "uint256"
                }
            ],
            "stateMutability": "view",
            "type": "function"
        }
    ],
    "bytecode": "0x608060405234801561001057600080fd5b50610ef3806100206000396000f3fe608060405234801561001057600080fd5b50600436106100a95760003560e01c8063c4d66de811610071578063c4d66de81461015d578063d6ee951a14610183578063dc8990e1146101af578063df1810f91461021f578063dfd25cc41461023c578063eff360981461025f576100a9565b80630c340a24146100ae5780630d2020dd146100d257806363adb1a2146100ef5780638e04191e14610109578063b6e0833014610137575b600080fd5b6100b6610282565b604080516001600160a01b039092168252519081900360200190f35b6100b6600480360360208110156100e857600080fd5b5035610291565b6100f76102a4565b60408051918252519081900360200190f35b6101356004803603604081101561011f57600080fd5b50803590602001356001600160a01b03166102b5565b005b6101356004803603602081101561014d57600080fd5b50356001600160a01b03166103f3565b6101356004803603602081101561017357600080fd5b50356001600160a01b0316610506565b6101356004803603604081101561019957600080fd5b50803590602001356001600160a01b03166105b1565b610135600480360360208110156101c557600080fd5b8101906020810181356401000000008111156101e057600080fd5b8201836020820111156101f257600080fd5b8035906020019184600183028401116401000000008311171561021457600080fd5b5090925090506106ae565b6100f76004803603602081101561023557600080fd5b50356108f3565b6101356004803603604081101561025257600080fd5b5080359060200135610900565b6100f76004803603604081101561027557600080fd5b50803590602001356109fd565b6033546001600160a01b031681565b600061029e606683610a12565b92915050565b60006102b06066610a2e565b905090565b6033546040805163d994d6d560e01b815233600482015290516001600160a01b039092169163d994d6d591602480820192602092909190829003018186803b15801561030057600080fd5b505afa158015610314573d6000803e3d6000fd5b505050506040513d602081101561032a57600080fd5b50516040805180820190915260168152753737ba2fb0baba3437b934bd32b22fb1b430b733b2b960511b6020820152906103e25760405162461bcd60e51b81526004018080602001828103825283818151815260200191508051906020019080838360005b838110156103a757818101518382015260200161038f565b50505050905090810190601f1680156103d45780820380516001836020036101000a031916815260200191505b509250505060405180910390fd5b506103ef60668383610a35565b5050565b6033546040805163d994d6d560e01b815233600482015290516001600160a01b039092169163d994d6d591602480820192602092909190829003018186803b15801561043e57600080fd5b505afa158015610452573d6000803e3d6000fd5b505050506040513d602081101561046857600080fd5b50516040805180820190915260168152753737ba2fb0baba3437b934bd32b22fb1b430b733b2b960511b6020820152906104e35760405162461bcd60e51b81526020600482018181528351602484015283519092839260449091019190850190808383600083156103a757818101518382015260200161038f565b50603380546001600160a01b0319166001600160a01b0392909216919091179055565b600054610100900460ff168061051f575061051f610b35565b8061052d575060005460ff16155b6105685760405162461bcd60e51b815260040180806020018281038252602e815260200180610e90602e913960400191505060405180910390fd5b600054610100900460ff16158015610593576000805460ff1961ff0019909116610100171660011790555b61059c82610b3b565b80156103ef576000805461ff00191690555050565b6033546040805163d994d6d560e01b815233600482015290516001600160a01b039092169163d994d6d591602480820192602092909190829003018186803b1580156105fc57600080fd5b505afa158015610610573d6000803e3d6000fd5b505050506040513d602081101561062657600080fd5b50516040805180820190915260168152753737ba2fb0baba3437b934bd32b22fb1b430b733b2b960511b6020820152906106a15760405162461bcd60e51b81526020600482018181528351602484015283519092839260449091019190850190808383600083156103a757818101518382015260200161038f565b506103ef60668383610b5d565b6033546040805163d994d6d560e01b815233600482015290516001600160a01b039092169163d994d6d591602480820192602092909190829003018186803b1580156106f957600080fd5b505afa15801561070d573d6000803e3d6000fd5b505050506040513d602081101561072357600080fd5b50516040805180820190915260168152753737ba2fb0baba3437b934bd32b22fb1b430b733b2b960511b60208201529061079e5760405162461bcd60e51b81526020600482018181528351602484015283519092839260449091019190850190808383600083156103a757818101518382015260200161038f565b50604051602060248201908152604482018390523391600091839186918691819060640184848082843760008382015260408051601f909201601f1990811690940182810390940182529283526020810180516001600160e01b03166350b113e560e11b17815292518151919750955085945091925081905083835b602083106108395780518252601f19909201916020918201910161081a565b6001836020036101000a038019825116818451168082178552505050505050905001915050600060405180830381855af49150503d8060008114610899576040519150601f19603f3d011682016040523d82523d6000602084013e61089e565b606091505b50509050806108ed576040805162461bcd60e51b8152602060048201526016602482015275115c9c9bdc881a5b8819195b1959d85d194818d85b1b60521b604482015290519081900360640190fd5b50505050565b600061029e606683610c48565b6033546040805163d994d6d560e01b815233600482015290516001600160a01b039092169163d994d6d591602480820192602092909190829003018186803b15801561094b57600080fd5b505afa15801561095f573d6000803e3d6000fd5b505050506040513d602081101561097557600080fd5b50516040805180820190915260168152753737ba2fb0baba3437b934bd32b22fb1b430b733b2b960511b6020820152906109f05760405162461bcd60e51b81526020600482018181528351602484015283519092839260449091019190850190808383600083156103a757818101518382015260200161038f565b506103ef60668383610cb5565b6000610a0b60668484610dfb565b9392505050565b600090815260209190915260409020546001600160a01b031690565b6001015490565b6001600160a01b038116610a89576040805162461bcd60e51b8152602060048201526016602482015275416464726573732063616e6e6f74206265207a65726f60501b604482015290519081900360640190fd5b6000828152602084905260409020546001600160a01b031615610af3576040805162461bcd60e51b815260206004820152601a60248201527f5061697220697320616c72656164792072656769737465726564000000000000604482015290519081900360640190fd5b600082815260208481526040822080546001600160a01b0319166001600160a01b03949094169390931790925560019384018054948501815581522090910155565b303b1590565b603380546001600160a01b0319166001600160a01b0392909216919091179055565b6001600160a01b038116610bb1576040805162461bcd60e51b8152602060048201526016602482015275416464726573732063616e6e6f74206265207a65726f60501b604482015290519081900360640190fd5b6000828152602084905260409020546001600160a01b0316610c1a576040805162461bcd60e51b815260206004820181905260248201527f5468697320636f696e2070616972206973206e6f742072656769737465726564604482015290519081900360640190fd5b60009182526020929092526040902080546001600160a01b0319166001600160a01b03909216919091179055565b60018201546000908210610c93576040805162461bcd60e51b815260206004820152600d60248201526c092d8d8cacec2d840d2dcc8caf609b1b604482015290519081900360640190fd5b826001018281548110610ca257fe5b9060005260206000200154905092915050565b6000828152602084905260409020546001600160a01b0316610d1e576040805162461bcd60e51b815260206004820152601c60248201527f5061697220697320616c726561647920756e7265676973746572656400000000604482015290519081900360640190fd5b6000610d2b848484610dfb565b60018501549091508110610d7c576040805162461bcd60e51b815260206004820152601360248201527210dbda5b881c185a5c881b9bdd08199bdd5b99606a1b604482015290519081900360640190fd5b600083815260208590526040902080546001600160a01b03191690556001840180546000198101908110610dac57fe5b9060005260206000200154846001018281548110610dc657fe5b60009182526020909120015560018401805480610ddf57fe5b6001900381819060005260206000200160009055905550505050565b60018301546000908210610e46576040805162461bcd60e51b815260206004820152600d60248201526c092d8d8cacec2d840d2dcc8caf609b1b604482015290519081900360640190fd5b815b6001850154811015610e845783856001018281548110610e6457fe5b90600052602060002001541415610e7c579050610a0b565b600101610e48565b50505050600101549056fe436f6e747261637420696e7374616e63652068617320616c7265616479206265656e20696e697469616c697a6564a2646970667358221220d74a600347d9b330f24f0a09e29c6bdf4b286db395ed7bc9dabd49d88313d37664736f6c634300060c0033",
    "immutableReferences": {},
    "source": "// SPDX-License-Identifier: UNLICENSED\npragma solidity 0.6.12;\n\nimport {SafeMath} from \"@openzeppelin/contracts-ethereum-package/contracts/math/SafeMath.sol\";\nimport {IGovernor} from \"@moc/shared/contracts/moc-governance/Governance/IGovernor.sol\";\nimport {Governed} from \"@moc/shared/contracts/moc-governance/Governance/Governed.sol\";\nimport {IPriceProviderRegisterEntry} from \"@moc/shared/contracts/IPriceProviderRegisterEntry.sol\";\nimport {PriceProviderRegisterStorage} from \"./PriceProviderRegisterStorage.sol\";\n\n/// @title A registry for the coin pair prices, this is more general than OracleManager that stores\n/// only the coin pairs that are published by oracles.\ncontract PriceProviderRegister is PriceProviderRegisterStorage {\n    using SafeMath for uint256;\n\n    /**\n      @notice Initialize the contract with the basic settings\n      @dev This initialize replaces the constructor but it is not called automatically.\n      It is necessary because of the upgradeability of the contracts\n      @param _governor Governor address\n     */\n    function initialize(IGovernor _governor) external initializer {\n        Governed._initialize(_governor);\n    }\n\n    /// @notice Register a new coin pair contract.\n    /// @param coinPair The bytes32-encoded coinpair string (e.g. BTCUSD)\n    /// @param addr The contract address associated to the coinpair.\n    function registerCoinPair(bytes32 coinPair, IPriceProviderRegisterEntry addr)\n        external\n        onlyAuthorizedChanger()\n    {\n        coinPairRegisterData._registerCoinPair(coinPair, address(addr));\n    }\n\n    /// @notice Set the address for a coinpair (the old one is lost!!!!)\n    /// @param coinPair The bytes32-encoded coinpair string (e.g. BTCUSD)\n    /// @param addr The contract address associated to the coinpair.\n    function setCoinPair(bytes32 coinPair, IPriceProviderRegisterEntry addr)\n        external\n        onlyAuthorizedChanger()\n    {\n        coinPairRegisterData._setCoinPair(coinPair, address(addr));\n    }\n\n    /// @notice Unregister a coin pair contract.\n    /// @param coinPair The bytes32-encoded coinpair string (e.g. BTCUSD)\n    /// @param hint Optional hint to start traversing the coinPairList array.\n    function unRegisterCoinPair(bytes32 coinPair, uint256 hint) external onlyAuthorizedChanger() {\n        coinPairRegisterData._unRegisterCoinPair(coinPair, hint);\n    }\n\n    /// @notice Return the contract address for a specified registered coin pair.\n    /// @param coinpair Coin-pair string to lookup (e.g: BTCUSD)\n    /// @return address Address of contract or zero if does not exist or was deleted.\n    function getContractAddress(bytes32 coinpair) external view returns (address) {\n        return coinPairRegisterData._getContractAddress(coinpair);\n    }\n\n    /// @notice Returns the count of registered coin pairs.\n    /// Keep in mind that Deleted coin-pairs will contain zeroed addresses.\n    function getCoinPairCount() external view returns (uint256) {\n        return coinPairRegisterData._getCoinPairCount();\n    }\n\n    /// @notice Returns the coin pair at index.\n    /// @param i index to query.\n    function getCoinPairAtIndex(uint256 i) external view returns (bytes32) {\n        return coinPairRegisterData._getCoinPairAtIndex(i);\n    }\n\n    /// @notice Searches a coinpair in coinPairList\n    /// @param coinPair The bytes32-encoded coinpair string (e.g. BTCUSD)\n    /// @param hint Optional hint to start traversing the coinPairList array, zero is to search all the array.\n    function getCoinPairIndex(bytes32 coinPair, uint256 hint) external view returns (uint256) {\n        return coinPairRegisterData._getCoinPairIndex(coinPair, hint);\n    }\n}\n",
    "sourcePath": "/home/adji/Desktop/work/coinfabrik/moc-oraculos/contracts/PriceProviderRegister.sol",
    "compiler": {
        "name": "solc",
        "version": "0.6.12+commit.27d51765.Emscripten.clang"
    },
    "schemaVersion": "3.2.4",
    "updatedAt": "2020-09-15T18:38:01.921Z",
    "devdoc": {
        "kind": "dev",
        "methods": {
            "changeIGovernor(address)": {
                "params": {
                    "newIGovernor": "New governor address"
                }
            },
            "delegateCallToChanger(bytes)": {
                "params": {
                    "data": "the serialized function arguments"
                }
            },
            "getCoinPairAtIndex(uint256)": {
                "params": {
                    "i": "index to query."
                }
            },
            "getCoinPairIndex(bytes32,uint256)": {
                "params": {
                    "coinPair": "The bytes32-encoded coinpair string (e.g. BTCUSD)",
                    "hint": "Optional hint to start traversing the coinPairList array, zero is to search all the array."
                }
            },
            "getContractAddress(bytes32)": {
                "params": {
                    "coinpair": "Coin-pair string to lookup (e.g: BTCUSD)"
                },
                "returns": {
                    "_0": "address Address of contract or zero if does not exist or was deleted."
                }
            },
            "initialize(address)": {
                "details": "This initialize replaces the constructor but it is not called automatically. It is necessary because of the upgradeability of the contracts",
                "params": {
                    "_governor": "Governor address"
                }
            },
            "registerCoinPair(bytes32,address)": {
                "params": {
                    "addr": "The contract address associated to the coinpair.",
                    "coinPair": "The bytes32-encoded coinpair string (e.g. BTCUSD)"
                }
            },
            "setCoinPair(bytes32,address)": {
                "params": {
                    "addr": "The contract address associated to the coinpair.",
                    "coinPair": "The bytes32-encoded coinpair string (e.g. BTCUSD)"
                }
            },
            "unRegisterCoinPair(bytes32,uint256)": {
                "params": {
                    "coinPair": "The bytes32-encoded coinpair string (e.g. BTCUSD)",
                    "hint": "Optional hint to start traversing the coinPairList array."
                }
            }
        },
        "title": "A registry for the coin pair prices, this is more general than OracleManager that stores only the coin pairs that are published by oracles.",
        "version": 1
    },
    "userdoc": {
        "kind": "user",
        "methods": {
            "changeIGovernor(address)": {
                "notice": "Change the contract's governor. Should be called through the old governance system"
            },
            "delegateCallToChanger(bytes)": {
                "notice": "This method is used by a change contract to access the storage freely even without a setter."
            },
            "getCoinPairAtIndex(uint256)": {
                "notice": "Returns the coin pair at index."
            },
            "getCoinPairCount()": {
                "notice": "Returns the count of registered coin pairs. Keep in mind that Deleted coin-pairs will contain zeroed addresses."
            },
            "getCoinPairIndex(bytes32,uint256)": {
                "notice": "Searches a coinpair in coinPairList"
            },
            "getContractAddress(bytes32)": {
                "notice": "Return the contract address for a specified registered coin pair."
            },
            "governor()": {
                "notice": "The address of the contract which governs this one"
            },
            "initialize(address)": {
                "notice": "Initialize the contract with the basic settings"
            },
            "registerCoinPair(bytes32,address)": {
                "notice": "Register a new coin pair contract."
            },
            "setCoinPair(bytes32,address)": {
                "notice": "Set the address for a coinpair (the old one is lost!!!!)"
            },
            "unRegisterCoinPair(bytes32,uint256)": {
                "notice": "Unregister a coin pair contract."
            }
        },
        "version": 1
    }
}