{
  "contractName": "Staking",
  "abi": [
    {
      "inputs": [
        {
          "internalType": "contract IGovernor",
          "name": "newIGovernor",
          "type": "address"
        }
      ],
      "name": "changeIGovernor",
      "outputs": [],
      "stateMutability": "nonpayable",
      "type": "function"
    },
    {
      "inputs": [],
      "name": "delayMachine",
      "outputs": [
        {
          "internalType": "contract IDelayMachine",
          "name": "",
          "type": "address"
        }
      ],
      "stateMutability": "view",
      "type": "function"
    },
    {
      "inputs": [
        {
          "internalType": "bytes",
          "name": "data",
          "type": "bytes"
        }
      ],
      "name": "delegateCallToChanger",
      "outputs": [],
      "stateMutability": "nonpayable",
      "type": "function"
    },
    {
      "inputs": [],
      "name": "governor",
      "outputs": [
        {
          "internalType": "contract IGovernor",
          "name": "",
          "type": "address"
        }
      ],
      "stateMutability": "view",
      "type": "function"
    },
    {
      "inputs": [],
      "name": "mocToken",
      "outputs": [
        {
          "internalType": "contract IERC20",
          "name": "",
          "type": "address"
        }
      ],
      "stateMutability": "view",
      "type": "function"
    },
    {
      "inputs": [],
      "name": "oracleManager",
      "outputs": [
        {
          "internalType": "contract OracleManager",
          "name": "",
          "type": "address"
        }
      ],
      "stateMutability": "view",
      "type": "function"
    },
    {
      "inputs": [],
      "name": "supporters",
      "outputs": [
        {
          "internalType": "contract Supporters",
          "name": "",
          "type": "address"
        }
      ],
      "stateMutability": "view",
      "type": "function"
    },
    {
      "inputs": [
        {
          "internalType": "contract IGovernor",
          "name": "_governor",
          "type": "address"
        },
        {
          "internalType": "contract Supporters",
          "name": "_supporters",
          "type": "address"
        },
        {
          "internalType": "contract OracleManager",
          "name": "_oracleManager",
          "type": "address"
        },
        {
          "internalType": "contract IDelayMachine",
          "name": "_delayMachine",
          "type": "address"
        },
        {
          "internalType": "address[]",
          "name": "_wlistlock",
          "type": "address[]"
        }
      ],
      "name": "initialize",
      "outputs": [],
      "stateMutability": "nonpayable",
      "type": "function"
    },
    {
      "inputs": [
        {
          "internalType": "address",
          "name": "mocHolder",
          "type": "address"
        },
        {
          "internalType": "uint256",
          "name": "untilTimestamp",
          "type": "uint256"
        }
      ],
      "name": "lockMocs",
      "outputs": [],
      "stateMutability": "nonpayable",
      "type": "function"
    },
    {
      "inputs": [
        {
          "internalType": "uint256",
          "name": "mocs",
          "type": "uint256"
        },
        {
          "internalType": "address",
          "name": "destination",
          "type": "address"
        }
      ],
      "name": "deposit",
      "outputs": [],
      "stateMutability": "nonpayable",
      "type": "function"
    },
    {
      "inputs": [
        {
          "internalType": "uint256",
          "name": "mocs",
          "type": "uint256"
        },
        {
          "internalType": "address",
          "name": "destination",
          "type": "address"
        },
        {
          "internalType": "address",
          "name": "source",
          "type": "address"
        }
      ],
      "name": "depositFrom",
      "outputs": [],
      "stateMutability": "nonpayable",
      "type": "function"
    },
    {
      "inputs": [
        {
          "internalType": "uint256",
          "name": "_mocs",
          "type": "uint256"
        }
      ],
      "name": "withdraw",
      "outputs": [],
      "stateMutability": "nonpayable",
      "type": "function"
    },
    {
      "inputs": [],
      "name": "totalMoc",
      "outputs": [
        {
          "internalType": "uint256",
          "name": "",
          "type": "uint256"
        }
      ],
      "stateMutability": "view",
      "type": "function"
    },
    {
      "inputs": [],
      "name": "totalToken",
      "outputs": [
        {
          "internalType": "uint256",
          "name": "",
          "type": "uint256"
        }
      ],
      "stateMutability": "view",
      "type": "function"
    },
    {
      "inputs": [
        {
          "internalType": "address",
          "name": "user",
          "type": "address"
        }
      ],
      "name": "getBalance",
      "outputs": [
        {
          "internalType": "uint256",
          "name": "",
          "type": "uint256"
        }
      ],
      "stateMutability": "view",
      "type": "function"
    },
    {
      "inputs": [
        {
          "internalType": "address",
          "name": "user",
          "type": "address"
        }
      ],
      "name": "getLockedBalance",
      "outputs": [
        {
          "internalType": "uint256",
          "name": "",
          "type": "uint256"
        }
      ],
      "stateMutability": "view",
      "type": "function"
    },
    {
      "inputs": [],
      "name": "getRegisteredOraclesLen",
      "outputs": [
        {
          "internalType": "uint256",
          "name": "",
          "type": "uint256"
        }
      ],
      "stateMutability": "view",
      "type": "function"
    },
    {
      "inputs": [
        {
          "internalType": "uint256",
          "name": "idx",
          "type": "uint256"
        }
      ],
      "name": "getRegisteredOracleAtIndex",
      "outputs": [
        {
          "internalType": "address",
          "name": "ownerAddr",
          "type": "address"
        },
        {
          "internalType": "address",
          "name": "oracleAddr",
          "type": "address"
        },
        {
          "internalType": "string",
          "name": "url",
          "type": "string"
        }
      ],
      "stateMutability": "view",
      "type": "function"
    },
    {
      "inputs": [
        {
          "internalType": "address",
          "name": "oracleAddr",
          "type": "address"
        },
        {
          "internalType": "string",
          "name": "url",
          "type": "string"
        }
      ],
      "name": "registerOracle",
      "outputs": [],
      "stateMutability": "nonpayable",
      "type": "function"
    },
    {
      "inputs": [
        {
          "internalType": "string",
          "name": "url",
          "type": "string"
        }
      ],
      "name": "setOracleName",
      "outputs": [],
      "stateMutability": "nonpayable",
      "type": "function"
    },
    {
      "inputs": [
        {
          "internalType": "address",
          "name": "ownerAddr",
          "type": "address"
        }
      ],
      "name": "isOracleRegistered",
      "outputs": [
        {
          "internalType": "bool",
          "name": "",
          "type": "bool"
        }
      ],
      "stateMutability": "view",
      "type": "function"
    },
    {
      "inputs": [
        {
          "internalType": "address",
          "name": "ownerAddr",
          "type": "address"
        }
      ],
      "name": "canRemoveOracle",
      "outputs": [
        {
          "internalType": "bool",
          "name": "",
          "type": "bool"
        }
      ],
      "stateMutability": "view",
      "type": "function"
    },
    {
      "inputs": [],
      "name": "removeOracle",
      "outputs": [],
      "stateMutability": "nonpayable",
      "type": "function"
    },
    {
      "inputs": [],
      "name": "getCoinPairCount",
      "outputs": [
        {
          "internalType": "uint256",
          "name": "",
          "type": "uint256"
        }
      ],
      "stateMutability": "view",
      "type": "function"
    },
    {
      "inputs": [
        {
          "internalType": "uint256",
          "name": "i",
          "type": "uint256"
        }
      ],
      "name": "getCoinPairAtIndex",
      "outputs": [
        {
          "internalType": "bytes32",
          "name": "",
          "type": "bytes32"
        }
      ],
      "stateMutability": "view",
      "type": "function"
    },
    {
      "inputs": [
        {
          "internalType": "bytes32",
          "name": "coinPair",
          "type": "bytes32"
        }
      ],
      "name": "getContractAddress",
      "outputs": [
        {
          "internalType": "address",
          "name": "",
          "type": "address"
        }
      ],
      "stateMutability": "view",
      "type": "function"
    },
    {
      "inputs": [
        {
          "internalType": "bytes32",
          "name": "coinPair",
          "type": "bytes32"
        },
        {
          "internalType": "uint256",
          "name": "hint",
          "type": "uint256"
        }
      ],
      "name": "getCoinPairIndex",
      "outputs": [
        {
          "internalType": "uint256",
          "name": "",
          "type": "uint256"
        }
      ],
      "stateMutability": "view",
      "type": "function"
    },
    {
      "inputs": [
        {
          "internalType": "bytes32",
          "name": "coinPair",
          "type": "bytes32"
        }
      ],
      "name": "subscribeToCoinPair",
      "outputs": [],
      "stateMutability": "nonpayable",
      "type": "function"
    },
    {
      "inputs": [
        {
          "internalType": "bytes32",
          "name": "coinPair",
          "type": "bytes32"
        }
      ],
      "name": "unsubscribeFromCoinPair",
      "outputs": [],
      "stateMutability": "nonpayable",
      "type": "function"
    },
    {
      "inputs": [
        {
          "internalType": "address",
          "name": "ownerAddr",
          "type": "address"
        },
        {
          "internalType": "bytes32",
          "name": "coinPair",
          "type": "bytes32"
        }
      ],
      "name": "isSubscribed",
      "outputs": [
        {
          "internalType": "bool",
          "name": "",
          "type": "bool"
        }
      ],
      "stateMutability": "view",
      "type": "function"
    },
    {
      "inputs": [
        {
          "internalType": "address[]",
          "name": "addresses",
          "type": "address[]"
        }
      ],
      "name": "getMaxBalance",
      "outputs": [
        {
          "internalType": "address",
          "name": "",
          "type": "address"
        },
        {
          "internalType": "uint256",
          "name": "",
          "type": "uint256"
        }
      ],
      "stateMutability": "view",
      "type": "function"
    }
  ],
  "bytecode": "0x608060405262278d00606c5534801561001757600080fd5b506130a7806100276000396000f3fe608060405234801561001057600080fd5b50600436106101e55760003560e01c806380eea1ee1161010f578063dc8990e1116100a2578063f620c15211610071578063f620c15214610a07578063f8453e7c14610a80578063f8b2cb4f14610b79578063fdc31f6f14610bd1576101e5565b8063dc8990e1146108d2578063df1810f91461094b578063e301502f1461098d578063eff36098146109bb576101e5565b8063b9b55c9a116100de578063b9b55c9a146107c8578063c408689314610822578063d602ac681461087a578063dab46553146108c8576101e5565b806380eea1ee14610658578063a5cfab9a146106bc578063aa265d0214610766578063b6e0833014610784576101e5565b8063565d878c1161018757806363adb1a21161015657806363adb1a2146105845780636b65fbd3146105a25780636e553f65146105d657806372015d1a14610624576101e5565b8063565d878c1461046b5780635da6d08c1461049f5780635f5ae2c014610538578063626be56714610566576101e5565b80632ff2ae53116101c35780632ff2ae53146102a45780633aacdc99146102c25780633ac7c7841461031c578063473c541d146103fd576101e5565b80630c340a24146101ea5780630d2020dd1461021e5780632e1a7d4d14610276575b600080fd5b6101f2610c05565b604051808273ffffffffffffffffffffffffffffffffffffffff16815260200191505060405180910390f35b61024a6004803603602081101561023457600080fd5b8101908080359060200190929190505050610c2b565b604051808273ffffffffffffffffffffffffffffffffffffffff16815260200191505060405180910390f35b6102a26004803603602081101561028c57600080fd5b8101908080359060200190929190505050610ce2565b005b6102ac61118d565b6040518082815260200191505060405180910390f35b610304600480360360208110156102d857600080fd5b81019080803573ffffffffffffffffffffffffffffffffffffffff169060200190929190505050611237565b60405180821515815260200191505060405180910390f35b6103486004803603602081101561033257600080fd5b8101908080359060200190929190505050611304565b604051808473ffffffffffffffffffffffffffffffffffffffff1681526020018373ffffffffffffffffffffffffffffffffffffffff16815260200180602001828103825283818151815260200191508051906020019080838360005b838110156103c05780820151818401526020810190506103a5565b50505050905090810190601f1680156103ed5780820380516001836020036101000a031916815260200191505b5094505050505060405180910390f35b6104696004803603606081101561041357600080fd5b8101908080359060200190929190803573ffffffffffffffffffffffffffffffffffffffff169060200190929190803573ffffffffffffffffffffffffffffffffffffffff169060200190929190505050611496565b005b610473611824565b604051808273ffffffffffffffffffffffffffffffffffffffff16815260200191505060405180910390f35b610536600480360360408110156104b557600080fd5b81019080803573ffffffffffffffffffffffffffffffffffffffff169060200190929190803590602001906401000000008111156104f257600080fd5b82018360208201111561050457600080fd5b8035906020019184600183028401116401000000008311171561052657600080fd5b909192939192939050505061184a565b005b6105646004803603602081101561054e57600080fd5b8101908080359060200190929190505050611944565b005b61056e6119f2565b6040518082815260200191505060405180910390f35b61058c611a9c565b6040518082815260200191505060405180910390f35b6105aa611b46565b604051808273ffffffffffffffffffffffffffffffffffffffff16815260200191505060405180910390f35b610622600480360360408110156105ec57600080fd5b8101908080359060200190929190803573ffffffffffffffffffffffffffffffffffffffff169060200190929190505050611b6c565b005b61062c611b7b565b604051808273ffffffffffffffffffffffffffffffffffffffff16815260200191505060405180910390f35b6106a46004803603604081101561066e57600080fd5b81019080803573ffffffffffffffffffffffffffffffffffffffff16906020019092919080359060200190929190505050611ba1565b60405180821515815260200191505060405180910390f35b610733600480360360208110156106d257600080fd5b81019080803590602001906401000000008111156106ef57600080fd5b82018360208201111561070157600080fd5b8035906020019184602083028401116401000000008311171561072357600080fd5b9091929391929390505050611c77565b604051808373ffffffffffffffffffffffffffffffffffffffff1681526020018281526020019250505060405180910390f35b61076e611d89565b6040518082815260200191505060405180910390f35b6107c66004803603602081101561079a57600080fd5b81019080803573ffffffffffffffffffffffffffffffffffffffff169060200190929190505050611e33565b005b61080a600480360360208110156107de57600080fd5b81019080803573ffffffffffffffffffffffffffffffffffffffff169060200190929190505050612018565b60405180821515815260200191505060405180910390f35b6108646004803603602081101561083857600080fd5b81019080803573ffffffffffffffffffffffffffffffffffffffff1690602001909291905050506120e5565b6040518082815260200191505060405180910390f35b6108c66004803603604081101561089057600080fd5b81019080803573ffffffffffffffffffffffffffffffffffffffff169060200190929190803590602001909291905050506121b2565b005b6108d06122e0565b005b610949600480360360208110156108e857600080fd5b810190808035906020019064010000000081111561090557600080fd5b82018360208201111561091757600080fd5b8035906020019184600183028401116401000000008311171561093957600080fd5b9091929391929390505050612385565b005b6109776004803603602081101561096157600080fd5b8101908080359060200190929190505050612713565b6040518082815260200191505060405180910390f35b6109b9600480360360208110156109a357600080fd5b81019080803590602001909291905050506127ca565b005b6109f1600480360360408110156109d157600080fd5b810190808035906020019092919080359060200190929190505050612878565b6040518082815260200191505060405180910390f35b610a7e60048036036020811015610a1d57600080fd5b8101908080359060200190640100000000811115610a3a57600080fd5b820183602082011115610a4c57600080fd5b80359060200191846001830284011164010000000083111715610a6e57600080fd5b9091929391929390505050612938565b005b610b77600480360360a0811015610a9657600080fd5b81019080803573ffffffffffffffffffffffffffffffffffffffff169060200190929190803573ffffffffffffffffffffffffffffffffffffffff169060200190929190803573ffffffffffffffffffffffffffffffffffffffff169060200190929190803573ffffffffffffffffffffffffffffffffffffffff16906020019092919080359060200190640100000000811115610b3357600080fd5b820183602082011115610b4557600080fd5b80359060200191846020830284011164010000000083111715610b6757600080fd5b9091929391929390505050612a13565b005b610bbb60048036036020811015610b8f57600080fd5b81019080803573ffffffffffffffffffffffffffffffffffffffff169060200190929190505050612c00565b6040518082815260200191505060405180910390f35b610bd9612ceb565b604051808273ffffffffffffffffffffffffffffffffffffffff16815260200191505060405180910390f35b603360009054906101000a900473ffffffffffffffffffffffffffffffffffffffff1681565b6000606760009054906101000a900473ffffffffffffffffffffffffffffffffffffffff1673ffffffffffffffffffffffffffffffffffffffff16630d2020dd836040518263ffffffff1660e01b81526004018082815260200191505060206040518083038186803b158015610ca057600080fd5b505afa158015610cb4573d6000803e3d6000fd5b505050506040513d6020811015610cca57600080fd5b81019080805190602001909291905050509050919050565b6000606660009054906101000a900473ffffffffffffffffffffffffffffffffffffffff1673ffffffffffffffffffffffffffffffffffffffff1663e8ecd6cc836040518263ffffffff1660e01b81526004018082815260200191505060206040518083038186803b158015610d5757600080fd5b505afa158015610d6b573d6000803e3d6000fd5b505050506040513d6020811015610d8157600080fd5b810190808051906020019092919050505090506000606660009054906101000a900473ffffffffffffffffffffffffffffffffffffffff1673ffffffffffffffffffffffffffffffffffffffff1663094180818333306040518463ffffffff1660e01b8152600401808481526020018373ffffffffffffffffffffffffffffffffffffffff1681526020018273ffffffffffffffffffffffffffffffffffffffff1681526020019350505050602060405180830381600087803b158015610e4757600080fd5b505af1158015610e5b573d6000803e3d6000fd5b505050506040513d6020811015610e7157600080fd5b81019080805190602001909291905050509050606860009054906101000a900473ffffffffffffffffffffffffffffffffffffffff1673ffffffffffffffffffffffffffffffffffffffff1663095ea7b3606960009054906101000a900473ffffffffffffffffffffffffffffffffffffffff16836040518363ffffffff1660e01b8152600401808373ffffffffffffffffffffffffffffffffffffffff16815260200182815260200192505050602060405180830381600087803b158015610f3957600080fd5b505af1158015610f4d573d6000803e3d6000fd5b505050506040513d6020811015610f6357600080fd5b8101908080519060200190929190505050610fe6576040517f08c379a00000000000000000000000000000000000000000000000000000000081526004018080602001828103825260108152602001807f6572726f7220696e20617070726f76650000000000000000000000000000000081525060200191505060405180910390fd5b6000606760009054906101000a900473ffffffffffffffffffffffffffffffffffffffff1673ffffffffffffffffffffffffffffffffffffffff16633a82b50d336040518263ffffffff1660e01b8152600401808273ffffffffffffffffffffffffffffffffffffffff168152602001915050602060405180830381600087803b15801561107357600080fd5b505af1158015611087573d6000803e3d6000fd5b505050506040513d602081101561109d57600080fd5b81019080805190602001909291905050509050606960009054906101000a900473ffffffffffffffffffffffffffffffffffffffff1673ffffffffffffffffffffffffffffffffffffffff1663bc157ac18333846040518463ffffffff1660e01b8152600401808481526020018373ffffffffffffffffffffffffffffffffffffffff1681526020018281526020019350505050602060405180830381600087803b15801561114b57600080fd5b505af115801561115f573d6000803e3d6000fd5b505050506040513d602081101561117557600080fd5b81019080805190602001909291905050505050505050565b6000606660009054906101000a900473ffffffffffffffffffffffffffffffffffffffff1673ffffffffffffffffffffffffffffffffffffffff16632ff2ae536040518163ffffffff1660e01b815260040160206040518083038186803b1580156111f757600080fd5b505afa15801561120b573d6000803e3d6000fd5b505050506040513d602081101561122157600080fd5b8101908080519060200190929190505050905090565b6000606760009054906101000a900473ffffffffffffffffffffffffffffffffffffffff1673ffffffffffffffffffffffffffffffffffffffff16633aacdc99836040518263ffffffff1660e01b8152600401808273ffffffffffffffffffffffffffffffffffffffff16815260200191505060206040518083038186803b1580156112c257600080fd5b505afa1580156112d6573d6000803e3d6000fd5b505050506040513d60208110156112ec57600080fd5b81019080805190602001909291905050509050919050565b6000806060606760009054906101000a900473ffffffffffffffffffffffffffffffffffffffff1673ffffffffffffffffffffffffffffffffffffffff16633ac7c784856040518263ffffffff1660e01b81526004018082815260200191505060006040518083038186803b15801561137c57600080fd5b505afa158015611390573d6000803e3d6000fd5b505050506040513d6000823e3d601f19601f8201168201806040525060608110156113ba57600080fd5b810190808051906020019092919080519060200190929190805160405193929190846401000000008211156113ee57600080fd5b8382019150602082018581111561140457600080fd5b825186600182028301116401000000008211171561142157600080fd5b8083526020830192505050908051906020019080838360005b8381101561145557808201518184015260208101905061143a565b50505050905090810190601f1680156114825780820380516001836020036101000a031916815260200191505b506040525050509250925092509193909250565b606860009054906101000a900473ffffffffffffffffffffffffffffffffffffffff1673ffffffffffffffffffffffffffffffffffffffff166323b872dd8230866040518463ffffffff1660e01b8152600401808473ffffffffffffffffffffffffffffffffffffffff1681526020018373ffffffffffffffffffffffffffffffffffffffff1681526020018281526020019350505050602060405180830381600087803b15801561154757600080fd5b505af115801561155b573d6000803e3d6000fd5b505050506040513d602081101561157157600080fd5b81019080805190602001909291905050506115f4576040517f08c379a00000000000000000000000000000000000000000000000000000000081526004018080602001828103825260158152602001807f6572726f7220696e207472616e7366657246726f6d000000000000000000000081525060200191505060405180910390fd5b606860009054906101000a900473ffffffffffffffffffffffffffffffffffffffff1673ffffffffffffffffffffffffffffffffffffffff1663095ea7b3606660009054906101000a900473ffffffffffffffffffffffffffffffffffffffff16856040518363ffffffff1660e01b8152600401808373ffffffffffffffffffffffffffffffffffffffff16815260200182815260200192505050602060405180830381600087803b1580156116a957600080fd5b505af11580156116bd573d6000803e3d6000fd5b505050506040513d60208110156116d357600080fd5b8101908080519060200190929190505050611756576040517f08c379a00000000000000000000000000000000000000000000000000000000081526004018080602001828103825260108152602001807f6572726f7220696e20617070726f76650000000000000000000000000000000081525060200191505060405180910390fd5b606660009054906101000a900473ffffffffffffffffffffffffffffffffffffffff1673ffffffffffffffffffffffffffffffffffffffff1663838806968484306040518463ffffffff1660e01b8152600401808481526020018373ffffffffffffffffffffffffffffffffffffffff1681526020018273ffffffffffffffffffffffffffffffffffffffff1681526020019350505050600060405180830381600087803b15801561180757600080fd5b505af115801561181b573d6000803e3d6000fd5b50505050505050565b606760009054906101000a900473ffffffffffffffffffffffffffffffffffffffff1681565b606760009054906101000a900473ffffffffffffffffffffffffffffffffffffffff1673ffffffffffffffffffffffffffffffffffffffff166398eaf788338585856040518563ffffffff1660e01b8152600401808573ffffffffffffffffffffffffffffffffffffffff1681526020018473ffffffffffffffffffffffffffffffffffffffff168152602001806020018281038252848482818152602001925080828437600081840152601f19601f82011690508083019250505095505050505050600060405180830381600087803b15801561192757600080fd5b505af115801561193b573d6000803e3d6000fd5b50505050505050565b606760009054906101000a900473ffffffffffffffffffffffffffffffffffffffff1673ffffffffffffffffffffffffffffffffffffffff166365acf77d33836040518363ffffffff1660e01b8152600401808373ffffffffffffffffffffffffffffffffffffffff16815260200182815260200192505050600060405180830381600087803b1580156119d757600080fd5b505af11580156119eb573d6000803e3d6000fd5b5050505050565b6000606660009054906101000a900473ffffffffffffffffffffffffffffffffffffffff1673ffffffffffffffffffffffffffffffffffffffff1663626be5676040518163ffffffff1660e01b815260040160206040518083038186803b158015611a5c57600080fd5b505afa158015611a70573d6000803e3d6000fd5b505050506040513d6020811015611a8657600080fd5b8101908080519060200190929190505050905090565b6000606760009054906101000a900473ffffffffffffffffffffffffffffffffffffffff1673ffffffffffffffffffffffffffffffffffffffff166363adb1a26040518163ffffffff1660e01b815260040160206040518083038186803b158015611b0657600080fd5b505afa158015611b1a573d6000803e3d6000fd5b505050506040513d6020811015611b3057600080fd5b8101908080519060200190929190505050905090565b606960009054906101000a900473ffffffffffffffffffffffffffffffffffffffff1681565b611b77828233611496565b5050565b606860009054906101000a900473ffffffffffffffffffffffffffffffffffffffff1681565b6000606760009054906101000a900473ffffffffffffffffffffffffffffffffffffffff1673ffffffffffffffffffffffffffffffffffffffff166380eea1ee84846040518363ffffffff1660e01b8152600401808373ffffffffffffffffffffffffffffffffffffffff1681526020018281526020019250505060206040518083038186803b158015611c3457600080fd5b505afa158015611c48573d6000803e3d6000fd5b505050506040513d6020811015611c5e57600080fd5b8101908080519060200190929190505050905092915050565b600080606660009054906101000a900473ffffffffffffffffffffffffffffffffffffffff1673ffffffffffffffffffffffffffffffffffffffff16635423cd493086866040518463ffffffff1660e01b8152600401808473ffffffffffffffffffffffffffffffffffffffff168152602001806020018281038252848482818152602001925060200280828437600081840152601f19601f820116905080830192505050945050505050604080518083038186803b158015611d3957600080fd5b505afa158015611d4d573d6000803e3d6000fd5b505050506040513d6040811015611d6357600080fd5b810190808051906020019092919080519060200190929190505050915091509250929050565b6000606760009054906101000a900473ffffffffffffffffffffffffffffffffffffffff1673ffffffffffffffffffffffffffffffffffffffff1663aa265d026040518163ffffffff1660e01b815260040160206040518083038186803b158015611df357600080fd5b505afa158015611e07573d6000803e3d6000fd5b505050506040513d6020811015611e1d57600080fd5b8101908080519060200190929190505050905090565b603360009054906101000a900473ffffffffffffffffffffffffffffffffffffffff1673ffffffffffffffffffffffffffffffffffffffff1663d994d6d5336040518263ffffffff1660e01b8152600401808273ffffffffffffffffffffffffffffffffffffffff16815260200191505060206040518083038186803b158015611ebc57600080fd5b505afa158015611ed0573d6000803e3d6000fd5b505050506040513d6020811015611ee657600080fd5b81019080805190602001909291905050506040518060400160405280601681526020017f6e6f745f617574686f72697a65645f6368616e6765720000000000000000000081525090611fd3576040517f08c379a00000000000000000000000000000000000000000000000000000000081526004018080602001828103825283818151815260200191508051906020019080838360005b83811015611f98578082015181840152602081019050611f7d565b50505050905090810190601f168015611fc55780820380516001836020036101000a031916815260200191505b509250505060405180910390fd5b5080603360006101000a81548173ffffffffffffffffffffffffffffffffffffffff021916908373ffffffffffffffffffffffffffffffffffffffff16021790555050565b6000606760009054906101000a900473ffffffffffffffffffffffffffffffffffffffff1673ffffffffffffffffffffffffffffffffffffffff1663b9b55c9a836040518263ffffffff1660e01b8152600401808273ffffffffffffffffffffffffffffffffffffffff16815260200191505060206040518083038186803b1580156120a357600080fd5b505afa1580156120b7573d6000803e3d6000fd5b505050506040513d60208110156120cd57600080fd5b81019080805190602001909291905050509050919050565b6000606660009054906101000a900473ffffffffffffffffffffffffffffffffffffffff1673ffffffffffffffffffffffffffffffffffffffff1663c4086893836040518263ffffffff1660e01b8152600401808273ffffffffffffffffffffffffffffffffffffffff16815260200191505060206040518083038186803b15801561217057600080fd5b505afa158015612184573d6000803e3d6000fd5b505050506040513d602081101561219a57600080fd5b81019080805190602001909291905050509050919050565b606a6121be8133612d11565b612230576040517f08c379a000000000000000000000000000000000000000000000000000000000815260040180806020018281038252601a8152602001807f41646472657373206973206e6f742077686974656c697374656400000000000081525060200191505060405180910390fd5b606660009054906101000a900473ffffffffffffffffffffffffffffffffffffffff1673ffffffffffffffffffffffffffffffffffffffff1663d602ac6884846040518363ffffffff1660e01b8152600401808373ffffffffffffffffffffffffffffffffffffffff16815260200182815260200192505050600060405180830381600087803b1580156122c357600080fd5b505af11580156122d7573d6000803e3d6000fd5b50505050505050565b606760009054906101000a900473ffffffffffffffffffffffffffffffffffffffff1673ffffffffffffffffffffffffffffffffffffffff1663fdc85fc4336040518263ffffffff1660e01b8152600401808273ffffffffffffffffffffffffffffffffffffffff168152602001915050600060405180830381600087803b15801561236b57600080fd5b505af115801561237f573d6000803e3d6000fd5b50505050565b603360009054906101000a900473ffffffffffffffffffffffffffffffffffffffff1673ffffffffffffffffffffffffffffffffffffffff1663d994d6d5336040518263ffffffff1660e01b8152600401808273ffffffffffffffffffffffffffffffffffffffff16815260200191505060206040518083038186803b15801561240e57600080fd5b505afa158015612422573d6000803e3d6000fd5b505050506040513d602081101561243857600080fd5b81019080805190602001909291905050506040518060400160405280601681526020017f6e6f745f617574686f72697a65645f6368616e6765720000000000000000000081525090612525576040517f08c379a00000000000000000000000000000000000000000000000000000000081526004018080602001828103825283818151815260200191508051906020019080838360005b838110156124ea5780820151818401526020810190506124cf565b50505050905090810190601f1680156125175780820380516001836020036101000a031916815260200191505b509250505060405180910390fd5b50600033905060008173ffffffffffffffffffffffffffffffffffffffff16848460405160240180806020018281038252848482818152602001925080828437600081840152601f19601f82011690508083019250505093505050506040516020818303038152906040527fa16227ca000000000000000000000000000000000000000000000000000000007bffffffffffffffffffffffffffffffffffffffffffffffffffffffff19166020820180517bffffffffffffffffffffffffffffffffffffffffffffffffffffffff83818316178352505050506040518082805190602001908083835b60208310612631578051825260208201915060208101905060208303925061260e565b6001836020036101000a038019825116818451168082178552505050505050905001915050600060405180830381855af49150503d8060008114612691576040519150601f19603f3d011682016040523d82523d6000602084013e612696565b606091505b505090508061270d576040517f08c379a00000000000000000000000000000000000000000000000000000000081526004018080602001828103825260168152602001807f4572726f7220696e2064656c65676174652063616c6c0000000000000000000081525060200191505060405180910390fd5b50505050565b6000606760009054906101000a900473ffffffffffffffffffffffffffffffffffffffff1673ffffffffffffffffffffffffffffffffffffffff1663df1810f9836040518263ffffffff1660e01b81526004018082815260200191505060206040518083038186803b15801561278857600080fd5b505afa15801561279c573d6000803e3d6000fd5b505050506040513d60208110156127b257600080fd5b81019080805190602001909291905050509050919050565b606760009054906101000a900473ffffffffffffffffffffffffffffffffffffffff1673ffffffffffffffffffffffffffffffffffffffff16632be46cdf33836040518363ffffffff1660e01b8152600401808373ffffffffffffffffffffffffffffffffffffffff16815260200182815260200192505050600060405180830381600087803b15801561285d57600080fd5b505af1158015612871573d6000803e3d6000fd5b5050505050565b6000606760009054906101000a900473ffffffffffffffffffffffffffffffffffffffff1673ffffffffffffffffffffffffffffffffffffffff1663eff3609884846040518363ffffffff1660e01b8152600401808381526020018281526020019250505060206040518083038186803b1580156128f557600080fd5b505afa158015612909573d6000803e3d6000fd5b505050506040513d602081101561291f57600080fd5b8101908080519060200190929190505050905092915050565b606760009054906101000a900473ffffffffffffffffffffffffffffffffffffffff1673ffffffffffffffffffffffffffffffffffffffff1663fac3c1f43384846040518463ffffffff1660e01b8152600401808473ffffffffffffffffffffffffffffffffffffffff168152602001806020018281038252848482818152602001925080828437600081840152601f19601f820116905080830192505050945050505050600060405180830381600087803b1580156129f757600080fd5b505af1158015612a0b573d6000803e3d6000fd5b505050505050565b612a1c86612dd3565b83606760006101000a81548173ffffffffffffffffffffffffffffffffffffffff021916908373ffffffffffffffffffffffffffffffffffffffff16021790555084606660006101000a81548173ffffffffffffffffffffffffffffffffffffffff021916908373ffffffffffffffffffffffffffffffffffffffff1602179055508473ffffffffffffffffffffffffffffffffffffffff166372015d1a6040518163ffffffff1660e01b815260040160206040518083038186803b158015612ae457600080fd5b505afa158015612af8573d6000803e3d6000fd5b505050506040513d6020811015612b0e57600080fd5b8101908080519060200190929190505050606860006101000a81548173ffffffffffffffffffffffffffffffffffffffff021916908373ffffffffffffffffffffffffffffffffffffffff16021790555082606960006101000a81548173ffffffffffffffffffffffffffffffffffffffff021916908373ffffffffffffffffffffffffffffffffffffffff16021790555060005b82829050811015612bf757612bea838383818110612bbd57fe5b9050602002013573ffffffffffffffffffffffffffffffffffffffff16606a612e1790919063ffffffff16565b8080600101915050612ba3565b50505050505050565b6000606660009054906101000a900473ffffffffffffffffffffffffffffffffffffffff1673ffffffffffffffffffffffffffffffffffffffff1663b25147e330846040518363ffffffff1660e01b8152600401808373ffffffffffffffffffffffffffffffffffffffff1681526020018273ffffffffffffffffffffffffffffffffffffffff1681526020019250505060206040518083038186803b158015612ca957600080fd5b505afa158015612cbd573d6000803e3d6000fd5b505050506040513d6020811015612cd357600080fd5b81019080805190602001909291905050509050919050565b606660009054906101000a900473ffffffffffffffffffffffffffffffffffffffff1681565b60008073ffffffffffffffffffffffffffffffffffffffff168273ffffffffffffffffffffffffffffffffffffffff161415612db5576040517f08c379a00000000000000000000000000000000000000000000000000000000081526004018080602001828103825260178152602001807f4163636f756e74206d757374206e6f742062652030783000000000000000000081525060200191505060405180910390fd5b612dcb8284600001612f4c90919063ffffffff16565b905092915050565b80603360006101000a81548173ffffffffffffffffffffffffffffffffffffffff021916908373ffffffffffffffffffffffffffffffffffffffff16021790555050565b600073ffffffffffffffffffffffffffffffffffffffff168173ffffffffffffffffffffffffffffffffffffffff161415612eba576040517f08c379a00000000000000000000000000000000000000000000000000000000081526004018080602001828103825260178152602001807f4163636f756e74206d757374206e6f742062652030783000000000000000000081525060200191505060405180910390fd5b6000612ed28284600001612f9b90919063ffffffff16565b905080612f47576040517f08c379a000000000000000000000000000000000000000000000000000000000815260040180806020018281038252601b8152602001807f4163636f756e7420616c72656164792077686974656c6973746564000000000081525060200191505060405180910390fd5b505050565b6000808360010160008473ffffffffffffffffffffffffffffffffffffffff1673ffffffffffffffffffffffffffffffffffffffff168152602001908152602001600020541415905092915050565b6000612fa78383612f4c565b6130665782600001829080600181540180825580915050600190039060005260206000200160009091909190916101000a81548173ffffffffffffffffffffffffffffffffffffffff021916908373ffffffffffffffffffffffffffffffffffffffff16021790555082600001805490508360010160008473ffffffffffffffffffffffffffffffffffffffff1673ffffffffffffffffffffffffffffffffffffffff168152602001908152602001600020819055506001905061306b565b600090505b9291505056fea264697066735822122000b3faabee49c9e184ac82143b6f7a4c1f9fe5718d3013c28724367bf3b6622264736f6c634300060c0033",
  "immutableReferences": {},
  "source": "// SPDX-License-Identifier: UNLICENSED\npragma solidity 0.6.12;\n\nimport {IStakingMachine} from \"@moc/shared/contracts/IStakingMachine.sol\";\nimport {IDelayMachine} from \"@moc/shared/contracts/IDelayMachine.sol\";\nimport {SafeMath} from \"@openzeppelin/contracts-ethereum-package/contracts/math/SafeMath.sol\";\nimport {IGovernor} from \"@moc/shared/contracts/moc-governance/Governance/IGovernor.sol\";\nimport {Governed} from \"@moc/shared/contracts/moc-governance/Governance/Governed.sol\";\nimport {Supporters} from \"./Supporters.sol\";\nimport {OracleManager} from \"./OracleManager.sol\";\nimport {CoinPairPrice} from \"./CoinPairPrice.sol\";\nimport {StakingStorage} from \"./StakingStorage.sol\";\n\ncontract Staking is StakingStorage, IStakingMachine {\n    using SafeMath for uint256;\n\n    // -----------------------------------------------------------------------\n    //\n    //   Public interface\n    //\n    // -----------------------------------------------------------------------\n\n    // -----------------------------------------------------------------------\n    //   Staking\n    // -----------------------------------------------------------------------\n\n    /// @notice Construct this contract.\n    /// @param _governor The address of the contract which governs this one\n    /// @param _supporters the Supporters contract contract address.\n    /// @param _oracleManager the Oracle Manager contract contract address.\n    /// @param _delayMachine the Delay Machine contract contract address.\n    /// @param _wlistlock Initial whitelist addresses for locking mocs\n    function initialize(\n        IGovernor _governor,\n        Supporters _supporters,\n        OracleManager _oracleManager,\n        IDelayMachine _delayMachine,\n        address[] calldata _wlistlock\n    ) external {\n        Governed._initialize(_governor);\n        oracleManager = _oracleManager;\n        supporters = _supporters;\n        mocToken = _supporters.mocToken();\n        delayMachine = _delayMachine;\n        for (uint256 i = 0; i < _wlistlock.length; i++) {\n            iterableWhitelistDataLock._addToWhitelist(_wlistlock[i]);\n        }\n    }\n\n    /// @notice Used by the voting machine to lock an amount of MOCs.\n    /// Delegates to the Supporters smart contract.\n    /// @param mocHolder the moc holder whose mocs will be locked.\n    /// @param untilTimestamp timestamp until which the mocs will be locked.\n    function lockMocs(address mocHolder, uint256 untilTimestamp)\n        external\n        override\n        onlyWhitelisted(iterableWhitelistDataLock)\n    {\n        supporters.lockMocs(mocHolder, untilTimestamp);\n    }\n\n    /// @notice Accept a deposit from an account.\n    /// Delegates to the Supporters smart contract.\n    /// @param mocs token quantity\n    /// @param destination the destination account of this deposit.\n    function deposit(uint256 mocs, address destination) external override {\n        depositFrom(mocs, destination, msg.sender);\n    }\n\n    /// @notice Accept a deposit from an account.\n    /// Delegates to the Supporters smart contract.\n    /// @param mocs token quantity\n    /// @param destination the destination account of this deposit.\n    /// @param source the address that approved the transfer\n    function depositFrom(\n        uint256 mocs,\n        address destination,\n        address source\n    ) public override {\n        // Transfer stake [should be approved by owner first]\n        require(mocToken.transferFrom(source, address(this), mocs), \"error in transferFrom\");\n        // Stake at Supporters contract\n        require(mocToken.approve(address(supporters), mocs), \"error in approve\");\n        supporters.stakeAtFrom(mocs, destination, address(this));\n    }\n\n    /// @notice Withdraw stake, send it to the delay machine.\n    /// @param _mocs token quantity\n    function withdraw(uint256 _mocs) external override {\n        uint256 tokens = supporters.mocToToken(_mocs);\n        uint256 mocs = supporters.withdrawFromTo(tokens, msg.sender, address(this));\n        // Approve stake transfer for Delay Machine contract\n        require(mocToken.approve(address(delayMachine), mocs), \"error in approve\");\n        uint256 expiration = oracleManager.onWithdraw(msg.sender);\n        delayMachine.deposit(mocs, msg.sender, expiration);\n    }\n\n    /// @notice Get the value of the token, withdraw and deposit can be done only in multiples of the token value.\n    function totalMoc() external view returns (uint256) {\n        return supporters.totalMoc();\n    }\n\n    function totalToken() external view returns (uint256) {\n        return supporters.totalToken();\n    }\n\n    /// @notice Reports the balance of MOCs for a specific user.\n    /// Delegates to the Supporters smart contract.\n    /// @param user user address\n    function getBalance(address user) external override view returns (uint256) {\n        return supporters.getMOCBalanceAt(address(this), user);\n    }\n\n    /// @notice Reports the balance of locked MOCs for a specific user.\n    /// Delegates to the Supporters smart contract.\n    /// @param user user address\n    function getLockedBalance(address user) external override view returns (uint256) {\n        return supporters.getLockedBalance(user);\n    }\n\n    // -----------------------------------------------------------------------\n    //   Oracles\n    // -----------------------------------------------------------------------\n\n    /// @notice Returns the amount of owners registered.\n    /// Delegates to the Oracle Manager smart contract.\n    function getRegisteredOraclesLen() external view returns (uint256) {\n        return oracleManager.getRegisteredOraclesLen();\n    }\n\n    /// @notice Returns the oracle name and address at index.\n    /// Delegates to the Oracle Manager smart contract.\n    /// @param idx index to query.\n    function getRegisteredOracleAtIndex(uint256 idx)\n        external\n        view\n        returns (\n            address ownerAddr,\n            address oracleAddr,\n            string memory url\n        )\n    {\n        return oracleManager.getRegisteredOracleAtIndex(idx);\n    }\n\n    /// @notice Set an oracle's name (url) and address.\n    /// Delegates to the Oracle Manager smart contract.\n    /// @param oracleAddr address of the oracle (from which we publish prices)\n    /// @param url url used by the oracle server\n    function registerOracle(address oracleAddr, string calldata url) external {\n        oracleManager.registerOracle(msg.sender, oracleAddr, url);\n    }\n\n    /// @notice Change the oracle \"internet\" name (URI)\n    /// @param url The new url to set.\n    function setOracleName(string calldata url) external {\n        oracleManager.setOracleName(msg.sender, url);\n    }\n\n    /// @notice Return true if the oracle is registered.\n    /// @param ownerAddr The address of the owner of the Oracle to check for.\n    function isOracleRegistered(address ownerAddr) external view returns (bool) {\n        return oracleManager.isOracleRegistered(ownerAddr);\n    }\n\n    /// @notice Returns true if an oracle satisfies conditions to be removed from system.\n    /// @param ownerAddr the address of the owner of the oracle to lookup.\n    function canRemoveOracle(address ownerAddr) external view returns (bool) {\n        return oracleManager.canRemoveOracle(ownerAddr);\n    }\n\n    /// @notice Remove an oracle.\n    /// Delegates to the Oracle Manager smart contract.\n    function removeOracle() external {\n        oracleManager.removeOracle(msg.sender);\n    }\n\n    /// @notice Returns the count of registered coin pairs.\n    /// Keep in mind that Deleted coin-pairs will contain zeroed addresses.\n    function getCoinPairCount() external view returns (uint256) {\n        return oracleManager.getCoinPairCount();\n    }\n\n    /// @notice Returns the coin pair at index.\n    /// @param i index to query.\n    function getCoinPairAtIndex(uint256 i) external view returns (bytes32) {\n        return oracleManager.getCoinPairAtIndex(i);\n    }\n\n    /// @notice Return the contract address for a specified registered coin pair.\n    /// @param coinPair Coin-pair string to lookup (e.g: BTCUSD)\n    /// @return address Address of contract or zero if does not exist or was deleted.\n    function getContractAddress(bytes32 coinPair) external view returns (address) {\n        return oracleManager.getContractAddress(coinPair);\n    }\n\n    /// @notice Searches a coinpair in coinPairList\n    /// @param coinPair The bytes32-encoded coinpair string (e.g. BTCUSD)\n    /// @param hint Optional hint to start traversing the coinPairList array, zero is to search all the array.\n    function getCoinPairIndex(bytes32 coinPair, uint256 hint) external view returns (uint256) {\n        return oracleManager.getCoinPairIndex(coinPair, hint);\n    }\n\n    /// @notice Subscribe an oracle to a coin pair.\n    /// Delegates to the Oracle Manager smart contract.\n    /// @param coinPair coin pair to subscribe, for example BTCUSD\n    function subscribeToCoinPair(bytes32 coinPair) external {\n        oracleManager.subscribeToCoinPair(msg.sender, coinPair);\n    }\n\n    /// @notice Unsubscribe an oracle from a coin pair.\n    /// Delegates to the Oracle Manager smart contract.\n    /// @param coinPair coin pair to unsubscribe, for example BTCUSD\n    function unsubscribeFromCoinPair(bytes32 coinPair) external {\n        oracleManager.unsubscribeFromCoinPair(msg.sender, coinPair);\n    }\n\n    /// @notice Returns true if an oracle is subscribed to a coin pair\n    /// @param ownerAddr address of the oracle\n    /// @param coinPair coin pair to unsubscribe, for example BTCUSD\n    function isSubscribed(address ownerAddr, bytes32 coinPair) external view returns (bool) {\n        return oracleManager.isSubscribed(ownerAddr, coinPair);\n    }\n\n    function getMaxBalance(address[] calldata addresses) external view returns (address, uint256) {\n        return supporters.getMaxMOCBalance(address(this), addresses);\n    }\n}\n",
  "sourcePath": "/home/adji/Desktop/work/coinfabrik/moc-oraculos/contracts/Staking.sol",
  "compiler": {
    "name": "solc",
    "version": "0.6.12+commit.27d51765.Emscripten.clang"
  },
  "schemaVersion": "3.2.4",
  "updatedAt": "2020-09-11T20:34:45.470Z",
  "devdoc": {
    "kind": "dev",
    "methods": {
      "canRemoveOracle(address)": {
        "params": {
          "ownerAddr": "the address of the owner of the oracle to lookup."
        }
      },
      "changeIGovernor(address)": {
        "params": {
          "newIGovernor": "New governor address"
        }
      },
      "delegateCallToChanger(bytes)": {
        "params": {
          "data": "the serialized function arguments"
        }
      },
      "deposit(uint256,address)": {
        "params": {
          "destination": "the destination account of this deposit.",
          "mocs": "token quantity"
        }
      },
      "depositFrom(uint256,address,address)": {
        "params": {
          "destination": "the destination account of this deposit.",
          "mocs": "token quantity",
          "source": "the address that approved the transfer"
        }
      },
      "getBalance(address)": {
        "params": {
          "user": "user address"
        }
      },
      "getCoinPairAtIndex(uint256)": {
        "params": {
          "i": "index to query."
        }
      },
      "getCoinPairIndex(bytes32,uint256)": {
        "params": {
          "coinPair": "The bytes32-encoded coinpair string (e.g. BTCUSD)",
          "hint": "Optional hint to start traversing the coinPairList array, zero is to search all the array."
        }
      },
      "getContractAddress(bytes32)": {
        "params": {
          "coinPair": "Coin-pair string to lookup (e.g: BTCUSD)"
        },
        "returns": {
          "_0": "address Address of contract or zero if does not exist or was deleted."
        }
      },
      "getLockedBalance(address)": {
        "params": {
          "user": "user address"
        }
      },
      "getRegisteredOracleAtIndex(uint256)": {
        "params": {
          "idx": "index to query."
        }
      },
      "initialize(address,address,address,address,address[])": {
        "params": {
          "_delayMachine": "the Delay Machine contract contract address.",
          "_governor": "The address of the contract which governs this one",
          "_oracleManager": "the Oracle Manager contract contract address.",
          "_supporters": "the Supporters contract contract address.",
          "_wlistlock": "Initial whitelist addresses for locking mocs"
        }
      },
      "isOracleRegistered(address)": {
        "params": {
          "ownerAddr": "The address of the owner of the Oracle to check for."
        }
      },
      "isSubscribed(address,bytes32)": {
        "params": {
          "coinPair": "coin pair to unsubscribe, for example BTCUSD",
          "ownerAddr": "address of the oracle"
        }
      },
      "lockMocs(address,uint256)": {
        "params": {
          "mocHolder": "the moc holder whose mocs will be locked.",
          "untilTimestamp": "timestamp until which the mocs will be locked."
        }
      },
      "registerOracle(address,string)": {
        "params": {
          "oracleAddr": "address of the oracle (from which we publish prices)",
          "url": "url used by the oracle server"
        }
      },
      "setOracleName(string)": {
        "params": {
          "url": "The new url to set."
        }
      },
      "subscribeToCoinPair(bytes32)": {
        "params": {
          "coinPair": "coin pair to subscribe, for example BTCUSD"
        }
      },
      "unsubscribeFromCoinPair(bytes32)": {
        "params": {
          "coinPair": "coin pair to unsubscribe, for example BTCUSD"
        }
      },
      "withdraw(uint256)": {
        "params": {
          "_mocs": "token quantity"
        }
      }
    },
    "version": 1
  },
  "userdoc": {
    "kind": "user",
    "methods": {
      "canRemoveOracle(address)": {
        "notice": "Returns true if an oracle satisfies conditions to be removed from system."
      },
      "changeIGovernor(address)": {
        "notice": "Change the contract's governor. Should be called through the old governance system"
      },
      "delegateCallToChanger(bytes)": {
        "notice": "This method is used by a change contract to access the storage freely even without a setter."
      },
      "deposit(uint256,address)": {
        "notice": "Accept a deposit from an account. Delegates to the Supporters smart contract."
      },
      "depositFrom(uint256,address,address)": {
        "notice": "Accept a deposit from an account. Delegates to the Supporters smart contract."
      },
      "getBalance(address)": {
        "notice": "Reports the balance of MOCs for a specific user. Delegates to the Supporters smart contract."
      },
      "getCoinPairAtIndex(uint256)": {
        "notice": "Returns the coin pair at index."
      },
      "getCoinPairCount()": {
        "notice": "Returns the count of registered coin pairs. Keep in mind that Deleted coin-pairs will contain zeroed addresses."
      },
      "getCoinPairIndex(bytes32,uint256)": {
        "notice": "Searches a coinpair in coinPairList"
      },
      "getContractAddress(bytes32)": {
        "notice": "Return the contract address for a specified registered coin pair."
      },
      "getLockedBalance(address)": {
        "notice": "Reports the balance of locked MOCs for a specific user. Delegates to the Supporters smart contract."
      },
      "getRegisteredOracleAtIndex(uint256)": {
        "notice": "Returns the oracle name and address at index. Delegates to the Oracle Manager smart contract."
      },
      "getRegisteredOraclesLen()": {
        "notice": "Returns the amount of owners registered. Delegates to the Oracle Manager smart contract."
      },
      "governor()": {
        "notice": "The address of the contract which governs this one"
      },
      "initialize(address,address,address,address,address[])": {
        "notice": "Construct this contract."
      },
      "isOracleRegistered(address)": {
        "notice": "Return true if the oracle is registered."
      },
      "isSubscribed(address,bytes32)": {
        "notice": "Returns true if an oracle is subscribed to a coin pair"
      },
      "lockMocs(address,uint256)": {
        "notice": "Used by the voting machine to lock an amount of MOCs. Delegates to the Supporters smart contract."
      },
      "registerOracle(address,string)": {
        "notice": "Set an oracle's name (url) and address. Delegates to the Oracle Manager smart contract."
      },
      "removeOracle()": {
        "notice": "Remove an oracle. Delegates to the Oracle Manager smart contract."
      },
      "setOracleName(string)": {
        "notice": "Change the oracle \"internet\" name (URI)"
      },
      "subscribeToCoinPair(bytes32)": {
        "notice": "Subscribe an oracle to a coin pair. Delegates to the Oracle Manager smart contract."
      },
      "totalMoc()": {
        "notice": "Get the value of the token, withdraw and deposit can be done only in multiples of the token value."
      },
      "unsubscribeFromCoinPair(bytes32)": {
        "notice": "Unsubscribe an oracle from a coin pair. Delegates to the Oracle Manager smart contract."
      },
      "withdraw(uint256)": {
        "notice": "Withdraw stake, send it to the delay machine."
      }
    },
    "version": 1
  }
}