{
    "contractName": "Staking",
    "abi": [
        {
            "inputs": [
                {
                    "internalType": "contract IGovernor",
                    "name": "newIGovernor",
                    "type": "address"
                }
            ],
            "name": "changeIGovernor",
            "outputs": [],
            "stateMutability": "nonpayable",
            "type": "function"
        },
        {
            "inputs": [],
            "name": "delayMachine",
            "outputs": [
                {
                    "internalType": "contract IDelayMachine",
                    "name": "",
                    "type": "address"
                }
            ],
            "stateMutability": "view",
            "type": "function",
            "constant": true
        },
        {
            "inputs": [
                {
                    "internalType": "bytes",
                    "name": "data",
                    "type": "bytes"
                }
            ],
            "name": "delegateCallToChanger",
            "outputs": [],
            "stateMutability": "nonpayable",
            "type": "function"
        },
        {
            "inputs": [],
            "name": "governor",
            "outputs": [
                {
                    "internalType": "contract IGovernor",
                    "name": "",
                    "type": "address"
                }
            ],
            "stateMutability": "view",
            "type": "function",
            "constant": true
        },
        {
            "inputs": [],
            "name": "mocToken",
            "outputs": [
                {
                    "internalType": "contract IERC20",
                    "name": "",
                    "type": "address"
                }
            ],
            "stateMutability": "view",
            "type": "function",
            "constant": true
        },
        {
            "inputs": [],
            "name": "oracleManager",
            "outputs": [
                {
                    "internalType": "contract OracleManager",
                    "name": "",
                    "type": "address"
                }
            ],
            "stateMutability": "view",
            "type": "function",
            "constant": true
        },
        {
            "inputs": [],
            "name": "supporters",
            "outputs": [
                {
                    "internalType": "contract Supporters",
                    "name": "",
                    "type": "address"
                }
            ],
            "stateMutability": "view",
            "type": "function",
            "constant": true
        },
        {
            "inputs": [],
            "name": "thirtyDays",
            "outputs": [
                {
                    "internalType": "uint256",
                    "name": "",
                    "type": "uint256"
                }
            ],
            "stateMutability": "view",
            "type": "function",
            "constant": true
        },
        {
            "inputs": [
                {
                    "internalType": "contract IGovernor",
                    "name": "_governor",
                    "type": "address"
                },
                {
                    "internalType": "contract Supporters",
                    "name": "_supporters",
                    "type": "address"
                },
                {
                    "internalType": "contract OracleManager",
                    "name": "_oracleManager",
                    "type": "address"
                },
                {
                    "internalType": "contract IDelayMachine",
                    "name": "_delayMachine",
                    "type": "address"
                },
                {
                    "internalType": "address[]",
                    "name": "_wlistlock",
                    "type": "address[]"
                },
                {
                    "internalType": "uint256",
                    "name": "_withdrawLockTime",
                    "type": "uint256"
                }
            ],
            "name": "initialize",
            "outputs": [],
            "stateMutability": "nonpayable",
            "type": "function"
        },
        {
            "inputs": [
                {
                    "internalType": "address",
                    "name": "mocHolder",
                    "type": "address"
                },
                {
                    "internalType": "uint256",
                    "name": "untilTimestamp",
                    "type": "uint256"
                }
            ],
            "name": "lockMocs",
            "outputs": [],
            "stateMutability": "nonpayable",
            "type": "function"
        },
        {
            "inputs": [
                {
                    "internalType": "uint256",
                    "name": "mocs",
                    "type": "uint256"
                },
                {
                    "internalType": "address",
                    "name": "destination",
                    "type": "address"
                }
            ],
            "name": "deposit",
            "outputs": [],
            "stateMutability": "nonpayable",
            "type": "function"
        },
        {
            "inputs": [
                {
                    "internalType": "uint256",
                    "name": "mocs",
                    "type": "uint256"
                },
                {
                    "internalType": "address",
                    "name": "destination",
                    "type": "address"
                },
                {
                    "internalType": "address",
                    "name": "source",
                    "type": "address"
                }
            ],
            "name": "depositFrom",
            "outputs": [],
            "stateMutability": "nonpayable",
            "type": "function"
        },
        {
            "inputs": [
                {
                    "internalType": "uint256",
                    "name": "_mocs",
                    "type": "uint256"
                }
            ],
            "name": "withdraw",
            "outputs": [],
            "stateMutability": "nonpayable",
            "type": "function"
        },
        {
            "inputs": [],
            "name": "totalMoc",
            "outputs": [
                {
                    "internalType": "uint256",
                    "name": "",
                    "type": "uint256"
                }
            ],
            "stateMutability": "view",
            "type": "function",
            "constant": true
        },
        {
            "inputs": [],
            "name": "totalToken",
            "outputs": [
                {
                    "internalType": "uint256",
                    "name": "",
                    "type": "uint256"
                }
            ],
            "stateMutability": "view",
            "type": "function",
            "constant": true
        },
        {
            "inputs": [
                {
                    "internalType": "address",
                    "name": "user",
                    "type": "address"
                }
            ],
            "name": "getBalance",
            "outputs": [
                {
                    "internalType": "uint256",
                    "name": "",
                    "type": "uint256"
                }
            ],
            "stateMutability": "view",
            "type": "function",
            "constant": true
        },
        {
            "inputs": [
                {
                    "internalType": "address",
                    "name": "user",
                    "type": "address"
                }
            ],
            "name": "getLockedBalance",
            "outputs": [
                {
                    "internalType": "uint256",
                    "name": "",
                    "type": "uint256"
                }
            ],
            "stateMutability": "view",
            "type": "function",
            "constant": true
        },
        {
            "inputs": [],
            "name": "getRegisteredOraclesLen",
            "outputs": [
                {
                    "internalType": "uint256",
                    "name": "",
                    "type": "uint256"
                }
            ],
            "stateMutability": "view",
            "type": "function",
            "constant": true
        },
        {
            "inputs": [
                {
                    "internalType": "uint256",
                    "name": "idx",
                    "type": "uint256"
                }
            ],
            "name": "getRegisteredOracleAtIndex",
            "outputs": [
                {
                    "internalType": "address",
                    "name": "ownerAddr",
                    "type": "address"
                },
                {
                    "internalType": "address",
                    "name": "oracleAddr",
                    "type": "address"
                },
                {
                    "internalType": "string",
                    "name": "url",
                    "type": "string"
                }
            ],
            "stateMutability": "view",
            "type": "function",
            "constant": true
        },
        {
            "inputs": [
                {
                    "internalType": "address",
                    "name": "oracleAddr",
                    "type": "address"
                },
                {
                    "internalType": "string",
                    "name": "url",
                    "type": "string"
                }
            ],
            "name": "registerOracle",
            "outputs": [],
            "stateMutability": "nonpayable",
            "type": "function"
        },
        {
            "inputs": [
                {
                    "internalType": "string",
                    "name": "url",
                    "type": "string"
                }
            ],
            "name": "setOracleName",
            "outputs": [],
            "stateMutability": "nonpayable",
            "type": "function"
        },
        {
            "inputs": [
                {
                    "internalType": "address",
                    "name": "ownerAddr",
                    "type": "address"
                }
            ],
            "name": "isOracleRegistered",
            "outputs": [
                {
                    "internalType": "bool",
                    "name": "",
                    "type": "bool"
                }
            ],
            "stateMutability": "view",
            "type": "function",
            "constant": true
        },
        {
            "inputs": [
                {
                    "internalType": "address",
                    "name": "ownerAddr",
                    "type": "address"
                }
            ],
            "name": "canRemoveOracle",
            "outputs": [
                {
                    "internalType": "bool",
                    "name": "",
                    "type": "bool"
                }
            ],
            "stateMutability": "view",
            "type": "function",
            "constant": true
        },
        {
            "inputs": [],
            "name": "removeOracle",
            "outputs": [],
            "stateMutability": "nonpayable",
            "type": "function"
        },
        {
            "inputs": [],
            "name": "getCoinPairCount",
            "outputs": [
                {
                    "internalType": "uint256",
                    "name": "",
                    "type": "uint256"
                }
            ],
            "stateMutability": "view",
            "type": "function",
            "constant": true
        },
        {
            "inputs": [
                {
                    "internalType": "uint256",
                    "name": "i",
                    "type": "uint256"
                }
            ],
            "name": "getCoinPairAtIndex",
            "outputs": [
                {
                    "internalType": "bytes32",
                    "name": "",
                    "type": "bytes32"
                }
            ],
            "stateMutability": "view",
            "type": "function",
            "constant": true
        },
        {
            "inputs": [
                {
                    "internalType": "bytes32",
                    "name": "coinPair",
                    "type": "bytes32"
                }
            ],
            "name": "getContractAddress",
            "outputs": [
                {
                    "internalType": "address",
                    "name": "",
                    "type": "address"
                }
            ],
            "stateMutability": "view",
            "type": "function",
            "constant": true
        },
        {
            "inputs": [
                {
                    "internalType": "bytes32",
                    "name": "coinPair",
                    "type": "bytes32"
                },
                {
                    "internalType": "uint256",
                    "name": "hint",
                    "type": "uint256"
                }
            ],
            "name": "getCoinPairIndex",
            "outputs": [
                {
                    "internalType": "uint256",
                    "name": "",
                    "type": "uint256"
                }
            ],
            "stateMutability": "view",
            "type": "function",
            "constant": true
        },
        {
            "inputs": [
                {
                    "internalType": "bytes32",
                    "name": "coinPair",
                    "type": "bytes32"
                }
            ],
            "name": "subscribeToCoinPair",
            "outputs": [],
            "stateMutability": "nonpayable",
            "type": "function"
        },
        {
            "inputs": [
                {
                    "internalType": "bytes32",
                    "name": "coinPair",
                    "type": "bytes32"
                }
            ],
            "name": "unSubscribeFromCoinPair",
            "outputs": [],
            "stateMutability": "nonpayable",
            "type": "function"
        },
        {
            "inputs": [
                {
                    "internalType": "address",
                    "name": "ownerAddr",
                    "type": "address"
                },
                {
                    "internalType": "bytes32",
                    "name": "coinPair",
                    "type": "bytes32"
                }
            ],
            "name": "isSubscribed",
            "outputs": [
                {
                    "internalType": "bool",
                    "name": "",
                    "type": "bool"
                }
            ],
            "stateMutability": "view",
            "type": "function",
            "constant": true
        },
        {
            "inputs": [
                {
                    "internalType": "address[]",
                    "name": "addresses",
                    "type": "address[]"
                }
            ],
            "name": "getMaxBalance",
            "outputs": [
                {
                    "internalType": "address",
                    "name": "",
                    "type": "address"
                },
                {
                    "internalType": "uint256",
                    "name": "",
                    "type": "uint256"
                }
            ],
            "stateMutability": "view",
            "type": "function",
            "constant": true
        }
    ],
    "bytecode": "0x608060405262278d00606d5534801561001757600080fd5b50613184806100276000396000f3fe608060405234801561001057600080fd5b50600436106101f05760003560e01c806380eea1ee1161010f578063dab46553116100a2578063eff3609811610071578063eff3609814610ae7578063f620c15214610b33578063f8b2cb4f14610bac578063fdc31f6f14610c04576101f0565b8063dab46553146109f4578063dc8990e1146109fe578063df1810f914610a77578063e301502f14610ab9576101f0565b8063b6e08330116100de578063b6e08330146108b0578063b9b55c9a146108f4578063c40868931461094e578063d602ac68146109a6576101f0565b806380eea1ee146106815780639be5adb7146106e5578063a5cfab9a146107e8578063aa265d0214610892576101f0565b8063473c541d1161018757806363adb1a21161015657806363adb1a2146105ad5780636b65fbd3146105cb5780636e553f65146105ff57806372015d1a1461064d576101f0565b8063473c541d14610454578063565d878c146104c25780635da6d08c146104f6578063626be5671461058f576101f0565b80632ff2ae53116101c35780632ff2ae53146102dd5780633aacdc99146102fb5780633ac7c784146103555780634504961214610436576101f0565b80630c340a24146101f55780630d2020dd146102295780632419dc0a146102815780632e1a7d4d146102af575b600080fd5b6101fd610c38565b604051808273ffffffffffffffffffffffffffffffffffffffff16815260200191505060405180910390f35b6102556004803603602081101561023f57600080fd5b8101908080359060200190929190505050610c5e565b604051808273ffffffffffffffffffffffffffffffffffffffff16815260200191505060405180910390f35b6102ad6004803603602081101561029757600080fd5b8101908080359060200190929190505050610d15565b005b6102db600480360360208110156102c557600080fd5b8101908080359060200190929190505050610dc3565b005b6102e5611282565b6040518082815260200191505060405180910390f35b61033d6004803603602081101561031157600080fd5b81019080803573ffffffffffffffffffffffffffffffffffffffff16906020019092919050505061132c565b60405180821515815260200191505060405180910390f35b6103816004803603602081101561036b57600080fd5b81019080803590602001909291905050506113f9565b604051808473ffffffffffffffffffffffffffffffffffffffff1681526020018373ffffffffffffffffffffffffffffffffffffffff16815260200180602001828103825283818151815260200191508051906020019080838360005b838110156103f95780820151818401526020810190506103de565b50505050905090810190601f1680156104265780820380516001836020036101000a031916815260200191505b5094505050505060405180910390f35b61043e61158b565b6040518082815260200191505060405180910390f35b6104c06004803603606081101561046a57600080fd5b8101908080359060200190929190803573ffffffffffffffffffffffffffffffffffffffff169060200190929190803573ffffffffffffffffffffffffffffffffffffffff169060200190929190505050611591565b005b6104ca61191f565b604051808273ffffffffffffffffffffffffffffffffffffffff16815260200191505060405180910390f35b61058d6004803603604081101561050c57600080fd5b81019080803573ffffffffffffffffffffffffffffffffffffffff1690602001909291908035906020019064010000000081111561054957600080fd5b82018360208201111561055b57600080fd5b8035906020019184600183028401116401000000008311171561057d57600080fd5b9091929391929390505050611945565b005b610597611a3f565b6040518082815260200191505060405180910390f35b6105b5611ae9565b6040518082815260200191505060405180910390f35b6105d3611b93565b604051808273ffffffffffffffffffffffffffffffffffffffff16815260200191505060405180910390f35b61064b6004803603604081101561061557600080fd5b8101908080359060200190929190803573ffffffffffffffffffffffffffffffffffffffff169060200190929190505050611bb9565b005b610655611bc8565b604051808273ffffffffffffffffffffffffffffffffffffffff16815260200191505060405180910390f35b6106cd6004803603604081101561069757600080fd5b81019080803573ffffffffffffffffffffffffffffffffffffffff16906020019092919080359060200190929190505050611bee565b60405180821515815260200191505060405180910390f35b6107e6600480360360c08110156106fb57600080fd5b81019080803573ffffffffffffffffffffffffffffffffffffffff169060200190929190803573ffffffffffffffffffffffffffffffffffffffff169060200190929190803573ffffffffffffffffffffffffffffffffffffffff169060200190929190803573ffffffffffffffffffffffffffffffffffffffff1690602001909291908035906020019064010000000081111561079857600080fd5b8201836020820111156107aa57600080fd5b803590602001918460208302840111640100000000831117156107cc57600080fd5b909192939192939080359060200190929190505050611cc4565b005b61085f600480360360208110156107fe57600080fd5b810190808035906020019064010000000081111561081b57600080fd5b82018360208201111561082d57600080fd5b8035906020019184602083028401116401000000008311171561084f57600080fd5b9091929391929390505050611eb9565b604051808373ffffffffffffffffffffffffffffffffffffffff1681526020018281526020019250505060405180910390f35b61089a611fcb565b6040518082815260200191505060405180910390f35b6108f2600480360360208110156108c657600080fd5b81019080803573ffffffffffffffffffffffffffffffffffffffff169060200190929190505050612075565b005b6109366004803603602081101561090a57600080fd5b81019080803573ffffffffffffffffffffffffffffffffffffffff16906020019092919050505061225a565b60405180821515815260200191505060405180910390f35b6109906004803603602081101561096457600080fd5b81019080803573ffffffffffffffffffffffffffffffffffffffff169060200190929190505050612327565b6040518082815260200191505060405180910390f35b6109f2600480360360408110156109bc57600080fd5b81019080803573ffffffffffffffffffffffffffffffffffffffff169060200190929190803590602001909291905050506123f4565b005b6109fc612522565b005b610a7560048036036020811015610a1457600080fd5b8101908080359060200190640100000000811115610a3157600080fd5b820183602082011115610a4357600080fd5b80359060200191846001830284011164010000000083111715610a6557600080fd5b90919293919293905050506125c7565b005b610aa360048036036020811015610a8d57600080fd5b8101908080359060200190929190505050612955565b6040518082815260200191505060405180910390f35b610ae560048036036020811015610acf57600080fd5b8101908080359060200190929190505050612a0c565b005b610b1d60048036036040811015610afd57600080fd5b810190808035906020019092919080359060200190929190505050612aba565b6040518082815260200191505060405180910390f35b610baa60048036036020811015610b4957600080fd5b8101908080359060200190640100000000811115610b6657600080fd5b820183602082011115610b7857600080fd5b80359060200191846001830284011164010000000083111715610b9a57600080fd5b9091929391929390505050612b7a565b005b610bee60048036036020811015610bc257600080fd5b81019080803573ffffffffffffffffffffffffffffffffffffffff169060200190929190505050612c55565b6040518082815260200191505060405180910390f35b610c0c612d40565b604051808273ffffffffffffffffffffffffffffffffffffffff16815260200191505060405180910390f35b603360009054906101000a900473ffffffffffffffffffffffffffffffffffffffff1681565b6000606760009054906101000a900473ffffffffffffffffffffffffffffffffffffffff1673ffffffffffffffffffffffffffffffffffffffff16630d2020dd836040518263ffffffff1660e01b81526004018082815260200191505060206040518083038186803b158015610cd357600080fd5b505afa158015610ce7573d6000803e3d6000fd5b505050506040513d6020811015610cfd57600080fd5b81019080805190602001909291905050509050919050565b606760009054906101000a900473ffffffffffffffffffffffffffffffffffffffff1673ffffffffffffffffffffffffffffffffffffffff1663de0b4e0033836040518363ffffffff1660e01b8152600401808373ffffffffffffffffffffffffffffffffffffffff16815260200182815260200192505050600060405180830381600087803b158015610da857600080fd5b505af1158015610dbc573d6000803e3d6000fd5b5050505050565b6000606660009054906101000a900473ffffffffffffffffffffffffffffffffffffffff1673ffffffffffffffffffffffffffffffffffffffff1663e8ecd6cc836040518263ffffffff1660e01b81526004018082815260200191505060206040518083038186803b158015610e3857600080fd5b505afa158015610e4c573d6000803e3d6000fd5b505050506040513d6020811015610e6257600080fd5b810190808051906020019092919050505090506000606660009054906101000a900473ffffffffffffffffffffffffffffffffffffffff1673ffffffffffffffffffffffffffffffffffffffff1663094180818333306040518463ffffffff1660e01b8152600401808481526020018373ffffffffffffffffffffffffffffffffffffffff1681526020018273ffffffffffffffffffffffffffffffffffffffff1681526020019350505050602060405180830381600087803b158015610f2857600080fd5b505af1158015610f3c573d6000803e3d6000fd5b505050506040513d6020811015610f5257600080fd5b81019080805190602001909291905050509050606860009054906101000a900473ffffffffffffffffffffffffffffffffffffffff1673ffffffffffffffffffffffffffffffffffffffff1663095ea7b3606960009054906101000a900473ffffffffffffffffffffffffffffffffffffffff16836040518363ffffffff1660e01b8152600401808373ffffffffffffffffffffffffffffffffffffffff16815260200182815260200192505050602060405180830381600087803b15801561101a57600080fd5b505af115801561102e573d6000803e3d6000fd5b505050506040513d602081101561104457600080fd5b81019080805190602001909291905050506110c7576040517f08c379a00000000000000000000000000000000000000000000000000000000081526004018080602001828103825260108152602001807f6572726f7220696e20617070726f76650000000000000000000000000000000081525060200191505060405180910390fd5b6000606760009054906101000a900473ffffffffffffffffffffffffffffffffffffffff1673ffffffffffffffffffffffffffffffffffffffff16633a82b50d336040518263ffffffff1660e01b8152600401808273ffffffffffffffffffffffffffffffffffffffff168152602001915050602060405180830381600087803b15801561115457600080fd5b505af1158015611168573d6000803e3d6000fd5b505050506040513d602081101561117e57600080fd5b81019080805190602001909291905050509050606960009054906101000a900473ffffffffffffffffffffffffffffffffffffffff1673ffffffffffffffffffffffffffffffffffffffff1663bc157ac183336111e6606a5486612d6690919063ffffffff16565b6040518463ffffffff1660e01b8152600401808481526020018373ffffffffffffffffffffffffffffffffffffffff1681526020018281526020019350505050602060405180830381600087803b15801561124057600080fd5b505af1158015611254573d6000803e3d6000fd5b505050506040513d602081101561126a57600080fd5b81019080805190602001909291905050505050505050565b6000606660009054906101000a900473ffffffffffffffffffffffffffffffffffffffff1673ffffffffffffffffffffffffffffffffffffffff16632ff2ae536040518163ffffffff1660e01b815260040160206040518083038186803b1580156112ec57600080fd5b505afa158015611300573d6000803e3d6000fd5b505050506040513d602081101561131657600080fd5b8101908080519060200190929190505050905090565b6000606760009054906101000a900473ffffffffffffffffffffffffffffffffffffffff1673ffffffffffffffffffffffffffffffffffffffff16633aacdc99836040518263ffffffff1660e01b8152600401808273ffffffffffffffffffffffffffffffffffffffff16815260200191505060206040518083038186803b1580156113b757600080fd5b505afa1580156113cb573d6000803e3d6000fd5b505050506040513d60208110156113e157600080fd5b81019080805190602001909291905050509050919050565b6000806060606760009054906101000a900473ffffffffffffffffffffffffffffffffffffffff1673ffffffffffffffffffffffffffffffffffffffff16633ac7c784856040518263ffffffff1660e01b81526004018082815260200191505060006040518083038186803b15801561147157600080fd5b505afa158015611485573d6000803e3d6000fd5b505050506040513d6000823e3d601f19601f8201168201806040525060608110156114af57600080fd5b810190808051906020019092919080519060200190929190805160405193929190846401000000008211156114e357600080fd5b838201915060208201858111156114f957600080fd5b825186600182028301116401000000008211171561151657600080fd5b8083526020830192505050908051906020019080838360005b8381101561154a57808201518184015260208101905061152f565b50505050905090810190601f1680156115775780820380516001836020036101000a031916815260200191505b506040525050509250925092509193909250565b606d5481565b606860009054906101000a900473ffffffffffffffffffffffffffffffffffffffff1673ffffffffffffffffffffffffffffffffffffffff166323b872dd8230866040518463ffffffff1660e01b8152600401808473ffffffffffffffffffffffffffffffffffffffff1681526020018373ffffffffffffffffffffffffffffffffffffffff1681526020018281526020019350505050602060405180830381600087803b15801561164257600080fd5b505af1158015611656573d6000803e3d6000fd5b505050506040513d602081101561166c57600080fd5b81019080805190602001909291905050506116ef576040517f08c379a00000000000000000000000000000000000000000000000000000000081526004018080602001828103825260158152602001807f6572726f7220696e207472616e7366657246726f6d000000000000000000000081525060200191505060405180910390fd5b606860009054906101000a900473ffffffffffffffffffffffffffffffffffffffff1673ffffffffffffffffffffffffffffffffffffffff1663095ea7b3606660009054906101000a900473ffffffffffffffffffffffffffffffffffffffff16856040518363ffffffff1660e01b8152600401808373ffffffffffffffffffffffffffffffffffffffff16815260200182815260200192505050602060405180830381600087803b1580156117a457600080fd5b505af11580156117b8573d6000803e3d6000fd5b505050506040513d60208110156117ce57600080fd5b8101908080519060200190929190505050611851576040517f08c379a00000000000000000000000000000000000000000000000000000000081526004018080602001828103825260108152602001807f6572726f7220696e20617070726f76650000000000000000000000000000000081525060200191505060405180910390fd5b606660009054906101000a900473ffffffffffffffffffffffffffffffffffffffff1673ffffffffffffffffffffffffffffffffffffffff1663838806968484306040518463ffffffff1660e01b8152600401808481526020018373ffffffffffffffffffffffffffffffffffffffff1681526020018273ffffffffffffffffffffffffffffffffffffffff1681526020019350505050600060405180830381600087803b15801561190257600080fd5b505af1158015611916573d6000803e3d6000fd5b50505050505050565b606760009054906101000a900473ffffffffffffffffffffffffffffffffffffffff1681565b606760009054906101000a900473ffffffffffffffffffffffffffffffffffffffff1673ffffffffffffffffffffffffffffffffffffffff166398eaf788338585856040518563ffffffff1660e01b8152600401808573ffffffffffffffffffffffffffffffffffffffff1681526020018473ffffffffffffffffffffffffffffffffffffffff168152602001806020018281038252848482818152602001925080828437600081840152601f19601f82011690508083019250505095505050505050600060405180830381600087803b158015611a2257600080fd5b505af1158015611a36573d6000803e3d6000fd5b50505050505050565b6000606660009054906101000a900473ffffffffffffffffffffffffffffffffffffffff1673ffffffffffffffffffffffffffffffffffffffff1663626be5676040518163ffffffff1660e01b815260040160206040518083038186803b158015611aa957600080fd5b505afa158015611abd573d6000803e3d6000fd5b505050506040513d6020811015611ad357600080fd5b8101908080519060200190929190505050905090565b6000606760009054906101000a900473ffffffffffffffffffffffffffffffffffffffff1673ffffffffffffffffffffffffffffffffffffffff166363adb1a26040518163ffffffff1660e01b815260040160206040518083038186803b158015611b5357600080fd5b505afa158015611b67573d6000803e3d6000fd5b505050506040513d6020811015611b7d57600080fd5b8101908080519060200190929190505050905090565b606960009054906101000a900473ffffffffffffffffffffffffffffffffffffffff1681565b611bc4828233611591565b5050565b606860009054906101000a900473ffffffffffffffffffffffffffffffffffffffff1681565b6000606760009054906101000a900473ffffffffffffffffffffffffffffffffffffffff1673ffffffffffffffffffffffffffffffffffffffff166380eea1ee84846040518363ffffffff1660e01b8152600401808373ffffffffffffffffffffffffffffffffffffffff1681526020018281526020019250505060206040518083038186803b158015611c8157600080fd5b505afa158015611c95573d6000803e3d6000fd5b505050506040513d6020811015611cab57600080fd5b8101908080519060200190929190505050905092915050565b611ccd87612dee565b84606760006101000a81548173ffffffffffffffffffffffffffffffffffffffff021916908373ffffffffffffffffffffffffffffffffffffffff16021790555085606660006101000a81548173ffffffffffffffffffffffffffffffffffffffff021916908373ffffffffffffffffffffffffffffffffffffffff1602179055508573ffffffffffffffffffffffffffffffffffffffff166372015d1a6040518163ffffffff1660e01b815260040160206040518083038186803b158015611d9557600080fd5b505afa158015611da9573d6000803e3d6000fd5b505050506040513d6020811015611dbf57600080fd5b8101908080519060200190929190505050606860006101000a81548173ffffffffffffffffffffffffffffffffffffffff021916908373ffffffffffffffffffffffffffffffffffffffff16021790555083606960006101000a81548173ffffffffffffffffffffffffffffffffffffffff021916908373ffffffffffffffffffffffffffffffffffffffff16021790555080606a8190555060005b83839050811015611eaf57611ea2848483818110611e7557fe5b9050602002013573ffffffffffffffffffffffffffffffffffffffff16606b612e3290919063ffffffff16565b8080600101915050611e5b565b5050505050505050565b600080606660009054906101000a900473ffffffffffffffffffffffffffffffffffffffff1673ffffffffffffffffffffffffffffffffffffffff16635423cd493086866040518463ffffffff1660e01b8152600401808473ffffffffffffffffffffffffffffffffffffffff168152602001806020018281038252848482818152602001925060200280828437600081840152601f19601f820116905080830192505050945050505050604080518083038186803b158015611f7b57600080fd5b505afa158015611f8f573d6000803e3d6000fd5b505050506040513d6040811015611fa557600080fd5b810190808051906020019092919080519060200190929190505050915091509250929050565b6000606760009054906101000a900473ffffffffffffffffffffffffffffffffffffffff1673ffffffffffffffffffffffffffffffffffffffff1663aa265d026040518163ffffffff1660e01b815260040160206040518083038186803b15801561203557600080fd5b505afa158015612049573d6000803e3d6000fd5b505050506040513d602081101561205f57600080fd5b8101908080519060200190929190505050905090565b603360009054906101000a900473ffffffffffffffffffffffffffffffffffffffff1673ffffffffffffffffffffffffffffffffffffffff1663d994d6d5336040518263ffffffff1660e01b8152600401808273ffffffffffffffffffffffffffffffffffffffff16815260200191505060206040518083038186803b1580156120fe57600080fd5b505afa158015612112573d6000803e3d6000fd5b505050506040513d602081101561212857600080fd5b81019080805190602001909291905050506040518060400160405280601681526020017f6e6f745f617574686f72697a65645f6368616e6765720000000000000000000081525090612215576040517f08c379a00000000000000000000000000000000000000000000000000000000081526004018080602001828103825283818151815260200191508051906020019080838360005b838110156121da5780820151818401526020810190506121bf565b50505050905090810190601f1680156122075780820380516001836020036101000a031916815260200191505b509250505060405180910390fd5b5080603360006101000a81548173ffffffffffffffffffffffffffffffffffffffff021916908373ffffffffffffffffffffffffffffffffffffffff16021790555050565b6000606760009054906101000a900473ffffffffffffffffffffffffffffffffffffffff1673ffffffffffffffffffffffffffffffffffffffff1663b9b55c9a836040518263ffffffff1660e01b8152600401808273ffffffffffffffffffffffffffffffffffffffff16815260200191505060206040518083038186803b1580156122e557600080fd5b505afa1580156122f9573d6000803e3d6000fd5b505050506040513d602081101561230f57600080fd5b81019080805190602001909291905050509050919050565b6000606660009054906101000a900473ffffffffffffffffffffffffffffffffffffffff1673ffffffffffffffffffffffffffffffffffffffff1663c4086893836040518263ffffffff1660e01b8152600401808273ffffffffffffffffffffffffffffffffffffffff16815260200191505060206040518083038186803b1580156123b257600080fd5b505afa1580156123c6573d6000803e3d6000fd5b505050506040513d60208110156123dc57600080fd5b81019080805190602001909291905050509050919050565b606b6124008133612f67565b612472576040517f08c379a000000000000000000000000000000000000000000000000000000000815260040180806020018281038252601a8152602001807f41646472657373206973206e6f742077686974656c697374656400000000000081525060200191505060405180910390fd5b606660009054906101000a900473ffffffffffffffffffffffffffffffffffffffff1673ffffffffffffffffffffffffffffffffffffffff1663d602ac6884846040518363ffffffff1660e01b8152600401808373ffffffffffffffffffffffffffffffffffffffff16815260200182815260200192505050600060405180830381600087803b15801561250557600080fd5b505af1158015612519573d6000803e3d6000fd5b50505050505050565b606760009054906101000a900473ffffffffffffffffffffffffffffffffffffffff1673ffffffffffffffffffffffffffffffffffffffff1663fdc85fc4336040518263ffffffff1660e01b8152600401808273ffffffffffffffffffffffffffffffffffffffff168152602001915050600060405180830381600087803b1580156125ad57600080fd5b505af11580156125c1573d6000803e3d6000fd5b50505050565b603360009054906101000a900473ffffffffffffffffffffffffffffffffffffffff1673ffffffffffffffffffffffffffffffffffffffff1663d994d6d5336040518263ffffffff1660e01b8152600401808273ffffffffffffffffffffffffffffffffffffffff16815260200191505060206040518083038186803b15801561265057600080fd5b505afa158015612664573d6000803e3d6000fd5b505050506040513d602081101561267a57600080fd5b81019080805190602001909291905050506040518060400160405280601681526020017f6e6f745f617574686f72697a65645f6368616e6765720000000000000000000081525090612767576040517f08c379a00000000000000000000000000000000000000000000000000000000081526004018080602001828103825283818151815260200191508051906020019080838360005b8381101561272c578082015181840152602081019050612711565b50505050905090810190601f1680156127595780820380516001836020036101000a031916815260200191505b509250505060405180910390fd5b50600033905060008173ffffffffffffffffffffffffffffffffffffffff16848460405160240180806020018281038252848482818152602001925080828437600081840152601f19601f82011690508083019250505093505050506040516020818303038152906040527fa16227ca000000000000000000000000000000000000000000000000000000007bffffffffffffffffffffffffffffffffffffffffffffffffffffffff19166020820180517bffffffffffffffffffffffffffffffffffffffffffffffffffffffff83818316178352505050506040518082805190602001908083835b602083106128735780518252602082019150602081019050602083039250612850565b6001836020036101000a038019825116818451168082178552505050505050905001915050600060405180830381855af49150503d80600081146128d3576040519150601f19603f3d011682016040523d82523d6000602084013e6128d8565b606091505b505090508061294f576040517f08c379a00000000000000000000000000000000000000000000000000000000081526004018080602001828103825260168152602001807f4572726f7220696e2064656c65676174652063616c6c0000000000000000000081525060200191505060405180910390fd5b50505050565b6000606760009054906101000a900473ffffffffffffffffffffffffffffffffffffffff1673ffffffffffffffffffffffffffffffffffffffff1663df1810f9836040518263ffffffff1660e01b81526004018082815260200191505060206040518083038186803b1580156129ca57600080fd5b505afa1580156129de573d6000803e3d6000fd5b505050506040513d60208110156129f457600080fd5b81019080805190602001909291905050509050919050565b606760009054906101000a900473ffffffffffffffffffffffffffffffffffffffff1673ffffffffffffffffffffffffffffffffffffffff16632be46cdf33836040518363ffffffff1660e01b8152600401808373ffffffffffffffffffffffffffffffffffffffff16815260200182815260200192505050600060405180830381600087803b158015612a9f57600080fd5b505af1158015612ab3573d6000803e3d6000fd5b5050505050565b6000606760009054906101000a900473ffffffffffffffffffffffffffffffffffffffff1673ffffffffffffffffffffffffffffffffffffffff1663eff3609884846040518363ffffffff1660e01b8152600401808381526020018281526020019250505060206040518083038186803b158015612b3757600080fd5b505afa158015612b4b573d6000803e3d6000fd5b505050506040513d6020811015612b6157600080fd5b8101908080519060200190929190505050905092915050565b606760009054906101000a900473ffffffffffffffffffffffffffffffffffffffff1673ffffffffffffffffffffffffffffffffffffffff1663fac3c1f43384846040518463ffffffff1660e01b8152600401808473ffffffffffffffffffffffffffffffffffffffff168152602001806020018281038252848482818152602001925080828437600081840152601f19601f820116905080830192505050945050505050600060405180830381600087803b158015612c3957600080fd5b505af1158015612c4d573d6000803e3d6000fd5b505050505050565b6000606660009054906101000a900473ffffffffffffffffffffffffffffffffffffffff1673ffffffffffffffffffffffffffffffffffffffff1663b25147e330846040518363ffffffff1660e01b8152600401808373ffffffffffffffffffffffffffffffffffffffff1681526020018273ffffffffffffffffffffffffffffffffffffffff1681526020019250505060206040518083038186803b158015612cfe57600080fd5b505afa158015612d12573d6000803e3d6000fd5b505050506040513d6020811015612d2857600080fd5b81019080805190602001909291905050509050919050565b606660009054906101000a900473ffffffffffffffffffffffffffffffffffffffff1681565b600080828401905083811015612de4576040517f08c379a000000000000000000000000000000000000000000000000000000000815260040180806020018281038252601b8152602001807f536166654d6174683a206164646974696f6e206f766572666c6f77000000000081525060200191505060405180910390fd5b8091505092915050565b80603360006101000a81548173ffffffffffffffffffffffffffffffffffffffff021916908373ffffffffffffffffffffffffffffffffffffffff16021790555050565b600073ffffffffffffffffffffffffffffffffffffffff168173ffffffffffffffffffffffffffffffffffffffff161415612ed5576040517f08c379a00000000000000000000000000000000000000000000000000000000081526004018080602001828103825260178152602001807f4163636f756e74206d757374206e6f742062652030783000000000000000000081525060200191505060405180910390fd5b6000612eed828460000161302990919063ffffffff16565b905080612f62576040517f08c379a000000000000000000000000000000000000000000000000000000000815260040180806020018281038252601b8152602001807f4163636f756e7420616c72656164792077686974656c6973746564000000000081525060200191505060405180910390fd5b505050565b60008073ffffffffffffffffffffffffffffffffffffffff168273ffffffffffffffffffffffffffffffffffffffff16141561300b576040517f08c379a00000000000000000000000000000000000000000000000000000000081526004018080602001828103825260178152602001807f4163636f756e74206d757374206e6f742062652030783000000000000000000081525060200191505060405180910390fd5b61302182846000016130ff90919063ffffffff16565b905092915050565b600061303583836130ff565b6130f45782600001829080600181540180825580915050600190039060005260206000200160009091909190916101000a81548173ffffffffffffffffffffffffffffffffffffffff021916908373ffffffffffffffffffffffffffffffffffffffff16021790555082600001805490508360010160008473ffffffffffffffffffffffffffffffffffffffff1673ffffffffffffffffffffffffffffffffffffffff16815260200190815260200160002081905550600190506130f9565b600090505b92915050565b6000808360010160008473ffffffffffffffffffffffffffffffffffffffff1673ffffffffffffffffffffffffffffffffffffffff16815260200190815260200160002054141590509291505056fea2646970667358221220d6950ddcce9ff34bbb0d7eaa4861e68458f984cbe6f9ece0412a21c78532cbf464736f6c634300060c0033",
    "immutableReferences": {},
    "source": "// SPDX-License-Identifier: UNLICENSED\npragma solidity 0.6.12;\n\nimport {IStakingMachine, IStakingMachineOracles} from \"@moc/shared/contracts/IStakingMachine.sol\";\nimport {IDelayMachine} from \"@moc/shared/contracts/IDelayMachine.sol\";\nimport {SafeMath} from \"@openzeppelin/contracts-ethereum-package/contracts/math/SafeMath.sol\";\nimport {IGovernor} from \"@moc/shared/contracts/moc-governance/Governance/IGovernor.sol\";\nimport {Governed} from \"@moc/shared/contracts/moc-governance/Governance/Governed.sol\";\nimport {Supporters} from \"./Supporters.sol\";\nimport {OracleManager} from \"./OracleManager.sol\";\nimport {CoinPairPrice} from \"./CoinPairPrice.sol\";\nimport {StakingStorage} from \"./StakingStorage.sol\";\n\ncontract Staking is StakingStorage, IStakingMachine, IStakingMachineOracles {\n    using SafeMath for uint256;\n\n    // -----------------------------------------------------------------------\n    //\n    //   Public interface\n    //\n    // -----------------------------------------------------------------------\n\n    // -----------------------------------------------------------------------\n    //   Staking\n    // -----------------------------------------------------------------------\n\n    /// @notice Construct this contract.\n    /// @param _governor The address of the contract which governs this one\n    /// @param _supporters the Supporters contract contract address.\n    /// @param _oracleManager the Oracle Manager contract contract address.\n    /// @param _delayMachine the Delay Machine contract contract address.\n    /// @param _wlistlock Initial whitelist addresses for locking mocs\n    function initialize(\n        IGovernor _governor,\n        Supporters _supporters,\n        OracleManager _oracleManager,\n        IDelayMachine _delayMachine,\n        address[] calldata _wlistlock,\n        uint256 _withdrawLockTime\n    ) external {\n        Governed._initialize(_governor);\n        oracleManager = _oracleManager;\n        supporters = _supporters;\n        mocToken = _supporters.mocToken();\n        delayMachine = _delayMachine;\n        withdrawLockTime = _withdrawLockTime;\n        for (uint256 i = 0; i < _wlistlock.length; i++) {\n            iterableWhitelistDataLock._addToWhitelist(_wlistlock[i]);\n        }\n    }\n\n    /// @notice Used by the voting machine to lock an amount of MOCs.\n    /// Delegates to the Supporters smart contract.\n    /// @param mocHolder the moc holder whose mocs will be locked.\n    /// @param untilTimestamp timestamp until which the mocs will be locked.\n    function lockMocs(address mocHolder, uint256 untilTimestamp)\n        external\n        override\n        onlyWhitelisted(iterableWhitelistDataLock)\n    {\n        supporters.lockMocs(mocHolder, untilTimestamp);\n    }\n\n    /// @notice Accept a deposit from an account.\n    /// Delegates to the Supporters smart contract.\n    /// @param mocs token quantity\n    /// @param destination the destination account of this deposit.\n    function deposit(uint256 mocs, address destination) external override {\n        depositFrom(mocs, destination, msg.sender);\n    }\n\n    /// @notice Accept a deposit from an account.\n    /// Delegates to the Supporters smart contract.\n    /// @param mocs token quantity\n    /// @param destination the destination account of this deposit.\n    /// @param source the address that approved the transfer\n    function depositFrom(\n        uint256 mocs,\n        address destination,\n        address source\n    ) public override {\n        // Transfer stake [should be approved by owner first]\n        require(mocToken.transferFrom(source, address(this), mocs), \"error in transferFrom\");\n        // Stake at Supporters contract\n        require(mocToken.approve(address(supporters), mocs), \"error in approve\");\n        supporters.stakeAtFrom(mocs, destination, address(this));\n    }\n\n    /// @notice Withdraw stake, send it to the delay machine.\n    /// @param _mocs token quantity\n    function withdraw(uint256 _mocs) external override {\n        uint256 tokens = supporters.mocToToken(_mocs);\n        uint256 mocs = supporters.withdrawFromTo(tokens, msg.sender, address(this));\n        // Approve stake transfer for Delay Machine contract\n        require(mocToken.approve(address(delayMachine), mocs), \"error in approve\");\n        uint256 expiration = oracleManager.onWithdraw(msg.sender);\n        delayMachine.deposit(mocs, msg.sender, expiration.add(withdrawLockTime));\n    }\n\n    /// @notice Get the value of the token, withdraw and deposit can be done only in multiples of the token value.\n    function totalMoc() external view returns (uint256) {\n        return supporters.totalMoc();\n    }\n\n    function totalToken() external view returns (uint256) {\n        return supporters.totalToken();\n    }\n\n    /// @notice Reports the balance of MOCs for a specific user.\n    /// Delegates to the Supporters smart contract.\n    /// @param user user address\n    function getBalance(address user) external override view returns (uint256) {\n        return supporters.getMOCBalanceAt(address(this), user);\n    }\n\n    /// @notice Reports the balance of locked MOCs for a specific user.\n    /// Delegates to the Supporters smart contract.\n    /// @param user user address\n    function getLockedBalance(address user) external override view returns (uint256) {\n        return supporters.getLockedBalance(user);\n    }\n\n    // -----------------------------------------------------------------------\n    //   Oracles\n    // -----------------------------------------------------------------------\n\n    /// @notice Returns the amount of owners registered.\n    /// Delegates to the Oracle Manager smart contract.\n    function getRegisteredOraclesLen() external view returns (uint256) {\n        return oracleManager.getRegisteredOraclesLen();\n    }\n\n    /// @notice Returns the oracle name and address at index.\n    /// Delegates to the Oracle Manager smart contract.\n    /// @param idx index to query.\n    function getRegisteredOracleAtIndex(uint256 idx)\n        external\n        view\n        returns (\n            address ownerAddr,\n            address oracleAddr,\n            string memory url\n        )\n    {\n        return oracleManager.getRegisteredOracleAtIndex(idx);\n    }\n\n    /// @notice Set an oracle's name (url) and address.\n    /// Delegates to the Oracle Manager smart contract.\n    /// @param oracleAddr address of the oracle (from which we publish prices)\n    /// @param url url used by the oracle server\n    function registerOracle(address oracleAddr, string calldata url) external override {\n        oracleManager.registerOracle(msg.sender, oracleAddr, url);\n    }\n\n    /// @notice Change the oracle \"internet\" name (URI)\n    /// @param url The new url to set.\n    function setOracleName(string calldata url) external override {\n        oracleManager.setOracleName(msg.sender, url);\n    }\n\n    /// @notice Return true if the oracle is registered.\n    /// @param ownerAddr The address of the owner of the Oracle to check for.\n    function isOracleRegistered(address ownerAddr) external override view returns (bool) {\n        return oracleManager.isOracleRegistered(ownerAddr);\n    }\n\n    /// @notice Returns true if an oracle satisfies conditions to be removed from system.\n    /// @param ownerAddr the address of the owner of the oracle to lookup.\n    function canRemoveOracle(address ownerAddr) external override view returns (bool) {\n        return oracleManager.canRemoveOracle(ownerAddr);\n    }\n\n    /// @notice Remove an oracle.\n    /// Delegates to the Oracle Manager smart contract.\n    function removeOracle() external override {\n        oracleManager.removeOracle(msg.sender);\n    }\n\n    /// @notice Returns the count of registered coin pairs.\n    /// Keep in mind that Deleted coin-pairs will contain zeroed addresses.\n    function getCoinPairCount() external override view returns (uint256) {\n        return oracleManager.getCoinPairCount();\n    }\n\n    /// @notice Returns the coin pair at index.\n    /// @param i index to query.\n    function getCoinPairAtIndex(uint256 i) external override view returns (bytes32) {\n        return oracleManager.getCoinPairAtIndex(i);\n    }\n\n    /// @notice Return the contract address for a specified registered coin pair.\n    /// @param coinPair Coin-pair string to lookup (e.g: BTCUSD)\n    /// @return address Address of contract or zero if does not exist or was deleted.\n    function getContractAddress(bytes32 coinPair) external override view returns (address) {\n        return oracleManager.getContractAddress(coinPair);\n    }\n\n    /// @notice Searches a coinpair in coinPairList\n    /// @param coinPair The bytes32-encoded coinpair string (e.g. BTCUSD)\n    /// @param hint Optional hint to start traversing the coinPairList array, zero is to search all the array.\n    function getCoinPairIndex(bytes32 coinPair, uint256 hint)\n        external\n        override\n        view\n        returns (uint256)\n    {\n        return oracleManager.getCoinPairIndex(coinPair, hint);\n    }\n\n    /// @notice Subscribe an oracle to a coin pair.\n    /// Delegates to the Oracle Manager smart contract.\n    /// @param coinPair coin pair to subscribe, for example BTCUSD\n    function subscribeToCoinPair(bytes32 coinPair) external override {\n        oracleManager.subscribeToCoinPair(msg.sender, coinPair);\n    }\n\n    /// @notice Unsubscribe an oracle from a coin pair.\n    /// Delegates to the Oracle Manager smart contract.\n    /// @param coinPair coin pair to unsubscribe, for example BTCUSD\n    function unSubscribeFromCoinPair(bytes32 coinPair) external override {\n        oracleManager.unSubscribeFromCoinPair(msg.sender, coinPair);\n    }\n\n    /// @notice Returns true if an oracle is subscribed to a coin pair\n    /// @param ownerAddr address of the oracle\n    /// @param coinPair coin pair to unsubscribe, for example BTCUSD\n    function isSubscribed(address ownerAddr, bytes32 coinPair)\n        external\n        override\n        view\n        returns (bool)\n    {\n        return oracleManager.isSubscribed(ownerAddr, coinPair);\n    }\n\n    function getMaxBalance(address[] calldata addresses) external view returns (address, uint256) {\n        return supporters.getMaxMOCBalance(address(this), addresses);\n    }\n}\n",
    "sourcePath": "/home/adji/Desktop/work/coinfabrik/moc-oraculos/contracts/Staking.sol",
    "compiler": {
        "name": "solc",
        "version": "0.6.12+commit.27d51765.Emscripten.clang"
    },
    "schemaVersion": "3.2.4",
    "updatedAt": "2020-09-15T15:03:01.396Z",
    "networkType": "ethereum",
    "devdoc": {
        "kind": "dev",
        "methods": {
            "canRemoveOracle(address)": {
                "params": {
                    "ownerAddr": "the address of the owner of the oracle to lookup."
                }
            },
            "changeIGovernor(address)": {
                "params": {
                    "newIGovernor": "New governor address"
                }
            },
            "delegateCallToChanger(bytes)": {
                "params": {
                    "data": "the serialized function arguments"
                }
            },
            "deposit(uint256,address)": {
                "params": {
                    "destination": "the destination account of this deposit.",
                    "mocs": "token quantity"
                }
            },
            "depositFrom(uint256,address,address)": {
                "params": {
                    "destination": "the destination account of this deposit.",
                    "mocs": "token quantity",
                    "source": "the address that approved the transfer"
                }
            },
            "getBalance(address)": {
                "params": {
                    "user": "user address"
                }
            },
            "getCoinPairAtIndex(uint256)": {
                "params": {
                    "i": "index to query."
                }
            },
            "getCoinPairIndex(bytes32,uint256)": {
                "params": {
                    "coinPair": "The bytes32-encoded coinpair string (e.g. BTCUSD)",
                    "hint": "Optional hint to start traversing the coinPairList array, zero is to search all the array."
                }
            },
            "getContractAddress(bytes32)": {
                "params": {
                    "coinPair": "Coin-pair string to lookup (e.g: BTCUSD)"
                },
                "returns": {
                    "_0": "address Address of contract or zero if does not exist or was deleted."
                }
            },
            "getLockedBalance(address)": {
                "params": {
                    "user": "user address"
                }
            },
            "getRegisteredOracleAtIndex(uint256)": {
                "params": {
                    "idx": "index to query."
                }
            },
            "initialize(address,address,address,address,address[],uint256)": {
                "params": {
                    "_delayMachine": "the Delay Machine contract contract address.",
                    "_governor": "The address of the contract which governs this one",
                    "_oracleManager": "the Oracle Manager contract contract address.",
                    "_supporters": "the Supporters contract contract address.",
                    "_wlistlock": "Initial whitelist addresses for locking mocs"
                }
            },
            "isOracleRegistered(address)": {
                "params": {
                    "ownerAddr": "The address of the owner of the Oracle to check for."
                }
            },
            "isSubscribed(address,bytes32)": {
                "params": {
                    "coinPair": "coin pair to unsubscribe, for example BTCUSD",
                    "ownerAddr": "address of the oracle"
                }
            },
            "lockMocs(address,uint256)": {
                "params": {
                    "mocHolder": "the moc holder whose mocs will be locked.",
                    "untilTimestamp": "timestamp until which the mocs will be locked."
                }
            },
            "registerOracle(address,string)": {
                "params": {
                    "oracleAddr": "address of the oracle (from which we publish prices)",
                    "url": "url used by the oracle server"
                }
            },
            "setOracleName(string)": {
                "params": {
                    "url": "The new url to set."
                }
            },
            "subscribeToCoinPair(bytes32)": {
                "params": {
                    "coinPair": "coin pair to subscribe, for example BTCUSD"
                }
            },
            "unSubscribeFromCoinPair(bytes32)": {
                "params": {
                    "coinPair": "coin pair to unsubscribe, for example BTCUSD"
                }
            },
            "withdraw(uint256)": {
                "params": {
                    "_mocs": "token quantity"
                }
            }
        },
        "version": 1
    },
    "userdoc": {
        "kind": "user",
        "methods": {
            "canRemoveOracle(address)": {
                "notice": "Returns true if an oracle satisfies conditions to be removed from system."
            },
            "changeIGovernor(address)": {
                "notice": "Change the contract's governor. Should be called through the old governance system"
            },
            "delegateCallToChanger(bytes)": {
                "notice": "This method is used by a change contract to access the storage freely even without a setter."
            },
            "deposit(uint256,address)": {
                "notice": "Accept a deposit from an account. Delegates to the Supporters smart contract."
            },
            "depositFrom(uint256,address,address)": {
                "notice": "Accept a deposit from an account. Delegates to the Supporters smart contract."
            },
            "getBalance(address)": {
                "notice": "Reports the balance of MOCs for a specific user. Delegates to the Supporters smart contract."
            },
            "getCoinPairAtIndex(uint256)": {
                "notice": "Returns the coin pair at index."
            },
            "getCoinPairCount()": {
                "notice": "Returns the count of registered coin pairs. Keep in mind that Deleted coin-pairs will contain zeroed addresses."
            },
            "getCoinPairIndex(bytes32,uint256)": {
                "notice": "Searches a coinpair in coinPairList"
            },
            "getContractAddress(bytes32)": {
                "notice": "Return the contract address for a specified registered coin pair."
            },
            "getLockedBalance(address)": {
                "notice": "Reports the balance of locked MOCs for a specific user. Delegates to the Supporters smart contract."
            },
            "getRegisteredOracleAtIndex(uint256)": {
                "notice": "Returns the oracle name and address at index. Delegates to the Oracle Manager smart contract."
            },
            "getRegisteredOraclesLen()": {
                "notice": "Returns the amount of owners registered. Delegates to the Oracle Manager smart contract."
            },
            "governor()": {
                "notice": "The address of the contract which governs this one"
            },
            "initialize(address,address,address,address,address[],uint256)": {
                "notice": "Construct this contract."
            },
            "isOracleRegistered(address)": {
                "notice": "Return true if the oracle is registered."
            },
            "isSubscribed(address,bytes32)": {
                "notice": "Returns true if an oracle is subscribed to a coin pair"
            },
            "lockMocs(address,uint256)": {
                "notice": "Used by the voting machine to lock an amount of MOCs. Delegates to the Supporters smart contract."
            },
            "registerOracle(address,string)": {
                "notice": "Set an oracle's name (url) and address. Delegates to the Oracle Manager smart contract."
            },
            "removeOracle()": {
                "notice": "Remove an oracle. Delegates to the Oracle Manager smart contract."
            },
            "setOracleName(string)": {
                "notice": "Change the oracle \"internet\" name (URI)"
            },
            "subscribeToCoinPair(bytes32)": {
                "notice": "Subscribe an oracle to a coin pair. Delegates to the Oracle Manager smart contract."
            },
            "totalMoc()": {
                "notice": "Get the value of the token, withdraw and deposit can be done only in multiples of the token value."
            },
            "unSubscribeFromCoinPair(bytes32)": {
                "notice": "Unsubscribe an oracle from a coin pair. Delegates to the Oracle Manager smart contract."
            },
            "withdraw(uint256)": {
                "notice": "Withdraw stake, send it to the delay machine."
            }
        },
        "version": 1
    }
}