{
    "contractName": "Supporters",
    "abi": [
        {
            "anonymous": false,
            "inputs": [
                {
                    "indexed": true,
                    "internalType": "address",
                    "name": "user",
                    "type": "address"
                },
                {
                    "indexed": true,
                    "internalType": "address",
                    "name": "subaccount",
                    "type": "address"
                },
                {
                    "indexed": true,
                    "internalType": "address",
                    "name": "sender",
                    "type": "address"
                },
                {
                    "indexed": false,
                    "internalType": "uint256",
                    "name": "amount",
                    "type": "uint256"
                },
                {
                    "indexed": false,
                    "internalType": "uint256",
                    "name": "mocs",
                    "type": "uint256"
                }
            ],
            "name": "AddStake",
            "type": "event"
        },
        {
            "anonymous": false,
            "inputs": [
                {
                    "indexed": false,
                    "internalType": "uint256",
                    "name": "earnings",
                    "type": "uint256"
                },
                {
                    "indexed": false,
                    "internalType": "uint256",
                    "name": "start",
                    "type": "uint256"
                },
                {
                    "indexed": false,
                    "internalType": "uint256",
                    "name": "end",
                    "type": "uint256"
                }
            ],
            "name": "CancelEarnings",
            "type": "event"
        },
        {
            "anonymous": false,
            "inputs": [
                {
                    "indexed": false,
                    "internalType": "uint256",
                    "name": "earnings",
                    "type": "uint256"
                },
                {
                    "indexed": false,
                    "internalType": "uint256",
                    "name": "start",
                    "type": "uint256"
                },
                {
                    "indexed": false,
                    "internalType": "uint256",
                    "name": "end",
                    "type": "uint256"
                }
            ],
            "name": "PayEarnings",
            "type": "event"
        },
        {
            "anonymous": false,
            "inputs": [
                {
                    "indexed": true,
                    "internalType": "address",
                    "name": "msgSender",
                    "type": "address"
                },
                {
                    "indexed": true,
                    "internalType": "address",
                    "name": "subacount",
                    "type": "address"
                },
                {
                    "indexed": true,
                    "internalType": "address",
                    "name": "receiver",
                    "type": "address"
                },
                {
                    "indexed": false,
                    "internalType": "uint256",
                    "name": "mocs",
                    "type": "uint256"
                },
                {
                    "indexed": false,
                    "internalType": "uint256",
                    "name": "blockNum",
                    "type": "uint256"
                }
            ],
            "name": "Withdraw",
            "type": "event"
        },
        {
            "anonymous": false,
            "inputs": [
                {
                    "indexed": true,
                    "internalType": "address",
                    "name": "user",
                    "type": "address"
                },
                {
                    "indexed": true,
                    "internalType": "address",
                    "name": "subaccount",
                    "type": "address"
                },
                {
                    "indexed": true,
                    "internalType": "address",
                    "name": "destination",
                    "type": "address"
                },
                {
                    "indexed": false,
                    "internalType": "uint256",
                    "name": "amount",
                    "type": "uint256"
                },
                {
                    "indexed": false,
                    "internalType": "uint256",
                    "name": "mocs",
                    "type": "uint256"
                }
            ],
            "name": "WithdrawStake",
            "type": "event"
        },
        {
            "inputs": [
                {
                    "internalType": "contract IGovernor",
                    "name": "newIGovernor",
                    "type": "address"
                }
            ],
            "name": "changeIGovernor",
            "outputs": [],
            "stateMutability": "nonpayable",
            "type": "function"
        },
        {
            "inputs": [
                {
                    "internalType": "bytes",
                    "name": "data",
                    "type": "bytes"
                }
            ],
            "name": "delegateCallToChanger",
            "outputs": [],
            "stateMutability": "nonpayable",
            "type": "function"
        },
        {
            "inputs": [],
            "name": "governor",
            "outputs": [
                {
                    "internalType": "contract IGovernor",
                    "name": "",
                    "type": "address"
                }
            ],
            "stateMutability": "view",
            "type": "function"
        },
        {
            "inputs": [
                {
                    "internalType": "address",
                    "name": "",
                    "type": "address"
                }
            ],
            "name": "lockedMocs",
            "outputs": [
                {
                    "internalType": "uint256",
                    "name": "untilTimestamp",
                    "type": "uint256"
                },
                {
                    "internalType": "uint256",
                    "name": "amount",
                    "type": "uint256"
                }
            ],
            "stateMutability": "view",
            "type": "function"
        },
        {
            "inputs": [
                {
                    "internalType": "contract IGovernor",
                    "name": "_governor",
                    "type": "address"
                },
                {
                    "internalType": "address[]",
                    "name": "_wlist",
                    "type": "address[]"
                },
                {
                    "internalType": "contract IERC20",
                    "name": "_mocToken",
                    "type": "address"
                },
                {
                    "internalType": "uint256",
                    "name": "_period",
                    "type": "uint256"
                }
            ],
            "name": "initialize",
            "outputs": [],
            "stateMutability": "nonpayable",
            "type": "function"
        },
        {
            "inputs": [
                {
                    "internalType": "address",
                    "name": "mocHolder",
                    "type": "address"
                },
                {
                    "internalType": "uint256",
                    "name": "untilTimestamp",
                    "type": "uint256"
                }
            ],
            "name": "lockMocs",
            "outputs": [],
            "stateMutability": "nonpayable",
            "type": "function"
        },
        {
            "inputs": [
                {
                    "internalType": "address",
                    "name": "user",
                    "type": "address"
                }
            ],
            "name": "getLockedBalance",
            "outputs": [
                {
                    "internalType": "uint256",
                    "name": "",
                    "type": "uint256"
                }
            ],
            "stateMutability": "view",
            "type": "function"
        },
        {
            "inputs": [
                {
                    "internalType": "address",
                    "name": "_whitelisted",
                    "type": "address"
                }
            ],
            "name": "addToWhitelist",
            "outputs": [],
            "stateMutability": "nonpayable",
            "type": "function"
        },
        {
            "inputs": [
                {
                    "internalType": "address",
                    "name": "_whitelisted",
                    "type": "address"
                }
            ],
            "name": "removeFromWhitelist",
            "outputs": [],
            "stateMutability": "nonpayable",
            "type": "function"
        },
        {
            "inputs": [],
            "name": "distribute",
            "outputs": [],
            "stateMutability": "nonpayable",
            "type": "function"
        },
        {
            "inputs": [],
            "name": "isReadyToDistribute",
            "outputs": [
                {
                    "internalType": "bool",
                    "name": "",
                    "type": "bool"
                }
            ],
            "stateMutability": "view",
            "type": "function"
        },
        {
            "inputs": [
                {
                    "internalType": "uint256",
                    "name": "_mocs",
                    "type": "uint256"
                },
                {
                    "internalType": "address",
                    "name": "_subaccount",
                    "type": "address"
                }
            ],
            "name": "stakeAt",
            "outputs": [],
            "stateMutability": "nonpayable",
            "type": "function"
        },
        {
            "inputs": [
                {
                    "internalType": "uint256",
                    "name": "_mocs",
                    "type": "uint256"
                },
                {
                    "internalType": "address",
                    "name": "_subaccount",
                    "type": "address"
                },
                {
                    "internalType": "address",
                    "name": "_sender",
                    "type": "address"
                }
            ],
            "name": "stakeAtFrom",
            "outputs": [],
            "stateMutability": "nonpayable",
            "type": "function"
        },
        {
            "inputs": [
                {
                    "internalType": "uint256",
                    "name": "_tokens",
                    "type": "uint256"
                },
                {
                    "internalType": "address",
                    "name": "_subaccount",
                    "type": "address"
                }
            ],
            "name": "withdrawFrom",
            "outputs": [
                {
                    "internalType": "uint256",
                    "name": "",
                    "type": "uint256"
                }
            ],
            "stateMutability": "nonpayable",
            "type": "function"
        },
        {
            "inputs": [
                {
                    "internalType": "uint256",
                    "name": "_tokens",
                    "type": "uint256"
                },
                {
                    "internalType": "address",
                    "name": "_subaccount",
                    "type": "address"
                },
                {
                    "internalType": "address",
                    "name": "_receiver",
                    "type": "address"
                }
            ],
            "name": "withdrawFromTo",
            "outputs": [
                {
                    "internalType": "uint256",
                    "name": "",
                    "type": "uint256"
                }
            ],
            "stateMutability": "nonpayable",
            "type": "function"
        },
        {
            "inputs": [
                {
                    "internalType": "address",
                    "name": "_user",
                    "type": "address"
                },
                {
                    "internalType": "address",
                    "name": "_subaccount",
                    "type": "address"
                }
            ],
            "name": "getBalanceAt",
            "outputs": [
                {
                    "internalType": "uint256",
                    "name": "",
                    "type": "uint256"
                }
            ],
            "stateMutability": "view",
            "type": "function"
        },
        {
            "inputs": [
                {
                    "internalType": "address",
                    "name": "_user",
                    "type": "address"
                },
                {
                    "internalType": "address",
                    "name": "_subaccount",
                    "type": "address"
                }
            ],
            "name": "getMOCBalanceAt",
            "outputs": [
                {
                    "internalType": "uint256",
                    "name": "",
                    "type": "uint256"
                }
            ],
            "stateMutability": "view",
            "type": "function"
        },
        {
            "inputs": [],
            "name": "getTokens",
            "outputs": [
                {
                    "internalType": "uint256",
                    "name": "",
                    "type": "uint256"
                }
            ],
            "stateMutability": "view",
            "type": "function"
        },
        {
            "inputs": [],
            "name": "getAvailableMOC",
            "outputs": [
                {
                    "internalType": "uint256",
                    "name": "",
                    "type": "uint256"
                }
            ],
            "stateMutability": "view",
            "type": "function"
        },
        {
            "inputs": [
                {
                    "internalType": "uint256",
                    "name": "_block",
                    "type": "uint256"
                }
            ],
            "name": "getEarningsAt",
            "outputs": [
                {
                    "internalType": "uint256",
                    "name": "",
                    "type": "uint256"
                }
            ],
            "stateMutability": "view",
            "type": "function"
        },
        {
            "inputs": [
                {
                    "internalType": "uint256",
                    "name": "_block",
                    "type": "uint256"
                }
            ],
            "name": "getLockedAt",
            "outputs": [
                {
                    "internalType": "uint256",
                    "name": "",
                    "type": "uint256"
                }
            ],
            "stateMutability": "view",
            "type": "function"
        },
        {
            "inputs": [],
            "name": "getEarningsInfo",
            "outputs": [
                {
                    "internalType": "uint256",
                    "name": "",
                    "type": "uint256"
                },
                {
                    "internalType": "uint256",
                    "name": "",
                    "type": "uint256"
                },
                {
                    "internalType": "uint256",
                    "name": "",
                    "type": "uint256"
                }
            ],
            "stateMutability": "view",
            "type": "function"
        },
        {
            "inputs": [],
            "name": "mocToken",
            "outputs": [
                {
                    "internalType": "contract IERC20",
                    "name": "",
                    "type": "address"
                }
            ],
            "stateMutability": "view",
            "type": "function"
        },
        {
            "inputs": [],
            "name": "period",
            "outputs": [
                {
                    "internalType": "uint256",
                    "name": "",
                    "type": "uint256"
                }
            ],
            "stateMutability": "view",
            "type": "function"
        },
        {
            "inputs": [],
            "name": "getWhiteListLen",
            "outputs": [
                {
                    "internalType": "uint256",
                    "name": "",
                    "type": "uint256"
                }
            ],
            "stateMutability": "view",
            "type": "function"
        },
        {
            "inputs": [
                {
                    "internalType": "uint256",
                    "name": "_idx",
                    "type": "uint256"
                }
            ],
            "name": "getWhiteListAtIndex",
            "outputs": [
                {
                    "internalType": "address",
                    "name": "",
                    "type": "address"
                }
            ],
            "stateMutability": "view",
            "type": "function"
        },
        {
            "inputs": [
                {
                    "internalType": "address",
                    "name": "_account",
                    "type": "address"
                }
            ],
            "name": "isWhitelisted",
            "outputs": [
                {
                    "internalType": "bool",
                    "name": "",
                    "type": "bool"
                }
            ],
            "stateMutability": "view",
            "type": "function"
        },
        {
            "inputs": [
                {
                    "internalType": "uint256",
                    "name": "_mocs",
                    "type": "uint256"
                }
            ],
            "name": "mocToToken",
            "outputs": [
                {
                    "internalType": "uint256",
                    "name": "",
                    "type": "uint256"
                }
            ],
            "stateMutability": "view",
            "type": "function"
        },
        {
            "inputs": [
                {
                    "internalType": "uint256",
                    "name": "_token",
                    "type": "uint256"
                }
            ],
            "name": "tokenToMoc",
            "outputs": [
                {
                    "internalType": "uint256",
                    "name": "",
                    "type": "uint256"
                }
            ],
            "stateMutability": "view",
            "type": "function"
        },
        {
            "inputs": [],
            "name": "totalMoc",
            "outputs": [
                {
                    "internalType": "uint256",
                    "name": "",
                    "type": "uint256"
                }
            ],
            "stateMutability": "view",
            "type": "function"
        },
        {
            "inputs": [],
            "name": "totalToken",
            "outputs": [
                {
                    "internalType": "uint256",
                    "name": "",
                    "type": "uint256"
                }
            ],
            "stateMutability": "view",
            "type": "function"
        },
        {
            "inputs": [
                {
                    "internalType": "address",
                    "name": "owner",
                    "type": "address"
                },
                {
                    "internalType": "address[]",
                    "name": "addresses",
                    "type": "address[]"
                }
            ],
            "name": "getMaxMOCBalance",
            "outputs": [
                {
                    "internalType": "address",
                    "name": "selected",
                    "type": "address"
                },
                {
                    "internalType": "uint256",
                    "name": "maxBalance",
                    "type": "uint256"
                }
            ],
            "stateMutability": "view",
            "type": "function"
        }
    ],
    "bytecode": "0x608060405234801561001057600080fd5b506137f4806100206000396000f3fe608060405234801561001057600080fd5b50600436106101f05760003560e01c80638bcd9d351161010f578063d41ecc5a116100a2578063e43252d711610071578063e43252d714610ada578063e4fc6b6d14610b1e578063e8ecd6cc14610b28578063ef78d4fd14610b6a576101f0565b8063d41ecc5a146109b3578063d602ac68146109f5578063db1bfafa14610a43578063dc8990e114610a61576101f0565b8063b25147e3116100de578063b25147e314610881578063b6e08330146108f9578063c40868931461093d578063cb0706f914610995576101f0565b80638bcd9d3514610760578063903eaca3146107bf578063aa6ca80814610801578063b1cbf8881461081f576101f0565b80633b2b97851161018757806372015d1a1161015657806372015d1a1461062c5780637c5e5db01461066057806383880696146106ae5780638ab1d6811461071c576101f0565b80633b2b97851461048a5780634e3760fb146105025780635423cd4914610544578063626be5671461060e576101f0565b80631a3d00c0116101c35780631a3d00c01461038e5780632ff2ae53146103e6578063385976b8146104045780633af32abf14610430576101f0565b80630480a2e4146101f557806309418081146102155780630af49690146102975780630c340a241461035a575b600080fd5b6101fd610b88565b60405180821515815260200191505060405180910390f35b6102816004803603606081101561022b57600080fd5b8101908080359060200190929190803573ffffffffffffffffffffffffffffffffffffffff169060200190929190803573ffffffffffffffffffffffffffffffffffffffff169060200190929190505050610b99565b6040518082815260200191505060405180910390f35b610358600480360360808110156102ad57600080fd5b81019080803573ffffffffffffffffffffffffffffffffffffffff169060200190929190803590602001906401000000008111156102ea57600080fd5b8201836020820111156102fc57600080fd5b8035906020019184602083028401116401000000008311171561031e57600080fd5b9091929391929390803573ffffffffffffffffffffffffffffffffffffffff16906020019092919080359060200190929190505050610d30565b005b610362610eaa565b604051808273ffffffffffffffffffffffffffffffffffffffff16815260200191505060405180910390f35b6103ba600480360360208110156103a457600080fd5b8101908080359060200190929190505050610ed0565b604051808273ffffffffffffffffffffffffffffffffffffffff16815260200191505060405180910390f35b6103ee610eed565b6040518082815260200191505060405180910390f35b61040c610efe565b60405180848152602001838152602001828152602001935050505060405180910390f35b6104726004803603602081101561044657600080fd5b81019080803573ffffffffffffffffffffffffffffffffffffffff169060200190929190505050610f18565b60405180821515815260200191505060405180910390f35b6104ec600480360360408110156104a057600080fd5b81019080803573ffffffffffffffffffffffffffffffffffffffff169060200190929190803573ffffffffffffffffffffffffffffffffffffffff169060200190929190505050610f35565b6040518082815260200191505060405180910390f35b61052e6004803603602081101561051857600080fd5b8101908080359060200190929190505050610f55565b6040518082815260200191505060405180910390f35b6105db6004803603604081101561055a57600080fd5b81019080803573ffffffffffffffffffffffffffffffffffffffff1690602001909291908035906020019064010000000081111561059757600080fd5b8201836020820111156105a957600080fd5b803590602001918460208302840111640100000000831117156105cb57600080fd5b9091929391929390505050610f72565b604051808373ffffffffffffffffffffffffffffffffffffffff1681526020018281526020019250505060405180910390f35b6106166110f7565b6040518082815260200191505060405180910390f35b610634611108565b604051808273ffffffffffffffffffffffffffffffffffffffff16815260200191505060405180910390f35b6106ac6004803603604081101561067657600080fd5b8101908080359060200190929190803573ffffffffffffffffffffffffffffffffffffffff169060200190929190505050611135565b005b61071a600480360360608110156106c457600080fd5b8101908080359060200190929190803573ffffffffffffffffffffffffffffffffffffffff169060200190929190803573ffffffffffffffffffffffffffffffffffffffff1690602001909291905050506111d0565b005b61075e6004803603602081101561073257600080fd5b81019080803573ffffffffffffffffffffffffffffffffffffffff16906020019092919050505061126c565b005b6107a26004803603602081101561077657600080fd5b81019080803573ffffffffffffffffffffffffffffffffffffffff169060200190929190505050611424565b604051808381526020018281526020019250505060405180910390f35b6107eb600480360360208110156107d557600080fd5b8101908080359060200190929190505050611448565b6040518082815260200191505060405180910390f35b610809611465565b6040518082815260200191505060405180910390f35b61086b6004803603604081101561083557600080fd5b8101908080359060200190929190803573ffffffffffffffffffffffffffffffffffffffff169060200190929190505050611476565b6040518082815260200191505060405180910390f35b6108e36004803603604081101561089757600080fd5b81019080803573ffffffffffffffffffffffffffffffffffffffff169060200190929190803573ffffffffffffffffffffffffffffffffffffffff16906020019092919050505061160c565b6040518082815260200191505060405180910390f35b61093b6004803603602081101561090f57600080fd5b81019080803573ffffffffffffffffffffffffffffffffffffffff16906020019092919050505061162c565b005b61097f6004803603602081101561095357600080fd5b81019080803573ffffffffffffffffffffffffffffffffffffffff169060200190929190505050611811565b6040518082815260200191505060405180910390f35b61099d611862565b6040518082815260200191505060405180910390f35b6109df600480360360208110156109c957600080fd5b8101908080359060200190929190505050611873565b6040518082815260200191505060405180910390f35b610a4160048036036040811015610a0b57600080fd5b81019080803573ffffffffffffffffffffffffffffffffffffffff16906020019092919080359060200190929190505050611890565b005b610a4b611984565b6040518082815260200191505060405180910390f35b610ad860048036036020811015610a7757600080fd5b8101908080359060200190640100000000811115610a9457600080fd5b820183602082011115610aa657600080fd5b80359060200191846001830284011164010000000083111715610ac857600080fd5b9091929391929390505050611995565b005b610b1c60048036036020811015610af057600080fd5b81019080803573ffffffffffffffffffffffffffffffffffffffff169060200190929190505050611d23565b005b610b26611edb565b005b610b5460048036036020811015610b3e57600080fd5b8101908080359060200190929190505050611ee7565b6040518082815260200191505060405180910390f35b610b72611f04565b6040518082815260200191505060405180910390f35b6000610b946068611f11565b905090565b60006066610ba78133611f30565b610c19576040517f08c379a000000000000000000000000000000000000000000000000000000000815260040180806020018281038252601a8152602001807f41646472657373206973206e6f742077686974656c697374656400000000000081525060200191505060405180910390fd5b338486600080610c33836068611ff290919063ffffffff16565b9050600060a260008673ffffffffffffffffffffffffffffffffffffffff1673ffffffffffffffffffffffffffffffffffffffff16815260200190815260200160002090506000610c90878760686120519092919063ffffffff16565b90508160000154421015610ca657816001015493505b6000848203905080841115610d06576040517f08c379a000000000000000000000000000000000000000000000000000000000815260040180806020018281038252602381526020018061379c6023913960400191505060405180910390fd5b610d1e8d8d8d60686120e4909392919063ffffffff16565b99505050505050505050509392505050565b600060019054906101000a900460ff1680610d4f5750610d4e612307565b5b80610d65575060008054906101000a900460ff16155b610dba576040517f08c379a000000000000000000000000000000000000000000000000000000000815260040180806020018281038252602e81526020018061376e602e913960400191505060405180910390fd5b60008060019054906101000a900460ff161590508015610e0a576001600060016101000a81548160ff02191690831515021790555060016000806101000a81548160ff0219169083151502179055505b610e138661231e565b610e29838360686123629092919063ffffffff16565b60005b85859050811015610e8057610e73868683818110610e4657fe5b9050602002013573ffffffffffffffffffffffffffffffffffffffff1660666123b390919063ffffffff16565b8080600101915050610e2c565b508015610ea25760008060016101000a81548160ff0219169083151502179055505b505050505050565b603360009054906101000a900473ffffffffffffffffffffffffffffffffffffffff1681565b6000610ee68260666124e890919063ffffffff16565b9050919050565b6000610ef96068612508565b905090565b6000806000610f0d6068612531565b925092509250909192565b6000610f2e826066611f3090919063ffffffff16565b9050919050565b6000610f4d838360686126399092919063ffffffff16565b905092915050565b6000610f6b8260686126c390919063ffffffff16565b9050919050565b6000806000848490501415610f86576110ef565b83836000818110610f9357fe5b9050602002013573ffffffffffffffffffffffffffffffffffffffff169150610ff18585856000818110610fc357fe5b9050602002013573ffffffffffffffffffffffffffffffffffffffff1660686120519092919063ffffffff16565b90506000600190505b848490508110156110ed57600073ffffffffffffffffffffffffffffffffffffffff1685858381811061102957fe5b9050602002013573ffffffffffffffffffffffffffffffffffffffff1673ffffffffffffffffffffffffffffffffffffffff161415611067576110e2565b60006110a78787878581811061107957fe5b9050602002013573ffffffffffffffffffffffffffffffffffffffff1660686120519092919063ffffffff16565b9050828111156110e0578092508585838181106110c057fe5b9050602002013573ffffffffffffffffffffffffffffffffffffffff1693505b505b600181019050610ffa565b505b935093915050565b60006111036068612769565b905090565b6000606860070160009054906101000a900473ffffffffffffffffffffffffffffffffffffffff16905090565b60666111418133611f30565b6111b3576040517f08c379a000000000000000000000000000000000000000000000000000000000815260040180806020018281038252601a8152602001807f41646472657373206973206e6f742077686974656c697374656400000000000081525060200191505060405180910390fd5b6111cb8383336068612777909392919063ffffffff16565b505050565b60666111dc8133611f30565b61124e576040517f08c379a000000000000000000000000000000000000000000000000000000000815260040180806020018281038252601a8152602001807f41646472657373206973206e6f742077686974656c697374656400000000000081525060200191505060405180910390fd5b6112668484846068612777909392919063ffffffff16565b50505050565b603360009054906101000a900473ffffffffffffffffffffffffffffffffffffffff1673ffffffffffffffffffffffffffffffffffffffff1663d994d6d5336040518263ffffffff1660e01b8152600401808273ffffffffffffffffffffffffffffffffffffffff16815260200191505060206040518083038186803b1580156112f557600080fd5b505afa158015611309573d6000803e3d6000fd5b505050506040513d602081101561131f57600080fd5b81019080805190602001909291905050506040518060400160405280601681526020017f6e6f745f617574686f72697a65645f6368616e676572000000000000000000008152509061140c576040517f08c379a00000000000000000000000000000000000000000000000000000000081526004018080602001828103825283818151815260200191508051906020019080838360005b838110156113d15780820151818401526020810190506113b6565b50505050905090810190601f1680156113fe5780820380516001836020036101000a031916815260200191505b509250505060405180910390fd5b5061142181606661299b90919063ffffffff16565b50565b60a26020528060005260406000206000915090508060000154908060010154905082565b600061145e826068611ff290919063ffffffff16565b9050919050565b60006114716068612769565b905090565b600060666114848133611f30565b6114f6576040517f08c379a000000000000000000000000000000000000000000000000000000000815260040180806020018281038252601a8152602001807f41646472657373206973206e6f742077686974656c697374656400000000000081525060200191505060405180910390fd5b338385600080611510836068611ff290919063ffffffff16565b9050600060a260008673ffffffffffffffffffffffffffffffffffffffff1673ffffffffffffffffffffffffffffffffffffffff1681526020019081526020016000209050600061156d878760686120519092919063ffffffff16565b9050816000015442101561158357816001015493505b60008482039050808411156115e3576040517f08c379a000000000000000000000000000000000000000000000000000000000815260040180806020018281038252602381526020018061379c6023913960400191505060405180910390fd5b6115fb8c8c3360686120e4909392919063ffffffff16565b995050505050505050505092915050565b6000611624838360686120519092919063ffffffff16565b905092915050565b603360009054906101000a900473ffffffffffffffffffffffffffffffffffffffff1673ffffffffffffffffffffffffffffffffffffffff1663d994d6d5336040518263ffffffff1660e01b8152600401808273ffffffffffffffffffffffffffffffffffffffff16815260200191505060206040518083038186803b1580156116b557600080fd5b505afa1580156116c9573d6000803e3d6000fd5b505050506040513d60208110156116df57600080fd5b81019080805190602001909291905050506040518060400160405280601681526020017f6e6f745f617574686f72697a65645f6368616e67657200000000000000000000815250906117cc576040517f08c379a00000000000000000000000000000000000000000000000000000000081526004018080602001828103825283818151815260200191508051906020019080838360005b83811015611791578082015181840152602081019050611776565b50505050905090810190601f1680156117be5780820380516001836020036101000a031916815260200191505b509250505060405180910390fd5b5080603360006101000a81548173ffffffffffffffffffffffffffffffffffffffff021916908373ffffffffffffffffffffffffffffffffffffffff16021790555050565b60008060a260008473ffffffffffffffffffffffffffffffffffffffff1673ffffffffffffffffffffffffffffffffffffffff16815260200190815260200160002090508060010154915050919050565b600061186e6066612ad0565b905090565b6000611889826068612ae590919063ffffffff16565b9050919050565b606661189c8133611f30565b61190e576040517f08c379a000000000000000000000000000000000000000000000000000000000815260040180806020018281038252601a8152602001807f41646472657373206973206e6f742077686974656c697374656400000000000081525060200191505060405180910390fd5b600060a260008573ffffffffffffffffffffffffffffffffffffffff1673ffffffffffffffffffffffffffffffffffffffff16815260200190815260200160002090508281600001819055506000611972338660686120519092919063ffffffff16565b90508082600101819055505050505050565b60006119906068612508565b905090565b603360009054906101000a900473ffffffffffffffffffffffffffffffffffffffff1673ffffffffffffffffffffffffffffffffffffffff1663d994d6d5336040518263ffffffff1660e01b8152600401808273ffffffffffffffffffffffffffffffffffffffff16815260200191505060206040518083038186803b158015611a1e57600080fd5b505afa158015611a32573d6000803e3d6000fd5b505050506040513d6020811015611a4857600080fd5b81019080805190602001909291905050506040518060400160405280601681526020017f6e6f745f617574686f72697a65645f6368616e6765720000000000000000000081525090611b35576040517f08c379a00000000000000000000000000000000000000000000000000000000081526004018080602001828103825283818151815260200191508051906020019080838360005b83811015611afa578082015181840152602081019050611adf565b50505050905090810190601f168015611b275780820380516001836020036101000a031916815260200191505b509250505060405180910390fd5b50600033905060008173ffffffffffffffffffffffffffffffffffffffff16848460405160240180806020018281038252848482818152602001925080828437600081840152601f19601f82011690508083019250505093505050506040516020818303038152906040527fa16227ca000000000000000000000000000000000000000000000000000000007bffffffffffffffffffffffffffffffffffffffffffffffffffffffff19166020820180517bffffffffffffffffffffffffffffffffffffffffffffffffffffffff83818316178352505050506040518082805190602001908083835b60208310611c415780518252602082019150602081019050602083039250611c1e565b6001836020036101000a038019825116818451168082178552505050505050905001915050600060405180830381855af49150503d8060008114611ca1576040519150601f19603f3d011682016040523d82523d6000602084013e611ca6565b606091505b5050905080611d1d576040517f08c379a00000000000000000000000000000000000000000000000000000000081526004018080602001828103825260168152602001807f4572726f7220696e2064656c65676174652063616c6c0000000000000000000081525060200191505060405180910390fd5b50505050565b603360009054906101000a900473ffffffffffffffffffffffffffffffffffffffff1673ffffffffffffffffffffffffffffffffffffffff1663d994d6d5336040518263ffffffff1660e01b8152600401808273ffffffffffffffffffffffffffffffffffffffff16815260200191505060206040518083038186803b158015611dac57600080fd5b505afa158015611dc0573d6000803e3d6000fd5b505050506040513d6020811015611dd657600080fd5b81019080805190602001909291905050506040518060400160405280601681526020017f6e6f745f617574686f72697a65645f6368616e6765720000000000000000000081525090611ec3576040517f08c379a00000000000000000000000000000000000000000000000000000000081526004018080602001828103825283818151815260200191508051906020019080838360005b83811015611e88578082015181840152602081019050611e6d565b50505050905090810190601f168015611eb55780820380516001836020036101000a031916815260200191505b509250505060405180910390fd5b50611ed88160666123b390919063ffffffff16565b50565b611ee56068612b0f565b565b6000611efd826068612cff90919063ffffffff16565b9050919050565b6000606860060154905090565b6000808260010154118015611f295750816004015443115b9050919050565b60008073ffffffffffffffffffffffffffffffffffffffff168273ffffffffffffffffffffffffffffffffffffffff161415611fd4576040517f08c379a00000000000000000000000000000000000000000000000000000000081526004018080602001828103825260178152602001807f4163636f756e74206d757374206e6f742062652030783000000000000000000081525060200191505060405180910390fd5b611fea8284600001612d6990919063ffffffff16565b905092915050565b600080611ffe84612769565b9050600061200b85612508565b905060008114156120215760009250505061204b565b612046826120388387612db890919063ffffffff16565b612e3e90919063ffffffff16565b925050505b92915050565b60006120db848560000160008673ffffffffffffffffffffffffffffffffffffffff1673ffffffffffffffffffffffffffffffffffffffff16815260200190815260200160002060008573ffffffffffffffffffffffffffffffffffffffff1673ffffffffffffffffffffffffffffffffffffffff16815260200190815260200160002054611ff2565b90509392505050565b6000806120f18686611ff2565b90506120ff86338787612e88565b612116818760020154612fc090919063ffffffff16565b86600201819055508560070160009054906101000a900473ffffffffffffffffffffffffffffffffffffffff1673ffffffffffffffffffffffffffffffffffffffff1663a9059cbb84836040518363ffffffff1660e01b8152600401808373ffffffffffffffffffffffffffffffffffffffff16815260200182815260200192505050602060405180830381600087803b1580156121b357600080fd5b505af11580156121c7573d6000803e3d6000fd5b505050506040513d60208110156121dd57600080fd5b8101908080519060200190929190505050612260576040517f08c379a00000000000000000000000000000000000000000000000000000000081526004018080602001828103825260118152602001807f6572726f7220696e207472616e7366657200000000000000000000000000000081525060200191505060405180910390fd5b600086600101541415612277576122768661300a565b5b8273ffffffffffffffffffffffffffffffffffffffff168473ffffffffffffffffffffffffffffffffffffffff163373ffffffffffffffffffffffffffffffffffffffff167f592e508b7bcb8f340f4235dc972f0eed3fb8ceec1522f7dc664c0ec3d70ccd158885604051808381526020018281526020019250505060405180910390a480915050949350505050565b6000803090506000813b9050600081149250505090565b80603360006101000a81548173ffffffffffffffffffffffffffffffffffffffff021916908373ffffffffffffffffffffffffffffffffffffffff16021790555050565b818360070160006101000a81548173ffffffffffffffffffffffffffffffffffffffff021916908373ffffffffffffffffffffffffffffffffffffffff160217905550808360060181905550505050565b600073ffffffffffffffffffffffffffffffffffffffff168173ffffffffffffffffffffffffffffffffffffffff161415612456576040517f08c379a00000000000000000000000000000000000000000000000000000000081526004018080602001828103825260178152602001807f4163636f756e74206d757374206e6f742062652030783000000000000000000081525060200191505060405180910390fd5b600061246e828460000161307a90919063ffffffff16565b9050806124e3576040517f08c379a000000000000000000000000000000000000000000000000000000000815260040180806020018281038252601b8152602001807f4163636f756e7420616c72656164792077686974656c6973746564000000000081525060200191505060405180910390fd5b505050565b6000612500828460000161315090919063ffffffff16565b905092915050565b600061252a6125178343612ae5565b8360020154612fc090919063ffffffff16565b9050919050565b60008060008061261385600201548660070160009054906101000a900473ffffffffffffffffffffffffffffffffffffffff1673ffffffffffffffffffffffffffffffffffffffff166370a08231306040518263ffffffff1660e01b8152600401808273ffffffffffffffffffffffffffffffffffffffff16815260200191505060206040518083038186803b1580156125ca57600080fd5b505afa1580156125de573d6000803e3d6000fd5b505050506040513d60208110156125f457600080fd5b8101908080519060200190929190505050612fc090919063ffffffff16565b9050600061262186436126c3565b90508560050154818394509450945050509193909250565b60008360000160008473ffffffffffffffffffffffffffffffffffffffff1673ffffffffffffffffffffffffffffffffffffffff16815260200190815260200160002060008373ffffffffffffffffffffffffffffffffffffffff1673ffffffffffffffffffffffffffffffffffffffff1681526020019081526020016000205490509392505050565b600080836005015414156126da5760009050612763565b82600301548210156126ef5760009050612763565b82600401548211156127075782600501549050612763565b61276061272584600301548560040154612fc090919063ffffffff16565b61275261273f866003015486612fc090919063ffffffff16565b8660050154612db890919063ffffffff16565b612e3e90919063ffffffff16565b90505b92915050565b600081600101549050919050565b60006127838585612cff565b905061279c84866002015461321090919063ffffffff16565b85600201819055508460070160009054906101000a900473ffffffffffffffffffffffffffffffffffffffff1673ffffffffffffffffffffffffffffffffffffffff166323b872dd8330876040518463ffffffff1660e01b8152600401808473ffffffffffffffffffffffffffffffffffffffff1681526020018373ffffffffffffffffffffffffffffffffffffffff1681526020018281526020019350505050602060405180830381600087803b15801561285757600080fd5b505af115801561286b573d6000803e3d6000fd5b505050506040513d602081101561288157600080fd5b8101908080519060200190929190505050612904576040517f08c379a00000000000000000000000000000000000000000000000000000000081526004018080602001828103825260168152602001807f6572726f7220696e207472616e736665722066726f6d0000000000000000000081525060200191505060405180910390fd5b61291085338386613298565b8173ffffffffffffffffffffffffffffffffffffffff168373ffffffffffffffffffffffffffffffffffffffff163373ffffffffffffffffffffffffffffffffffffffff167f3be9ba9d4cf811f0b3ae373b3afca68bd248152e6ab6090207e86237963411b08488604051808381526020018281526020019250505060405180910390a45050505050565b600073ffffffffffffffffffffffffffffffffffffffff168173ffffffffffffffffffffffffffffffffffffffff161415612a3e576040517f08c379a00000000000000000000000000000000000000000000000000000000081526004018080602001828103825260178152602001807f4163636f756e74206d757374206e6f742062652030783000000000000000000081525060200191505060405180910390fd5b6000612a5682846000016133d090919063ffffffff16565b905080612acb576040517f08c379a000000000000000000000000000000000000000000000000000000000815260040180806020018281038252600f8152602001807f4d697373696e67206163636f756e74000000000000000000000000000000000081525060200191505060405180910390fd5b505050565b6000612ade826000016135b5565b9050919050565b6000612b07612af484846126c3565b8460050154612fc090919063ffffffff16565b905092915050565b612b1881611f11565b612b8a576040517f08c379a00000000000000000000000000000000000000000000000000000000081526004018080602001828103825260178152602001807f4e6f7420726561647920746f206469737472696275746500000000000000000081525060200191505060405180910390fd5b60008160070160009054906101000a900473ffffffffffffffffffffffffffffffffffffffff1673ffffffffffffffffffffffffffffffffffffffff166370a08231306040518263ffffffff1660e01b8152600401808273ffffffffffffffffffffffffffffffffffffffff16815260200191505060206040518083038186803b158015612c1757600080fd5b505afa158015612c2b573d6000803e3d6000fd5b505050506040513d6020811015612c4157600080fd5b81019080805190602001909291905050509050612c6b826002015482612fc090919063ffffffff16565b8260050181905550438260030181905550612c978260060154836003015461321090919063ffffffff16565b82600401819055508082600201819055507fae0d41d081163df90cb6fb9635dcfd40447a96402d60e1503b6aca171fc8493782600501548360030154846004015460405180848152602001838152602001828152602001935050505060405180910390a15050565b600080612d0b84612508565b90506000612d1885612769565b9050600082148015612d2a5750600081145b15612d39578392505050612d63565b612d5e82612d508387612db890919063ffffffff16565b612e3e90919063ffffffff16565b925050505b92915050565b6000808360010160008473ffffffffffffffffffffffffffffffffffffffff1673ffffffffffffffffffffffffffffffffffffffff168152602001908152602001600020541415905092915050565b600080831415612dcb5760009050612e38565b6000828402905082848281612ddc57fe5b0414612e33576040517f08c379a000000000000000000000000000000000000000000000000000000000815260040180806020018281038252602181526020018061374d6021913960400191505060405180910390fd5b809150505b92915050565b6000612e8083836040518060400160405280601a81526020017f536166654d6174683a206469766973696f6e206279207a65726f0000000000008152506135c6565b905092915050565b612f19828560000160008673ffffffffffffffffffffffffffffffffffffffff1673ffffffffffffffffffffffffffffffffffffffff16815260200190815260200160002060008473ffffffffffffffffffffffffffffffffffffffff1673ffffffffffffffffffffffffffffffffffffffff16815260200190815260200160002054612fc090919063ffffffff16565b8460000160008573ffffffffffffffffffffffffffffffffffffffff1673ffffffffffffffffffffffffffffffffffffffff16815260200190815260200160002060008373ffffffffffffffffffffffffffffffffffffffff1673ffffffffffffffffffffffffffffffffffffffff16815260200190815260200160002081905550612fb2828560010154612fc090919063ffffffff16565b846001018190555050505050565b600061300283836040518060400160405280601e81526020017f536166654d6174683a207375627472616374696f6e206f766572666c6f77000081525061368c565b905092915050565b60008160020154905060008260020181905550600082600501819055507f5cae2c6323e6b89af1beffd6a6dfd5a1b15ce6894280f14456b631ed380fa511818360030154846004015460405180848152602001838152602001828152602001935050505060405180910390a15050565b60006130868383612d69565b6131455782600001829080600181540180825580915050600190039060005260206000200160009091909190916101000a81548173ffffffffffffffffffffffffffffffffffffffff021916908373ffffffffffffffffffffffffffffffffffffffff16021790555082600001805490508360010160008473ffffffffffffffffffffffffffffffffffffffff1673ffffffffffffffffffffffffffffffffffffffff168152602001908152602001600020819055506001905061314a565b600090505b92915050565b6000818360000180549050116131ce576040517f08c379a00000000000000000000000000000000000000000000000000000000081526004018080602001828103825260138152602001807f696e646578206f7574206f6620626f756e64730000000000000000000000000081525060200191505060405180910390fd5b8260000182815481106131dd57fe5b9060005260206000200160009054906101000a900473ffffffffffffffffffffffffffffffffffffffff16905092915050565b60008082840190508381101561328e576040517f08c379a000000000000000000000000000000000000000000000000000000000815260040180806020018281038252601b8152602001807f536166654d6174683a206164646974696f6e206f766572666c6f77000000000081525060200191505060405180910390fd5b8091505092915050565b613329828560000160008673ffffffffffffffffffffffffffffffffffffffff1673ffffffffffffffffffffffffffffffffffffffff16815260200190815260200160002060008473ffffffffffffffffffffffffffffffffffffffff1673ffffffffffffffffffffffffffffffffffffffff1681526020019081526020016000205461321090919063ffffffff16565b8460000160008573ffffffffffffffffffffffffffffffffffffffff1673ffffffffffffffffffffffffffffffffffffffff16815260200190815260200160002060008373ffffffffffffffffffffffffffffffffffffffff1673ffffffffffffffffffffffffffffffffffffffff168152602001908152602001600020819055506133c282856001015461321090919063ffffffff16565b846001018190555050505050565b6000808360010160008473ffffffffffffffffffffffffffffffffffffffff1673ffffffffffffffffffffffffffffffffffffffff168152602001908152602001600020549050600081146135a9576000600182039050600060018660000180549050039050600086600001828154811061344757fe5b9060005260206000200160009054906101000a900473ffffffffffffffffffffffffffffffffffffffff1690508087600001848154811061348457fe5b9060005260206000200160006101000a81548173ffffffffffffffffffffffffffffffffffffffff021916908373ffffffffffffffffffffffffffffffffffffffff160217905550600183018760010160008373ffffffffffffffffffffffffffffffffffffffff1673ffffffffffffffffffffffffffffffffffffffff168152602001908152602001600020819055508660000180548061352257fe5b6001900381819060005260206000200160006101000a81549073ffffffffffffffffffffffffffffffffffffffff021916905590558660010160008773ffffffffffffffffffffffffffffffffffffffff1673ffffffffffffffffffffffffffffffffffffffff1681526020019081526020016000206000905560019450505050506135af565b60009150505b92915050565b600081600001805490509050919050565b60008083118290613672576040517f08c379a00000000000000000000000000000000000000000000000000000000081526004018080602001828103825283818151815260200191508051906020019080838360005b8381101561363757808201518184015260208101905061361c565b50505050905090810190601f1680156136645780820380516001836020036101000a031916815260200191505b509250505060405180910390fd5b50600083858161367e57fe5b049050809150509392505050565b6000838311158290613739576040517f08c379a00000000000000000000000000000000000000000000000000000000081526004018080602001828103825283818151815260200191508051906020019080838360005b838110156136fe5780820151818401526020810190506136e3565b50505050905090810190601f16801561372b5780820380516001836020036101000a031916815260200191505b509250505060405180910390fd5b506000838503905080915050939250505056fe536166654d6174683a206d756c7469706c69636174696f6e206f766572666c6f77436f6e747261637420696e7374616e63652068617320616c7265616479206265656e20696e697469616c697a65645374616b65206e6f7420617661696c61626c6520666f72207769746864726177616c2ea2646970667358221220e3c8792a0fb033bed7b9b6ae3027fe1ed46596a9cd2782a74b2a6ea0a9ec4b5b64736f6c634300060c0033",
    "immutableReferences": {},
    "source": "// SPDX-License-Identifier: UNLICENSED\npragma solidity 0.6.12;\n\nimport {SafeMath} from \"@openzeppelin/contracts-ethereum-package/contracts/math/SafeMath.sol\";\nimport {IERC20} from \"@openzeppelin/contracts-ethereum-package/contracts/token/ERC20/IERC20.sol\";\nimport {IGovernor} from \"@moc/shared/contracts/moc-governance/Governance/IGovernor.sol\";\nimport {Governed} from \"@moc/shared/contracts/moc-governance/Governance/Governed.sol\";\nimport {SupportersStorage} from \"./SupportersStorage.sol\";\n\n/*\n    Right now we have two things implemented in the same smart-contract:\n        - Only the smart-contracts in the whitelist can access this one.\n        - Some vesting rules implemented in SupportersVestedAbstract\n    This can be split in the future in two smart-contracts if we want to add a specific set\n    of vesting rules (that doesn't do what SupportersVestedAbstract does).\n*/\ncontract Supporters is SupportersStorage {\n    using SafeMath for uint256;\n\n    // Emitted by SupportersLib\n    event PayEarnings(uint256 earnings, uint256 start, uint256 end);\n    event CancelEarnings(uint256 earnings, uint256 start, uint256 end);\n    event AddStake(\n        address indexed user,\n        address indexed subaccount,\n        address indexed sender,\n        uint256 amount,\n        uint256 mocs\n    );\n    event WithdrawStake(\n        address indexed user,\n        address indexed subaccount,\n        address indexed destination,\n        uint256 amount,\n        uint256 mocs\n    );\n\n    event Withdraw(\n        address indexed msgSender,\n        address indexed subacount,\n        address indexed receiver,\n        uint256 mocs,\n        uint256 blockNum\n    );\n\n    struct LockingInfo {\n        uint256 untilTimestamp;\n        uint256 amount;\n    }\n\n    mapping(address => LockingInfo) public lockedMocs;\n\n    /**\n     @notice Contract creation\n\n     @param _governor The address of the contract which governs this one\n     @param _wlist Initial whitelist addresses\n     @param _mocToken The address of the contract which governs this one\n     @param _period The address of the contract which governs this one\n    */\n    function initialize(\n        IGovernor _governor,\n        address[] calldata _wlist,\n        IERC20 _mocToken,\n        uint256 _period\n    ) external initializer {\n        Governed._initialize(_governor);\n        supportersData._initialize(_mocToken, _period);\n        for (uint256 i = 0; i < _wlist.length; i++) {\n            iterableWhitelistData._addToWhitelist(_wlist[i]);\n        }\n    }\n\n    /// @notice Used by the voting machine to lock an amount of MOCs.\n    /// @param mocHolder the moc holder whose mocs will be locked.\n    /// @param untilTimestamp timestamp until which the mocs will be locked.\n    function lockMocs(address mocHolder, uint256 untilTimestamp)\n        external\n        onlyWhitelisted(iterableWhitelistData)\n    {\n        LockingInfo storage lockedMocsInfo = lockedMocs[mocHolder];\n        lockedMocsInfo.untilTimestamp = untilTimestamp;\n        uint256 mocBalance = supportersData._getMOCBalanceAt(msg.sender, mocHolder);\n        lockedMocsInfo.amount = mocBalance;\n    }\n\n    /// @notice Reports the balance of locked MOCs for a specific user.\n    /// Delegates to the Supporters smart contract.\n    /// @param user user address\n    function getLockedBalance(address user) external view returns (uint256) {\n        LockingInfo storage lockedMocsInfo = lockedMocs[user];\n        return lockedMocsInfo.amount;\n    }\n\n    /**\n     @notice Add to the list of contracts that can stake in this contract\n\n     @param  _whitelisted - the override coinPair\n    */\n    function addToWhitelist(address _whitelisted) external onlyAuthorizedChanger() {\n        iterableWhitelistData._addToWhitelist(_whitelisted);\n    }\n\n    /**\n     @notice Remove from the list of contracts that can stake in this contract\n\n     @param _whitelisted - the override coinPair\n    */\n    function removeFromWhitelist(address _whitelisted) external onlyAuthorizedChanger() {\n        iterableWhitelistData._removeFromWhitelist(_whitelisted);\n    }\n\n    /**\n      @notice Deposit earnings that will be credited to supporters.\n      @dev Earnings will be credited periodically through several blocks.\n    */\n    function distribute() external {\n        supportersData._distribute();\n    }\n\n    /**\n      @notice Return true if is ready to do a distribute call\n\n      @return true if ready\n    */\n    function isReadyToDistribute() external view returns (bool) {\n        return supportersData._isReadyToDistribute();\n    }\n\n    /**\n     Stake MOC to receive earnings on a subaccount.\n\n     @param _mocs amount of MOC to stake\n     @param _subaccount sub-account used to identify the stake\n    */\n    function stakeAt(uint256 _mocs, address _subaccount)\n        external\n        onlyWhitelisted(iterableWhitelistData)\n    {\n        supportersData._stakeAtFrom(_mocs, _subaccount, msg.sender);\n    }\n\n    /**\n     Stake MOC to receive earnings on a subaccount.\n\n     @param _mocs amount of MOC to stake\n     @param _subaccount sub-account used to identify the stake\n     @param _sender sender account that must approve and from which the funds are taken\n    */\n    function stakeAtFrom(\n        uint256 _mocs,\n        address _subaccount,\n        address _sender\n    ) external onlyWhitelisted(iterableWhitelistData) {\n        supportersData._stakeAtFrom(_mocs, _subaccount, _sender);\n    }\n\n    /**\n      Withdraw MOC for tokens for a subaccount.\n\n      @param _tokens amount of tokens to convert to MOC\n      @param _subaccount subaccount used to withdraw MOC\n      @return Amount of MOC transfered\n    */\n    function withdrawFrom(uint256 _tokens, address _subaccount)\n        external\n        onlyWhitelisted(iterableWhitelistData)\n        stakeAvailable(msg.sender, _subaccount, _tokens)\n        returns (uint256)\n    {\n        return supportersData._withdrawFromTo(_tokens, _subaccount, msg.sender);\n    }\n\n    /**\n      Withdraw MOC for tokens for a subaccount.\n\n      @param _tokens amount of tokens to convert to MOC\n      @param _subaccount subaccount used to withdraw MOC\n      @param _receiver destination address that gets the MOC\n      @return Amount of MOC transfered\n    */\n    function withdrawFromTo(\n        uint256 _tokens,\n        address _subaccount,\n        address _receiver\n    )\n        external\n        onlyWhitelisted(iterableWhitelistData)\n        stakeAvailable(msg.sender, _subaccount, _tokens)\n        returns (uint256)\n    {\n        return supportersData._withdrawFromTo(_tokens, _subaccount, _receiver);\n    }\n\n    /**\n      @notice Amount of tokens for _user in a _subaccount.\n\n      @param _user User address\n      @param _subaccount subaccount to get balance\n      @return tokens for _user at _subaccount\n    */\n    function getBalanceAt(address _user, address _subaccount) external view returns (uint256) {\n        return supportersData._getBalanceAt(_user, _subaccount);\n    }\n\n    /**\n      @notice MOC available for withdrawal by _user.\n\n      @param _user User address\n      @param _subaccount subaccount to get MOC balance\n      @return MOC for _user\n    */\n    function getMOCBalanceAt(address _user, address _subaccount) external view returns (uint256) {\n        return supportersData._getMOCBalanceAt(_user, _subaccount);\n    }\n\n    /**\n      @notice Total tokens created.\n\n      @return total amount of tokens\n    */\n    function getTokens() external view returns (uint256) {\n        return supportersData._getTokens();\n    }\n\n    /**\n      @notice MOC available for withdrawal.\n\n      @return total amount of MOC\n    */\n    function getAvailableMOC() external view returns (uint256) {\n        return supportersData._getAvailableMOC();\n    }\n\n    /**\n      @notice Calculate earnings to be paid at a block\n\n      @param _block Block used to calculate\n      @return Earnings to be paid\n    */\n    function getEarningsAt(uint256 _block) external view returns (uint256) {\n        return supportersData._getEarningsAt(_block);\n    }\n\n    /**\n      @notice Calculate locked earnings at a block\n\n      @param _block Block used for calculations\n      @return Locked amount of earnings in MOC\n    */\n    function getLockedAt(uint256 _block) external view returns (uint256) {\n        return supportersData._getLockedAt(_block);\n    }\n\n    /**\n      @notice Return information about earnings\n\n      @return Information about earnings\n    */\n    function getEarningsInfo()\n        external\n        view\n        returns (\n            uint256,\n            uint256,\n            uint256\n        )\n    {\n        return supportersData._getEarningsInfo();\n    }\n\n    /// @notice The moc token address\n    function mocToken() external view returns (IERC20) {\n        return supportersData.mocToken;\n    }\n\n    /**\n     @notice Return the round length in blocks .\n     @dev During each round rewards are collected and distributed during next round.\n\n     @return Number of blocks to distribute earnings\n    */\n    function period() external view returns (uint256) {\n        return supportersData.period;\n    }\n\n    /// @notice Returns the count of whitelisted addresses.\n    function getWhiteListLen() external view returns (uint256) {\n        return iterableWhitelistData._getWhiteListLen();\n    }\n\n    /**\n     @notice Returns the address at index.\n\n     @param _idx index to query.\n    */\n    function getWhiteListAtIndex(uint256 _idx) external view returns (address) {\n        return iterableWhitelistData._getWhiteListAtIndex(_idx);\n    }\n\n    /**\n     @notice Check if an account is whitelisted\n\n     @param _account The account to check\n    */\n    function isWhitelisted(address _account) external view returns (bool) {\n        return iterableWhitelistData._isWhitelisted(_account);\n    }\n\n    /**\n      Convert amount MOC to equivalent in token\n\n      @param _mocs Amount of MOC\n      @return Equivalent amount of tokens\n    */\n    function mocToToken(uint256 _mocs) external view returns (uint256) {\n        return supportersData._mocToToken(_mocs);\n    }\n\n    /**\n      Convert amount tokens to equivalent in MOCS\n\n      @param _token Amount of tokens\n      @return Equivalent amount of tokens\n    */\n    function tokenToMoc(uint256 _token) external view returns (uint256) {\n        return supportersData._tokenToMoc(_token);\n    }\n\n    // @notice total amount of mocs inside the supporters contract\n    function totalMoc() external view returns (uint256) {\n        return supportersData._getAvailableMOC();\n    }\n\n    // @notice total amount of tokens inside the supporters contect.\n    function totalToken() external view returns (uint256) {\n        return supportersData._getTokens();\n    }\n\n    function getMaxMOCBalance(address owner, address[] calldata addresses)\n        external\n        view\n        returns (address selected, uint256 maxBalance)\n    {\n        if (addresses.length == 0) {\n            return (selected, maxBalance);\n        }\n\n        selected = addresses[0];\n        maxBalance = supportersData._getMOCBalanceAt(owner, addresses[0]);\n        for (uint256 i = 1; i < addresses.length; i += 1) {\n            if (addresses[i] == address(0)) {\n                continue;\n            }\n            uint256 balance = supportersData._getMOCBalanceAt(owner, addresses[i]);\n            if (balance > maxBalance) {\n                maxBalance = balance;\n                selected = addresses[i];\n            }\n        }\n\n        return (selected, maxBalance);\n    }\n\n    /**\n      @notice Modifier that checks locked stake for withdrawal availability\n      @dev You should use this modifier in any function that withdraws a user's stake.\n     */\n    modifier stakeAvailable(\n        address user,\n        address subaccount,\n        uint256 tokens\n    ) {\n        uint256 lockedAmount = 0;\n        uint256 mocs = supportersData._tokenToMoc(tokens);\n        LockingInfo storage lockedMocsInfo = lockedMocs[subaccount];\n        uint256 mocBalance = supportersData._getMOCBalanceAt(user, subaccount);\n        // solhint-disable-next-line not-rely-on-time\n        if (block.timestamp < lockedMocsInfo.untilTimestamp) {\n            lockedAmount = lockedMocsInfo.amount;\n        }\n        uint256 surplus = mocBalance - lockedAmount;\n        require(mocs <= surplus, \"Stake not available for withdrawal.\");\n        _;\n    }\n}\n",
    "sourcePath": "/home/adji/Desktop/work/coinfabrik/moc-oraculos/contracts/Supporters.sol",
    "compiler": {
        "name": "solc",
        "version": "0.6.12+commit.27d51765.Emscripten.clang"
    },
    "schemaVersion": "3.2.4",
    "updatedAt": "2020-09-15T18:21:40.665Z",
    "devdoc": {
        "kind": "dev",
        "methods": {
            "addToWhitelist(address)": {
                "params": {
                    "_whitelisted": "- the override coinPair"
                }
            },
            "changeIGovernor(address)": {
                "params": {
                    "newIGovernor": "New governor address"
                }
            },
            "delegateCallToChanger(bytes)": {
                "params": {
                    "data": "the serialized function arguments"
                }
            },
            "distribute()": {
                "details": "Earnings will be credited periodically through several blocks."
            },
            "getAvailableMOC()": {
                "returns": {
                    "_0": "total amount of MOC"
                }
            },
            "getBalanceAt(address,address)": {
                "params": {
                    "_subaccount": "subaccount to get balance",
                    "_user": "User address"
                },
                "returns": {
                    "_0": "tokens for _user at _subaccount"
                }
            },
            "getEarningsAt(uint256)": {
                "params": {
                    "_block": "Block used to calculate"
                },
                "returns": {
                    "_0": "Earnings to be paid"
                }
            },
            "getEarningsInfo()": {
                "returns": {
                    "_0": "Information about earnings"
                }
            },
            "getLockedAt(uint256)": {
                "params": {
                    "_block": "Block used for calculations"
                },
                "returns": {
                    "_0": "Locked amount of earnings in MOC"
                }
            },
            "getLockedBalance(address)": {
                "params": {
                    "user": "user address"
                }
            },
            "getMOCBalanceAt(address,address)": {
                "params": {
                    "_subaccount": "subaccount to get MOC balance",
                    "_user": "User address"
                },
                "returns": {
                    "_0": "MOC for _user"
                }
            },
            "getTokens()": {
                "returns": {
                    "_0": "total amount of tokens"
                }
            },
            "getWhiteListAtIndex(uint256)": {
                "params": {
                    "_idx": "index to query."
                }
            },
            "initialize(address,address[],address,uint256)": {
                "params": {
                    "_governor": "The address of the contract which governs this one",
                    "_mocToken": "The address of the contract which governs this one",
                    "_period": "The address of the contract which governs this one",
                    "_wlist": "Initial whitelist addresses"
                }
            },
            "isReadyToDistribute()": {
                "returns": {
                    "_0": "true if ready"
                }
            },
            "isWhitelisted(address)": {
                "params": {
                    "_account": "The account to check"
                }
            },
            "lockMocs(address,uint256)": {
                "params": {
                    "mocHolder": "the moc holder whose mocs will be locked.",
                    "untilTimestamp": "timestamp until which the mocs will be locked."
                }
            },
            "mocToToken(uint256)": {
                "params": {
                    "_mocs": "Amount of MOC"
                },
                "returns": {
                    "_0": "Equivalent amount of tokens"
                }
            },
            "period()": {
                "details": "During each round rewards are collected and distributed during next round.",
                "returns": {
                    "_0": "Number of blocks to distribute earnings"
                }
            },
            "removeFromWhitelist(address)": {
                "params": {
                    "_whitelisted": "- the override coinPair"
                }
            },
            "stakeAt(uint256,address)": {
                "params": {
                    "_mocs": "amount of MOC to stake",
                    "_subaccount": "sub-account used to identify the stake"
                }
            },
            "stakeAtFrom(uint256,address,address)": {
                "params": {
                    "_mocs": "amount of MOC to stake",
                    "_sender": "sender account that must approve and from which the funds are taken",
                    "_subaccount": "sub-account used to identify the stake"
                }
            },
            "tokenToMoc(uint256)": {
                "params": {
                    "_token": "Amount of tokens"
                },
                "returns": {
                    "_0": "Equivalent amount of tokens"
                }
            },
            "withdrawFrom(uint256,address)": {
                "params": {
                    "_subaccount": "subaccount used to withdraw MOC",
                    "_tokens": "amount of tokens to convert to MOC"
                },
                "returns": {
                    "_0": "Amount of MOC transfered"
                }
            },
            "withdrawFromTo(uint256,address,address)": {
                "params": {
                    "_receiver": "destination address that gets the MOC",
                    "_subaccount": "subaccount used to withdraw MOC",
                    "_tokens": "amount of tokens to convert to MOC"
                },
                "returns": {
                    "_0": "Amount of MOC transfered"
                }
            }
        },
        "version": 1
    },
    "userdoc": {
        "kind": "user",
        "methods": {
            "addToWhitelist(address)": {
                "notice": "Add to the list of contracts that can stake in this contract"
            },
            "changeIGovernor(address)": {
                "notice": "Change the contract's governor. Should be called through the old governance system"
            },
            "delegateCallToChanger(bytes)": {
                "notice": "This method is used by a change contract to access the storage freely even without a setter."
            },
            "distribute()": {
                "notice": "Deposit earnings that will be credited to supporters."
            },
            "getAvailableMOC()": {
                "notice": "MOC available for withdrawal."
            },
            "getBalanceAt(address,address)": {
                "notice": "Amount of tokens for _user in a _subaccount."
            },
            "getEarningsAt(uint256)": {
                "notice": "Calculate earnings to be paid at a block"
            },
            "getEarningsInfo()": {
                "notice": "Return information about earnings"
            },
            "getLockedAt(uint256)": {
                "notice": "Calculate locked earnings at a block"
            },
            "getLockedBalance(address)": {
                "notice": "Reports the balance of locked MOCs for a specific user. Delegates to the Supporters smart contract."
            },
            "getMOCBalanceAt(address,address)": {
                "notice": "MOC available for withdrawal by _user."
            },
            "getTokens()": {
                "notice": "Total tokens created."
            },
            "getWhiteListAtIndex(uint256)": {
                "notice": "Returns the address at index."
            },
            "getWhiteListLen()": {
                "notice": "Returns the count of whitelisted addresses."
            },
            "governor()": {
                "notice": "The address of the contract which governs this one"
            },
            "initialize(address,address[],address,uint256)": {
                "notice": "Contract creation"
            },
            "isReadyToDistribute()": {
                "notice": "Return true if is ready to do a distribute call"
            },
            "isWhitelisted(address)": {
                "notice": "Check if an account is whitelisted"
            },
            "lockMocs(address,uint256)": {
                "notice": "Used by the voting machine to lock an amount of MOCs."
            },
            "mocToToken(uint256)": {
                "notice": "Convert amount MOC to equivalent in token"
            },
            "mocToken()": {
                "notice": "The moc token address"
            },
            "period()": {
                "notice": "Return the round length in blocks ."
            },
            "removeFromWhitelist(address)": {
                "notice": "Remove from the list of contracts that can stake in this contract"
            },
            "stakeAt(uint256,address)": {
                "notice": "Stake MOC to receive earnings on a subaccount."
            },
            "stakeAtFrom(uint256,address,address)": {
                "notice": "Stake MOC to receive earnings on a subaccount."
            },
            "tokenToMoc(uint256)": {
                "notice": "Convert amount tokens to equivalent in MOCS"
            },
            "withdrawFrom(uint256,address)": {
                "notice": "Withdraw MOC for tokens for a subaccount."
            },
            "withdrawFromTo(uint256,address,address)": {
                "notice": "Withdraw MOC for tokens for a subaccount."
            }
        },
        "version": 1
    }
}