{
    "contractName": "SupportersPeriodChange",
    "abi": [
        {
            "inputs": [
                {
                    "internalType": "contract Governed",
                    "name": "_supporters",
                    "type": "address"
                },
                {
                    "internalType": "uint256",
                    "name": "_period",
                    "type": "uint256"
                }
            ],
            "stateMutability": "nonpayable",
            "type": "constructor"
        },
        {
            "inputs": [
                {
                    "internalType": "contract IGovernor",
                    "name": "newIGovernor",
                    "type": "address"
                }
            ],
            "name": "changeIGovernor",
            "outputs": [],
            "stateMutability": "nonpayable",
            "type": "function"
        },
        {
            "inputs": [
                {
                    "internalType": "bytes",
                    "name": "data",
                    "type": "bytes"
                }
            ],
            "name": "delegateCallToChanger",
            "outputs": [],
            "stateMutability": "nonpayable",
            "type": "function"
        },
        {
            "inputs": [],
            "name": "encodedData",
            "outputs": [
                {
                    "internalType": "bytes",
                    "name": "",
                    "type": "bytes"
                }
            ],
            "stateMutability": "view",
            "type": "function"
        },
        {
            "inputs": [],
            "name": "governor",
            "outputs": [
                {
                    "internalType": "contract IGovernor",
                    "name": "",
                    "type": "address"
                }
            ],
            "stateMutability": "view",
            "type": "function"
        },
        {
            "inputs": [],
            "name": "supporters",
            "outputs": [
                {
                    "internalType": "contract Governed",
                    "name": "",
                    "type": "address"
                }
            ],
            "stateMutability": "view",
            "type": "function"
        },
        {
            "inputs": [],
            "name": "execute",
            "outputs": [],
            "stateMutability": "nonpayable",
            "type": "function"
        },
        {
            "inputs": [
                {
                    "internalType": "bytes",
                    "name": "data",
                    "type": "bytes"
                }
            ],
            "name": "impersonate",
            "outputs": [],
            "stateMutability": "nonpayable",
            "type": "function"
        }
    ],
    "bytecode": "0x608060405234801561001057600080fd5b506040516108d03803806108d08339818101604052604081101561003357600080fd5b50805160209182015160a280546001600160a01b0319166001600160a01b038416179055604080518085018390528151808203860181529082019091528051929391926100849260a392019061008c565b50505061011f565b828054600181600116156101000203166002900490600052602060002090601f016020900481019282601f106100cd57805160ff19168380011785556100fa565b828001600101855582156100fa579182015b828111156100fa5782518255916020019190600101906100df565b5061010692915061010a565b5090565b5b80821115610106576000815560010161010b565b6107a28061012e6000396000f3fe608060405234801561001057600080fd5b506004361061007d5760003560e01c8063b6e083301161005b578063b6e0833014610120578063d2b0bf7c14610146578063dc8990e1146101c3578063fdc31f6f146102335761007d565b80630c340a241461008257806361461954146100a6578063a16227ca146100b0575b600080fd5b61008a61023b565b604080516001600160a01b039092168252519081900360200190f35b6100ae61024a565b005b6100ae600480360360208110156100c657600080fd5b8101906020810181356401000000008111156100e157600080fd5b8201836020820111156100f357600080fd5b8035906020019184600183028401116401000000008311171561011557600080fd5b509092509050610327565b6100ae6004803603602081101561013657600080fd5b50356001600160a01b0316610340565b61014e610490565b6040805160208082528351818301528351919283929083019185019080838360005b83811015610188578181015183820152602001610170565b50505050905090810190601f1680156101b55780820380516001836020036101000a031916815260200191505b509250505060405180910390f35b6100ae600480360360208110156101d957600080fd5b8101906020810181356401000000008111156101f457600080fd5b82018360208201111561020657600080fd5b8035906020019184600183028401116401000000008311171561022857600080fd5b50909250905061051e565b61008a61075d565b6033546001600160a01b031681565b60a25460405163dc8990e160e01b815260206004820190815260a3805460026000196001831615610100020190911604602484018190526001600160a01b039094169363dc8990e1939192918291604490910190849080156102ed5780601f106102c2576101008083540402835291602001916102ed565b820191906000526020600020905b8154815290600101906020018083116102d057829003601f168201915b505092505050600060405180830381600087803b15801561030d57600080fd5b505af1158015610321573d6000803e3d6000fd5b50505050565b8181602081101561033757600080fd5b5035606e555050565b6033546040805163d994d6d560e01b815233600482015290516001600160a01b039092169163d994d6d591602480820192602092909190829003018186803b15801561038b57600080fd5b505afa15801561039f573d6000803e3d6000fd5b505050506040513d60208110156103b557600080fd5b50516040805180820190915260168152753737ba2fb0baba3437b934bd32b22fb1b430b733b2b960511b60208201529061046d5760405162461bcd60e51b81526004018080602001828103825283818151815260200191508051906020019080838360005b8381101561043257818101518382015260200161041a565b50505050905090810190601f16801561045f5780820380516001836020036101000a031916815260200191505b509250505060405180910390fd5b50603380546001600160a01b0319166001600160a01b0392909216919091179055565b60a3805460408051602060026001851615610100026000190190941693909304601f810184900484028201840190925281815292918301828280156105165780601f106104eb57610100808354040283529160200191610516565b820191906000526020600020905b8154815290600101906020018083116104f957829003601f168201915b505050505081565b6033546040805163d994d6d560e01b815233600482015290516001600160a01b039092169163d994d6d591602480820192602092909190829003018186803b15801561056957600080fd5b505afa15801561057d573d6000803e3d6000fd5b505050506040513d602081101561059357600080fd5b50516040805180820190915260168152753737ba2fb0baba3437b934bd32b22fb1b430b733b2b960511b60208201529061060e5760405162461bcd60e51b815260206004820181815283516024840152835190928392604490910191908501908083836000831561043257818101518382015260200161041a565b50604051602060248201908152604482018390523391600091839186918691819060640184848082843760008382015260408051601f909201601f1990811690940182810390940182529283526020810180516001600160e01b03166350b113e560e11b17815292518151919750955085945091925081905083835b602083106106a95780518252601f19909201916020918201910161068a565b6001836020036101000a038019825116818451168082178552505050505050905001915050600060405180830381855af49150503d8060008114610709576040519150601f19603f3d011682016040523d82523d6000602084013e61070e565b606091505b5050905080610321576040805162461bcd60e51b8152602060048201526016602482015275115c9c9bdc881a5b8819195b1959d85d194818d85b1b60521b604482015290519081900360640190fd5b60a2546001600160a01b03168156fea26469706673582212209aef47d9787b349a4575a52be3b63c6b7219a0cd2d504c37ddfe67ae9eb3f3d364736f6c634300060c0033",
    "immutableReferences": {},
    "source": "// SPDX-License-Identifier: UNLICENSED\npragma solidity 0.6.12;\n\nimport {ChangeContract} from \"@moc/shared/contracts/moc-governance/Governance/ChangeContract.sol\";\nimport {Governed} from \"@moc/shared/contracts/moc-governance/Governance/Governed.sol\";\nimport {SupportersStorage} from \"../SupportersStorage.sol\";\n\n/**\n  @title SupportersPeriodChange\n  @notice This contract is a ChangeContract intended to be used to change the Supporters contract\n  parameter period\n */\ncontract SupportersPeriodChange is SupportersStorage, ChangeContract {\n    Governed public supporters;\n    bytes public encodedData;\n\n    /**\n      @notice Constructor\n      @param _supporters Address of supporters whitelisted contract to upgrade\n      @param _period The length of the round in blocks\n    */\n    constructor(Governed _supporters, uint256 _period) public {\n        supporters = _supporters;\n        encodedData = abi.encode(_period);\n    }\n\n    /**\n      @notice Execute the changes.\n      @dev Should be called by the governor, but this contract does not check that explicitly because\n      it is not its responsability in the current architecture\n     */\n    function execute() external override {\n        supporters.delegateCallToChanger(encodedData);\n        // TODO: Make it usable just once.\n    }\n\n    /**\n        Called by the Governed contract delegateCallToChanger method\n        This methods runs in the Governed contract storage.\n    */\n    function impersonate(bytes calldata data) external {\n        supportersData.period = abi.decode(data, (uint256));\n    }\n}\n",
    "sourcePath": "/home/adji/Desktop/work/coinfabrik/moc-oraculos/contracts/change/SupportersPeriodChange.sol",
    "compiler": {
        "name": "solc",
        "version": "0.6.12+commit.27d51765.Emscripten.clang"
    },
    "schemaVersion": "3.2.4",
    "updatedAt": "2020-09-15T18:51:47.150Z",
    "devdoc": {
        "kind": "dev",
        "methods": {
            "changeIGovernor(address)": {
                "params": {
                    "newIGovernor": "New governor address"
                }
            },
            "constructor": {
                "params": {
                    "_period": "The length of the round in blocks",
                    "_supporters": "Address of supporters whitelisted contract to upgrade"
                }
            },
            "delegateCallToChanger(bytes)": {
                "params": {
                    "data": "the serialized function arguments"
                }
            },
            "execute()": {
                "details": "Should be called by the governor, but this contract does not check that explicitly because it is not its responsability in the current architecture"
            }
        },
        "title": "SupportersPeriodChange",
        "version": 1
    },
    "userdoc": {
        "kind": "user",
        "methods": {
            "changeIGovernor(address)": {
                "notice": "Change the contract's governor. Should be called through the old governance system"
            },
            "constructor": "Constructor",
            "delegateCallToChanger(bytes)": {
                "notice": "This method is used by a change contract to access the storage freely even without a setter."
            },
            "execute()": {
                "notice": "Execute the changes."
            },
            "governor()": {
                "notice": "The address of the contract which governs this one"
            },
            "impersonate(bytes)": {
                "notice": "Called by the Governed contract delegateCallToChanger method This methods runs in the Governed contract storage."
            }
        },
        "notice": "This contract is a ChangeContract intended to be used to change the Supporters contract parameter period",
        "version": 1
    }
}