{
  "contractName": "Supporters",
  "abi": [
    {
      "anonymous": false,
      "inputs": [
        {
          "indexed": true,
          "internalType": "address",
          "name": "user",
          "type": "address"
        },
        {
          "indexed": true,
          "internalType": "address",
          "name": "subaccount",
          "type": "address"
        },
        {
          "indexed": true,
          "internalType": "address",
          "name": "sender",
          "type": "address"
        },
        {
          "indexed": false,
          "internalType": "uint256",
          "name": "amount",
          "type": "uint256"
        },
        {
          "indexed": false,
          "internalType": "uint256",
          "name": "mocs",
          "type": "uint256"
        }
      ],
      "name": "AddStake",
      "type": "event"
    },
    {
      "anonymous": false,
      "inputs": [
        {
          "indexed": false,
          "internalType": "uint256",
          "name": "earnings",
          "type": "uint256"
        },
        {
          "indexed": false,
          "internalType": "uint256",
          "name": "start",
          "type": "uint256"
        },
        {
          "indexed": false,
          "internalType": "uint256",
          "name": "end",
          "type": "uint256"
        }
      ],
      "name": "CancelEarnings",
      "type": "event"
    },
    {
      "anonymous": false,
      "inputs": [
        {
          "indexed": false,
          "internalType": "uint256",
          "name": "earnings",
          "type": "uint256"
        },
        {
          "indexed": false,
          "internalType": "uint256",
          "name": "start",
          "type": "uint256"
        },
        {
          "indexed": false,
          "internalType": "uint256",
          "name": "end",
          "type": "uint256"
        }
      ],
      "name": "PayEarnings",
      "type": "event"
    },
    {
      "anonymous": false,
      "inputs": [
        {
          "indexed": true,
          "internalType": "address",
          "name": "msg_sender",
          "type": "address"
        },
        {
          "indexed": true,
          "internalType": "address",
          "name": "subacount",
          "type": "address"
        },
        {
          "indexed": true,
          "internalType": "address",
          "name": "receiver",
          "type": "address"
        },
        {
          "indexed": false,
          "internalType": "uint256",
          "name": "mocs",
          "type": "uint256"
        },
        {
          "indexed": false,
          "internalType": "uint256",
          "name": "blockNum",
          "type": "uint256"
        }
      ],
      "name": "Withdraw",
      "type": "event"
    },
    {
      "anonymous": false,
      "inputs": [
        {
          "indexed": true,
          "internalType": "address",
          "name": "user",
          "type": "address"
        },
        {
          "indexed": true,
          "internalType": "address",
          "name": "subaccount",
          "type": "address"
        },
        {
          "indexed": true,
          "internalType": "address",
          "name": "destination",
          "type": "address"
        },
        {
          "indexed": false,
          "internalType": "uint256",
          "name": "amount",
          "type": "uint256"
        },
        {
          "indexed": false,
          "internalType": "uint256",
          "name": "mocs",
          "type": "uint256"
        }
      ],
      "name": "WithdrawStake",
      "type": "event"
    },
    {
      "inputs": [
        {
          "internalType": "contract IGovernor",
          "name": "newIGovernor",
          "type": "address"
        }
      ],
      "name": "changeIGovernor",
      "outputs": [],
      "stateMutability": "nonpayable",
      "type": "function"
    },
    {
      "inputs": [
        {
          "internalType": "bytes",
          "name": "data",
          "type": "bytes"
        }
      ],
      "name": "delegateCallToChanger",
      "outputs": [],
      "stateMutability": "nonpayable",
      "type": "function"
    },
    {
      "inputs": [],
      "name": "governor",
      "outputs": [
        {
          "internalType": "contract IGovernor",
          "name": "",
          "type": "address"
        }
      ],
      "stateMutability": "view",
      "type": "function"
    },
    {
      "inputs": [
        {
          "internalType": "contract IGovernor",
          "name": "_governor",
          "type": "address"
        },
        {
          "internalType": "address[]",
          "name": "_wlist",
          "type": "address[]"
        },
        {
          "internalType": "contract IERC20",
          "name": "_mocToken",
          "type": "address"
        },
        {
          "internalType": "uint256",
          "name": "_period",
          "type": "uint256"
        }
      ],
      "name": "initialize",
      "outputs": [],
      "stateMutability": "nonpayable",
      "type": "function"
    },
    {
      "inputs": [
        {
          "internalType": "address",
          "name": "mocHolder",
          "type": "address"
        },
        {
          "internalType": "uint256",
          "name": "untilTimestamp",
          "type": "uint256"
        }
      ],
      "name": "lockMocs",
      "outputs": [],
      "stateMutability": "nonpayable",
      "type": "function"
    },
    {
      "inputs": [
        {
          "internalType": "address",
          "name": "user",
          "type": "address"
        }
      ],
      "name": "getLockedBalance",
      "outputs": [
        {
          "internalType": "uint256",
          "name": "",
          "type": "uint256"
        }
      ],
      "stateMutability": "view",
      "type": "function"
    },
    {
      "inputs": [
        {
          "internalType": "address",
          "name": "_whitelisted",
          "type": "address"
        }
      ],
      "name": "addToWhitelist",
      "outputs": [],
      "stateMutability": "nonpayable",
      "type": "function"
    },
    {
      "inputs": [
        {
          "internalType": "address",
          "name": "_whitelisted",
          "type": "address"
        }
      ],
      "name": "removeFromWhitelist",
      "outputs": [],
      "stateMutability": "nonpayable",
      "type": "function"
    },
    {
      "inputs": [],
      "name": "distribute",
      "outputs": [],
      "stateMutability": "nonpayable",
      "type": "function"
    },
    {
      "inputs": [],
      "name": "isReadyToDistribute",
      "outputs": [
        {
          "internalType": "bool",
          "name": "",
          "type": "bool"
        }
      ],
      "stateMutability": "view",
      "type": "function"
    },
    {
      "inputs": [
        {
          "internalType": "uint256",
          "name": "_mocs",
          "type": "uint256"
        },
        {
          "internalType": "address",
          "name": "_subaccount",
          "type": "address"
        }
      ],
      "name": "stakeAt",
      "outputs": [],
      "stateMutability": "nonpayable",
      "type": "function"
    },
    {
      "inputs": [
        {
          "internalType": "uint256",
          "name": "_mocs",
          "type": "uint256"
        },
        {
          "internalType": "address",
          "name": "_subaccount",
          "type": "address"
        },
        {
          "internalType": "address",
          "name": "_sender",
          "type": "address"
        }
      ],
      "name": "stakeAtFrom",
      "outputs": [],
      "stateMutability": "nonpayable",
      "type": "function"
    },
    {
      "inputs": [
        {
          "internalType": "uint256",
          "name": "_tokens",
          "type": "uint256"
        },
        {
          "internalType": "address",
          "name": "_subaccount",
          "type": "address"
        }
      ],
      "name": "withdrawFrom",
      "outputs": [
        {
          "internalType": "uint256",
          "name": "",
          "type": "uint256"
        }
      ],
      "stateMutability": "nonpayable",
      "type": "function"
    },
    {
      "inputs": [
        {
          "internalType": "uint256",
          "name": "_tokens",
          "type": "uint256"
        },
        {
          "internalType": "address",
          "name": "_subaccount",
          "type": "address"
        },
        {
          "internalType": "address",
          "name": "_receiver",
          "type": "address"
        }
      ],
      "name": "withdrawFromTo",
      "outputs": [
        {
          "internalType": "uint256",
          "name": "",
          "type": "uint256"
        }
      ],
      "stateMutability": "nonpayable",
      "type": "function"
    },
    {
      "inputs": [
        {
          "internalType": "address",
          "name": "_user",
          "type": "address"
        },
        {
          "internalType": "address",
          "name": "_subaccount",
          "type": "address"
        }
      ],
      "name": "getBalanceAt",
      "outputs": [
        {
          "internalType": "uint256",
          "name": "",
          "type": "uint256"
        }
      ],
      "stateMutability": "view",
      "type": "function"
    },
    {
      "inputs": [
        {
          "internalType": "address",
          "name": "_user",
          "type": "address"
        },
        {
          "internalType": "address",
          "name": "_subaccount",
          "type": "address"
        }
      ],
      "name": "getMOCBalanceAt",
      "outputs": [
        {
          "internalType": "uint256",
          "name": "",
          "type": "uint256"
        }
      ],
      "stateMutability": "view",
      "type": "function"
    },
    {
      "inputs": [],
      "name": "getTokens",
      "outputs": [
        {
          "internalType": "uint256",
          "name": "",
          "type": "uint256"
        }
      ],
      "stateMutability": "view",
      "type": "function"
    },
    {
      "inputs": [],
      "name": "getAvailableMOC",
      "outputs": [
        {
          "internalType": "uint256",
          "name": "",
          "type": "uint256"
        }
      ],
      "stateMutability": "view",
      "type": "function"
    },
    {
      "inputs": [
        {
          "internalType": "uint256",
          "name": "_block",
          "type": "uint256"
        }
      ],
      "name": "getEarningsAt",
      "outputs": [
        {
          "internalType": "uint256",
          "name": "",
          "type": "uint256"
        }
      ],
      "stateMutability": "view",
      "type": "function"
    },
    {
      "inputs": [
        {
          "internalType": "uint256",
          "name": "_block",
          "type": "uint256"
        }
      ],
      "name": "getLockedAt",
      "outputs": [
        {
          "internalType": "uint256",
          "name": "",
          "type": "uint256"
        }
      ],
      "stateMutability": "view",
      "type": "function"
    },
    {
      "inputs": [],
      "name": "getEarningsInfo",
      "outputs": [
        {
          "internalType": "uint256",
          "name": "",
          "type": "uint256"
        },
        {
          "internalType": "uint256",
          "name": "",
          "type": "uint256"
        },
        {
          "internalType": "uint256",
          "name": "",
          "type": "uint256"
        }
      ],
      "stateMutability": "view",
      "type": "function"
    },
    {
      "inputs": [],
      "name": "mocToken",
      "outputs": [
        {
          "internalType": "contract IERC20",
          "name": "",
          "type": "address"
        }
      ],
      "stateMutability": "view",
      "type": "function"
    },
    {
      "inputs": [],
      "name": "period",
      "outputs": [
        {
          "internalType": "uint256",
          "name": "",
          "type": "uint256"
        }
      ],
      "stateMutability": "view",
      "type": "function"
    },
    {
      "inputs": [],
      "name": "getWhiteListLen",
      "outputs": [
        {
          "internalType": "uint256",
          "name": "",
          "type": "uint256"
        }
      ],
      "stateMutability": "view",
      "type": "function"
    },
    {
      "inputs": [
        {
          "internalType": "uint256",
          "name": "_idx",
          "type": "uint256"
        }
      ],
      "name": "getWhiteListAtIndex",
      "outputs": [
        {
          "internalType": "address",
          "name": "",
          "type": "address"
        }
      ],
      "stateMutability": "view",
      "type": "function"
    },
    {
      "inputs": [
        {
          "internalType": "address",
          "name": "_account",
          "type": "address"
        }
      ],
      "name": "isWhitelisted",
      "outputs": [
        {
          "internalType": "bool",
          "name": "",
          "type": "bool"
        }
      ],
      "stateMutability": "view",
      "type": "function"
    },
    {
      "inputs": [
        {
          "internalType": "uint256",
          "name": "_mocs",
          "type": "uint256"
        }
      ],
      "name": "mocToToken",
      "outputs": [
        {
          "internalType": "uint256",
          "name": "",
          "type": "uint256"
        }
      ],
      "stateMutability": "view",
      "type": "function"
    },
    {
      "inputs": [
        {
          "internalType": "uint256",
          "name": "_token",
          "type": "uint256"
        }
      ],
      "name": "tokenToMoc",
      "outputs": [
        {
          "internalType": "uint256",
          "name": "",
          "type": "uint256"
        }
      ],
      "stateMutability": "view",
      "type": "function"
    },
    {
      "inputs": [],
      "name": "totalMoc",
      "outputs": [
        {
          "internalType": "uint256",
          "name": "",
          "type": "uint256"
        }
      ],
      "stateMutability": "view",
      "type": "function"
    },
    {
      "inputs": [],
      "name": "totalToken",
      "outputs": [
        {
          "internalType": "uint256",
          "name": "",
          "type": "uint256"
        }
      ],
      "stateMutability": "view",
      "type": "function"
    },
    {
      "inputs": [
        {
          "internalType": "address",
          "name": "owner",
          "type": "address"
        },
        {
          "internalType": "address[]",
          "name": "addresses",
          "type": "address[]"
        }
      ],
      "name": "getMaxMOCBalance",
      "outputs": [
        {
          "internalType": "address",
          "name": "selected",
          "type": "address"
        },
        {
          "internalType": "uint256",
          "name": "maxBalance",
          "type": "uint256"
        }
      ],
      "stateMutability": "view",
      "type": "function"
    }
  ],
  "bytecode": "0x608060405234801561001057600080fd5b5061376b806100206000396000f3fe608060405234801561001057600080fd5b50600436106101e55760003560e01c80638ab1d6811161010f578063d41ecc5a116100a2578063e43252d711610071578063e43252d714610a70578063e4fc6b6d14610ab4578063e8ecd6cc14610abe578063ef78d4fd14610b00576101e5565b8063d41ecc5a14610949578063d602ac681461098b578063db1bfafa146109d9578063dc8990e1146109f7576101e5565b8063b25147e3116100de578063b25147e314610817578063b6e083301461088f578063c4086893146108d3578063cb0706f91461092b576101e5565b80638ab1d68114610711578063903eaca314610755578063aa6ca80814610797578063b1cbf888146107b5576101e5565b80633af32abf11610187578063626be56711610156578063626be5671461060357806372015d1a146106215780637c5e5db01461065557806383880696146106a3576101e5565b80633af32abf146104255780633b2b97851461047f5780634e3760fb146104f75780635423cd4914610539576101e5565b80630c340a24116101c35780630c340a241461034f5780631a3d00c0146103835780632ff2ae53146103db578063385976b8146103f9576101e5565b80630480a2e4146101ea578063094180811461020a5780630af496901461028c575b600080fd5b6101f2610b1e565b60405180821515815260200191505060405180910390f35b6102766004803603606081101561022057600080fd5b8101908080359060200190929190803573ffffffffffffffffffffffffffffffffffffffff169060200190929190803573ffffffffffffffffffffffffffffffffffffffff169060200190929190505050610b2f565b6040518082815260200191505060405180910390f35b61034d600480360360808110156102a257600080fd5b81019080803573ffffffffffffffffffffffffffffffffffffffff169060200190929190803590602001906401000000008111156102df57600080fd5b8201836020820111156102f157600080fd5b8035906020019184602083028401116401000000008311171561031357600080fd5b9091929391929390803573ffffffffffffffffffffffffffffffffffffffff16906020019092919080359060200190929190505050610cc6565b005b610357610e40565b604051808273ffffffffffffffffffffffffffffffffffffffff16815260200191505060405180910390f35b6103af6004803603602081101561039957600080fd5b8101908080359060200190929190505050610e66565b604051808273ffffffffffffffffffffffffffffffffffffffff16815260200191505060405180910390f35b6103e3610e83565b6040518082815260200191505060405180910390f35b610401610e94565b60405180848152602001838152602001828152602001935050505060405180910390f35b6104676004803603602081101561043b57600080fd5b81019080803573ffffffffffffffffffffffffffffffffffffffff169060200190929190505050610eae565b60405180821515815260200191505060405180910390f35b6104e16004803603604081101561049557600080fd5b81019080803573ffffffffffffffffffffffffffffffffffffffff169060200190929190803573ffffffffffffffffffffffffffffffffffffffff169060200190929190505050610ecb565b6040518082815260200191505060405180910390f35b6105236004803603602081101561050d57600080fd5b8101908080359060200190929190505050610eeb565b6040518082815260200191505060405180910390f35b6105d06004803603604081101561054f57600080fd5b81019080803573ffffffffffffffffffffffffffffffffffffffff1690602001909291908035906020019064010000000081111561058c57600080fd5b82018360208201111561059e57600080fd5b803590602001918460208302840111640100000000831117156105c057600080fd5b9091929391929390505050610f08565b604051808373ffffffffffffffffffffffffffffffffffffffff1681526020018281526020019250505060405180910390f35b61060b61108d565b6040518082815260200191505060405180910390f35b61062961109e565b604051808273ffffffffffffffffffffffffffffffffffffffff16815260200191505060405180910390f35b6106a16004803603604081101561066b57600080fd5b8101908080359060200190929190803573ffffffffffffffffffffffffffffffffffffffff1690602001909291905050506110cb565b005b61070f600480360360608110156106b957600080fd5b8101908080359060200190929190803573ffffffffffffffffffffffffffffffffffffffff169060200190929190803573ffffffffffffffffffffffffffffffffffffffff169060200190929190505050611166565b005b6107536004803603602081101561072757600080fd5b81019080803573ffffffffffffffffffffffffffffffffffffffff169060200190929190505050611202565b005b6107816004803603602081101561076b57600080fd5b81019080803590602001909291905050506113ba565b6040518082815260200191505060405180910390f35b61079f6113d7565b6040518082815260200191505060405180910390f35b610801600480360360408110156107cb57600080fd5b8101908080359060200190929190803573ffffffffffffffffffffffffffffffffffffffff1690602001909291905050506113e8565b6040518082815260200191505060405180910390f35b6108796004803603604081101561082d57600080fd5b81019080803573ffffffffffffffffffffffffffffffffffffffff169060200190929190803573ffffffffffffffffffffffffffffffffffffffff16906020019092919050505061157e565b6040518082815260200191505060405180910390f35b6108d1600480360360208110156108a557600080fd5b81019080803573ffffffffffffffffffffffffffffffffffffffff16906020019092919050505061159e565b005b610915600480360360208110156108e957600080fd5b81019080803573ffffffffffffffffffffffffffffffffffffffff169060200190929190505050611783565b6040518082815260200191505060405180910390f35b6109336117d4565b6040518082815260200191505060405180910390f35b6109756004803603602081101561095f57600080fd5b81019080803590602001909291905050506117e5565b6040518082815260200191505060405180910390f35b6109d7600480360360408110156109a157600080fd5b81019080803573ffffffffffffffffffffffffffffffffffffffff16906020019092919080359060200190929190505050611802565b005b6109e16118f6565b6040518082815260200191505060405180910390f35b610a6e60048036036020811015610a0d57600080fd5b8101908080359060200190640100000000811115610a2a57600080fd5b820183602082011115610a3c57600080fd5b80359060200191846001830284011164010000000083111715610a5e57600080fd5b9091929391929390505050611907565b005b610ab260048036036020811015610a8657600080fd5b81019080803573ffffffffffffffffffffffffffffffffffffffff169060200190929190505050611c95565b005b610abc611e4d565b005b610aea60048036036020811015610ad457600080fd5b8101908080359060200190929190505050611e59565b6040518082815260200191505060405180910390f35b610b08611e76565b6040518082815260200191505060405180910390f35b6000610b2a6068611e83565b905090565b60006066610b3d8133611ea2565b610baf576040517f08c379a000000000000000000000000000000000000000000000000000000000815260040180806020018281038252601a8152602001807f41646472657373206973206e6f742077686974656c697374656400000000000081525060200191505060405180910390fd5b338486600080610bc9836068611f6490919063ffffffff16565b9050600060a260008673ffffffffffffffffffffffffffffffffffffffff1673ffffffffffffffffffffffffffffffffffffffff16815260200190815260200160002090506000610c2687876068611fc39092919063ffffffff16565b90508160000154421015610c3c57816001015493505b6000848203905080841115610c9c576040517f08c379a00000000000000000000000000000000000000000000000000000000081526004018080602001828103825260238152602001806137136023913960400191505060405180910390fd5b610cb48d8d8d6068612056909392919063ffffffff16565b99505050505050505050509392505050565b600060019054906101000a900460ff1680610ce55750610ce4612279565b5b80610cfb575060008054906101000a900460ff16155b610d50576040517f08c379a000000000000000000000000000000000000000000000000000000000815260040180806020018281038252602e8152602001806136e5602e913960400191505060405180910390fd5b60008060019054906101000a900460ff161590508015610da0576001600060016101000a81548160ff02191690831515021790555060016000806101000a81548160ff0219169083151502179055505b610da986612290565b610dbf838360686122d49092919063ffffffff16565b60005b85859050811015610e1657610e09868683818110610ddc57fe5b9050602002013573ffffffffffffffffffffffffffffffffffffffff16606661232590919063ffffffff16565b8080600101915050610dc2565b508015610e385760008060016101000a81548160ff0219169083151502179055505b505050505050565b603360009054906101000a900473ffffffffffffffffffffffffffffffffffffffff1681565b6000610e7c82606661245a90919063ffffffff16565b9050919050565b6000610e8f606861247a565b905090565b6000806000610ea360686124a3565b925092509250909192565b6000610ec4826066611ea290919063ffffffff16565b9050919050565b6000610ee3838360686125ab9092919063ffffffff16565b905092915050565b6000610f0182606861263590919063ffffffff16565b9050919050565b6000806000848490501415610f1c57611085565b83836000818110610f2957fe5b9050602002013573ffffffffffffffffffffffffffffffffffffffff169150610f878585856000818110610f5957fe5b9050602002013573ffffffffffffffffffffffffffffffffffffffff166068611fc39092919063ffffffff16565b90506000600190505b8484905081101561108357600073ffffffffffffffffffffffffffffffffffffffff16858583818110610fbf57fe5b9050602002013573ffffffffffffffffffffffffffffffffffffffff1673ffffffffffffffffffffffffffffffffffffffff161415610ffd57611078565b600061103d8787878581811061100f57fe5b9050602002013573ffffffffffffffffffffffffffffffffffffffff166068611fc39092919063ffffffff16565b9050828111156110765780925085858381811061105657fe5b9050602002013573ffffffffffffffffffffffffffffffffffffffff1693505b505b600181019050610f90565b505b935093915050565b600061109960686126db565b905090565b6000606860070160009054906101000a900473ffffffffffffffffffffffffffffffffffffffff16905090565b60666110d78133611ea2565b611149576040517f08c379a000000000000000000000000000000000000000000000000000000000815260040180806020018281038252601a8152602001807f41646472657373206973206e6f742077686974656c697374656400000000000081525060200191505060405180910390fd5b61116183833360686126e9909392919063ffffffff16565b505050565b60666111728133611ea2565b6111e4576040517f08c379a000000000000000000000000000000000000000000000000000000000815260040180806020018281038252601a8152602001807f41646472657373206973206e6f742077686974656c697374656400000000000081525060200191505060405180910390fd5b6111fc84848460686126e9909392919063ffffffff16565b50505050565b603360009054906101000a900473ffffffffffffffffffffffffffffffffffffffff1673ffffffffffffffffffffffffffffffffffffffff1663d994d6d5336040518263ffffffff1660e01b8152600401808273ffffffffffffffffffffffffffffffffffffffff16815260200191505060206040518083038186803b15801561128b57600080fd5b505afa15801561129f573d6000803e3d6000fd5b505050506040513d60208110156112b557600080fd5b81019080805190602001909291905050506040518060400160405280601681526020017f6e6f745f617574686f72697a65645f6368616e67657200000000000000000000815250906113a2576040517f08c379a00000000000000000000000000000000000000000000000000000000081526004018080602001828103825283818151815260200191508051906020019080838360005b8381101561136757808201518184015260208101905061134c565b50505050905090810190601f1680156113945780820380516001836020036101000a031916815260200191505b509250505060405180910390fd5b506113b781606661290d90919063ffffffff16565b50565b60006113d0826068611f6490919063ffffffff16565b9050919050565b60006113e360686126db565b905090565b600060666113f68133611ea2565b611468576040517f08c379a000000000000000000000000000000000000000000000000000000000815260040180806020018281038252601a8152602001807f41646472657373206973206e6f742077686974656c697374656400000000000081525060200191505060405180910390fd5b338385600080611482836068611f6490919063ffffffff16565b9050600060a260008673ffffffffffffffffffffffffffffffffffffffff1673ffffffffffffffffffffffffffffffffffffffff168152602001908152602001600020905060006114df87876068611fc39092919063ffffffff16565b905081600001544210156114f557816001015493505b6000848203905080841115611555576040517f08c379a00000000000000000000000000000000000000000000000000000000081526004018080602001828103825260238152602001806137136023913960400191505060405180910390fd5b61156d8c8c336068612056909392919063ffffffff16565b995050505050505050505092915050565b600061159683836068611fc39092919063ffffffff16565b905092915050565b603360009054906101000a900473ffffffffffffffffffffffffffffffffffffffff1673ffffffffffffffffffffffffffffffffffffffff1663d994d6d5336040518263ffffffff1660e01b8152600401808273ffffffffffffffffffffffffffffffffffffffff16815260200191505060206040518083038186803b15801561162757600080fd5b505afa15801561163b573d6000803e3d6000fd5b505050506040513d602081101561165157600080fd5b81019080805190602001909291905050506040518060400160405280601681526020017f6e6f745f617574686f72697a65645f6368616e676572000000000000000000008152509061173e576040517f08c379a00000000000000000000000000000000000000000000000000000000081526004018080602001828103825283818151815260200191508051906020019080838360005b838110156117035780820151818401526020810190506116e8565b50505050905090810190601f1680156117305780820380516001836020036101000a031916815260200191505b509250505060405180910390fd5b5080603360006101000a81548173ffffffffffffffffffffffffffffffffffffffff021916908373ffffffffffffffffffffffffffffffffffffffff16021790555050565b60008060a260008473ffffffffffffffffffffffffffffffffffffffff1673ffffffffffffffffffffffffffffffffffffffff16815260200190815260200160002090508060010154915050919050565b60006117e06066612a42565b905090565b60006117fb826068612a5790919063ffffffff16565b9050919050565b606661180e8133611ea2565b611880576040517f08c379a000000000000000000000000000000000000000000000000000000000815260040180806020018281038252601a8152602001807f41646472657373206973206e6f742077686974656c697374656400000000000081525060200191505060405180910390fd5b600060a260008573ffffffffffffffffffffffffffffffffffffffff1673ffffffffffffffffffffffffffffffffffffffff168152602001908152602001600020905082816000018190555060006118e433866068611fc39092919063ffffffff16565b90508082600101819055505050505050565b6000611902606861247a565b905090565b603360009054906101000a900473ffffffffffffffffffffffffffffffffffffffff1673ffffffffffffffffffffffffffffffffffffffff1663d994d6d5336040518263ffffffff1660e01b8152600401808273ffffffffffffffffffffffffffffffffffffffff16815260200191505060206040518083038186803b15801561199057600080fd5b505afa1580156119a4573d6000803e3d6000fd5b505050506040513d60208110156119ba57600080fd5b81019080805190602001909291905050506040518060400160405280601681526020017f6e6f745f617574686f72697a65645f6368616e6765720000000000000000000081525090611aa7576040517f08c379a00000000000000000000000000000000000000000000000000000000081526004018080602001828103825283818151815260200191508051906020019080838360005b83811015611a6c578082015181840152602081019050611a51565b50505050905090810190601f168015611a995780820380516001836020036101000a031916815260200191505b509250505060405180910390fd5b50600033905060008173ffffffffffffffffffffffffffffffffffffffff16848460405160240180806020018281038252848482818152602001925080828437600081840152601f19601f82011690508083019250505093505050506040516020818303038152906040527fa16227ca000000000000000000000000000000000000000000000000000000007bffffffffffffffffffffffffffffffffffffffffffffffffffffffff19166020820180517bffffffffffffffffffffffffffffffffffffffffffffffffffffffff83818316178352505050506040518082805190602001908083835b60208310611bb35780518252602082019150602081019050602083039250611b90565b6001836020036101000a038019825116818451168082178552505050505050905001915050600060405180830381855af49150503d8060008114611c13576040519150601f19603f3d011682016040523d82523d6000602084013e611c18565b606091505b5050905080611c8f576040517f08c379a00000000000000000000000000000000000000000000000000000000081526004018080602001828103825260168152602001807f4572726f7220696e2064656c65676174652063616c6c0000000000000000000081525060200191505060405180910390fd5b50505050565b603360009054906101000a900473ffffffffffffffffffffffffffffffffffffffff1673ffffffffffffffffffffffffffffffffffffffff1663d994d6d5336040518263ffffffff1660e01b8152600401808273ffffffffffffffffffffffffffffffffffffffff16815260200191505060206040518083038186803b158015611d1e57600080fd5b505afa158015611d32573d6000803e3d6000fd5b505050506040513d6020811015611d4857600080fd5b81019080805190602001909291905050506040518060400160405280601681526020017f6e6f745f617574686f72697a65645f6368616e6765720000000000000000000081525090611e35576040517f08c379a00000000000000000000000000000000000000000000000000000000081526004018080602001828103825283818151815260200191508051906020019080838360005b83811015611dfa578082015181840152602081019050611ddf565b50505050905090810190601f168015611e275780820380516001836020036101000a031916815260200191505b509250505060405180910390fd5b50611e4a81606661232590919063ffffffff16565b50565b611e576068612a81565b565b6000611e6f826068612c7190919063ffffffff16565b9050919050565b6000606860060154905090565b6000808260010154118015611e9b5750816004015443115b9050919050565b60008073ffffffffffffffffffffffffffffffffffffffff168273ffffffffffffffffffffffffffffffffffffffff161415611f46576040517f08c379a00000000000000000000000000000000000000000000000000000000081526004018080602001828103825260178152602001807f4163636f756e74206d757374206e6f742062652030783000000000000000000081525060200191505060405180910390fd5b611f5c8284600001612cdb90919063ffffffff16565b905092915050565b600080611f70846126db565b90506000611f7d8561247a565b90506000811415611f9357600092505050611fbd565b611fb882611faa8387612d2a90919063ffffffff16565b612db090919063ffffffff16565b925050505b92915050565b600061204d848560000160008673ffffffffffffffffffffffffffffffffffffffff1673ffffffffffffffffffffffffffffffffffffffff16815260200190815260200160002060008573ffffffffffffffffffffffffffffffffffffffff1673ffffffffffffffffffffffffffffffffffffffff16815260200190815260200160002054611f64565b90509392505050565b6000806120638686611f64565b905061207186338787612dfa565b612088818760020154612f3290919063ffffffff16565b86600201819055508560070160009054906101000a900473ffffffffffffffffffffffffffffffffffffffff1673ffffffffffffffffffffffffffffffffffffffff1663a9059cbb84836040518363ffffffff1660e01b8152600401808373ffffffffffffffffffffffffffffffffffffffff16815260200182815260200192505050602060405180830381600087803b15801561212557600080fd5b505af1158015612139573d6000803e3d6000fd5b505050506040513d602081101561214f57600080fd5b81019080805190602001909291905050506121d2576040517f08c379a00000000000000000000000000000000000000000000000000000000081526004018080602001828103825260118152602001807f6572726f7220696e207472616e7366657200000000000000000000000000000081525060200191505060405180910390fd5b6000866001015414156121e9576121e886612f7c565b5b8273ffffffffffffffffffffffffffffffffffffffff168473ffffffffffffffffffffffffffffffffffffffff163373ffffffffffffffffffffffffffffffffffffffff167f592e508b7bcb8f340f4235dc972f0eed3fb8ceec1522f7dc664c0ec3d70ccd158885604051808381526020018281526020019250505060405180910390a480915050949350505050565b6000803090506000813b9050600081149250505090565b80603360006101000a81548173ffffffffffffffffffffffffffffffffffffffff021916908373ffffffffffffffffffffffffffffffffffffffff16021790555050565b818360070160006101000a81548173ffffffffffffffffffffffffffffffffffffffff021916908373ffffffffffffffffffffffffffffffffffffffff160217905550808360060181905550505050565b600073ffffffffffffffffffffffffffffffffffffffff168173ffffffffffffffffffffffffffffffffffffffff1614156123c8576040517f08c379a00000000000000000000000000000000000000000000000000000000081526004018080602001828103825260178152602001807f4163636f756e74206d757374206e6f742062652030783000000000000000000081525060200191505060405180910390fd5b60006123e08284600001612fec90919063ffffffff16565b905080612455576040517f08c379a000000000000000000000000000000000000000000000000000000000815260040180806020018281038252601b8152602001807f4163636f756e7420616c72656164792077686974656c6973746564000000000081525060200191505060405180910390fd5b505050565b600061247282846000016130c290919063ffffffff16565b905092915050565b600061249c6124898343612a57565b8360020154612f3290919063ffffffff16565b9050919050565b60008060008061258585600201548660070160009054906101000a900473ffffffffffffffffffffffffffffffffffffffff1673ffffffffffffffffffffffffffffffffffffffff166370a08231306040518263ffffffff1660e01b8152600401808273ffffffffffffffffffffffffffffffffffffffff16815260200191505060206040518083038186803b15801561253c57600080fd5b505afa158015612550573d6000803e3d6000fd5b505050506040513d602081101561256657600080fd5b8101908080519060200190929190505050612f3290919063ffffffff16565b905060006125938643612635565b90508560050154818394509450945050509193909250565b60008360000160008473ffffffffffffffffffffffffffffffffffffffff1673ffffffffffffffffffffffffffffffffffffffff16815260200190815260200160002060008373ffffffffffffffffffffffffffffffffffffffff1673ffffffffffffffffffffffffffffffffffffffff1681526020019081526020016000205490509392505050565b6000808360050154141561264c57600090506126d5565b826003015482101561266157600090506126d5565b826004015482111561267957826005015490506126d5565b6126d261269784600301548560040154612f3290919063ffffffff16565b6126c46126b1866003015486612f3290919063ffffffff16565b8660050154612d2a90919063ffffffff16565b612db090919063ffffffff16565b90505b92915050565b600081600101549050919050565b60006126f58585612c71565b905061270e84866002015461316590919063ffffffff16565b85600201819055508460070160009054906101000a900473ffffffffffffffffffffffffffffffffffffffff1673ffffffffffffffffffffffffffffffffffffffff166323b872dd8330876040518463ffffffff1660e01b8152600401808473ffffffffffffffffffffffffffffffffffffffff1681526020018373ffffffffffffffffffffffffffffffffffffffff1681526020018281526020019350505050602060405180830381600087803b1580156127c957600080fd5b505af11580156127dd573d6000803e3d6000fd5b505050506040513d60208110156127f357600080fd5b8101908080519060200190929190505050612876576040517f08c379a00000000000000000000000000000000000000000000000000000000081526004018080602001828103825260168152602001807f6572726f7220696e207472616e736665722066726f6d0000000000000000000081525060200191505060405180910390fd5b612882853383866131ed565b8173ffffffffffffffffffffffffffffffffffffffff168373ffffffffffffffffffffffffffffffffffffffff163373ffffffffffffffffffffffffffffffffffffffff167f3be9ba9d4cf811f0b3ae373b3afca68bd248152e6ab6090207e86237963411b08488604051808381526020018281526020019250505060405180910390a45050505050565b600073ffffffffffffffffffffffffffffffffffffffff168173ffffffffffffffffffffffffffffffffffffffff1614156129b0576040517f08c379a00000000000000000000000000000000000000000000000000000000081526004018080602001828103825260178152602001807f4163636f756e74206d757374206e6f742062652030783000000000000000000081525060200191505060405180910390fd5b60006129c8828460000161332590919063ffffffff16565b905080612a3d576040517f08c379a000000000000000000000000000000000000000000000000000000000815260040180806020018281038252600f8152602001807f4d697373696e67206163636f756e74000000000000000000000000000000000081525060200191505060405180910390fd5b505050565b6000612a508260000161350a565b9050919050565b6000612a79612a668484612635565b8460050154612f3290919063ffffffff16565b905092915050565b612a8a81611e83565b612afc576040517f08c379a00000000000000000000000000000000000000000000000000000000081526004018080602001828103825260178152602001807f4e6f7420726561647920746f206469737472696275746500000000000000000081525060200191505060405180910390fd5b60008160070160009054906101000a900473ffffffffffffffffffffffffffffffffffffffff1673ffffffffffffffffffffffffffffffffffffffff166370a08231306040518263ffffffff1660e01b8152600401808273ffffffffffffffffffffffffffffffffffffffff16815260200191505060206040518083038186803b158015612b8957600080fd5b505afa158015612b9d573d6000803e3d6000fd5b505050506040513d6020811015612bb357600080fd5b81019080805190602001909291905050509050612bdd826002015482612f3290919063ffffffff16565b8260050181905550438260030181905550612c098260060154836003015461316590919063ffffffff16565b82600401819055508082600201819055507fae0d41d081163df90cb6fb9635dcfd40447a96402d60e1503b6aca171fc8493782600501548360030154846004015460405180848152602001838152602001828152602001935050505060405180910390a15050565b600080612c7d8461247a565b90506000612c8a856126db565b9050600082148015612c9c5750600081145b15612cab578392505050612cd5565b612cd082612cc28387612d2a90919063ffffffff16565b612db090919063ffffffff16565b925050505b92915050565b6000808360010160008473ffffffffffffffffffffffffffffffffffffffff1673ffffffffffffffffffffffffffffffffffffffff168152602001908152602001600020541415905092915050565b600080831415612d3d5760009050612daa565b6000828402905082848281612d4e57fe5b0414612da5576040517f08c379a00000000000000000000000000000000000000000000000000000000081526004018080602001828103825260218152602001806136c46021913960400191505060405180910390fd5b809150505b92915050565b6000612df283836040518060400160405280601a81526020017f536166654d6174683a206469766973696f6e206279207a65726f00000000000081525061351b565b905092915050565b612e8b828560000160008673ffffffffffffffffffffffffffffffffffffffff1673ffffffffffffffffffffffffffffffffffffffff16815260200190815260200160002060008473ffffffffffffffffffffffffffffffffffffffff1673ffffffffffffffffffffffffffffffffffffffff16815260200190815260200160002054612f3290919063ffffffff16565b8460000160008573ffffffffffffffffffffffffffffffffffffffff1673ffffffffffffffffffffffffffffffffffffffff16815260200190815260200160002060008373ffffffffffffffffffffffffffffffffffffffff1673ffffffffffffffffffffffffffffffffffffffff16815260200190815260200160002081905550612f24828560010154612f3290919063ffffffff16565b846001018190555050505050565b6000612f7483836040518060400160405280601e81526020017f536166654d6174683a207375627472616374696f6e206f766572666c6f7700008152506135e1565b905092915050565b60008160020154905060008260020181905550600082600501819055507f5cae2c6323e6b89af1beffd6a6dfd5a1b15ce6894280f14456b631ed380fa511818360030154846004015460405180848152602001838152602001828152602001935050505060405180910390a15050565b6000612ff88383612cdb565b6130b75782600001829080600181540180825580915050600190039060005260206000200160009091909190916101000a81548173ffffffffffffffffffffffffffffffffffffffff021916908373ffffffffffffffffffffffffffffffffffffffff16021790555082600001805490508360010160008473ffffffffffffffffffffffffffffffffffffffff1673ffffffffffffffffffffffffffffffffffffffff16815260200190815260200160002081905550600190506130bc565b600090505b92915050565b600081836000018054905011613123576040517f08c379a00000000000000000000000000000000000000000000000000000000081526004018080602001828103825260228152602001806136a26022913960400191505060405180910390fd5b82600001828154811061313257fe5b9060005260206000200160009054906101000a900473ffffffffffffffffffffffffffffffffffffffff16905092915050565b6000808284019050838110156131e3576040517f08c379a000000000000000000000000000000000000000000000000000000000815260040180806020018281038252601b8152602001807f536166654d6174683a206164646974696f6e206f766572666c6f77000000000081525060200191505060405180910390fd5b8091505092915050565b61327e828560000160008673ffffffffffffffffffffffffffffffffffffffff1673ffffffffffffffffffffffffffffffffffffffff16815260200190815260200160002060008473ffffffffffffffffffffffffffffffffffffffff1673ffffffffffffffffffffffffffffffffffffffff1681526020019081526020016000205461316590919063ffffffff16565b8460000160008573ffffffffffffffffffffffffffffffffffffffff1673ffffffffffffffffffffffffffffffffffffffff16815260200190815260200160002060008373ffffffffffffffffffffffffffffffffffffffff1673ffffffffffffffffffffffffffffffffffffffff1681526020019081526020016000208190555061331782856001015461316590919063ffffffff16565b846001018190555050505050565b6000808360010160008473ffffffffffffffffffffffffffffffffffffffff1673ffffffffffffffffffffffffffffffffffffffff168152602001908152602001600020549050600081146134fe576000600182039050600060018660000180549050039050600086600001828154811061339c57fe5b9060005260206000200160009054906101000a900473ffffffffffffffffffffffffffffffffffffffff169050808760000184815481106133d957fe5b9060005260206000200160006101000a81548173ffffffffffffffffffffffffffffffffffffffff021916908373ffffffffffffffffffffffffffffffffffffffff160217905550600183018760010160008373ffffffffffffffffffffffffffffffffffffffff1673ffffffffffffffffffffffffffffffffffffffff168152602001908152602001600020819055508660000180548061347757fe5b6001900381819060005260206000200160006101000a81549073ffffffffffffffffffffffffffffffffffffffff021916905590558660010160008773ffffffffffffffffffffffffffffffffffffffff1673ffffffffffffffffffffffffffffffffffffffff168152602001908152602001600020600090556001945050505050613504565b60009150505b92915050565b600081600001805490509050919050565b600080831182906135c7576040517f08c379a00000000000000000000000000000000000000000000000000000000081526004018080602001828103825283818151815260200191508051906020019080838360005b8381101561358c578082015181840152602081019050613571565b50505050905090810190601f1680156135b95780820380516001836020036101000a031916815260200191505b509250505060405180910390fd5b5060008385816135d357fe5b049050809150509392505050565b600083831115829061368e576040517f08c379a00000000000000000000000000000000000000000000000000000000081526004018080602001828103825283818151815260200191508051906020019080838360005b83811015613653578082015181840152602081019050613638565b50505050905090810190601f1680156136805780820380516001836020036101000a031916815260200191505b509250505060405180910390fd5b506000838503905080915050939250505056fe456e756d657261626c655365743a20696e646578206f7574206f6620626f756e6473536166654d6174683a206d756c7469706c69636174696f6e206f766572666c6f77436f6e747261637420696e7374616e63652068617320616c7265616479206265656e20696e697469616c697a65645374616b65206e6f7420617661696c61626c6520666f72207769746864726177616c2ea2646970667358221220b3a8f31827decbc502669fa15b594d2b32e4dac2a1f83dc7b3022bb6e819d72264736f6c634300060c0033",
  "immutableReferences": {},
  "source": "// SPDX-License-Identifier: UNLICENSED\npragma solidity 0.6.12;\n\nimport {SafeMath} from \"@openzeppelin/contracts-ethereum-package/contracts/math/SafeMath.sol\";\nimport {IERC20} from \"@openzeppelin/contracts-ethereum-package/contracts/token/ERC20/IERC20.sol\";\nimport {IGovernor} from \"@moc/shared/contracts/moc-governance/Governance/IGovernor.sol\";\nimport {Governed} from \"@moc/shared/contracts/moc-governance/Governance/Governed.sol\";\nimport {SupportersStorage} from \"./SupportersStorage.sol\";\n\n/*\n    Right now we have two things implemented in the same smart-contract:\n        - Only the smart-contracts in the whitelist can access this one.\n        - Some vesting rules implemented in SupportersVestedAbstract\n    This can be split in the future in two smart-contracts if we want to add a specific set\n    of vesting rules (that doesn't do what SupportersVestedAbstract does).\n*/\ncontract Supporters is SupportersStorage {\n    using SafeMath for uint256;\n\n    // Emitted by SupportersLib\n    event PayEarnings(uint256 earnings, uint256 start, uint256 end);\n    event CancelEarnings(uint256 earnings, uint256 start, uint256 end);\n    event AddStake(\n        address indexed user,\n        address indexed subaccount,\n        address indexed sender,\n        uint256 amount,\n        uint256 mocs\n    );\n    event WithdrawStake(\n        address indexed user,\n        address indexed subaccount,\n        address indexed destination,\n        uint256 amount,\n        uint256 mocs\n    );\n\n    event Withdraw(\n        address indexed msg_sender,\n        address indexed subacount,\n        address indexed receiver,\n        uint256 mocs,\n        uint256 blockNum\n    );\n\n    struct LockingInfo {\n        uint256 untilTimestamp;\n        uint256 amount;\n    }\n\n    mapping(address => LockingInfo) lockedMocs;\n\n    /**\n     @notice Contract creation\n\n     @param _governor The address of the contract which governs this one\n     @param _wlist Initial whitelist addresses\n     @param _mocToken The address of the contract which governs this one\n     @param _period The address of the contract which governs this one\n    */\n    function initialize(\n        IGovernor _governor,\n        address[] calldata _wlist,\n        IERC20 _mocToken,\n        uint256 _period\n    ) external initializer {\n        Governed._initialize(_governor);\n        supportersData._initialize(_mocToken, _period);\n        for (uint256 i = 0; i < _wlist.length; i++) {\n            iterableWhitelistData._addToWhitelist(_wlist[i]);\n        }\n    }\n\n    /// @notice Used by the voting machine to lock an amount of MOCs.\n    /// @param mocHolder the moc holder whose mocs will be locked.\n    /// @param untilTimestamp timestamp until which the mocs will be locked.\n    function lockMocs(address mocHolder, uint256 untilTimestamp)\n        external\n        onlyWhitelisted(iterableWhitelistData)\n    {\n        LockingInfo storage lockedMocsInfo = lockedMocs[mocHolder];\n        lockedMocsInfo.untilTimestamp = untilTimestamp;\n        uint256 mocBalance = supportersData._getMOCBalanceAt(msg.sender, mocHolder);\n        lockedMocsInfo.amount = mocBalance;\n    }\n\n    /// @notice Reports the balance of locked MOCs for a specific user.\n    /// Delegates to the Supporters smart contract.\n    /// @param user user address\n    function getLockedBalance(address user) external view returns (uint256) {\n        LockingInfo storage lockedMocsInfo = lockedMocs[user];\n        return lockedMocsInfo.amount;\n    }\n\n    /**\n     @notice Add to the list of contracts that can stake in this contract\n\n     @param  _whitelisted - the override coinPair\n    */\n    function addToWhitelist(address _whitelisted) external onlyAuthorizedChanger() {\n        iterableWhitelistData._addToWhitelist(_whitelisted);\n    }\n\n    /**\n     @notice Remove from the list of contracts that can stake in this contract\n\n     @param _whitelisted - the override coinPair\n    */\n    function removeFromWhitelist(address _whitelisted) external onlyAuthorizedChanger() {\n        iterableWhitelistData._removeFromWhitelist(_whitelisted);\n    }\n\n    /**\n      @notice Deposit earnings that will be credited to supporters.\n      @dev Earnings will be credited periodically through several blocks.\n    */\n    function distribute() external {\n        supportersData._distribute();\n    }\n\n    /**\n      @notice Return true if is ready to do a distribute call\n\n      @return true if ready\n    */\n    function isReadyToDistribute() external view returns (bool) {\n        return supportersData._isReadyToDistribute();\n    }\n\n    /**\n     Stake MOC to receive earnings on a subaccount.\n\n     @param _mocs amount of MOC to stake\n     @param _subaccount sub-account used to identify the stake\n    */\n    function stakeAt(uint256 _mocs, address _subaccount)\n        external\n        onlyWhitelisted(iterableWhitelistData)\n    {\n        supportersData._stakeAtFrom(_mocs, _subaccount, msg.sender);\n    }\n\n    /**\n     Stake MOC to receive earnings on a subaccount.\n\n     @param _mocs amount of MOC to stake\n     @param _subaccount sub-account used to identify the stake\n     @param _sender sender account that must approve and from which the funds are taken\n    */\n    function stakeAtFrom(\n        uint256 _mocs,\n        address _subaccount,\n        address _sender\n    ) external onlyWhitelisted(iterableWhitelistData) {\n        supportersData._stakeAtFrom(_mocs, _subaccount, _sender);\n    }\n\n    /**\n      Withdraw MOC for tokens for a subaccount.\n\n      @param _tokens amount of tokens to convert to MOC\n      @param _subaccount subaccount used to withdraw MOC\n      @return Amount of MOC transfered\n    */\n    function withdrawFrom(uint256 _tokens, address _subaccount)\n        external\n        onlyWhitelisted(iterableWhitelistData)\n        stakeAvailable(msg.sender, _subaccount, _tokens)\n        returns (uint256)\n    {\n        return supportersData._withdrawFromTo(_tokens, _subaccount, msg.sender);\n    }\n\n    /**\n      Withdraw MOC for tokens for a subaccount.\n\n      @param _tokens amount of tokens to convert to MOC\n      @param _subaccount subaccount used to withdraw MOC\n      @param _receiver destination address that gets the MOC\n      @return Amount of MOC transfered\n    */\n    function withdrawFromTo(\n        uint256 _tokens,\n        address _subaccount,\n        address _receiver\n    )\n        external\n        onlyWhitelisted(iterableWhitelistData)\n        stakeAvailable(msg.sender, _subaccount, _tokens)\n        returns (uint256)\n    {\n        return supportersData._withdrawFromTo(_tokens, _subaccount, _receiver);\n    }\n\n    /**\n      @notice Amount of tokens for _user in a _subaccount.\n\n      @param _user User address\n      @param _subaccount subaccount to get balance\n      @return tokens for _user at _subaccount\n    */\n    function getBalanceAt(address _user, address _subaccount) external view returns (uint256) {\n        return supportersData._getBalanceAt(_user, _subaccount);\n    }\n\n    /**\n      @notice MOC available for withdrawal by _user.\n\n      @param _user User address\n      @param _subaccount subaccount to get MOC balance\n      @return MOC for _user\n    */\n    function getMOCBalanceAt(address _user, address _subaccount) external view returns (uint256) {\n        return supportersData._getMOCBalanceAt(_user, _subaccount);\n    }\n\n    /**\n      @notice Total tokens created.\n\n      @return total amount of tokens\n    */\n    function getTokens() external view returns (uint256) {\n        return supportersData._getTokens();\n    }\n\n    /**\n      @notice MOC available for withdrawal.\n\n      @return total amount of MOC\n    */\n    function getAvailableMOC() external view returns (uint256) {\n        return supportersData._getAvailableMOC();\n    }\n\n    /**\n      @notice Calculate earnings to be paid at a block\n\n      @param _block Block used to calculate\n      @return Earnings to be paid\n    */\n    function getEarningsAt(uint256 _block) external view returns (uint256) {\n        return supportersData._getEarningsAt(_block);\n    }\n\n    /**\n      @notice Calculate locked earnings at a block\n\n      @param _block Block used for calculations\n      @return Locked amount of earnings in MOC\n    */\n    function getLockedAt(uint256 _block) external view returns (uint256) {\n        return supportersData._getLockedAt(_block);\n    }\n\n    /**\n      @notice Return information about earnings\n\n      @return Information about earnings\n    */\n    function getEarningsInfo()\n        external\n        view\n        returns (\n            uint256,\n            uint256,\n            uint256\n        )\n    {\n        return supportersData._getEarningsInfo();\n    }\n\n    /// @notice The moc token address\n    function mocToken() external view returns (IERC20) {\n        return supportersData.mocToken;\n    }\n\n    /**\n     @notice Return the round length in blocks .\n     @dev During each round rewards are collected and distributed during next round.\n\n     @return Number of blocks to distribute earnings\n    */\n    function period() external view returns (uint256) {\n        return supportersData.period;\n    }\n\n    /// @notice Returns the count of whitelisted addresses.\n    function getWhiteListLen() external view returns (uint256) {\n        return iterableWhitelistData._getWhiteListLen();\n    }\n\n    /**\n     @notice Returns the address at index.\n\n     @param _idx index to query.\n    */\n    function getWhiteListAtIndex(uint256 _idx) external view returns (address) {\n        return iterableWhitelistData._getWhiteListAtIndex(_idx);\n    }\n\n    /**\n     @notice Check if an account is whitelisted\n\n     @param _account The account to check\n    */\n    function isWhitelisted(address _account) external view returns (bool) {\n        return iterableWhitelistData._isWhitelisted(_account);\n    }\n\n    /**\n      Convert amount MOC to equivalent in token\n\n      @param _mocs Amount of MOC\n      @return Equivalent amount of tokens\n    */\n    function mocToToken(uint256 _mocs) external view returns (uint256) {\n        return supportersData._mocToToken(_mocs);\n    }\n\n    /**\n      Convert amount tokens to equivalent in MOCS\n\n      @param _token Amount of tokens\n      @return Equivalent amount of tokens\n    */\n    function tokenToMoc(uint256 _token) external view returns (uint256) {\n        return supportersData._tokenToMoc(_token);\n    }\n\n    // @notice total amount of mocs inside the supporters contract\n    function totalMoc() external view returns (uint256) {\n        return supportersData._getAvailableMOC();\n    }\n\n    // @notice total amount of tokens inside the supporters contect.\n    function totalToken() external view returns (uint256) {\n        return supportersData._getTokens();\n    }\n\n    function getMaxMOCBalance(address owner, address[] calldata addresses)\n        external\n        view\n        returns (address selected, uint256 maxBalance)\n    {\n        if (addresses.length == 0) {\n            return (selected, maxBalance);\n        }\n\n        selected = addresses[0];\n        maxBalance = supportersData._getMOCBalanceAt(owner, addresses[0]);\n        for (uint256 i = 1; i < addresses.length; i += 1) {\n            if (addresses[i] == address(0)) {\n                continue;\n            }\n            uint256 balance = supportersData._getMOCBalanceAt(owner, addresses[i]);\n            if (balance > maxBalance) {\n                maxBalance = balance;\n                selected = addresses[i];\n            }\n        }\n\n        return (selected, maxBalance);\n    }\n\n    /**\n      @notice Modifier that checks locked stake for withdrawal availability\n      @dev You should use this modifier in any function that withdraws a user's stake.\n     */\n    modifier stakeAvailable(\n        address user,\n        address subaccount,\n        uint256 tokens\n    ) {\n        uint256 lockedAmount = 0;\n        uint256 mocs = supportersData._tokenToMoc(tokens);\n        LockingInfo storage lockedMocsInfo = lockedMocs[subaccount];\n        uint256 mocBalance = supportersData._getMOCBalanceAt(user, subaccount);\n        if (block.timestamp < lockedMocsInfo.untilTimestamp) {\n            lockedAmount = lockedMocsInfo.amount;\n        }\n        uint256 surplus = mocBalance - lockedAmount;\n        require(mocs <= surplus, \"Stake not available for withdrawal.\");\n        _;\n    }\n}\n",
  "sourcePath": "/home/adji/Desktop/work/coinfabrik/moc-oraculos/contracts/Supporters.sol",
  "compiler": {
    "name": "solc",
    "version": "0.6.12+commit.27d51765.Emscripten.clang"
  },
  "schemaVersion": "3.2.4",
  "updatedAt": "2020-09-11T20:34:45.473Z",
  "devdoc": {
    "kind": "dev",
    "methods": {
      "addToWhitelist(address)": {
        "params": {
          "_whitelisted": "- the override coinPair"
        }
      },
      "changeIGovernor(address)": {
        "params": {
          "newIGovernor": "New governor address"
        }
      },
      "delegateCallToChanger(bytes)": {
        "params": {
          "data": "the serialized function arguments"
        }
      },
      "distribute()": {
        "details": "Earnings will be credited periodically through several blocks."
      },
      "getAvailableMOC()": {
        "returns": {
          "_0": "total amount of MOC"
        }
      },
      "getBalanceAt(address,address)": {
        "params": {
          "_subaccount": "subaccount to get balance",
          "_user": "User address"
        },
        "returns": {
          "_0": "tokens for _user at _subaccount"
        }
      },
      "getEarningsAt(uint256)": {
        "params": {
          "_block": "Block used to calculate"
        },
        "returns": {
          "_0": "Earnings to be paid"
        }
      },
      "getEarningsInfo()": {
        "returns": {
          "_0": "Information about earnings"
        }
      },
      "getLockedAt(uint256)": {
        "params": {
          "_block": "Block used for calculations"
        },
        "returns": {
          "_0": "Locked amount of earnings in MOC"
        }
      },
      "getLockedBalance(address)": {
        "params": {
          "user": "user address"
        }
      },
      "getMOCBalanceAt(address,address)": {
        "params": {
          "_subaccount": "subaccount to get MOC balance",
          "_user": "User address"
        },
        "returns": {
          "_0": "MOC for _user"
        }
      },
      "getTokens()": {
        "returns": {
          "_0": "total amount of tokens"
        }
      },
      "getWhiteListAtIndex(uint256)": {
        "params": {
          "_idx": "index to query."
        }
      },
      "initialize(address,address[],address,uint256)": {
        "params": {
          "_governor": "The address of the contract which governs this one",
          "_mocToken": "The address of the contract which governs this one",
          "_period": "The address of the contract which governs this one",
          "_wlist": "Initial whitelist addresses"
        }
      },
      "isReadyToDistribute()": {
        "returns": {
          "_0": "true if ready"
        }
      },
      "isWhitelisted(address)": {
        "params": {
          "_account": "The account to check"
        }
      },
      "lockMocs(address,uint256)": {
        "params": {
          "mocHolder": "the moc holder whose mocs will be locked.",
          "untilTimestamp": "timestamp until which the mocs will be locked."
        }
      },
      "mocToToken(uint256)": {
        "params": {
          "_mocs": "Amount of MOC"
        },
        "returns": {
          "_0": "Equivalent amount of tokens"
        }
      },
      "period()": {
        "details": "During each round rewards are collected and distributed during next round.",
        "returns": {
          "_0": "Number of blocks to distribute earnings"
        }
      },
      "removeFromWhitelist(address)": {
        "params": {
          "_whitelisted": "- the override coinPair"
        }
      },
      "stakeAt(uint256,address)": {
        "params": {
          "_mocs": "amount of MOC to stake",
          "_subaccount": "sub-account used to identify the stake"
        }
      },
      "stakeAtFrom(uint256,address,address)": {
        "params": {
          "_mocs": "amount of MOC to stake",
          "_sender": "sender account that must approve and from which the funds are taken",
          "_subaccount": "sub-account used to identify the stake"
        }
      },
      "tokenToMoc(uint256)": {
        "params": {
          "_token": "Amount of tokens"
        },
        "returns": {
          "_0": "Equivalent amount of tokens"
        }
      },
      "withdrawFrom(uint256,address)": {
        "params": {
          "_subaccount": "subaccount used to withdraw MOC",
          "_tokens": "amount of tokens to convert to MOC"
        },
        "returns": {
          "_0": "Amount of MOC transfered"
        }
      },
      "withdrawFromTo(uint256,address,address)": {
        "params": {
          "_receiver": "destination address that gets the MOC",
          "_subaccount": "subaccount used to withdraw MOC",
          "_tokens": "amount of tokens to convert to MOC"
        },
        "returns": {
          "_0": "Amount of MOC transfered"
        }
      }
    },
    "version": 1
  },
  "userdoc": {
    "kind": "user",
    "methods": {
      "addToWhitelist(address)": {
        "notice": "Add to the list of contracts that can stake in this contract"
      },
      "changeIGovernor(address)": {
        "notice": "Change the contract's governor. Should be called through the old governance system"
      },
      "delegateCallToChanger(bytes)": {
        "notice": "This method is used by a change contract to access the storage freely even without a setter."
      },
      "distribute()": {
        "notice": "Deposit earnings that will be credited to supporters."
      },
      "getAvailableMOC()": {
        "notice": "MOC available for withdrawal."
      },
      "getBalanceAt(address,address)": {
        "notice": "Amount of tokens for _user in a _subaccount."
      },
      "getEarningsAt(uint256)": {
        "notice": "Calculate earnings to be paid at a block"
      },
      "getEarningsInfo()": {
        "notice": "Return information about earnings"
      },
      "getLockedAt(uint256)": {
        "notice": "Calculate locked earnings at a block"
      },
      "getLockedBalance(address)": {
        "notice": "Reports the balance of locked MOCs for a specific user. Delegates to the Supporters smart contract."
      },
      "getMOCBalanceAt(address,address)": {
        "notice": "MOC available for withdrawal by _user."
      },
      "getTokens()": {
        "notice": "Total tokens created."
      },
      "getWhiteListAtIndex(uint256)": {
        "notice": "Returns the address at index."
      },
      "getWhiteListLen()": {
        "notice": "Returns the count of whitelisted addresses."
      },
      "governor()": {
        "notice": "The address of the contract which governs this one"
      },
      "initialize(address,address[],address,uint256)": {
        "notice": "Contract creation"
      },
      "isReadyToDistribute()": {
        "notice": "Return true if is ready to do a distribute call"
      },
      "isWhitelisted(address)": {
        "notice": "Check if an account is whitelisted"
      },
      "lockMocs(address,uint256)": {
        "notice": "Used by the voting machine to lock an amount of MOCs."
      },
      "mocToToken(uint256)": {
        "notice": "Convert amount MOC to equivalent in token"
      },
      "mocToken()": {
        "notice": "The moc token address"
      },
      "period()": {
        "notice": "Return the round length in blocks ."
      },
      "removeFromWhitelist(address)": {
        "notice": "Remove from the list of contracts that can stake in this contract"
      },
      "stakeAt(uint256,address)": {
        "notice": "Stake MOC to receive earnings on a subaccount."
      },
      "stakeAtFrom(uint256,address,address)": {
        "notice": "Stake MOC to receive earnings on a subaccount."
      },
      "tokenToMoc(uint256)": {
        "notice": "Convert amount tokens to equivalent in MOCS"
      },
      "withdrawFrom(uint256,address)": {
        "notice": "Withdraw MOC for tokens for a subaccount."
      },
      "withdrawFromTo(uint256,address,address)": {
        "notice": "Withdraw MOC for tokens for a subaccount."
      }
    },
    "version": 1
  }
}