{
    "contractName": "TestMOCMintChange",
    "abi": [
        {
            "inputs": [
                {
                    "internalType": "contract IMintableERC20",
                    "name": "_token",
                    "type": "address"
                },
                {
                    "internalType": "address",
                    "name": "_user",
                    "type": "address"
                },
                {
                    "internalType": "uint256",
                    "name": "_amount",
                    "type": "uint256"
                }
            ],
            "stateMutability": "nonpayable",
            "type": "constructor"
        },
        {
            "inputs": [],
            "name": "amount",
            "outputs": [
                {
                    "internalType": "uint256",
                    "name": "",
                    "type": "uint256"
                }
            ],
            "stateMutability": "view",
            "type": "function"
        },
        {
            "inputs": [],
            "name": "token",
            "outputs": [
                {
                    "internalType": "contract IMintableERC20",
                    "name": "",
                    "type": "address"
                }
            ],
            "stateMutability": "view",
            "type": "function"
        },
        {
            "inputs": [],
            "name": "user",
            "outputs": [
                {
                    "internalType": "address",
                    "name": "",
                    "type": "address"
                }
            ],
            "stateMutability": "view",
            "type": "function"
        },
        {
            "inputs": [],
            "name": "execute",
            "outputs": [],
            "stateMutability": "nonpayable",
            "type": "function"
        }
    ],
    "bytecode": "0x608060405234801561001057600080fd5b506040516101f03803806101f08339818101604052606081101561003357600080fd5b5080516020820151604090920151600080546001600160a01b039384166001600160a01b031991821617909155600180549390941692169190911790915560025561016d806100836000396000f3fe608060405234801561001057600080fd5b506004361061004c5760003560e01c80634f8632ba146100515780636146195414610075578063aa8c217c1461007f578063fc0c546a14610099575b600080fd5b6100596100a1565b604080516001600160a01b039092168252519081900360200190f35b61007d6100b0565b005b610087610122565b60408051918252519081900360200190f35b610059610128565b6001546001600160a01b031681565b60008054600154600254604080516340c10f1960e01b81526001600160a01b03938416600482015260248101929092525191909216926340c10f19926044808201939182900301818387803b15801561010857600080fd5b505af115801561011c573d6000803e3d6000fd5b50505050565b60025481565b6000546001600160a01b03168156fea2646970667358221220a6470561e9aa196c129f253796784876e3462231c8b7e4b4a0ad439f5618eb6564736f6c634300060c0033",
    "immutableReferences": {},
    "source": "// SPDX-License-Identifier: UNLICENSED\npragma solidity 0.6.12;\n\nimport {ChangeContract} from \"@moc/shared/contracts/moc-governance/Governance/ChangeContract.sol\";\nimport {IMintableERC20} from \"@moc/shared/contracts/IMintableERC20.sol\";\n\n/**\n  @title MocRegistryInitChange\n  @notice This contract is a ChangeContract intended to initialize all the MOC registry values\n */\ncontract TestMOCMintChange is ChangeContract {\n    IMintableERC20 public token;\n    address public user;\n    uint256 public amount;\n\n    /**\n      @notice Constructor\n    */\n    constructor(\n        IMintableERC20 _token,\n        address _user,\n        uint256 _amount\n    ) public {\n        token = _token;\n        user = _user;\n        amount = _amount;\n    }\n\n    /**\n      @notice Execute the changes.\n      @dev Should be called by the governor, but this contract does not check that explicitly because it is\n      not its responsability in the current architecture\n     */\n    function execute() external override {\n        token.mint(user, amount);\n    }\n}\n",
    "sourcePath": "/home/adji/Desktop/work/coinfabrik/moc-oraculos/contracts/change/TestMOCMintChange.sol",
    "compiler": {
        "name": "solc",
        "version": "0.6.12+commit.27d51765.Emscripten.clang"
    },
    "schemaVersion": "3.2.4",
    "updatedAt": "2020-09-14T20:07:21.975Z",
    "devdoc": {
        "kind": "dev",
        "methods": {
            "execute()": {
                "details": "Should be called by the governor, but this contract does not check that explicitly because it is not its responsability in the current architecture"
            }
        },
        "title": "MocRegistryInitChange",
        "version": 1
    },
    "userdoc": {
        "kind": "user",
        "methods": {
            "constructor": "Constructor",
            "execute()": {
                "notice": "Execute the changes."
            }
        },
        "notice": "This contract is a ChangeContract intended to initialize all the MOC registry values",
        "version": 1
    }
}